{"abi":[{"type":"constructor","inputs":[{"name":"priceFeed","type":"address","internalType":"address"},{"name":"interval","type":"uint256","internalType":"uint256"},{"name":"vrfCoordinator","type":"address","internalType":"address"},{"name":"gasLane","type":"bytes32","internalType":"bytes32"},{"name":"subscriptionId","type":"uint256","internalType":"uint256"},{"name":"callbackGasLimit","type":"uint32","internalType":"uint32"}],"stateMutability":"nonpayable"},{"type":"function","name":"rawFulfillRandomWords","inputs":[{"name":"requestId","type":"uint256","internalType":"uint256"},{"name":"randomWords","type":"uint256[]","internalType":"uint256[]"}],"outputs":[],"stateMutability":"nonpayable"},{"type":"event","name":"Downvoted","inputs":[{"name":"postId","type":"uint256","indexed":false,"internalType":"uint256"},{"name":"posthAuthorName","type":"string","indexed":false,"internalType":"string"},{"name":"downvoterName","type":"string","indexed":false,"internalType":"string"}],"anonymous":false},{"type":"event","name":"PickedWinner","inputs":[{"name":"winner","type":"address","indexed":false,"internalType":"address"}],"anonymous":false},{"type":"event","name":"PostCreated","inputs":[{"name":"postId","type":"uint256","indexed":false,"internalType":"uint256"},{"name":"authorName","type":"string","indexed":false,"internalType":"string"}],"anonymous":false},{"type":"event","name":"PostEdited","inputs":[{"name":"postId","type":"uint256","indexed":false,"internalType":"uint256"},{"name":"authorName","type":"string","indexed":false,"internalType":"string"}],"anonymous":false},{"type":"event","name":"PostLiked","inputs":[{"name":"postId","type":"uint256","indexed":true,"internalType":"uint256"},{"name":"postAuthor","type":"address","indexed":true,"internalType":"address"},{"name":"liker","type":"address","indexed":true,"internalType":"address"}],"anonymous":false},{"type":"event","name":"RequestWinningAuthor","inputs":[{"name":"requestId","type":"uint256","indexed":false,"internalType":"uint256"}],"anonymous":false},{"type":"event","name":"RewardSent","inputs":[{"name":"user","type":"address","indexed":true,"internalType":"address"},{"name":"amount","type":"uint256","indexed":false,"internalType":"uint256"}],"anonymous":false},{"type":"event","name":"Upvoted","inputs":[{"name":"postId","type":"uint256","indexed":false,"internalType":"uint256"},{"name":"posthAuthorName","type":"string","indexed":false,"internalType":"string"},{"name":"upvoterName","type":"string","indexed":false,"internalType":"string"}],"anonymous":false},{"type":"event","name":"UserRegistered","inputs":[{"name":"id","type":"uint256","indexed":true,"internalType":"uint256"},{"name":"userAddress","type":"address","indexed":true,"internalType":"address"},{"name":"username","type":"string","indexed":false,"internalType":"string"}],"anonymous":false},{"type":"error","name":"ChainSphere__AlreadyVoted","inputs":[]},{"type":"error","name":"ChainSphere__BatchTransferFailed","inputs":[{"name":"winner","type":"address","internalType":"address"}]},{"type":"error","name":"ChainSphere__NotPostOwner","inputs":[]},{"type":"error","name":"ChainSphere__NotProfileOwner","inputs":[]},{"type":"error","name":"ChainSphere__OwnerCannotVote","inputs":[]},{"type":"error","name":"ChainSphere__PaymentNotEnough","inputs":[]},{"type":"error","name":"ChainSphere__PostDoesNotExist","inputs":[]},{"type":"error","name":"ChainSphere__TransferFailed","inputs":[]},{"type":"error","name":"ChainSphere__UpkeepNotNeeded","inputs":[{"name":"balance","type":"uint256","internalType":"uint256"},{"name":"numOfEligibleAuthors","type":"uint256","internalType":"uint256"}]},{"type":"error","name":"ChainSphere__UserDoesNotExist","inputs":[]},{"type":"error","name":"ChainSphere__UsernameAlreadyTaken","inputs":[]},{"type":"error","name":"OnlyCoordinatorCanFulfill","inputs":[{"name":"have","type":"address","internalType":"address"},{"name":"want","type":"address","internalType":"address"}]}],"bytecode":{"object":"0x61014060405234801561001157600080fd5b50604051610e61380380610e6183398101604081905261003091610096565b6001600160a01b03938416608052600680546001600160a01b031916969094169590951790925560a0929092524260165560e0919091526101005263ffffffff1661012052610102565b80516001600160a01b038116811461009157600080fd5b919050565b60008060008060008060c087890312156100af57600080fd5b6100b88761007a565b9550602087015194506100cd6040880161007a565b9350606087015192506080870151915060a087015163ffffffff811681146100f457600080fd5b809150509295509295509295565b60805160a05160c05160e0516101005161012051610d1a6101476000396000505060005050600050506000505060005050600081816050015260920152610d1a6000f3fe608060405234801561001057600080fd5b506004361061002b5760003560e01c80631fe543e314610030575b600080fd5b61004361003e366004610ba8565b610045565b005b336001600160a01b037f000000000000000000000000000000000000000000000000000000000000000016146100c45760405163073e64fd60e21b81523360048201526001600160a01b037f00000000000000000000000000000000000000000000000000000000000000001660248201526044015b60405180910390fd5b6100ce82826100d2565b5050565b60408051600081526020810191829052516100ef91601491610b32565b50805160010361026e5760006013805490508260008151811061011457610114610c72565b60200260200101516101269190610c88565b905060006013828154811061013d5761013d610c72565b6000918252602082200154601480546001810182559083527fce6d7b5282bd9a3661ae061feed1dbda4e52ab073b1f9285be6e155d9c38d4ec018190559150610185826103e5565b60c0015160408051600081526020810191829052519192506101aa9160089190610b32565b50426016556040516001600160a01b03821681527fb112587e57bfa970257f3d54fc52859c6300f6bd7a982462c320fed45c2530ed9060200160405180910390a16000816001600160a01b0316662386f26fc1000060405160006040518083038185875af1925050503d806000811461023f576040519150601f19603f3d011682016040523d82523d6000602084013e610244565b606091505b505090508061026657604051630e352ebb60e41b815260040160405180910390fd5b505050505050565b805160005b818110156103df57600060138054905084838151811061029557610295610c72565b60200260200101516102a79190610c88565b90506000601382815481106102be576102be610c72565b6000918252602082200154601480546001810182559083527fce6d7b5282bd9a3661ae061feed1dbda4e52ab073b1f9285be6e155d9c38d4ec018190559150610306826103e5565b60c001516040516001600160a01b03821681529091507fb112587e57bfa970257f3d54fc52859c6300f6bd7a982462c320fed45c2530ed9060200160405180910390a16000816001600160a01b0316662386f26fc1000060405160006040518083038185875af1925050503d806000811461039d576040519150601f19603f3d011682016040523d82523d6000602084013e6103a2565b606091505b50509050806103cf57604051635e680b6b60e01b81526001600160a01b03831660048201526024016100bb565b5050600190920191506102739050565b50505050565b61044460405180610140016040528060008152602001606081526020016060815260200160008152602001600081526020016000815260200160006001600160a01b031681526020016060815260200160608152602001606081525090565b61044c6107b9565b51821061046c57604051630fda044d60e11b815260040160405180910390fd5b6007828154811061047f5761047f610c72565b90600052602060002090600a020160405180610140016040529081600082015481526020016001820180546104b390610caa565b80601f01602080910402602001604051908101604052809291908181526020018280546104df90610caa565b801561052c5780601f106105015761010080835404028352916020019161052c565b820191906000526020600020905b81548152906001019060200180831161050f57829003601f168201915b5050505050815260200160028201805461054590610caa565b80601f016020809104026020016040519081016040528092919081815260200182805461057190610caa565b80156105be5780601f10610593576101008083540402835291602001916105be565b820191906000526020600020905b8154815290600101906020018083116105a157829003601f168201915b505050918352505060038201546020820152600482015460408201526005820154606082015260068201546001600160a01b0316608082015260078201805460a09092019161060c90610caa565b80601f016020809104026020016040519081016040528092919081815260200182805461063890610caa565b80156106855780601f1061065a57610100808354040283529160200191610685565b820191906000526020600020905b81548152906001019060200180831161066857829003601f168201915b5050505050815260200160088201805461069e90610caa565b80601f01602080910402602001604051908101604052809291908181526020018280546106ca90610caa565b80156107175780601f106106ec57610100808354040283529160200191610717565b820191906000526020600020905b8154815290600101906020018083116106fa57829003601f168201915b5050505050815260200160098201805461073090610caa565b80601f016020809104026020016040519081016040528092919081815260200182805461075c90610caa565b80156107a95780601f1061077e576101008083540402835291602001916107a9565b820191906000526020600020905b81548152906001019060200180831161078c57829003601f168201915b5050505050815250509050919050565b60606007805480602002602001604051908101604052809291908181526020016000905b82821015610b2957838290600052602060002090600a0201604051806101400160405290816000820154815260200160018201805461081b90610caa565b80601f016020809104026020016040519081016040528092919081815260200182805461084790610caa565b80156108945780601f1061086957610100808354040283529160200191610894565b820191906000526020600020905b81548152906001019060200180831161087757829003601f168201915b505050505081526020016002820180546108ad90610caa565b80601f01602080910402602001604051908101604052809291908181526020018280546108d990610caa565b80156109265780601f106108fb57610100808354040283529160200191610926565b820191906000526020600020905b81548152906001019060200180831161090957829003601f168201915b505050918352505060038201546020820152600482015460408201526005820154606082015260068201546001600160a01b0316608082015260078201805460a09092019161097490610caa565b80601f01602080910402602001604051908101604052809291908181526020018280546109a090610caa565b80156109ed5780601f106109c2576101008083540402835291602001916109ed565b820191906000526020600020905b8154815290600101906020018083116109d057829003601f168201915b50505050508152602001600882018054610a0690610caa565b80601f0160208091040260200160405190810160405280929190818152602001828054610a3290610caa565b8015610a7f5780601f10610a5457610100808354040283529160200191610a7f565b820191906000526020600020905b815481529060010190602001808311610a6257829003601f168201915b50505050508152602001600982018054610a9890610caa565b80601f0160208091040260200160405190810160405280929190818152602001828054610ac490610caa565b8015610b115780601f10610ae657610100808354040283529160200191610b11565b820191906000526020600020905b815481529060010190602001808311610af457829003601f168201915b505050505081525050815260200190600101906107dd565b50505050905090565b828054828255906000526020600020908101928215610b6d579160200282015b82811115610b6d578251825591602001919060010190610b52565b50610b79929150610b7d565b5090565b5b80821115610b795760008155600101610b7e565b634e487b7160e01b600052604160045260246000fd5b60008060408385031215610bbb57600080fd5b8235915060208084013567ffffffffffffffff80821115610bdb57600080fd5b818601915086601f830112610bef57600080fd5b813581811115610c0157610c01610b92565b8060051b604051601f19603f83011681018181108582111715610c2657610c26610b92565b604052918252848201925083810185019189831115610c4457600080fd5b938501935b82851015610c6257843584529385019392850192610c49565b8096505050505050509250929050565b634e487b7160e01b600052603260045260246000fd5b600082610ca557634e487b7160e01b600052601260045260246000fd5b500690565b600181811c90821680610cbe57607f821691505b602082108103610cde57634e487b7160e01b600052602260045260246000fd5b5091905056fea264697066735822122009baefd227a5ee5a01cac5bae296f405d7acee252a66fd6cc8c46e85b968dc6564736f6c63430008180033","linkReferences":{}},"methodIdentifiers":{"rawFulfillRandomWords(uint256,uint256[])":"1fe543e3"},"id":37}