{"abi":[{"type":"function","name":"RELATIVE_BROADCAST_PATH","inputs":[],"outputs":[{"name":"","type":"string","internalType":"string"}],"stateMutability":"view"},{"type":"function","name":"get_most_recent_deployment","inputs":[{"name":"contractName","type":"string","internalType":"string"},{"name":"chainId","type":"uint256","internalType":"uint256"},{"name":"relativeBroadcastPath","type":"string","internalType":"string"}],"outputs":[{"name":"","type":"address","internalType":"address"}],"stateMutability":"view"},{"type":"function","name":"vm","inputs":[],"outputs":[{"name":"","type":"Vm","internalType":"contract Vm"}],"stateMutability":"view"}],"bytecode":{"object":"0x61107b61003a600b82828239805160001a60731461002d57634e487b7160e01b600052600060045260246000fd5b30600052607381538281f3fe730000000000000000000000000000000000000000301460806040526004361061004b5760003560e01c80632aa1c696146100505780633a768463146100905780633d363fe3146100cf575b600080fd5b61007a6040518060400160405280600b81526020016a0b8bd89c9bd85918d85cdd60aa1b81525081565b6040516100879190610a55565b60405180910390f35b6100b77f885cb69240a935d632d79c317109709ecfa91a80626ff3989d68f67f5b1dd12d81565b6040516001600160a01b039091168152602001610087565b6100b76100dd366004610b56565b604051630525e1db60e21b81526000908190819081908190737109709ecfa91a80626ff3989d68f67f5b1dd12d90631497876c90610122908990600390600401610bc3565b600060405180830381865afa15801561013f573d6000803e3d6000fd5b505050506040513d6000823e601f3d908101601f191682016040526101679190810190610c51565b905060005b81518110156103f757600082828151811061018957610189610dae565b602090810291909101015160405163348051d760e11b8152600481018b905290915061023e90737109709ecfa91a80626ff3989d68f67f5b1dd12d90636900a3ae90602401600060405180830381865afa1580156101eb573d6000803e3d6000fd5b505050506040513d6000823e601f3d908101601f191682016040526102139190810190610dc4565b6040516020016102239190610df9565b60408051601f198184030181529190526020830151906104ca565b8015610279575061027960405180604001604052806005815260200164173539b7b760d91b81525082602001516104ca90919063ffffffff16565b80156102b857506102b66040518060400160405280600781526020016632393c96b93ab760c91b81525082602001516104ca90919063ffffffff16565b155b156103ee5760208101516040516360f9bb1160e01b815260019550600091737109709ecfa91a80626ff3989d68f67f5b1dd12d916360f9bb11916102fe91600401610a55565b600060405180830381865afa15801561031b573d6000803e3d6000fd5b505050506040513d6000823e601f3d908101601f191682016040526103439190810190610dc4565b6040516356eef15b60e11b8152909150600090737109709ecfa91a80626ff3989d68f67f5b1dd12d9063addde2b690610380908590600401610e27565b602060405180830381865afa15801561039d573d6000803e3d6000fd5b505050506040513d601f19601f820116820180604052508101906103c19190610e66565b9050868111156103eb576103d6828d8a6105ab565b97506001600160a01b038816156103eb578096505b50505b5060010161016c565b50816104695760405162461bcd60e51b815260206004820152603660248201527f4e6f206465706c6f796d656e7420617274696661637473207765726520666f756044820152753732103337b91039b832b1b4b334b2b21031b430b4b760511b60648201526084015b60405180910390fd5b6001600160a01b0384161561048457839450505050506104c3565b60405162461bcd60e51b8152602060048201526014602482015273139bc818dbdb9d1c9858dd0819195c1b1bde595960621b6044820152606401610460565b9392505050565b805182516000918491849111806104e057508151155b156104f0576000925050506105a5565b60005b815183516105019190610e95565b811161059d57600160005b83518110156105765783818151811061052757610527610dae565b01602001516001600160f81b031916856105418386610ea8565b8151811061055157610551610dae565b01602001516001600160f81b0319161461056e5760009150610576565b60010161050c565b50801561058a5760019450505050506105a5565b508061059581610ebb565b9150506104f3565b506000925050505b92915050565b6000805b60405163348051d760e11b815260048101829052737109709ecfa91a80626ff3989d68f67f5b1dd12d9063db4235f69087908390636900a3ae90602401600060405180830381865afa158015610609573d6000803e3d6000fd5b505050506040513d6000823e601f3d908101601f191682016040526106319190810190610dc4565b6040516020016106419190610ed4565b6040516020818303038152906040526040518363ffffffff1660e01b815260040161066d929190610f16565b602060405180830381865afa15801561068a573d6000803e3d6000fd5b505050506040513d601f19601f820116820180604052508101906106ae9190610f44565b156108a55760405163348051d760e11b815260048101829052600090737109709ecfa91a80626ff3989d68f67f5b1dd12d90636900a3ae90602401600060405180830381865afa158015610706573d6000803e3d6000fd5b505050506040513d6000823e601f3d908101601f1916820160405261072e9190810190610dc4565b60405160200161073e9190610f5f565b60408051601f1981840301815290829052636da11afb60e11b82529150737109709ecfa91a80626ff3989d68f67f5b1dd12d9063db4235f6906107879089908590600401610f16565b602060405180830381865afa1580156107a4573d6000803e3d6000fd5b505050506040513d601f19601f820116820180604052508101906107c89190610f44565b156108925760006107d987836108ae565b90506107e5818761092f565b156108905760405163348051d760e11b81526004810184905261088d90737109709ecfa91a80626ff3989d68f67f5b1dd12d90636900a3ae90602401600060405180830381865afa15801561083e573d6000803e3d6000fd5b505050506040513d6000823e601f3d908101601f191682016040526108669190810190610dc4565b6040516020016108769190610fae565b60408051601f198184030181529190528890610988565b94505b505b508061089d81610ebb565b9150506105af565b50909392505050565b6040516309389f5960e31b8152606090737109709ecfa91a80626ff3989d68f67f5b1dd12d906349c4fac8906108ea9086908690600401610f16565b600060405180830381865afa158015610907573d6000803e3d6000fd5b505050506040513d6000823e601f3d908101601f191682016040526104c39190810190610dc4565b6000816040516020016109429190611000565b60405160208183030381529060405280519060200120836040516020016109699190611000565b6040516020818303038152906040528051906020012014905092915050565b604051631e19e65760e01b8152600090737109709ecfa91a80626ff3989d68f67f5b1dd12d90631e19e657906109c49086908690600401610f16565b602060405180830381865afa1580156109e1573d6000803e3d6000fd5b505050506040513d601f19601f820116820180604052508101906104c3919061101c565b60005b83811015610a20578181015183820152602001610a08565b50506000910152565b60008151808452610a41816020860160208601610a05565b601f01601f19169290920160200192915050565b6020815260006104c36020830184610a29565b634e487b7160e01b600052604160045260246000fd5b60405160a0810167ffffffffffffffff81118282101715610aa157610aa1610a68565b60405290565b604051601f8201601f1916810167ffffffffffffffff81118282101715610ad057610ad0610a68565b604052919050565b600067ffffffffffffffff821115610af257610af2610a68565b50601f01601f191660200190565b600082601f830112610b1157600080fd5b8135610b24610b1f82610ad8565b610aa7565b818152846020838601011115610b3957600080fd5b816020850160208301376000918101602001919091529392505050565b600080600060608486031215610b6b57600080fd5b833567ffffffffffffffff80821115610b8357600080fd5b610b8f87838801610b00565b9450602086013593506040860135915080821115610bac57600080fd5b50610bb986828701610b00565b9150509250925092565b604081526000610bd66040830185610a29565b905067ffffffffffffffff831660208301529392505050565b600082601f830112610c0057600080fd5b8151610c0e610b1f82610ad8565b818152846020838601011115610c2357600080fd5b610c34826020830160208701610a05565b949350505050565b80518015158114610c4c57600080fd5b919050565b60006020808385031215610c6457600080fd5b825167ffffffffffffffff80821115610c7c57600080fd5b818501915085601f830112610c9057600080fd5b815181811115610ca257610ca2610a68565b8060051b610cb1858201610aa7565b9182528381018501918581019089841115610ccb57600080fd5b86860192505b83831015610da157825185811115610ce95760008081fd5b860160a0818c03601f1901811315610d015760008081fd5b610d09610a7e565b8983015188811115610d1b5760008081fd5b610d298e8c83870101610bef565b82525060408084015189811115610d405760008081fd5b610d4e8f8d83880101610bef565b8c840152506060808501518a81168114610d685760008081fd5b80838501525060809150610d7d828601610c3c565b90830152610d8c848401610c3c565b90820152845250509186019190860190610cd1565b9998505050505050505050565b634e487b7160e01b600052603260045260246000fd5b600060208284031215610dd657600080fd5b815167ffffffffffffffff811115610ded57600080fd5b610c3484828501610bef565b6000602f60f81b8083528351610e16816001860160208801610a05565b600193019283015250600201919050565b604081526000610e3a6040830184610a29565b8281036020840152600a81526902e74696d657374616d760b41b60208201526040810191505092915050565b600060208284031215610e7857600080fd5b5051919050565b634e487b7160e01b600052601160045260246000fd5b818103818111156105a5576105a5610e7f565b808201808211156105a5576105a5610e7f565b600060018201610ecd57610ecd610e7f565b5060010190565b6e242e7472616e73616374696f6e735b60881b815260008251610efe81600f850160208701610a05565b605d60f81b600f939091019283015250601001919050565b604081526000610f296040830185610a29565b8281036020840152610f3b8185610a29565b95945050505050565b600060208284031215610f5657600080fd5b6104c382610c3c565b6e242e7472616e73616374696f6e735b60881b815260008251610f8981600f850160208701610a05565b6d5d2e636f6e74726163744e616d6560901b600f939091019283015250601d01919050565b6e242e7472616e73616374696f6e735b60881b815260008251610fd881600f850160208701610a05565b705d2e636f6e74726163744164647265737360781b600f939091019283015250602001919050565b60008251611012818460208701610a05565b9190910192915050565b60006020828403121561102e57600080fd5b81516001600160a01b03811681146104c357600080fdfea264697066735822122036edc4c0685607253ea13110f9bb5c59409a610f285dbaa0aff6219ac30d23d464736f6c63430008180033","linkReferences":{}},"methodIdentifiers":{"RELATIVE_BROADCAST_PATH()":"2aa1c696","get_most_recent_deployment(string,uint256,string)":"3d363fe3","vm()":"3a768463"},"id":23}