{"abi":[{"type":"function","name":"MINIMUM_USD","inputs":[],"outputs":[{"name":"","type":"uint256","internalType":"uint256"}],"stateMutability":"view"},{"type":"function","name":"MIN_POST_SCORE","inputs":[],"outputs":[{"name":"","type":"uint256","internalType":"uint256"}],"stateMutability":"view"},{"type":"function","name":"REQUEST_CONFIRMATIONS","inputs":[],"outputs":[{"name":"","type":"uint16","internalType":"uint16"}],"stateMutability":"view"},{"type":"function","name":"TEN","inputs":[],"outputs":[{"name":"","type":"uint32","internalType":"uint32"}],"stateMutability":"view"},{"type":"function","name":"TWENTY","inputs":[],"outputs":[{"name":"","type":"uint32","internalType":"uint32"}],"stateMutability":"view"},{"type":"function","name":"WINNING_REWARD","inputs":[],"outputs":[{"name":"","type":"uint256","internalType":"uint256"}],"stateMutability":"view"},{"type":"function","name":"i_callbackGasLimit","inputs":[],"outputs":[{"name":"","type":"uint32","internalType":"uint32"}],"stateMutability":"view"},{"type":"function","name":"i_gasLane","inputs":[],"outputs":[{"name":"","type":"bytes32","internalType":"bytes32"}],"stateMutability":"view"},{"type":"function","name":"i_interval","inputs":[],"outputs":[{"name":"","type":"uint256","internalType":"uint256"}],"stateMutability":"view"},{"type":"function","name":"i_subscriptionId","inputs":[],"outputs":[{"name":"","type":"uint64","internalType":"uint64"}],"stateMutability":"view"},{"type":"function","name":"i_vrfCoordinator","inputs":[],"outputs":[{"name":"","type":"address","internalType":"contract VRFCoordinatorV2Interface"}],"stateMutability":"view"},{"type":"function","name":"s_addressToUserProfile","inputs":[{"name":"","type":"address","internalType":"address"}],"outputs":[{"name":"id","type":"uint256","internalType":"uint256"},{"name":"userAddress","type":"address","internalType":"address"},{"name":"nickName","type":"string","internalType":"string"},{"name":"fullNameOfUser","type":"string","internalType":"string"},{"name":"bio","type":"string","internalType":"string"},{"name":"profileImageHash","type":"string","internalType":"string"}],"stateMutability":"view"},{"type":"function","name":"s_authorToPostId","inputs":[{"name":"","type":"address","internalType":"address"}],"outputs":[{"name":"","type":"uint256","internalType":"uint256"}],"stateMutability":"view"},{"type":"function","name":"s_authorsEligibleForReward","inputs":[{"name":"","type":"uint256","internalType":"uint256"}],"outputs":[{"name":"","type":"address","internalType":"address"}],"stateMutability":"view"},{"type":"function","name":"s_hasVoted","inputs":[{"name":"","type":"address","internalType":"address"},{"name":"","type":"uint256","internalType":"uint256"}],"outputs":[{"name":"","type":"bool","internalType":"bool"}],"stateMutability":"view"},{"type":"function","name":"s_idToPost","inputs":[{"name":"","type":"uint256","internalType":"uint256"}],"outputs":[{"name":"postId","type":"uint256","internalType":"uint256"},{"name":"content","type":"string","internalType":"string"},{"name":"imgHash","type":"string","internalType":"string"},{"name":"timestamp","type":"uint256","internalType":"uint256"},{"name":"upvotes","type":"uint256","internalType":"uint256"},{"name":"downvotes","type":"uint256","internalType":"uint256"},{"name":"author","type":"address","internalType":"address"}],"stateMutability":"view"},{"type":"function","name":"s_idsOfEligiblePosts","inputs":[{"name":"","type":"uint256","internalType":"uint256"}],"outputs":[{"name":"","type":"uint256","internalType":"uint256"}],"stateMutability":"view"},{"type":"function","name":"s_idsOfRecentWinningPosts","inputs":[{"name":"","type":"uint256","internalType":"uint256"}],"outputs":[{"name":"","type":"uint256","internalType":"uint256"}],"stateMutability":"view"},{"type":"function","name":"s_lastTimeStamp","inputs":[],"outputs":[{"name":"","type":"uint256","internalType":"uint256"}],"stateMutability":"view"},{"type":"function","name":"s_likedComment","inputs":[{"name":"","type":"uint256","internalType":"uint256"},{"name":"","type":"uint256","internalType":"uint256"},{"name":"","type":"address","internalType":"address"}],"outputs":[{"name":"","type":"bool","internalType":"bool"}],"stateMutability":"view"},{"type":"function","name":"s_likersOfComment","inputs":[{"name":"","type":"uint256","internalType":"uint256"},{"name":"","type":"uint256","internalType":"uint256"},{"name":"","type":"uint256","internalType":"uint256"}],"outputs":[{"name":"","type":"address","internalType":"address"}],"stateMutability":"view"},{"type":"function","name":"s_numOfWords","inputs":[],"outputs":[{"name":"","type":"uint32","internalType":"uint32"}],"stateMutability":"view"},{"type":"function","name":"s_owner","inputs":[],"outputs":[{"name":"","type":"address","internalType":"address"}],"stateMutability":"view"},{"type":"function","name":"s_postAndCommentIdToAddress","inputs":[{"name":"","type":"uint256","internalType":"uint256"},{"name":"","type":"uint256","internalType":"uint256"}],"outputs":[{"name":"","type":"address","internalType":"address"}],"stateMutability":"view"},{"type":"function","name":"s_postIdToAuthor","inputs":[{"name":"","type":"uint256","internalType":"uint256"}],"outputs":[{"name":"","type":"address","internalType":"address"}],"stateMutability":"view"},{"type":"function","name":"s_postIdToComments","inputs":[{"name":"","type":"uint256","internalType":"uint256"},{"name":"","type":"uint256","internalType":"uint256"}],"outputs":[{"name":"commentId","type":"uint256","internalType":"uint256"},{"name":"author","type":"address","internalType":"address"},{"name":"postId","type":"uint256","internalType":"uint256"},{"name":"content","type":"string","internalType":"string"},{"name":"timestamp","type":"uint256","internalType":"uint256"},{"name":"likesCount","type":"uint256","internalType":"uint256"}],"stateMutability":"view"},{"type":"function","name":"s_priceFeed","inputs":[],"outputs":[{"name":"","type":"address","internalType":"contract AggregatorV3Interface"}],"stateMutability":"view"},{"type":"function","name":"s_userAddressToId","inputs":[{"name":"","type":"address","internalType":"address"}],"outputs":[{"name":"","type":"uint256","internalType":"uint256"}],"stateMutability":"view"},{"type":"function","name":"s_usernameToAddress","inputs":[{"name":"","type":"string","internalType":"string"}],"outputs":[{"name":"","type":"address","internalType":"address"}],"stateMutability":"view"},{"type":"function","name":"userComments","inputs":[{"name":"","type":"address","internalType":"address"},{"name":"","type":"uint256","internalType":"uint256"}],"outputs":[{"name":"commentId","type":"uint256","internalType":"uint256"},{"name":"author","type":"address","internalType":"address"},{"name":"postId","type":"uint256","internalType":"uint256"},{"name":"content","type":"string","internalType":"string"},{"name":"timestamp","type":"uint256","internalType":"uint256"},{"name":"likesCount","type":"uint256","internalType":"uint256"}],"stateMutability":"view"},{"type":"function","name":"userPosts","inputs":[{"name":"","type":"address","internalType":"address"},{"name":"","type":"uint256","internalType":"uint256"}],"outputs":[{"name":"postId","type":"uint256","internalType":"uint256"},{"name":"content","type":"string","internalType":"string"},{"name":"imgHash","type":"string","internalType":"string"},{"name":"timestamp","type":"uint256","internalType":"uint256"},{"name":"upvotes","type":"uint256","internalType":"uint256"},{"name":"downvotes","type":"uint256","internalType":"uint256"},{"name":"author","type":"address","internalType":"address"}],"stateMutability":"view"},{"type":"event","name":"CommentCreated","inputs":[{"name":"commentId","type":"uint256","indexed":true,"internalType":"uint256"},{"name":"postAuthor","type":"string","indexed":false,"internalType":"string"},{"name":"commentAuthor","type":"string","indexed":false,"internalType":"string"},{"name":"postId","type":"uint256","indexed":false,"internalType":"uint256"}],"anonymous":false},{"type":"event","name":"Downvoted","inputs":[{"name":"postId","type":"uint256","indexed":false,"internalType":"uint256"},{"name":"posthAuthorName","type":"string","indexed":false,"internalType":"string"},{"name":"downvoterName","type":"string","indexed":false,"internalType":"string"}],"anonymous":false},{"type":"event","name":"PickedWinner","inputs":[{"name":"winner","type":"address","indexed":false,"internalType":"address"}],"anonymous":false},{"type":"event","name":"PostCreated","inputs":[{"name":"postId","type":"uint256","indexed":false,"internalType":"uint256"},{"name":"authorName","type":"string","indexed":false,"internalType":"string"}],"anonymous":false},{"type":"event","name":"PostEdited","inputs":[{"name":"postId","type":"uint256","indexed":false,"internalType":"uint256"},{"name":"authorName","type":"string","indexed":false,"internalType":"string"}],"anonymous":false},{"type":"event","name":"PostLiked","inputs":[{"name":"postId","type":"uint256","indexed":true,"internalType":"uint256"},{"name":"postAuthor","type":"address","indexed":true,"internalType":"address"},{"name":"liker","type":"address","indexed":true,"internalType":"address"}],"anonymous":false},{"type":"event","name":"RequestWinningAuthor","inputs":[{"name":"requestId","type":"uint256","indexed":false,"internalType":"uint256"}],"anonymous":false},{"type":"event","name":"RewardSent","inputs":[{"name":"user","type":"address","indexed":true,"internalType":"address"},{"name":"amount","type":"uint256","indexed":false,"internalType":"uint256"}],"anonymous":false},{"type":"event","name":"Upvoted","inputs":[{"name":"postId","type":"uint256","indexed":false,"internalType":"uint256"},{"name":"posthAuthorName","type":"string","indexed":false,"internalType":"string"},{"name":"upvoterName","type":"string","indexed":false,"internalType":"string"}],"anonymous":false},{"type":"event","name":"UserRegistered","inputs":[{"name":"id","type":"uint256","indexed":true,"internalType":"uint256"},{"name":"userAddress","type":"address","indexed":true,"internalType":"address"},{"name":"username","type":"string","indexed":true,"internalType":"string"}],"anonymous":false},{"type":"error","name":"ChainSphere__AlreadyVoted","inputs":[]},{"type":"error","name":"ChainSphere__BatchTransferFailed","inputs":[{"name":"winner","type":"address","internalType":"address"}]},{"type":"error","name":"ChainSphere__NotCommentOwner","inputs":[]},{"type":"error","name":"ChainSphere__NotOwner","inputs":[]},{"type":"error","name":"ChainSphere__NotPostOwner","inputs":[]},{"type":"error","name":"ChainSphere__NotProfileOwner","inputs":[]},{"type":"error","name":"ChainSphere__OwnerCannotVote","inputs":[]},{"type":"error","name":"ChainSphere__PaymentNotEnough","inputs":[]},{"type":"error","name":"ChainSphere__TransferFailed","inputs":[]},{"type":"error","name":"ChainSphere__UpkeepNotNeeded","inputs":[{"name":"balance","type":"uint256","internalType":"uint256"},{"name":"numOfEligibleAuthors","type":"uint256","internalType":"uint256"}]},{"type":"error","name":"ChainSphere__UserDoesNotExist","inputs":[]},{"type":"error","name":"ChainSphere__UsernameAlreadyTaken","inputs":[]}],"bytecode":{"object":"0x61012060405234801561001157600080fd5b5060805160a05160c05160e05161010051610ee76100566000396000610575015260006102e20152600061042801526000610496015260006103a60152610ee76000f3fe608060405234801561001057600080fd5b50600436106101e55760003560e01c80638064d1491161010f578063c1c86dd3116100a2578063d757d02711610071578063d757d02714610570578063dd47f7e214610597578063e39782401461059f578063ee2f3a05146105b257600080fd5b8063c1c86dd31461050e578063ca47fdd214610521578063d076806514610534578063d088bbcd1461056257600080fd5b8063aebc4550116100de578063aebc455014610491578063b4293548146104b8578063bc7e8e4c146104dd578063c0ae233b1461050657600080fd5b80638064d149146103fd5780638e879c8a14610423578063a3260c351461044a578063aac0823c1461045d57600080fd5b8063470cdf97116101875780636919207d116101565780636919207d146103a15780636b69a592146103c857806379129471146103d75780637f9fb67e146103ea57600080fd5b8063470cdf97146102dd5780635179ce781461031d5780635bcf7fca1461036157806367f082b01461038657600080fd5b80632e10a1d4116101c35780632e10a1d4146102735780632fc51a6e146102a157806334854043146102c157806335da1e22146102ca57600080fd5b8063048e9d24146101ea5780630ec3b0271461023b5780630f9aebbd1461024e575b600080fd5b61021e6101f8366004610b58565b60106020908152600092835260408084209091529082529020546001600160a01b031681565b6040516001600160a01b0390911681526020015b60405180910390f35b60005461021e906001600160a01b031681565b60185461025e9063ffffffff1681565b60405163ffffffff9091168152602001610232565b610293610281366004610b96565b60056020526000908152604090205481565b604051908152602001610232565b6102936102af366004610b96565b600a6020526000908152604090205481565b61029360015481565b61021e6102d8366004610bb8565b6105ba565b6103047f000000000000000000000000000000000000000000000000000000000000000081565b60405167ffffffffffffffff9091168152602001610232565b61035161032b366004610be4565b601260209081526000938452604080852082529284528284209052825290205460ff1681565b6040519015158152602001610232565b61037461036f366004610b58565b6105ff565b60405161023296959493929190610c5f565b61038e600381565b60405161ffff9091168152602001610232565b6102937f000000000000000000000000000000000000000000000000000000000000000081565b610293674563918244f4000081565b6103746103e5366004610ca1565b6106e7565b6102936103f8366004610ccb565b610703565b61041061040b366004610ca1565b610724565b6040516102329796959493929190610ce4565b6102937f000000000000000000000000000000000000000000000000000000000000000081565b610410610458366004610ccb565b61089d565b61021e61046b366004610d55565b8051602081830181018051600c825292820191909301209152546001600160a01b031681565b61021e7f000000000000000000000000000000000000000000000000000000000000000081565b6104cb6104c6366004610b96565b6108bf565b60405161023296959493929190610e06565b61021e6104eb366004610ccb565b600b602052600090815260409020546001600160a01b031681565b610293600581565b61029361051c366004610ccb565b610b1e565b61021e61052f366004610ccb565b610b2e565b610351610542366004610ca1565b600d60209081526000928352604080842090915290825290205460ff1681565b610293662386f26fc1000081565b61025e7f000000000000000000000000000000000000000000000000000000000000000081565b61025e601481565b60145461021e906001600160a01b031681565b61025e600a81565b601360205282600052604060002060205281600052604060002081815481106105e257600080fd5b6000918252602090912001546001600160a01b0316925083915050565b600f602052816000526040600020818154811061061b57600080fd5b600091825260209091206006909102018054600182015460028301546003840180549396506001600160a01b039092169450929161065890610e77565b80601f016020809104026020016040519081016040528092919081815260200182805461068490610e77565b80156106d15780601f106106a6576101008083540402835291602001916106d1565b820191906000526020600020905b8154815290600101906020018083116106b457829003601f168201915b5050505050908060040154908060050154905086565b6011602052816000526040600020818154811061061b57600080fd5b6016818154811061071357600080fd5b600091825260209091200154905081565b600e602052816000526040600020818154811061074057600080fd5b90600052602060002090600702016000915091505080600001549080600101805461076a90610e77565b80601f016020809104026020016040519081016040528092919081815260200182805461079690610e77565b80156107e35780601f106107b8576101008083540402835291602001916107e3565b820191906000526020600020905b8154815290600101906020018083116107c657829003601f168201915b5050505050908060020180546107f890610e77565b80601f016020809104026020016040519081016040528092919081815260200182805461082490610e77565b80156108715780601f1061084657610100808354040283529160200191610871565b820191906000526020600020905b81548152906001019060200180831161085457829003601f168201915b50505050600383015460048401546005850154600690950154939491939092506001600160a01b031687565b6009602052600090815260409020805460018201805491929161076a90610e77565b60036020526000908152604090208054600182015460028301805492936001600160a01b03909216926108f190610e77565b80601f016020809104026020016040519081016040528092919081815260200182805461091d90610e77565b801561096a5780601f1061093f5761010080835404028352916020019161096a565b820191906000526020600020905b81548152906001019060200180831161094d57829003601f168201915b50505050509080600301805461097f90610e77565b80601f01602080910402602001604051908101604052809291908181526020018280546109ab90610e77565b80156109f85780601f106109cd576101008083540402835291602001916109f8565b820191906000526020600020905b8154815290600101906020018083116109db57829003601f168201915b505050505090806004018054610a0d90610e77565b80601f0160208091040260200160405190810160405280929190818152602001828054610a3990610e77565b8015610a865780601f10610a5b57610100808354040283529160200191610a86565b820191906000526020600020905b815481529060010190602001808311610a6957829003601f168201915b505050505090806005018054610a9b90610e77565b80601f0160208091040260200160405190810160405280929190818152602001828054610ac790610e77565b8015610b145780601f10610ae957610100808354040283529160200191610b14565b820191906000526020600020905b815481529060010190602001808311610af757829003601f168201915b5050505050905086565b6017818154811061071357600080fd5b60158181548110610b3e57600080fd5b6000918252602090912001546001600160a01b0316905081565b60008060408385031215610b6b57600080fd5b50508035926020909101359150565b80356001600160a01b0381168114610b9157600080fd5b919050565b600060208284031215610ba857600080fd5b610bb182610b7a565b9392505050565b600080600060608486031215610bcd57600080fd5b505081359360208301359350604090920135919050565b600080600060608486031215610bf957600080fd5b8335925060208401359150610c1060408501610b7a565b90509250925092565b6000815180845260005b81811015610c3f57602081850181015186830182015201610c23565b506000602082860101526020601f19601f83011685010191505092915050565b86815260018060a01b038616602082015284604082015260c060608201526000610c8c60c0830186610c19565b60808301949094525060a00152949350505050565b60008060408385031215610cb457600080fd5b610cbd83610b7a565b946020939093013593505050565b600060208284031215610cdd57600080fd5b5035919050565b87815260e060208201526000610cfd60e0830189610c19565b8281036040840152610d0f8189610c19565b60608401979097525050608081019390935260a08301919091526001600160a01b031660c0909101529392505050565b634e487b7160e01b600052604160045260246000fd5b600060208284031215610d6757600080fd5b813567ffffffffffffffff80821115610d7f57600080fd5b818401915084601f830112610d9357600080fd5b813581811115610da557610da5610d3f565b604051601f8201601f19908116603f01168101908382118183101715610dcd57610dcd610d3f565b81604052828152876020848701011115610de657600080fd5b826020860160208301376000928101602001929092525095945050505050565b8681526001600160a01b038616602082015260c060408201819052600090610e3090830187610c19565b8281036060840152610e428187610c19565b90508281036080840152610e568186610c19565b905082810360a0840152610e6a8185610c19565b9998505050505050505050565b600181811c90821680610e8b57607f821691505b602082108103610eab57634e487b7160e01b600052602260045260246000fd5b5091905056fea26469706673582212209cec36458eb8ade0119061c1df1bc4a3d6cbd507e2fa6b6ffcbe2161a9e0d5de64736f6c63430008180033","linkReferences":{}},"methodIdentifiers":{"MINIMUM_USD()":"6b69a592","MIN_POST_SCORE()":"c0ae233b","REQUEST_CONFIRMATIONS()":"67f082b0","TEN()":"ee2f3a05","TWENTY()":"dd47f7e2","WINNING_REWARD()":"d088bbcd","i_callbackGasLimit()":"d757d027","i_gasLane()":"8e879c8a","i_interval()":"6919207d","i_subscriptionId()":"470cdf97","i_vrfCoordinator()":"aebc4550","s_addressToUserProfile(address)":"b4293548","s_authorToPostId(address)":"2fc51a6e","s_authorsEligibleForReward(uint256)":"ca47fdd2","s_hasVoted(address,uint256)":"d0768065","s_idToPost(uint256)":"a3260c35","s_idsOfEligiblePosts(uint256)":"7f9fb67e","s_idsOfRecentWinningPosts(uint256)":"c1c86dd3","s_lastTimeStamp()":"34854043","s_likedComment(uint256,uint256,address)":"5179ce78","s_likersOfComment(uint256,uint256,uint256)":"35da1e22","s_numOfWords()":"0f9aebbd","s_owner()":"e3978240","s_postAndCommentIdToAddress(uint256,uint256)":"048e9d24","s_postIdToAuthor(uint256)":"bc7e8e4c","s_postIdToComments(uint256,uint256)":"5bcf7fca","s_priceFeed()":"0ec3b027","s_userAddressToId(address)":"2e10a1d4","s_usernameToAddress(string)":"aac0823c","userComments(address,uint256)":"79129471","userPosts(address,uint256)":"8064d149"},"id":37}