{"abi":[{"type":"function","name":"MINIMUM_USD","inputs":[],"outputs":[{"name":"","type":"uint256","internalType":"uint256"}],"stateMutability":"view"},{"type":"function","name":"MIN_POST_SCORE","inputs":[],"outputs":[{"name":"","type":"uint256","internalType":"uint256"}],"stateMutability":"view"},{"type":"function","name":"REQUEST_CONFIRMATIONS","inputs":[],"outputs":[{"name":"","type":"uint16","internalType":"uint16"}],"stateMutability":"view"},{"type":"function","name":"TEN","inputs":[],"outputs":[{"name":"","type":"uint32","internalType":"uint32"}],"stateMutability":"view"},{"type":"function","name":"TWENTY","inputs":[],"outputs":[{"name":"","type":"uint32","internalType":"uint32"}],"stateMutability":"view"},{"type":"function","name":"WINNING_REWARD","inputs":[],"outputs":[{"name":"","type":"uint256","internalType":"uint256"}],"stateMutability":"view"},{"type":"function","name":"i_callbackGasLimit","inputs":[],"outputs":[{"name":"","type":"uint32","internalType":"uint32"}],"stateMutability":"view"},{"type":"function","name":"i_gasLane","inputs":[],"outputs":[{"name":"","type":"bytes32","internalType":"bytes32"}],"stateMutability":"view"},{"type":"function","name":"i_interval","inputs":[],"outputs":[{"name":"","type":"uint256","internalType":"uint256"}],"stateMutability":"view"},{"type":"function","name":"i_subscriptionId","inputs":[],"outputs":[{"name":"","type":"uint256","internalType":"uint256"}],"stateMutability":"view"},{"type":"function","name":"i_vrfCoordinator","inputs":[],"outputs":[{"name":"","type":"address","internalType":"contract VRFCoordinatorV2Interface"}],"stateMutability":"view"},{"type":"function","name":"s_addressToUserProfile","inputs":[{"name":"","type":"address","internalType":"address"}],"outputs":[{"name":"id","type":"uint256","internalType":"uint256"},{"name":"userAddress","type":"address","internalType":"address"},{"name":"nickName","type":"string","internalType":"string"},{"name":"fullNameOfUser","type":"string","internalType":"string"},{"name":"bio","type":"string","internalType":"string"},{"name":"profileImageHash","type":"string","internalType":"string"}],"stateMutability":"view"},{"type":"function","name":"s_authorToPostId","inputs":[{"name":"","type":"address","internalType":"address"}],"outputs":[{"name":"","type":"uint256","internalType":"uint256"}],"stateMutability":"view"},{"type":"function","name":"s_authorsEligibleForReward","inputs":[{"name":"","type":"uint256","internalType":"uint256"}],"outputs":[{"name":"","type":"address","internalType":"address"}],"stateMutability":"view"},{"type":"function","name":"s_hasVoted","inputs":[{"name":"","type":"address","internalType":"address"},{"name":"","type":"uint256","internalType":"uint256"}],"outputs":[{"name":"","type":"bool","internalType":"bool"}],"stateMutability":"view"},{"type":"function","name":"s_idToPost","inputs":[{"name":"","type":"uint256","internalType":"uint256"}],"outputs":[{"name":"postId","type":"uint256","internalType":"uint256"},{"name":"content","type":"string","internalType":"string"},{"name":"imgHash","type":"string","internalType":"string"},{"name":"timestamp","type":"uint256","internalType":"uint256"},{"name":"upvotes","type":"uint256","internalType":"uint256"},{"name":"downvotes","type":"uint256","internalType":"uint256"},{"name":"author","type":"address","internalType":"address"}],"stateMutability":"view"},{"type":"function","name":"s_idsOfEligiblePosts","inputs":[{"name":"","type":"uint256","internalType":"uint256"}],"outputs":[{"name":"","type":"uint256","internalType":"uint256"}],"stateMutability":"view"},{"type":"function","name":"s_idsOfRecentWinningPosts","inputs":[{"name":"","type":"uint256","internalType":"uint256"}],"outputs":[{"name":"","type":"uint256","internalType":"uint256"}],"stateMutability":"view"},{"type":"function","name":"s_lastTimeStamp","inputs":[],"outputs":[{"name":"","type":"uint256","internalType":"uint256"}],"stateMutability":"view"},{"type":"function","name":"s_likedComment","inputs":[{"name":"","type":"uint256","internalType":"uint256"},{"name":"","type":"uint256","internalType":"uint256"},{"name":"","type":"address","internalType":"address"}],"outputs":[{"name":"","type":"bool","internalType":"bool"}],"stateMutability":"view"},{"type":"function","name":"s_likersOfComment","inputs":[{"name":"","type":"uint256","internalType":"uint256"},{"name":"","type":"uint256","internalType":"uint256"},{"name":"","type":"uint256","internalType":"uint256"}],"outputs":[{"name":"","type":"address","internalType":"address"}],"stateMutability":"view"},{"type":"function","name":"s_numOfWords","inputs":[],"outputs":[{"name":"","type":"uint32","internalType":"uint32"}],"stateMutability":"view"},{"type":"function","name":"s_owner","inputs":[],"outputs":[{"name":"","type":"address","internalType":"address"}],"stateMutability":"view"},{"type":"function","name":"s_postAndCommentIdToAddress","inputs":[{"name":"","type":"uint256","internalType":"uint256"},{"name":"","type":"uint256","internalType":"uint256"}],"outputs":[{"name":"","type":"address","internalType":"address"}],"stateMutability":"view"},{"type":"function","name":"s_postIdToAuthor","inputs":[{"name":"","type":"uint256","internalType":"uint256"}],"outputs":[{"name":"","type":"address","internalType":"address"}],"stateMutability":"view"},{"type":"function","name":"s_postIdToComments","inputs":[{"name":"","type":"uint256","internalType":"uint256"},{"name":"","type":"uint256","internalType":"uint256"}],"outputs":[{"name":"commentId","type":"uint256","internalType":"uint256"},{"name":"author","type":"address","internalType":"address"},{"name":"postId","type":"uint256","internalType":"uint256"},{"name":"content","type":"string","internalType":"string"},{"name":"timestamp","type":"uint256","internalType":"uint256"},{"name":"likesCount","type":"uint256","internalType":"uint256"}],"stateMutability":"view"},{"type":"function","name":"s_postIdToIdInUserPosts","inputs":[{"name":"postId","type":"uint256","internalType":"uint256"}],"outputs":[{"name":"idInUserPosts","type":"uint256","internalType":"uint256"}],"stateMutability":"view"},{"type":"function","name":"s_priceFeed","inputs":[],"outputs":[{"name":"","type":"address","internalType":"contract AggregatorV3Interface"}],"stateMutability":"view"},{"type":"function","name":"s_userAddressToId","inputs":[{"name":"","type":"address","internalType":"address"}],"outputs":[{"name":"","type":"uint256","internalType":"uint256"}],"stateMutability":"view"},{"type":"function","name":"s_userPosts","inputs":[{"name":"","type":"address","internalType":"address"},{"name":"","type":"uint256","internalType":"uint256"}],"outputs":[{"name":"postId","type":"uint256","internalType":"uint256"},{"name":"content","type":"string","internalType":"string"},{"name":"imgHash","type":"string","internalType":"string"},{"name":"timestamp","type":"uint256","internalType":"uint256"},{"name":"upvotes","type":"uint256","internalType":"uint256"},{"name":"downvotes","type":"uint256","internalType":"uint256"},{"name":"author","type":"address","internalType":"address"}],"stateMutability":"view"},{"type":"function","name":"s_usernameToAddress","inputs":[{"name":"","type":"string","internalType":"string"}],"outputs":[{"name":"","type":"address","internalType":"address"}],"stateMutability":"view"},{"type":"function","name":"userComments","inputs":[{"name":"","type":"address","internalType":"address"},{"name":"","type":"uint256","internalType":"uint256"}],"outputs":[{"name":"commentId","type":"uint256","internalType":"uint256"},{"name":"author","type":"address","internalType":"address"},{"name":"postId","type":"uint256","internalType":"uint256"},{"name":"content","type":"string","internalType":"string"},{"name":"timestamp","type":"uint256","internalType":"uint256"},{"name":"likesCount","type":"uint256","internalType":"uint256"}],"stateMutability":"view"},{"type":"event","name":"CommentCreated","inputs":[{"name":"commentId","type":"uint256","indexed":true,"internalType":"uint256"},{"name":"postAuthor","type":"string","indexed":false,"internalType":"string"},{"name":"commentAuthor","type":"string","indexed":false,"internalType":"string"},{"name":"postId","type":"uint256","indexed":false,"internalType":"uint256"}],"anonymous":false},{"type":"event","name":"Downvoted","inputs":[{"name":"postId","type":"uint256","indexed":false,"internalType":"uint256"},{"name":"posthAuthorName","type":"string","indexed":false,"internalType":"string"},{"name":"downvoterName","type":"string","indexed":false,"internalType":"string"}],"anonymous":false},{"type":"event","name":"PickedWinner","inputs":[{"name":"winner","type":"address","indexed":false,"internalType":"address"}],"anonymous":false},{"type":"event","name":"PostCreated","inputs":[{"name":"postId","type":"uint256","indexed":false,"internalType":"uint256"},{"name":"authorName","type":"string","indexed":false,"internalType":"string"}],"anonymous":false},{"type":"event","name":"PostEdited","inputs":[{"name":"postId","type":"uint256","indexed":false,"internalType":"uint256"},{"name":"authorName","type":"string","indexed":false,"internalType":"string"}],"anonymous":false},{"type":"event","name":"PostLiked","inputs":[{"name":"postId","type":"uint256","indexed":true,"internalType":"uint256"},{"name":"postAuthor","type":"address","indexed":true,"internalType":"address"},{"name":"liker","type":"address","indexed":true,"internalType":"address"}],"anonymous":false},{"type":"event","name":"RequestWinningAuthor","inputs":[{"name":"requestId","type":"uint256","indexed":false,"internalType":"uint256"}],"anonymous":false},{"type":"event","name":"RewardSent","inputs":[{"name":"user","type":"address","indexed":true,"internalType":"address"},{"name":"amount","type":"uint256","indexed":false,"internalType":"uint256"}],"anonymous":false},{"type":"event","name":"Upvoted","inputs":[{"name":"postId","type":"uint256","indexed":false,"internalType":"uint256"},{"name":"posthAuthorName","type":"string","indexed":false,"internalType":"string"},{"name":"upvoterName","type":"string","indexed":false,"internalType":"string"}],"anonymous":false},{"type":"event","name":"UserRegistered","inputs":[{"name":"id","type":"uint256","indexed":true,"internalType":"uint256"},{"name":"userAddress","type":"address","indexed":true,"internalType":"address"},{"name":"username","type":"string","indexed":true,"internalType":"string"}],"anonymous":false},{"type":"error","name":"ChainSphere__AlreadyVoted","inputs":[]},{"type":"error","name":"ChainSphere__BatchTransferFailed","inputs":[{"name":"winner","type":"address","internalType":"address"}]},{"type":"error","name":"ChainSphere__NotCommentOwner","inputs":[]},{"type":"error","name":"ChainSphere__NotOwner","inputs":[]},{"type":"error","name":"ChainSphere__NotPostOwner","inputs":[]},{"type":"error","name":"ChainSphere__NotProfileOwner","inputs":[]},{"type":"error","name":"ChainSphere__OwnerCannotVote","inputs":[]},{"type":"error","name":"ChainSphere__PaymentNotEnough","inputs":[]},{"type":"error","name":"ChainSphere__PostDoesNotExist","inputs":[]},{"type":"error","name":"ChainSphere__TransferFailed","inputs":[]},{"type":"error","name":"ChainSphere__UpkeepNotNeeded","inputs":[{"name":"balance","type":"uint256","internalType":"uint256"},{"name":"numOfEligibleAuthors","type":"uint256","internalType":"uint256"}]},{"type":"error","name":"ChainSphere__UserDoesNotExist","inputs":[]},{"type":"error","name":"ChainSphere__UsernameAlreadyTaken","inputs":[]}],"bytecode":{"object":"0x61012060405234801561001157600080fd5b5060805160a05160c05160e05161010051610ef96100566000396000610587015260006102ed0152600061043a015260006104a8015260006103de0152610ef96000f3fe608060405234801561001057600080fd5b50600436106101f05760003560e01c80637f9fb67e1161010f578063c1c86dd3116100a2578063d757d02711610071578063d757d02714610582578063dd47f7e2146105a9578063e3978240146105b1578063ee2f3a05146105c457600080fd5b8063c1c86dd314610520578063ca47fdd214610533578063d076806514610546578063d088bbcd1461057457600080fd5b8063aebc4550116100de578063aebc4550146104a3578063b4293548146104ca578063bc7e8e4c146104ef578063c0ae233b1461051857600080fd5b80637f9fb67e146104225780638e879c8a14610435578063a3260c351461045c578063aac0823c1461046f57600080fd5b80635179ce781161018757806367f082b01161015657806367f082b0146103be5780636919207d146103d95780636b69a59214610400578063791294711461040f57600080fd5b80635179ce781461030f5780635bcf7fca146103535780635c474067146103785780635fa122fd1461039857600080fd5b80632fc51a6e116101c35780632fc51a6e146102ac57806334854043146102cc57806335da1e22146102d5578063470cdf97146102e857600080fd5b8063048e9d24146101f55780630ec3b027146102465780630f9aebbd146102595780632e10a1d41461027e575b600080fd5b610229610203366004610b6a565b60136020908152600092835260408084209091529082529020546001600160a01b031681565b6040516001600160a01b0390911681526020015b60405180910390f35b600054610229906001600160a01b031681565b601b546102699063ffffffff1681565b60405163ffffffff909116815260200161023d565b61029e61028c366004610ba8565b60056020526000908152604090205481565b60405190815260200161023d565b61029e6102ba366004610ba8565b600a6020526000908152604090205481565b61029e60015481565b6102296102e3366004610bca565b6105cc565b61029e7f000000000000000000000000000000000000000000000000000000000000000081565b61034361031d366004610bf6565b601560209081526000938452604080852082529284528284209052825290205460ff1681565b604051901515815260200161023d565b610366610361366004610b6a565b610611565b60405161023d96959493929190610c71565b61029e610386366004610cb3565b600f6020526000908152604090205481565b6103ab6103a6366004610ccc565b6106f9565b60405161023d9796959493929190610cf6565b6103c6600381565b60405161ffff909116815260200161023d565b61029e7f000000000000000000000000000000000000000000000000000000000000000081565b61029e674563918244f4000081565b61036661041d366004610ccc565b610872565b61029e610430366004610cb3565b61088e565b61029e7f000000000000000000000000000000000000000000000000000000000000000081565b6103ab61046a366004610cb3565b6108af565b61022961047d366004610d67565b8051602081830181018051600c825292820191909301209152546001600160a01b031681565b6102297f000000000000000000000000000000000000000000000000000000000000000081565b6104dd6104d8366004610ba8565b6108d1565b60405161023d96959493929190610e18565b6102296104fd366004610cb3565b600b602052600090815260409020546001600160a01b031681565b61029e600581565b61029e61052e366004610cb3565b610b30565b610229610541366004610cb3565b610b40565b610343610554366004610ccc565b600d60209081526000928352604080842090915290825290205460ff1681565b61029e662386f26fc1000081565b6102697f000000000000000000000000000000000000000000000000000000000000000081565b610269601481565b601754610229906001600160a01b031681565b610269600a81565b601660205282600052604060002060205281600052604060002081815481106105f457600080fd5b6000918252602090912001546001600160a01b0316925083915050565b6012602052816000526040600020818154811061062d57600080fd5b600091825260209091206006909102018054600182015460028301546003840180549396506001600160a01b039092169450929161066a90610e89565b80601f016020809104026020016040519081016040528092919081815260200182805461069690610e89565b80156106e35780601f106106b8576101008083540402835291602001916106e3565b820191906000526020600020905b8154815290600101906020018083116106c657829003601f168201915b5050505050908060040154908060050154905086565b600e602052816000526040600020818154811061071557600080fd5b90600052602060002090600702016000915091505080600001549080600101805461073f90610e89565b80601f016020809104026020016040519081016040528092919081815260200182805461076b90610e89565b80156107b85780601f1061078d576101008083540402835291602001916107b8565b820191906000526020600020905b81548152906001019060200180831161079b57829003601f168201915b5050505050908060020180546107cd90610e89565b80601f01602080910402602001604051908101604052809291908181526020018280546107f990610e89565b80156108465780601f1061081b57610100808354040283529160200191610846565b820191906000526020600020905b81548152906001019060200180831161082957829003601f168201915b50505050600383015460048401546005850154600690950154939491939092506001600160a01b031687565b6014602052816000526040600020818154811061062d57600080fd5b6019818154811061089e57600080fd5b600091825260209091200154905081565b6009602052600090815260409020805460018201805491929161073f90610e89565b60036020526000908152604090208054600182015460028301805492936001600160a01b039092169261090390610e89565b80601f016020809104026020016040519081016040528092919081815260200182805461092f90610e89565b801561097c5780601f106109515761010080835404028352916020019161097c565b820191906000526020600020905b81548152906001019060200180831161095f57829003601f168201915b50505050509080600301805461099190610e89565b80601f01602080910402602001604051908101604052809291908181526020018280546109bd90610e89565b8015610a0a5780601f106109df57610100808354040283529160200191610a0a565b820191906000526020600020905b8154815290600101906020018083116109ed57829003601f168201915b505050505090806004018054610a1f90610e89565b80601f0160208091040260200160405190810160405280929190818152602001828054610a4b90610e89565b8015610a985780601f10610a6d57610100808354040283529160200191610a98565b820191906000526020600020905b815481529060010190602001808311610a7b57829003601f168201915b505050505090806005018054610aad90610e89565b80601f0160208091040260200160405190810160405280929190818152602001828054610ad990610e89565b8015610b265780601f10610afb57610100808354040283529160200191610b26565b820191906000526020600020905b815481529060010190602001808311610b0957829003601f168201915b5050505050905086565b601a818154811061089e57600080fd5b60188181548110610b5057600080fd5b6000918252602090912001546001600160a01b0316905081565b60008060408385031215610b7d57600080fd5b50508035926020909101359150565b80356001600160a01b0381168114610ba357600080fd5b919050565b600060208284031215610bba57600080fd5b610bc382610b8c565b9392505050565b600080600060608486031215610bdf57600080fd5b505081359360208301359350604090920135919050565b600080600060608486031215610c0b57600080fd5b8335925060208401359150610c2260408501610b8c565b90509250925092565b6000815180845260005b81811015610c5157602081850181015186830182015201610c35565b506000602082860101526020601f19601f83011685010191505092915050565b86815260018060a01b038616602082015284604082015260c060608201526000610c9e60c0830186610c2b565b60808301949094525060a00152949350505050565b600060208284031215610cc557600080fd5b5035919050565b60008060408385031215610cdf57600080fd5b610ce883610b8c565b946020939093013593505050565b87815260e060208201526000610d0f60e0830189610c2b565b8281036040840152610d218189610c2b565b60608401979097525050608081019390935260a08301919091526001600160a01b031660c0909101529392505050565b634e487b7160e01b600052604160045260246000fd5b600060208284031215610d7957600080fd5b813567ffffffffffffffff80821115610d9157600080fd5b818401915084601f830112610da557600080fd5b813581811115610db757610db7610d51565b604051601f8201601f19908116603f01168101908382118183101715610ddf57610ddf610d51565b81604052828152876020848701011115610df857600080fd5b826020860160208301376000928101602001929092525095945050505050565b8681526001600160a01b038616602082015260c060408201819052600090610e4290830187610c2b565b8281036060840152610e548187610c2b565b90508281036080840152610e688186610c2b565b905082810360a0840152610e7c8185610c2b565b9998505050505050505050565b600181811c90821680610e9d57607f821691505b602082108103610ebd57634e487b7160e01b600052602260045260246000fd5b5091905056fea26469706673582212201f19846af75828917f1b6f051b9af8fa77c91ef3066b2b6091411605b519c88b64736f6c63430008180033","linkReferences":{}},"methodIdentifiers":{"MINIMUM_USD()":"6b69a592","MIN_POST_SCORE()":"c0ae233b","REQUEST_CONFIRMATIONS()":"67f082b0","TEN()":"ee2f3a05","TWENTY()":"dd47f7e2","WINNING_REWARD()":"d088bbcd","i_callbackGasLimit()":"d757d027","i_gasLane()":"8e879c8a","i_interval()":"6919207d","i_subscriptionId()":"470cdf97","i_vrfCoordinator()":"aebc4550","s_addressToUserProfile(address)":"b4293548","s_authorToPostId(address)":"2fc51a6e","s_authorsEligibleForReward(uint256)":"ca47fdd2","s_hasVoted(address,uint256)":"d0768065","s_idToPost(uint256)":"a3260c35","s_idsOfEligiblePosts(uint256)":"7f9fb67e","s_idsOfRecentWinningPosts(uint256)":"c1c86dd3","s_lastTimeStamp()":"34854043","s_likedComment(uint256,uint256,address)":"5179ce78","s_likersOfComment(uint256,uint256,uint256)":"35da1e22","s_numOfWords()":"0f9aebbd","s_owner()":"e3978240","s_postAndCommentIdToAddress(uint256,uint256)":"048e9d24","s_postIdToAuthor(uint256)":"bc7e8e4c","s_postIdToComments(uint256,uint256)":"5bcf7fca","s_postIdToIdInUserPosts(uint256)":"5c474067","s_priceFeed()":"0ec3b027","s_userAddressToId(address)":"2e10a1d4","s_userPosts(address,uint256)":"5fa122fd","s_usernameToAddress(string)":"aac0823c","userComments(address,uint256)":"79129471"},"id":36}