{"abi":[{"type":"function","name":"RELATIVE_BROADCAST_PATH","inputs":[],"outputs":[{"name":"","type":"string","internalType":"string"}],"stateMutability":"view"},{"type":"function","name":"get_most_recent_deployment","inputs":[{"name":"contractName","type":"string","internalType":"string"},{"name":"chainId","type":"uint256","internalType":"uint256"},{"name":"relativeBroadcastPath","type":"string","internalType":"string"}],"outputs":[{"name":"","type":"address","internalType":"address"}],"stateMutability":"view"},{"type":"function","name":"vm","inputs":[],"outputs":[{"name":"","type":"Vm","internalType":"contract Vm"}],"stateMutability":"view"}],"bytecode":{"object":"0x6080806040523461001a57610e589081610020823930815050f35b600080fdfe608080604052600436101561001357600080fd5b600090813560e01c9081632aa1c696146100da575080633a768463146100b057633d363fe31461004257600080fd5b60603660031901126100a95767ffffffffffffffff6004358181116100ac5761006f9036906004016101e0565b916044359182116100a95760206100978461008d36600487016101e0565b90602435906102a4565b6040516001600160a01b039091168152f35b80fd5b8280fd5b50806003193601126100a9576020604051737109709ecfa91a80626ff3989d68f67f5b1dd12d8152f35b90508160031936011261012457806100f461012092610128565b600b81526a0b8bd89c9bd85918d85cdd60aa1b60208201526040519182916020835260208301906101bb565b0390f35b5080fd5b6040810190811067ffffffffffffffff82111761014457604052565b634e487b7160e01b600052604160045260246000fd5b90601f8019910116810190811067ffffffffffffffff82111761014457604052565b67ffffffffffffffff811161014457601f01601f191660200190565b60005b8381106101ab5750506000910152565b818101518382015260200161019b565b906020916101d481518092818552858086019101610198565b601f01601f1916010190565b81601f82011215610227578035906101f78261017c565b92610205604051948561015a565b8284526020838301011161022757816000926020809301838601378301015290565b600080fd5b81601f820112156102275780516102428161017c565b92610250604051948561015a565b818452602082840101116102275761026e9160208085019101610198565b90565b5190811515820361022757565b9060208282031261022757815167ffffffffffffffff81116102275761026e920161022c565b9290926000936102d66000936000809660405180948192630525e1db60e21b83526040600484015260448301906101bb565b600360248301520381737109709ecfa91a80626ff3989d68f67f5b1dd12d5afa918215610cec578692610b02575b50855b8251811015610a43576020808260051b850101510180516040519063348051d760e11b8252866004830152600082602481737109709ecfa91a80626ff3989d68f67f5b1dd12d5afa908115610883576103a792600092610a28575b506103a260226040518094602f60f81b80602084015260219161038e8151809260208688019101610198565b83019182015203600281018552018361015a565b610d43565b806109f9575b806109c7575b6103c1575b50600101610307565b96506103ee600060019851604051809381926360f9bb1160e01b83526020600484015260248301906101bb565b0381737109709ecfa91a80626ff3989d68f67f5b1dd12d5afa908115610883576000916109ae575b506040516356eef15b60e11b815260406004820152602081604061043d60448301866101bb565b6902e74696d657374616d760b41b848483039260031984016024870152600a815201520181737109709ecfa91a80626ff3989d68f67f5b1dd12d5afa9081156108835760009161097c575b50878111610497575b506103b8565b906000895b6104c1575b50506001600160a01b0389166104b8575b80610491565b955060016104b2565b60405163348051d760e11b815260048101829052600081602481737109709ecfa91a80626ff3989d68f67f5b1dd12d5afa9081156108835761057291602091600091610963575b50610557603060405180936e242e7472616e73616374696f6e735b60881b8683015261053d8151809288602f86019101610198565b8101605d60f81b602f82015203601081018452018261015a565b60405180938192636da11afb60e11b83528760048401610dfd565b0381737109709ecfa91a80626ff3989d68f67f5b1dd12d5afa90811561088357600091610929575b50156109245760405163348051d760e11b81526004810182905290600082602481737109709ecfa91a80626ff3989d68f67f5b1dd12d5afa91821561088357600092610909575b5061063f603d60405180946e242e7472616e73616374696f6e735b60881b6020830152610618815180926020602f86019101610198565b81016d5d2e636f6e74726163744e616d6560901b602f82015203601d81018552018361015a565b604051636da11afb60e11b8152916020838061065f848860048401610dfd565b0381737109709ecfa91a80626ff3989d68f67f5b1dd12d5afa8015610883578c936000916108c9575b5061069e575b5061069890610cf7565b9061049c565b6040516309389f5960e31b8152919250600090829081906106c3908760048401610dfd565b0381737109709ecfa91a80626ff3989d68f67f5b1dd12d5afa908115610883576000916108b0575b50604051610716602082816107098183019687815193849201610198565b810103808452018261015a565b51902088604051610737602082816107098183019687815193849201610198565b51902014610748575b89903861068e565b995060405163348051d760e11b81528a6004820152600081602481737109709ecfa91a80626ff3989d68f67f5b1dd12d5afa908115610883576108089160209160009161088f575b506107ed6040805180936e242e7472616e73616374696f6e735b60881b868301526107c48151809288602f86019101610198565b8101705d2e636f6e74726163744164647265737360781b602f820152038481018452018261015a565b60405180938192631e19e65760e01b83528660048401610dfd565b0381737109709ecfa91a80626ff3989d68f67f5b1dd12d5afa8015610883578a9160009161083a575b509a9050610740565b9091506020813d60201161087b575b816108566020938361015a565b810103126101245751906001600160a01b03821682036100a957508990610698610831565b3d9150610849565b6040513d6000823e3d90fd5b6108aa913d8091833e6108a2818361015a565b81019061027e565b38610790565b6108c3913d8091833e6108a2818361015a565b386106eb565b919293506020823d602011610901575b816108e66020938361015a565b810103126100a95750906108fb8c9392610271565b38610688565b3d91506108d9565b61091d91923d8091833e6108a2818361015a565b90386105e1565b6104a1565b906020823d60201161095b575b816109436020938361015a565b810103126100a9575061095590610271565b3861059a565b3d9150610936565b610976913d8091833e6108a2818361015a565b38610508565b906020823d6020116109a6575b816109966020938361015a565b810103126100a957505138610488565b3d9150610989565b6109c1913d8091833e6108a2818361015a565b38610416565b506109f38151604051906109da82610128565b600782526632393c96b93ab760c91b6020830152610d43565b156103b3565b50610a23815160405190610a0c82610128565b6005825264173539b7b760d91b6020830152610d43565b6103ad565b610a3c91923d8091833e6108a2818361015a565b9038610362565b509594935050505015610a9e576001600160a01b03811615610a625790565b60405162461bcd60e51b8152602060048201526014602482015273139bc818dbdb9d1c9858dd0819195c1b1bde595960621b6044820152606490fd5b60405162461bcd60e51b815260206004820152603660248201527f4e6f206465706c6f796d656e7420617274696661637473207765726520666f756044820152753732103337b91039b832b1b4b334b2b21031b430b4b760511b6064820152608490fd5b9091503d8087833e610b14818361015a565b6020828281010312610ce85781519167ffffffffffffffff8311610ce457818101601f848301011215610ce457828101519267ffffffffffffffff8411610cd0578360051b9160405194610b6b602085018761015a565b85526020850191848201602085838501010111610ccc57602081830101925b60208583850101018410610ba5575050505050509038610304565b835167ffffffffffffffff8111610cc85760a0848401820188860103601f190112610cc857604051908160a081011067ffffffffffffffff60a084011117610cb45760a0820160405260208185870101015167ffffffffffffffff8111610cb057610c1c9060208a88019184888a0101010161022c565b825260408185870101015167ffffffffffffffff8111610cb057610c4c9060208a88019184888a0101010161022c565b602083015260608185870101015167ffffffffffffffff81168103610cb057604083015260209283928392608090610c9f9060a090610c908b8b0182018501610271565b6060860152898b010101610271565b908201528152019401939050610b8a565b8e80fd5b634e487b7160e01b8e52604160045260248efd5b8c80fd5b8a80fd5b634e487b7160e01b89526041600452602489fd5b8780fd5b8680fd5b6040513d88823e3d90fd5b6000198114610d065760010190565b634e487b7160e01b600052601160045260246000fd5b908151811015610d2d570160200190565b634e487b7160e01b600052603260045260246000fd5b90815181518110908115610df4575b50610ded576000905b825181518103908111610d06578211610de55760019260005b8251811015610ddb57808401808511610d06576001600160f81b0319908190610d9d9085610d1c565b511690610daa8386610d1c565b511603610db957600101610d74565b5092509060005b610dd357610dcd90610cf7565b90610d5b565b505050600190565b5092919091610dc0565b505050600090565b5050600090565b90501538610d52565b9091610e1461026e936040845260408401906101bb565b9160208184039101526101bb56fea2646970667358221220786376513b663092779a67f7da24485a3a6db939ccee3e46a91d0f0c2251678d64736f6c63430008180033","linkReferences":{}},"methodIdentifiers":{"RELATIVE_BROADCAST_PATH()":"2aa1c696","get_most_recent_deployment(string,uint256,string)":"3d363fe3","vm()":"3a768463"},"id":29}