{"abi":[{"type":"constructor","inputs":[{"name":"priceFeed","type":"address","internalType":"address"},{"name":"interval","type":"uint256","internalType":"uint256"},{"name":"vrfCoordinator","type":"address","internalType":"address"},{"name":"gasLane","type":"bytes32","internalType":"bytes32"},{"name":"subscriptionId","type":"uint256","internalType":"uint256"},{"name":"callbackGasLimit","type":"uint32","internalType":"uint32"},{"name":"link","type":"address","internalType":"address"},{"name":"deployerKey","type":"uint256","internalType":"uint256"}],"stateMutability":"nonpayable"},{"type":"fallback","stateMutability":"payable"},{"type":"receive","stateMutability":"payable"},{"type":"function","name":"CheckUpkeep","inputs":[{"name":"","type":"bytes","internalType":"bytes"}],"outputs":[{"name":"upkeepNeeded","type":"bool","internalType":"bool"},{"name":"","type":"bytes","internalType":"bytes"}],"stateMutability":"nonpayable"},{"type":"function","name":"MINIMUM_USD","inputs":[],"outputs":[{"name":"","type":"uint256","internalType":"uint256"}],"stateMutability":"view"},{"type":"function","name":"MIN_POST_SCORE","inputs":[],"outputs":[{"name":"","type":"uint256","internalType":"uint256"}],"stateMutability":"view"},{"type":"function","name":"REQUEST_CONFIRMATIONS","inputs":[],"outputs":[{"name":"","type":"uint16","internalType":"uint16"}],"stateMutability":"view"},{"type":"function","name":"TEN","inputs":[],"outputs":[{"name":"","type":"uint32","internalType":"uint32"}],"stateMutability":"view"},{"type":"function","name":"TWENTY","inputs":[],"outputs":[{"name":"","type":"uint32","internalType":"uint32"}],"stateMutability":"view"},{"type":"function","name":"WINNING_REWARD","inputs":[],"outputs":[{"name":"","type":"uint256","internalType":"uint256"}],"stateMutability":"view"},{"type":"function","name":"changeOwner","inputs":[{"name":"_newOwner","type":"address","internalType":"address"}],"outputs":[],"stateMutability":"nonpayable"},{"type":"function","name":"changeUsername","inputs":[{"name":"_userId","type":"uint256","internalType":"uint256"},{"name":"_newNickName","type":"string","internalType":"string"}],"outputs":[],"stateMutability":"nonpayable"},{"type":"function","name":"createComment","inputs":[{"name":"_postId","type":"uint256","internalType":"uint256"},{"name":"_content","type":"string","internalType":"string"}],"outputs":[],"stateMutability":"nonpayable"},{"type":"function","name":"createPost","inputs":[{"name":"_content","type":"string","internalType":"string"},{"name":"_imgHash","type":"string","internalType":"string"}],"outputs":[],"stateMutability":"nonpayable"},{"type":"function","name":"deleteComment","inputs":[{"name":"_postId","type":"uint256","internalType":"uint256"},{"name":"_commentId","type":"uint256","internalType":"uint256"}],"outputs":[],"stateMutability":"payable"},{"type":"function","name":"deletePost","inputs":[{"name":"_postId","type":"uint256","internalType":"uint256"}],"outputs":[],"stateMutability":"payable"},{"type":"function","name":"downvote","inputs":[{"name":"_postId","type":"uint256","internalType":"uint256"}],"outputs":[],"stateMutability":"nonpayable"},{"type":"function","name":"editComment","inputs":[{"name":"_postId","type":"uint256","internalType":"uint256"},{"name":"_commentId","type":"uint256","internalType":"uint256"},{"name":"_content","type":"string","internalType":"string"}],"outputs":[],"stateMutability":"nonpayable"},{"type":"function","name":"editPost","inputs":[{"name":"_postId","type":"uint256","internalType":"uint256"},{"name":"_content","type":"string","internalType":"string"},{"name":"_imgHash","type":"string","internalType":"string"}],"outputs":[],"stateMutability":"nonpayable"},{"type":"function","name":"editUserProfile","inputs":[{"name":"_userId","type":"uint256","internalType":"uint256"},{"name":"_bio","type":"string","internalType":"string"},{"name":"_profileImageHash","type":"string","internalType":"string"},{"name":"_newName","type":"string","internalType":"string"}],"outputs":[],"stateMutability":"nonpayable"},{"type":"function","name":"getAddressFromUsername","inputs":[{"name":"_username","type":"string","internalType":"string"}],"outputs":[{"name":"","type":"address","internalType":"address"}],"stateMutability":"view"},{"type":"function","name":"getAllPosts","inputs":[],"outputs":[{"name":"","type":"tuple[]","internalType":"struct ChainSphereVars.Post[]","components":[{"name":"postId","type":"uint256","internalType":"uint256"},{"name":"content","type":"string","internalType":"string"},{"name":"imgHash","type":"string","internalType":"string"},{"name":"timestamp","type":"uint256","internalType":"uint256"},{"name":"upvotes","type":"uint256","internalType":"uint256"},{"name":"downvotes","type":"uint256","internalType":"uint256"},{"name":"author","type":"address","internalType":"address"}]}],"stateMutability":"view"},{"type":"function","name":"getBalance","inputs":[],"outputs":[{"name":"","type":"uint256","internalType":"uint256"}],"stateMutability":"view"},{"type":"function","name":"getCommentByPostIdAndCommentId","inputs":[{"name":"_postId","type":"uint256","internalType":"uint256"},{"name":"_commentId","type":"uint256","internalType":"uint256"}],"outputs":[{"name":"","type":"tuple","internalType":"struct ChainSphereVars.Comment","components":[{"name":"commentId","type":"uint256","internalType":"uint256"},{"name":"author","type":"address","internalType":"address"},{"name":"postId","type":"uint256","internalType":"uint256"},{"name":"content","type":"string","internalType":"string"},{"name":"timestamp","type":"uint256","internalType":"uint256"},{"name":"likesCount","type":"uint256","internalType":"uint256"}]}],"stateMutability":"view"},{"type":"function","name":"getCommentLikersByPostIdAndCommentId","inputs":[{"name":"_postId","type":"uint256","internalType":"uint256"},{"name":"_commentId","type":"uint256","internalType":"uint256"}],"outputs":[{"name":"","type":"address[]","internalType":"address[]"}],"stateMutability":"view"},{"type":"function","name":"getContractOwner","inputs":[],"outputs":[{"name":"","type":"address","internalType":"address"}],"stateMutability":"view"},{"type":"function","name":"getIdsOfEligiblePosts","inputs":[],"outputs":[{"name":"","type":"uint256[]","internalType":"uint256[]"}],"stateMutability":"view"},{"type":"function","name":"getIdsOfRecentPosts","inputs":[],"outputs":[{"name":"","type":"uint256[]","internalType":"uint256[]"}],"stateMutability":"view"},{"type":"function","name":"getIdsOfRecentWinningPosts","inputs":[],"outputs":[{"name":"","type":"uint256[]","internalType":"uint256[]"}],"stateMutability":"view"},{"type":"function","name":"getPostById","inputs":[{"name":"_postId","type":"uint256","internalType":"uint256"}],"outputs":[{"name":"","type":"tuple","internalType":"struct ChainSphereVars.Post","components":[{"name":"postId","type":"uint256","internalType":"uint256"},{"name":"content","type":"string","internalType":"string"},{"name":"imgHash","type":"string","internalType":"string"},{"name":"timestamp","type":"uint256","internalType":"uint256"},{"name":"upvotes","type":"uint256","internalType":"uint256"},{"name":"downvotes","type":"uint256","internalType":"uint256"},{"name":"author","type":"address","internalType":"address"}]}],"stateMutability":"view"},{"type":"function","name":"getRecentTrendingPosts","inputs":[],"outputs":[{"name":"","type":"tuple[]","internalType":"struct ChainSphereVars.Post[]","components":[{"name":"postId","type":"uint256","internalType":"uint256"},{"name":"content","type":"string","internalType":"string"},{"name":"imgHash","type":"string","internalType":"string"},{"name":"timestamp","type":"uint256","internalType":"uint256"},{"name":"upvotes","type":"uint256","internalType":"uint256"},{"name":"downvotes","type":"uint256","internalType":"uint256"},{"name":"author","type":"address","internalType":"address"}]}],"stateMutability":"nonpayable"},{"type":"function","name":"getRecentWinningPosts","inputs":[],"outputs":[{"name":"","type":"tuple[]","internalType":"struct ChainSphereVars.Post[]","components":[{"name":"postId","type":"uint256","internalType":"uint256"},{"name":"content","type":"string","internalType":"string"},{"name":"imgHash","type":"string","internalType":"string"},{"name":"timestamp","type":"uint256","internalType":"uint256"},{"name":"upvotes","type":"uint256","internalType":"uint256"},{"name":"downvotes","type":"uint256","internalType":"uint256"},{"name":"author","type":"address","internalType":"address"}]}],"stateMutability":"nonpayable"},{"type":"function","name":"getUsdValueOfEthAmount","inputs":[{"name":"_ethAmount","type":"uint256","internalType":"uint256"}],"outputs":[{"name":"","type":"uint256","internalType":"uint256"}],"stateMutability":"view"},{"type":"function","name":"getUser","inputs":[{"name":"_userAddress","type":"address","internalType":"address"}],"outputs":[{"name":"","type":"tuple","internalType":"struct ChainSphereVars.User","components":[{"name":"id","type":"uint256","internalType":"uint256"},{"name":"userAddress","type":"address","internalType":"address"},{"name":"nickName","type":"string","internalType":"string"},{"name":"fullNameOfUser","type":"string","internalType":"string"},{"name":"bio","type":"string","internalType":"string"},{"name":"profileImageHash","type":"string","internalType":"string"}]}],"stateMutability":"view"},{"type":"function","name":"getUserById","inputs":[{"name":"_userId","type":"uint256","internalType":"uint256"}],"outputs":[{"name":"","type":"tuple","internalType":"struct ChainSphereVars.User","components":[{"name":"id","type":"uint256","internalType":"uint256"},{"name":"userAddress","type":"address","internalType":"address"},{"name":"nickName","type":"string","internalType":"string"},{"name":"fullNameOfUser","type":"string","internalType":"string"},{"name":"bio","type":"string","internalType":"string"},{"name":"profileImageHash","type":"string","internalType":"string"}]}],"stateMutability":"view"},{"type":"function","name":"getUserComments","inputs":[{"name":"_userAddress","type":"address","internalType":"address"}],"outputs":[{"name":"","type":"tuple[]","internalType":"struct ChainSphereVars.Comment[]","components":[{"name":"commentId","type":"uint256","internalType":"uint256"},{"name":"author","type":"address","internalType":"address"},{"name":"postId","type":"uint256","internalType":"uint256"},{"name":"content","type":"string","internalType":"string"},{"name":"timestamp","type":"uint256","internalType":"uint256"},{"name":"likesCount","type":"uint256","internalType":"uint256"}]}],"stateMutability":"view"},{"type":"function","name":"getUserNameFromAddress","inputs":[{"name":"_userAddress","type":"address","internalType":"address"}],"outputs":[{"name":"nickNameOfUser","type":"string","internalType":"string"}],"stateMutability":"view"},{"type":"function","name":"getUserPosts","inputs":[{"name":"_userAddress","type":"address","internalType":"address"}],"outputs":[{"name":"","type":"tuple[]","internalType":"struct ChainSphereVars.Post[]","components":[{"name":"postId","type":"uint256","internalType":"uint256"},{"name":"content","type":"string","internalType":"string"},{"name":"imgHash","type":"string","internalType":"string"},{"name":"timestamp","type":"uint256","internalType":"uint256"},{"name":"upvotes","type":"uint256","internalType":"uint256"},{"name":"downvotes","type":"uint256","internalType":"uint256"},{"name":"author","type":"address","internalType":"address"}]}],"stateMutability":"view"},{"type":"function","name":"getUserVoteStatus","inputs":[{"name":"_postId","type":"uint256","internalType":"uint256"}],"outputs":[{"name":"","type":"bool","internalType":"bool"}],"stateMutability":"view"},{"type":"function","name":"getUsernameOfRecentWinners","inputs":[],"outputs":[{"name":"","type":"string[]","internalType":"string[]"}],"stateMutability":"nonpayable"},{"type":"function","name":"i_callbackGasLimit","inputs":[],"outputs":[{"name":"","type":"uint32","internalType":"uint32"}],"stateMutability":"view"},{"type":"function","name":"i_gasLane","inputs":[],"outputs":[{"name":"","type":"bytes32","internalType":"bytes32"}],"stateMutability":"view"},{"type":"function","name":"i_interval","inputs":[],"outputs":[{"name":"","type":"uint256","internalType":"uint256"}],"stateMutability":"view"},{"type":"function","name":"i_subscriptionId","inputs":[],"outputs":[{"name":"","type":"uint256","internalType":"uint256"}],"stateMutability":"view"},{"type":"function","name":"i_vrfCoordinator","inputs":[],"outputs":[{"name":"","type":"address","internalType":"contract VRFCoordinatorV2Interface"}],"stateMutability":"view"},{"type":"function","name":"likeComment","inputs":[{"name":"_postId","type":"uint256","internalType":"uint256"},{"name":"_commentId","type":"uint256","internalType":"uint256"}],"outputs":[],"stateMutability":"nonpayable"},{"type":"function","name":"performUpkeep","inputs":[{"name":"","type":"bytes","internalType":"bytes"}],"outputs":[],"stateMutability":"nonpayable"},{"type":"function","name":"rawFulfillRandomWords","inputs":[{"name":"requestId","type":"uint256","internalType":"uint256"},{"name":"randomWords","type":"uint256[]","internalType":"uint256[]"}],"outputs":[],"stateMutability":"nonpayable"},{"type":"function","name":"registerUser","inputs":[{"name":"_fullNameOfUser","type":"string","internalType":"string"},{"name":"_username","type":"string","internalType":"string"}],"outputs":[],"stateMutability":"nonpayable"},{"type":"function","name":"s_addressToUserProfile","inputs":[{"name":"","type":"address","internalType":"address"}],"outputs":[{"name":"id","type":"uint256","internalType":"uint256"},{"name":"userAddress","type":"address","internalType":"address"},{"name":"nickName","type":"string","internalType":"string"},{"name":"fullNameOfUser","type":"string","internalType":"string"},{"name":"bio","type":"string","internalType":"string"},{"name":"profileImageHash","type":"string","internalType":"string"}],"stateMutability":"view"},{"type":"function","name":"s_authorToPostId","inputs":[{"name":"","type":"address","internalType":"address"}],"outputs":[{"name":"","type":"uint256","internalType":"uint256"}],"stateMutability":"view"},{"type":"function","name":"s_authorsEligibleForReward","inputs":[{"name":"","type":"uint256","internalType":"uint256"}],"outputs":[{"name":"","type":"address","internalType":"address"}],"stateMutability":"view"},{"type":"function","name":"s_hasVoted","inputs":[{"name":"","type":"address","internalType":"address"},{"name":"","type":"uint256","internalType":"uint256"}],"outputs":[{"name":"","type":"bool","internalType":"bool"}],"stateMutability":"view"},{"type":"function","name":"s_idToPost","inputs":[{"name":"","type":"uint256","internalType":"uint256"}],"outputs":[{"name":"postId","type":"uint256","internalType":"uint256"},{"name":"content","type":"string","internalType":"string"},{"name":"imgHash","type":"string","internalType":"string"},{"name":"timestamp","type":"uint256","internalType":"uint256"},{"name":"upvotes","type":"uint256","internalType":"uint256"},{"name":"downvotes","type":"uint256","internalType":"uint256"},{"name":"author","type":"address","internalType":"address"}],"stateMutability":"view"},{"type":"function","name":"s_idsOfEligiblePosts","inputs":[{"name":"","type":"uint256","internalType":"uint256"}],"outputs":[{"name":"","type":"uint256","internalType":"uint256"}],"stateMutability":"view"},{"type":"function","name":"s_idsOfRecentWinningPosts","inputs":[{"name":"","type":"uint256","internalType":"uint256"}],"outputs":[{"name":"","type":"uint256","internalType":"uint256"}],"stateMutability":"view"},{"type":"function","name":"s_lastTimeStamp","inputs":[],"outputs":[{"name":"","type":"uint256","internalType":"uint256"}],"stateMutability":"view"},{"type":"function","name":"s_likedComment","inputs":[{"name":"","type":"uint256","internalType":"uint256"},{"name":"","type":"uint256","internalType":"uint256"},{"name":"","type":"address","internalType":"address"}],"outputs":[{"name":"","type":"bool","internalType":"bool"}],"stateMutability":"view"},{"type":"function","name":"s_likersOfComment","inputs":[{"name":"","type":"uint256","internalType":"uint256"},{"name":"","type":"uint256","internalType":"uint256"},{"name":"","type":"uint256","internalType":"uint256"}],"outputs":[{"name":"","type":"address","internalType":"address"}],"stateMutability":"view"},{"type":"function","name":"s_numOfWords","inputs":[],"outputs":[{"name":"","type":"uint32","internalType":"uint32"}],"stateMutability":"view"},{"type":"function","name":"s_owner","inputs":[],"outputs":[{"name":"","type":"address","internalType":"address"}],"stateMutability":"view"},{"type":"function","name":"s_postAndCommentIdToAddress","inputs":[{"name":"","type":"uint256","internalType":"uint256"},{"name":"","type":"uint256","internalType":"uint256"}],"outputs":[{"name":"","type":"address","internalType":"address"}],"stateMutability":"view"},{"type":"function","name":"s_postIdToAuthor","inputs":[{"name":"","type":"uint256","internalType":"uint256"}],"outputs":[{"name":"","type":"address","internalType":"address"}],"stateMutability":"view"},{"type":"function","name":"s_postIdToComments","inputs":[{"name":"","type":"uint256","internalType":"uint256"},{"name":"","type":"uint256","internalType":"uint256"}],"outputs":[{"name":"commentId","type":"uint256","internalType":"uint256"},{"name":"author","type":"address","internalType":"address"},{"name":"postId","type":"uint256","internalType":"uint256"},{"name":"content","type":"string","internalType":"string"},{"name":"timestamp","type":"uint256","internalType":"uint256"},{"name":"likesCount","type":"uint256","internalType":"uint256"}],"stateMutability":"view"},{"type":"function","name":"s_postIdToIdInUserPosts","inputs":[{"name":"postId","type":"uint256","internalType":"uint256"}],"outputs":[{"name":"idInUserPosts","type":"uint256","internalType":"uint256"}],"stateMutability":"view"},{"type":"function","name":"s_priceFeed","inputs":[],"outputs":[{"name":"","type":"address","internalType":"contract AggregatorV3Interface"}],"stateMutability":"view"},{"type":"function","name":"s_userAddressToId","inputs":[{"name":"","type":"address","internalType":"address"}],"outputs":[{"name":"","type":"uint256","internalType":"uint256"}],"stateMutability":"view"},{"type":"function","name":"s_userPosts","inputs":[{"name":"","type":"address","internalType":"address"},{"name":"","type":"uint256","internalType":"uint256"}],"outputs":[{"name":"postId","type":"uint256","internalType":"uint256"},{"name":"content","type":"string","internalType":"string"},{"name":"imgHash","type":"string","internalType":"string"},{"name":"timestamp","type":"uint256","internalType":"uint256"},{"name":"upvotes","type":"uint256","internalType":"uint256"},{"name":"downvotes","type":"uint256","internalType":"uint256"},{"name":"author","type":"address","internalType":"address"}],"stateMutability":"view"},{"type":"function","name":"s_usernameToAddress","inputs":[{"name":"","type":"string","internalType":"string"}],"outputs":[{"name":"","type":"address","internalType":"address"}],"stateMutability":"view"},{"type":"function","name":"transferContractBalance","inputs":[{"name":"_to","type":"address","internalType":"address payable"}],"outputs":[],"stateMutability":"nonpayable"},{"type":"function","name":"upvote","inputs":[{"name":"_postId","type":"uint256","internalType":"uint256"}],"outputs":[],"stateMutability":"nonpayable"},{"type":"function","name":"userComments","inputs":[{"name":"","type":"address","internalType":"address"},{"name":"","type":"uint256","internalType":"uint256"}],"outputs":[{"name":"commentId","type":"uint256","internalType":"uint256"},{"name":"author","type":"address","internalType":"address"},{"name":"postId","type":"uint256","internalType":"uint256"},{"name":"content","type":"string","internalType":"string"},{"name":"timestamp","type":"uint256","internalType":"uint256"},{"name":"likesCount","type":"uint256","internalType":"uint256"}],"stateMutability":"view"},{"type":"event","name":"CommentCreated","inputs":[{"name":"commentId","type":"uint256","indexed":true,"internalType":"uint256"},{"name":"postAuthor","type":"string","indexed":false,"internalType":"string"},{"name":"commentAuthor","type":"string","indexed":false,"internalType":"string"},{"name":"postId","type":"uint256","indexed":false,"internalType":"uint256"}],"anonymous":false},{"type":"event","name":"Downvoted","inputs":[{"name":"postId","type":"uint256","indexed":false,"internalType":"uint256"},{"name":"posthAuthorName","type":"string","indexed":false,"internalType":"string"},{"name":"downvoterName","type":"string","indexed":false,"internalType":"string"}],"anonymous":false},{"type":"event","name":"PickedWinner","inputs":[{"name":"winner","type":"address","indexed":false,"internalType":"address"}],"anonymous":false},{"type":"event","name":"PostCreated","inputs":[{"name":"postId","type":"uint256","indexed":false,"internalType":"uint256"},{"name":"authorName","type":"string","indexed":false,"internalType":"string"}],"anonymous":false},{"type":"event","name":"PostEdited","inputs":[{"name":"postId","type":"uint256","indexed":false,"internalType":"uint256"},{"name":"authorName","type":"string","indexed":false,"internalType":"string"}],"anonymous":false},{"type":"event","name":"PostLiked","inputs":[{"name":"postId","type":"uint256","indexed":true,"internalType":"uint256"},{"name":"postAuthor","type":"address","indexed":true,"internalType":"address"},{"name":"liker","type":"address","indexed":true,"internalType":"address"}],"anonymous":false},{"type":"event","name":"RequestWinningAuthor","inputs":[{"name":"requestId","type":"uint256","indexed":false,"internalType":"uint256"}],"anonymous":false},{"type":"event","name":"RewardSent","inputs":[{"name":"user","type":"address","indexed":true,"internalType":"address"},{"name":"amount","type":"uint256","indexed":false,"internalType":"uint256"}],"anonymous":false},{"type":"event","name":"Upvoted","inputs":[{"name":"postId","type":"uint256","indexed":false,"internalType":"uint256"},{"name":"posthAuthorName","type":"string","indexed":false,"internalType":"string"},{"name":"upvoterName","type":"string","indexed":false,"internalType":"string"}],"anonymous":false},{"type":"event","name":"UserRegistered","inputs":[{"name":"id","type":"uint256","indexed":true,"internalType":"uint256"},{"name":"userAddress","type":"address","indexed":true,"internalType":"address"},{"name":"username","type":"string","indexed":true,"internalType":"string"}],"anonymous":false},{"type":"error","name":"ChainSphere__AlreadyVoted","inputs":[]},{"type":"error","name":"ChainSphere__BatchTransferFailed","inputs":[{"name":"winner","type":"address","internalType":"address"}]},{"type":"error","name":"ChainSphere__NotCommentOwner","inputs":[]},{"type":"error","name":"ChainSphere__NotOwner","inputs":[]},{"type":"error","name":"ChainSphere__NotPostOwner","inputs":[]},{"type":"error","name":"ChainSphere__NotProfileOwner","inputs":[]},{"type":"error","name":"ChainSphere__OwnerCannotVote","inputs":[]},{"type":"error","name":"ChainSphere__PaymentNotEnough","inputs":[]},{"type":"error","name":"ChainSphere__PostDoesNotExist","inputs":[]},{"type":"error","name":"ChainSphere__TransferFailed","inputs":[]},{"type":"error","name":"ChainSphere__UpkeepNotNeeded","inputs":[{"name":"balance","type":"uint256","internalType":"uint256"},{"name":"numOfEligibleAuthors","type":"uint256","internalType":"uint256"}]},{"type":"error","name":"ChainSphere__UserDoesNotExist","inputs":[]},{"type":"error","name":"ChainSphere__UsernameAlreadyTaken","inputs":[]},{"type":"error","name":"OnlyCoordinatorCanFulfill","inputs":[{"name":"have","type":"address","internalType":"address"},{"name":"want","type":"address","internalType":"address"}]}],"bytecode":{"object":"0x6101406040523480156200001257600080fd5b5060405162005331380380620053318339810160408190526200003591620000b4565b50506001600160a01b039384166080819052601780546001600160a01b03199081163317909155600080549890961697169690961790935560a0939093524260015560c09390935260e0929092526101005263ffffffff166101205262000142565b80516001600160a01b0381168114620000af57600080fd5b919050565b600080600080600080600080610100898b031215620000d257600080fd5b620000dd8962000097565b975060208901519650620000f460408a0162000097565b9550606089015194506080890151935060a089015163ffffffff811681146200011c57600080fd5b92506200012c60c08a0162000097565b915060e089015190509295985092959890939650565b60805160a05160c05160e0516101005161012051615175620001bc60003960008181610d4c01526125c7015260008181610718015261259a015260008181610a520152612574015260008181610bb701526125f80152600081816108d10152613c5c0152600081816114bc01526114fe01526151756000f3fe6080604052600436106103ce5760003560e01c80636ed6da9e116101fb578063aac0823c11610117578063d0768065116100a5578063e397824011610077578063e397824014610d83578063e96c520b14610da3578063ee2f3a0514610dc3578063f31fdad414610dd8578063fa56115214610df857005b8063d076806514610ce4578063d088bbcd14610d1f578063d757d02714610d3a578063dd47f7e214610d6e57005b8063bf0ac63c116100e9578063bf0ac63c14610c41578063c0ae233b14610c61578063c1c86dd314610c76578063c9fbacf314610c96578063ca47fdd214610cc457005b8063aac0823c14610b64578063aebc455014610ba5578063b429354814610bd9578063bc7e8e4c14610c0b57005b80638dc4a066116101945780639a2194a9116101665780639a2194a914610aa9578063a0e9182114610ac9578063a3260c3514610ae9578063a4dd41d014610b09578063a6f9dae114610b4457005b80638dc4a06614610a135780638e879c8a14610a4057806396f11ac814610a74578063984d101514610a9457005b806379129471116101cd578063791294711461099c5780637a0726bd146109bc5780637f9fb67e146109de5780638c262013146109fe57005b80636ed6da9e1461090f5780636f77926b1461093c57806372d4e3821461095c5780637461d8581461097c57005b806335da1e22116102ea5780635179ce78116102835780636372af84116102555780636372af841461083d57806364e958951461086a57806367f082b0146108975780636919207d146108bf5780636b69a592146108f357005b80635179ce781461075a5780635bcf7fca146107ab5780635c474067146107dd5780635fa122fd1461080a57005b8063442890d5116102bc578063442890d5146106c85780634585e33b146106e6578063470cdf97146107065780634e82c1341461073a57005b806335da1e221461063b578063392338f51461065b57806340a179851461067b5780634296db5b1461069b57005b80632a04c645116103675780632fc51a6e116103395780632fc51a6e146105bb57806330561100146105e857806330ad4ba9146105fd57806331a4bcb514610612578063348540431461062557005b80632a04c6451461051d5780632b3c6e221461053f5780632d492c831461056c5780632e10a1d41461058e57005b80630f9aebbd116103a05780630f9aebbd1461048857806312065fe0146104ba5780631d2e4afd146104dd5780631fe543e3146104fd57005b806301ddf070146103d7578063048e9d24146103f7578063094cd5ee146104555780630ec3b0271461046857005b366103d557005b005b3480156103e357600080fd5b506103d56103f23660046143fe565b610e18565b34801561040357600080fd5b50610438610412366004614417565b60136020908152600092835260408084209091529082529020546001600160a01b031681565b6040516001600160a01b0390911681526020015b60405180910390f35b6103d56104633660046143fe565b610f59565b34801561047457600080fd5b50600054610438906001600160a01b031681565b34801561049457600080fd5b50601b546104a59063ffffffff1681565b60405163ffffffff909116815260200161044c565b3480156104c657600080fd5b506104cf6111ef565b60405190815260200161044c565b3480156104e957600080fd5b506103d56104f83660046144f8565b611239565b34801561050957600080fd5b506103d561051836600461455c565b6114b1565b34801561052957600080fd5b5061053261153e565b60405161044c91906146d3565b34801561054b57600080fd5b5061055f61055a36600461474f565b6117d4565b60405161044c91906147c7565b34801561057857600080fd5b5061058161191a565b60405161044c919061481e565b34801561059a57600080fd5b506104cf6105a936600461474f565b60056020526000908152604090205481565b3480156105c757600080fd5b506104cf6105d636600461474f565b600a6020526000908152604090205481565b3480156105f457600080fd5b50610532611972565b34801561060957600080fd5b50610532611b36565b6103d5610620366004614417565b611db2565b34801561063157600080fd5b506104cf60015481565b34801561064757600080fd5b50610438610656366004614862565b611eda565b34801561066757600080fd5b506103d56106763660046144f8565b611f1f565b34801561068757600080fd5b506103d561069636600461488e565b6121b6565b3480156106a757600080fd5b506106bb6106b6366004614417565b61236b565b60405161044c91906148cb565b3480156106d457600080fd5b506017546001600160a01b0316610438565b3480156106f257600080fd5b506103d56107013660046148de565b6124d8565b34801561071257600080fd5b506104cf7f000000000000000000000000000000000000000000000000000000000000000081565b34801561074657600080fd5b50610438610755366004614950565b6126ae565b34801561076657600080fd5b5061079b61077536600461498d565b601560209081526000938452604080852082529284528284209052825290205460ff1681565b604051901515815260200161044c565b3480156107b757600080fd5b506107cb6107c6366004614417565b6126df565b60405161044c969594939291906149c6565b3480156107e957600080fd5b506104cf6107f83660046143fe565b600f6020526000908152604090205481565b34801561081657600080fd5b5061082a610825366004614a08565b6127c7565b60405161044c9796959493929190614a34565b34801561084957600080fd5b5061085d61085836600461474f565b612940565b60405161044c9190614a8f565b34801561087657600080fd5b5061088a6108853660046143fe565b6129ef565b60405161044c9190614aa2565b3480156108a357600080fd5b506108ac600381565b60405161ffff909116815260200161044c565b3480156108cb57600080fd5b506104cf7f000000000000000000000000000000000000000000000000000000000000000081565b3480156108ff57600080fd5b506104cf674563918244f4000081565b34801561091b57600080fd5b5061092f61092a3660046143fe565b612bca565b60405161044c9190614ab5565b34801561094857600080fd5b5061092f61095736600461474f565b612e86565b34801561096857600080fd5b506103d561097736600461488e565b612eda565b34801561098857600080fd5b506103d5610997366004614b46565b612fbc565b3480156109a857600080fd5b506107cb6109b7366004614a08565b6131e9565b3480156109c857600080fd5b506109d1613205565b60405161044c9190614bd8565b3480156109ea57600080fd5b506104cf6109f93660046143fe565b613332565b348015610a0a57600080fd5b50610581613353565b348015610a1f57600080fd5b50610a33610a2e366004614417565b6133a9565b60405161044c9190614c2f565b348015610a4c57600080fd5b506104cf7f000000000000000000000000000000000000000000000000000000000000000081565b348015610a8057600080fd5b506103d5610a8f36600461474f565b61341e565b348015610aa057600080fd5b5061058161347e565b348015610ab557600080fd5b50610532610ac436600461474f565b6134d4565b348015610ad557600080fd5b506103d5610ae4366004614417565b6136a3565b348015610af557600080fd5b5061082a610b043660046143fe565b6137ae565b348015610b1557600080fd5b5061079b610b243660046143fe565b336000908152600d60209081526040808320938352929052205460ff1690565b348015610b5057600080fd5b506103d5610b5f36600461474f565b6137d0565b348015610b7057600080fd5b50610438610b7f366004614950565b8051602081830181018051600c825292820191909301209152546001600160a01b031681565b348015610bb157600080fd5b506104387f000000000000000000000000000000000000000000000000000000000000000081565b348015610be557600080fd5b50610bf9610bf436600461474f565b61381d565b60405161044c96959493929190614c70565b348015610c1757600080fd5b50610438610c263660046143fe565b600b602052600090815260409020546001600160a01b031681565b348015610c4d57600080fd5b506103d5610c5c366004614ce1565b613a7c565b348015610c6d57600080fd5b506104cf600581565b348015610c8257600080fd5b506104cf610c913660046143fe565b613bca565b348015610ca257600080fd5b50610cb6610cb1366004614d4e565b613bda565b60405161044c929190614d97565b348015610cd057600080fd5b50610438610cdf3660046143fe565b613cd2565b348015610cf057600080fd5b5061079b610cff366004614a08565b600d60209081526000928352604080842090915290825290205460ff1681565b348015610d2b57600080fd5b506104cf662386f26fc1000081565b348015610d4657600080fd5b506104a57f000000000000000000000000000000000000000000000000000000000000000081565b348015610d7a57600080fd5b506104a5601481565b348015610d8f57600080fd5b50601754610438906001600160a01b031681565b348015610daf57600080fd5b506104cf610dbe3660046143fe565b613cfc565b348015610dcf57600080fd5b506104a5600a81565b348015610de457600080fd5b506103d5610df33660046143fe565b613d1d565b348015610e0457600080fd5b506103d5610e13366004614db2565b613e4e565b80610e22816129ef565b60c001516001600160a01b03163303610e4e5760405163e900992360e01b815260040160405180910390fd5b81610e7381336000908152600d60209081526040808320938352929052205460ff1690565b15610e9157604051636d830dbf60e11b815260040160405180910390fd5b60078381548110610ea457610ea4614df8565b600091825260208220600460079092020101805491610ec283614e24565b9091555050336000908152600d602090815260408083208684528252808320805460ff19166001179055600b9091528120546001600160a01b031690610f0782612940565b90506000610f1433612940565b90507fa036d403d7739d8360e6171b2fbf68a0dfef33d6c6f432a236f6c3cdbb3cfee6868383604051610f4993929190614e3d565b60405180910390a1505050505050565b80610f63816129ef565b60c001516001600160a01b0316336001600160a01b031614610f985760405163b5f6908d60e01b815260040160405180910390fd5b600054674563918244f4000090610fb99034906001600160a01b0316613ecf565b1015610fd8576040516340956f2160e01b815260040160405180910390fd5b600060078381548110610fed57610fed614df8565b906000526020600020906007020160060160009054906101000a90046001600160a01b031690506040518060e0016040528084815260200160405180602001604052806000815250815260200160405180602001604052806000815250815260200160008152602001600081526020016000815260200160006001600160a01b03168152506007848154811061108557611085614df8565b90600052602060002090600702016000820151816000015560208201518160010190816110b29190614ef4565b50604082015160028201906110c79082614ef4565b50606082015160038201556080820151600482015560a0820151600582015560c090910151600690910180546001600160a01b03199081166001600160a01b03938416179091556000858152600b6020908152604080832080549094169093557f13da86008ba1c6922daee3e07db95305ef49ebced9f5467a0b8613fcc6b343e3879055600f8152828220549385168252600e905290812080548390811061117157611171614df8565b6000918252602080832060079290920290910160060180546001600160a01b0319166001600160a01b039485161790556040805180830182528381529386168352600e90915290208054839081106111cb576111cb614df8565b906000526020600020906007020160010190816111e89190614ef4565b5050505050565b60006112036017546001600160a01b031690565b6001600160a01b0316336001600160a01b03161461123457604051633c6a5daf60e21b815260040160405180910390fd5b504790565b806000611245826126ae565b6001600160a01b03161461126c57604051630fa2819960e31b815260040160405180910390fd5b600480546000918261127d83614e24565b91905055905061128b61435f565b818152336020808301828152606084018890526040808501888152600094855260039093529092208351815591516001830180546001600160a01b0319166001600160a01b039092169190911790555182919060028201906112ed9082614ef4565b50606082015160038201906113029082614ef4565b50608082015160048201906113179082614ef4565b5060a0820151600582019061132c9082614ef4565b5050336000818152600560205260409081902085905551909150600c90611354908790614fb4565b908152604080516020928190038301902080546001600160a01b03199081166001600160a01b03958616179091556002805460018101825560009190915285517f405787fa12a823e0f2b7631cc41b3ba8828b3321ca811111fa75cd3aa3bb5ace6006909202918201908155938601517f405787fa12a823e0f2b7631cc41b3ba8828b3321ca811111fa75cd3aa3bb5acf82018054909316951694909417905583015183927f405787fa12a823e0f2b7631cc41b3ba8828b3321ca811111fa75cd3aa3bb5ad001906114269082614ef4565b506060820151600382019061143b9082614ef4565b50608082015160048201906114509082614ef4565b5060a082015160058201906114659082614ef4565b505050836040516114769190614fb4565b60405190819003812090339084907f8d76d60617424d83544323e2322cb8d86537451c9b3d991886ce6f4721e3865e90600090a45050505050565b336001600160a01b037f000000000000000000000000000000000000000000000000000000000000000016146115305760405163073e64fd60e21b81523360048201526001600160a01b037f00000000000000000000000000000000000000000000000000000000000000001660248201526044015b60405180910390fd5b61153a8282613f05565b5050565b60195460609060005b818110156116105760116115776019838154811061156757611567614df8565b90600052602060002001546129ef565b815460018181018455600093845260209384902083516007909302019182559282015191929091908201906115ac9082614ef4565b50604082015160028201906115c19082614ef4565b50606082015160038201556080820151600482015560a0820151600582015560c090910151600690910180546001600160a01b0319166001600160a01b03909216919091179055600101611547565b506011805480602002602001604051908101604052809291908181526020016000905b828210156117ca57838290600052602060002090600702016040518060e00160405290816000820154815260200160018201805461167090614e72565b80601f016020809104026020016040519081016040528092919081815260200182805461169c90614e72565b80156116e95780601f106116be576101008083540402835291602001916116e9565b820191906000526020600020905b8154815290600101906020018083116116cc57829003601f168201915b5050505050815260200160028201805461170290614e72565b80601f016020809104026020016040519081016040528092919081815260200182805461172e90614e72565b801561177b5780601f106117505761010080835404028352916020019161177b565b820191906000526020600020905b81548152906001019060200180831161175e57829003601f168201915b5050509183525050600382015460208083019190915260048301546040830152600583015460608301526006909201546001600160a01b03166080909101529082526001929092019101611633565b5050505091505090565b6001600160a01b0381166000908152601460209081526040808320805482518185028101850190935280835260609492939192909184015b8282101561190f5760008481526020908190206040805160c081018252600686029092018054835260018101546001600160a01b03169383019390935260028301549082015260038201805491929160608401919061186a90614e72565b80601f016020809104026020016040519081016040528092919081815260200182805461189690614e72565b80156118e35780601f106118b8576101008083540402835291602001916118e3565b820191906000526020600020905b8154815290600101906020018083116118c657829003601f168201915b50505050508152602001600482015481526020016005820154815250508152602001906001019061180c565b505050509050919050565b6060601980548060200260200160405190810160405280929190818152602001828054801561196857602002820191906000526020600020905b815481526020019060010190808311611954575b5050505050905090565b60606007805480602002602001604051908101604052809291908181526020016000905b82821015611b2d57838290600052602060002090600702016040518060e0016040529081600082015481526020016001820180546119d390614e72565b80601f01602080910402602001604051908101604052809291908181526020018280546119ff90614e72565b8015611a4c5780601f10611a2157610100808354040283529160200191611a4c565b820191906000526020600020905b815481529060010190602001808311611a2f57829003601f168201915b50505050508152602001600282018054611a6590614e72565b80601f0160208091040260200160405190810160405280929190818152602001828054611a9190614e72565b8015611ade5780601f10611ab357610100808354040283529160200191611ade565b820191906000526020600020905b815481529060010190602001808311611ac157829003601f168201915b5050509183525050600382015460208083019190915260048301546040830152600583015460608301526006909201546001600160a01b03166080909101529082526001929092019101611996565b50505050905090565b601a5460609060005b81811015611bf8576010611b5f601a838154811061156757611567614df8565b81546001818101845560009384526020938490208351600790930201918255928201519192909190820190611b949082614ef4565b5060408201516002820190611ba99082614ef4565b50606082015160038201556080820151600482015560a0820151600582015560c090910151600690910180546001600160a01b0319166001600160a01b03909216919091179055600101611b3f565b506010805480602002602001604051908101604052809291908181526020016000905b828210156117ca57838290600052602060002090600702016040518060e001604052908160008201548152602001600182018054611c5890614e72565b80601f0160208091040260200160405190810160405280929190818152602001828054611c8490614e72565b8015611cd15780601f10611ca657610100808354040283529160200191611cd1565b820191906000526020600020905b815481529060010190602001808311611cb457829003601f168201915b50505050508152602001600282018054611cea90614e72565b80601f0160208091040260200160405190810160405280929190818152602001828054611d1690614e72565b8015611d635780601f10611d3857610100808354040283529160200191611d63565b820191906000526020600020905b815481529060010190602001808311611d4657829003601f168201915b5050509183525050600382015460208083019190915260048301546040830152600583015460608301526006909201546001600160a01b03166080909101529082526001929092019101611c1b565b8181611dbe828261236b565b602001516001600160a01b0316336001600160a01b031614611df3576040516314fd685b60e21b815260040160405180910390fd5b600054674563918244f4000090611e149034906001600160a01b0316613ecf565b1015611e33576040516340956f2160e01b815260040160405180910390fd5b60408051602080820183526000808352878152601290915291909120805485908110611e6157611e61614df8565b90600052602060002090600602016003019081611e7e9190614ef4565b506000848152601260205260408120805485908110611e9f57611e9f614df8565b906000526020600020906006020160010160006101000a8154816001600160a01b0302191690836001600160a01b0316021790555050505050565b60166020528260005260406000206020528160005260406000208181548110611f0257600080fd5b6000918252602090912001546001600160a01b0316925083915050565b336000611f2b82612e86565b602001516001600160a01b031603611f565760405163243ba64d60e21b815260040160405180910390fd5b6007546040805160e0810182528281526020810186905290810184905242606082015260006080820181905260a082018190523360c08301819052611f9a90612940565b336000908152600e602090815260408220805460018082018355918452928290208651600785029091019081559186015193945091928592820190611fdf9082614ef4565b5060408201516002820190611ff49082614ef4565b50606082015160038201556080820151600482015560a0820151600582015560c090910151600690910180546001600160a01b039092166001600160a01b031990921691909117905582516000908152600f6020908152604082208390556007805460018101825592819052855192027fa66cc928b5edb82af9bd49922954155ab7b0942694bea4ce44661d9a8736c6888101928355908501518592917fa66cc928b5edb82af9bd49922954155ab7b0942694bea4ce44661d9a8736c68901906120be9082614ef4565b50604082015160028201906120d39082614ef4565b50606082015160038201556080820151600482015560a0820151600582015560c090910151600690910180546001600160a01b039092166001600160a01b0319928316179055835160088054600181019091557ff3f7a9fe364faab93b216da50a3214154f22a0a2b415b23a84c8169e8b636ee30155336000818152600a60209081526040808320899055888352600b909152908190208054909316909117909155517f3d4335cbfac350aa27a3fa09060b4691656ecbe3033f4d953849c2f755f230d1906121a59086908590614fd0565b60405180910390a150505050505050565b3360006121c282612e86565b602001516001600160a01b0316036121ed5760405163243ba64d60e21b815260040160405180910390fd5b8260006121f9826129ef565b60c001516001600160a01b03160361222457604051630fda044d60e11b815260040160405180910390fd5b600084815260126020908152604080832054815160c08101835281815233938101939093529082018790526060820186905242608083015260a082018390529161226d87612bca565b604001519050600061227e33612940565b600089815260136020908152604080832088845282528083208054336001600160a01b0319918216179091558c8452601283528184208054600181810183559186529484902089516006909602019485559288015192840180549091166001600160a01b0390931692909217909155850151600282015560608501519192508491600382019061230e9082614ef4565b506080820151816004015560a082015181600501555050837f915184b2a0bfb3b827755b4e9e718f684996cef7b75bad20f26cd2fd67396c7783838b60405161235993929190614fe9565b60405180910390a25050505050505050565b6123ad6040518060c001604052806000815260200160006001600160a01b03168152602001600081526020016060815260200160008152602001600081525090565b60008381526012602052604090208054839081106123cd576123cd614df8565b90600052602060002090600602016040518060c0016040529081600082015481526020016001820160009054906101000a90046001600160a01b03166001600160a01b03166001600160a01b031681526020016002820154815260200160038201805461243990614e72565b80601f016020809104026020016040519081016040528092919081815260200182805461246590614e72565b80156124b25780601f10612487576101008083540402835291602001916124b2565b820191906000526020600020905b81548152906001019060200180831161249557829003601f168201915b505050505081526020016004820154815260200160058201548152505090505b92915050565b60006124fc604051806040016040528060018152602001600160fd1b815250613bda565b5090508061252a5760195460405163ae97b49160e01b81524760048201526024810191909152604401611527565b601954601410156125495760195461254490600a90615035565b61254c565b60015b601b805463ffffffff191663ffffffff92831690811790915560405163d33d44c160e01b81527f000000000000000000000000000000000000000000000000000000000000000060048201527f00000000000000000000000000000000000000000000000000000000000000006024820152600360448201527f0000000000000000000000000000000000000000000000000000000000000000909216606483015260848201526000907f00000000000000000000000000000000000000000000000000000000000000006001600160a01b03169063d33d44c19060a4016020604051808303816000875af1158015612649573d6000803e3d6000fd5b505050506040513d601f19601f8201168201806040525081019061266d9190615049565b90507f0aa5a4e8e459a1f6485b98194bbe2e07647a58e7dd6d2a9923441b4d569c3077816040516126a091815260200190565b60405180910390a150505050565b6000600c826040516126c09190614fb4565b908152604051908190036020019020546001600160a01b031692915050565b601260205281600052604060002081815481106126fb57600080fd5b600091825260209091206006909102018054600182015460028301546003840180549396506001600160a01b039092169450929161273890614e72565b80601f016020809104026020016040519081016040528092919081815260200182805461276490614e72565b80156127b15780601f10612786576101008083540402835291602001916127b1565b820191906000526020600020905b81548152906001019060200180831161279457829003601f168201915b5050505050908060040154908060050154905086565b600e60205281600052604060002081815481106127e357600080fd5b90600052602060002090600702016000915091505080600001549080600101805461280d90614e72565b80601f016020809104026020016040519081016040528092919081815260200182805461283990614e72565b80156128865780601f1061285b57610100808354040283529160200191612886565b820191906000526020600020905b81548152906001019060200180831161286957829003601f168201915b50505050509080600201805461289b90614e72565b80601f01602080910402602001604051908101604052809291908181526020018280546128c790614e72565b80156129145780601f106128e957610100808354040283529160200191612914565b820191906000526020600020905b8154815290600101906020018083116128f757829003601f168201915b50505050600383015460048401546005850154600690950154939491939092506001600160a01b031687565b6001600160a01b038116600090815260036020526040902060020180546060919061296a90614e72565b80601f016020809104026020016040519081016040528092919081815260200182805461299690614e72565b80156129e35780601f106129b8576101008083540402835291602001916129e3565b820191906000526020600020905b8154815290600101906020018083116129c657829003601f168201915b50505050509050919050565b612a386040518060e0016040528060008152602001606081526020016060815260200160008152602001600081526020016000815260200160006001600160a01b031681525090565b60078281548110612a4b57612a4b614df8565b90600052602060002090600702016040518060e001604052908160008201548152602001600182018054612a7e90614e72565b80601f0160208091040260200160405190810160405280929190818152602001828054612aaa90614e72565b8015612af75780601f10612acc57610100808354040283529160200191612af7565b820191906000526020600020905b815481529060010190602001808311612ada57829003601f168201915b50505050508152602001600282018054612b1090614e72565b80601f0160208091040260200160405190810160405280929190818152602001828054612b3c90614e72565b8015612b895780601f10612b5e57610100808354040283529160200191612b89565b820191906000526020600020905b815481529060010190602001808311612b6c57829003601f168201915b50505091835250506003820154602082015260048201546040820152600582015460608201526006909101546001600160a01b031660809091015292915050565b612bd261435f565b60028281548110612be557612be5614df8565b90600052602060002090600602016040518060c0016040529081600082015481526020016001820160009054906101000a90046001600160a01b03166001600160a01b03166001600160a01b03168152602001600282018054612c4790614e72565b80601f0160208091040260200160405190810160405280929190818152602001828054612c7390614e72565b8015612cc05780601f10612c9557610100808354040283529160200191612cc0565b820191906000526020600020905b815481529060010190602001808311612ca357829003601f168201915b50505050508152602001600382018054612cd990614e72565b80601f0160208091040260200160405190810160405280929190818152602001828054612d0590614e72565b8015612d525780601f10612d2757610100808354040283529160200191612d52565b820191906000526020600020905b815481529060010190602001808311612d3557829003601f168201915b50505050508152602001600482018054612d6b90614e72565b80601f0160208091040260200160405190810160405280929190818152602001828054612d9790614e72565b8015612de45780601f10612db957610100808354040283529160200191612de4565b820191906000526020600020905b815481529060010190602001808311612dc757829003601f168201915b50505050508152602001600582018054612dfd90614e72565b80601f0160208091040260200160405190810160405280929190818152602001828054612e2990614e72565b8015612e765780601f10612e4b57610100808354040283529160200191612e76565b820191906000526020600020905b815481529060010190602001808311612e5957829003601f168201915b5050505050815250509050919050565b612e8e61435f565b6001600160a01b03808316600090815260036020908152604091829020825160c081018452815481526001820154909416918401919091526002810180549192840191612c4790614e72565b336000612ee682612e86565b602001516001600160a01b031603612f115760405163243ba64d60e21b815260040160405180910390fd5b82612f1b81612bca565b602001516001600160a01b0316336001600160a01b031614612f505760405163a736c1d760e01b815260040160405180910390fd5b826000612f5c826126ae565b6001600160a01b031614612f8357604051630fa2819960e31b815260040160405180910390fd5b8360028681548110612f9757612f97614df8565b90600052602060002090600602016002019081612fb49190614ef4565b505050505050565b336000612fc882612e86565b602001516001600160a01b031603612ff35760405163243ba64d60e21b815260040160405180910390fd5b84612ffd81612bca565b602001516001600160a01b0316336001600160a01b0316146130325760405163a736c1d760e01b815260040160405180910390fd5b60405160200161304d90602080825260009082015260400190565b60405160208183030381529060405280519060200120856040516020016130749190614a8f565b60405160208183030381529060405280519060200120146130c25784600287815481106130a3576130a3614df8565b906000526020600020906006020160040190816130c09190614ef4565b505b6040516020016130dd90602080825260009082015260400190565b60405160208183030381529060405280519060200120846040516020016131049190614a8f565b604051602081830303815290604052805190602001201461315257836002878154811061313357613133614df8565b906000526020600020906006020160050190816131509190614ef4565b505b60405160200161316d90602080825260009082015260400190565b60405160208183030381529060405280519060200120846040516020016131949190614a8f565b6040516020818303038152906040528051906020012014612fb45782600287815481106131c3576131c3614df8565b906000526020600020906006020160030190816131e09190614ef4565b50505050505050565b601460205281600052604060002081815481106126fb57600080fd5b601a5460609060005b8181101561326357600661323a613231601a848154811061156757611567614df8565b60c00151612940565b8154600181018355600092835260209092209091019061325a9082614ef4565b5060010161320e565b506006805480602002602001604051908101604052809291908181526020016000905b828210156117ca5783829060005260206000200180546132a590614e72565b80601f01602080910402602001604051908101604052809291908181526020018280546132d190614e72565b801561331e5780601f106132f35761010080835404028352916020019161331e565b820191906000526020600020905b81548152906001019060200180831161330157829003601f168201915b505050505081526020019060010190613286565b6019818154811061334257600080fd5b600091825260209091200154905081565b6060601a8054806020026020016040519081016040528092919081815260200182805480156119685760200282019190600052602060002090815481526020019060010190808311611954575050505050905090565b600082815260166020908152604080832084845282529182902080548351818402810184019094528084526060939283018282801561341157602002820191906000526020600020905b81546001600160a01b031681526001909101906020018083116133f3575b5050505050905092915050565b6017546001600160a01b0316331461344957604051633c6a5daf60e21b815260040160405180910390fd5b6040516001600160a01b038216904780156108fc02916000818181858888f1935050505015801561153a573d6000803e3d6000fd5b606060088054806020026020016040519081016040528092919081815260200182805480156119685760200282019190600052602060002090815481526020019060010190808311611954575050505050905090565b6001600160a01b0381166000908152600e60209081526040808320805482518185028101850190935280835260609492939192909184015b8282101561190f57838290600052602060002090600702016040518060e00160405290816000820154815260200160018201805461354990614e72565b80601f016020809104026020016040519081016040528092919081815260200182805461357590614e72565b80156135c25780601f10613597576101008083540402835291602001916135c2565b820191906000526020600020905b8154815290600101906020018083116135a557829003601f168201915b505050505081526020016002820180546135db90614e72565b80601f016020809104026020016040519081016040528092919081815260200182805461360790614e72565b80156136545780601f1061362957610100808354040283529160200191613654565b820191906000526020600020905b81548152906001019060200180831161363757829003601f168201915b5050509183525050600382015460208083019190915260048301546040830152600583015460608301526006909201546001600160a01b0316608090910152908252600192909201910161350c565b3360006136af82612e86565b602001516001600160a01b0316036136da5760405163243ba64d60e21b815260040160405180910390fd5b6000838152601560209081526040808320858452825280832033845290915281205460ff16151590036137a957600083815260156020908152604080832085845282528083203384528252808320805460ff191660011790558583526012909152902080548390811061374f5761374f614df8565b60009182526020822060056006909202010180549161376d83614e24565b9091555050600083815260166020908152604080832085845282528220805460018101825590835291200180546001600160a01b031916331790555b505050565b6009602052600090815260409020805460018201805491929161280d90614e72565b6017546001600160a01b031633146137fb57604051633c6a5daf60e21b815260040160405180910390fd5b601780546001600160a01b0319166001600160a01b0392909216919091179055565b60036020526000908152604090208054600182015460028301805492936001600160a01b039092169261384f90614e72565b80601f016020809104026020016040519081016040528092919081815260200182805461387b90614e72565b80156138c85780601f1061389d576101008083540402835291602001916138c8565b820191906000526020600020905b8154815290600101906020018083116138ab57829003601f168201915b5050505050908060030180546138dd90614e72565b80601f016020809104026020016040519081016040528092919081815260200182805461390990614e72565b80156139565780601f1061392b57610100808354040283529160200191613956565b820191906000526020600020905b81548152906001019060200180831161393957829003601f168201915b50505050509080600401805461396b90614e72565b80601f016020809104026020016040519081016040528092919081815260200182805461399790614e72565b80156139e45780601f106139b9576101008083540402835291602001916139e4565b820191906000526020600020905b8154815290600101906020018083116139c757829003601f168201915b5050505050908060050180546139f990614e72565b80601f0160208091040260200160405190810160405280929190818152602001828054613a2590614e72565b8015613a725780601f10613a4757610100808354040283529160200191613a72565b820191906000526020600020905b815481529060010190602001808311613a5557829003601f168201915b5050505050905086565b82613a86816129ef565b60c001516001600160a01b0316336001600160a01b031614613abb5760405163b5f6908d60e01b815260040160405180910390fd5b8260078581548110613acf57613acf614df8565b90600052602060002090600702016001019081613aec9190614ef4565b50604051602001613b0890602080825260009082015260400190565b6040516020818303038152906040528051906020012082604051602001613b2f9190614a8f565b6040516020818303038152906040528051906020012014613b7d578160078581548110613b5e57613b5e614df8565b90600052602060002090600702016002019081613b7b9190614ef4565b505b6000613b8833612940565b90507f7009e6824c3ecb1321da2ebabc18901b48d900a97f978c5a93dd3ba8cfe590358582604051613bbb929190614fd0565b60405180910390a15050505050565b601a818154811061334257600080fd5b604080516000808252602082019283905290519091606091613bfe9160199161439e565b50613c586008805480602002602001604051908101604052809291908181526020018280548015613c4e57602002820191906000526020600020905b815481526020019060010190808311613c3a575b5050505050614210565b60007f000000000000000000000000000000000000000000000000000000000000000060015442613c899190615062565b601954911180159250471515911515908390613ca25750815b8015613cab5750805b60408051808201909152600381526203078360ec1b60208201529097909650945050505050565b60188181548110613ce257600080fd5b6000918252602090912001546001600160a01b0316905081565b600080548190613d169084906001600160a01b0316613ecf565b9392505050565b80613d27816129ef565b60c001516001600160a01b03163303613d535760405163e900992360e01b815260040160405180910390fd5b81613d7881336000908152600d60209081526040808320938352929052205460ff1690565b15613d9657604051636d830dbf60e11b815260040160405180910390fd5b60078381548110613da957613da9614df8565b600091825260208220600560079092020101805491613dc783614e24565b9091555050336000908152600d602090815260408083208684528252808320805460ff19166001179055600b9091528120546001600160a01b031690613e0c82612940565b90506000613e1933612940565b90507fd7ad3e52dbe8b445d900fd8aa659c95d5b75bb6733c12e7f22d048963bd39ed5868383604051610f4993929190614e3d565b8282613e5a828261236b565b602001516001600160a01b0316336001600160a01b031614613e8f576040516314fd685b60e21b815260040160405180910390fd5b6000858152601260205260409020805484919086908110613eb257613eb2614df8565b90600052602060002090600602016003019081612fb49190614ef4565b600080613edb83614280565b90506000670de0b6b3a7640000613ef28387615075565b613efc919061508c565b95945050505050565b6040805160008152602081019182905251613f2291601a9161439e565b50805160010361409957600060198054905082600081518110613f4757613f47614df8565b6020026020010151613f599190615035565b9050600060198281548110613f7057613f70614df8565b6000918252602082200154601a80546001810182559083527f057c384a7d1c54f3a1b2e5e67b2617b8224fdfd1ea7234eea573a6ff665ff63e018190559150613fb8826129ef565b60c001516040805160008152602081019182905251919250613fdd916008919061439e565b50426001556040516001600160a01b03821681527fb112587e57bfa970257f3d54fc52859c6300f6bd7a982462c320fed45c2530ed9060200160405180910390a16000816001600160a01b0316662386f26fc1000060405160006040518083038185875af1925050503d8060008114614072576040519150601f19603f3d011682016040523d82523d6000602084013e614077565b606091505b5050905080612fb457604051630e352ebb60e41b815260040160405180910390fd5b805160005b8181101561420a5760006019805490508483815181106140c0576140c0614df8565b60200260200101516140d29190615035565b90506000601982815481106140e9576140e9614df8565b6000918252602082200154601a80546001810182559083527f057c384a7d1c54f3a1b2e5e67b2617b8224fdfd1ea7234eea573a6ff665ff63e018190559150614131826129ef565b60c001516040516001600160a01b03821681529091507fb112587e57bfa970257f3d54fc52859c6300f6bd7a982462c320fed45c2530ed9060200160405180910390a16000816001600160a01b0316662386f26fc1000060405160006040518083038185875af1925050503d80600081146141c8576040519150601f19603f3d011682016040523d82523d6000602084013e6141cd565b606091505b50509050806141fa57604051635e680b6b60e01b81526001600160a01b0383166004820152602401611527565b50506001909201915061409e9050565b50505050565b805160005b818110156137a95761423f83828151811061423257614232614df8565b60200260200101516142fc565b1561427857601983828151811061425857614258614df8565b602090810291909101810151825460018101845560009384529190922001555b600101614215565b600080826001600160a01b031663feaf968c6040518163ffffffff1660e01b815260040160a060405180830381865afa1580156142c1573d6000803e3d6000fd5b505050506040513d601f19601f820116820180604052508101906142e591906150bf565b505050915050806402540be400613d16919061510f565b600080614308836129ef565b6080015190506000614319846129ef565b60a00151905060008061432c8385615062565b11614338576000614342565b6143428284615062565b90506005811015614354576000613efc565b600195945050505050565b6040518060c001604052806000815260200160006001600160a01b03168152602001606081526020016060815260200160608152602001606081525090565b8280548282559060005260206000209081019282156143d9579160200282015b828111156143d95782518255916020019190600101906143be565b506143e59291506143e9565b5090565b5b808211156143e557600081556001016143ea565b60006020828403121561441057600080fd5b5035919050565b6000806040838503121561442a57600080fd5b50508035926020909101359150565b634e487b7160e01b600052604160045260246000fd5b604051601f8201601f1916810167ffffffffffffffff8111828210171561447857614478614439565b604052919050565b600067ffffffffffffffff83111561449a5761449a614439565b6144ad601f8401601f191660200161444f565b90508281528383830111156144c157600080fd5b828260208301376000602084830101529392505050565b600082601f8301126144e957600080fd5b613d1683833560208501614480565b6000806040838503121561450b57600080fd5b823567ffffffffffffffff8082111561452357600080fd5b61452f868387016144d8565b9350602085013591508082111561454557600080fd5b50614552858286016144d8565b9150509250929050565b6000806040838503121561456f57600080fd5b8235915060208084013567ffffffffffffffff8082111561458f57600080fd5b818601915086601f8301126145a357600080fd5b8135818111156145b5576145b5614439565b8060051b91506145c684830161444f565b81815291830184019184810190898411156145e057600080fd5b938501935b838510156145fe578435825293850193908501906145e5565b8096505050505050509250929050565b60005b83811015614629578181015183820152602001614611565b50506000910152565b6000815180845261464a81602086016020860161460e565b601f01601f19169290920160200192915050565b805182526000602082015160e0602085015261467d60e0850182614632565b9050604083015184820360408601526146968282614632565b606085810151908701526080808601519087015260a0808601519087015260c0948501516001600160a01b03169490950193909352509192915050565b600060208083016020845280855180835260408601915060408160051b87010192506020870160005b8281101561472a57603f1988860301845261471885835161465e565b945092850192908501906001016146fc565b5092979650505050505050565b6001600160a01b038116811461474c57600080fd5b50565b60006020828403121561476157600080fd5b8135613d1681614737565b8051825260018060a01b036020820151166020830152604081015160408301526000606082015160c060608501526147a760c0850182614632565b90506080830151608085015260a083015160a08501528091505092915050565b600060208083016020845280855180835260408601915060408160051b87010192506020870160005b8281101561472a57603f1988860301845261480c85835161476c565b945092850192908501906001016147f0565b6020808252825182820181905260009190848201906040850190845b818110156148565783518352928401929184019160010161483a565b50909695505050505050565b60008060006060848603121561487757600080fd5b505081359360208301359350604090920135919050565b600080604083850312156148a157600080fd5b82359150602083013567ffffffffffffffff8111156148bf57600080fd5b614552858286016144d8565b602081526000613d16602083018461476c565b600080602083850312156148f157600080fd5b823567ffffffffffffffff8082111561490957600080fd5b818501915085601f83011261491d57600080fd5b81358181111561492c57600080fd5b86602082850101111561493e57600080fd5b60209290920196919550909350505050565b60006020828403121561496257600080fd5b813567ffffffffffffffff81111561497957600080fd5b614985848285016144d8565b949350505050565b6000806000606084860312156149a257600080fd5b833592506020840135915060408401356149bb81614737565b809150509250925092565b86815260018060a01b038616602082015284604082015260c0606082015260006149f360c0830186614632565b60808301949094525060a00152949350505050565b60008060408385031215614a1b57600080fd5b8235614a2681614737565b946020939093013593505050565b87815260e060208201526000614a4d60e0830189614632565b8281036040840152614a5f8189614632565b60608401979097525050608081019390935260a08301919091526001600160a01b031660c0909101529392505050565b602081526000613d166020830184614632565b602081526000613d16602083018461465e565b602081528151602082015260018060a01b0360208301511660408201526000604083015160c06060840152614aed60e0840182614632565b90506060840151601f1980858403016080860152614b0b8383614632565b925060808601519150808584030160a0860152614b288383614632565b925060a08601519150808584030160c086015250613efc8282614632565b60008060008060808587031215614b5c57600080fd5b84359350602085013567ffffffffffffffff80821115614b7b57600080fd5b614b87888389016144d8565b94506040870135915080821115614b9d57600080fd5b614ba9888389016144d8565b93506060870135915080821115614bbf57600080fd5b50614bcc878288016144d8565b91505092959194509250565b600060208083016020845280855180835260408601915060408160051b87010192506020870160005b8281101561472a57603f19888603018452614c1d858351614632565b94509285019290850190600101614c01565b6020808252825182820181905260009190848201906040850190845b818110156148565783516001600160a01b031683529284019291840191600101614c4b565b8681526001600160a01b038616602082015260c060408201819052600090614c9a90830187614632565b8281036060840152614cac8187614632565b90508281036080840152614cc08186614632565b905082810360a0840152614cd48185614632565b9998505050505050505050565b600080600060608486031215614cf657600080fd5b83359250602084013567ffffffffffffffff80821115614d1557600080fd5b614d21878388016144d8565b93506040860135915080821115614d3757600080fd5b50614d44868287016144d8565b9150509250925092565b600060208284031215614d6057600080fd5b813567ffffffffffffffff811115614d7757600080fd5b8201601f81018413614d8857600080fd5b61498584823560208401614480565b82151581526040602082015260006149856040830184614632565b600080600060608486031215614dc757600080fd5b8335925060208401359150604084013567ffffffffffffffff811115614dec57600080fd5b614d44868287016144d8565b634e487b7160e01b600052603260045260246000fd5b634e487b7160e01b600052601160045260246000fd5b600060018201614e3657614e36614e0e565b5060010190565b838152606060208201526000614e566060830185614632565b8281036040840152614e688185614632565b9695505050505050565b600181811c90821680614e8657607f821691505b602082108103614ea657634e487b7160e01b600052602260045260246000fd5b50919050565b601f8211156137a9576000816000526020600020601f850160051c81016020861015614ed55750805b601f850160051c820191505b81811015612fb457828155600101614ee1565b815167ffffffffffffffff811115614f0e57614f0e614439565b614f2281614f1c8454614e72565b84614eac565b602080601f831160018114614f575760008415614f3f5750858301515b600019600386901b1c1916600185901b178555612fb4565b600085815260208120601f198616915b82811015614f8657888601518255948401946001909101908401614f67565b5085821015614fa45787850151600019600388901b60f8161c191681555b5050505050600190811b01905550565b60008251614fc681846020870161460e565b9190910192915050565b8281526040602082015260006149856040830184614632565b606081526000614ffc6060830186614632565b828103602084015261500e8186614632565b915050826040830152949350505050565b634e487b7160e01b600052601260045260246000fd5b6000826150445761504461501f565b500690565b60006020828403121561505b57600080fd5b5051919050565b818103818111156124d2576124d2614e0e565b80820281158282048414176124d2576124d2614e0e565b60008261509b5761509b61501f565b500490565b805169ffffffffffffffffffff811681146150ba57600080fd5b919050565b600080600080600060a086880312156150d757600080fd5b6150e0866150a0565b9450602086015193506040860151925060608601519150615103608087016150a0565b90509295509295909350565b80820260008212600160ff1b8414161561512b5761512b614e0e565b81810583148215176124d2576124d2614e0e56fea26469706673582212208ac36e1a03c44089e3ba6488352bb7a5865cd0b1e4f07c286f0430f1218e093d64736f6c63430008180033","linkReferences":{}},"methodIdentifiers":{"CheckUpkeep(bytes)":"c9fbacf3","MINIMUM_USD()":"6b69a592","MIN_POST_SCORE()":"c0ae233b","REQUEST_CONFIRMATIONS()":"67f082b0","TEN()":"ee2f3a05","TWENTY()":"dd47f7e2","WINNING_REWARD()":"d088bbcd","changeOwner(address)":"a6f9dae1","changeUsername(uint256,string)":"72d4e382","createComment(uint256,string)":"40a17985","createPost(string,string)":"392338f5","deleteComment(uint256,uint256)":"31a4bcb5","deletePost(uint256)":"094cd5ee","downvote(uint256)":"f31fdad4","editComment(uint256,uint256,string)":"fa561152","editPost(uint256,string,string)":"bf0ac63c","editUserProfile(uint256,string,string,string)":"7461d858","getAddressFromUsername(string)":"4e82c134","getAllPosts()":"30561100","getBalance()":"12065fe0","getCommentByPostIdAndCommentId(uint256,uint256)":"4296db5b","getCommentLikersByPostIdAndCommentId(uint256,uint256)":"8dc4a066","getContractOwner()":"442890d5","getIdsOfEligiblePosts()":"2d492c83","getIdsOfRecentPosts()":"984d1015","getIdsOfRecentWinningPosts()":"8c262013","getPostById(uint256)":"64e95895","getRecentTrendingPosts()":"2a04c645","getRecentWinningPosts()":"30ad4ba9","getUsdValueOfEthAmount(uint256)":"e96c520b","getUser(address)":"6f77926b","getUserById(uint256)":"6ed6da9e","getUserComments(address)":"2b3c6e22","getUserNameFromAddress(address)":"6372af84","getUserPosts(address)":"9a2194a9","getUserVoteStatus(uint256)":"a4dd41d0","getUsernameOfRecentWinners()":"7a0726bd","i_callbackGasLimit()":"d757d027","i_gasLane()":"8e879c8a","i_interval()":"6919207d","i_subscriptionId()":"470cdf97","i_vrfCoordinator()":"aebc4550","likeComment(uint256,uint256)":"a0e91821","performUpkeep(bytes)":"4585e33b","rawFulfillRandomWords(uint256,uint256[])":"1fe543e3","registerUser(string,string)":"1d2e4afd","s_addressToUserProfile(address)":"b4293548","s_authorToPostId(address)":"2fc51a6e","s_authorsEligibleForReward(uint256)":"ca47fdd2","s_hasVoted(address,uint256)":"d0768065","s_idToPost(uint256)":"a3260c35","s_idsOfEligiblePosts(uint256)":"7f9fb67e","s_idsOfRecentWinningPosts(uint256)":"c1c86dd3","s_lastTimeStamp()":"34854043","s_likedComment(uint256,uint256,address)":"5179ce78","s_likersOfComment(uint256,uint256,uint256)":"35da1e22","s_numOfWords()":"0f9aebbd","s_owner()":"e3978240","s_postAndCommentIdToAddress(uint256,uint256)":"048e9d24","s_postIdToAuthor(uint256)":"bc7e8e4c","s_postIdToComments(uint256,uint256)":"5bcf7fca","s_postIdToIdInUserPosts(uint256)":"5c474067","s_priceFeed()":"0ec3b027","s_userAddressToId(address)":"2e10a1d4","s_userPosts(address,uint256)":"5fa122fd","s_usernameToAddress(string)":"aac0823c","transferContractBalance(address)":"96f11ac8","upvote(uint256)":"01ddf070","userComments(address,uint256)":"79129471"},"id":5}