{"abi":[{"type":"constructor","inputs":[{"name":"_priceFeed","type":"address","internalType":"address"},{"name":"_minimumUsd","type":"uint256","internalType":"uint256"}],"stateMutability":"nonpayable"},{"type":"function","name":"_editComment","inputs":[{"name":"_postId","type":"uint256","internalType":"uint256"},{"name":"_commentId","type":"uint256","internalType":"uint256"},{"name":"_content","type":"string","internalType":"string"}],"outputs":[],"stateMutability":"nonpayable"},{"type":"event","name":"CommentCreated","inputs":[{"name":"commentId","type":"uint256","indexed":true,"internalType":"uint256"},{"name":"postAuthor","type":"string","indexed":false,"internalType":"string"},{"name":"commentAuthor","type":"string","indexed":false,"internalType":"string"},{"name":"postId","type":"uint256","indexed":false,"internalType":"uint256"}],"anonymous":false},{"type":"event","name":"Downvoted","inputs":[{"name":"postId","type":"uint256","indexed":false,"internalType":"uint256"},{"name":"posthAuthorName","type":"string","indexed":false,"internalType":"string"},{"name":"downvoterName","type":"string","indexed":false,"internalType":"string"}],"anonymous":false},{"type":"event","name":"PickedWinner","inputs":[{"name":"winner","type":"address","indexed":false,"internalType":"address"}],"anonymous":false},{"type":"event","name":"PostCreated","inputs":[{"name":"postId","type":"uint256","indexed":false,"internalType":"uint256"},{"name":"authorName","type":"string","indexed":false,"internalType":"string"}],"anonymous":false},{"type":"event","name":"PostEdited","inputs":[{"name":"postId","type":"uint256","indexed":false,"internalType":"uint256"},{"name":"authorName","type":"string","indexed":false,"internalType":"string"}],"anonymous":false},{"type":"event","name":"PostLiked","inputs":[{"name":"postId","type":"uint256","indexed":true,"internalType":"uint256"},{"name":"postAuthor","type":"address","indexed":true,"internalType":"address"},{"name":"liker","type":"address","indexed":true,"internalType":"address"}],"anonymous":false},{"type":"event","name":"RequestWinningAuthor","inputs":[{"name":"requestId","type":"uint256","indexed":false,"internalType":"uint256"}],"anonymous":false},{"type":"event","name":"RewardSent","inputs":[{"name":"user","type":"address","indexed":true,"internalType":"address"},{"name":"amount","type":"uint256","indexed":false,"internalType":"uint256"}],"anonymous":false},{"type":"event","name":"Upvoted","inputs":[{"name":"postId","type":"uint256","indexed":false,"internalType":"uint256"},{"name":"posthAuthorName","type":"string","indexed":false,"internalType":"string"},{"name":"upvoterName","type":"string","indexed":false,"internalType":"string"}],"anonymous":false},{"type":"event","name":"UserRegistered","inputs":[{"name":"id","type":"uint256","indexed":true,"internalType":"uint256"},{"name":"userAddress","type":"address","indexed":true,"internalType":"address"},{"name":"username","type":"string","indexed":false,"internalType":"string"}],"anonymous":false},{"type":"error","name":"ChainSphere__AlreadyVoted","inputs":[]},{"type":"error","name":"ChainSphere__BatchTransferFailed","inputs":[{"name":"winner","type":"address","internalType":"address"}]},{"type":"error","name":"ChainSphere__NotCommentOwner","inputs":[]},{"type":"error","name":"ChainSphere__NotPostOwner","inputs":[]},{"type":"error","name":"ChainSphere__NotProfileOwner","inputs":[]},{"type":"error","name":"ChainSphere__OwnerCannotVote","inputs":[]},{"type":"error","name":"ChainSphere__PaymentNotEnough","inputs":[]},{"type":"error","name":"ChainSphere__PostDoesNotExist","inputs":[]},{"type":"error","name":"ChainSphere__TransferFailed","inputs":[]},{"type":"error","name":"ChainSphere__UpkeepNotNeeded","inputs":[{"name":"balance","type":"uint256","internalType":"uint256"},{"name":"numOfEligibleAuthors","type":"uint256","internalType":"uint256"}]},{"type":"error","name":"ChainSphere__UserDoesNotExist","inputs":[]},{"type":"error","name":"ChainSphere__UsernameAlreadyTaken","inputs":[]}],"bytecode":{"object":"0x60c03461008d57601f61068738819003918201601f19168301916001600160401b0383118484101761009257808492604094855283398101031261008d5780516001600160a01b038116919082900361008d5760200151600680546001600160a01b031916909217909155608081905260a0526040516105de90816100a9823960805181505060a051815050f35b600080fd5b634e487b7160e01b600052604160045260246000fdfe608080604052600436101561001357600080fd5b6000803560e01c63479721a91461002957600080fd5b346104765760603660031901126104765760443567ffffffffffffffff811161047257366023820112156104725780600401359067ffffffffffffffff821161029857610080601f8301601f191660200185610479565b818452366024838301011161046e5781839260246020930183870137840101526007546100ac816104eb565b906100ba6040519283610479565b8082526007835282907fa66cc928b5edb82af9bd49922954155ab7b0942694bea4ce44661d9a8736c688602084015b8284106103aa5750505050516004351015610398576004358152601560205260408120805490610118826104eb565b916101266040519384610479565b808352602083019184526020842084925b8284106102d25750505050805160243510156102ac5760243560051b0160209081015101516001600160a01b031633036102c0576004358152601560205260408120805460243510156102ac5781526003602082206009602435020101825167ffffffffffffffff8111610298576101af82546104b1565b601f8111610253575b506020601f82116001146101f3578394829394926101e8575b50508160011b916000199060031b1c191617905580f35b0151905038806101d1565b8284526020842090601f198316855b81811061023b57509583600195969710610222575b505050811b01905580f35b015160001960f88460031b161c19169055388080610217565b9192602060018192868b015181550194019201610202565b82845260208420601f830160051c8101916020841061028e575b601f0160051c01905b81811061028357506101b8565b848155600101610276565b909150819061026d565b634e487b7160e01b83526041600452602483fd5b634e487b7160e01b82526032600452602482fd5b6040516314fd685b60e21b8152600490fd5b6040518061012081011067ffffffffffffffff61012083011117610384576020600192826101206009940160405285548152848060a01b038587015416838201526002860154604082015261032960038701610503565b606082015260048601546080820152600586015460a082015261034e60068701610503565b60c082015261035f60078701610503565b60e082015261037060088701610503565b610100820152815201920193019290610137565b634e487b7160e01b87526041600452602487fd5b604051630fda044d60e11b8152600490fd5b6040518061014081011067ffffffffffffffff6101408301111761038457602060019282610140600a9401604052855481526103e7858701610503565b838201526103f760028701610503565b60408201526003860154606082015260048601546080820152600586015460a0820152848060a01b0360068701541660c082015261043760078701610503565b60e082015261044860088701610503565b61010082015261045a60098701610503565b6101208201528152019201930192906100e9565b8280fd5b5080fd5b80fd5b90601f8019910116810190811067ffffffffffffffff82111761049b57604052565b634e487b7160e01b600052604160045260246000fd5b90600182811c921680156104e1575b60208310146104cb57565b634e487b7160e01b600052602260045260246000fd5b91607f16916104c0565b67ffffffffffffffff811161049b5760051b60200190565b90604051918260008254610516816104b1565b908184526020946001916001811690816000146105865750600114610547575b50505061054592500383610479565b565b600090815285812095935091905b81831061056e5750506105459350820101388080610536565b85548884018501529485019487945091830191610555565b9250505061054594925060ff191682840152151560051b82010138808061053656fea26469706673582212202b9ba7e10a23998e9ec45957ff8e0a742a979fdaa63f772d45ec0bc80fa1d6a264736f6c63430008180033","linkReferences":{}},"methodIdentifiers":{"_editComment(uint256,uint256,string)":"479721a9"},"id":36}