{"abi":[{"type":"constructor","inputs":[{"name":"priceFeed","type":"address","internalType":"address"}],"stateMutability":"nonpayable"},{"type":"function","name":"_editComment","inputs":[{"name":"_postId","type":"uint256","internalType":"uint256"},{"name":"_commentId","type":"uint256","internalType":"uint256"},{"name":"_content","type":"string","internalType":"string"}],"outputs":[],"stateMutability":"nonpayable"},{"type":"event","name":"CommentCreated","inputs":[{"name":"commentId","type":"uint256","indexed":true,"internalType":"uint256"},{"name":"postAuthor","type":"string","indexed":false,"internalType":"string"},{"name":"commentAuthor","type":"string","indexed":false,"internalType":"string"},{"name":"postId","type":"uint256","indexed":false,"internalType":"uint256"}],"anonymous":false},{"type":"event","name":"Downvoted","inputs":[{"name":"postId","type":"uint256","indexed":false,"internalType":"uint256"},{"name":"posthAuthorName","type":"string","indexed":false,"internalType":"string"},{"name":"downvoterName","type":"string","indexed":false,"internalType":"string"}],"anonymous":false},{"type":"event","name":"PickedWinner","inputs":[{"name":"winner","type":"address","indexed":false,"internalType":"address"}],"anonymous":false},{"type":"event","name":"PostCreated","inputs":[{"name":"postId","type":"uint256","indexed":false,"internalType":"uint256"},{"name":"authorName","type":"string","indexed":false,"internalType":"string"}],"anonymous":false},{"type":"event","name":"PostEdited","inputs":[{"name":"postId","type":"uint256","indexed":false,"internalType":"uint256"},{"name":"authorName","type":"string","indexed":false,"internalType":"string"}],"anonymous":false},{"type":"event","name":"PostLiked","inputs":[{"name":"postId","type":"uint256","indexed":true,"internalType":"uint256"},{"name":"postAuthor","type":"address","indexed":true,"internalType":"address"},{"name":"liker","type":"address","indexed":true,"internalType":"address"}],"anonymous":false},{"type":"event","name":"RequestWinningAuthor","inputs":[{"name":"requestId","type":"uint256","indexed":false,"internalType":"uint256"}],"anonymous":false},{"type":"event","name":"RewardSent","inputs":[{"name":"user","type":"address","indexed":true,"internalType":"address"},{"name":"amount","type":"uint256","indexed":false,"internalType":"uint256"}],"anonymous":false},{"type":"event","name":"Upvoted","inputs":[{"name":"postId","type":"uint256","indexed":false,"internalType":"uint256"},{"name":"posthAuthorName","type":"string","indexed":false,"internalType":"string"},{"name":"upvoterName","type":"string","indexed":false,"internalType":"string"}],"anonymous":false},{"type":"event","name":"UserRegistered","inputs":[{"name":"id","type":"uint256","indexed":true,"internalType":"uint256"},{"name":"userAddress","type":"address","indexed":true,"internalType":"address"},{"name":"username","type":"string","indexed":false,"internalType":"string"}],"anonymous":false},{"type":"error","name":"ChainSphere__AlreadyVoted","inputs":[]},{"type":"error","name":"ChainSphere__BatchTransferFailed","inputs":[{"name":"winner","type":"address","internalType":"address"}]},{"type":"error","name":"ChainSphere__NotCommentOwner","inputs":[]},{"type":"error","name":"ChainSphere__NotPostOwner","inputs":[]},{"type":"error","name":"ChainSphere__NotProfileOwner","inputs":[]},{"type":"error","name":"ChainSphere__OwnerCannotVote","inputs":[]},{"type":"error","name":"ChainSphere__PaymentNotEnough","inputs":[]},{"type":"error","name":"ChainSphere__PostDoesNotExist","inputs":[]},{"type":"error","name":"ChainSphere__TransferFailed","inputs":[]},{"type":"error","name":"ChainSphere__UpkeepNotNeeded","inputs":[{"name":"balance","type":"uint256","internalType":"uint256"},{"name":"numOfEligibleAuthors","type":"uint256","internalType":"uint256"}]},{"type":"error","name":"ChainSphere__UserDoesNotExist","inputs":[]},{"type":"error","name":"ChainSphere__UsernameAlreadyTaken","inputs":[]}],"bytecode":{"object":"0x608060405234801561001057600080fd5b506040516108c03803806108c083398101604081905261002f91610054565b600680546001600160a01b0319166001600160a01b0392909216919091179055610084565b60006020828403121561006657600080fd5b81516001600160a01b038116811461007d57600080fd5b9392505050565b61082d806100936000396000f3fe608060405234801561001057600080fd5b506004361061002b5760003560e01c8063479721a914610030575b600080fd5b61004361003e3660046105d6565b610045565b005b8282610050826100e6565b81815181106100615761006161069a565b6020026020010151602001516001600160a01b0316336001600160a01b03161461009e576040516314fd685b60e21b815260040160405180910390fd5b60008581526015602052604090208054849190869081106100c1576100c161069a565b906000526020600020906006020160030190816100de9190610737565b505050505050565b60606100f0610247565b51821061011057604051630fda044d60e11b815260040160405180910390fd5b600082815260156020908152604080832080548251818502810185019093528083529193909284015b8282101561023c5760008481526020908190206040805160c081018252600686029092018054835260018101546001600160a01b031693830193909352600283015490820152600382018054919291606084019190610197906106b0565b80601f01602080910402602001604051908101604052809291908181526020018280546101c3906106b0565b80156102105780601f106101e557610100808354040283529160200191610210565b820191906000526020600020905b8154815290600101906020018083116101f357829003601f168201915b505050505081526020016004820154815260200160058201548152505081526020019060010190610139565b505050509050919050565b60606007805480602002602001604051908101604052809291908181526020016000905b828210156105b757838290600052602060002090600a020160405180610140016040529081600082015481526020016001820180546102a9906106b0565b80601f01602080910402602001604051908101604052809291908181526020018280546102d5906106b0565b80156103225780601f106102f757610100808354040283529160200191610322565b820191906000526020600020905b81548152906001019060200180831161030557829003601f168201915b5050505050815260200160028201805461033b906106b0565b80601f0160208091040260200160405190810160405280929190818152602001828054610367906106b0565b80156103b45780601f10610389576101008083540402835291602001916103b4565b820191906000526020600020905b81548152906001019060200180831161039757829003601f168201915b505050918352505060038201546020820152600482015460408201526005820154606082015260068201546001600160a01b0316608082015260078201805460a090920191610402906106b0565b80601f016020809104026020016040519081016040528092919081815260200182805461042e906106b0565b801561047b5780601f106104505761010080835404028352916020019161047b565b820191906000526020600020905b81548152906001019060200180831161045e57829003601f168201915b50505050508152602001600882018054610494906106b0565b80601f01602080910402602001604051908101604052809291908181526020018280546104c0906106b0565b801561050d5780601f106104e25761010080835404028352916020019161050d565b820191906000526020600020905b8154815290600101906020018083116104f057829003601f168201915b50505050508152602001600982018054610526906106b0565b80601f0160208091040260200160405190810160405280929190818152602001828054610552906106b0565b801561059f5780601f106105745761010080835404028352916020019161059f565b820191906000526020600020905b81548152906001019060200180831161058257829003601f168201915b5050505050815250508152602001906001019061026b565b50505050905090565b634e487b7160e01b600052604160045260246000fd5b6000806000606084860312156105eb57600080fd5b8335925060208401359150604084013567ffffffffffffffff8082111561061157600080fd5b818601915086601f83011261062557600080fd5b813581811115610637576106376105c0565b604051601f8201601f19908116603f0116810190838211818310171561065f5761065f6105c0565b8160405282815289602084870101111561067857600080fd5b8260208601602083013760006020848301015280955050505050509250925092565b634e487b7160e01b600052603260045260246000fd5b600181811c908216806106c457607f821691505b6020821081036106e457634e487b7160e01b600052602260045260246000fd5b50919050565b601f821115610732576000816000526020600020601f850160051c810160208610156107135750805b601f850160051c820191505b818110156100de5782815560010161071f565b505050565b815167ffffffffffffffff811115610751576107516105c0565b6107658161075f84546106b0565b846106ea565b602080601f83116001811461079a57600084156107825750858301515b600019600386901b1c1916600185901b1785556100de565b600085815260208120601f198616915b828110156107c9578886015182559484019460019091019084016107aa565b50858210156107e75787850151600019600388901b60f8161c191681555b5050505050600190811b0190555056fea2646970667358221220554a085616d557d6f4e29e45c0d796c94d675db06c1f0ec9df2708dfc4e584da64736f6c63430008180033","linkReferences":{}},"methodIdentifiers":{"_editComment(uint256,uint256,string)":"479721a9"},"id":36}