{"abi":[{"type":"constructor","inputs":[{"name":"priceFeed","type":"address","internalType":"address"},{"name":"interval","type":"uint256","internalType":"uint256"},{"name":"vrfCoordinator","type":"address","internalType":"address"},{"name":"gasLane","type":"bytes32","internalType":"bytes32"},{"name":"subscriptionId","type":"uint256","internalType":"uint256"},{"name":"callbackGasLimit","type":"uint32","internalType":"uint32"}],"stateMutability":"nonpayable"},{"type":"function","name":"_editComment","inputs":[{"name":"_postId","type":"uint256","internalType":"uint256"},{"name":"_commentId","type":"uint256","internalType":"uint256"},{"name":"_content","type":"string","internalType":"string"}],"outputs":[],"stateMutability":"nonpayable"},{"type":"function","name":"rawFulfillRandomWords","inputs":[{"name":"requestId","type":"uint256","internalType":"uint256"},{"name":"randomWords","type":"uint256[]","internalType":"uint256[]"}],"outputs":[],"stateMutability":"nonpayable"},{"type":"event","name":"CommentCreated","inputs":[{"name":"commentId","type":"uint256","indexed":true,"internalType":"uint256"},{"name":"postAuthor","type":"string","indexed":false,"internalType":"string"},{"name":"commentAuthor","type":"string","indexed":false,"internalType":"string"},{"name":"postId","type":"uint256","indexed":false,"internalType":"uint256"}],"anonymous":false},{"type":"event","name":"Downvoted","inputs":[{"name":"postId","type":"uint256","indexed":false,"internalType":"uint256"},{"name":"posthAuthorName","type":"string","indexed":false,"internalType":"string"},{"name":"downvoterName","type":"string","indexed":false,"internalType":"string"}],"anonymous":false},{"type":"event","name":"PickedWinner","inputs":[{"name":"winner","type":"address","indexed":false,"internalType":"address"}],"anonymous":false},{"type":"event","name":"PostCreated","inputs":[{"name":"postId","type":"uint256","indexed":false,"internalType":"uint256"},{"name":"authorName","type":"string","indexed":false,"internalType":"string"}],"anonymous":false},{"type":"event","name":"PostEdited","inputs":[{"name":"postId","type":"uint256","indexed":false,"internalType":"uint256"},{"name":"authorName","type":"string","indexed":false,"internalType":"string"}],"anonymous":false},{"type":"event","name":"PostLiked","inputs":[{"name":"postId","type":"uint256","indexed":true,"internalType":"uint256"},{"name":"postAuthor","type":"address","indexed":true,"internalType":"address"},{"name":"liker","type":"address","indexed":true,"internalType":"address"}],"anonymous":false},{"type":"event","name":"RequestWinningAuthor","inputs":[{"name":"requestId","type":"uint256","indexed":false,"internalType":"uint256"}],"anonymous":false},{"type":"event","name":"RewardSent","inputs":[{"name":"user","type":"address","indexed":true,"internalType":"address"},{"name":"amount","type":"uint256","indexed":false,"internalType":"uint256"}],"anonymous":false},{"type":"event","name":"Upvoted","inputs":[{"name":"postId","type":"uint256","indexed":false,"internalType":"uint256"},{"name":"posthAuthorName","type":"string","indexed":false,"internalType":"string"},{"name":"upvoterName","type":"string","indexed":false,"internalType":"string"}],"anonymous":false},{"type":"event","name":"UserRegistered","inputs":[{"name":"id","type":"uint256","indexed":true,"internalType":"uint256"},{"name":"userAddress","type":"address","indexed":true,"internalType":"address"},{"name":"username","type":"string","indexed":false,"internalType":"string"}],"anonymous":false},{"type":"error","name":"ChainSphere__AlreadyVoted","inputs":[]},{"type":"error","name":"ChainSphere__BatchTransferFailed","inputs":[{"name":"winner","type":"address","internalType":"address"}]},{"type":"error","name":"ChainSphere__NotCommentOwner","inputs":[]},{"type":"error","name":"ChainSphere__NotPostOwner","inputs":[]},{"type":"error","name":"ChainSphere__NotProfileOwner","inputs":[]},{"type":"error","name":"ChainSphere__OwnerCannotVote","inputs":[]},{"type":"error","name":"ChainSphere__PaymentNotEnough","inputs":[]},{"type":"error","name":"ChainSphere__PostDoesNotExist","inputs":[]},{"type":"error","name":"ChainSphere__TransferFailed","inputs":[]},{"type":"error","name":"ChainSphere__UpkeepNotNeeded","inputs":[{"name":"balance","type":"uint256","internalType":"uint256"},{"name":"numOfEligibleAuthors","type":"uint256","internalType":"uint256"}]},{"type":"error","name":"ChainSphere__UserDoesNotExist","inputs":[]},{"type":"error","name":"ChainSphere__UsernameAlreadyTaken","inputs":[]},{"type":"error","name":"OnlyCoordinatorCanFulfill","inputs":[{"name":"have","type":"address","internalType":"address"},{"name":"want","type":"address","internalType":"address"}]}],"bytecode":{"object":"0x61014060405234801561001157600080fd5b5060405161124738038061124783398101604081905261003091610096565b6001600160a01b03938416608052600680546001600160a01b031916969094169590951790925560a0929092524260165560e0919091526101005263ffffffff1661012052610102565b80516001600160a01b038116811461009157600080fd5b919050565b60008060008060008060c087890312156100af57600080fd5b6100b88761007a565b9550602087015194506100cd6040880161007a565b9350606087015192506080870151915060a087015163ffffffff811681146100f457600080fd5b809150509295509295509295565b60805160a05160c05160e0516101005161012051611100610147600039600050506000505060005050600050506000505060008181606e015260b001526111006000f3fe608060405234801561001057600080fd5b50600436106100365760003560e01c80631fe543e31461003b578063479721a914610050575b600080fd5b61004e610049366004610df1565b610063565b005b61004e61005e366004610ea3565b6100f0565b336001600160a01b037f000000000000000000000000000000000000000000000000000000000000000016146100e25760405163073e64fd60e21b81523360048201526001600160a01b037f00000000000000000000000000000000000000000000000000000000000000001660248201526044015b60405180910390fd5b6100ec8282610191565b5050565b82826100fb8261049c565b818151811061010c5761010c610f4b565b6020026020010151602001516001600160a01b0316336001600160a01b031614610149576040516314fd685b60e21b815260040160405180910390fd5b600085815260186020526040902080548491908690811061016c5761016c610f4b565b906000526020600020906006020160030190816101899190610fe8565b505050505050565b60408051600081526020810191829052516101ae91601491610d4a565b508051600103610325576000601380549050826000815181106101d3576101d3610f4b565b60200260200101516101e591906110a8565b90506000601382815481106101fc576101fc610f4b565b6000918252602082200154601480546001810182559083527fce6d7b5282bd9a3661ae061feed1dbda4e52ab073b1f9285be6e155d9c38d4ec018190559150610244826105fd565b60c0015160408051600081526020810191829052519192506102699160089190610d4a565b50426016556040516001600160a01b03821681527fb112587e57bfa970257f3d54fc52859c6300f6bd7a982462c320fed45c2530ed9060200160405180910390a16000816001600160a01b0316662386f26fc1000060405160006040518083038185875af1925050503d80600081146102fe576040519150601f19603f3d011682016040523d82523d6000602084013e610303565b606091505b505090508061018957604051630e352ebb60e41b815260040160405180910390fd5b805160005b8181101561049657600060138054905084838151811061034c5761034c610f4b565b602002602001015161035e91906110a8565b905060006013828154811061037557610375610f4b565b6000918252602082200154601480546001810182559083527fce6d7b5282bd9a3661ae061feed1dbda4e52ab073b1f9285be6e155d9c38d4ec0181905591506103bd826105fd565b60c001516040516001600160a01b03821681529091507fb112587e57bfa970257f3d54fc52859c6300f6bd7a982462c320fed45c2530ed9060200160405180910390a16000816001600160a01b0316662386f26fc1000060405160006040518083038185875af1925050503d8060008114610454576040519150601f19603f3d011682016040523d82523d6000602084013e610459565b606091505b505090508061048657604051635e680b6b60e01b81526001600160a01b03831660048201526024016100d9565b50506001909201915061032a9050565b50505050565b60606104a66109d1565b5182106104c657604051630fda044d60e11b815260040160405180910390fd5b600082815260186020908152604080832080548251818502810185019093528083529193909284015b828210156105f25760008481526020908190206040805160c081018252600686029092018054835260018101546001600160a01b03169383019390935260028301549082015260038201805491929160608401919061054d90610f61565b80601f016020809104026020016040519081016040528092919081815260200182805461057990610f61565b80156105c65780601f1061059b576101008083540402835291602001916105c6565b820191906000526020600020905b8154815290600101906020018083116105a957829003601f168201915b5050505050815260200160048201548152602001600582015481525050815260200190600101906104ef565b505050509050919050565b61065c60405180610140016040528060008152602001606081526020016060815260200160008152602001600081526020016000815260200160006001600160a01b031681526020016060815260200160608152602001606081525090565b6106646109d1565b51821061068457604051630fda044d60e11b815260040160405180910390fd5b6007828154811061069757610697610f4b565b90600052602060002090600a020160405180610140016040529081600082015481526020016001820180546106cb90610f61565b80601f01602080910402602001604051908101604052809291908181526020018280546106f790610f61565b80156107445780601f1061071957610100808354040283529160200191610744565b820191906000526020600020905b81548152906001019060200180831161072757829003601f168201915b5050505050815260200160028201805461075d90610f61565b80601f016020809104026020016040519081016040528092919081815260200182805461078990610f61565b80156107d65780601f106107ab576101008083540402835291602001916107d6565b820191906000526020600020905b8154815290600101906020018083116107b957829003601f168201915b505050918352505060038201546020820152600482015460408201526005820154606082015260068201546001600160a01b0316608082015260078201805460a09092019161082490610f61565b80601f016020809104026020016040519081016040528092919081815260200182805461085090610f61565b801561089d5780601f106108725761010080835404028352916020019161089d565b820191906000526020600020905b81548152906001019060200180831161088057829003601f168201915b505050505081526020016008820180546108b690610f61565b80601f01602080910402602001604051908101604052809291908181526020018280546108e290610f61565b801561092f5780601f106109045761010080835404028352916020019161092f565b820191906000526020600020905b81548152906001019060200180831161091257829003601f168201915b5050505050815260200160098201805461094890610f61565b80601f016020809104026020016040519081016040528092919081815260200182805461097490610f61565b80156109c15780601f10610996576101008083540402835291602001916109c1565b820191906000526020600020905b8154815290600101906020018083116109a457829003601f168201915b5050505050815250509050919050565b60606007805480602002602001604051908101604052809291908181526020016000905b82821015610d4157838290600052602060002090600a02016040518061014001604052908160008201548152602001600182018054610a3390610f61565b80601f0160208091040260200160405190810160405280929190818152602001828054610a5f90610f61565b8015610aac5780601f10610a8157610100808354040283529160200191610aac565b820191906000526020600020905b815481529060010190602001808311610a8f57829003601f168201915b50505050508152602001600282018054610ac590610f61565b80601f0160208091040260200160405190810160405280929190818152602001828054610af190610f61565b8015610b3e5780601f10610b1357610100808354040283529160200191610b3e565b820191906000526020600020905b815481529060010190602001808311610b2157829003601f168201915b505050918352505060038201546020820152600482015460408201526005820154606082015260068201546001600160a01b0316608082015260078201805460a090920191610b8c90610f61565b80601f0160208091040260200160405190810160405280929190818152602001828054610bb890610f61565b8015610c055780601f10610bda57610100808354040283529160200191610c05565b820191906000526020600020905b815481529060010190602001808311610be857829003601f168201915b50505050508152602001600882018054610c1e90610f61565b80601f0160208091040260200160405190810160405280929190818152602001828054610c4a90610f61565b8015610c975780601f10610c6c57610100808354040283529160200191610c97565b820191906000526020600020905b815481529060010190602001808311610c7a57829003601f168201915b50505050508152602001600982018054610cb090610f61565b80601f0160208091040260200160405190810160405280929190818152602001828054610cdc90610f61565b8015610d295780601f10610cfe57610100808354040283529160200191610d29565b820191906000526020600020905b815481529060010190602001808311610d0c57829003601f168201915b505050505081525050815260200190600101906109f5565b50505050905090565b828054828255906000526020600020908101928215610d85579160200282015b82811115610d85578251825591602001919060010190610d6a565b50610d91929150610d95565b5090565b5b80821115610d915760008155600101610d96565b634e487b7160e01b600052604160045260246000fd5b604051601f8201601f1916810167ffffffffffffffff81118282101715610de957610de9610daa565b604052919050565b60008060408385031215610e0457600080fd5b8235915060208084013567ffffffffffffffff80821115610e2457600080fd5b818601915086601f830112610e3857600080fd5b813581811115610e4a57610e4a610daa565b8060051b9150610e5b848301610dc0565b8181529183018401918481019089841115610e7557600080fd5b938501935b83851015610e9357843582529385019390850190610e7a565b8096505050505050509250929050565b600080600060608486031215610eb857600080fd5b833592506020808501359250604085013567ffffffffffffffff80821115610edf57600080fd5b818701915087601f830112610ef357600080fd5b813581811115610f0557610f05610daa565b610f17601f8201601f19168501610dc0565b91508082528884828501011115610f2d57600080fd5b80848401858401376000848284010152508093505050509250925092565b634e487b7160e01b600052603260045260246000fd5b600181811c90821680610f7557607f821691505b602082108103610f9557634e487b7160e01b600052602260045260246000fd5b50919050565b601f821115610fe3576000816000526020600020601f850160051c81016020861015610fc45750805b601f850160051c820191505b8181101561018957828155600101610fd0565b505050565b815167ffffffffffffffff81111561100257611002610daa565b611016816110108454610f61565b84610f9b565b602080601f83116001811461104b57600084156110335750858301515b600019600386901b1c1916600185901b178555610189565b600085815260208120601f198616915b8281101561107a5788860151825594840194600190910190840161105b565b50858210156110985787850151600019600388901b60f8161c191681555b5050505050600190811b01905550565b6000826110c557634e487b7160e01b600052601260045260246000fd5b50069056fea2646970667358221220ec51f0aab8bf50845beabe6f09c4c57cba5877c4db44299e7e3c7f76d79df97d64736f6c63430008180033","linkReferences":{}},"methodIdentifiers":{"_editComment(uint256,uint256,string)":"479721a9","rawFulfillRandomWords(uint256,uint256[])":"1fe543e3"},"id":36}