{"abi":[{"type":"constructor","inputs":[{"name":"priceFeed","type":"address","internalType":"address"},{"name":"interval","type":"uint256","internalType":"uint256"},{"name":"vrfCoordinator","type":"address","internalType":"address"},{"name":"gasLane","type":"bytes32","internalType":"bytes32"},{"name":"subscriptionId","type":"uint256","internalType":"uint256"},{"name":"callbackGasLimit","type":"uint32","internalType":"uint32"},{"name":"link","type":"address","internalType":"address"},{"name":"deployerKey","type":"uint256","internalType":"uint256"}],"stateMutability":"nonpayable"},{"type":"fallback","stateMutability":"payable"},{"type":"receive","stateMutability":"payable"},{"type":"function","name":"CheckUpkeep","inputs":[{"name":"","type":"bytes","internalType":"bytes"}],"outputs":[{"name":"upkeepNeeded","type":"bool","internalType":"bool"},{"name":"","type":"bytes","internalType":"bytes"}],"stateMutability":"nonpayable"},{"type":"function","name":"changeOwner","inputs":[{"name":"_newOwner","type":"address","internalType":"address"}],"outputs":[],"stateMutability":"nonpayable"},{"type":"function","name":"changeUsername","inputs":[{"name":"_userId","type":"uint256","internalType":"uint256"},{"name":"_newNickName","type":"string","internalType":"string"}],"outputs":[],"stateMutability":"nonpayable"},{"type":"function","name":"createComment","inputs":[{"name":"_postId","type":"uint256","internalType":"uint256"},{"name":"_content","type":"string","internalType":"string"}],"outputs":[],"stateMutability":"nonpayable"},{"type":"function","name":"createPost","inputs":[{"name":"_content","type":"string","internalType":"string"},{"name":"_imgHash","type":"string","internalType":"string"}],"outputs":[],"stateMutability":"nonpayable"},{"type":"function","name":"deleteComment","inputs":[{"name":"_postId","type":"uint256","internalType":"uint256"},{"name":"_commentId","type":"uint256","internalType":"uint256"}],"outputs":[],"stateMutability":"payable"},{"type":"function","name":"deletePost","inputs":[{"name":"_postId","type":"uint256","internalType":"uint256"}],"outputs":[],"stateMutability":"payable"},{"type":"function","name":"downvote","inputs":[{"name":"_postId","type":"uint256","internalType":"uint256"}],"outputs":[],"stateMutability":"nonpayable"},{"type":"function","name":"editComment","inputs":[{"name":"_postId","type":"uint256","internalType":"uint256"},{"name":"_commentId","type":"uint256","internalType":"uint256"},{"name":"_content","type":"string","internalType":"string"}],"outputs":[],"stateMutability":"nonpayable"},{"type":"function","name":"editPost","inputs":[{"name":"_postId","type":"uint256","internalType":"uint256"},{"name":"_content","type":"string","internalType":"string"},{"name":"_imgHash","type":"string","internalType":"string"}],"outputs":[],"stateMutability":"nonpayable"},{"type":"function","name":"editUserProfile","inputs":[{"name":"_userId","type":"uint256","internalType":"uint256"},{"name":"_bio","type":"string","internalType":"string"},{"name":"_profileImageHash","type":"string","internalType":"string"},{"name":"_newName","type":"string","internalType":"string"}],"outputs":[],"stateMutability":"nonpayable"},{"type":"function","name":"getAddressFromUsername","inputs":[{"name":"_username","type":"string","internalType":"string"}],"outputs":[{"name":"","type":"address","internalType":"address"}],"stateMutability":"view"},{"type":"function","name":"getAllPosts","inputs":[],"outputs":[{"name":"","type":"tuple[]","internalType":"struct ChainSphere.Post[]","components":[{"name":"postId","type":"uint256","internalType":"uint256"},{"name":"content","type":"string","internalType":"string"},{"name":"imgHash","type":"string","internalType":"string"},{"name":"timestamp","type":"uint256","internalType":"uint256"},{"name":"upvotes","type":"uint256","internalType":"uint256"},{"name":"downvotes","type":"uint256","internalType":"uint256"},{"name":"author","type":"address","internalType":"address"}]}],"stateMutability":"view"},{"type":"function","name":"getBalance","inputs":[],"outputs":[{"name":"","type":"uint256","internalType":"uint256"}],"stateMutability":"view"},{"type":"function","name":"getCommentByPostIdAndCommentId","inputs":[{"name":"_postId","type":"uint256","internalType":"uint256"},{"name":"_commentId","type":"uint256","internalType":"uint256"}],"outputs":[{"name":"","type":"tuple","internalType":"struct ChainSphere.Comment","components":[{"name":"commentId","type":"uint256","internalType":"uint256"},{"name":"author","type":"address","internalType":"address"},{"name":"postId","type":"uint256","internalType":"uint256"},{"name":"content","type":"string","internalType":"string"},{"name":"timestamp","type":"uint256","internalType":"uint256"},{"name":"likesCount","type":"uint256","internalType":"uint256"}]}],"stateMutability":"view"},{"type":"function","name":"getCommentLikersByPostIdAndCommentId","inputs":[{"name":"_postId","type":"uint256","internalType":"uint256"},{"name":"_commentId","type":"uint256","internalType":"uint256"}],"outputs":[{"name":"","type":"address[]","internalType":"address[]"}],"stateMutability":"view"},{"type":"function","name":"getContractOwner","inputs":[],"outputs":[{"name":"","type":"address","internalType":"address"}],"stateMutability":"view"},{"type":"function","name":"getIdsOfEligiblePosts","inputs":[],"outputs":[{"name":"","type":"uint256[]","internalType":"uint256[]"}],"stateMutability":"view"},{"type":"function","name":"getIdsOfRecentPosts","inputs":[],"outputs":[{"name":"","type":"uint256[]","internalType":"uint256[]"}],"stateMutability":"view"},{"type":"function","name":"getIdsOfRecentWinningPosts","inputs":[],"outputs":[{"name":"","type":"uint256[]","internalType":"uint256[]"}],"stateMutability":"view"},{"type":"function","name":"getPostById","inputs":[{"name":"_postId","type":"uint256","internalType":"uint256"}],"outputs":[{"name":"","type":"tuple","internalType":"struct ChainSphere.Post","components":[{"name":"postId","type":"uint256","internalType":"uint256"},{"name":"content","type":"string","internalType":"string"},{"name":"imgHash","type":"string","internalType":"string"},{"name":"timestamp","type":"uint256","internalType":"uint256"},{"name":"upvotes","type":"uint256","internalType":"uint256"},{"name":"downvotes","type":"uint256","internalType":"uint256"},{"name":"author","type":"address","internalType":"address"}]}],"stateMutability":"view"},{"type":"function","name":"getRecentTrendingPosts","inputs":[],"outputs":[{"name":"","type":"tuple[]","internalType":"struct ChainSphere.Post[]","components":[{"name":"postId","type":"uint256","internalType":"uint256"},{"name":"content","type":"string","internalType":"string"},{"name":"imgHash","type":"string","internalType":"string"},{"name":"timestamp","type":"uint256","internalType":"uint256"},{"name":"upvotes","type":"uint256","internalType":"uint256"},{"name":"downvotes","type":"uint256","internalType":"uint256"},{"name":"author","type":"address","internalType":"address"}]}],"stateMutability":"nonpayable"},{"type":"function","name":"getRecentWinningPosts","inputs":[],"outputs":[{"name":"","type":"tuple[]","internalType":"struct ChainSphere.Post[]","components":[{"name":"postId","type":"uint256","internalType":"uint256"},{"name":"content","type":"string","internalType":"string"},{"name":"imgHash","type":"string","internalType":"string"},{"name":"timestamp","type":"uint256","internalType":"uint256"},{"name":"upvotes","type":"uint256","internalType":"uint256"},{"name":"downvotes","type":"uint256","internalType":"uint256"},{"name":"author","type":"address","internalType":"address"}]}],"stateMutability":"nonpayable"},{"type":"function","name":"getUsdValueOfEthAmount","inputs":[{"name":"_ethAmount","type":"uint256","internalType":"uint256"}],"outputs":[{"name":"","type":"uint256","internalType":"uint256"}],"stateMutability":"view"},{"type":"function","name":"getUser","inputs":[{"name":"_userAddress","type":"address","internalType":"address"}],"outputs":[{"name":"","type":"tuple","internalType":"struct ChainSphere.User","components":[{"name":"id","type":"uint256","internalType":"uint256"},{"name":"userAddress","type":"address","internalType":"address"},{"name":"nickName","type":"string","internalType":"string"},{"name":"fullNameOfUser","type":"string","internalType":"string"},{"name":"bio","type":"string","internalType":"string"},{"name":"profileImageHash","type":"string","internalType":"string"}]}],"stateMutability":"view"},{"type":"function","name":"getUserById","inputs":[{"name":"_userId","type":"uint256","internalType":"uint256"}],"outputs":[{"name":"","type":"tuple","internalType":"struct ChainSphere.User","components":[{"name":"id","type":"uint256","internalType":"uint256"},{"name":"userAddress","type":"address","internalType":"address"},{"name":"nickName","type":"string","internalType":"string"},{"name":"fullNameOfUser","type":"string","internalType":"string"},{"name":"bio","type":"string","internalType":"string"},{"name":"profileImageHash","type":"string","internalType":"string"}]}],"stateMutability":"view"},{"type":"function","name":"getUserComments","inputs":[{"name":"_userAddress","type":"address","internalType":"address"}],"outputs":[{"name":"","type":"tuple[]","internalType":"struct ChainSphere.Comment[]","components":[{"name":"commentId","type":"uint256","internalType":"uint256"},{"name":"author","type":"address","internalType":"address"},{"name":"postId","type":"uint256","internalType":"uint256"},{"name":"content","type":"string","internalType":"string"},{"name":"timestamp","type":"uint256","internalType":"uint256"},{"name":"likesCount","type":"uint256","internalType":"uint256"}]}],"stateMutability":"view"},{"type":"function","name":"getUserNameFromAddress","inputs":[{"name":"_userAddress","type":"address","internalType":"address"}],"outputs":[{"name":"nickNameOfUser","type":"string","internalType":"string"}],"stateMutability":"view"},{"type":"function","name":"getUserPosts","inputs":[{"name":"_userAddress","type":"address","internalType":"address"}],"outputs":[{"name":"","type":"tuple[]","internalType":"struct ChainSphere.Post[]","components":[{"name":"postId","type":"uint256","internalType":"uint256"},{"name":"content","type":"string","internalType":"string"},{"name":"imgHash","type":"string","internalType":"string"},{"name":"timestamp","type":"uint256","internalType":"uint256"},{"name":"upvotes","type":"uint256","internalType":"uint256"},{"name":"downvotes","type":"uint256","internalType":"uint256"},{"name":"author","type":"address","internalType":"address"}]}],"stateMutability":"view"},{"type":"function","name":"getUserVoteStatus","inputs":[{"name":"_postId","type":"uint256","internalType":"uint256"}],"outputs":[{"name":"","type":"bool","internalType":"bool"}],"stateMutability":"view"},{"type":"function","name":"getUsernameOfRecentWinners","inputs":[],"outputs":[{"name":"","type":"string[]","internalType":"string[]"}],"stateMutability":"nonpayable"},{"type":"function","name":"likeComment","inputs":[{"name":"_postId","type":"uint256","internalType":"uint256"},{"name":"_commentId","type":"uint256","internalType":"uint256"}],"outputs":[],"stateMutability":"nonpayable"},{"type":"function","name":"performUpkeep","inputs":[{"name":"","type":"bytes","internalType":"bytes"}],"outputs":[],"stateMutability":"nonpayable"},{"type":"function","name":"rawFulfillRandomWords","inputs":[{"name":"requestId","type":"uint256","internalType":"uint256"},{"name":"randomWords","type":"uint256[]","internalType":"uint256[]"}],"outputs":[],"stateMutability":"nonpayable"},{"type":"function","name":"registerUser","inputs":[{"name":"_fullNameOfUser","type":"string","internalType":"string"},{"name":"_username","type":"string","internalType":"string"}],"outputs":[],"stateMutability":"nonpayable"},{"type":"function","name":"transferContractBalance","inputs":[{"name":"_to","type":"address","internalType":"address payable"}],"outputs":[],"stateMutability":"nonpayable"},{"type":"function","name":"upvote","inputs":[{"name":"_postId","type":"uint256","internalType":"uint256"}],"outputs":[],"stateMutability":"nonpayable"},{"type":"event","name":"CommentCreated","inputs":[{"name":"commentId","type":"uint256","indexed":true,"internalType":"uint256"},{"name":"postAuthor","type":"string","indexed":false,"internalType":"string"},{"name":"commentAuthor","type":"string","indexed":false,"internalType":"string"},{"name":"postId","type":"uint256","indexed":false,"internalType":"uint256"}],"anonymous":false},{"type":"event","name":"Downvoted","inputs":[{"name":"postId","type":"uint256","indexed":false,"internalType":"uint256"},{"name":"posthAuthorName","type":"string","indexed":false,"internalType":"string"},{"name":"downvoterName","type":"string","indexed":false,"internalType":"string"}],"anonymous":false},{"type":"event","name":"PickedWinner","inputs":[{"name":"winner","type":"address","indexed":false,"internalType":"address"}],"anonymous":false},{"type":"event","name":"PostCreated","inputs":[{"name":"postId","type":"uint256","indexed":false,"internalType":"uint256"},{"name":"authorName","type":"string","indexed":false,"internalType":"string"}],"anonymous":false},{"type":"event","name":"PostEdited","inputs":[{"name":"postId","type":"uint256","indexed":false,"internalType":"uint256"},{"name":"authorName","type":"string","indexed":false,"internalType":"string"}],"anonymous":false},{"type":"event","name":"PostLiked","inputs":[{"name":"postId","type":"uint256","indexed":true,"internalType":"uint256"},{"name":"postAuthor","type":"address","indexed":true,"internalType":"address"},{"name":"liker","type":"address","indexed":true,"internalType":"address"}],"anonymous":false},{"type":"event","name":"RequestWinningAuthor","inputs":[{"name":"requestId","type":"uint256","indexed":false,"internalType":"uint256"}],"anonymous":false},{"type":"event","name":"RewardSent","inputs":[{"name":"user","type":"address","indexed":true,"internalType":"address"},{"name":"amount","type":"uint256","indexed":false,"internalType":"uint256"}],"anonymous":false},{"type":"event","name":"Upvoted","inputs":[{"name":"postId","type":"uint256","indexed":false,"internalType":"uint256"},{"name":"posthAuthorName","type":"string","indexed":false,"internalType":"string"},{"name":"upvoterName","type":"string","indexed":false,"internalType":"string"}],"anonymous":false},{"type":"event","name":"UserRegistered","inputs":[{"name":"id","type":"uint256","indexed":true,"internalType":"uint256"},{"name":"userAddress","type":"address","indexed":true,"internalType":"address"},{"name":"username","type":"string","indexed":true,"internalType":"string"}],"anonymous":false},{"type":"error","name":"ChainSphere__AlreadyVoted","inputs":[]},{"type":"error","name":"ChainSphere__BatchTransferFailed","inputs":[{"name":"winner","type":"address","internalType":"address"}]},{"type":"error","name":"ChainSphere__NotCommentOwner","inputs":[]},{"type":"error","name":"ChainSphere__NotOwner","inputs":[]},{"type":"error","name":"ChainSphere__NotPostOwner","inputs":[]},{"type":"error","name":"ChainSphere__NotProfileOwner","inputs":[]},{"type":"error","name":"ChainSphere__OwnerCannotVote","inputs":[]},{"type":"error","name":"ChainSphere__PaymentNotEnough","inputs":[]},{"type":"error","name":"ChainSphere__PostDoesNotExist","inputs":[]},{"type":"error","name":"ChainSphere__TransferFailed","inputs":[]},{"type":"error","name":"ChainSphere__UpkeepNotNeeded","inputs":[{"name":"balance","type":"uint256","internalType":"uint256"},{"name":"numOfEligibleAuthors","type":"uint256","internalType":"uint256"}]},{"type":"error","name":"ChainSphere__UserDoesNotExist","inputs":[]},{"type":"error","name":"ChainSphere__UsernameAlreadyTaken","inputs":[]},{"type":"error","name":"OnlyCoordinatorCanFulfill","inputs":[{"name":"have","type":"address","internalType":"address"},{"name":"want","type":"address","internalType":"address"}]}],"bytecode":{"object":"0x6101406040523480156200001257600080fd5b50604051620044c9380380620044c98339810160408190526200003591620000b4565b50506001600160a01b039384166080819052601780546001600160a01b03199081163317909155600080549890961697169690961790935560a0939093524260015560c09390935260e0929092526101005263ffffffff166101205262000142565b80516001600160a01b0381168114620000af57600080fd5b919050565b600080600080600080600080610100898b031215620000d257600080fd5b620000dd8962000097565b975060208901519650620000f460408a0162000097565b9550606089015194506080890151935060a089015163ffffffff811681146200011c57600080fd5b92506200012c60c08a0162000097565b915060e089015190509295985092959890939650565b60805160a05160c05160e0516101005161012051614330620001996000396000611e7a01526000611e4d01526000611e2701526000611eab01526000612fe0015260008181610db40152610df601526143306000f3fe6080604052600436106102065760003560e01c806364e9589511610117578063984d1015116100a5578063bf0ac63c1161006c578063bf0ac63c14610662578063c9fbacf314610682578063e96c520b146106b0578063f31fdad4146106d0578063fa561152146106f057005b8063984d1015146105a25780639a2194a9146105b7578063a0e91821146105d7578063a4dd41d0146105f7578063a6f9dae11461064257005b80637461d858116100e95780637461d858146104fe5780637a0726bd1461051e5780638c262013146105405780638dc4a0661461055557806396f11ac81461058257005b806364e95895146104645780636ed6da9e146104915780636f77926b146104be57806372d4e382146104de57005b806330ad4ba9116101945780634296db5b116101665780634296db5b14610398578063442890d5146103c55780634585e33b146103f75780634e82c134146104175780636372af841461043757005b806330ad4ba91461033057806331a4bcb514610345578063392338f51461035857806340a179851461037857005b80631fe543e3116101d85780631fe543e31461028a5780632a04c645146102aa5780632b3c6e22146102cc5780632d492c83146102f9578063305611001461031b57005b806301ddf0701461020f578063094cd5ee1461022f57806312065fe0146102425780631d2e4afd1461026a57005b3661020d57005b005b34801561021b57600080fd5b5061020d61022a366004613758565b610710565b61020d61023d366004613758565b610851565b34801561024e57600080fd5b50610257610ae7565b6040519081526020015b60405180910390f35b34801561027657600080fd5b5061020d610285366004613830565b610b31565b34801561029657600080fd5b5061020d6102a5366004613894565b610da9565b3480156102b657600080fd5b506102bf610e36565b6040516102619190613a0b565b3480156102d857600080fd5b506102ec6102e7366004613a87565b6110cc565b6040516102619190613aff565b34801561030557600080fd5b5061030e611212565b6040516102619190613b56565b34801561032757600080fd5b506102bf61126a565b34801561033c57600080fd5b506102bf61142e565b61020d610353366004613b9a565b6116aa565b34801561036457600080fd5b5061020d610373366004613830565b6117d2565b34801561038457600080fd5b5061020d610393366004613bbc565b611a69565b3480156103a457600080fd5b506103b86103b3366004613b9a565b611c1e565b6040516102619190613bf9565b3480156103d157600080fd5b506017546001600160a01b03165b6040516001600160a01b039091168152602001610261565b34801561040357600080fd5b5061020d610412366004613c0c565b611d8b565b34801561042357600080fd5b506103df610432366004613c7e565b611f61565b34801561044357600080fd5b50610457610452366004613a87565b611f92565b6040516102619190613cbb565b34801561047057600080fd5b5061048461047f366004613758565b612041565b6040516102619190613cce565b34801561049d57600080fd5b506104b16104ac366004613758565b61221c565b6040516102619190613ce1565b3480156104ca57600080fd5b506104b16104d9366004613a87565b6124d8565b3480156104ea57600080fd5b5061020d6104f9366004613bbc565b61252c565b34801561050a57600080fd5b5061020d610519366004613d72565b61260e565b34801561052a57600080fd5b5061053361283b565b6040516102619190613e04565b34801561054c57600080fd5b5061030e612968565b34801561056157600080fd5b50610575610570366004613b9a565b6129be565b6040516102619190613e5b565b34801561058e57600080fd5b5061020d61059d366004613a87565b612a33565b3480156105ae57600080fd5b5061030e612a93565b3480156105c357600080fd5b506102bf6105d2366004613a87565b612ae9565b3480156105e357600080fd5b5061020d6105f2366004613b9a565b612cb8565b34801561060357600080fd5b50610632610612366004613758565b336000908152600d60209081526040808320938352929052205460ff1690565b6040519015158152602001610261565b34801561064e57600080fd5b5061020d61065d366004613a87565b612dc3565b34801561066e57600080fd5b5061020d61067d366004613e9c565b612e10565b34801561068e57600080fd5b506106a261069d366004613f09565b612f5e565b604051610261929190613f52565b3480156106bc57600080fd5b506102576106cb366004613758565b613056565b3480156106dc57600080fd5b5061020d6106eb366004613758565b613077565b3480156106fc57600080fd5b5061020d61070b366004613f6d565b6131a8565b8061071a81612041565b60c001516001600160a01b031633036107465760405163e900992360e01b815260040160405180910390fd5b8161076b81336000908152600d60209081526040808320938352929052205460ff1690565b1561078957604051636d830dbf60e11b815260040160405180910390fd5b6007838154811061079c5761079c613fb3565b6000918252602082206004600790920201018054916107ba83613fdf565b9091555050336000908152600d602090815260408083208684528252808320805460ff19166001179055600b9091528120546001600160a01b0316906107ff82611f92565b9050600061080c33611f92565b90507fa036d403d7739d8360e6171b2fbf68a0dfef33d6c6f432a236f6c3cdbb3cfee686838360405161084193929190613ff8565b60405180910390a1505050505050565b8061085b81612041565b60c001516001600160a01b0316336001600160a01b0316146108905760405163b5f6908d60e01b815260040160405180910390fd5b600054674563918244f40000906108b19034906001600160a01b0316613229565b10156108d0576040516340956f2160e01b815260040160405180910390fd5b6000600783815481106108e5576108e5613fb3565b906000526020600020906007020160060160009054906101000a90046001600160a01b031690506040518060e0016040528084815260200160405180602001604052806000815250815260200160405180602001604052806000815250815260200160008152602001600081526020016000815260200160006001600160a01b03168152506007848154811061097d5761097d613fb3565b90600052602060002090600702016000820151816000015560208201518160010190816109aa91906140af565b50604082015160028201906109bf90826140af565b50606082015160038201556080820151600482015560a0820151600582015560c090910151600690910180546001600160a01b03199081166001600160a01b03938416179091556000858152600b6020908152604080832080549094169093557f13da86008ba1c6922daee3e07db95305ef49ebced9f5467a0b8613fcc6b343e3879055600f8152828220549385168252600e9052908120805483908110610a6957610a69613fb3565b6000918252602080832060079290920290910160060180546001600160a01b0319166001600160a01b039485161790556040805180830182528381529386168352600e9091529020805483908110610ac357610ac3613fb3565b90600052602060002090600702016001019081610ae091906140af565b5050505050565b6000610afb6017546001600160a01b031690565b6001600160a01b0316336001600160a01b031614610b2c57604051633c6a5daf60e21b815260040160405180910390fd5b504790565b806000610b3d82611f61565b6001600160a01b031614610b6457604051630fa2819960e31b815260040160405180910390fd5b6004805460009182610b7583613fdf565b919050559050610b836136b9565b818152336020808301828152606084018890526040808501888152600094855260039093529092208351815591516001830180546001600160a01b0319166001600160a01b03909216919091179055518291906002820190610be590826140af565b5060608201516003820190610bfa90826140af565b5060808201516004820190610c0f90826140af565b5060a08201516005820190610c2490826140af565b5050336000818152600560205260409081902085905551909150600c90610c4c90879061416f565b908152604080516020928190038301902080546001600160a01b03199081166001600160a01b03958616179091556002805460018101825560009190915285517f405787fa12a823e0f2b7631cc41b3ba8828b3321ca811111fa75cd3aa3bb5ace6006909202918201908155938601517f405787fa12a823e0f2b7631cc41b3ba8828b3321ca811111fa75cd3aa3bb5acf82018054909316951694909417905583015183927f405787fa12a823e0f2b7631cc41b3ba8828b3321ca811111fa75cd3aa3bb5ad00190610d1e90826140af565b5060608201516003820190610d3390826140af565b5060808201516004820190610d4890826140af565b5060a08201516005820190610d5d90826140af565b50505083604051610d6e919061416f565b60405190819003812090339084907f8d76d60617424d83544323e2322cb8d86537451c9b3d991886ce6f4721e3865e90600090a45050505050565b336001600160a01b037f00000000000000000000000000000000000000000000000000000000000000001614610e285760405163073e64fd60e21b81523360048201526001600160a01b037f00000000000000000000000000000000000000000000000000000000000000001660248201526044015b60405180910390fd5b610e32828261325f565b5050565b60195460609060005b81811015610f08576011610e6f60198381548110610e5f57610e5f613fb3565b9060005260206000200154612041565b81546001818101845560009384526020938490208351600790930201918255928201519192909190820190610ea490826140af565b5060408201516002820190610eb990826140af565b50606082015160038201556080820151600482015560a0820151600582015560c090910151600690910180546001600160a01b0319166001600160a01b03909216919091179055600101610e3f565b506011805480602002602001604051908101604052809291908181526020016000905b828210156110c257838290600052602060002090600702016040518060e001604052908160008201548152602001600182018054610f689061402d565b80601f0160208091040260200160405190810160405280929190818152602001828054610f949061402d565b8015610fe15780601f10610fb657610100808354040283529160200191610fe1565b820191906000526020600020905b815481529060010190602001808311610fc457829003601f168201915b50505050508152602001600282018054610ffa9061402d565b80601f01602080910402602001604051908101604052809291908181526020018280546110269061402d565b80156110735780601f1061104857610100808354040283529160200191611073565b820191906000526020600020905b81548152906001019060200180831161105657829003601f168201915b5050509183525050600382015460208083019190915260048301546040830152600583015460608301526006909201546001600160a01b03166080909101529082526001929092019101610f2b565b5050505091505090565b6001600160a01b0381166000908152601460209081526040808320805482518185028101850190935280835260609492939192909184015b828210156112075760008481526020908190206040805160c081018252600686029092018054835260018101546001600160a01b0316938301939093526002830154908201526003820180549192916060840191906111629061402d565b80601f016020809104026020016040519081016040528092919081815260200182805461118e9061402d565b80156111db5780601f106111b0576101008083540402835291602001916111db565b820191906000526020600020905b8154815290600101906020018083116111be57829003601f168201915b505050505081526020016004820154815260200160058201548152505081526020019060010190611104565b505050509050919050565b6060601980548060200260200160405190810160405280929190818152602001828054801561126057602002820191906000526020600020905b81548152602001906001019080831161124c575b5050505050905090565b60606007805480602002602001604051908101604052809291908181526020016000905b8282101561142557838290600052602060002090600702016040518060e0016040529081600082015481526020016001820180546112cb9061402d565b80601f01602080910402602001604051908101604052809291908181526020018280546112f79061402d565b80156113445780601f1061131957610100808354040283529160200191611344565b820191906000526020600020905b81548152906001019060200180831161132757829003601f168201915b5050505050815260200160028201805461135d9061402d565b80601f01602080910402602001604051908101604052809291908181526020018280546113899061402d565b80156113d65780601f106113ab576101008083540402835291602001916113d6565b820191906000526020600020905b8154815290600101906020018083116113b957829003601f168201915b5050509183525050600382015460208083019190915260048301546040830152600583015460608301526006909201546001600160a01b0316608090910152908252600192909201910161128e565b50505050905090565b601a5460609060005b818110156114f0576010611457601a8381548110610e5f57610e5f613fb3565b8154600181810184556000938452602093849020835160079093020191825592820151919290919082019061148c90826140af565b50604082015160028201906114a190826140af565b50606082015160038201556080820151600482015560a0820151600582015560c090910151600690910180546001600160a01b0319166001600160a01b03909216919091179055600101611437565b506010805480602002602001604051908101604052809291908181526020016000905b828210156110c257838290600052602060002090600702016040518060e0016040529081600082015481526020016001820180546115509061402d565b80601f016020809104026020016040519081016040528092919081815260200182805461157c9061402d565b80156115c95780601f1061159e576101008083540402835291602001916115c9565b820191906000526020600020905b8154815290600101906020018083116115ac57829003601f168201915b505050505081526020016002820180546115e29061402d565b80601f016020809104026020016040519081016040528092919081815260200182805461160e9061402d565b801561165b5780601f106116305761010080835404028352916020019161165b565b820191906000526020600020905b81548152906001019060200180831161163e57829003601f168201915b5050509183525050600382015460208083019190915260048301546040830152600583015460608301526006909201546001600160a01b03166080909101529082526001929092019101611513565b81816116b68282611c1e565b602001516001600160a01b0316336001600160a01b0316146116eb576040516314fd685b60e21b815260040160405180910390fd5b600054674563918244f400009061170c9034906001600160a01b0316613229565b101561172b576040516340956f2160e01b815260040160405180910390fd5b6040805160208082018352600080835287815260129091529190912080548590811061175957611759613fb3565b9060005260206000209060060201600301908161177691906140af565b50600084815260126020526040812080548590811061179757611797613fb3565b906000526020600020906006020160010160006101000a8154816001600160a01b0302191690836001600160a01b0316021790555050505050565b3360006117de826124d8565b602001516001600160a01b0316036118095760405163243ba64d60e21b815260040160405180910390fd5b6007546040805160e0810182528281526020810186905290810184905242606082015260006080820181905260a082018190523360c0830181905261184d90611f92565b336000908152600e60209081526040822080546001808201835591845292829020865160078502909101908155918601519394509192859282019061189290826140af565b50604082015160028201906118a790826140af565b50606082015160038201556080820151600482015560a0820151600582015560c090910151600690910180546001600160a01b039092166001600160a01b031990921691909117905582516000908152600f6020908152604082208390556007805460018101825592819052855192027fa66cc928b5edb82af9bd49922954155ab7b0942694bea4ce44661d9a8736c6888101928355908501518592917fa66cc928b5edb82af9bd49922954155ab7b0942694bea4ce44661d9a8736c689019061197190826140af565b506040820151600282019061198690826140af565b50606082015160038201556080820151600482015560a0820151600582015560c090910151600690910180546001600160a01b039092166001600160a01b0319928316179055835160088054600181019091557ff3f7a9fe364faab93b216da50a3214154f22a0a2b415b23a84c8169e8b636ee30155336000818152600a60209081526040808320899055888352600b909152908190208054909316909117909155517f3d4335cbfac350aa27a3fa09060b4691656ecbe3033f4d953849c2f755f230d190611a58908690859061418b565b60405180910390a150505050505050565b336000611a75826124d8565b602001516001600160a01b031603611aa05760405163243ba64d60e21b815260040160405180910390fd5b826000611aac82612041565b60c001516001600160a01b031603611ad757604051630fda044d60e11b815260040160405180910390fd5b600084815260126020908152604080832054815160c08101835281815233938101939093529082018790526060820186905242608083015260a0820183905291611b208761221c565b6040015190506000611b3133611f92565b600089815260136020908152604080832088845282528083208054336001600160a01b0319918216179091558c8452601283528184208054600181810183559186529484902089516006909602019485559288015192840180549091166001600160a01b03909316929092179091558501516002820155606085015191925084916003820190611bc190826140af565b506080820151816004015560a082015181600501555050837f915184b2a0bfb3b827755b4e9e718f684996cef7b75bad20f26cd2fd67396c7783838b604051611c0c939291906141a4565b60405180910390a25050505050505050565b611c606040518060c001604052806000815260200160006001600160a01b03168152602001600081526020016060815260200160008152602001600081525090565b6000838152601260205260409020805483908110611c8057611c80613fb3565b90600052602060002090600602016040518060c0016040529081600082015481526020016001820160009054906101000a90046001600160a01b03166001600160a01b03166001600160a01b0316815260200160028201548152602001600382018054611cec9061402d565b80601f0160208091040260200160405190810160405280929190818152602001828054611d189061402d565b8015611d655780601f10611d3a57610100808354040283529160200191611d65565b820191906000526020600020905b815481529060010190602001808311611d4857829003601f168201915b505050505081526020016004820154815260200160058201548152505090505b92915050565b6000611daf604051806040016040528060018152602001600160fd1b815250612f5e565b50905080611ddd5760195460405163ae97b49160e01b81524760048201526024810191909152604401610e1f565b60195460141015611dfc57601954611df790600a906141f0565b611dff565b60015b601b805463ffffffff191663ffffffff92831690811790915560405163d33d44c160e01b81527f000000000000000000000000000000000000000000000000000000000000000060048201527f00000000000000000000000000000000000000000000000000000000000000006024820152600360448201527f0000000000000000000000000000000000000000000000000000000000000000909216606483015260848201526000907f00000000000000000000000000000000000000000000000000000000000000006001600160a01b03169063d33d44c19060a4016020604051808303816000875af1158015611efc573d6000803e3d6000fd5b505050506040513d601f19601f82011682018060405250810190611f209190614204565b90507f0aa5a4e8e459a1f6485b98194bbe2e07647a58e7dd6d2a9923441b4d569c307781604051611f5391815260200190565b60405180910390a150505050565b6000600c82604051611f73919061416f565b908152604051908190036020019020546001600160a01b031692915050565b6001600160a01b0381166000908152600360205260409020600201805460609190611fbc9061402d565b80601f0160208091040260200160405190810160405280929190818152602001828054611fe89061402d565b80156120355780601f1061200a57610100808354040283529160200191612035565b820191906000526020600020905b81548152906001019060200180831161201857829003601f168201915b50505050509050919050565b61208a6040518060e0016040528060008152602001606081526020016060815260200160008152602001600081526020016000815260200160006001600160a01b031681525090565b6007828154811061209d5761209d613fb3565b90600052602060002090600702016040518060e0016040529081600082015481526020016001820180546120d09061402d565b80601f01602080910402602001604051908101604052809291908181526020018280546120fc9061402d565b80156121495780601f1061211e57610100808354040283529160200191612149565b820191906000526020600020905b81548152906001019060200180831161212c57829003601f168201915b505050505081526020016002820180546121629061402d565b80601f016020809104026020016040519081016040528092919081815260200182805461218e9061402d565b80156121db5780601f106121b0576101008083540402835291602001916121db565b820191906000526020600020905b8154815290600101906020018083116121be57829003601f168201915b50505091835250506003820154602082015260048201546040820152600582015460608201526006909101546001600160a01b031660809091015292915050565b6122246136b9565b6002828154811061223757612237613fb3565b90600052602060002090600602016040518060c0016040529081600082015481526020016001820160009054906101000a90046001600160a01b03166001600160a01b03166001600160a01b031681526020016002820180546122999061402d565b80601f01602080910402602001604051908101604052809291908181526020018280546122c59061402d565b80156123125780601f106122e757610100808354040283529160200191612312565b820191906000526020600020905b8154815290600101906020018083116122f557829003601f168201915b5050505050815260200160038201805461232b9061402d565b80601f01602080910402602001604051908101604052809291908181526020018280546123579061402d565b80156123a45780601f10612379576101008083540402835291602001916123a4565b820191906000526020600020905b81548152906001019060200180831161238757829003601f168201915b505050505081526020016004820180546123bd9061402d565b80601f01602080910402602001604051908101604052809291908181526020018280546123e99061402d565b80156124365780601f1061240b57610100808354040283529160200191612436565b820191906000526020600020905b81548152906001019060200180831161241957829003601f168201915b5050505050815260200160058201805461244f9061402d565b80601f016020809104026020016040519081016040528092919081815260200182805461247b9061402d565b80156124c85780601f1061249d576101008083540402835291602001916124c8565b820191906000526020600020905b8154815290600101906020018083116124ab57829003601f168201915b5050505050815250509050919050565b6124e06136b9565b6001600160a01b03808316600090815260036020908152604091829020825160c0810184528154815260018201549094169184019190915260028101805491928401916122999061402d565b336000612538826124d8565b602001516001600160a01b0316036125635760405163243ba64d60e21b815260040160405180910390fd5b8261256d8161221c565b602001516001600160a01b0316336001600160a01b0316146125a25760405163a736c1d760e01b815260040160405180910390fd5b8260006125ae82611f61565b6001600160a01b0316146125d557604051630fa2819960e31b815260040160405180910390fd5b83600286815481106125e9576125e9613fb3565b9060005260206000209060060201600201908161260691906140af565b505050505050565b33600061261a826124d8565b602001516001600160a01b0316036126455760405163243ba64d60e21b815260040160405180910390fd5b8461264f8161221c565b602001516001600160a01b0316336001600160a01b0316146126845760405163a736c1d760e01b815260040160405180910390fd5b60405160200161269f90602080825260009082015260400190565b60405160208183030381529060405280519060200120856040516020016126c69190613cbb565b60405160208183030381529060405280519060200120146127145784600287815481106126f5576126f5613fb3565b9060005260206000209060060201600401908161271291906140af565b505b60405160200161272f90602080825260009082015260400190565b60405160208183030381529060405280519060200120846040516020016127569190613cbb565b60405160208183030381529060405280519060200120146127a457836002878154811061278557612785613fb3565b906000526020600020906006020160050190816127a291906140af565b505b6040516020016127bf90602080825260009082015260400190565b60405160208183030381529060405280519060200120846040516020016127e69190613cbb565b604051602081830303815290604052805190602001201461260657826002878154811061281557612815613fb3565b9060005260206000209060060201600301908161283291906140af565b50505050505050565b601a5460609060005b81811015612899576006612870612867601a8481548110610e5f57610e5f613fb3565b60c00151611f92565b8154600181018355600092835260209092209091019061289090826140af565b50600101612844565b506006805480602002602001604051908101604052809291908181526020016000905b828210156110c25783829060005260206000200180546128db9061402d565b80601f01602080910402602001604051908101604052809291908181526020018280546129079061402d565b80156129545780601f1061292957610100808354040283529160200191612954565b820191906000526020600020905b81548152906001019060200180831161293757829003601f168201915b5050505050815260200190600101906128bc565b6060601a805480602002602001604051908101604052809291908181526020018280548015611260576020028201919060005260206000209081548152602001906001019080831161124c575050505050905090565b6000828152601660209081526040808320848452825291829020805483518184028101840190945280845260609392830182828015612a2657602002820191906000526020600020905b81546001600160a01b03168152600190910190602001808311612a08575b5050505050905092915050565b6017546001600160a01b03163314612a5e57604051633c6a5daf60e21b815260040160405180910390fd5b6040516001600160a01b038216904780156108fc02916000818181858888f19350505050158015610e32573d6000803e3d6000fd5b60606008805480602002602001604051908101604052809291908181526020018280548015611260576020028201919060005260206000209081548152602001906001019080831161124c575050505050905090565b6001600160a01b0381166000908152600e60209081526040808320805482518185028101850190935280835260609492939192909184015b8282101561120757838290600052602060002090600702016040518060e001604052908160008201548152602001600182018054612b5e9061402d565b80601f0160208091040260200160405190810160405280929190818152602001828054612b8a9061402d565b8015612bd75780601f10612bac57610100808354040283529160200191612bd7565b820191906000526020600020905b815481529060010190602001808311612bba57829003601f168201915b50505050508152602001600282018054612bf09061402d565b80601f0160208091040260200160405190810160405280929190818152602001828054612c1c9061402d565b8015612c695780601f10612c3e57610100808354040283529160200191612c69565b820191906000526020600020905b815481529060010190602001808311612c4c57829003601f168201915b5050509183525050600382015460208083019190915260048301546040830152600583015460608301526006909201546001600160a01b03166080909101529082526001929092019101612b21565b336000612cc4826124d8565b602001516001600160a01b031603612cef5760405163243ba64d60e21b815260040160405180910390fd5b6000838152601560209081526040808320858452825280832033845290915281205460ff1615159003612dbe57600083815260156020908152604080832085845282528083203384528252808320805460ff1916600117905585835260129091529020805483908110612d6457612d64613fb3565b600091825260208220600560069092020101805491612d8283613fdf565b9091555050600083815260166020908152604080832085845282528220805460018101825590835291200180546001600160a01b031916331790555b505050565b6017546001600160a01b03163314612dee57604051633c6a5daf60e21b815260040160405180910390fd5b601780546001600160a01b0319166001600160a01b0392909216919091179055565b82612e1a81612041565b60c001516001600160a01b0316336001600160a01b031614612e4f5760405163b5f6908d60e01b815260040160405180910390fd5b8260078581548110612e6357612e63613fb3565b90600052602060002090600702016001019081612e8091906140af565b50604051602001612e9c90602080825260009082015260400190565b6040516020818303038152906040528051906020012082604051602001612ec39190613cbb565b6040516020818303038152906040528051906020012014612f11578160078581548110612ef257612ef2613fb3565b90600052602060002090600702016002019081612f0f91906140af565b505b6000612f1c33611f92565b90507f7009e6824c3ecb1321da2ebabc18901b48d900a97f978c5a93dd3ba8cfe590358582604051612f4f92919061418b565b60405180910390a15050505050565b604080516000808252602082019283905290519091606091612f82916019916136f8565b50612fdc6008805480602002602001604051908101604052809291908181526020018280548015612fd257602002820191906000526020600020905b815481526020019060010190808311612fbe575b505050505061356a565b60007f00000000000000000000000000000000000000000000000000000000000000006001544261300d919061421d565b6019549111801592504715159115159083906130265750815b801561302f5750805b60408051808201909152600381526203078360ec1b60208201529097909650945050505050565b6000805481906130709084906001600160a01b0316613229565b9392505050565b8061308181612041565b60c001516001600160a01b031633036130ad5760405163e900992360e01b815260040160405180910390fd5b816130d281336000908152600d60209081526040808320938352929052205460ff1690565b156130f057604051636d830dbf60e11b815260040160405180910390fd5b6007838154811061310357613103613fb3565b60009182526020822060056007909202010180549161312183613fdf565b9091555050336000908152600d602090815260408083208684528252808320805460ff19166001179055600b9091528120546001600160a01b03169061316682611f92565b9050600061317333611f92565b90507fd7ad3e52dbe8b445d900fd8aa659c95d5b75bb6733c12e7f22d048963bd39ed586838360405161084193929190613ff8565b82826131b48282611c1e565b602001516001600160a01b0316336001600160a01b0316146131e9576040516314fd685b60e21b815260040160405180910390fd5b600085815260126020526040902080548491908690811061320c5761320c613fb3565b9060005260206000209060060201600301908161260691906140af565b600080613235836135da565b90506000670de0b6b3a764000061324c8387614230565b6132569190614247565b95945050505050565b604080516000815260208101918290525161327c91601a916136f8565b5080516001036133f3576000601980549050826000815181106132a1576132a1613fb3565b60200260200101516132b391906141f0565b90506000601982815481106132ca576132ca613fb3565b6000918252602082200154601a80546001810182559083527f057c384a7d1c54f3a1b2e5e67b2617b8224fdfd1ea7234eea573a6ff665ff63e01819055915061331282612041565b60c00151604080516000815260208101918290525191925061333791600891906136f8565b50426001556040516001600160a01b03821681527fb112587e57bfa970257f3d54fc52859c6300f6bd7a982462c320fed45c2530ed9060200160405180910390a16000816001600160a01b0316662386f26fc1000060405160006040518083038185875af1925050503d80600081146133cc576040519150601f19603f3d011682016040523d82523d6000602084013e6133d1565b606091505b505090508061260657604051630e352ebb60e41b815260040160405180910390fd5b805160005b8181101561356457600060198054905084838151811061341a5761341a613fb3565b602002602001015161342c91906141f0565b905060006019828154811061344357613443613fb3565b6000918252602082200154601a80546001810182559083527f057c384a7d1c54f3a1b2e5e67b2617b8224fdfd1ea7234eea573a6ff665ff63e01819055915061348b82612041565b60c001516040516001600160a01b03821681529091507fb112587e57bfa970257f3d54fc52859c6300f6bd7a982462c320fed45c2530ed9060200160405180910390a16000816001600160a01b0316662386f26fc1000060405160006040518083038185875af1925050503d8060008114613522576040519150601f19603f3d011682016040523d82523d6000602084013e613527565b606091505b505090508061355457604051635e680b6b60e01b81526001600160a01b0383166004820152602401610e1f565b5050600190920191506133f89050565b50505050565b805160005b81811015612dbe5761359983828151811061358c5761358c613fb3565b6020026020010151613656565b156135d25760198382815181106135b2576135b2613fb3565b602090810291909101810151825460018101845560009384529190922001555b60010161356f565b600080826001600160a01b031663feaf968c6040518163ffffffff1660e01b815260040160a060405180830381865afa15801561361b573d6000803e3d6000fd5b505050506040513d601f19601f8201168201806040525081019061363f919061427a565b505050915050806402540be40061307091906142ca565b60008061366283612041565b608001519050600061367384612041565b60a001519050600080613686838561421d565b1161369257600061369c565b61369c828461421d565b905060058110156136ae576000613256565b600195945050505050565b6040518060c001604052806000815260200160006001600160a01b03168152602001606081526020016060815260200160608152602001606081525090565b828054828255906000526020600020908101928215613733579160200282015b82811115613733578251825591602001919060010190613718565b5061373f929150613743565b5090565b5b8082111561373f5760008155600101613744565b60006020828403121561376a57600080fd5b5035919050565b634e487b7160e01b600052604160045260246000fd5b604051601f8201601f1916810167ffffffffffffffff811182821017156137b0576137b0613771565b604052919050565b600067ffffffffffffffff8311156137d2576137d2613771565b6137e5601f8401601f1916602001613787565b90508281528383830111156137f957600080fd5b828260208301376000602084830101529392505050565b600082601f83011261382157600080fd5b613070838335602085016137b8565b6000806040838503121561384357600080fd5b823567ffffffffffffffff8082111561385b57600080fd5b61386786838701613810565b9350602085013591508082111561387d57600080fd5b5061388a85828601613810565b9150509250929050565b600080604083850312156138a757600080fd5b8235915060208084013567ffffffffffffffff808211156138c757600080fd5b818601915086601f8301126138db57600080fd5b8135818111156138ed576138ed613771565b8060051b91506138fe848301613787565b818152918301840191848101908984111561391857600080fd5b938501935b838510156139365784358252938501939085019061391d565b8096505050505050509250929050565b60005b83811015613961578181015183820152602001613949565b50506000910152565b60008151808452613982816020860160208601613946565b601f01601f19169290920160200192915050565b805182526000602082015160e060208501526139b560e085018261396a565b9050604083015184820360408601526139ce828261396a565b606085810151908701526080808601519087015260a0808601519087015260c0948501516001600160a01b03169490950193909352509192915050565b600060208083016020845280855180835260408601915060408160051b87010192506020870160005b82811015613a6257603f19888603018452613a50858351613996565b94509285019290850190600101613a34565b5092979650505050505050565b6001600160a01b0381168114613a8457600080fd5b50565b600060208284031215613a9957600080fd5b813561307081613a6f565b8051825260018060a01b036020820151166020830152604081015160408301526000606082015160c06060850152613adf60c085018261396a565b90506080830151608085015260a083015160a08501528091505092915050565b600060208083016020845280855180835260408601915060408160051b87010192506020870160005b82811015613a6257603f19888603018452613b44858351613aa4565b94509285019290850190600101613b28565b6020808252825182820181905260009190848201906040850190845b81811015613b8e57835183529284019291840191600101613b72565b50909695505050505050565b60008060408385031215613bad57600080fd5b50508035926020909101359150565b60008060408385031215613bcf57600080fd5b82359150602083013567ffffffffffffffff811115613bed57600080fd5b61388a85828601613810565b6020815260006130706020830184613aa4565b60008060208385031215613c1f57600080fd5b823567ffffffffffffffff80821115613c3757600080fd5b818501915085601f830112613c4b57600080fd5b813581811115613c5a57600080fd5b866020828501011115613c6c57600080fd5b60209290920196919550909350505050565b600060208284031215613c9057600080fd5b813567ffffffffffffffff811115613ca757600080fd5b613cb384828501613810565b949350505050565b602081526000613070602083018461396a565b6020815260006130706020830184613996565b602081528151602082015260018060a01b0360208301511660408201526000604083015160c06060840152613d1960e084018261396a565b90506060840151601f1980858403016080860152613d37838361396a565b925060808601519150808584030160a0860152613d54838361396a565b925060a08601519150808584030160c086015250613256828261396a565b60008060008060808587031215613d8857600080fd5b84359350602085013567ffffffffffffffff80821115613da757600080fd5b613db388838901613810565b94506040870135915080821115613dc957600080fd5b613dd588838901613810565b93506060870135915080821115613deb57600080fd5b50613df887828801613810565b91505092959194509250565b600060208083016020845280855180835260408601915060408160051b87010192506020870160005b82811015613a6257603f19888603018452613e4985835161396a565b94509285019290850190600101613e2d565b6020808252825182820181905260009190848201906040850190845b81811015613b8e5783516001600160a01b031683529284019291840191600101613e77565b600080600060608486031215613eb157600080fd5b83359250602084013567ffffffffffffffff80821115613ed057600080fd5b613edc87838801613810565b93506040860135915080821115613ef257600080fd5b50613eff86828701613810565b9150509250925092565b600060208284031215613f1b57600080fd5b813567ffffffffffffffff811115613f3257600080fd5b8201601f81018413613f4357600080fd5b613cb3848235602084016137b8565b8215158152604060208201526000613cb3604083018461396a565b600080600060608486031215613f8257600080fd5b8335925060208401359150604084013567ffffffffffffffff811115613fa757600080fd5b613eff86828701613810565b634e487b7160e01b600052603260045260246000fd5b634e487b7160e01b600052601160045260246000fd5b600060018201613ff157613ff1613fc9565b5060010190565b838152606060208201526000614011606083018561396a565b8281036040840152614023818561396a565b9695505050505050565b600181811c9082168061404157607f821691505b60208210810361406157634e487b7160e01b600052602260045260246000fd5b50919050565b601f821115612dbe576000816000526020600020601f850160051c810160208610156140905750805b601f850160051c820191505b818110156126065782815560010161409c565b815167ffffffffffffffff8111156140c9576140c9613771565b6140dd816140d7845461402d565b84614067565b602080601f83116001811461411257600084156140fa5750858301515b600019600386901b1c1916600185901b178555612606565b600085815260208120601f198616915b8281101561414157888601518255948401946001909101908401614122565b508582101561415f5787850151600019600388901b60f8161c191681555b5050505050600190811b01905550565b60008251614181818460208701613946565b9190910192915050565b828152604060208201526000613cb3604083018461396a565b6060815260006141b7606083018661396a565b82810360208401526141c9818661396a565b915050826040830152949350505050565b634e487b7160e01b600052601260045260246000fd5b6000826141ff576141ff6141da565b500690565b60006020828403121561421657600080fd5b5051919050565b81810381811115611d8557611d85613fc9565b8082028115828204841417611d8557611d85613fc9565b600082614256576142566141da565b500490565b805169ffffffffffffffffffff8116811461427557600080fd5b919050565b600080600080600060a0868803121561429257600080fd5b61429b8661425b565b94506020860151935060408601519250606086015191506142be6080870161425b565b90509295509295909350565b80820260008212600160ff1b841416156142e6576142e6613fc9565b8181058314821517611d8557611d85613fc956fea26469706673582212205137b77325b4dc06d14f2aca534877f0a547d86aefd1ebfcfff476ea3294340c64736f6c63430008180033","linkReferences":{}},"methodIdentifiers":{"CheckUpkeep(bytes)":"c9fbacf3","changeOwner(address)":"a6f9dae1","changeUsername(uint256,string)":"72d4e382","createComment(uint256,string)":"40a17985","createPost(string,string)":"392338f5","deleteComment(uint256,uint256)":"31a4bcb5","deletePost(uint256)":"094cd5ee","downvote(uint256)":"f31fdad4","editComment(uint256,uint256,string)":"fa561152","editPost(uint256,string,string)":"bf0ac63c","editUserProfile(uint256,string,string,string)":"7461d858","getAddressFromUsername(string)":"4e82c134","getAllPosts()":"30561100","getBalance()":"12065fe0","getCommentByPostIdAndCommentId(uint256,uint256)":"4296db5b","getCommentLikersByPostIdAndCommentId(uint256,uint256)":"8dc4a066","getContractOwner()":"442890d5","getIdsOfEligiblePosts()":"2d492c83","getIdsOfRecentPosts()":"984d1015","getIdsOfRecentWinningPosts()":"8c262013","getPostById(uint256)":"64e95895","getRecentTrendingPosts()":"2a04c645","getRecentWinningPosts()":"30ad4ba9","getUsdValueOfEthAmount(uint256)":"e96c520b","getUser(address)":"6f77926b","getUserById(uint256)":"6ed6da9e","getUserComments(address)":"2b3c6e22","getUserNameFromAddress(address)":"6372af84","getUserPosts(address)":"9a2194a9","getUserVoteStatus(uint256)":"a4dd41d0","getUsernameOfRecentWinners()":"7a0726bd","likeComment(uint256,uint256)":"a0e91821","performUpkeep(bytes)":"4585e33b","rawFulfillRandomWords(uint256,uint256[])":"1fe543e3","registerUser(string,string)":"1d2e4afd","transferContractBalance(address)":"96f11ac8","upvote(uint256)":"01ddf070"},"id":3}