{"abi":[{"type":"constructor","inputs":[{"name":"priceFeed","type":"address","internalType":"address"},{"name":"interval","type":"uint256","internalType":"uint256"},{"name":"vrfCoordinator","type":"address","internalType":"address"},{"name":"gasLane","type":"bytes32","internalType":"bytes32"},{"name":"subscriptionId","type":"uint64","internalType":"uint64"},{"name":"callbackGasLimit","type":"uint32","internalType":"uint32"},{"name":"link","type":"address","internalType":"address"},{"name":"deployerKey","type":"uint256","internalType":"uint256"}],"stateMutability":"nonpayable"},{"type":"fallback","stateMutability":"payable"},{"type":"receive","stateMutability":"payable"},{"type":"function","name":"CheckUpkeep","inputs":[{"name":"","type":"bytes","internalType":"bytes"}],"outputs":[{"name":"upkeepNeeded","type":"bool","internalType":"bool"},{"name":"","type":"bytes","internalType":"bytes"}],"stateMutability":"nonpayable"},{"type":"function","name":"changeOwner","inputs":[{"name":"_newOwner","type":"address","internalType":"address"}],"outputs":[],"stateMutability":"nonpayable"},{"type":"function","name":"changeUsername","inputs":[{"name":"_userId","type":"uint256","internalType":"uint256"},{"name":"_newNickName","type":"string","internalType":"string"}],"outputs":[],"stateMutability":"nonpayable"},{"type":"function","name":"createComment","inputs":[{"name":"_postId","type":"uint256","internalType":"uint256"},{"name":"_content","type":"string","internalType":"string"}],"outputs":[],"stateMutability":"nonpayable"},{"type":"function","name":"createPost","inputs":[{"name":"_content","type":"string","internalType":"string"},{"name":"_imgHash","type":"string","internalType":"string"}],"outputs":[],"stateMutability":"nonpayable"},{"type":"function","name":"deleteComment","inputs":[{"name":"_postId","type":"uint256","internalType":"uint256"},{"name":"_commentId","type":"uint256","internalType":"uint256"}],"outputs":[],"stateMutability":"payable"},{"type":"function","name":"deletePost","inputs":[{"name":"_postId","type":"uint256","internalType":"uint256"}],"outputs":[],"stateMutability":"payable"},{"type":"function","name":"downvote","inputs":[{"name":"_postId","type":"uint256","internalType":"uint256"}],"outputs":[],"stateMutability":"nonpayable"},{"type":"function","name":"editComment","inputs":[{"name":"_postId","type":"uint256","internalType":"uint256"},{"name":"_commentId","type":"uint256","internalType":"uint256"},{"name":"_content","type":"string","internalType":"string"}],"outputs":[],"stateMutability":"nonpayable"},{"type":"function","name":"editPost","inputs":[{"name":"_postId","type":"uint256","internalType":"uint256"},{"name":"_content","type":"string","internalType":"string"},{"name":"_imgHash","type":"string","internalType":"string"}],"outputs":[],"stateMutability":"nonpayable"},{"type":"function","name":"editUserProfile","inputs":[{"name":"_userId","type":"uint256","internalType":"uint256"},{"name":"_bio","type":"string","internalType":"string"},{"name":"_profileImageHash","type":"string","internalType":"string"},{"name":"_newName","type":"string","internalType":"string"}],"outputs":[],"stateMutability":"nonpayable"},{"type":"function","name":"getAllPosts","inputs":[],"outputs":[{"name":"","type":"tuple[]","internalType":"struct SocialMedia.Post[]","components":[{"name":"postId","type":"uint256","internalType":"uint256"},{"name":"content","type":"string","internalType":"string"},{"name":"imgHash","type":"string","internalType":"string"},{"name":"timestamp","type":"uint256","internalType":"uint256"},{"name":"upvotes","type":"uint256","internalType":"uint256"},{"name":"downvotes","type":"uint256","internalType":"uint256"},{"name":"author","type":"address","internalType":"address"}]}],"stateMutability":"view"},{"type":"function","name":"getBalance","inputs":[],"outputs":[{"name":"","type":"uint256","internalType":"uint256"}],"stateMutability":"view"},{"type":"function","name":"getCommentByPostIdAndCommentId","inputs":[{"name":"_postId","type":"uint256","internalType":"uint256"},{"name":"_commentId","type":"uint256","internalType":"uint256"}],"outputs":[{"name":"","type":"tuple","internalType":"struct SocialMedia.Comment","components":[{"name":"commentId","type":"uint256","internalType":"uint256"},{"name":"author","type":"address","internalType":"address"},{"name":"postId","type":"uint256","internalType":"uint256"},{"name":"content","type":"string","internalType":"string"},{"name":"timestamp","type":"uint256","internalType":"uint256"},{"name":"likesCount","type":"uint256","internalType":"uint256"}]}],"stateMutability":"view"},{"type":"function","name":"getCommentLikersByPostIdAndCommentId","inputs":[{"name":"_postId","type":"uint256","internalType":"uint256"},{"name":"_commentId","type":"uint256","internalType":"uint256"}],"outputs":[{"name":"","type":"address[]","internalType":"address[]"}],"stateMutability":"view"},{"type":"function","name":"getContractOwner","inputs":[],"outputs":[{"name":"","type":"address","internalType":"address"}],"stateMutability":"view"},{"type":"function","name":"getIdsOfEligiblePosts","inputs":[],"outputs":[{"name":"","type":"uint256[]","internalType":"uint256[]"}],"stateMutability":"view"},{"type":"function","name":"getIdsOfRecentPosts","inputs":[],"outputs":[{"name":"","type":"uint256[]","internalType":"uint256[]"}],"stateMutability":"view"},{"type":"function","name":"getIdsOfRecentWinningPosts","inputs":[],"outputs":[{"name":"","type":"uint256[]","internalType":"uint256[]"}],"stateMutability":"view"},{"type":"function","name":"getPostById","inputs":[{"name":"_postId","type":"uint256","internalType":"uint256"}],"outputs":[{"name":"","type":"tuple","internalType":"struct SocialMedia.Post","components":[{"name":"postId","type":"uint256","internalType":"uint256"},{"name":"content","type":"string","internalType":"string"},{"name":"imgHash","type":"string","internalType":"string"},{"name":"timestamp","type":"uint256","internalType":"uint256"},{"name":"upvotes","type":"uint256","internalType":"uint256"},{"name":"downvotes","type":"uint256","internalType":"uint256"},{"name":"author","type":"address","internalType":"address"}]}],"stateMutability":"view"},{"type":"function","name":"getUsdValueOfEthAmount","inputs":[{"name":"_ethAmount","type":"uint256","internalType":"uint256"}],"outputs":[{"name":"","type":"uint256","internalType":"uint256"}],"stateMutability":"view"},{"type":"function","name":"getUser","inputs":[{"name":"_userAddress","type":"address","internalType":"address"}],"outputs":[{"name":"","type":"tuple","internalType":"struct SocialMedia.User","components":[{"name":"id","type":"uint256","internalType":"uint256"},{"name":"userAddress","type":"address","internalType":"address"},{"name":"nickName","type":"string","internalType":"string"},{"name":"fullNameOfUser","type":"string","internalType":"string"},{"name":"bio","type":"string","internalType":"string"},{"name":"profileImageHash","type":"string","internalType":"string"}]}],"stateMutability":"view"},{"type":"function","name":"getUserById","inputs":[{"name":"_userId","type":"uint256","internalType":"uint256"}],"outputs":[{"name":"","type":"tuple","internalType":"struct SocialMedia.User","components":[{"name":"id","type":"uint256","internalType":"uint256"},{"name":"userAddress","type":"address","internalType":"address"},{"name":"nickName","type":"string","internalType":"string"},{"name":"fullNameOfUser","type":"string","internalType":"string"},{"name":"bio","type":"string","internalType":"string"},{"name":"profileImageHash","type":"string","internalType":"string"}]}],"stateMutability":"view"},{"type":"function","name":"getUserComments","inputs":[{"name":"_userAddress","type":"address","internalType":"address"}],"outputs":[{"name":"","type":"tuple[]","internalType":"struct SocialMedia.Comment[]","components":[{"name":"commentId","type":"uint256","internalType":"uint256"},{"name":"author","type":"address","internalType":"address"},{"name":"postId","type":"uint256","internalType":"uint256"},{"name":"content","type":"string","internalType":"string"},{"name":"timestamp","type":"uint256","internalType":"uint256"},{"name":"likesCount","type":"uint256","internalType":"uint256"}]}],"stateMutability":"view"},{"type":"function","name":"getUserNameFromAddress","inputs":[{"name":"_userAddress","type":"address","internalType":"address"}],"outputs":[{"name":"nickNameOfUser","type":"string","internalType":"string"}],"stateMutability":"view"},{"type":"function","name":"getUserPosts","inputs":[{"name":"_userAddress","type":"address","internalType":"address"}],"outputs":[{"name":"","type":"tuple[]","internalType":"struct SocialMedia.Post[]","components":[{"name":"postId","type":"uint256","internalType":"uint256"},{"name":"content","type":"string","internalType":"string"},{"name":"imgHash","type":"string","internalType":"string"},{"name":"timestamp","type":"uint256","internalType":"uint256"},{"name":"upvotes","type":"uint256","internalType":"uint256"},{"name":"downvotes","type":"uint256","internalType":"uint256"},{"name":"author","type":"address","internalType":"address"}]}],"stateMutability":"view"},{"type":"function","name":"likeComment","inputs":[{"name":"_postId","type":"uint256","internalType":"uint256"},{"name":"_commentId","type":"uint256","internalType":"uint256"}],"outputs":[],"stateMutability":"nonpayable"},{"type":"function","name":"performUpkeep","inputs":[{"name":"","type":"bytes","internalType":"bytes"}],"outputs":[],"stateMutability":"nonpayable"},{"type":"function","name":"rawFulfillRandomWords","inputs":[{"name":"requestId","type":"uint256","internalType":"uint256"},{"name":"randomWords","type":"uint256[]","internalType":"uint256[]"}],"outputs":[],"stateMutability":"nonpayable"},{"type":"function","name":"registerUser","inputs":[{"name":"_fullNameOfUser","type":"string","internalType":"string"},{"name":"_username","type":"string","internalType":"string"}],"outputs":[],"stateMutability":"nonpayable"},{"type":"function","name":"transferContractBalance","inputs":[{"name":"_to","type":"address","internalType":"address payable"}],"outputs":[],"stateMutability":"nonpayable"},{"type":"function","name":"upvote","inputs":[{"name":"_postId","type":"uint256","internalType":"uint256"}],"outputs":[],"stateMutability":"nonpayable"},{"type":"event","name":"CommentCreated","inputs":[{"name":"commentId","type":"uint256","indexed":true,"internalType":"uint256"},{"name":"postAuthor","type":"string","indexed":false,"internalType":"string"},{"name":"commentAuthor","type":"string","indexed":false,"internalType":"string"},{"name":"postId","type":"uint256","indexed":false,"internalType":"uint256"}],"anonymous":false},{"type":"event","name":"Downvoted","inputs":[{"name":"postId","type":"uint256","indexed":false,"internalType":"uint256"},{"name":"posthAuthorName","type":"string","indexed":false,"internalType":"string"},{"name":"downvoterName","type":"string","indexed":false,"internalType":"string"}],"anonymous":false},{"type":"event","name":"PickedWinner","inputs":[{"name":"winner","type":"address","indexed":false,"internalType":"address"}],"anonymous":false},{"type":"event","name":"PostCreated","inputs":[{"name":"postId","type":"uint256","indexed":false,"internalType":"uint256"},{"name":"authorName","type":"string","indexed":false,"internalType":"string"}],"anonymous":false},{"type":"event","name":"PostEdited","inputs":[{"name":"postId","type":"uint256","indexed":false,"internalType":"uint256"},{"name":"authorName","type":"string","indexed":false,"internalType":"string"}],"anonymous":false},{"type":"event","name":"PostLiked","inputs":[{"name":"postId","type":"uint256","indexed":true,"internalType":"uint256"},{"name":"postAuthor","type":"address","indexed":true,"internalType":"address"},{"name":"liker","type":"address","indexed":true,"internalType":"address"}],"anonymous":false},{"type":"event","name":"RequestWinningAuthor","inputs":[{"name":"requestId","type":"uint256","indexed":false,"internalType":"uint256"}],"anonymous":false},{"type":"event","name":"RewardSent","inputs":[{"name":"user","type":"address","indexed":true,"internalType":"address"},{"name":"amount","type":"uint256","indexed":false,"internalType":"uint256"}],"anonymous":false},{"type":"event","name":"Upvoted","inputs":[{"name":"postId","type":"uint256","indexed":false,"internalType":"uint256"},{"name":"posthAuthorName","type":"string","indexed":false,"internalType":"string"},{"name":"upvoterName","type":"string","indexed":false,"internalType":"string"}],"anonymous":false},{"type":"event","name":"UserRegistered","inputs":[{"name":"id","type":"uint256","indexed":true,"internalType":"uint256"},{"name":"userAddress","type":"address","indexed":true,"internalType":"address"},{"name":"username","type":"string","indexed":true,"internalType":"string"}],"anonymous":false},{"type":"error","name":"OnlyCoordinatorCanFulfill","inputs":[{"name":"have","type":"address","internalType":"address"},{"name":"want","type":"address","internalType":"address"}]},{"type":"error","name":"SocialMedia__AlreadyVoted","inputs":[]},{"type":"error","name":"SocialMedia__BatchTransferFailed","inputs":[{"name":"winner","type":"address","internalType":"address"}]},{"type":"error","name":"SocialMedia__NotCommentOwner","inputs":[]},{"type":"error","name":"SocialMedia__NotOwner","inputs":[]},{"type":"error","name":"SocialMedia__NotPostOwner","inputs":[]},{"type":"error","name":"SocialMedia__NotProfileOwner","inputs":[]},{"type":"error","name":"SocialMedia__OwnerCannotVote","inputs":[]},{"type":"error","name":"SocialMedia__PaymentNotEnough","inputs":[]},{"type":"error","name":"SocialMedia__TransferFailed","inputs":[]},{"type":"error","name":"SocialMedia__UpkeepNotNeeded","inputs":[{"name":"balance","type":"uint256","internalType":"uint256"},{"name":"numOfEligibleAuthors","type":"uint256","internalType":"uint256"}]},{"type":"error","name":"SocialMedia__UserDoesNotExist","inputs":[]},{"type":"error","name":"SocialMedia__UsernameAlreadyTaken","inputs":[]}],"bytecode":{"object":"0x6101406040523480156200001257600080fd5b5060405162003ad938038062003ad98339810160408190526200003591620000bd565b50506001600160a01b039384166080819052601480546001600160a01b03199081163317909155600080549890961697169690961790935560a0939093524260015560c09390935260e0929092526001600160401b03166101005263ffffffff166101205262000163565b80516001600160a01b0381168114620000b857600080fd5b919050565b600080600080600080600080610100898b031215620000db57600080fd5b620000e689620000a0565b975060208901519650620000fd60408a01620000a0565b60608a015160808b015191975095506001600160401b03811681146200012257600080fd5b60a08a015190945063ffffffff811681146200013d57600080fd5b92506200014d60c08a01620000a0565b915060e089015190509295985092959890939650565b60805160a05160c05160e051610100516101205161391f620001ba600039600061169c0152600061166e0152600061163f015260006116cd01526000612652015260008181610b340152610b76015261391f6000f3fe6080604052600436106101cf5760003560e01c80636ed6da9e116100f65780639a2194a91161008f578063c9fbacf311610061578063c9fbacf31461058a578063e96c520b146105b8578063f31fdad4146105d8578063fa561152146105f857005b80639a2194a91461050a578063a0e918211461052a578063a6f9dae11461054a578063bf0ac63c1461056a57005b80638c262013116100c85780638c262013146104935780638dc4a066146104a857806396f11ac8146104d5578063984d1015146104f557005b80636ed6da9e146104065780636f77926b1461043357806372d4e382146104535780637461d8581461047357005b806331a4bcb511610168578063442890d51161013a578063442890d5146103645780634585e33b1461038c5780636372af84146103ac57806364e95895146103d957005b806331a4bcb5146102e4578063392338f5146102f757806340a17985146103175780634296db5b1461033757005b80631fe543e3116101a15780631fe543e3146102535780632b3c6e22146102735780632d492c83146102a057806330561100146102c257005b806301ddf070146101d8578063094cd5ee146101f857806312065fe01461020b5780631d2e4afd1461023357005b366101d657005b005b3480156101e457600080fd5b506101d66101f3366004612dd3565b610618565b6101d6610206366004612dd3565b610757565b34801561021757600080fd5b5061022061085e565b6040519081526020015b60405180910390f35b34801561023f57600080fd5b506101d661024e366004612eab565b610891565b34801561025f57600080fd5b506101d661026e366004612f0f565b610b29565b34801561027f57600080fd5b5061029361028e366004612fd9565b610bb6565b60405161022a91906130a1565b3480156102ac57600080fd5b506102b5610cfc565b60405161022a9190613105565b3480156102ce57600080fd5b506102d7610d54565b60405161022a91906131be565b6101d66102f2366004613215565b610f18565b34801561030357600080fd5b506101d6610312366004612eab565b611044565b34801561032357600080fd5b506101d6610332366004613237565b6112b7565b34801561034357600080fd5b50610357610352366004613215565b611436565b60405161022a9190613274565b34801561037057600080fd5b506014546040516001600160a01b03909116815260200161022a565b34801561039857600080fd5b506101d66103a7366004613287565b6115a3565b3480156103b857600080fd5b506103cc6103c7366004612fd9565b611783565b60405161022a91906132f9565b3480156103e557600080fd5b506103f96103f4366004612dd3565b611832565b60405161022a919061330c565b34801561041257600080fd5b50610426610421366004612dd3565b611a0d565b60405161022a919061331f565b34801561043f57600080fd5b5061042661044e366004612fd9565b611cc9565b34801561045f57600080fd5b506101d661046e366004613237565b611d1d565b34801561047f57600080fd5b506101d661048e3660046133b0565b611e21565b34801561049f57600080fd5b506102b5612050565b3480156104b457600080fd5b506104c86104c3366004613215565b6120a6565b60405161022a9190613442565b3480156104e157600080fd5b506101d66104f0366004612fd9565b61211b565b34801561050157600080fd5b506102b561217b565b34801561051657600080fd5b506102d7610525366004612fd9565b6121d1565b34801561053657600080fd5b506101d6610545366004613215565b6123a0565b34801561055657600080fd5b506101d6610565366004612fd9565b6124ad565b34801561057657600080fd5b506101d6610585366004613483565b6124fa565b34801561059657600080fd5b506105aa6105a53660046134f0565b612642565b60405161022a929190613541565b3480156105c457600080fd5b506102206105d3366004612dd3565b6126c8565b3480156105e457600080fd5b506101d66105f3366004612dd3565b6126e9565b34801561060457600080fd5b506101d661061336600461355c565b612818565b6000818152600b602052604090205481906001600160a01b0316330361065157604051631902ab3960e01b815260040160405180910390fd5b336000908152600d60209081526040808320858452909152902054829060ff161561068f576040516383dcc1c160e01b815260040160405180910390fd5b600683815481106106a2576106a26135a2565b6000918252602082206004600790920201018054916106c0836135ce565b9091555050336000908152600d602090815260408083208684528252808320805460ff19166001179055600b9091528120546001600160a01b03169061070582611783565b9050600061071233611783565b90507fa036d403d7739d8360e6171b2fbf68a0dfef33d6c6f432a236f6c3cdbb3cfee6868383604051610747939291906135e7565b60405180910390a1505050505050565b6000818152600b602052604090205481906001600160a01b0316331461079057604051639ef3fcef60e01b815260040160405180910390fd5b600054674563918244f40000906107b19034906001600160a01b031661289e565b10156107cf576040516217124560e91b815260040160405180910390fd5b60405180602001604052806000815250600683815481106107f2576107f26135a2565b9060005260206000209060070201600101908161080f919061369e565b50600060068381548110610825576108256135a2565b906000526020600020906007020160060160006101000a8154816001600160a01b0302191690836001600160a01b031602179055505050565b6014546000906001600160a01b0316331461088c5760405163aadd925760e01b815260040160405180910390fd5b504790565b8060006001600160a01b0316600c826040516108ad919061375e565b908152604051908190036020019020546001600160a01b0316146108e45760405163cd9c3c2960e01b815260040160405180910390fd5b60048054600091826108f5836135ce565b919050559050610903612d34565b818152336020808301828152606084018890526040808501888152600094855260039093529092208351815591516001830180546001600160a01b0319166001600160a01b03909216919091179055518291906002820190610965908261369e565b506060820151600382019061097a908261369e565b506080820151600482019061098f908261369e565b5060a082015160058201906109a4908261369e565b5050336000818152600560205260409081902085905551909150600c906109cc90879061375e565b908152604080516020928190038301902080546001600160a01b03199081166001600160a01b03958616179091556002805460018101825560009190915285517f405787fa12a823e0f2b7631cc41b3ba8828b3321ca811111fa75cd3aa3bb5ace6006909202918201908155938601517f405787fa12a823e0f2b7631cc41b3ba8828b3321ca811111fa75cd3aa3bb5acf82018054909316951694909417905583015183927f405787fa12a823e0f2b7631cc41b3ba8828b3321ca811111fa75cd3aa3bb5ad00190610a9e908261369e565b5060608201516003820190610ab3908261369e565b5060808201516004820190610ac8908261369e565b5060a08201516005820190610add908261369e565b50505083604051610aee919061375e565b60405190819003812090339084907f8d76d60617424d83544323e2322cb8d86537451c9b3d991886ce6f4721e3865e90600090a45050505050565b336001600160a01b037f00000000000000000000000000000000000000000000000000000000000000001614610ba85760405163073e64fd60e21b81523360048201526001600160a01b037f00000000000000000000000000000000000000000000000000000000000000001660248201526044015b60405180910390fd5b610bb282826128d4565b5050565b6001600160a01b0381166000908152601160209081526040808320805482518185028101850190935280835260609492939192909184015b82821015610cf15760008481526020908190206040805160c081018252600686029092018054835260018101546001600160a01b031693830193909352600283015490820152600382018054919291606084019190610c4c9061361c565b80601f0160208091040260200160405190810160405280929190818152602001828054610c789061361c565b8015610cc55780601f10610c9a57610100808354040283529160200191610cc5565b820191906000526020600020905b815481529060010190602001808311610ca857829003601f168201915b505050505081526020016004820154815260200160058201548152505081526020019060010190610bee565b505050509050919050565b60606016805480602002602001604051908101604052809291908181526020018280548015610d4a57602002820191906000526020600020905b815481526020019060010190808311610d36575b5050505050905090565b60606006805480602002602001604051908101604052809291908181526020016000905b82821015610f0f57838290600052602060002090600702016040518060e001604052908160008201548152602001600182018054610db59061361c565b80601f0160208091040260200160405190810160405280929190818152602001828054610de19061361c565b8015610e2e5780601f10610e0357610100808354040283529160200191610e2e565b820191906000526020600020905b815481529060010190602001808311610e1157829003601f168201915b50505050508152602001600282018054610e479061361c565b80601f0160208091040260200160405190810160405280929190818152602001828054610e739061361c565b8015610ec05780601f10610e9557610100808354040283529160200191610ec0565b820191906000526020600020905b815481529060010190602001808311610ea357829003601f168201915b5050509183525050600382015460208083019190915260048301546040830152600583015460608301526006909201546001600160a01b03166080909101529082526001929092019101610d78565b50505050905090565b6000828152601060209081526040808320848452909152902054829082906001600160a01b03163314610f5e57604051632585a1bd60e01b815260040160405180910390fd5b600054674563918244f4000090610f7f9034906001600160a01b031661289e565b1015610f9d576040516217124560e91b815260040160405180910390fd5b60408051602080820183526000808352878152600f90915291909120805485908110610fcb57610fcb6135a2565b90600052602060002090600602016003019081610fe8919061369e565b506000848152600f60205260408120805485908110611009576110096135a2565b906000526020600020906006020160010160006101000a8154816001600160a01b0302191690836001600160a01b0316021790555050505050565b336000818152600360205260409020600101546001600160a01b031661107d5760405163995cae5960e01b815260040160405180910390fd5b6006546040805160e0810182528281526020810186905290810184905242606082015260006080820181905260a082018190523360c083018190526110c190611783565b336000908152600e60209081526040822080546001818101835591845292829020865160079094020192835590850151929350849290820190611104908261369e565b5060408201516002820190611119908261369e565b50606082015160038201556080820151600482015560a0820151600582015560c090910151600691820180546001600160a01b0319166001600160a01b03909216919091179055805460018101825560009190915282517ff652222313e28459528d920b65115c16c04f3efc82aaedc97be59f3f377c0d3f6007909202918201908155602084015184927ff652222313e28459528d920b65115c16c04f3efc82aaedc97be59f3f377c0d4001906111d0908261369e565b50604082015160028201906111e5908261369e565b50606082015160038201556080820151600482015560a0820151600582015560c090910151600690910180546001600160a01b039092166001600160a01b0319928316179055825160078054600181019091557fa66cc928b5edb82af9bd49922954155ab7b0942694bea4ce44661d9a8736c6880155336000818152600a60209081526040808320889055878352600b909152908190208054909316909117909155517f3d4335cbfac350aa27a3fa09060b4691656ecbe3033f4d953849c2f755f230d190610747908590849061377a565b336000818152600360205260409020600101546001600160a01b03166112f05760405163995cae5960e01b815260040160405180910390fd5b6000838152600f6020908152604080832054815160c08101835281815233938101939093529082018690526060820185905242608083015260a082018390529161133986611a0d565b604001519050600061134a33611783565b600088815260106020908152604080832088845282528083208054336001600160a01b0319918216179091558b8452600f83528184208054600181810183559186529484902089516006909602019485559288015192840180549091166001600160a01b039093169290921790915585015160028201556060850151919250849160038201906113da908261369e565b506080820151816004015560a082015181600501555050837f915184b2a0bfb3b827755b4e9e718f684996cef7b75bad20f26cd2fd67396c7783838a60405161142593929190613793565b60405180910390a250505050505050565b6114786040518060c001604052806000815260200160006001600160a01b03168152602001600081526020016060815260200160008152602001600081525090565b6000838152600f60205260409020805483908110611498576114986135a2565b90600052602060002090600602016040518060c0016040529081600082015481526020016001820160009054906101000a90046001600160a01b03166001600160a01b03166001600160a01b03168152602001600282015481526020016003820180546115049061361c565b80601f01602080910402602001604051908101604052809291908181526020018280546115309061361c565b801561157d5780601f106115525761010080835404028352916020019161157d565b820191906000526020600020905b81548152906001019060200180831161156057829003601f168201915b505050505081526020016004820154815260200160058201548152505090505b92915050565b60006115c7604051806040016040528060018152602001600160fd1b815250612642565b509050806115f55760165460405163280d711960e21b81524760048201526024810191909152604401610b9f565b601654601410156116145760165461160f90600a906137df565b611617565b60015b6018805463ffffffff191663ffffffff9283169081179091556040516305d3b1d360e41b81527f0000000000000000000000000000000000000000000000000000000000000000600482015267ffffffffffffffff7f0000000000000000000000000000000000000000000000000000000000000000166024820152600360448201527f0000000000000000000000000000000000000000000000000000000000000000909216606483015260848201526000907f00000000000000000000000000000000000000000000000000000000000000006001600160a01b031690635d3b1d309060a4016020604051808303816000875af115801561171e573d6000803e3d6000fd5b505050506040513d601f19601f8201168201806040525081019061174291906137f3565b90507f0aa5a4e8e459a1f6485b98194bbe2e07647a58e7dd6d2a9923441b4d569c30778160405161177591815260200190565b60405180910390a150505050565b6001600160a01b03811660009081526003602052604090206002018054606091906117ad9061361c565b80601f01602080910402602001604051908101604052809291908181526020018280546117d99061361c565b80156118265780601f106117fb57610100808354040283529160200191611826565b820191906000526020600020905b81548152906001019060200180831161180957829003601f168201915b50505050509050919050565b61187b6040518060e0016040528060008152602001606081526020016060815260200160008152602001600081526020016000815260200160006001600160a01b031681525090565b6006828154811061188e5761188e6135a2565b90600052602060002090600702016040518060e0016040529081600082015481526020016001820180546118c19061361c565b80601f01602080910402602001604051908101604052809291908181526020018280546118ed9061361c565b801561193a5780601f1061190f5761010080835404028352916020019161193a565b820191906000526020600020905b81548152906001019060200180831161191d57829003601f168201915b505050505081526020016002820180546119539061361c565b80601f016020809104026020016040519081016040528092919081815260200182805461197f9061361c565b80156119cc5780601f106119a1576101008083540402835291602001916119cc565b820191906000526020600020905b8154815290600101906020018083116119af57829003601f168201915b50505091835250506003820154602082015260048201546040820152600582015460608201526006909101546001600160a01b031660809091015292915050565b611a15612d34565b60028281548110611a2857611a286135a2565b90600052602060002090600602016040518060c0016040529081600082015481526020016001820160009054906101000a90046001600160a01b03166001600160a01b03166001600160a01b03168152602001600282018054611a8a9061361c565b80601f0160208091040260200160405190810160405280929190818152602001828054611ab69061361c565b8015611b035780601f10611ad857610100808354040283529160200191611b03565b820191906000526020600020905b815481529060010190602001808311611ae657829003601f168201915b50505050508152602001600382018054611b1c9061361c565b80601f0160208091040260200160405190810160405280929190818152602001828054611b489061361c565b8015611b955780601f10611b6a57610100808354040283529160200191611b95565b820191906000526020600020905b815481529060010190602001808311611b7857829003601f168201915b50505050508152602001600482018054611bae9061361c565b80601f0160208091040260200160405190810160405280929190818152602001828054611bda9061361c565b8015611c275780601f10611bfc57610100808354040283529160200191611c27565b820191906000526020600020905b815481529060010190602001808311611c0a57829003601f168201915b50505050508152602001600582018054611c409061361c565b80601f0160208091040260200160405190810160405280929190818152602001828054611c6c9061361c565b8015611cb95780601f10611c8e57610100808354040283529160200191611cb9565b820191906000526020600020905b815481529060010190602001808311611c9c57829003601f168201915b5050505050815250509050919050565b611cd1612d34565b6001600160a01b03808316600090815260036020908152604091829020825160c081018452815481526001820154909416918401919091526002810180549192840191611a8a9061361c565b336000818152600360205260409020600101546001600160a01b0316611d565760405163995cae5960e01b815260040160405180910390fd5b82611d6081611a0d565b602001516001600160a01b0316336001600160a01b031614611d955760405163255978fd60e21b815260040160405180910390fd5b8260006001600160a01b0316600c82604051611db1919061375e565b908152604051908190036020019020546001600160a01b031614611de85760405163cd9c3c2960e01b815260040160405180910390fd5b8360028681548110611dfc57611dfc6135a2565b90600052602060002090600602016002019081611e19919061369e565b505050505050565b336000818152600360205260409020600101546001600160a01b0316611e5a5760405163995cae5960e01b815260040160405180910390fd5b84611e6481611a0d565b602001516001600160a01b0316336001600160a01b031614611e995760405163255978fd60e21b815260040160405180910390fd5b604051602001611eb490602080825260009082015260400190565b6040516020818303038152906040528051906020012085604051602001611edb91906132f9565b6040516020818303038152906040528051906020012014611f29578460028781548110611f0a57611f0a6135a2565b90600052602060002090600602016004019081611f27919061369e565b505b604051602001611f4490602080825260009082015260400190565b6040516020818303038152906040528051906020012084604051602001611f6b91906132f9565b6040516020818303038152906040528051906020012014611fb9578360028781548110611f9a57611f9a6135a2565b90600052602060002090600602016005019081611fb7919061369e565b505b604051602001611fd490602080825260009082015260400190565b6040516020818303038152906040528051906020012084604051602001611ffb91906132f9565b6040516020818303038152906040528051906020012014611e1957826002878154811061202a5761202a6135a2565b90600052602060002090600602016003019081612047919061369e565b50505050505050565b60606017805480602002602001604051908101604052809291908181526020018280548015610d4a5760200282019190600052602060002090815481526020019060010190808311610d36575050505050905090565b600082815260136020908152604080832084845282529182902080548351818402810184019094528084526060939283018282801561210e57602002820191906000526020600020905b81546001600160a01b031681526001909101906020018083116120f0575b5050505050905092915050565b6014546001600160a01b031633146121465760405163aadd925760e01b815260040160405180910390fd5b6040516001600160a01b038216904780156108fc02916000818181858888f19350505050158015610bb2573d6000803e3d6000fd5b60606007805480602002602001604051908101604052809291908181526020018280548015610d4a5760200282019190600052602060002090815481526020019060010190808311610d36575050505050905090565b6001600160a01b0381166000908152600e60209081526040808320805482518185028101850190935280835260609492939192909184015b82821015610cf157838290600052602060002090600702016040518060e0016040529081600082015481526020016001820180546122469061361c565b80601f01602080910402602001604051908101604052809291908181526020018280546122729061361c565b80156122bf5780601f10612294576101008083540402835291602001916122bf565b820191906000526020600020905b8154815290600101906020018083116122a257829003601f168201915b505050505081526020016002820180546122d89061361c565b80601f01602080910402602001604051908101604052809291908181526020018280546123049061361c565b80156123515780601f1061232657610100808354040283529160200191612351565b820191906000526020600020905b81548152906001019060200180831161233457829003601f168201915b5050509183525050600382015460208083019190915260048301546040830152600583015460608301526006909201546001600160a01b03166080909101529082526001929092019101612209565b336000818152600360205260409020600101546001600160a01b03166123d95760405163995cae5960e01b815260040160405180910390fd5b6000838152601260209081526040808320858452825280832033845290915281205460ff16151590036124a857600083815260126020908152604080832085845282528083203384528252808320805460ff19166001179055858352600f909152902080548390811061244e5761244e6135a2565b60009182526020822060056006909202010180549161246c836135ce565b9091555050600083815260136020908152604080832085845282528220805460018101825590835291200180546001600160a01b031916331790555b505050565b6014546001600160a01b031633146124d85760405163aadd925760e01b815260040160405180910390fd5b601480546001600160a01b0319166001600160a01b0392909216919091179055565b6000838152600b602052604090205483906001600160a01b0316331461253357604051639ef3fcef60e01b815260040160405180910390fd5b8260068581548110612547576125476135a2565b90600052602060002090600702016001019081612564919061369e565b5060405160200161258090602080825260009082015260400190565b60405160208183030381529060405280519060200120826040516020016125a791906132f9565b60405160208183030381529060405280519060200120146125f55781600685815481106125d6576125d66135a2565b906000526020600020906007020160020190816125f3919061369e565b505b600061260033611783565b90507f7009e6824c3ecb1321da2ebabc18901b48d900a97f978c5a93dd3ba8cfe59035858260405161263392919061377a565b60405180910390a15050505050565b6000606061264e612bdf565b60007f00000000000000000000000000000000000000000000000000000000000000006001544261267f919061380c565b6016549111801592504715159115159083906126985750815b80156126a15750805b60408051808201909152600381526203078360ec1b60208201529097909650945050505050565b6000805481906126e29084906001600160a01b031661289e565b9392505050565b6000818152600b602052604090205481906001600160a01b0316330361272257604051631902ab3960e01b815260040160405180910390fd5b336000908152600d60209081526040808320858452909152902054829060ff1615612760576040516383dcc1c160e01b815260040160405180910390fd5b60068381548110612773576127736135a2565b600091825260208220600560079092020101805491612791836135ce565b9091555050336000908152600d602090815260408083208684528252808320805460ff19166001179055600b9091528120546001600160a01b0316906127d682611783565b905060006127e333611783565b90507fd7ad3e52dbe8b445d900fd8aa659c95d5b75bb6733c12e7f22d048963bd39ed5868383604051610747939291906135e7565b6000838152601060209081526040808320858452909152902054839083906001600160a01b0316331461285e57604051632585a1bd60e01b815260040160405180910390fd5b6000858152600f60205260409020805484919086908110612881576128816135a2565b90600052602060002090600602016003019081611e19919061369e565b6000806128aa83612c55565b90506000670de0b6b3a76400006128c1838761381f565b6128cb9190613836565b95945050505050565b60408051600081526020810191829052516128f191601791612d73565b508051600103612a6857600060168054905082600081518110612916576129166135a2565b602002602001015161292891906137df565b905060006016828154811061293f5761293f6135a2565b6000918252602082200154601780546001810182559083527fc624b66cc0138b8fabc209247f72d758e1cf3343756d543badbf24212bed8c1501819055915061298782611832565b60c0015160408051600081526020810191829052519192506129ac9160079190612d73565b50426001556040516001600160a01b03821681527fb112587e57bfa970257f3d54fc52859c6300f6bd7a982462c320fed45c2530ed9060200160405180910390a16000816001600160a01b0316662386f26fc1000060405160006040518083038185875af1925050503d8060008114612a41576040519150601f19603f3d011682016040523d82523d6000602084013e612a46565b606091505b5050905080611e195760405163344efcaf60e21b815260040160405180910390fd5b805160005b81811015612bd9576000601680549050848381518110612a8f57612a8f6135a2565b6020026020010151612aa191906137df565b9050600060168281548110612ab857612ab86135a2565b6000918252602082200154601780546001810182559083527fc624b66cc0138b8fabc209247f72d758e1cf3343756d543badbf24212bed8c15018190559150612b0082611832565b60c001516040516001600160a01b03821681529091507fb112587e57bfa970257f3d54fc52859c6300f6bd7a982462c320fed45c2530ed9060200160405180910390a16000816001600160a01b0316662386f26fc1000060405160006040518083038185875af1925050503d8060008114612b97576040519150601f19603f3d011682016040523d82523d6000602084013e612b9c565b606091505b5050905080612bc957604051634b58e08160e11b81526001600160a01b0383166004820152602401610b9f565b505060019092019150612a6d9050565b50505050565b60075460005b81811015610bb257612c1360078281548110612c0357612c036135a2565b9060005260206000200154612cd1565b15612c4d57601660078281548110612c2d57612c2d6135a2565b600091825260208083209091015483546001810185559383529120909101555b600101612be5565b600080826001600160a01b031663feaf968c6040518163ffffffff1660e01b815260040160a060405180830381865afa158015612c96573d6000803e3d6000fd5b505050506040513d601f19601f82011682018060405250810190612cba9190613869565b505050915050806402540be4006126e291906138b9565b600080612cdd83611832565b6080015190506000612cee84611832565b60a001519050600080612d01838561380c565b11612d0d576000612d17565b612d17828461380c565b90506005811015612d295760006128cb565b600195945050505050565b6040518060c001604052806000815260200160006001600160a01b03168152602001606081526020016060815260200160608152602001606081525090565b828054828255906000526020600020908101928215612dae579160200282015b82811115612dae578251825591602001919060010190612d93565b50612dba929150612dbe565b5090565b5b80821115612dba5760008155600101612dbf565b600060208284031215612de557600080fd5b5035919050565b634e487b7160e01b600052604160045260246000fd5b604051601f8201601f1916810167ffffffffffffffff81118282101715612e2b57612e2b612dec565b604052919050565b600067ffffffffffffffff831115612e4d57612e4d612dec565b612e60601f8401601f1916602001612e02565b9050828152838383011115612e7457600080fd5b828260208301376000602084830101529392505050565b600082601f830112612e9c57600080fd5b6126e283833560208501612e33565b60008060408385031215612ebe57600080fd5b823567ffffffffffffffff80821115612ed657600080fd5b612ee286838701612e8b565b93506020850135915080821115612ef857600080fd5b50612f0585828601612e8b565b9150509250929050565b60008060408385031215612f2257600080fd5b8235915060208084013567ffffffffffffffff80821115612f4257600080fd5b818601915086601f830112612f5657600080fd5b813581811115612f6857612f68612dec565b8060051b9150612f79848301612e02565b8181529183018401918481019089841115612f9357600080fd5b938501935b83851015612fb157843582529385019390850190612f98565b8096505050505050509250929050565b6001600160a01b0381168114612fd657600080fd5b50565b600060208284031215612feb57600080fd5b81356126e281612fc1565b60005b83811015613011578181015183820152602001612ff9565b50506000910152565b60008151808452613032816020860160208601612ff6565b601f01601f19169290920160200192915050565b8051825260018060a01b036020820151166020830152604081015160408301526000606082015160c0606085015261308160c085018261301a565b90506080830151608085015260a083015160a08501528091505092915050565b600060208083016020845280855180835260408601915060408160051b87010192506020870160005b828110156130f857603f198886030184526130e6858351613046565b945092850192908501906001016130ca565b5092979650505050505050565b6020808252825182820181905260009190848201906040850190845b8181101561313d57835183529284019291840191600101613121565b50909695505050505050565b805182526000602082015160e0602085015261316860e085018261301a565b905060408301518482036040860152613181828261301a565b606085810151908701526080808601519087015260a0808601519087015260c0948501516001600160a01b03169490950193909352509192915050565b600060208083016020845280855180835260408601915060408160051b87010192506020870160005b828110156130f857603f19888603018452613203858351613149565b945092850192908501906001016131e7565b6000806040838503121561322857600080fd5b50508035926020909101359150565b6000806040838503121561324a57600080fd5b82359150602083013567ffffffffffffffff81111561326857600080fd5b612f0585828601612e8b565b6020815260006126e26020830184613046565b6000806020838503121561329a57600080fd5b823567ffffffffffffffff808211156132b257600080fd5b818501915085601f8301126132c657600080fd5b8135818111156132d557600080fd5b8660208285010111156132e757600080fd5b60209290920196919550909350505050565b6020815260006126e2602083018461301a565b6020815260006126e26020830184613149565b602081528151602082015260018060a01b0360208301511660408201526000604083015160c0606084015261335760e084018261301a565b90506060840151601f1980858403016080860152613375838361301a565b925060808601519150808584030160a0860152613392838361301a565b925060a08601519150808584030160c0860152506128cb828261301a565b600080600080608085870312156133c657600080fd5b84359350602085013567ffffffffffffffff808211156133e557600080fd5b6133f188838901612e8b565b9450604087013591508082111561340757600080fd5b61341388838901612e8b565b9350606087013591508082111561342957600080fd5b5061343687828801612e8b565b91505092959194509250565b6020808252825182820181905260009190848201906040850190845b8181101561313d5783516001600160a01b03168352928401929184019160010161345e565b60008060006060848603121561349857600080fd5b83359250602084013567ffffffffffffffff808211156134b757600080fd5b6134c387838801612e8b565b935060408601359150808211156134d957600080fd5b506134e686828701612e8b565b9150509250925092565b60006020828403121561350257600080fd5b813567ffffffffffffffff81111561351957600080fd5b8201601f8101841361352a57600080fd5b61353984823560208401612e33565b949350505050565b8215158152604060208201526000613539604083018461301a565b60008060006060848603121561357157600080fd5b8335925060208401359150604084013567ffffffffffffffff81111561359657600080fd5b6134e686828701612e8b565b634e487b7160e01b600052603260045260246000fd5b634e487b7160e01b600052601160045260246000fd5b6000600182016135e0576135e06135b8565b5060010190565b838152606060208201526000613600606083018561301a565b8281036040840152613612818561301a565b9695505050505050565b600181811c9082168061363057607f821691505b60208210810361365057634e487b7160e01b600052602260045260246000fd5b50919050565b601f8211156124a8576000816000526020600020601f850160051c8101602086101561367f5750805b601f850160051c820191505b81811015611e195782815560010161368b565b815167ffffffffffffffff8111156136b8576136b8612dec565b6136cc816136c6845461361c565b84613656565b602080601f83116001811461370157600084156136e95750858301515b600019600386901b1c1916600185901b178555611e19565b600085815260208120601f198616915b8281101561373057888601518255948401946001909101908401613711565b508582101561374e5787850151600019600388901b60f8161c191681555b5050505050600190811b01905550565b60008251613770818460208701612ff6565b9190910192915050565b828152604060208201526000613539604083018461301a565b6060815260006137a6606083018661301a565b82810360208401526137b8818661301a565b915050826040830152949350505050565b634e487b7160e01b600052601260045260246000fd5b6000826137ee576137ee6137c9565b500690565b60006020828403121561380557600080fd5b5051919050565b8181038181111561159d5761159d6135b8565b808202811582820484141761159d5761159d6135b8565b600082613845576138456137c9565b500490565b805169ffffffffffffffffffff8116811461386457600080fd5b919050565b600080600080600060a0868803121561388157600080fd5b61388a8661384a565b94506020860151935060408601519250606086015191506138ad6080870161384a565b90509295509295909350565b80820260008212600160ff1b841416156138d5576138d56135b8565b818105831482151761159d5761159d6135b856fea26469706673582212207cbd520ab3c34b2f04fd541a380661398402c85530e832dd79568aff33f47fc864736f6c63430008180033","linkReferences":{}},"methodIdentifiers":{"CheckUpkeep(bytes)":"c9fbacf3","changeOwner(address)":"a6f9dae1","changeUsername(uint256,string)":"72d4e382","createComment(uint256,string)":"40a17985","createPost(string,string)":"392338f5","deleteComment(uint256,uint256)":"31a4bcb5","deletePost(uint256)":"094cd5ee","downvote(uint256)":"f31fdad4","editComment(uint256,uint256,string)":"fa561152","editPost(uint256,string,string)":"bf0ac63c","editUserProfile(uint256,string,string,string)":"7461d858","getAllPosts()":"30561100","getBalance()":"12065fe0","getCommentByPostIdAndCommentId(uint256,uint256)":"4296db5b","getCommentLikersByPostIdAndCommentId(uint256,uint256)":"8dc4a066","getContractOwner()":"442890d5","getIdsOfEligiblePosts()":"2d492c83","getIdsOfRecentPosts()":"984d1015","getIdsOfRecentWinningPosts()":"8c262013","getPostById(uint256)":"64e95895","getUsdValueOfEthAmount(uint256)":"e96c520b","getUser(address)":"6f77926b","getUserById(uint256)":"6ed6da9e","getUserComments(address)":"2b3c6e22","getUserNameFromAddress(address)":"6372af84","getUserPosts(address)":"9a2194a9","likeComment(uint256,uint256)":"a0e91821","performUpkeep(bytes)":"4585e33b","rawFulfillRandomWords(uint256,uint256[])":"1fe543e3","registerUser(string,string)":"1d2e4afd","transferContractBalance(address)":"96f11ac8","upvote(uint256)":"01ddf070"},"id":36}