{"abi":[{"type":"constructor","inputs":[],"stateMutability":"nonpayable"},{"type":"function","name":"DOMAIN_SEPARATOR","inputs":[],"outputs":[{"name":"","type":"bytes32","internalType":"bytes32"}],"stateMutability":"view"},{"type":"function","name":"allowance","inputs":[{"name":"","type":"address","internalType":"address"},{"name":"","type":"address","internalType":"address"}],"outputs":[{"name":"","type":"uint256","internalType":"uint256"}],"stateMutability":"view"},{"type":"function","name":"approve","inputs":[{"name":"spender","type":"address","internalType":"address"},{"name":"amount","type":"uint256","internalType":"uint256"}],"outputs":[{"name":"","type":"bool","internalType":"bool"}],"stateMutability":"nonpayable"},{"type":"function","name":"balanceOf","inputs":[{"name":"","type":"address","internalType":"address"}],"outputs":[{"name":"","type":"uint256","internalType":"uint256"}],"stateMutability":"view"},{"type":"function","name":"decimals","inputs":[],"outputs":[{"name":"","type":"uint8","internalType":"uint8"}],"stateMutability":"view"},{"type":"function","name":"name","inputs":[],"outputs":[{"name":"","type":"string","internalType":"string"}],"stateMutability":"view"},{"type":"function","name":"nonces","inputs":[{"name":"","type":"address","internalType":"address"}],"outputs":[{"name":"","type":"uint256","internalType":"uint256"}],"stateMutability":"view"},{"type":"function","name":"permit","inputs":[{"name":"owner","type":"address","internalType":"address"},{"name":"spender","type":"address","internalType":"address"},{"name":"value","type":"uint256","internalType":"uint256"},{"name":"deadline","type":"uint256","internalType":"uint256"},{"name":"v","type":"uint8","internalType":"uint8"},{"name":"r","type":"bytes32","internalType":"bytes32"},{"name":"s","type":"bytes32","internalType":"bytes32"}],"outputs":[],"stateMutability":"nonpayable"},{"type":"function","name":"symbol","inputs":[],"outputs":[{"name":"","type":"string","internalType":"string"}],"stateMutability":"view"},{"type":"function","name":"totalSupply","inputs":[],"outputs":[{"name":"","type":"uint256","internalType":"uint256"}],"stateMutability":"view"},{"type":"function","name":"transfer","inputs":[{"name":"to","type":"address","internalType":"address"},{"name":"amount","type":"uint256","internalType":"uint256"}],"outputs":[{"name":"","type":"bool","internalType":"bool"}],"stateMutability":"nonpayable"},{"type":"function","name":"transferAndCall","inputs":[{"name":"_to","type":"address","internalType":"address"},{"name":"_value","type":"uint256","internalType":"uint256"},{"name":"_data","type":"bytes","internalType":"bytes"}],"outputs":[{"name":"success","type":"bool","internalType":"bool"}],"stateMutability":"nonpayable"},{"type":"function","name":"transferFrom","inputs":[{"name":"from","type":"address","internalType":"address"},{"name":"to","type":"address","internalType":"address"},{"name":"amount","type":"uint256","internalType":"uint256"}],"outputs":[{"name":"","type":"bool","internalType":"bool"}],"stateMutability":"nonpayable"},{"type":"event","name":"Approval","inputs":[{"name":"owner","type":"address","indexed":true,"internalType":"address"},{"name":"spender","type":"address","indexed":true,"internalType":"address"},{"name":"amount","type":"uint256","indexed":false,"internalType":"uint256"}],"anonymous":false},{"type":"event","name":"Transfer","inputs":[{"name":"from","type":"address","indexed":true,"internalType":"address"},{"name":"to","type":"address","indexed":true,"internalType":"address"},{"name":"amount","type":"uint256","indexed":false,"internalType":"uint256"}],"anonymous":false},{"type":"event","name":"Transfer","inputs":[{"name":"from","type":"address","indexed":true,"internalType":"address"},{"name":"to","type":"address","indexed":true,"internalType":"address"},{"name":"value","type":"uint256","indexed":false,"internalType":"uint256"},{"name":"data","type":"bytes","indexed":false,"internalType":"bytes"}],"anonymous":false}],"bytecode":{"object":"0x60e06040818152346200047d57620000178262000482565b60098252602091682634b735aa37b5b2b760b91b838201528151906200003d8262000482565b600493848352634c494e4b60e01b8184015281519160018060401b0393848411620004685760009380620000728654620004b4565b93601f9485811162000417575b508590858311600114620003af578792620003a3575b50508160011b916000199060031b1c19161784555b8051858111620002745780600192620000c48454620004b4565b85811162000350575b508590858311600114620002ec578792620002e0575b5050600019600383901b1c191690821b1781555b60126080524660a05285519184908554926200011384620004b4565b9081865286860194878282169182600014620002c357505060011462000287575b505083601f199203011682019180831086841117620002745782875251902090828101917f8b73c3c69bb8fe3d512ecc4cf759cc79239f7b179b0ffacaa9a75d522b39400f8352868201527fc89efdaa54c0f20c7adf612882df0950f5a951637e0307cdcb4c672f298b8bc660608201524660808201523060a082015260a0815260c081019481861090861117620002615784865251902060c05260025469d3c21bcecceda1000000908181018091116200024e57907fddf252ad1be2c89b69c2b068fc378daa952ba7f163c4a11628f55a4df523b3ef92916002553384526003825285842081815401905584523393a351610c1a9081620004f282396080518161069c015260a051816109d9015260c05181610a000152f35b634e487b7160e01b845260118752602484fd5b634e487b7160e01b845260418752602484fd5b634e487b7160e01b855260418852602485fd5b90869293508780528288209188925b828410620002ad5750505084010190388062000134565b8054888501860152889490930192810162000296565b92509394505060ff19168452151560051b84010190388062000134565b015190503880620000e3565b8488528688208594509190601f198416895b898282106200033957505084116200031f575b505050811b018155620000f7565b015160001960f88460031b161c1916905538808062000311565b8385015186558897909501949384019301620002fe565b9091508387528587208580850160051c82019288861062000399575b918691869594930160051c01915b8281106200038a575050620000cd565b8981558594508691016200037a565b925081926200036c565b01519050388062000095565b8780528688209250601f198416885b8882821062000400575050908460019594939210620003e6575b505050811b018455620000aa565b015160001960f88460031b161c19169055388080620003d8565b6001859682939686015181550195019301620003be565b9091508680528587208580850160051c8201928886106200045e575b9085949392910160051c01905b8181106200044f57506200007f565b88815584935060010162000440565b9250819262000433565b604187634e487b7160e01b6000525260246000fd5b600080fd5b604081019081106001600160401b038211176200049e57604052565b634e487b7160e01b600052604160045260246000fd5b90600182811c92168015620004e6575b6020831014620004d057565b634e487b7160e01b600052602260045260246000fd5b91607f1691620004c456fe6080604081815260048036101561001557600080fd5b600092833560e01c90816306fdde031461082057508063095ea7b3146107b257806318160ddd1461079357806323b872dd146106c0578063313ce567146106825780633644e5151461065e5780634000aea0146104d557806370a082311461049d5780637ecebe001461046557806395d89b4114610373578063a9059cbb14610341578063d505accf146100fd5763dd62ed3e146100b257600080fd5b346100f957816003193601126100f95760209282916100cf610980565b6100d761099b565b6001600160a01b03918216845291865283832091168252845220549051908152f35b8280fd5b5091903461033d5760e036600319011261033d57610119610980565b9061012261099b565b91604435606435926084359260ff8416809403610339574285106102f6576101486109d4565b9560018060a01b038092169586895260209560058752848a209889549960018b01905585519285898501957f6e71edae12b1b97f4d1f60370fef10105fa2faae0126114a169c64845d6126c987528b89870152169a8b606086015288608086015260a085015260c084015260c0835260e0830167ffffffffffffffff94848210868311176102e2578188528451902061010085019261190160f01b845261010286015261012285015260428152610160840194818610908611176102cf57848752519020835261018082015260a4356101a082015260c4356101c0909101528780528490889060809060015afa156102c55786511696871515806102bc575b1561028a5786977f8c5be1e5ebec7d5bd14f71427d1e84f3dd0314c0f7b2291e5b200ac8c7c3b9259596975283528087208688528352818188205551908152a380f35b83606492519162461bcd60e51b8352820152600e60248201526d24a72b20a624a22fa9a4a3a722a960911b6044820152fd5b50848814610247565b81513d88823e3d90fd5b634e487b7160e01b8c5260418d5260248cfd5b50634e487b7160e01b8c5260418d5260248cfd5b815162461bcd60e51b81526020818a0152601760248201527f5045524d49545f444541444c494e455f455850495245440000000000000000006044820152606490fd5b8680fd5b5080fd5b50503461033d578060031936011261033d5760209061036a610361610980565b60243590610b7b565b90519015158152f35b82843461046257806003193601126104625781519182826001936001549461039a866108ce565b918285526020968760018216918260001461043b5750506001146103df575b5050506103db92916103cc910385610908565b51928284938452830190610940565b0390f35b9190869350600183527fb10e2d527612073b26eecdfd717e6a320cf44b4afac2b0732d9fcbe2b7fa0cf65b82841061042357505050820101816103cc6103db6103b9565b8054848a01860152889550879490930192810161040a565b60ff19168782015293151560051b860190930193508492506103cc91506103db90506103b9565b80fd5b50503461033d57602036600319011261033d5760209181906001600160a01b0361048d610980565b1681526005845220549051908152f35b50503461033d57602036600319011261033d5760209181906001600160a01b036104c5610980565b1681526003845220549051908152f35b50346100f95760603660031901126100f9576104ef610980565b9260249182356044359567ffffffffffffffff918288116106485736602389011215610648578784013583811161064c57875198610537601f8301601f19166020018b610908565b818a5236888383010111610339578187928960209301838d01378a01015261055f8183610b7b565b508651818152602081018890526001600160a01b0383169290839033907fe19260aff97b920c7df27010903aeb9c8d2be5d310a2c67824cf3f15396e4c1690806105ab818e018f610940565b0390a33b6105be575b6020875160018152f35b819695963b156106485796849187988388996105ff9951998a9586948593635260769b60e11b8552338c860152840152606060448401526064830190610940565b03925af1801561063e57610615575b80806105b4565b831161062c5750506020925081523880808061060e565b634e487b7160e01b8252604190528390fd5b85513d85823e3d90fd5b8480fd5b634e487b7160e01b8652604185528686fd5b50503461033d578160031936011261033d5760209061067b6109d4565b9051908152f35b50503461033d578160031936011261033d576020905160ff7f0000000000000000000000000000000000000000000000000000000000000000168152f35b509134610462576060366003190112610462576106db610980565b7fddf252ad1be2c89b69c2b068fc378daa952ba7f163c4a11628f55a4df523b3ef61070461099b565b6001600160a01b0392831680855260208781528686203387528152868620549097919488936044359389938560018201610770575b505050868852600385528288206107518582546109b1565b9055169586815260038452208181540190558551908152a35160018152f35b610779916109b1565b90888a528652838920338a52865283892055388085610739565b50503461033d578160031936011261033d576020906002549051908152f35b50346100f957816003193601126100f9576020926107ce610980565b918360243592839233825287528181209460018060a01b0316948582528752205582519081527f8c5be1e5ebec7d5bd14f71427d1e84f3dd0314c0f7b2291e5b200ac8c7c3b925843392a35160018152f35b84843461033d578160031936011261033d578282835461083f816108ce565b908184526020956001918760018216918260001461043b575050600114610873575050506103db92916103cc910385610908565b91908693508280527f290decd9548b62a8d60345a988386fc84ba6bc95484008f6362f93160ef3e5635b8284106108b657505050820101816103cc6103db6103b9565b8054848a01860152889550879490930192810161089d565b90600182811c921680156108fe575b60208310146108e857565b634e487b7160e01b600052602260045260246000fd5b91607f16916108dd565b90601f8019910116810190811067ffffffffffffffff82111761092a57604052565b634e487b7160e01b600052604160045260246000fd5b919082519283825260005b84811061096c575050826000602080949584010152601f8019910116010190565b60208183018101518483018201520161094b565b600435906001600160a01b038216820361099657565b600080fd5b602435906001600160a01b038216820361099657565b919082039182116109be57565b634e487b7160e01b600052601160045260246000fd5b6000467f000000000000000000000000000000000000000000000000000000000000000003610a2257507f000000000000000000000000000000000000000000000000000000000000000090565b60405181548291610a32826108ce565b808252816020948582019460019087600182169182600014610b5d575050600114610b04575b50610a6592500382610908565b51902091604051918201927f8b73c3c69bb8fe3d512ecc4cf759cc79239f7b179b0ffacaa9a75d522b39400f845260408301527fc89efdaa54c0f20c7adf612882df0950f5a951637e0307cdcb4c672f298b8bc660608301524660808301523060a083015260a0825260c082019082821067ffffffffffffffff831117610af0575060405251902090565b634e487b7160e01b81526041600452602490fd5b87805286915087907f290decd9548b62a8d60345a988386fc84ba6bc95484008f6362f93160ef3e5635b858310610b45575050610a65935082010138610a58565b80548388018501528694508893909201918101610b2e565b60ff19168852610a6595151560051b8501019250389150610a589050565b3360005260036020526040600020610b948382546109b1565b905560018060a01b03169081600052600360205260406000208181540190556040519081527fddf252ad1be2c89b69c2b068fc378daa952ba7f163c4a11628f55a4df523b3ef60203392a360019056fea2646970667358221220690203d3a780ead821e93ea11d1c12cbe90e5b567c93dc2e7157c0c229e9f93264736f6c63430008180033","linkReferences":{}},"methodIdentifiers":{"DOMAIN_SEPARATOR()":"3644e515","allowance(address,address)":"dd62ed3e","approve(address,uint256)":"095ea7b3","balanceOf(address)":"70a08231","decimals()":"313ce567","name()":"06fdde03","nonces(address)":"7ecebe00","permit(address,address,uint256,uint256,uint8,bytes32,bytes32)":"d505accf","symbol()":"95d89b41","totalSupply()":"18160ddd","transfer(address,uint256)":"a9059cbb","transferAndCall(address,uint256,bytes)":"4000aea0","transferFrom(address,address,uint256)":"23b872dd"},"id":41}