{"abi":[{"type":"constructor","inputs":[{"name":"_baseFee","type":"uint96","internalType":"uint96"},{"name":"_gasPriceLink","type":"uint96","internalType":"uint96"}],"stateMutability":"nonpayable"},{"type":"function","name":"BASE_FEE","inputs":[],"outputs":[{"name":"","type":"uint96","internalType":"uint96"}],"stateMutability":"view"},{"type":"function","name":"GAS_PRICE_LINK","inputs":[],"outputs":[{"name":"","type":"uint96","internalType":"uint96"}],"stateMutability":"view"},{"type":"function","name":"MAX_CONSUMERS","inputs":[],"outputs":[{"name":"","type":"uint16","internalType":"uint16"}],"stateMutability":"view"},{"type":"function","name":"acceptSubscriptionOwnerTransfer","inputs":[{"name":"subId","type":"uint256","internalType":"uint256"}],"outputs":[],"stateMutability":"pure"},{"type":"function","name":"addConsumer","inputs":[{"name":"_subId","type":"uint256","internalType":"uint256"},{"name":"_consumer","type":"address","internalType":"address"}],"outputs":[],"stateMutability":"nonpayable"},{"type":"function","name":"cancelSubscription","inputs":[{"name":"_subId","type":"uint256","internalType":"uint256"},{"name":"_to","type":"address","internalType":"address"}],"outputs":[],"stateMutability":"nonpayable"},{"type":"function","name":"consumerIsAdded","inputs":[{"name":"_subId","type":"uint256","internalType":"uint256"},{"name":"_consumer","type":"address","internalType":"address"}],"outputs":[{"name":"","type":"bool","internalType":"bool"}],"stateMutability":"view"},{"type":"function","name":"createSubscription","inputs":[],"outputs":[{"name":"_subId","type":"uint256","internalType":"uint256"}],"stateMutability":"nonpayable"},{"type":"function","name":"fulfillRandomWords","inputs":[{"name":"_requestId","type":"uint256","internalType":"uint256"},{"name":"_consumer","type":"address","internalType":"address"}],"outputs":[],"stateMutability":"nonpayable"},{"type":"function","name":"fulfillRandomWordsWithOverride","inputs":[{"name":"_requestId","type":"uint256","internalType":"uint256"},{"name":"_consumer","type":"address","internalType":"address"},{"name":"_words","type":"uint256[]","internalType":"uint256[]"}],"outputs":[],"stateMutability":"nonpayable"},{"type":"function","name":"fundSubscription","inputs":[{"name":"_subId","type":"uint256","internalType":"uint256"},{"name":"_amount","type":"uint96","internalType":"uint96"}],"outputs":[],"stateMutability":"nonpayable"},{"type":"function","name":"getConfig","inputs":[],"outputs":[{"name":"minimumRequestConfirmations","type":"uint16","internalType":"uint16"},{"name":"maxGasLimit","type":"uint32","internalType":"uint32"},{"name":"stalenessSeconds","type":"uint32","internalType":"uint32"},{"name":"gasAfterPaymentCalculation","type":"uint32","internalType":"uint32"}],"stateMutability":"pure"},{"type":"function","name":"getFallbackWeiPerUnitLink","inputs":[],"outputs":[{"name":"","type":"int256","internalType":"int256"}],"stateMutability":"pure"},{"type":"function","name":"getFeeConfig","inputs":[],"outputs":[{"name":"fulfillmentFlatFeeLinkPPMTier1","type":"uint32","internalType":"uint32"},{"name":"fulfillmentFlatFeeLinkPPMTier2","type":"uint32","internalType":"uint32"},{"name":"fulfillmentFlatFeeLinkPPMTier3","type":"uint32","internalType":"uint32"},{"name":"fulfillmentFlatFeeLinkPPMTier4","type":"uint32","internalType":"uint32"},{"name":"fulfillmentFlatFeeLinkPPMTier5","type":"uint32","internalType":"uint32"},{"name":"reqsForTier2","type":"uint24","internalType":"uint24"},{"name":"reqsForTier3","type":"uint24","internalType":"uint24"},{"name":"reqsForTier4","type":"uint24","internalType":"uint24"},{"name":"reqsForTier5","type":"uint24","internalType":"uint24"}],"stateMutability":"pure"},{"type":"function","name":"getRequestConfig","inputs":[],"outputs":[{"name":"","type":"uint16","internalType":"uint16"},{"name":"","type":"uint32","internalType":"uint32"},{"name":"","type":"bytes32[]","internalType":"bytes32[]"}],"stateMutability":"pure"},{"type":"function","name":"getSubscription","inputs":[{"name":"_subId","type":"uint256","internalType":"uint256"}],"outputs":[{"name":"balance","type":"uint96","internalType":"uint96"},{"name":"reqCount","type":"uint64","internalType":"uint64"},{"name":"owner","type":"address","internalType":"address"},{"name":"consumers","type":"address[]","internalType":"address[]"}],"stateMutability":"view"},{"type":"function","name":"pendingRequestExists","inputs":[{"name":"subId","type":"uint256","internalType":"uint256"}],"outputs":[{"name":"","type":"bool","internalType":"bool"}],"stateMutability":"pure"},{"type":"function","name":"removeConsumer","inputs":[{"name":"_subId","type":"uint256","internalType":"uint256"},{"name":"_consumer","type":"address","internalType":"address"}],"outputs":[],"stateMutability":"nonpayable"},{"type":"function","name":"requestRandomWords","inputs":[{"name":"_keyHash","type":"bytes32","internalType":"bytes32"},{"name":"_subId","type":"uint256","internalType":"uint256"},{"name":"_minimumRequestConfirmations","type":"uint16","internalType":"uint16"},{"name":"_callbackGasLimit","type":"uint32","internalType":"uint32"},{"name":"_numWords","type":"uint32","internalType":"uint32"}],"outputs":[{"name":"","type":"uint256","internalType":"uint256"}],"stateMutability":"nonpayable"},{"type":"function","name":"requestSubscriptionOwnerTransfer","inputs":[{"name":"subId","type":"uint256","internalType":"uint256"},{"name":"_newOwner","type":"address","internalType":"address"}],"outputs":[],"stateMutability":"pure"},{"type":"event","name":"ConsumerAdded","inputs":[{"name":"subId","type":"uint256","indexed":true,"internalType":"uint256"},{"name":"consumer","type":"address","indexed":false,"internalType":"address"}],"anonymous":false},{"type":"event","name":"ConsumerRemoved","inputs":[{"name":"subId","type":"uint256","indexed":true,"internalType":"uint256"},{"name":"consumer","type":"address","indexed":false,"internalType":"address"}],"anonymous":false},{"type":"event","name":"RandomWordsFulfilled","inputs":[{"name":"requestId","type":"uint256","indexed":true,"internalType":"uint256"},{"name":"outputSeed","type":"uint256","indexed":false,"internalType":"uint256"},{"name":"payment","type":"uint96","indexed":false,"internalType":"uint96"},{"name":"success","type":"bool","indexed":false,"internalType":"bool"}],"anonymous":false},{"type":"event","name":"RandomWordsRequested","inputs":[{"name":"keyHash","type":"bytes32","indexed":true,"internalType":"bytes32"},{"name":"requestId","type":"uint256","indexed":false,"internalType":"uint256"},{"name":"preSeed","type":"uint256","indexed":false,"internalType":"uint256"},{"name":"subId","type":"uint256","indexed":true,"internalType":"uint256"},{"name":"minimumRequestConfirmations","type":"uint16","indexed":false,"internalType":"uint16"},{"name":"callbackGasLimit","type":"uint32","indexed":false,"internalType":"uint32"},{"name":"numWords","type":"uint32","indexed":false,"internalType":"uint32"},{"name":"sender","type":"address","indexed":true,"internalType":"address"}],"anonymous":false},{"type":"event","name":"SubscriptionCanceled","inputs":[{"name":"subId","type":"uint256","indexed":true,"internalType":"uint256"},{"name":"to","type":"address","indexed":false,"internalType":"address"},{"name":"amount","type":"uint256","indexed":false,"internalType":"uint256"}],"anonymous":false},{"type":"event","name":"SubscriptionCreated","inputs":[{"name":"subId","type":"uint256","indexed":true,"internalType":"uint256"},{"name":"owner","type":"address","indexed":false,"internalType":"address"}],"anonymous":false},{"type":"event","name":"SubscriptionFunded","inputs":[{"name":"subId","type":"uint256","indexed":true,"internalType":"uint256"},{"name":"oldBalance","type":"uint256","indexed":false,"internalType":"uint256"},{"name":"newBalance","type":"uint256","indexed":false,"internalType":"uint256"}],"anonymous":false},{"type":"error","name":"InsufficientBalance","inputs":[]},{"type":"error","name":"InvalidConsumer","inputs":[]},{"type":"error","name":"InvalidRandomWords","inputs":[]},{"type":"error","name":"InvalidSubscription","inputs":[]},{"type":"error","name":"MustBeSubOwner","inputs":[{"name":"owner","type":"address","internalType":"address"}]},{"type":"error","name":"TooManyConsumers","inputs":[]}],"bytecode":{"object":"0x60e0346100a657601f61121238819003918201601f19168301916001600160401b038311848410176100ab5780849260409485528339810103126100a657610052602061004b836100c1565b92016100c1565b90606460c05260018055606460025560805260a05260405161113c90816100d6823960805181818161088d0152610cf5015260a0518181816105cd0152610cc3015260c051818181610727015261103c0152f35b600080fd5b634e487b7160e01b600052604160045260246000fd5b51906001600160601b03821682036100a65756fe608060408181526004918236101561001657600080fd5b600090813560e01c90816201229114610a255750806308e3898e1461098b5780630ae09540146108d3578063356dac71146108b15780633d18651e1461086d57806341af6c87146105975780634cf94d871461079b5780635fbbc0d21461074b57806364d51a2a1461070c578063808974ff146106d9578063953e9c75146106a9578063a21a23e4146105f1578063a410347f146105ad578063b2a7cac514610597578063bec4c08c14610523578063c3f909d4146104ee578063cb63179714610329578063d33d44c1146101d4578063dac83d29146101b55763dc311dd3146100ff57600080fd5b346101b257602092836003193601126101ae57803580835260038552838320546001600160a01b0395919086161561019e578392919352600383528382205490835261014c848320610f4d565b928451948660808701938060a01c8852858489015216908601526080606086015283518092528060a086019401925b8281106101885785850386f35b835187168552938101939281019260010161017b565b8451630fb532db60e11b81528390fd5b5080fd5b80fd5b5090346101ae573660031901126101b2576101ce610a99565b50610ee5565b5090346101ae5760a03660031901126101ae57602435926044359361ffff8516809503610325576064359363ffffffff948581168091036101ae5760843590868216809203610321576102273385610fa9565b156103115783835260036020908152868420549098906001600160a01b0316156103015788600154809961025a82611000565b60015560016002549761026c89611000565b6002558b80519161027c83610ab4565b8b83526005878401978a8952838501978c895283525220905181550192511667ffffffff00000000835492518d1b169167ffffffffffffffff1916171790558651938885528985015286840152606083015260808201527f8645457ba936e1d3d8c504bb2e723e23a86101f27fa9cf2c552b9c1bf6ea952960a033943592a451908152f35b8651630fb532db60e11b81528690fd5b85516371e8313760e01b81528590fd5b8280fd5b8380fd5b509134610321578160031936011261032157803590610346610a99565b9282855260038060205260018060a01b0380838820541680156104de578033036104c857506103758686610fa9565b156104b9578487526020849052828720939581169390875b8254808210156104875786836103a3848761100f565b905490881b1c16146103b8575060010161038d565b91929394959697906000199283810190811161047457906103ee856103e061040c948961100f565b9054908a1b1c16918761100f565b90919060018060a01b038084549260031b9316831b921b1916179055565b835490811561046157509160209593917f5274c432b5877b38569ae9babd361f86e4b34d0f36aef7f6c61cbba5f185cee1979593019261044c848461100f565b81939154921b1b19169055555b51908152a280f35b634e487b7160e01b8a5260319052602489fd5b634e487b7160e01b8b526011835260248bfd5b50505050507f5274c432b5877b38569ae9babd361f86e4b34d0f36aef7f6c61cbba5f185cee192935090602091610459565b5050516371e8313760e01b8152fd5b84602491855191636c51fda960e11b8352820152fd5b50505051630fb532db60e11b8152fd5b508290346101b257806003193601126101b25750610a8c8260809351928352622625a060208401528201526182056060820152f35b5082346101ae57826003193601126101ae57803561053f610a99565b8184526003602052848420549092906001600160a01b0316801561058857803303610572578461056f8585611027565b80f35b8551636c51fda960e11b81529182015260249150fd5b508451630fb532db60e11b8152fd5b50346101b257602036600319011215610ee55780fd5b5090346101ae57816003193601126101ae57602090516001600160601b037f0000000000000000000000000000000000000000000000000000000000000000168152f35b50346101b257806003193601126101b25761060c8154611000565b80825582519083820182811067ffffffffffffffff8211176106965784523382526020828101848152918452600381528484209251915160a01b6001600160a01b0319166001600160a01b03929092169190911790915592505490817f1d3015d7ba850fa198dc7b1a3f5d42779313a681035f77c8c03764c61005518d848351338152a251908152f35b634e487b7160e01b845260418652602484fd5b50346101b257816003193601126101b257506106d06020926106c9610a99565b9035610fa9565b90519015158152f35b50913461032157816003193601126103215761056f916106f7610a99565b90519161070383610ae6565b84835235610b66565b5090346101ae57816003193601126101ae576020905161ffff7f0000000000000000000000000000000000000000000000000000000000000000168152f35b5090346101ae57816003193601126101ae5761012091815191620186a0809181855281602086015284015280606084015260808301528060a08301528060c08301528060e0830152610100820152f35b5090346101ae57806003193601126101ae578235906024356001600160601b038082168203610869578385526003602052828520546001600160a01b03161561085957907f1ced9348ff549fceab2ac57cd3a9de38edaaab274b725ee82c23e8fc8c4eec7a9291848652600360205261084a83872092610844845460a01c946108248387610f1c565b81546001600160a01b031660a09190911b6001600160a01b031916179055565b83610f1c565b8351928352166020820152a280f35b8251630fb532db60e11b81528690fd5b8480fd5b5090346101ae57816003193601126101ae57602090516001600160601b037f0000000000000000000000000000000000000000000000000000000000000000168152f35b5090346101ae57816003193601126101ae5760209051660e35fa931a00008152f35b5090346101ae57806003193601126101ae5782356108ef610a99565b81845260036020528284205490946001600160a01b03918216801561097c578033036109665750507f3784f77e8e883de95b5d47cd713ced01229fa74d118c0a462224bcb0516d43f1838596849384885260036020528288205460a01c908351921682526020820152a28252600360205281205580f35b8451636c51fda960e11b81529182015260249150fd5b508351630fb532db60e11b8152fd5b5090346101ae5760603660031901126101ae576109a6610a99565b6044359367ffffffffffffffff851161032557366023860112156103255784810135946109de6109d587610b24565b94519485610b02565b8584526020956024602086019160051b83010191368311610a2157602401905b828210610a12578661056f87878735610b66565b813581529087019087016109fe565b8680fd5b905082346103215782600319360112610321579190610a4381610ae6565b818152602091835193849360608086019260038752621e8480602088015286015283518092526020608086019401925b828110610a8257505050500390f35b835185528695509381019392810192600101610a73565b602435906001600160a01b0382168203610aaf57565b600080fd5b6060810190811067ffffffffffffffff821117610ad057604052565b634e487b7160e01b600052604160045260246000fd5b6020810190811067ffffffffffffffff821117610ad057604052565b90601f8019910116810190811067ffffffffffffffff821117610ad057604052565b67ffffffffffffffff8111610ad05760051b60200190565b8051821015610b505760209160051b010190565b634e487b7160e01b600052603260045260246000fd5b915a90600092848452602093600585526040938482205415610eab5786825260058652848220855193610b9885610ab4565b815485526001809201549563ffffffff91828a8801988181168a528b1c16918988019280845281518015600014610e8657505050838b838b83878f97511693610be085610b24565b94610bed84519687610b02565b808652610bfc601f1991610b24565b01368987013784978c925b610e43575b50945050969391505087935b8c87519481860194631fe543e360e01b865260249960648801918b89015260448801528351809152826084880194019288905b828210610e1c575050505050908495848693039b610c71601f199d8e8101885287610b02565b5116935193f1943d15610e16573d67ffffffffffffffff8111610e0357610ca189895193601f8401160183610b02565b815283883d92013e5b5a9182810390808211610df0576001600160601b0393847f0000000000000000000000000000000000000000000000000000000000000000168084029384041491141715610ddd57827f000000000000000000000000000000000000000000000000000000000000000016908101809111610ddd578216938051845260038852848785205460a01c10610dcc57518352600387528583209084825460a01c03928311610dba575080546001600160a01b031660a09290921b6001600160a01b03191691909117905585815260058552838120818155600101558251858152938401521515908201527f7dffc5ae5ee4e2e4df1651cf6ad329a73cebdb728f37ea0187b9b17e036756e490606090a2565b634e487b7160e01b8452601160045283fd5b8651631e9acf1760e31b8152600490fd5b50634e487b7160e01b8352601160045282fd5b634e487b7160e01b855260116004528285fd5b634e487b7160e01b855260416004528285fd5b50610caa565b8496989a979950839581929493955181520195019101918f928c9896999795949293610c4b565b89855116831015610e81578387945191820192835283818301528152610e6881610ab4565b519020610e758286610b3c565b52018c908f8f86610c07565b610c0c565b9091935003610e9a57928a89948793610c18565b8851631f9efadb60e11b8152600490fd5b845162461bcd60e51b81526004810187905260136024820152721b9bdb995e1a5cdd195b9d081c995c5d595cdd606a1b6044820152606490fd5b60405162461bcd60e51b815260206004820152600f60248201526e1b9bdd081a5b5c1b195b595b9d1959608a1b6044820152606490fd5b9190916001600160601b0380809416911601918211610f3757565b634e487b7160e01b600052601160045260246000fd5b90604051918281549182825260209260208301916000526020600020936000905b828210610f8657505050610f8492500383610b02565b565b85546001600160a01b031684526001958601958895509381019390910190610f6e565b6000526004602052610fbe6040600020610f4d565b9060005b8251811015610ff8576001600160a01b0380610fde8386610b3c565b511690831614610ff057600101610fc2565b505050600190565b505050600090565b6000198114610f375760010190565b8054821015610b505760005260206000200190600090565b9060008281526004602052604081205461ffff7f000000000000000000000000000000000000000000000000000000000000000016146110f45761106b8284610fa9565b6110ef57828152600460205260408120805491680100000000000000008310156110db5750916110c8816103ee847f4e5aab67fb6878a7c5437d638d002992f2b503107c053f38483f6b294948749396600160209701815561100f565b6040516001600160a01b039091168152a2565b634e487b7160e01b81526041600452602490fd5b505050565b6040516305a48e0f60e01b8152600490fdfea2646970667358221220ba5a3100395e6ebc883254cc6a17a990d7c79de257bc354f7f528ade8175af4164736f6c63430008180033","linkReferences":{}},"methodIdentifiers":{"BASE_FEE()":"3d18651e","GAS_PRICE_LINK()":"a410347f","MAX_CONSUMERS()":"64d51a2a","acceptSubscriptionOwnerTransfer(uint256)":"b2a7cac5","addConsumer(uint256,address)":"bec4c08c","cancelSubscription(uint256,address)":"0ae09540","consumerIsAdded(uint256,address)":"953e9c75","createSubscription()":"a21a23e4","fulfillRandomWords(uint256,address)":"808974ff","fulfillRandomWordsWithOverride(uint256,address,uint256[])":"08e3898e","fundSubscription(uint256,uint96)":"4cf94d87","getConfig()":"c3f909d4","getFallbackWeiPerUnitLink()":"356dac71","getFeeConfig()":"5fbbc0d2","getRequestConfig()":"00012291","getSubscription(uint256)":"dc311dd3","pendingRequestExists(uint256)":"41af6c87","removeConsumer(uint256,address)":"cb631797","requestRandomWords(bytes32,uint256,uint16,uint32,uint32)":"d33d44c1","requestSubscriptionOwnerTransfer(uint256,address)":"dac83d29"},"id":4}