{"abi":[{"type":"constructor","inputs":[{"name":"_baseFee","type":"uint96","internalType":"uint96"},{"name":"_gasPriceLink","type":"uint96","internalType":"uint96"}],"stateMutability":"nonpayable"},{"type":"function","name":"BASE_FEE","inputs":[],"outputs":[{"name":"","type":"uint96","internalType":"uint96"}],"stateMutability":"view"},{"type":"function","name":"GAS_PRICE_LINK","inputs":[],"outputs":[{"name":"","type":"uint96","internalType":"uint96"}],"stateMutability":"view"},{"type":"function","name":"MAX_CONSUMERS","inputs":[],"outputs":[{"name":"","type":"uint16","internalType":"uint16"}],"stateMutability":"view"},{"type":"function","name":"acceptSubscriptionOwnerTransfer","inputs":[{"name":"subId","type":"uint256","internalType":"uint256"}],"outputs":[],"stateMutability":"pure"},{"type":"function","name":"addConsumer","inputs":[{"name":"_subId","type":"uint256","internalType":"uint256"},{"name":"_consumer","type":"address","internalType":"address"}],"outputs":[],"stateMutability":"nonpayable"},{"type":"function","name":"cancelSubscription","inputs":[{"name":"_subId","type":"uint256","internalType":"uint256"},{"name":"_to","type":"address","internalType":"address"}],"outputs":[],"stateMutability":"nonpayable"},{"type":"function","name":"consumerIsAdded","inputs":[{"name":"_subId","type":"uint256","internalType":"uint256"},{"name":"_consumer","type":"address","internalType":"address"}],"outputs":[{"name":"","type":"bool","internalType":"bool"}],"stateMutability":"view"},{"type":"function","name":"createSubscription","inputs":[],"outputs":[{"name":"_subId","type":"uint256","internalType":"uint256"}],"stateMutability":"nonpayable"},{"type":"function","name":"fulfillRandomWords","inputs":[{"name":"_requestId","type":"uint256","internalType":"uint256"},{"name":"_consumer","type":"address","internalType":"address"}],"outputs":[],"stateMutability":"nonpayable"},{"type":"function","name":"fulfillRandomWordsWithOverride","inputs":[{"name":"_requestId","type":"uint256","internalType":"uint256"},{"name":"_consumer","type":"address","internalType":"address"},{"name":"_words","type":"uint256[]","internalType":"uint256[]"}],"outputs":[],"stateMutability":"nonpayable"},{"type":"function","name":"fundSubscription","inputs":[{"name":"_subId","type":"uint256","internalType":"uint256"},{"name":"_amount","type":"uint96","internalType":"uint96"}],"outputs":[],"stateMutability":"nonpayable"},{"type":"function","name":"getConfig","inputs":[],"outputs":[{"name":"minimumRequestConfirmations","type":"uint16","internalType":"uint16"},{"name":"maxGasLimit","type":"uint32","internalType":"uint32"},{"name":"stalenessSeconds","type":"uint32","internalType":"uint32"},{"name":"gasAfterPaymentCalculation","type":"uint32","internalType":"uint32"}],"stateMutability":"pure"},{"type":"function","name":"getFallbackWeiPerUnitLink","inputs":[],"outputs":[{"name":"","type":"int256","internalType":"int256"}],"stateMutability":"pure"},{"type":"function","name":"getFeeConfig","inputs":[],"outputs":[{"name":"fulfillmentFlatFeeLinkPPMTier1","type":"uint32","internalType":"uint32"},{"name":"fulfillmentFlatFeeLinkPPMTier2","type":"uint32","internalType":"uint32"},{"name":"fulfillmentFlatFeeLinkPPMTier3","type":"uint32","internalType":"uint32"},{"name":"fulfillmentFlatFeeLinkPPMTier4","type":"uint32","internalType":"uint32"},{"name":"fulfillmentFlatFeeLinkPPMTier5","type":"uint32","internalType":"uint32"},{"name":"reqsForTier2","type":"uint24","internalType":"uint24"},{"name":"reqsForTier3","type":"uint24","internalType":"uint24"},{"name":"reqsForTier4","type":"uint24","internalType":"uint24"},{"name":"reqsForTier5","type":"uint24","internalType":"uint24"}],"stateMutability":"pure"},{"type":"function","name":"getRequestConfig","inputs":[],"outputs":[{"name":"","type":"uint16","internalType":"uint16"},{"name":"","type":"uint32","internalType":"uint32"},{"name":"","type":"bytes32[]","internalType":"bytes32[]"}],"stateMutability":"pure"},{"type":"function","name":"getSubscription","inputs":[{"name":"_subId","type":"uint256","internalType":"uint256"}],"outputs":[{"name":"balance","type":"uint96","internalType":"uint96"},{"name":"reqCount","type":"uint64","internalType":"uint64"},{"name":"owner","type":"address","internalType":"address"},{"name":"consumers","type":"address[]","internalType":"address[]"}],"stateMutability":"view"},{"type":"function","name":"pendingRequestExists","inputs":[{"name":"subId","type":"uint256","internalType":"uint256"}],"outputs":[{"name":"","type":"bool","internalType":"bool"}],"stateMutability":"pure"},{"type":"function","name":"removeConsumer","inputs":[{"name":"_subId","type":"uint256","internalType":"uint256"},{"name":"_consumer","type":"address","internalType":"address"}],"outputs":[],"stateMutability":"nonpayable"},{"type":"function","name":"requestRandomWords","inputs":[{"name":"_keyHash","type":"bytes32","internalType":"bytes32"},{"name":"_subId","type":"uint256","internalType":"uint256"},{"name":"_minimumRequestConfirmations","type":"uint16","internalType":"uint16"},{"name":"_callbackGasLimit","type":"uint32","internalType":"uint32"},{"name":"_numWords","type":"uint32","internalType":"uint32"}],"outputs":[{"name":"","type":"uint256","internalType":"uint256"}],"stateMutability":"nonpayable"},{"type":"function","name":"requestSubscriptionOwnerTransfer","inputs":[{"name":"subId","type":"uint256","internalType":"uint256"},{"name":"_newOwner","type":"address","internalType":"address"}],"outputs":[],"stateMutability":"pure"},{"type":"event","name":"ConsumerAdded","inputs":[{"name":"subId","type":"uint256","indexed":true,"internalType":"uint256"},{"name":"consumer","type":"address","indexed":false,"internalType":"address"}],"anonymous":false},{"type":"event","name":"ConsumerRemoved","inputs":[{"name":"subId","type":"uint256","indexed":true,"internalType":"uint256"},{"name":"consumer","type":"address","indexed":false,"internalType":"address"}],"anonymous":false},{"type":"event","name":"RandomWordsFulfilled","inputs":[{"name":"requestId","type":"uint256","indexed":true,"internalType":"uint256"},{"name":"outputSeed","type":"uint256","indexed":false,"internalType":"uint256"},{"name":"payment","type":"uint96","indexed":false,"internalType":"uint96"},{"name":"success","type":"bool","indexed":false,"internalType":"bool"}],"anonymous":false},{"type":"event","name":"RandomWordsRequested","inputs":[{"name":"keyHash","type":"bytes32","indexed":true,"internalType":"bytes32"},{"name":"requestId","type":"uint256","indexed":false,"internalType":"uint256"},{"name":"preSeed","type":"uint256","indexed":false,"internalType":"uint256"},{"name":"subId","type":"uint256","indexed":true,"internalType":"uint256"},{"name":"minimumRequestConfirmations","type":"uint16","indexed":false,"internalType":"uint16"},{"name":"callbackGasLimit","type":"uint32","indexed":false,"internalType":"uint32"},{"name":"numWords","type":"uint32","indexed":false,"internalType":"uint32"},{"name":"sender","type":"address","indexed":true,"internalType":"address"}],"anonymous":false},{"type":"event","name":"SubscriptionCanceled","inputs":[{"name":"subId","type":"uint256","indexed":true,"internalType":"uint256"},{"name":"to","type":"address","indexed":false,"internalType":"address"},{"name":"amount","type":"uint256","indexed":false,"internalType":"uint256"}],"anonymous":false},{"type":"event","name":"SubscriptionCreated","inputs":[{"name":"subId","type":"uint256","indexed":true,"internalType":"uint256"},{"name":"owner","type":"address","indexed":false,"internalType":"address"}],"anonymous":false},{"type":"event","name":"SubscriptionFunded","inputs":[{"name":"subId","type":"uint256","indexed":true,"internalType":"uint256"},{"name":"oldBalance","type":"uint256","indexed":false,"internalType":"uint256"},{"name":"newBalance","type":"uint256","indexed":false,"internalType":"uint256"}],"anonymous":false},{"type":"error","name":"InsufficientBalance","inputs":[]},{"type":"error","name":"InvalidConsumer","inputs":[]},{"type":"error","name":"InvalidRandomWords","inputs":[]},{"type":"error","name":"InvalidSubscription","inputs":[]},{"type":"error","name":"MustBeSubOwner","inputs":[{"name":"owner","type":"address","internalType":"address"}]},{"type":"error","name":"TooManyConsumers","inputs":[]}],"bytecode":{"object":"0x60e0604052606460c08190526001805560025534801561001e57600080fd5b506040516115d13803806115d183398101604081905261003d91610070565b6001600160601b039182166080521660a0526100a3565b80516001600160601b038116811461006b57600080fd5b919050565b6000806040838503121561008357600080fd5b61008c83610054565b915061009a60208401610054565b90509250929050565b60805160a05160c0516114ea6100e7600039600081816102600152610b920152600081816102c801526105e301526000818161019e015261062e01526114ea6000f3fe608060405234801561001057600080fd5b506004361061012b5760003560e01c8063953e9c75116100ad578063c3f909d411610071578063c3f909d414610310578063cb6317971461033b578063d33d44c11461034e578063dac83d2914610361578063dc311dd31461036f57600080fd5b8063953e9c75146102a8578063a21a23e4146102bb578063a410347f146102c3578063b2a7cac5146102ea578063bec4c08c146102fd57600080fd5b806341af6c87116100f457806341af6c87146101d85780634cf94d87146101fb5780635fbbc0d21461020e57806364d51a2a1461025b578063808974ff1461029557600080fd5b80620122911461013057806308e3898e1461015a5780630ae095401461016f578063356dac71146101825780633d18651e14610199575b600080fd5b6040805160008152602081019182905261015191600391621e848091611077565b60405180910390f35b61016d61016836600461110a565b610392565b005b61016d61017d3660046111e4565b610764565b660e35fa931a00005b604051908152602001610151565b6101c07f000000000000000000000000000000000000000000000000000000000000000081565b6040516001600160601b039091168152602001610151565b6101eb6101e6366004611210565b61084a565b6040519015158152602001610151565b61016d610209366004611229565b610887565b60408051620186a080825260208201819052918101829052606081018290526080810191909152600060a0820181905260c0820181905260e0820181905261010082015261012001610151565b6102827f000000000000000000000000000000000000000000000000000000000000000081565b60405161ffff9091168152602001610151565b61016d6102a33660046111e4565b610966565b6101eb6102b63660046111e4565b610986565b61018b610a48565b6101c07f000000000000000000000000000000000000000000000000000000000000000081565b61016d6102f8366004611210565b610ad8565b61016d61030b3660046111e4565b610b12565b6040805160048152622625a06020820152610a8c918101919091526182056060820152608001610151565b61016d6103493660046111e4565b610c57565b61018b61035c366004611279565b610e47565b61016d6102f83660046111e4565b61038261037d366004611210565b610f9f565b60405161015194939291906112d9565b60005a600085815260056020526040812054919250036103ef5760405162461bcd60e51b81526020600482015260136024820152721b9bdb995e1a5cdd195b9d081c995c5d595cdd606a1b60448201526064015b60405180910390fd5b600084815260056020908152604080832081516060810183528154815260019091015463ffffffff8082169483019490945264010000000090049092169082015283519091036104f557806040015163ffffffff1667ffffffffffffffff81111561045c5761045c6110f4565b604051908082528060200260200182016040528015610485578160200160208202803683370190505b50925060005b816040015163ffffffff168110156104ef5760408051602081018890529081018290526060016040516020818303038152906040528051906020012060001c8482815181106104dc576104dc611356565b602090810291909101015260010161048b565b50610520565b806040015163ffffffff1683511461052057604051631f9efadb60e11b815260040160405180910390fd5b600080631fe543e360e01b878660405160240161053e92919061136c565b604051602081830303815290604052906001600160e01b0319166020820180516001600160e01b03838183161783525050505090506000866001600160a01b0316846020015163ffffffff168360405161059891906113bc565b60006040518083038160008787f1925050503d80600081146105d6576040519150601f19603f3d011682016040523d82523d6000602084013e6105db565b606091505b5050905060007f00000000000000000000000000000000000000000000000000000000000000006001600160601b03165a6106169088611401565b6106209190611414565b610653906001600160601b037f00000000000000000000000000000000000000000000000000000000000000001661142b565b85516000908152600360205260409020549091506001600160601b03808316600160a01b90920416101561069a57604051631e9acf1760e31b815260040160405180910390fd5b8451600090815260036020526040902080548291906014906106cd908490600160a01b90046001600160601b031661143e565b82546101009290920a6001600160601b0381810219909316918316021790915560008b8152600560209081526040808320928355600192909201805467ffffffffffffffff1916905581518d815292851690830152841515908201528a91507f7dffc5ae5ee4e2e4df1651cf6ad329a73cebdb728f37ea0187b9b17e036756e49060600160405180910390a2505050505050505050565b60008281526003602052604090205482906001600160a01b03168061079c57604051630fb532db60e11b815260040160405180910390fd5b336001600160a01b038216146107d057604051636c51fda960e11b81526001600160a01b03821660048201526024016103e6565b6000848152600360209081526040918290205482516001600160a01b0387168152600160a01b9091046001600160601b03169181019190915285917f3784f77e8e883de95b5d47cd713ced01229fa74d118c0a462224bcb0516d43f1910160405180910390a2505050600090815260036020526040812055565b60405162461bcd60e51b815260206004820152600f60248201526e1b9bdd081a5b5c1b195b595b9d1959608a1b60448201526000906064016103e6565b6000828152600360205260409020546001600160a01b03166108bc57604051630fb532db60e11b815260040160405180910390fd5b60008281526003602052604090208054600160a01b90046001600160601b031690829060146108eb8385611465565b92506101000a8154816001600160601b0302191690836001600160601b03160217905550827f1ced9348ff549fceab2ac57cd3a9de38edaaab274b725ee82c23e8fc8c4eec7a82848461093e9190611465565b604080516001600160601b0393841681529290911660208301520160405180910390a2505050565b6040805160008152602081019091526109829083908390610392565b5050565b6000828152600460209081526040808320805482518185028101850190935280835284938301828280156109e357602002820191906000526020600020905b81546001600160a01b031681526001909101906020018083116109c5575b5050505050905060005b8151811015610a3b57836001600160a01b0316828281518110610a1257610a12611356565b60200260200101516001600160a01b031603610a3357600192505050610a42565b6001016109ed565b5060009150505b92915050565b600080548180610a5783611485565b909155505060408051808201825233808252600060208084018281528254835260038252858320945190516001600160601b0316600160a01b026001600160a01b03909116179093555492519081527f1d3015d7ba850fa198dc7b1a3f5d42779313a681035f77c8c03764c61005518d910160405180910390a25060005490565b60405162461bcd60e51b815260206004820152600f60248201526e1b9bdd081a5b5c1b195b595b9d1959608a1b60448201526064016103e6565b60008281526003602052604090205482906001600160a01b031680610b4a57604051630fb532db60e11b815260040160405180910390fd5b336001600160a01b03821614610b7e57604051636c51fda960e11b81526001600160a01b03821660048201526024016103e6565b60008481526004602052604090205461ffff7f0000000000000000000000000000000000000000000000000000000000000000169003610bd1576040516305a48e0f60e01b815260040160405180910390fd5b610bdb8484610986565b610c5157600084815260046020908152604080832080546001810182559084529282902090920180546001600160a01b0319166001600160a01b038716908117909155915191825285917f4e5aab67fb6878a7c5437d638d002992f2b503107c053f38483f6b2949487493910160405180910390a25b50505050565b60008281526003602052604090205482906001600160a01b031680610c8f57604051630fb532db60e11b815260040160405180910390fd5b336001600160a01b03821614610cc357604051636c51fda960e11b81526001600160a01b03821660048201526024016103e6565b8383610ccf8282610986565b610cec576040516371e8313760e01b815260040160405180910390fd5b6000868152600460205260408120905b8154811015610dff57866001600160a01b0316828281548110610d2157610d21611356565b6000918252602090912001546001600160a01b031603610df75781546000908390610d4e90600190611401565b81548110610d5e57610d5e611356565b9060005260206000200160009054906101000a90046001600160a01b0316905080838381548110610d9157610d91611356565b9060005260206000200160006101000a8154816001600160a01b0302191690836001600160a01b0316021790555082805480610dcf57610dcf61149e565b600082815260209020810160001990810180546001600160a01b031916905501905550610dff565b600101610cfc565b506040516001600160a01b038716815287907f5274c432b5877b38569ae9babd361f86e4b34d0f36aef7f6c61cbba5f185cee19060200160405180910390a250505050505050565b60008433610e558282610986565b610e72576040516371e8313760e01b815260040160405180910390fd5b6000878152600360205260409020546001600160a01b0316610ea757604051630fb532db60e11b815260040160405180910390fd5b6001805460009182610eb883611485565b90915550600280549192506000919082610ed183611485565b9091555060408051606080820183528c825263ffffffff8b811660208085018281528d841686880181815260008c81526005855289902097518855915160019097018054925186166401000000000267ffffffffffffffff19909316979095169690961717909255845188815291820186905261ffff8e169482019490945290810192909252608082015290915033908a908c907f8645457ba936e1d3d8c504bb2e723e23a86101f27fa9cf2c552b9c1bf6ea95299060a00160405180910390a45098975050505050505050565b600081815260036020526040812054819081906060906001600160a01b0316610fdb57604051630fb532db60e11b815260040160405180910390fd5b6000858152600360209081526040808320546004835281842080548351818602810186019094528084526001600160601b03600160a01b84041695946001600160a01b0390931693919283919083018282801561106157602002820191906000526020600020905b81546001600160a01b03168152600190910190602001808311611043575b5050505050905093509350935093509193509193565b60006060820161ffff86168352602063ffffffff861660208501526060604085015281855180845260808601915060208701935060005b818110156110ca578451835293830193918301916001016110ae565b509098975050505050505050565b80356001600160a01b03811681146110ef57600080fd5b919050565b634e487b7160e01b600052604160045260246000fd5b60008060006060848603121561111f57600080fd5b8335925060206111308186016110d8565b9250604085013567ffffffffffffffff8082111561114d57600080fd5b818701915087601f83011261116157600080fd5b813581811115611173576111736110f4565b8060051b604051601f19603f83011681018181108582111715611198576111986110f4565b60405291825284820192508381018501918a8311156111b657600080fd5b938501935b828510156111d4578435845293850193928501926111bb565b8096505050505050509250925092565b600080604083850312156111f757600080fd5b82359150611207602084016110d8565b90509250929050565b60006020828403121561122257600080fd5b5035919050565b6000806040838503121561123c57600080fd5b8235915060208301356001600160601b038116811461125a57600080fd5b809150509250929050565b803563ffffffff811681146110ef57600080fd5b600080600080600060a0868803121561129157600080fd5b8535945060208601359350604086013561ffff811681146112b157600080fd5b92506112bf60608701611265565b91506112cd60808701611265565b90509295509295909350565b6000608082016001600160601b0387168352602067ffffffffffffffff8716602085015260018060a01b0380871660408601526080606086015282865180855260a08701915060208801945060005b81811015611346578551841683529484019491840191600101611328565b50909a9950505050505050505050565b634e487b7160e01b600052603260045260246000fd5b60006040820184835260206040602085015281855180845260608601915060208701935060005b818110156113af57845183529383019391830191600101611393565b5090979650505050505050565b6000825160005b818110156113dd57602081860181015185830152016113c3565b506000920191825250919050565b634e487b7160e01b600052601160045260246000fd5b81810381811115610a4257610a426113eb565b8082028115828204841417610a4257610a426113eb565b80820180821115610a4257610a426113eb565b6001600160601b0382811682821603908082111561145e5761145e6113eb565b5092915050565b6001600160601b0381811683821601908082111561145e5761145e6113eb565b600060018201611497576114976113eb565b5060010190565b634e487b7160e01b600052603160045260246000fdfea26469706673582212206bc41346b822393bda98f67cb869ba4d6f6e222bbd786b282ac69cd4c1304b7764736f6c63430008180033","linkReferences":{}},"methodIdentifiers":{"BASE_FEE()":"3d18651e","GAS_PRICE_LINK()":"a410347f","MAX_CONSUMERS()":"64d51a2a","acceptSubscriptionOwnerTransfer(uint256)":"b2a7cac5","addConsumer(uint256,address)":"bec4c08c","cancelSubscription(uint256,address)":"0ae09540","consumerIsAdded(uint256,address)":"953e9c75","createSubscription()":"a21a23e4","fulfillRandomWords(uint256,address)":"808974ff","fulfillRandomWordsWithOverride(uint256,address,uint256[])":"08e3898e","fundSubscription(uint256,uint96)":"4cf94d87","getConfig()":"c3f909d4","getFallbackWeiPerUnitLink()":"356dac71","getFeeConfig()":"5fbbc0d2","getRequestConfig()":"00012291","getSubscription(uint256)":"dc311dd3","pendingRequestExists(uint256)":"41af6c87","removeConsumer(uint256,address)":"cb631797","requestRandomWords(bytes32,uint256,uint16,uint32,uint32)":"d33d44c1","requestSubscriptionOwnerTransfer(uint256,address)":"dac83d29"},"id":4}