{"abi":[{"type":"constructor","inputs":[{"name":"priceFeed","type":"address","internalType":"address"},{"name":"interval","type":"uint256","internalType":"uint256"},{"name":"vrfCoordinator","type":"address","internalType":"address"},{"name":"gasLane","type":"bytes32","internalType":"bytes32"},{"name":"subscriptionId","type":"uint256","internalType":"uint256"},{"name":"callbackGasLimit","type":"uint32","internalType":"uint32"},{"name":"minimumUsd","type":"uint256","internalType":"uint256"}],"stateMutability":"nonpayable"},{"type":"fallback","stateMutability":"payable"},{"type":"receive","stateMutability":"payable"},{"type":"function","name":"CheckUpkeep","inputs":[{"name":"","type":"bytes","internalType":"bytes"}],"outputs":[{"name":"upkeepNeeded","type":"bool","internalType":"bool"},{"name":"","type":"bytes","internalType":"bytes"}],"stateMutability":"nonpayable"},{"type":"function","name":"_editComment","inputs":[{"name":"_postId","type":"uint256","internalType":"uint256"},{"name":"_commentId","type":"uint256","internalType":"uint256"},{"name":"_content","type":"string","internalType":"string"}],"outputs":[],"stateMutability":"nonpayable"},{"type":"function","name":"changeUsername","inputs":[{"name":"_userId","type":"uint256","internalType":"uint256"},{"name":"_newNickName","type":"string","internalType":"string"}],"outputs":[],"stateMutability":"nonpayable"},{"type":"function","name":"createComment","inputs":[{"name":"_postId","type":"uint256","internalType":"uint256"},{"name":"_content","type":"string","internalType":"string"}],"outputs":[],"stateMutability":"nonpayable"},{"type":"function","name":"createPost","inputs":[{"name":"_content","type":"string","internalType":"string"},{"name":"_imgHash","type":"string","internalType":"string"}],"outputs":[],"stateMutability":"nonpayable"},{"type":"function","name":"deleteComment","inputs":[{"name":"_postId","type":"uint256","internalType":"uint256"},{"name":"_commentId","type":"uint256","internalType":"uint256"}],"outputs":[],"stateMutability":"payable"},{"type":"function","name":"deletePost","inputs":[{"name":"_postId","type":"uint256","internalType":"uint256"}],"outputs":[],"stateMutability":"payable"},{"type":"function","name":"downvote","inputs":[{"name":"_postId","type":"uint256","internalType":"uint256"}],"outputs":[],"stateMutability":"nonpayable"},{"type":"function","name":"editComment","inputs":[{"name":"_postId","type":"uint256","internalType":"uint256"},{"name":"_commentId","type":"uint256","internalType":"uint256"},{"name":"_content","type":"string","internalType":"string"}],"outputs":[],"stateMutability":"nonpayable"},{"type":"function","name":"editPost","inputs":[{"name":"_postId","type":"uint256","internalType":"uint256"},{"name":"_content","type":"string","internalType":"string"},{"name":"_imgHash","type":"string","internalType":"string"}],"outputs":[],"stateMutability":"nonpayable"},{"type":"function","name":"editUserProfile","inputs":[{"name":"_userId","type":"uint256","internalType":"uint256"},{"name":"_bio","type":"string","internalType":"string"},{"name":"_profileImageHash","type":"string","internalType":"string"},{"name":"_newName","type":"string","internalType":"string"}],"outputs":[],"stateMutability":"nonpayable"},{"type":"function","name":"getAddressFromUsername","inputs":[{"name":"_username","type":"string","internalType":"string"}],"outputs":[{"name":"","type":"address","internalType":"address"}],"stateMutability":"view"},{"type":"function","name":"getAllPosts","inputs":[],"outputs":[{"name":"","type":"tuple[]","internalType":"struct ChainSphereUserProfile.Post[]","components":[{"name":"postId","type":"uint256","internalType":"uint256"},{"name":"content","type":"string","internalType":"string"},{"name":"imgHash","type":"string","internalType":"string"},{"name":"timestamp","type":"uint256","internalType":"uint256"},{"name":"upvotes","type":"uint256","internalType":"uint256"},{"name":"downvotes","type":"uint256","internalType":"uint256"},{"name":"author","type":"address","internalType":"address"},{"name":"authorNickName","type":"string","internalType":"string"},{"name":"authorFullName","type":"string","internalType":"string"},{"name":"authorProfileImgHash","type":"string","internalType":"string"}]}],"stateMutability":"view"},{"type":"function","name":"getBalance","inputs":[],"outputs":[{"name":"","type":"uint256","internalType":"uint256"}],"stateMutability":"view"},{"type":"function","name":"getCommentByCommentId","inputs":[{"name":"_commentId","type":"uint256","internalType":"uint256"}],"outputs":[{"name":"","type":"tuple","internalType":"struct ChainSphereComments.Comment","components":[{"name":"commentId","type":"uint256","internalType":"uint256"},{"name":"author","type":"address","internalType":"address"},{"name":"postId","type":"uint256","internalType":"uint256"},{"name":"content","type":"string","internalType":"string"},{"name":"timestamp","type":"uint256","internalType":"uint256"},{"name":"likesCount","type":"uint256","internalType":"uint256"},{"name":"authorNickName","type":"string","internalType":"string"},{"name":"authorFullName","type":"string","internalType":"string"},{"name":"authorProfileImgHash","type":"string","internalType":"string"}]}],"stateMutability":"view"},{"type":"function","name":"getCommentLikersByPostIdAndCommentId","inputs":[{"name":"_postId","type":"uint256","internalType":"uint256"},{"name":"_commentId","type":"uint256","internalType":"uint256"}],"outputs":[{"name":"","type":"address[]","internalType":"address[]"}],"stateMutability":"view"},{"type":"function","name":"getCommentsByPostId","inputs":[{"name":"_postId","type":"uint256","internalType":"uint256"}],"outputs":[{"name":"","type":"tuple[]","internalType":"struct ChainSphereComments.Comment[]","components":[{"name":"commentId","type":"uint256","internalType":"uint256"},{"name":"author","type":"address","internalType":"address"},{"name":"postId","type":"uint256","internalType":"uint256"},{"name":"content","type":"string","internalType":"string"},{"name":"timestamp","type":"uint256","internalType":"uint256"},{"name":"likesCount","type":"uint256","internalType":"uint256"},{"name":"authorNickName","type":"string","internalType":"string"},{"name":"authorFullName","type":"string","internalType":"string"},{"name":"authorProfileImgHash","type":"string","internalType":"string"}]}],"stateMutability":"view"},{"type":"function","name":"getContractOwner","inputs":[],"outputs":[{"name":"","type":"address","internalType":"address"}],"stateMutability":"view"},{"type":"function","name":"getIdsOfEligiblePosts","inputs":[],"outputs":[{"name":"","type":"uint256[]","internalType":"uint256[]"}],"stateMutability":"view"},{"type":"function","name":"getIdsOfRecentPosts","inputs":[],"outputs":[{"name":"","type":"uint256[]","internalType":"uint256[]"}],"stateMutability":"view"},{"type":"function","name":"getIdsOfRecentWinningPosts","inputs":[],"outputs":[{"name":"","type":"uint256[]","internalType":"uint256[]"}],"stateMutability":"view"},{"type":"function","name":"getPostById","inputs":[{"name":"_postId","type":"uint256","internalType":"uint256"}],"outputs":[{"name":"","type":"tuple","internalType":"struct ChainSphereUserProfile.Post","components":[{"name":"postId","type":"uint256","internalType":"uint256"},{"name":"content","type":"string","internalType":"string"},{"name":"imgHash","type":"string","internalType":"string"},{"name":"timestamp","type":"uint256","internalType":"uint256"},{"name":"upvotes","type":"uint256","internalType":"uint256"},{"name":"downvotes","type":"uint256","internalType":"uint256"},{"name":"author","type":"address","internalType":"address"},{"name":"authorNickName","type":"string","internalType":"string"},{"name":"authorFullName","type":"string","internalType":"string"},{"name":"authorProfileImgHash","type":"string","internalType":"string"}]}],"stateMutability":"view"},{"type":"function","name":"getRecentTrendingPosts","inputs":[],"outputs":[{"name":"","type":"tuple[]","internalType":"struct ChainSphereUserProfile.Post[]","components":[{"name":"postId","type":"uint256","internalType":"uint256"},{"name":"content","type":"string","internalType":"string"},{"name":"imgHash","type":"string","internalType":"string"},{"name":"timestamp","type":"uint256","internalType":"uint256"},{"name":"upvotes","type":"uint256","internalType":"uint256"},{"name":"downvotes","type":"uint256","internalType":"uint256"},{"name":"author","type":"address","internalType":"address"},{"name":"authorNickName","type":"string","internalType":"string"},{"name":"authorFullName","type":"string","internalType":"string"},{"name":"authorProfileImgHash","type":"string","internalType":"string"}]}],"stateMutability":"nonpayable"},{"type":"function","name":"getRecentWinningPosts","inputs":[],"outputs":[{"name":"","type":"tuple[]","internalType":"struct ChainSphereUserProfile.Post[]","components":[{"name":"postId","type":"uint256","internalType":"uint256"},{"name":"content","type":"string","internalType":"string"},{"name":"imgHash","type":"string","internalType":"string"},{"name":"timestamp","type":"uint256","internalType":"uint256"},{"name":"upvotes","type":"uint256","internalType":"uint256"},{"name":"downvotes","type":"uint256","internalType":"uint256"},{"name":"author","type":"address","internalType":"address"},{"name":"authorNickName","type":"string","internalType":"string"},{"name":"authorFullName","type":"string","internalType":"string"},{"name":"authorProfileImgHash","type":"string","internalType":"string"}]}],"stateMutability":"nonpayable"},{"type":"function","name":"getUsdValueOfEthAmount","inputs":[{"name":"_ethAmount","type":"uint256","internalType":"uint256"}],"outputs":[{"name":"","type":"uint256","internalType":"uint256"}],"stateMutability":"view"},{"type":"function","name":"getUser","inputs":[{"name":"_userAddress","type":"address","internalType":"address"}],"outputs":[{"name":"","type":"tuple","internalType":"struct ChainSphereUserProfile.User","components":[{"name":"id","type":"uint256","internalType":"uint256"},{"name":"userAddress","type":"address","internalType":"address"},{"name":"nickName","type":"string","internalType":"string"},{"name":"fullNameOfUser","type":"string","internalType":"string"},{"name":"bio","type":"string","internalType":"string"},{"name":"profileImageHash","type":"string","internalType":"string"}]}],"stateMutability":"view"},{"type":"function","name":"getUserById","inputs":[{"name":"_userId","type":"uint256","internalType":"uint256"}],"outputs":[{"name":"","type":"tuple","internalType":"struct ChainSphereUserProfile.User","components":[{"name":"id","type":"uint256","internalType":"uint256"},{"name":"userAddress","type":"address","internalType":"address"},{"name":"nickName","type":"string","internalType":"string"},{"name":"fullNameOfUser","type":"string","internalType":"string"},{"name":"bio","type":"string","internalType":"string"},{"name":"profileImageHash","type":"string","internalType":"string"}]}],"stateMutability":"view"},{"type":"function","name":"getUserComments","inputs":[{"name":"_userAddress","type":"address","internalType":"address"}],"outputs":[{"name":"","type":"tuple[]","internalType":"struct ChainSphereComments.Comment[]","components":[{"name":"commentId","type":"uint256","internalType":"uint256"},{"name":"author","type":"address","internalType":"address"},{"name":"postId","type":"uint256","internalType":"uint256"},{"name":"content","type":"string","internalType":"string"},{"name":"timestamp","type":"uint256","internalType":"uint256"},{"name":"likesCount","type":"uint256","internalType":"uint256"},{"name":"authorNickName","type":"string","internalType":"string"},{"name":"authorFullName","type":"string","internalType":"string"},{"name":"authorProfileImgHash","type":"string","internalType":"string"}]}],"stateMutability":"view"},{"type":"function","name":"getUserNameFromAddress","inputs":[{"name":"_userAddress","type":"address","internalType":"address"}],"outputs":[{"name":"","type":"string","internalType":"string"}],"stateMutability":"view"},{"type":"function","name":"getUserPosts","inputs":[{"name":"_userAddress","type":"address","internalType":"address"}],"outputs":[{"name":"","type":"tuple[]","internalType":"struct ChainSphereUserProfile.Post[]","components":[{"name":"postId","type":"uint256","internalType":"uint256"},{"name":"content","type":"string","internalType":"string"},{"name":"imgHash","type":"string","internalType":"string"},{"name":"timestamp","type":"uint256","internalType":"uint256"},{"name":"upvotes","type":"uint256","internalType":"uint256"},{"name":"downvotes","type":"uint256","internalType":"uint256"},{"name":"author","type":"address","internalType":"address"},{"name":"authorNickName","type":"string","internalType":"string"},{"name":"authorFullName","type":"string","internalType":"string"},{"name":"authorProfileImgHash","type":"string","internalType":"string"}]}],"stateMutability":"view"},{"type":"function","name":"getUserVoteStatus","inputs":[{"name":"_postId","type":"uint256","internalType":"uint256"}],"outputs":[{"name":"","type":"bool","internalType":"bool"}],"stateMutability":"view"},{"type":"function","name":"getUsernameOfRecentWinners","inputs":[],"outputs":[{"name":"","type":"string[]","internalType":"string[]"}],"stateMutability":"nonpayable"},{"type":"function","name":"likeComment","inputs":[{"name":"_postId","type":"uint256","internalType":"uint256"},{"name":"_commentId","type":"uint256","internalType":"uint256"}],"outputs":[],"stateMutability":"nonpayable"},{"type":"function","name":"performUpkeep","inputs":[{"name":"","type":"bytes","internalType":"bytes"}],"outputs":[],"stateMutability":"nonpayable"},{"type":"function","name":"rawFulfillRandomWords","inputs":[{"name":"requestId","type":"uint256","internalType":"uint256"},{"name":"randomWords","type":"uint256[]","internalType":"uint256[]"}],"outputs":[],"stateMutability":"nonpayable"},{"type":"function","name":"registerUser","inputs":[{"name":"_fullNameOfUser","type":"string","internalType":"string"},{"name":"_username","type":"string","internalType":"string"}],"outputs":[],"stateMutability":"nonpayable"},{"type":"function","name":"transferContractBalance","inputs":[{"name":"_to","type":"address","internalType":"address payable"}],"outputs":[],"stateMutability":"nonpayable"},{"type":"function","name":"upvote","inputs":[{"name":"_postId","type":"uint256","internalType":"uint256"}],"outputs":[],"stateMutability":"nonpayable"},{"type":"event","name":"CommentCreated","inputs":[{"name":"commentId","type":"uint256","indexed":true,"internalType":"uint256"},{"name":"postAuthor","type":"string","indexed":false,"internalType":"string"},{"name":"commentAuthor","type":"string","indexed":false,"internalType":"string"},{"name":"postId","type":"uint256","indexed":false,"internalType":"uint256"}],"anonymous":false},{"type":"event","name":"Downvoted","inputs":[{"name":"postId","type":"uint256","indexed":false,"internalType":"uint256"},{"name":"posthAuthorName","type":"string","indexed":false,"internalType":"string"},{"name":"downvoterName","type":"string","indexed":false,"internalType":"string"}],"anonymous":false},{"type":"event","name":"PickedWinner","inputs":[{"name":"winner","type":"address","indexed":false,"internalType":"address"}],"anonymous":false},{"type":"event","name":"PostCreated","inputs":[{"name":"postId","type":"uint256","indexed":false,"internalType":"uint256"},{"name":"authorName","type":"string","indexed":false,"internalType":"string"}],"anonymous":false},{"type":"event","name":"PostEdited","inputs":[{"name":"postId","type":"uint256","indexed":false,"internalType":"uint256"},{"name":"authorName","type":"string","indexed":false,"internalType":"string"}],"anonymous":false},{"type":"event","name":"PostLiked","inputs":[{"name":"postId","type":"uint256","indexed":true,"internalType":"uint256"},{"name":"postAuthor","type":"address","indexed":true,"internalType":"address"},{"name":"liker","type":"address","indexed":true,"internalType":"address"}],"anonymous":false},{"type":"event","name":"RequestWinningAuthor","inputs":[{"name":"requestId","type":"uint256","indexed":false,"internalType":"uint256"}],"anonymous":false},{"type":"event","name":"RewardSent","inputs":[{"name":"user","type":"address","indexed":true,"internalType":"address"},{"name":"amount","type":"uint256","indexed":false,"internalType":"uint256"}],"anonymous":false},{"type":"event","name":"Upvoted","inputs":[{"name":"postId","type":"uint256","indexed":false,"internalType":"uint256"},{"name":"posthAuthorName","type":"string","indexed":false,"internalType":"string"},{"name":"upvoterName","type":"string","indexed":false,"internalType":"string"}],"anonymous":false},{"type":"event","name":"UserRegistered","inputs":[{"name":"id","type":"uint256","indexed":true,"internalType":"uint256"},{"name":"userAddress","type":"address","indexed":true,"internalType":"address"},{"name":"username","type":"string","indexed":false,"internalType":"string"}],"anonymous":false},{"type":"error","name":"ChainSphere__AlreadyVoted","inputs":[]},{"type":"error","name":"ChainSphere__BatchTransferFailed","inputs":[{"name":"winner","type":"address","internalType":"address"}]},{"type":"error","name":"ChainSphere__NotCommentOwner","inputs":[]},{"type":"error","name":"ChainSphere__NotOwner","inputs":[]},{"type":"error","name":"ChainSphere__NotPostOwner","inputs":[]},{"type":"error","name":"ChainSphere__NotProfileOwner","inputs":[]},{"type":"error","name":"ChainSphere__OwnerCannotVote","inputs":[]},{"type":"error","name":"ChainSphere__PaymentNotEnough","inputs":[]},{"type":"error","name":"ChainSphere__PostDoesNotExist","inputs":[]},{"type":"error","name":"ChainSphere__TransferFailed","inputs":[]},{"type":"error","name":"ChainSphere__UpkeepNotNeeded","inputs":[{"name":"balance","type":"uint256","internalType":"uint256"},{"name":"numOfEligibleAuthors","type":"uint256","internalType":"uint256"}]},{"type":"error","name":"ChainSphere__UserDoesNotExist","inputs":[]},{"type":"error","name":"ChainSphere__UsernameAlreadyTaken","inputs":[]},{"type":"error","name":"OnlyCoordinatorCanFulfill","inputs":[{"name":"have","type":"address","internalType":"address"},{"name":"want","type":"address","internalType":"address"}]}],"bytecode":{"object":"0x610180346200013e57601f6200362438819003918201601f19168301916001600160401b03831184841017620001435780849260e0946040528339810103126200013e576200004e8162000159565b602082015191620000626040820162000159565b9260608201519260808301519160a08401519363ffffffff851685036200013e5760c001518660805260018060a01b038093169060018060a01b031990828260065416176006558060a05260c05233816020541617602055601e541617601e5560e05242601f5561010094168452610120928352610140908152610160918252604051926134b594856200016f863960805185611c5c015260a051858181611787015261213a015260c05185505060e051858181610402015261112401525184611253015251836111c2015251826111ea015251816112170152f35b600080fd5b634e487b7160e01b600052604160045260246000fd5b51906001600160a01b03821682036200013e5756fe6040608081526004908136101561001d575b5050361561001b57005b005b600091823560e01c806301ddf07014612274578063094cd5ee146120f15780630f4b2d9c146120c557806312065fe01461208a5780631d2e4afd14611f205780631fe543e314611bdc5780632a04c64514611a885780632b3c6e22146119fb5780632d492c83146119dd57806330561100146119b457806330ad4ba9146118a857806331a4bcb51461175f578063392338f51461154e57806340a179851461140f578063442890d5146113e75780634585e33b1461107e578063479721a91461106f57806349248d3814610fe15780634e82c13414610f925780636372af8414610f4e57806364e9589514610f115780636ed6da9e14610edb5780636f77926b14610e9657806372d4e38214610dea5780637461d85814610bb25780637a0726bd14610a165780638c262013146109925780638dc4a066146108dd57806396f11ac814610870578063984d1015146108475780639a2194a9146107ba578063a0e918211461069b578063a4dd41d014610666578063bf0ac63c14610524578063c9fbacf31461037d578063e96c520b14610345578063f31fdad41461023d5763fa561152146101cc5750610011565b34610239576101da366127aa565b9390929091906001600160a01b0360206101fc866101f786612ee5565b61287e565b51015116330361022b57506102289392600392610221928752601560205286206128a8565b5001612966565b80f35b82516314fd685b60e21b8152fd5b8280fd5b508290346103415760209081600319360112610239578035906001600160a01b03908160c061026b85613390565b015116331461033357338552600d8452858520838652845260ff868620541661032557507fd7ad3e52dbe8b445d900fd8aa659c95d5b75bb6733c12e7f22d048963bd39ed59394600161030161031f93338952600d8752838920868a5287528389208360ff1982541617905560056102e287612b7b565b50016102ee8154612bd2565b9055858952600b87528389205416612ab3565b9433885252610314600282882001612db9565b905193849384612be1565b0390a180f35b8551636d830dbf60e11b8152fd5b855163e900992360e01b8152fd5b5080fd5b50913461037a57602036600319011261037a5750600654602092610373916001600160a01b03169035612c22565b9051908152f35b80fd5b508290346103415760203660031901126103415780356001600160401b038111610239573660238201121561023957908160246103bf9336930135910161256c565b508082516103cc816124df565b526013548160135580610505575b50601381526103e7613214565b805190825b8281106104895784610400601f5442612b58565b7f0000000000000000000000000000000000000000000000000000000000000000111547151561042e6131b8565b5115159082610481575b5081610479575b50610475825161044e816124fa565b600381526203078360ec1b6020820152835193849315158452806020850152830190612359565b0390f35b90508261043f565b915083610438565b610493818361287e565b5160a06104ac60806104a484613390565b015192613390565b01516104b88183612b58565b156104fc576104c691612b58565b905b60019182116104f657815b6104de575b016103ec565b6104f16104eb828561287e565b516132b9565b6104d8565b846104d3565b505083906104c8565b61051e90600080516020613460833981519152016128fe565b826103da565b508290346103415760603660031901126103415780356001600160401b036024358181116106625761055990369085016125a8565b906044359081116106625761057190369085016125a8565b926001600160a01b0360c061058585613390565b015116330361065457507f7009e6824c3ecb1321da2ebabc18901b48d900a97f978c5a93dd3ba8cfe5903593946105c461031f92600161022186612b7b565b805193602094858101908682526105ef816105e186820186612359565b03601f198101835282612530565b519020825186810190878252898582015284815261060c81612515565b5190200361063f575b503386526001845261062b600282882001612db9565b908080519586958652850152830190612359565b61064e90600261022186612b7b565b86610615565b855163b5f6908d60e01b8152fd5b8480fd5b5034610239576020366003190112610239578160209360ff92338252600d865282822090358252855220541690519015158152f35b509034610239576106ab36612765565b602092916001600160a01b03846106c13361341f565b015116156107aa57808652601884528286208287528452828620338752845260ff8387205416156106f0578580f35b8086526018845282862082875284528286203387528452828620600160ff1982541617905580865260158452600561072a838589206128a8565b50016107368154612bd2565b905585526019835281852090855282528320805492600160401b84101561079757600184018083558410156107845750835282200180546001600160a01b0319163317905538808080808580f35b634e487b7160e01b855260329052602484fd5b634e487b7160e01b855260419052602484fd5b825163243ba64d60e21b81528590fd5b5082903461034157602090602060031936011261023957356001600160a01b03811690819003610239578252600e6020528282208054916107fa83612606565b9361080786519586612530565b83855291825260208083209085015b84841061082a5786518061047588826126c5565b600a83600192610839856130aa565b815201920193019290610816565b50503461034157816003193601126103415761047590610865613214565b905191829182612729565b50346102395760203660031901126102395780356001600160a01b038181169291839003610662576020541633036108cf5750828080809347908282156108c6575bf1156108bc575080f35b51903d90823e3d90fd5b506108fc6108b2565b8251633c6a5daf60e21b8152fd5b82843461037a57906108ee36612765565b92908152602092601984528282209082528352818120908251808584549182815201908194845286842090845b8181106109755750505081610931910382612530565b83519485948186019282875251809352850193925b82811061095557505050500390f35b83516001600160a01b031685528695509381019392810192600101610946565b82546001600160a01b03168452928801926001928301920161091b565b82843461037a578060031936011261037a578151918291601454808552602080950194601483527fce6d7b5282bd9a3661ae061feed1dbda4e52ab073b1f9285be6e155d9c38d4ec92905b8282106109ff5761047586866109f5828b0383612530565b5191829182612729565b8354875295860195600193840193909101906109dd565b50829034610341578160031936011261034157601454825b818110610b0857505050600554610a4481612606565b91610a5184519384612530565b8183526005815260209283810192827f036b6384b5eca791c62761152d0c79bb0604c104a5fb6f4eb0703f3154bb3db0855b838310610ae457505050508451938085019181865251809252858501958260051b8601019392955b828710610ab85785850386f35b909192938280610ad4600193603f198a82030186528851612359565b9601920196019592919092610aab565b6001888192610af6859b98999b612db9565b81520192019201919096949396610a83565b610b36610b2e60c0610b1984613073565b90546001600160a01b03939160031b1c613390565b015116612ab3565b906005918254600160401b811015610b9f57600193848201808255821015610b8c578752610b8691907f036b6384b5eca791c62761152d0c79bb0604c104a5fb6f4eb0703f3154bb3db001612966565b01610a2e565b634e487b7160e01b885260328752602488fd5b634e487b7160e01b875260418652602487fd5b509034610239576080366003190112610239578135916001600160401b0391602435838111610de657610be890369084016125a8565b92604435818111610de257610c0090369085016125a8565b90606435908111610de257610c1890369085016125a8565b936020936001600160a01b038086610c2f3361341f565b01511615610dd357610c3f612b26565b5085610c53610c4d8a612ff5565b506133bb565b0151163303610dc55783519185830186815283610c7287820184612359565b0393610c86601f1995868101835282612530565b5190208551878101908882528b88820152878152610ca381612515565b51902003610d9c575b5050825184810190858252610cd381610cc787820187612359565b03848101835282612530565b5190208351858101908682528986820152858152610cf081612515565b51902003610d72575b610d1f83519182610d138782019588875287830190612359565b03908101835282612530565b5190208151838101908482528784820152838152610d3c81612515565b51902003610d48578480f35b6001600392610d5e8585610221610d6a99612ff5565b33875252842001612966565b388080808480f35b610d8182600561022189612ff5565b33875260018452610d97826005858a2001612966565b610cf9565b81610dae82610dbe946102218c612ff5565b338a5260018752858a2001612966565b3880610cac565b835163a736c1d760e01b8152fd5b50835163243ba64d60e21b8152fd5b8680fd5b8580fd5b50903461023957610dfa3661277b565b9290916001600160a01b03806020610e113361341f565b01511615610e8857610e21612b26565b50806020610e31610c4d87612ff5565b0151163303610e7a5781516020818751610e4e8183858c01612336565b8101868152030190205416610e6d578461022885600261022187612ff5565b51630fa2819960e31b8152fd5b505163a736c1d760e01b8152fd5b505163243ba64d60e21b8152fd5b50346102395760203660031901126102395735916001600160a01b038316830361037a5750610ed061047592610eca612b26565b5061341f565b9051918291826127dc565b50913461037a57602036600319011261037a5750610ed0610c4d61047593610f01612b26565b50610f0a612b26565b5035612ff5565b50913461037a57602036600319011261037a5750610f3b61047592610f34612ad6565b5035613390565b905191829160208352602083019061261d565b50346102395760203660031901126102395735916001600160a01b038316830361037a5750610f7f61047592612ab3565b9051918291602083526020830190612359565b50913461037a57602036600319011261037a578235906001600160401b03821161037a57506020926001600160a01b0391610fd891610fd3913691016125a8565b612fcf565b54169051908152f35b50913461037a57602036600319011261037a57823592610fff612a6b565b50611008612a6b565b50601a5484101561105c5750600961047593601a6110499352027f057c384a7d1c54f3a1b2e5e67b2617b8224fdfd1ea7234eea573a6ff665ff63e01612e5c565b905191829160208352602083019061237e565b634e487b7160e01b825260329052602490fd5b5034610239576101da366127aa565b50903461023957602090816003193601126112fe5782356001600160401b03808211610de65736602383011215610de65781850135908111610de657369101602401116112fe5780516110d0816124fa565b600160fd1b836001926001815201528482516110eb816124df565b5260135485601355806113c8575b5060138552611106613214565b805190865b82811061135e5750505050611122601f5442612b58565b7f000000000000000000000000000000000000000000000000000000000000000011154715156111506131b8565b5115159082611356575b508161134e575b506203078360ec1b838351611175816124fa565b6003815201521561132957601461118a6131b8565b51116113125760015b601e805463ffffffff60a01b191660a092831b63ffffffff60a01b161790819055825163d33d44c160e01b81527f0000000000000000000000000000000000000000000000000000000000000000958101959095527f00000000000000000000000000000000000000000000000000000000000000006024860152600360448601527f000000000000000000000000000000000000000000000000000000000000000063ffffffff9081166064870152911c166084840152818360a481877f00000000000000000000000000000000000000000000000000000000000000006001600160a01b03165af19081156113095784916112b6575b7f0aa5a4e8e459a1f6485b98194bbe2e07647a58e7dd6d2a9923441b4d569c3077935051908152a180f35b90508183813d8311611302575b6112cd8183612530565b810103126112fe577f0aa5a4e8e459a1f6485b98194bbe2e07647a58e7dd6d2a9923441b4d569c307792519061128b565b8380fd5b503d6112c3565b513d85823e3d90fd5b63ffffffff600a6113216131b8565b510616611193565b82604491476113366131b8565b51915163ae97b49160e01b8152928301526024820152fd5b905038611161565b91503861115a565b808461136b81938561287e565b5160a061137c60806104a484613390565b01516113888183612b58565b156113c05761139691612b58565b106113ba57815b6113a8575b0161110b565b6113b56104eb828561287e565b6113a2565b8861139d565b505089611396565b6113e190600080516020613460833981519152016128fe565b386110f9565b5050346103415781600319360112610341576020805491516001600160a01b03909216825290f35b50919034610341576114203661277b565b602094909291906001600160a01b03808761143a3361341f565b0151161561153f5760c061144d84613390565b01511615801561152d575b61151f57508394816017926102289652601d825283872080549061147b82612bd2565b9055846114873361341f565b015160606114943361341f565b015160a06114a13361341f565b0151918751986114b08a6124c3565b848a5233878b015285898b015260608a01524260808a01528a60a08a015260c089015260e0880152610100870152818852601683528488209088528252838720336001600160601b0360a01b825416179055865260158152611514848488206132ef565b3386525283206132ef565b8251630fda044d60e11b8152fd5b50611536613141565b51821015611458565b50825163243ba64d60e21b8152fd5b509190346103415761155f366125c3565b6020929091906001600160a01b03846115773361341f565b0151161561175057600754928161158d3361341f565b0151606061159a3361341f565b01519060a06115a83361341f565b0151928451956115b787612476565b87875288870152848601524260608601528760808601528760a08601523360c086015260e085015261010084015261012083015233855260018452611600600282872001612db9565b91338652600e8552818620908154600160401b928382101561173d57826116308361163693600182018155612bb6565b90612d80565b81518852600f8752838820556007548281101561172a57816116308260016116619401600755612b7b565b519060085490811015611717576001810180600855811015611704577ff3f7a9fe364faab93b216da50a3214154f22a0a2b415b23a84c8169e8b636ee3015533808652600a8552818620849055838652600b855281862080546001600160a01b031916909117905580519283529282018390527f3d4335cbfac350aa27a3fa09060b4691656ecbe3033f4d953849c2f755f230d192829161031f91830190612359565b634e487b7160e01b875260328852602487fd5b634e487b7160e01b875260418852602487fd5b634e487b7160e01b885260418952602488fd5b634e487b7160e01b895260418a52602489fd5b5163243ba64d60e21b81528590fd5b509061176a36612765565b60065490936001600160a01b03929161178590841634612c22565b7f00000000000000000000000000000000000000000000000000000000000000001161189a57602092836117bc876101f786612ee5565b51015116330361188c5750926008926015611879938660009789528282528760036117e987878d206128a8565b50016117fe6117f882546128c4565b8261293c565b55808952828252600161181386868c206128a8565b50016001600160601b0360a01b815416905580895282825287600661183a87878d206128a8565b50016118496117f882546128c4565b5580895282825287600761185f87878d206128a8565b500161186e6117f882546128c4565b5588525285206128a8565b50016118886117f882546128c4565b5580f35b83516314fd685b60e21b8152fd5b83516340956f2160e01b8152fd5b50829034610341578160031936011261034157601454825b818110611942575050506010546118d681612606565b916118e384519384612530565b8183526010815260207f1b6847dc741a1b0cd08d278845f9d819d87b734759afb55fe2de5cb82a9ae6728185015b8484106119255786518061047588826126c5565b600a83600192611934856130aa565b815201920193019290611911565b61195a61194e82613073565b90549060031b1c613390565b906010918254600160401b811015610b9f57600193848201808255821015610b8c576119ae9291600a918952027f1b6847dc741a1b0cd08d278845f9d819d87b734759afb55fe2de5cb82a9ae67201612ce5565b016118c0565b505034610341578160031936011261034157610475906119d2613141565b9051918291826126c5565b505034610341578160031936011261034157610475906108656131b8565b5082903461034157602090602060031936011261023957356001600160a01b038116908190036102395782526017602052828220805491611a3b83612606565b93611a4886519586612530565b83855291825260208083209085015b848410611a6b578651806104758882612412565b600983600192611a7a85612e5c565b815201920193019290611a57565b508290346103415781600319360112610341576013805490835b828110611b23578585601154611ab781612606565b91611ac484519384612530565b8183526011815260207f31ecc21a745e3968a04e9570e4425bc18fa8019c68028196b546d1669c200c688185015b848410611b065786518061047588826126c5565b600a83600192611b15856130aa565b815201920193019290611af2565b8154811015611bc957818552611b49816000805160206134608339815191520154613390565b906011918254600160401b811015611bb657600193848201808255821015611ba357611b9d9291600a918a52027f31ecc21a745e3968a04e9570e4425bc18fa8019c68028196b546d1669c200c6801612ce5565b01611aa2565b634e487b7160e01b895260328852602489fd5b634e487b7160e01b885260418752602488fd5b634e487b7160e01b855260328452602485fd5b509034610239578060031936011261023957602480356001600160401b03811161066257366023820112156106625780840135611c1881612606565b92611c2585519485612530565b8184526020926020850182819460051b83010191368311611f1c5783869101915b838310611f0c57506001600160a01b03959250507f00000000000000000000000000000000000000000000000000000000000000008516905033819003611eef5750878651611c94816124df565b526008548860085580611eb1575b506008885242601f55878651611cb7816124df565b526014548860145580611e73575b50601488528451600191828203611d8e575050506064611ce447612c0c565b04935115611d7d5750858093819360c0611d2f611d17611d0f869751611d086131b8565b519061285e565b6101f76131b8565b51611d2181613282565b611d29612ad6565b50613390565b0151167fb112587e57bfa970257f3d54fc52859c6300f6bd7a982462c320fed45c2530ed60208851838152a15af1611d65613043565b5015611d7057505080f35b51630e352ebb60e41b8152fd5b634e487b7160e01b87526032865286fd5b9294909598979350611da296919647612c0c565b8660640290606482048803611e61578115611e4f570490885b878110611dd057505050505050505050905080f35b8160c0611df0611d17611d0f8f86611de79161287e565b51611d086131b8565b0151167fb112587e57bfa970257f3d54fc52859c6300f6bd7a982462c320fed45c2530ed868651838152a18a80808087855af1611e2b613043565b5015611e3957508801611dbb565b94505050505191635e680b6b60e01b8352820152fd5b634e487b7160e01b8a5260128652868afd5b634e487b7160e01b8a5260118652868afd5b7fce6d7b5282bd9a3661ae061feed1dbda4e52ab073b1f9285be6e155d9c38d4ec908101905b818110611ea65750611cc5565b898155600101611e99565b7ff3f7a9fe364faab93b216da50a3214154f22a0a2b415b23a84c8169e8b636ee3908101905b818110611ee45750611ca2565b898155600101611ed7565b865163073e64fd60e21b815233818a015280840191909152604490fd5b8235815291810191869101611c46565b8980fd5b503461023957611f2f366125c3565b90926001600160a01b03611f4283612fcf565b541661207b5760025492611f5584612bd2565b600255815190611f64826124a8565b8482526020953387840152848484015260608301528251611f84816124df565b87815260808301528251611f97816124df565b87815260a083015233875260018652611fb282848920612f70565b338752600386528483882055825186818651611fd18183858b01612336565b81018481520301902080546001600160a01b031916331790558654600160401b8110156120685780600161200792018955612ff5565b91909161205657509161203f7f8d76d60617424d83544323e2322cb8d86537451c9b3d991886ce6f4721e3865e949261205094612f70565b519182918683523396830190612359565b0390a380f35b634e487b7160e01b8852879052602487fd5b634e487b7160e01b885260418252602488fd5b51630fa2819960e31b81529050fd5b50913461037a578060031936011261037a57506020546001600160a01b031633036120b85751478152602090f35b51633c6a5daf60e21b8152fd5b50913461037a57602036600319011261037a57506120e66104759235612ee5565b905191829182612412565b50906020806003193601126112fe5782359261210b612ad6565b506001600160a01b03908160c061212187613390565b015116330361226657612138826006541634612c22565b7f00000000000000000000000000000000000000000000000000000000000000001161189a575092600192600e61187993600096600661217786612b7b565b5001541661220c845161218981612476565b8681528551612197816124df565b8b81528482015285516121a9816124df565b8b8152868201528a60608201528a60808201528a60a08201528a60c082015285516121d3816124df565b8b815260e082015285516121e6816124df565b8b815261010082015285516121fa816124df565b8b815261012082015261163087612b7b565b848952600b8252838920946001600160601b0360a01b95868154169055898052600a835280858b20558952600f82528389205494818a52838352600661225487878d20612bb6565b50019081541690558852528520612bb6565b835163b5f6908d60e01b8152fd5b509190346103415760209081600319360112610239578335906001600160a01b038060c06122a185613390565b015116331461232657338552600d8452818520838652845260ff82862054166123165790600161030161031f937fa036d403d7739d8360e6171b2fbf68a0dfef33d6c6f432a236f6c3cdbb3cfee69798338a52600d8852848a20878b528852848a208460ff198254161790556102e287612b7b565b8151636d830dbf60e11b81528690fd5b815163e900992360e01b81528690fd5b60005b8381106123495750506000910152565b8181015183820152602001612339565b9060209161237281518092818552858086019101612336565b601f01601f1916010190565b9061240f916123fb6123e96123c36101208451865260018060a01b03602086015116602087015260408501516040870152606085015190806060880152860190612359565b6080840151608086015260a084015160a086015260c084015185820360c0870152612359565b60e083015184820360e0860152612359565b916101008092015191818403910152612359565b90565b6020808201906020835283518092526040830192602060408460051b8301019501936000915b8483106124485750505050505090565b9091929394958480612466600193603f198682030187528a5161237e565b9801930193019194939290612438565b61014081019081106001600160401b0382111761249257604052565b634e487b7160e01b600052604160045260246000fd5b60c081019081106001600160401b0382111761249257604052565b61012081019081106001600160401b0382111761249257604052565b602081019081106001600160401b0382111761249257604052565b604081019081106001600160401b0382111761249257604052565b606081019081106001600160401b0382111761249257604052565b90601f801991011681019081106001600160401b0382111761249257604052565b6001600160401b03811161249257601f01601f191660200190565b92919261257882612551565b916125866040519384612530565b8294818452818301116125a3578281602093846000960137010152565b600080fd5b9080601f830112156125a35781602061240f9335910161256c565b9060406003198301126125a3576001600160401b036004358181116125a357836125ef916004016125a8565b926024359182116125a35761240f916004016125a8565b6001600160401b0381116124925760051b60200190565b9061240f916126b161269d61265b61264961014085518752602086015190806020890152870190612359565b60408501518682036040880152612359565b606084015160608601526080840151608086015260a084015160a086015260018060a01b0360c08501511660c086015260e084015185820360e0870152612359565b610100808401519085830390860152612359565b916101208092015191818403910152612359565b6020808201906020835283518092526040830192602060408460051b8301019501936000915b8483106126fb5750505050505090565b9091929394958480612719600193603f198682030187528a5161261d565b98019301930191949392906126eb565b602090602060408183019282815285518094520193019160005b828110612751575050505090565b835185529381019392810192600101612743565b60409060031901126125a3576004359060243590565b9060406003198301126125a35760043591602435906001600160401b0382116125a35761240f916004016125a8565b60606003198201126125a3576004359160243591604435906001600160401b0382116125a35761240f916004016125a8565b9061240f91602081528151602082015260018060a01b036020830151166040820152612817604083015160c0606084015260e0830190612359565b9060c060a061284e61283b606087015195601f199687878303016080880152612359565b6080870151868683030184870152612359565b9401519282850301910152612359565b8115612868570690565b634e487b7160e01b600052601260045260246000fd5b80518210156128925760209160051b010190565b634e487b7160e01b600052603260045260246000fd5b8054821015612892576000526009602060002091020190600090565b90600182811c921680156128f4575b60208310146128de57565b634e487b7160e01b600052602260045260246000fd5b91607f16916128d3565b6000805160206134608339815191525b818110612919575050565b6000815560010161290e565b818110612930575050565b60008155600101612925565b90601f8111612949575050565b61296491600052601f6020600020910160051c810190612925565b565b91909182516001600160401b0381116124925761298382546128c4565b601f8111612a2e575b50602080601f83116001146129c95750819293946000926129be575b50508160011b916000199060031b1c1916179055565b0151905038806129a8565b90601f19831695846000526020600020926000905b888210612a16575050836001959697106129fd575b505050811b019055565b015160001960f88460031b161c191690553880806129f3565b806001859682949686015181550195019301906129de565b612a5b90836000526020600020601f840160051c81019160208510612a61575b601f0160051c0190612925565b3861298c565b9091508190612a4e565b60405190612a78826124c3565b606061010083600081526000602082015260006040820152828082015260006080820152600060a08201528260c08201528260e08201520152565b6001600160a01b0316600090815260016020526040902061240f90600201612db9565b60405190612ae382612476565b816000815261012060609182602082015282604082015260008382015260006080820152600060a0820152600060c08201528260e0820152826101008201520152565b60405190612b33826124a8565b606060a083600081526000602082015282604082015282808201528260808201520152565b91908203918211612b6557565b634e487b7160e01b600052601160045260246000fd5b60075481101561289257600a906007600052027fa66cc928b5edb82af9bd49922954155ab7b0942694bea4ce44661d9a8736c6880190600090565b805482101561289257600052600a602060002091020190600090565b6000198114612b655760010190565b91612bfe9061240f94928452606060208501526060840190612359565b916040818403910152612359565b90601482029180830460141490151715612b6557565b604051633fabe5a360e21b81529160a090839060049082906001600160a01b03165afa918215612cd957600092612c8a575b506402540be40080830292808405821481151715612b6557820202918183041490151715612b6557670de0b6b3a7640000900490565b909160a0823d60a011612cd1575b81612ca560a09383612530565b8101031261037a5750612cb781613448565b50612cc9608060208301519201613448565b509038612c54565b3d9150612c98565b6040513d6000823e3d90fd5b60096101206129649380518455612d03602082015160018601612966565b612d14604082015160028601612966565b606081015160038501556080810151600485015560a081015160058501556006840160018060a01b0360c0830151166001600160601b0360a01b825416179055612d6560e082015160078601612966565b612d7761010082015160088601612966565b01519101612966565b90612da35760096101208361296494518455612d03602082015160018601612966565b634e487b7160e01b600052600060045260246000fd5b90604051918260008254612dcc816128c4565b90818452602094600191600181169081600014612e3a5750600114612dfb575b50505061296492500383612530565b600090815285812095935091905b818310612e225750506129649350820101388080612dec565b85548884018501529485019487945091830191612e09565b9250505061296494925060ff191682840152151560051b820101388080612dec565b90604051612e69816124c3565b610100612ee0600883958054855260018060a01b03600182015416602086015260028101546040860152612e9f60038201612db9565b606086015260048101546080860152600581015460a0860152612ec460068201612db9565b60c0860152612ed560078201612db9565b60e086015201612db9565b910152565b612eed613141565b51811015612f5e57600052602060156020526040600020805490612f1082612606565b92612f1e6040519485612530565b828452602084019160005260206000206000925b848410612f4157505050505090565b600983600192612f5085612e5c565b815201920193019290612f32565b604051630fda044d60e11b8152600490fd5b600560a0612964938051845560018401600180841b036020830151166001600160601b03841b825416179055612fad604082015160028601612966565b612fbe606082015160038601612966565b612d77608082015160048601612966565b6020612fe8918160405193828580945193849201612336565b8101600481520301902090565b90600091825481101561302f57600690838052027f290decd9548b62a8d60345a988386fc84ba6bc95484008f6362f93160ef3e563019190565b634e487b7160e01b83526032600452602483fd5b3d1561306e573d9061305482612551565b916130626040519384612530565b82523d6000602084013e565b606090565b6014548110156128925760146000527fce6d7b5282bd9a3661ae061feed1dbda4e52ab073b1f9285be6e155d9c38d4ec0190600090565b906040516130b781612476565b610120612ee060098395805485526130d160018201612db9565b60208601526130e260028201612db9565b60408601526003810154606086015260048101546080860152600581015460a086015260068101546001600160a01b031660c086015261312460078201612db9565b60e086015261313560088201612db9565b61010086015201612db9565b6007549061314e82612606565b9161315c6040519384612530565b8083526007600090815260207fa66cc928b5edb82af9bd49922954155ab7b0942694bea4ce44661d9a8736c6888186015b84841061319b575050505050565b600a836001926131aa856130aa565b81520192019301929061318d565b604051906013548083528260209160208201906013600052600080516020613460833981519152936000905b8282106131fa5750505061296492500383612530565b8554845260019586019588955093810193909101906131e4565b6040519060085480835282602091602082019060086000527ff3f7a9fe364faab93b216da50a3214154f22a0a2b415b23a84c8169e8b636ee3936000905b8282106132685750505061296492500383612530565b855484526001958601958895509381019390910190613252565b601454600160401b811015612492578060016132a19201601455613073565b819291549060031b91821b91600019901b1916179055565b601354600160401b8110156124925760018101806013558110156128925760136000526000805160206134608339815191520155565b8054600160401b8110156124925761330c916001820181556128a8565b612da357600861010083612964945184556001840160018060a01b036020830151166001600160601b0360a01b8254161790556040810151600285015561335a606082015160038601612966565b6080810151600485015560a0810151600585015561337f60c082015160068601612966565b612d7760e082015160078601612966565b613398612ad6565b506133a1613141565b51811015612f5e576133b561240f91612b7b565b506130aa565b906040516133c8816124a8565b60a0612ee06005839580548552600180851b0360018201541660208601526133f260028201612db9565b604086015261340360038201612db9565b606086015261341460048201612db9565b608086015201612db9565b613427612b26565b506001600160a01b0316600090815260016020526040902061240f906133bb565b519069ffffffffffffffffffff821682036125a35756fe66de8ffda797e3de9c05e8fc57b3bf0ec28a930d40b0d285d93c06501cf6a090a26469706673582212204f7aa45ead8cfaa1468a760423517aaed5a583640c868f19ae1c144b290ebfc164736f6c63430008180033","linkReferences":{}},"methodIdentifiers":{"CheckUpkeep(bytes)":"c9fbacf3","_editComment(uint256,uint256,string)":"479721a9","changeUsername(uint256,string)":"72d4e382","createComment(uint256,string)":"40a17985","createPost(string,string)":"392338f5","deleteComment(uint256,uint256)":"31a4bcb5","deletePost(uint256)":"094cd5ee","downvote(uint256)":"f31fdad4","editComment(uint256,uint256,string)":"fa561152","editPost(uint256,string,string)":"bf0ac63c","editUserProfile(uint256,string,string,string)":"7461d858","getAddressFromUsername(string)":"4e82c134","getAllPosts()":"30561100","getBalance()":"12065fe0","getCommentByCommentId(uint256)":"49248d38","getCommentLikersByPostIdAndCommentId(uint256,uint256)":"8dc4a066","getCommentsByPostId(uint256)":"0f4b2d9c","getContractOwner()":"442890d5","getIdsOfEligiblePosts()":"2d492c83","getIdsOfRecentPosts()":"984d1015","getIdsOfRecentWinningPosts()":"8c262013","getPostById(uint256)":"64e95895","getRecentTrendingPosts()":"2a04c645","getRecentWinningPosts()":"30ad4ba9","getUsdValueOfEthAmount(uint256)":"e96c520b","getUser(address)":"6f77926b","getUserById(uint256)":"6ed6da9e","getUserComments(address)":"2b3c6e22","getUserNameFromAddress(address)":"6372af84","getUserPosts(address)":"9a2194a9","getUserVoteStatus(uint256)":"a4dd41d0","getUsernameOfRecentWinners()":"7a0726bd","likeComment(uint256,uint256)":"a0e91821","performUpkeep(bytes)":"4585e33b","rawFulfillRandomWords(uint256,uint256[])":"1fe543e3","registerUser(string,string)":"1d2e4afd","transferContractBalance(address)":"96f11ac8","upvote(uint256)":"01ddf070"},"id":35}