{"abi":[{"type":"constructor","inputs":[{"name":"priceFeed","type":"address","internalType":"address"},{"name":"interval","type":"uint256","internalType":"uint256"},{"name":"vrfCoordinator","type":"address","internalType":"address"},{"name":"gasLane","type":"bytes32","internalType":"bytes32"},{"name":"subscriptionId","type":"uint256","internalType":"uint256"},{"name":"callbackGasLimit","type":"uint32","internalType":"uint32"}],"stateMutability":"nonpayable"},{"type":"fallback","stateMutability":"payable"},{"type":"receive","stateMutability":"payable"},{"type":"function","name":"CheckUpkeep","inputs":[{"name":"","type":"bytes","internalType":"bytes"}],"outputs":[{"name":"upkeepNeeded","type":"bool","internalType":"bool"},{"name":"","type":"bytes","internalType":"bytes"}],"stateMutability":"nonpayable"},{"type":"function","name":"_editComment","inputs":[{"name":"_postId","type":"uint256","internalType":"uint256"},{"name":"_commentId","type":"uint256","internalType":"uint256"},{"name":"_content","type":"string","internalType":"string"}],"outputs":[],"stateMutability":"nonpayable"},{"type":"function","name":"changeUsername","inputs":[{"name":"_userId","type":"uint256","internalType":"uint256"},{"name":"_newNickName","type":"string","internalType":"string"}],"outputs":[],"stateMutability":"nonpayable"},{"type":"function","name":"createComment","inputs":[{"name":"_postId","type":"uint256","internalType":"uint256"},{"name":"_content","type":"string","internalType":"string"}],"outputs":[],"stateMutability":"nonpayable"},{"type":"function","name":"createPost","inputs":[{"name":"_content","type":"string","internalType":"string"},{"name":"_imgHash","type":"string","internalType":"string"}],"outputs":[],"stateMutability":"nonpayable"},{"type":"function","name":"deleteComment","inputs":[{"name":"_postId","type":"uint256","internalType":"uint256"},{"name":"_commentId","type":"uint256","internalType":"uint256"}],"outputs":[],"stateMutability":"payable"},{"type":"function","name":"deletePost","inputs":[{"name":"_postId","type":"uint256","internalType":"uint256"}],"outputs":[],"stateMutability":"payable"},{"type":"function","name":"downvote","inputs":[{"name":"_postId","type":"uint256","internalType":"uint256"}],"outputs":[],"stateMutability":"nonpayable"},{"type":"function","name":"editComment","inputs":[{"name":"_postId","type":"uint256","internalType":"uint256"},{"name":"_commentId","type":"uint256","internalType":"uint256"},{"name":"_content","type":"string","internalType":"string"}],"outputs":[],"stateMutability":"nonpayable"},{"type":"function","name":"editPost","inputs":[{"name":"_postId","type":"uint256","internalType":"uint256"},{"name":"_content","type":"string","internalType":"string"},{"name":"_imgHash","type":"string","internalType":"string"}],"outputs":[],"stateMutability":"nonpayable"},{"type":"function","name":"editUserProfile","inputs":[{"name":"_userId","type":"uint256","internalType":"uint256"},{"name":"_bio","type":"string","internalType":"string"},{"name":"_profileImageHash","type":"string","internalType":"string"},{"name":"_newName","type":"string","internalType":"string"}],"outputs":[],"stateMutability":"nonpayable"},{"type":"function","name":"getAddressFromUsername","inputs":[{"name":"_username","type":"string","internalType":"string"}],"outputs":[{"name":"","type":"address","internalType":"address"}],"stateMutability":"view"},{"type":"function","name":"getAllPosts","inputs":[],"outputs":[{"name":"","type":"tuple[]","internalType":"struct ChainSphereUserProfile.Post[]","components":[{"name":"postId","type":"uint256","internalType":"uint256"},{"name":"content","type":"string","internalType":"string"},{"name":"imgHash","type":"string","internalType":"string"},{"name":"timestamp","type":"uint256","internalType":"uint256"},{"name":"upvotes","type":"uint256","internalType":"uint256"},{"name":"downvotes","type":"uint256","internalType":"uint256"},{"name":"author","type":"address","internalType":"address"},{"name":"authorNickName","type":"string","internalType":"string"},{"name":"authorFullName","type":"string","internalType":"string"},{"name":"authorProfileImgHash","type":"string","internalType":"string"}]}],"stateMutability":"view"},{"type":"function","name":"getBalance","inputs":[],"outputs":[{"name":"","type":"uint256","internalType":"uint256"}],"stateMutability":"view"},{"type":"function","name":"getCommentByCommentId","inputs":[{"name":"_commentId","type":"uint256","internalType":"uint256"}],"outputs":[{"name":"","type":"tuple","internalType":"struct ChainSphereComments.Comment","components":[{"name":"commentId","type":"uint256","internalType":"uint256"},{"name":"author","type":"address","internalType":"address"},{"name":"postId","type":"uint256","internalType":"uint256"},{"name":"content","type":"string","internalType":"string"},{"name":"timestamp","type":"uint256","internalType":"uint256"},{"name":"likesCount","type":"uint256","internalType":"uint256"}]}],"stateMutability":"view"},{"type":"function","name":"getCommentLikersByPostIdAndCommentId","inputs":[{"name":"_postId","type":"uint256","internalType":"uint256"},{"name":"_commentId","type":"uint256","internalType":"uint256"}],"outputs":[{"name":"","type":"address[]","internalType":"address[]"}],"stateMutability":"view"},{"type":"function","name":"getCommentsByPostId","inputs":[{"name":"_postId","type":"uint256","internalType":"uint256"}],"outputs":[{"name":"","type":"tuple[]","internalType":"struct ChainSphereComments.Comment[]","components":[{"name":"commentId","type":"uint256","internalType":"uint256"},{"name":"author","type":"address","internalType":"address"},{"name":"postId","type":"uint256","internalType":"uint256"},{"name":"content","type":"string","internalType":"string"},{"name":"timestamp","type":"uint256","internalType":"uint256"},{"name":"likesCount","type":"uint256","internalType":"uint256"}]}],"stateMutability":"view"},{"type":"function","name":"getContractOwner","inputs":[],"outputs":[{"name":"","type":"address","internalType":"address"}],"stateMutability":"view"},{"type":"function","name":"getIdsOfEligiblePosts","inputs":[],"outputs":[{"name":"","type":"uint256[]","internalType":"uint256[]"}],"stateMutability":"view"},{"type":"function","name":"getIdsOfRecentPosts","inputs":[],"outputs":[{"name":"","type":"uint256[]","internalType":"uint256[]"}],"stateMutability":"view"},{"type":"function","name":"getIdsOfRecentWinningPosts","inputs":[],"outputs":[{"name":"","type":"uint256[]","internalType":"uint256[]"}],"stateMutability":"view"},{"type":"function","name":"getPostById","inputs":[{"name":"_postId","type":"uint256","internalType":"uint256"}],"outputs":[{"name":"","type":"tuple","internalType":"struct ChainSphereUserProfile.Post","components":[{"name":"postId","type":"uint256","internalType":"uint256"},{"name":"content","type":"string","internalType":"string"},{"name":"imgHash","type":"string","internalType":"string"},{"name":"timestamp","type":"uint256","internalType":"uint256"},{"name":"upvotes","type":"uint256","internalType":"uint256"},{"name":"downvotes","type":"uint256","internalType":"uint256"},{"name":"author","type":"address","internalType":"address"},{"name":"authorNickName","type":"string","internalType":"string"},{"name":"authorFullName","type":"string","internalType":"string"},{"name":"authorProfileImgHash","type":"string","internalType":"string"}]}],"stateMutability":"view"},{"type":"function","name":"getRecentTrendingPosts","inputs":[],"outputs":[{"name":"","type":"tuple[]","internalType":"struct ChainSphereUserProfile.Post[]","components":[{"name":"postId","type":"uint256","internalType":"uint256"},{"name":"content","type":"string","internalType":"string"},{"name":"imgHash","type":"string","internalType":"string"},{"name":"timestamp","type":"uint256","internalType":"uint256"},{"name":"upvotes","type":"uint256","internalType":"uint256"},{"name":"downvotes","type":"uint256","internalType":"uint256"},{"name":"author","type":"address","internalType":"address"},{"name":"authorNickName","type":"string","internalType":"string"},{"name":"authorFullName","type":"string","internalType":"string"},{"name":"authorProfileImgHash","type":"string","internalType":"string"}]}],"stateMutability":"nonpayable"},{"type":"function","name":"getRecentWinningPosts","inputs":[],"outputs":[{"name":"","type":"tuple[]","internalType":"struct ChainSphereUserProfile.Post[]","components":[{"name":"postId","type":"uint256","internalType":"uint256"},{"name":"content","type":"string","internalType":"string"},{"name":"imgHash","type":"string","internalType":"string"},{"name":"timestamp","type":"uint256","internalType":"uint256"},{"name":"upvotes","type":"uint256","internalType":"uint256"},{"name":"downvotes","type":"uint256","internalType":"uint256"},{"name":"author","type":"address","internalType":"address"},{"name":"authorNickName","type":"string","internalType":"string"},{"name":"authorFullName","type":"string","internalType":"string"},{"name":"authorProfileImgHash","type":"string","internalType":"string"}]}],"stateMutability":"nonpayable"},{"type":"function","name":"getUsdValueOfEthAmount","inputs":[{"name":"_ethAmount","type":"uint256","internalType":"uint256"}],"outputs":[{"name":"","type":"uint256","internalType":"uint256"}],"stateMutability":"view"},{"type":"function","name":"getUser","inputs":[{"name":"_userAddress","type":"address","internalType":"address"}],"outputs":[{"name":"","type":"tuple","internalType":"struct ChainSphereUserProfile.User","components":[{"name":"id","type":"uint256","internalType":"uint256"},{"name":"userAddress","type":"address","internalType":"address"},{"name":"nickName","type":"string","internalType":"string"},{"name":"fullNameOfUser","type":"string","internalType":"string"},{"name":"bio","type":"string","internalType":"string"},{"name":"profileImageHash","type":"string","internalType":"string"}]}],"stateMutability":"view"},{"type":"function","name":"getUserById","inputs":[{"name":"_userId","type":"uint256","internalType":"uint256"}],"outputs":[{"name":"","type":"tuple","internalType":"struct ChainSphereUserProfile.User","components":[{"name":"id","type":"uint256","internalType":"uint256"},{"name":"userAddress","type":"address","internalType":"address"},{"name":"nickName","type":"string","internalType":"string"},{"name":"fullNameOfUser","type":"string","internalType":"string"},{"name":"bio","type":"string","internalType":"string"},{"name":"profileImageHash","type":"string","internalType":"string"}]}],"stateMutability":"view"},{"type":"function","name":"getUserComments","inputs":[{"name":"_userAddress","type":"address","internalType":"address"}],"outputs":[{"name":"","type":"tuple[]","internalType":"struct ChainSphereComments.Comment[]","components":[{"name":"commentId","type":"uint256","internalType":"uint256"},{"name":"author","type":"address","internalType":"address"},{"name":"postId","type":"uint256","internalType":"uint256"},{"name":"content","type":"string","internalType":"string"},{"name":"timestamp","type":"uint256","internalType":"uint256"},{"name":"likesCount","type":"uint256","internalType":"uint256"}]}],"stateMutability":"view"},{"type":"function","name":"getUserNameFromAddress","inputs":[{"name":"_userAddress","type":"address","internalType":"address"}],"outputs":[{"name":"","type":"string","internalType":"string"}],"stateMutability":"view"},{"type":"function","name":"getUserPosts","inputs":[{"name":"_userAddress","type":"address","internalType":"address"}],"outputs":[{"name":"","type":"tuple[]","internalType":"struct ChainSphereUserProfile.Post[]","components":[{"name":"postId","type":"uint256","internalType":"uint256"},{"name":"content","type":"string","internalType":"string"},{"name":"imgHash","type":"string","internalType":"string"},{"name":"timestamp","type":"uint256","internalType":"uint256"},{"name":"upvotes","type":"uint256","internalType":"uint256"},{"name":"downvotes","type":"uint256","internalType":"uint256"},{"name":"author","type":"address","internalType":"address"},{"name":"authorNickName","type":"string","internalType":"string"},{"name":"authorFullName","type":"string","internalType":"string"},{"name":"authorProfileImgHash","type":"string","internalType":"string"}]}],"stateMutability":"view"},{"type":"function","name":"getUserVoteStatus","inputs":[{"name":"_postId","type":"uint256","internalType":"uint256"}],"outputs":[{"name":"","type":"bool","internalType":"bool"}],"stateMutability":"view"},{"type":"function","name":"getUsernameOfRecentWinners","inputs":[],"outputs":[{"name":"","type":"string[]","internalType":"string[]"}],"stateMutability":"nonpayable"},{"type":"function","name":"likeComment","inputs":[{"name":"_postId","type":"uint256","internalType":"uint256"},{"name":"_commentId","type":"uint256","internalType":"uint256"}],"outputs":[],"stateMutability":"nonpayable"},{"type":"function","name":"performUpkeep","inputs":[{"name":"","type":"bytes","internalType":"bytes"}],"outputs":[],"stateMutability":"nonpayable"},{"type":"function","name":"rawFulfillRandomWords","inputs":[{"name":"requestId","type":"uint256","internalType":"uint256"},{"name":"randomWords","type":"uint256[]","internalType":"uint256[]"}],"outputs":[],"stateMutability":"nonpayable"},{"type":"function","name":"registerUser","inputs":[{"name":"_fullNameOfUser","type":"string","internalType":"string"},{"name":"_username","type":"string","internalType":"string"}],"outputs":[],"stateMutability":"nonpayable"},{"type":"function","name":"transferContractBalance","inputs":[{"name":"_to","type":"address","internalType":"address payable"}],"outputs":[],"stateMutability":"nonpayable"},{"type":"function","name":"upvote","inputs":[{"name":"_postId","type":"uint256","internalType":"uint256"}],"outputs":[],"stateMutability":"nonpayable"},{"type":"event","name":"CommentCreated","inputs":[{"name":"commentId","type":"uint256","indexed":true,"internalType":"uint256"},{"name":"postAuthor","type":"string","indexed":false,"internalType":"string"},{"name":"commentAuthor","type":"string","indexed":false,"internalType":"string"},{"name":"postId","type":"uint256","indexed":false,"internalType":"uint256"}],"anonymous":false},{"type":"event","name":"Downvoted","inputs":[{"name":"postId","type":"uint256","indexed":false,"internalType":"uint256"},{"name":"posthAuthorName","type":"string","indexed":false,"internalType":"string"},{"name":"downvoterName","type":"string","indexed":false,"internalType":"string"}],"anonymous":false},{"type":"event","name":"PickedWinner","inputs":[{"name":"winner","type":"address","indexed":false,"internalType":"address"}],"anonymous":false},{"type":"event","name":"PostCreated","inputs":[{"name":"postId","type":"uint256","indexed":false,"internalType":"uint256"},{"name":"authorName","type":"string","indexed":false,"internalType":"string"}],"anonymous":false},{"type":"event","name":"PostEdited","inputs":[{"name":"postId","type":"uint256","indexed":false,"internalType":"uint256"},{"name":"authorName","type":"string","indexed":false,"internalType":"string"}],"anonymous":false},{"type":"event","name":"PostLiked","inputs":[{"name":"postId","type":"uint256","indexed":true,"internalType":"uint256"},{"name":"postAuthor","type":"address","indexed":true,"internalType":"address"},{"name":"liker","type":"address","indexed":true,"internalType":"address"}],"anonymous":false},{"type":"event","name":"RequestWinningAuthor","inputs":[{"name":"requestId","type":"uint256","indexed":false,"internalType":"uint256"}],"anonymous":false},{"type":"event","name":"RewardSent","inputs":[{"name":"user","type":"address","indexed":true,"internalType":"address"},{"name":"amount","type":"uint256","indexed":false,"internalType":"uint256"}],"anonymous":false},{"type":"event","name":"Upvoted","inputs":[{"name":"postId","type":"uint256","indexed":false,"internalType":"uint256"},{"name":"posthAuthorName","type":"string","indexed":false,"internalType":"string"},{"name":"upvoterName","type":"string","indexed":false,"internalType":"string"}],"anonymous":false},{"type":"event","name":"UserRegistered","inputs":[{"name":"id","type":"uint256","indexed":true,"internalType":"uint256"},{"name":"userAddress","type":"address","indexed":true,"internalType":"address"},{"name":"username","type":"string","indexed":false,"internalType":"string"}],"anonymous":false},{"type":"error","name":"ChainSphere__AlreadyVoted","inputs":[]},{"type":"error","name":"ChainSphere__BatchTransferFailed","inputs":[{"name":"winner","type":"address","internalType":"address"}]},{"type":"error","name":"ChainSphere__NotCommentOwner","inputs":[]},{"type":"error","name":"ChainSphere__NotOwner","inputs":[]},{"type":"error","name":"ChainSphere__NotPostOwner","inputs":[]},{"type":"error","name":"ChainSphere__NotProfileOwner","inputs":[]},{"type":"error","name":"ChainSphere__OwnerCannotVote","inputs":[]},{"type":"error","name":"ChainSphere__PaymentNotEnough","inputs":[]},{"type":"error","name":"ChainSphere__PostDoesNotExist","inputs":[]},{"type":"error","name":"ChainSphere__TransferFailed","inputs":[]},{"type":"error","name":"ChainSphere__UpkeepNotNeeded","inputs":[{"name":"balance","type":"uint256","internalType":"uint256"},{"name":"numOfEligibleAuthors","type":"uint256","internalType":"uint256"}]},{"type":"error","name":"ChainSphere__UserDoesNotExist","inputs":[]},{"type":"error","name":"ChainSphere__UsernameAlreadyTaken","inputs":[]},{"type":"error","name":"OnlyCoordinatorCanFulfill","inputs":[{"name":"have","type":"address","internalType":"address"},{"name":"want","type":"address","internalType":"address"}]}],"bytecode":{"object":"0x6101406040523480156200001257600080fd5b50604051620052a1380380620052a18339810160408190526200003591620000bc565b6001600160a01b03938416608081905260068054959097166001600160a01b0319958616811790975560208054861633179055601e805490951690961790935560a09390935242601f5560c09390935260e0929092526101005263ffffffff16610120526200012e565b80516001600160a01b0381168114620000b757600080fd5b919050565b60008060008060008060c08789031215620000d657600080fd5b620000e1876200009f565b955060208701519450620000f8604088016200009f565b9350606087015192506080870151915060a087015163ffffffff811681146200012057600080fd5b809150509295509295509295565b60805160a05160c05160e051610100516101205161511c620001856000396000610a4d01526000610a20015260006109fa01526000610a8201526000610d4801526000818161082c015261086e015261511c6000f3fe6080604052600436106102115760003560e01c80636372af841161011757806396f11ac8116100a5578063bf0ac63c1161006c578063bf0ac63c14610676578063c9fbacf314610696578063e96c520b146106c4578063f31fdad4146106e4578063fa5611521461070457005b806396f11ac8146105d1578063984d1015146105f15780639a2194a914610606578063a0e9182114610626578063a4dd41d01461064657005b806372d4e382116100e957806372d4e3821461052d5780637461d8581461054d5780637a0726bd1461056d5780638c2620131461058f5780638dc4a066146105a457005b80636372af841461048657806364e95895146104b35780636ed6da9e146104e05780636f77926b1461050d57005b8063305611001161019f578063442890d511610166578063442890d5146103c75780634585e33b146103f9578063479721a91461041957806349248d38146104395780634e82c1341461046657005b8063305611001461034a57806330ad4ba91461035f57806331a4bcb514610374578063392338f51461038757806340a17985146103a757005b80631d2e4afd116101e35780631d2e4afd146102a65780631fe543e3146102c65780632a04c645146102e65780632b3c6e22146103085780632d492c831461032857005b806301ddf0701461021a578063094cd5ee1461023a5780630f4b2d9c1461024d57806312065fe01461028357005b3661021857005b005b34801561022657600080fd5b5061021861023536600461452e565b610724565b61021861024836600461452e565b610730565b34801561025957600080fd5b5061026d61026836600461452e565b6107bc565b60405161027a91906145f2565b60405180910390f35b34801561028f57600080fd5b506102986107cd565b60405190815260200161027a565b3480156102b257600080fd5b506102186102c1366004614715565b610817565b3480156102d257600080fd5b506102186102e1366004614779565b610821565b3480156102f257600080fd5b506102fb6108aa565b60405161027a91906148f9565b34801561031457600080fd5b5061026d610323366004614965565b6108b9565b34801561033457600080fd5b5061033d6108c4565b60405161027a9190614982565b34801561035657600080fd5b506102fb6108ce565b34801561036b57600080fd5b506102fb6108d8565b6102186103823660046149c6565b6108e2565b34801561039357600080fd5b506102186103a2366004614715565b61092c565b3480156103b357600080fd5b506102186103c23660046149e8565b610936565b3480156103d357600080fd5b506020546001600160a01b03165b6040516001600160a01b03909116815260200161027a565b34801561040557600080fd5b50610218610414366004614a25565b610940565b34801561042557600080fd5b50610218610434366004614a97565b610b38565b34801561044557600080fd5b5061045961045436600461452e565b610bd9565b60405161027a9190614ae7565b34801561047257600080fd5b506103e1610481366004614afa565b610bea565b34801561049257600080fd5b506104a66104a1366004614965565b610bf5565b60405161027a9190614b37565b3480156104bf57600080fd5b506104d36104ce36600461452e565b610c00565b60405161027a9190614b4a565b3480156104ec57600080fd5b506105006104fb36600461452e565b610c11565b60405161027a9190614b5d565b34801561051957600080fd5b50610500610528366004614965565b610c22565b34801561053957600080fd5b506102186105483660046149e8565b610c33565b34801561055957600080fd5b50610218610568366004614bee565b610c3d565b34801561057957600080fd5b50610582610c4f565b60405161027a9190614c80565b34801561059b57600080fd5b5061033d610c59565b3480156105b057600080fd5b506105c46105bf3660046149c6565b610c63565b60405161027a9190614cd7565b3480156105dd57600080fd5b506102186105ec366004614965565b610c76565b3480156105fd57600080fd5b5061033d610cd6565b34801561061257600080fd5b506102fb610621366004614965565b610ce0565b34801561063257600080fd5b506102186106413660046149c6565b610ceb565b34801561065257600080fd5b5061066661066136600461452e565b610cf5565b604051901515815260200161027a565b34801561068257600080fd5b50610218610691366004614d18565b610d18565b3480156106a257600080fd5b506106b66106b1366004614d7b565b610d28565b60405161027a929190614dc4565b3480156106d057600080fd5b506102986106df36600461452e565b610dc5565b3480156106f057600080fd5b506102186106ff36600461452e565b610dd0565b34801561071057600080fd5b5061021861071f366004614a97565b610dd9565b61072d81610de4565b50565b8061073a81610c00565b60c001516001600160a01b0316336001600160a01b03161461076f5760405163b5f6908d60e01b815260040160405180910390fd5b600654674563918244f40000906107909034906001600160a01b0316610f2d565b10156107af576040516340956f2160e01b815260040160405180910390fd5b6107b882610f63565b5050565b60606107c7826111de565b92915050565b60006107e16020546001600160a01b031690565b6001600160a01b0316336001600160a01b03161461081257604051633c6a5daf60e21b815260040160405180910390fd5b504790565b6107b8828261133f565b336001600160a01b037f000000000000000000000000000000000000000000000000000000000000000016146108a05760405163073e64fd60e21b81523360048201526001600160a01b037f00000000000000000000000000000000000000000000000000000000000000001660248201526044015b60405180910390fd5b6107b882826115d9565b60606108b46118b0565b905090565b60606107c782611d3c565b60606108b4611e77565b60606108b4611ecf565b60606108b4612248565b600654674563918244f40000906109039034906001600160a01b0316610f2d565b1015610922576040516340956f2160e01b815260040160405180910390fd5b6107b882826126ba565b6107b882826127ba565b6107b88282612b24565b6000610964604051806040016040528060018152602001600160fd1b815250610d28565b5090508061099857476109756108c4565b5160405163ae97b49160e01b815260048101929092526024820152604401610897565b60146109a26108c4565b5111156109c357600a6109b36108c4565b516109be9190614df5565b6109c6565b60015b601e805463ffffffff60a01b1916600160a01b63ffffffff9384168102919091179182905560405163d33d44c160e01b81527f000000000000000000000000000000000000000000000000000000000000000060048201527f00000000000000000000000000000000000000000000000000000000000000006024820152600360448201527f000000000000000000000000000000000000000000000000000000000000000084166064820152910490911660848201526000907f00000000000000000000000000000000000000000000000000000000000000006001600160a01b03169063d33d44c19060a4016020604051808303816000875af1158015610ad3573d6000803e3d6000fd5b505050506040513d601f19601f82011682018060405250810190610af79190614e09565b90507f0aa5a4e8e459a1f6485b98194bbe2e07647a58e7dd6d2a9923441b4d569c307781604051610b2a91815260200190565b60405180910390a150505050565b8282610b43826111de565b8181518110610b5457610b54614e22565b6020026020010151602001516001600160a01b0316336001600160a01b031614610b91576040516314fd685b60e21b815260040160405180910390fd5b6000858152601560205260409020805484919086908110610bb457610bb4614e22565b90600052602060002090600602016003019081610bd19190614eba565b505050505050565b610be16143f4565b6107c782612d22565b60006107c782612e46565b60606107c782612e77565b610c08614433565b6107c782612f26565b610c1961448f565b6107c7826132a3565b610c2a61448f565b6107c7826134d6565b6107b88282613527565b610c4984848484613601565b50505050565b60606108b461387c565b60606108b46139a9565b6060610c6f83836139ff565b9392505050565b6020546001600160a01b03163314610ca157604051633c6a5daf60e21b815260040160405180910390fd5b6040516001600160a01b038216904780156108fc02916000818181858888f193505050501580156107b8573d6000803e3d6000fd5b60606108b4613a74565b60606107c782613aca565b6107b88282613e4e565b336000908152600d6020908152604080832084845290915281205460ff166107c7565b610d23838383613f58565b505050565b60006060610d346140a6565b610d44610d3f610cd6565b6140b0565b60007f0000000000000000000000000000000000000000000000000000000000000000601f5442610d759190614f90565b10159050471515600080610d876108c4565b51119050828015610d955750815b8015610d9e5750805b60408051808201909152600381526203078360ec1b60208201529097909650945050505050565b60006107c782614120565b61072d8161413c565b610d23838383610b38565b80610dee81612f26565b60c001516001600160a01b03163303610e1a5760405163e900992360e01b815260040160405180910390fd5b81610e3f81336000908152600d60209081526040808320938352929052205460ff1690565b15610e5d57604051636d830dbf60e11b815260040160405180910390fd5b336000908152600d602090815260408083208684529091529020805460ff191660011790556007805484908110610e9657610e96614e22565b6000918252602082206004600a9092020101805491610eb483614fa3565b90915550506000838152600b60205260408120546001600160a01b031690610edb82612e77565b90506000610ee833612e77565b90507fa036d403d7739d8360e6171b2fbf68a0dfef33d6c6f432a236f6c3cdbb3cfee6868383604051610f1d93929190614fbc565b60405180910390a1505050505050565b600080610f3983614275565b90506000670de0b6b3a7640000610f508387614fe7565b610f5a9190614ffe565b95945050505050565b600060078281548110610f7857610f78614e22565b600091825260208083206006600a909302019190910154604080516101408101825286815281518085018352858152818501528151808501835285815281830152606081018590526080810185905260a0810185905260c081018590528151808501835285815260e0820152815180850183528581526101008201528151938401909152928252610120830191909152600780546001600160a01b039092169350908490811061102a5761102a614e22565b90600052602060002090600a02016000820151816000015560208201518160010190816110579190614eba565b506040820151600282019061106c9082614eba565b50606082015160038201556080820151600482015560a0820151600582015560c08201516006820180546001600160a01b0319166001600160a01b0390921691909117905560e082015160078201906110c59082614eba565b5061010082015160088201906110db9082614eba565b5061012082015160098201906110f19082614eba565b5050506000828152600b6020908152604080832080546001600160a01b03191690557f13da86008ba1c6922daee3e07db95305ef49ebced9f5467a0b8613fcc6b343e3859055600f8252808320546001600160a01b0385168452600e909252822080549192918390811061116757611167614e22565b60009182526020808320600a9290920290910160060180546001600160a01b0319166001600160a01b039485161790556040805180830182528381529386168352600e90915290208054839081106111c1576111c1614e22565b90600052602060002090600a02016001019081610c499190614eba565b60606111e8611ecf565b51821061120857604051630fda044d60e11b815260040160405180910390fd5b600082815260156020908152604080832080548251818502810185019093528083529193909284015b828210156113345760008481526020908190206040805160c081018252600686029092018054835260018101546001600160a01b03169383019390935260028301549082015260038201805491929160608401919061128f90614e38565b80601f01602080910402602001604051908101604052809291908181526020018280546112bb90614e38565b80156113085780601f106112dd57610100808354040283529160200191611308565b820191906000526020600020905b8154815290600101906020018083116112eb57829003601f168201915b505050505081526020016004820154815260200160058201548152505081526020019060010190611231565b505050509050919050565b80600061134b82612e46565b6001600160a01b03161461137257604051630fa2819960e31b815260040160405180910390fd5b600280546000918261138383614fa3565b909155506040805160c081018252828152336020808301828152838501898152606085018b905285518084018752600080825260808701919091528651808501885281815260a08701529384526001928390529490922083518155915190820180546001600160a01b0319166001600160a01b0390921691909117905591519293509182919060028201906114189082614eba565b506060820151600382019061142d9082614eba565b50608082015160048201906114429082614eba565b5060a082015160058201906114579082614eba565b505033600081815260036020526040908190208590555190915060049061147f908790615012565b908152604080516020928190038301902080546001600160a01b03199081166001600160a01b03958616179091556000805460018101825590805285517f290decd9548b62a8d60345a988386fc84ba6bc95484008f6362f93160ef3e5636006909202918201908155938601517f290decd9548b62a8d60345a988386fc84ba6bc95484008f6362f93160ef3e56482018054909316951694909417905583015183927f290decd9548b62a8d60345a988386fc84ba6bc95484008f6362f93160ef3e565019061154e9082614eba565b50606082015160038201906115639082614eba565b50608082015160048201906115789082614eba565b5060a0820151600582019061158d9082614eba565b505050336001600160a01b0316827f8d76d60617424d83544323e2322cb8d86537451c9b3d991886ce6f4721e3865e866040516115ca9190614b37565b60405180910390a35050505050565b6115e16142f1565b42601f556115ed6142f9565b805160010361173c5760006064611605601447614fe7565b61160f9190614ffe565b9050600061161b6108c4565b518360008151811061162f5761162f614e22565b60200260200101516116419190614df5565b9050600061164d6108c4565b828151811061165e5761165e614e22565b6020026020010151905061167181614301565b600061167c82610c00565b60c001516040516001600160a01b03821681529091507fb112587e57bfa970257f3d54fc52859c6300f6bd7a982462c320fed45c2530ed9060200160405180910390a16000816001600160a01b03168560405160006040518083038185875af1925050503d806000811461170c576040519150601f19603f3d011682016040523d82523d6000602084013e611711565b606091505b505090508061173357604051630e352ebb60e41b815260040160405180910390fd5b50505050505050565b8051600061174b826064614fe7565b611756601447614fe7565b6117609190614ffe565b905060005b828110156118a95760006117776108c4565b5185838151811061178a5761178a614e22565b602002602001015161179c9190614df5565b905060006117a86108c4565b82815181106117b9576117b9614e22565b602002602001015190506117cc81614301565b60006117d782610c00565b60c001516040516001600160a01b03821681529091507fb112587e57bfa970257f3d54fc52859c6300f6bd7a982462c320fed45c2530ed9060200160405180910390a16000816001600160a01b03168660405160006040518083038185875af1925050503d8060008114611867576040519150601f19603f3d011682016040523d82523d6000602084013e61186c565b606091505b505090508061189957604051635e680b6b60e01b81526001600160a01b0383166004820152602401610897565b5050600190920191506117659050565b5050505050565b60135460609060005b818110156119c35760116118e9601383815481106118d9576118d9614e22565b9060005260206000200154612f26565b81546001818101845560009384526020938490208351600a9093020191825592820151919290919082019061191e9082614eba565b50604082015160028201906119339082614eba565b50606082015160038201556080820151600482015560a0820151600582015560c08201516006820180546001600160a01b0319166001600160a01b0390921691909117905560e0820151600782019061198c9082614eba565b5061010082015160088201906119a29082614eba565b5061012082015160098201906119b89082614eba565b5050506001016118b9565b506011805480602002602001604051908101604052809291908181526020016000905b82821015611d3257838290600052602060002090600a02016040518061014001604052908160008201548152602001600182018054611a2490614e38565b80601f0160208091040260200160405190810160405280929190818152602001828054611a5090614e38565b8015611a9d5780601f10611a7257610100808354040283529160200191611a9d565b820191906000526020600020905b815481529060010190602001808311611a8057829003601f168201915b50505050508152602001600282018054611ab690614e38565b80601f0160208091040260200160405190810160405280929190818152602001828054611ae290614e38565b8015611b2f5780601f10611b0457610100808354040283529160200191611b2f565b820191906000526020600020905b815481529060010190602001808311611b1257829003601f168201915b505050918352505060038201546020820152600482015460408201526005820154606082015260068201546001600160a01b0316608082015260078201805460a090920191611b7d90614e38565b80601f0160208091040260200160405190810160405280929190818152602001828054611ba990614e38565b8015611bf65780601f10611bcb57610100808354040283529160200191611bf6565b820191906000526020600020905b815481529060010190602001808311611bd957829003601f168201915b50505050508152602001600882018054611c0f90614e38565b80601f0160208091040260200160405190810160405280929190818152602001828054611c3b90614e38565b8015611c885780601f10611c5d57610100808354040283529160200191611c88565b820191906000526020600020905b815481529060010190602001808311611c6b57829003601f168201915b50505050508152602001600982018054611ca190614e38565b80601f0160208091040260200160405190810160405280929190818152602001828054611ccd90614e38565b8015611d1a5780601f10611cef57610100808354040283529160200191611d1a565b820191906000526020600020905b815481529060010190602001808311611cfd57829003601f168201915b505050505081525050815260200190600101906119e6565b5050505091505090565b6001600160a01b0381166000908152601760209081526040808320805482518185028101850190935280835260609492939192909184015b828210156113345760008481526020908190206040805160c081018252600686029092018054835260018101546001600160a01b031693830193909352600283015490820152600382018054919291606084019190611dd290614e38565b80601f0160208091040260200160405190810160405280929190818152602001828054611dfe90614e38565b8015611e4b5780601f10611e2057610100808354040283529160200191611e4b565b820191906000526020600020905b815481529060010190602001808311611e2e57829003601f168201915b505050505081526020016004820154815260200160058201548152505081526020019060010190611d74565b60606013805480602002602001604051908101604052809291908181526020018280548015611ec557602002820191906000526020600020905b815481526020019060010190808311611eb1575b5050505050905090565b60606007805480602002602001604051908101604052809291908181526020016000905b8282101561223f57838290600052602060002090600a02016040518061014001604052908160008201548152602001600182018054611f3190614e38565b80601f0160208091040260200160405190810160405280929190818152602001828054611f5d90614e38565b8015611faa5780601f10611f7f57610100808354040283529160200191611faa565b820191906000526020600020905b815481529060010190602001808311611f8d57829003601f168201915b50505050508152602001600282018054611fc390614e38565b80601f0160208091040260200160405190810160405280929190818152602001828054611fef90614e38565b801561203c5780601f106120115761010080835404028352916020019161203c565b820191906000526020600020905b81548152906001019060200180831161201f57829003601f168201915b505050918352505060038201546020820152600482015460408201526005820154606082015260068201546001600160a01b0316608082015260078201805460a09092019161208a90614e38565b80601f01602080910402602001604051908101604052809291908181526020018280546120b690614e38565b80156121035780601f106120d857610100808354040283529160200191612103565b820191906000526020600020905b8154815290600101906020018083116120e657829003601f168201915b5050505050815260200160088201805461211c90614e38565b80601f016020809104026020016040519081016040528092919081815260200182805461214890614e38565b80156121955780601f1061216a57610100808354040283529160200191612195565b820191906000526020600020905b81548152906001019060200180831161217857829003601f168201915b505050505081526020016009820180546121ae90614e38565b80601f01602080910402602001604051908101604052809291908181526020018280546121da90614e38565b80156122275780601f106121fc57610100808354040283529160200191612227565b820191906000526020600020905b81548152906001019060200180831161220a57829003601f168201915b50505050508152505081526020019060010190611ef3565b50505050905090565b60145460609060005b8181101561234b576010612271601483815481106118d9576118d9614e22565b81546001818101845560009384526020938490208351600a909302019182559282015191929091908201906122a69082614eba565b50604082015160028201906122bb9082614eba565b50606082015160038201556080820151600482015560a0820151600582015560c08201516006820180546001600160a01b0319166001600160a01b0390921691909117905560e082015160078201906123149082614eba565b50610100820151600882019061232a9082614eba565b5061012082015160098201906123409082614eba565b505050600101612251565b506010805480602002602001604051908101604052809291908181526020016000905b82821015611d3257838290600052602060002090600a020160405180610140016040529081600082015481526020016001820180546123ac90614e38565b80601f01602080910402602001604051908101604052809291908181526020018280546123d890614e38565b80156124255780601f106123fa57610100808354040283529160200191612425565b820191906000526020600020905b81548152906001019060200180831161240857829003601f168201915b5050505050815260200160028201805461243e90614e38565b80601f016020809104026020016040519081016040528092919081815260200182805461246a90614e38565b80156124b75780601f1061248c576101008083540402835291602001916124b7565b820191906000526020600020905b81548152906001019060200180831161249a57829003601f168201915b505050918352505060038201546020820152600482015460408201526005820154606082015260068201546001600160a01b0316608082015260078201805460a09092019161250590614e38565b80601f016020809104026020016040519081016040528092919081815260200182805461253190614e38565b801561257e5780601f106125535761010080835404028352916020019161257e565b820191906000526020600020905b81548152906001019060200180831161256157829003601f168201915b5050505050815260200160088201805461259790614e38565b80601f01602080910402602001604051908101604052809291908181526020018280546125c390614e38565b80156126105780601f106125e557610100808354040283529160200191612610565b820191906000526020600020905b8154815290600101906020018083116125f357829003601f168201915b5050505050815260200160098201805461262990614e38565b80601f016020809104026020016040519081016040528092919081815260200182805461265590614e38565b80156126a25780601f10612677576101008083540402835291602001916126a2565b820191906000526020600020905b81548152906001019060200180831161268557829003601f168201915b5050505050815250508152602001906001019061236e565b81816126c5826111de565b81815181106126d6576126d6614e22565b6020026020010151602001516001600160a01b0316336001600160a01b031614612713576040516314fd685b60e21b815260040160405180910390fd5b6040805160208082018352600080835287815260159091529190912080548590811061274157612741614e22565b9060005260206000209060060201600301908161275e9190614eba565b50600084815260156020526040812080548590811061277f5761277f614e22565b906000526020600020906006020160010160006101000a8154816001600160a01b0302191690836001600160a01b0316021790555050505050565b3360006127c6826134d6565b602001516001600160a01b0316036127f15760405163243ba64d60e21b815260040160405180910390fd5b6000600780549050905060006040518061014001604052808381526020018681526020018581526020014281526020016000815260200160008152602001336001600160a01b03168152602001612847336134d6565b604001518152602001612859336134d6565b60600151815260200161286b336134d6565b60a0015190529050600061287e33612e77565b336000908152600e602090815260408220805460018082018355918452928290208651600a850290910190815591860151939450919285928201906128c39082614eba565b50604082015160028201906128d89082614eba565b50606082015160038201556080820151600482015560a0820151600582015560c08201516006820180546001600160a01b0319166001600160a01b0390921691909117905560e082015160078201906129319082614eba565b5061010082015160088201906129479082614eba565b50610120820151600982019061295d9082614eba565b505083516000908152600f6020908152604082208490556007805460018101825592528551600a9092027fa66cc928b5edb82af9bd49922954155ab7b0942694bea4ce44661d9a8736c6888101928355908601518693507fa66cc928b5edb82af9bd49922954155ab7b0942694bea4ce44661d9a8736c689909101906129e39082614eba565b50604082015160028201906129f89082614eba565b50606082015160038201556080820151600482015560a0820151600582015560c08201516006820180546001600160a01b0319166001600160a01b0390921691909117905560e08201516007820190612a519082614eba565b506101008201516008820190612a679082614eba565b506101208201516009820190612a7d9082614eba565b5050835160088054600181019091557ff3f7a9fe364faab93b216da50a3214154f22a0a2b415b23a84c8169e8b636ee3015550336000818152600a60209081526040808320889055878352600b9091529081902080546001600160a01b031916909217909155517f3d4335cbfac350aa27a3fa09060b4691656ecbe3033f4d953849c2f755f230d190612b13908690859061502e565b60405180910390a150505050505050565b336000612b30826134d6565b602001516001600160a01b031603612b5b5760405163243ba64d60e21b815260040160405180910390fd5b826000612b6782612f26565b60c001516001600160a01b03161480612b885750612b83611ecf565b518110155b15612ba657604051630fda044d60e11b815260040160405180910390fd5b6000848152601d6020526040812080549082612bc183614fa3565b909155506040805160c0810182528281523360208083018281528385018b8152606085018b8152426080870152600060a087018190528d815260168552878120898252855287812080546001600160a01b031990811690971790558d815260158552968720805460018181018355918952949097208651600690950201938455915195830180549094166001600160a01b03909616959095179092559251600284015551929350918291906003820190612c7b9082614eba565b506080820151600482015560a0909101516005909101553360009081526017602090815260408083208054600180820183559185529383902085516006909502019384559184015191830180546001600160a01b0319166001600160a01b0390931692909217909155820151600282015560608201518291906003820190612d039082614eba565b506080820151816004015560a082015181600501555050505050505050565b612d2a6143f4565b601a8281548110612d3d57612d3d614e22565b90600052602060002090600602016040518060c0016040529081600082015481526020016001820160009054906101000a90046001600160a01b03166001600160a01b03166001600160a01b0316815260200160028201548152602001600382018054612da990614e38565b80601f0160208091040260200160405190810160405280929190818152602001828054612dd590614e38565b8015612e225780601f10612df757610100808354040283529160200191612e22565b820191906000526020600020905b815481529060010190602001808311612e0557829003601f168201915b50505050508152602001600482015481526020016005820154815250509050919050565b6000600482604051612e589190615012565b908152604051908190036020019020546001600160a01b031692915050565b6001600160a01b0381166000908152600160205260409020600201805460609190612ea190614e38565b80601f0160208091040260200160405190810160405280929190818152602001828054612ecd90614e38565b8015612f1a5780601f10612eef57610100808354040283529160200191612f1a565b820191906000526020600020905b815481529060010190602001808311612efd57829003601f168201915b50505050509050919050565b612f2e614433565b612f36611ecf565b518210612f5657604051630fda044d60e11b815260040160405180910390fd5b60078281548110612f6957612f69614e22565b90600052602060002090600a02016040518061014001604052908160008201548152602001600182018054612f9d90614e38565b80601f0160208091040260200160405190810160405280929190818152602001828054612fc990614e38565b80156130165780601f10612feb57610100808354040283529160200191613016565b820191906000526020600020905b815481529060010190602001808311612ff957829003601f168201915b5050505050815260200160028201805461302f90614e38565b80601f016020809104026020016040519081016040528092919081815260200182805461305b90614e38565b80156130a85780601f1061307d576101008083540402835291602001916130a8565b820191906000526020600020905b81548152906001019060200180831161308b57829003601f168201915b505050918352505060038201546020820152600482015460408201526005820154606082015260068201546001600160a01b0316608082015260078201805460a0909201916130f690614e38565b80601f016020809104026020016040519081016040528092919081815260200182805461312290614e38565b801561316f5780601f106131445761010080835404028352916020019161316f565b820191906000526020600020905b81548152906001019060200180831161315257829003601f168201915b5050505050815260200160088201805461318890614e38565b80601f01602080910402602001604051908101604052809291908181526020018280546131b490614e38565b80156132015780601f106131d657610100808354040283529160200191613201565b820191906000526020600020905b8154815290600101906020018083116131e457829003601f168201915b5050505050815260200160098201805461321a90614e38565b80601f016020809104026020016040519081016040528092919081815260200182805461324690614e38565b80156132935780601f1061326857610100808354040283529160200191613293565b820191906000526020600020905b81548152906001019060200180831161327657829003601f168201915b5050505050815250509050919050565b6132ab61448f565b600082815481106132be576132be614e22565b90600052602060002090600602016040518060c0016040529081600082015481526020016001820160009054906101000a90046001600160a01b03166001600160a01b03166001600160a01b0316815260200160028201805461332090614e38565b80601f016020809104026020016040519081016040528092919081815260200182805461334c90614e38565b80156133995780601f1061336e57610100808354040283529160200191613399565b820191906000526020600020905b81548152906001019060200180831161337c57829003601f168201915b505050505081526020016003820180546133b290614e38565b80601f01602080910402602001604051908101604052809291908181526020018280546133de90614e38565b801561342b5780601f106134005761010080835404028352916020019161342b565b820191906000526020600020905b81548152906001019060200180831161340e57829003601f168201915b5050505050815260200160048201805461344490614e38565b80601f016020809104026020016040519081016040528092919081815260200182805461347090614e38565b80156134bd5780601f10613492576101008083540402835291602001916134bd565b820191906000526020600020905b8154815290600101906020018083116134a057829003601f168201915b5050505050815260200160058201805461321a90614e38565b6134de61448f565b6001600160a01b03808316600090815260016020818152604092839020835160c08101855281548152928101549094169082015260028301805491939284019161332090614e38565b336000613533826134d6565b602001516001600160a01b03160361355e5760405163243ba64d60e21b815260040160405180910390fd5b82613568816132a3565b602001516001600160a01b0316336001600160a01b03161461359d5760405163a736c1d760e01b815260040160405180910390fd5b8260006135a982612e46565b6001600160a01b0316146135d057604051630fa2819960e31b815260040160405180910390fd5b83600086815481106135e4576135e4614e22565b90600052602060002090600602016002019081610bd19190614eba565b33600061360d826134d6565b602001516001600160a01b0316036136385760405163243ba64d60e21b815260040160405180910390fd5b84613642816132a3565b602001516001600160a01b0316336001600160a01b0316146136775760405163a736c1d760e01b815260040160405180910390fd5b60405160200161369290602080825260009082015260400190565b60405160208183030381529060405280519060200120856040516020016136b99190614b37565b60405160208183030381529060405280519060200120146137245784600087815481106136e8576136e8614e22565b906000526020600020906006020160040190816137059190614eba565b503360009081526001602052604090206004016137228682614eba565b505b60405160200161373f90602080825260009082015260400190565b60405160208183030381529060405280519060200120846040516020016137669190614b37565b60405160208183030381529060405280519060200120146137d157836000878154811061379557613795614e22565b906000526020600020906006020160050190816137b29190614eba565b503360009081526001602052604090206005016137cf8582614eba565b505b6040516020016137ec90602080825260009082015260400190565b60405160208183030381529060405280519060200120846040516020016138139190614b37565b6040516020818303038152906040528051906020012014610bd157826000878154811061384257613842614e22565b9060005260206000209060060201600301908161385f9190614eba565b503360009081526001602052604090206003016117338482614eba565b60145460609060005b818110156138da5760056138b16138a8601484815481106118d9576118d9614e22565b60c00151612e77565b815460018101835560009283526020909220909101906138d19082614eba565b50600101613885565b506005805480602002602001604051908101604052809291908181526020016000905b82821015611d3257838290600052602060002001805461391c90614e38565b80601f016020809104026020016040519081016040528092919081815260200182805461394890614e38565b80156139955780601f1061396a57610100808354040283529160200191613995565b820191906000526020600020905b81548152906001019060200180831161397857829003601f168201915b5050505050815260200190600101906138fd565b60606014805480602002602001604051908101604052809291908181526020018280548015611ec55760200282019190600052602060002090815481526020019060010190808311611eb1575050505050905090565b6000828152601960209081526040808320848452825291829020805483518184028101840190945280845260609392830182828015613a6757602002820191906000526020600020905b81546001600160a01b03168152600190910190602001808311613a49575b5050505050905092915050565b60606008805480602002602001604051908101604052809291908181526020018280548015611ec55760200282019190600052602060002090815481526020019060010190808311611eb1575050505050905090565b6001600160a01b0381166000908152600e60209081526040808320805482518185028101850190935280835260609492939192909184015b8282101561133457838290600052602060002090600a02016040518061014001604052908160008201548152602001600182018054613b4090614e38565b80601f0160208091040260200160405190810160405280929190818152602001828054613b6c90614e38565b8015613bb95780601f10613b8e57610100808354040283529160200191613bb9565b820191906000526020600020905b815481529060010190602001808311613b9c57829003601f168201915b50505050508152602001600282018054613bd290614e38565b80601f0160208091040260200160405190810160405280929190818152602001828054613bfe90614e38565b8015613c4b5780601f10613c2057610100808354040283529160200191613c4b565b820191906000526020600020905b815481529060010190602001808311613c2e57829003601f168201915b505050918352505060038201546020820152600482015460408201526005820154606082015260068201546001600160a01b0316608082015260078201805460a090920191613c9990614e38565b80601f0160208091040260200160405190810160405280929190818152602001828054613cc590614e38565b8015613d125780601f10613ce757610100808354040283529160200191613d12565b820191906000526020600020905b815481529060010190602001808311613cf557829003601f168201915b50505050508152602001600882018054613d2b90614e38565b80601f0160208091040260200160405190810160405280929190818152602001828054613d5790614e38565b8015613da45780601f10613d7957610100808354040283529160200191613da4565b820191906000526020600020905b815481529060010190602001808311613d8757829003601f168201915b50505050508152602001600982018054613dbd90614e38565b80601f0160208091040260200160405190810160405280929190818152602001828054613de990614e38565b8015613e365780601f10613e0b57610100808354040283529160200191613e36565b820191906000526020600020905b815481529060010190602001808311613e1957829003601f168201915b50505050508152505081526020019060010190613b02565b336000613e5a826134d6565b602001516001600160a01b031603613e855760405163243ba64d60e21b815260040160405180910390fd5b6000838152601860209081526040808320858452825280832033845290915281205460ff1615159003610d2357600083815260186020908152604080832085845282528083203384528252808320805460ff1916600117905585835260159091529020805483908110613efa57613efa614e22565b600091825260208220600560069092020101805491613f1883614fa3565b9091555050600083815260196020908152604080832085845282528220805460018101825590835291200180546001600160a01b03191633179055505050565b82613f6281612f26565b60c001516001600160a01b0316336001600160a01b031614613f975760405163b5f6908d60e01b815260040160405180910390fd5b8260078581548110613fab57613fab614e22565b90600052602060002090600a02016001019081613fc89190614eba565b50604051602001613fe490602080825260009082015260400190565b604051602081830303815290604052805190602001208260405160200161400b9190614b37565b604051602081830303815290604052805190602001201461405957816007858154811061403a5761403a614e22565b90600052602060002090600a020160020190816140579190614eba565b505b600061406433612e77565b90507f7009e6824c3ecb1321da2ebabc18901b48d900a97f978c5a93dd3ba8cfe59035858260405161409792919061502e565b60405180910390a15050505050565b6140ae61433a565b565b805160005b81811015610d23576140df8382815181106140d2576140d2614e22565b6020026020010151614357565b156141185760138382815181106140f8576140f8614e22565b602090810291909101810151825460018101845560009384529190922001555b6001016140b5565b6006546000908190610c6f9084906001600160a01b0316610f2d565b8061414681612f26565b60c001516001600160a01b031633036141725760405163e900992360e01b815260040160405180910390fd5b8161419781336000908152600d60209081526040808320938352929052205460ff1690565b156141b557604051636d830dbf60e11b815260040160405180910390fd5b336000908152600d602090815260408083208684529091529020805460ff1916600117905560078054849081106141ee576141ee614e22565b6000918252602082206005600a909202010180549161420c83614fa3565b90915550506000838152600b60205260408120546001600160a01b03169061423382612e77565b9050600061424033612e77565b90507fd7ad3e52dbe8b445d900fd8aa659c95d5b75bb6733c12e7f22d048963bd39ed5868383604051610f1d93929190614fbc565b600080826001600160a01b031663feaf968c6040518163ffffffff1660e01b815260040160a060405180830381865afa1580156142b6573d6000803e3d6000fd5b505050506040513d601f19601f820116820180604052508101906142da9190615066565b505050915050806402540be400610c6f91906150b6565b6140ae6143ba565b6140ae6143d7565b61072d81601480546001810182556000919091527fce6d7b5282bd9a3661ae061feed1dbda4e52ab073b1f9285be6e155d9c38d4ec0155565b604080516000815260208101918290525161072d916013916144ce565b60008061436383612f26565b608001519050600061437484612f26565b60a0015190506000806143878385614f90565b1161439357600061439d565b61439d8284614f90565b905060018110156143af576000610f5a565b600195945050505050565b604080516000815260208101918290525161072d916008916144ce565b604080516000815260208101918290525161072d916014916144ce565b6040518060c001604052806000815260200160006001600160a01b03168152602001600081526020016060815260200160008152602001600081525090565b60405180610140016040528060008152602001606081526020016060815260200160008152602001600081526020016000815260200160006001600160a01b031681526020016060815260200160608152602001606081525090565b6040518060c001604052806000815260200160006001600160a01b03168152602001606081526020016060815260200160608152602001606081525090565b828054828255906000526020600020908101928215614509579160200282015b828111156145095782518255916020019190600101906144ee565b50614515929150614519565b5090565b5b80821115614515576000815560010161451a565b60006020828403121561454057600080fd5b5035919050565b60005b8381101561456257818101518382015260200161454a565b50506000910152565b60008151808452614583816020860160208601614547565b601f01601f19169290920160200192915050565b8051825260018060a01b036020820151166020830152604081015160408301526000606082015160c060608501526145d260c085018261456b565b90506080830151608085015260a083015160a08501528091505092915050565b600060208083016020845280855180835260408601915060408160051b87010192506020870160005b8281101561464957603f19888603018452614637858351614597565b9450928501929085019060010161461b565b5092979650505050505050565b634e487b7160e01b600052604160045260246000fd5b604051601f8201601f1916810167ffffffffffffffff8111828210171561469557614695614656565b604052919050565b600067ffffffffffffffff8311156146b7576146b7614656565b6146ca601f8401601f191660200161466c565b90508281528383830111156146de57600080fd5b828260208301376000602084830101529392505050565b600082601f83011261470657600080fd5b610c6f8383356020850161469d565b6000806040838503121561472857600080fd5b823567ffffffffffffffff8082111561474057600080fd5b61474c868387016146f5565b9350602085013591508082111561476257600080fd5b5061476f858286016146f5565b9150509250929050565b6000806040838503121561478c57600080fd5b8235915060208084013567ffffffffffffffff808211156147ac57600080fd5b818601915086601f8301126147c057600080fd5b8135818111156147d2576147d2614656565b8060051b91506147e384830161466c565b81815291830184019184810190898411156147fd57600080fd5b938501935b8385101561481b57843582529385019390850190614802565b8096505050505050509250929050565b600061014082518452602083015181602086015261484b8286018261456b565b91505060408301518482036040860152614865828261456b565b915050606083015160608501526080830151608085015260a083015160a085015260c08301516148a060c08601826001600160a01b03169052565b5060e083015184820360e08601526148b8828261456b565b91505061010080840151858303828701526148d3838261456b565b9250505061012080840151858303828701526148ef838261456b565b9695505050505050565b600060208083016020845280855180835260408601915060408160051b87010192506020870160005b8281101561464957603f1988860301845261493e85835161482b565b94509285019290850190600101614922565b6001600160a01b038116811461072d57600080fd5b60006020828403121561497757600080fd5b8135610c6f81614950565b6020808252825182820181905260009190848201906040850190845b818110156149ba5783518352928401929184019160010161499e565b50909695505050505050565b600080604083850312156149d957600080fd5b50508035926020909101359150565b600080604083850312156149fb57600080fd5b82359150602083013567ffffffffffffffff811115614a1957600080fd5b61476f858286016146f5565b60008060208385031215614a3857600080fd5b823567ffffffffffffffff80821115614a5057600080fd5b818501915085601f830112614a6457600080fd5b813581811115614a7357600080fd5b866020828501011115614a8557600080fd5b60209290920196919550909350505050565b600080600060608486031215614aac57600080fd5b8335925060208401359150604084013567ffffffffffffffff811115614ad157600080fd5b614add868287016146f5565b9150509250925092565b602081526000610c6f6020830184614597565b600060208284031215614b0c57600080fd5b813567ffffffffffffffff811115614b2357600080fd5b614b2f848285016146f5565b949350505050565b602081526000610c6f602083018461456b565b602081526000610c6f602083018461482b565b602081528151602082015260018060a01b0360208301511660408201526000604083015160c06060840152614b9560e084018261456b565b90506060840151601f1980858403016080860152614bb3838361456b565b925060808601519150808584030160a0860152614bd0838361456b565b925060a08601519150808584030160c086015250610f5a828261456b565b60008060008060808587031215614c0457600080fd5b84359350602085013567ffffffffffffffff80821115614c2357600080fd5b614c2f888389016146f5565b94506040870135915080821115614c4557600080fd5b614c51888389016146f5565b93506060870135915080821115614c6757600080fd5b50614c74878288016146f5565b91505092959194509250565b600060208083016020845280855180835260408601915060408160051b87010192506020870160005b8281101561464957603f19888603018452614cc585835161456b565b94509285019290850190600101614ca9565b6020808252825182820181905260009190848201906040850190845b818110156149ba5783516001600160a01b031683529284019291840191600101614cf3565b600080600060608486031215614d2d57600080fd5b83359250602084013567ffffffffffffffff80821115614d4c57600080fd5b614d58878388016146f5565b93506040860135915080821115614d6e57600080fd5b50614add868287016146f5565b600060208284031215614d8d57600080fd5b813567ffffffffffffffff811115614da457600080fd5b8201601f81018413614db557600080fd5b614b2f8482356020840161469d565b8215158152604060208201526000614b2f604083018461456b565b634e487b7160e01b600052601260045260246000fd5b600082614e0457614e04614ddf565b500690565b600060208284031215614e1b57600080fd5b5051919050565b634e487b7160e01b600052603260045260246000fd5b600181811c90821680614e4c57607f821691505b602082108103614e6c57634e487b7160e01b600052602260045260246000fd5b50919050565b601f821115610d23576000816000526020600020601f850160051c81016020861015614e9b5750805b601f850160051c820191505b81811015610bd157828155600101614ea7565b815167ffffffffffffffff811115614ed457614ed4614656565b614ee881614ee28454614e38565b84614e72565b602080601f831160018114614f1d5760008415614f055750858301515b600019600386901b1c1916600185901b178555610bd1565b600085815260208120601f198616915b82811015614f4c57888601518255948401946001909101908401614f2d565b5085821015614f6a5787850151600019600388901b60f8161c191681555b5050505050600190811b01905550565b634e487b7160e01b600052601160045260246000fd5b818103818111156107c7576107c7614f7a565b600060018201614fb557614fb5614f7a565b5060010190565b838152606060208201526000614fd5606083018561456b565b82810360408401526148ef818561456b565b80820281158282048414176107c7576107c7614f7a565b60008261500d5761500d614ddf565b500490565b60008251615024818460208701614547565b9190910192915050565b828152604060208201526000614b2f604083018461456b565b805169ffffffffffffffffffff8116811461506157600080fd5b919050565b600080600080600060a0868803121561507e57600080fd5b61508786615047565b94506020860151935060408601519250606086015191506150aa60808701615047565b90509295509295909350565b80820260008212600160ff1b841416156150d2576150d2614f7a565b81810583148215176107c7576107c7614f7a56fea2646970667358221220796cdaa356ac29ced104f84df8a36f38818a4581fb8043c96e80c491fad7e46964736f6c63430008180033","linkReferences":{}},"methodIdentifiers":{"CheckUpkeep(bytes)":"c9fbacf3","_editComment(uint256,uint256,string)":"479721a9","changeUsername(uint256,string)":"72d4e382","createComment(uint256,string)":"40a17985","createPost(string,string)":"392338f5","deleteComment(uint256,uint256)":"31a4bcb5","deletePost(uint256)":"094cd5ee","downvote(uint256)":"f31fdad4","editComment(uint256,uint256,string)":"fa561152","editPost(uint256,string,string)":"bf0ac63c","editUserProfile(uint256,string,string,string)":"7461d858","getAddressFromUsername(string)":"4e82c134","getAllPosts()":"30561100","getBalance()":"12065fe0","getCommentByCommentId(uint256)":"49248d38","getCommentLikersByPostIdAndCommentId(uint256,uint256)":"8dc4a066","getCommentsByPostId(uint256)":"0f4b2d9c","getContractOwner()":"442890d5","getIdsOfEligiblePosts()":"2d492c83","getIdsOfRecentPosts()":"984d1015","getIdsOfRecentWinningPosts()":"8c262013","getPostById(uint256)":"64e95895","getRecentTrendingPosts()":"2a04c645","getRecentWinningPosts()":"30ad4ba9","getUsdValueOfEthAmount(uint256)":"e96c520b","getUser(address)":"6f77926b","getUserById(uint256)":"6ed6da9e","getUserComments(address)":"2b3c6e22","getUserNameFromAddress(address)":"6372af84","getUserPosts(address)":"9a2194a9","getUserVoteStatus(uint256)":"a4dd41d0","getUsernameOfRecentWinners()":"7a0726bd","likeComment(uint256,uint256)":"a0e91821","performUpkeep(bytes)":"4585e33b","rawFulfillRandomWords(uint256,uint256[])":"1fe543e3","registerUser(string,string)":"1d2e4afd","transferContractBalance(address)":"96f11ac8","upvote(uint256)":"01ddf070"},"id":35}