{"abi":[{"type":"constructor","inputs":[{"name":"priceFeed","type":"address","internalType":"address"},{"name":"interval","type":"uint256","internalType":"uint256"},{"name":"vrfCoordinator","type":"address","internalType":"address"},{"name":"gasLane","type":"bytes32","internalType":"bytes32"},{"name":"subscriptionId","type":"uint64","internalType":"uint64"},{"name":"callbackGasLimit","type":"uint32","internalType":"uint32"},{"name":"link","type":"address","internalType":"address"},{"name":"deployerKey","type":"uint256","internalType":"uint256"}],"stateMutability":"nonpayable"},{"type":"fallback","stateMutability":"payable"},{"type":"receive","stateMutability":"payable"},{"type":"function","name":"CheckUpkeep","inputs":[{"name":"","type":"bytes","internalType":"bytes"}],"outputs":[{"name":"upkeepNeeded","type":"bool","internalType":"bool"},{"name":"","type":"bytes","internalType":"bytes"}],"stateMutability":"nonpayable"},{"type":"function","name":"MINIMUM_USD","inputs":[],"outputs":[{"name":"","type":"uint256","internalType":"uint256"}],"stateMutability":"view"},{"type":"function","name":"MIN_POST_SCORE","inputs":[],"outputs":[{"name":"","type":"uint256","internalType":"uint256"}],"stateMutability":"view"},{"type":"function","name":"REQUEST_CONFIRMATIONS","inputs":[],"outputs":[{"name":"","type":"uint16","internalType":"uint16"}],"stateMutability":"view"},{"type":"function","name":"TEN","inputs":[],"outputs":[{"name":"","type":"uint32","internalType":"uint32"}],"stateMutability":"view"},{"type":"function","name":"TWENTY","inputs":[],"outputs":[{"name":"","type":"uint32","internalType":"uint32"}],"stateMutability":"view"},{"type":"function","name":"WINNING_REWARD","inputs":[],"outputs":[{"name":"","type":"uint256","internalType":"uint256"}],"stateMutability":"view"},{"type":"function","name":"changeOwner","inputs":[{"name":"_newOwner","type":"address","internalType":"address"}],"outputs":[],"stateMutability":"nonpayable"},{"type":"function","name":"changeUsername","inputs":[{"name":"_userId","type":"uint256","internalType":"uint256"},{"name":"_newNickName","type":"string","internalType":"string"}],"outputs":[],"stateMutability":"nonpayable"},{"type":"function","name":"createComment","inputs":[{"name":"_postId","type":"uint256","internalType":"uint256"},{"name":"_content","type":"string","internalType":"string"}],"outputs":[],"stateMutability":"nonpayable"},{"type":"function","name":"createPost","inputs":[{"name":"_content","type":"string","internalType":"string"},{"name":"_imgHash","type":"string","internalType":"string"}],"outputs":[],"stateMutability":"nonpayable"},{"type":"function","name":"deleteComment","inputs":[{"name":"_postId","type":"uint256","internalType":"uint256"},{"name":"_commentId","type":"uint256","internalType":"uint256"}],"outputs":[],"stateMutability":"payable"},{"type":"function","name":"deletePost","inputs":[{"name":"_postId","type":"uint256","internalType":"uint256"}],"outputs":[],"stateMutability":"payable"},{"type":"function","name":"downvote","inputs":[{"name":"_postId","type":"uint256","internalType":"uint256"}],"outputs":[],"stateMutability":"nonpayable"},{"type":"function","name":"editComment","inputs":[{"name":"_postId","type":"uint256","internalType":"uint256"},{"name":"_commentId","type":"uint256","internalType":"uint256"},{"name":"_content","type":"string","internalType":"string"}],"outputs":[],"stateMutability":"nonpayable"},{"type":"function","name":"editPost","inputs":[{"name":"_postId","type":"uint256","internalType":"uint256"},{"name":"_content","type":"string","internalType":"string"},{"name":"_imgHash","type":"string","internalType":"string"}],"outputs":[],"stateMutability":"nonpayable"},{"type":"function","name":"editUserProfile","inputs":[{"name":"_userId","type":"uint256","internalType":"uint256"},{"name":"_bio","type":"string","internalType":"string"},{"name":"_profileImageHash","type":"string","internalType":"string"},{"name":"_newName","type":"string","internalType":"string"}],"outputs":[],"stateMutability":"nonpayable"},{"type":"function","name":"getAddressFromUsername","inputs":[{"name":"_username","type":"string","internalType":"string"}],"outputs":[{"name":"","type":"address","internalType":"address"}],"stateMutability":"view"},{"type":"function","name":"getAllPosts","inputs":[],"outputs":[{"name":"","type":"tuple[]","internalType":"struct ChainSphereVars.Post[]","components":[{"name":"postId","type":"uint256","internalType":"uint256"},{"name":"content","type":"string","internalType":"string"},{"name":"imgHash","type":"string","internalType":"string"},{"name":"timestamp","type":"uint256","internalType":"uint256"},{"name":"upvotes","type":"uint256","internalType":"uint256"},{"name":"downvotes","type":"uint256","internalType":"uint256"},{"name":"author","type":"address","internalType":"address"}]}],"stateMutability":"view"},{"type":"function","name":"getBalance","inputs":[],"outputs":[{"name":"","type":"uint256","internalType":"uint256"}],"stateMutability":"view"},{"type":"function","name":"getCommentByPostIdAndCommentId","inputs":[{"name":"_postId","type":"uint256","internalType":"uint256"},{"name":"_commentId","type":"uint256","internalType":"uint256"}],"outputs":[{"name":"","type":"tuple","internalType":"struct ChainSphereVars.Comment","components":[{"name":"commentId","type":"uint256","internalType":"uint256"},{"name":"author","type":"address","internalType":"address"},{"name":"postId","type":"uint256","internalType":"uint256"},{"name":"content","type":"string","internalType":"string"},{"name":"timestamp","type":"uint256","internalType":"uint256"},{"name":"likesCount","type":"uint256","internalType":"uint256"}]}],"stateMutability":"view"},{"type":"function","name":"getCommentLikersByPostIdAndCommentId","inputs":[{"name":"_postId","type":"uint256","internalType":"uint256"},{"name":"_commentId","type":"uint256","internalType":"uint256"}],"outputs":[{"name":"","type":"address[]","internalType":"address[]"}],"stateMutability":"view"},{"type":"function","name":"getContractOwner","inputs":[],"outputs":[{"name":"","type":"address","internalType":"address"}],"stateMutability":"view"},{"type":"function","name":"getIdsOfEligiblePosts","inputs":[],"outputs":[{"name":"","type":"uint256[]","internalType":"uint256[]"}],"stateMutability":"view"},{"type":"function","name":"getIdsOfRecentPosts","inputs":[],"outputs":[{"name":"","type":"uint256[]","internalType":"uint256[]"}],"stateMutability":"view"},{"type":"function","name":"getIdsOfRecentWinningPosts","inputs":[],"outputs":[{"name":"","type":"uint256[]","internalType":"uint256[]"}],"stateMutability":"view"},{"type":"function","name":"getPostById","inputs":[{"name":"_postId","type":"uint256","internalType":"uint256"}],"outputs":[{"name":"","type":"tuple","internalType":"struct ChainSphereVars.Post","components":[{"name":"postId","type":"uint256","internalType":"uint256"},{"name":"content","type":"string","internalType":"string"},{"name":"imgHash","type":"string","internalType":"string"},{"name":"timestamp","type":"uint256","internalType":"uint256"},{"name":"upvotes","type":"uint256","internalType":"uint256"},{"name":"downvotes","type":"uint256","internalType":"uint256"},{"name":"author","type":"address","internalType":"address"}]}],"stateMutability":"view"},{"type":"function","name":"getUsdValueOfEthAmount","inputs":[{"name":"_ethAmount","type":"uint256","internalType":"uint256"}],"outputs":[{"name":"","type":"uint256","internalType":"uint256"}],"stateMutability":"view"},{"type":"function","name":"getUser","inputs":[{"name":"_userAddress","type":"address","internalType":"address"}],"outputs":[{"name":"","type":"tuple","internalType":"struct ChainSphereVars.User","components":[{"name":"id","type":"uint256","internalType":"uint256"},{"name":"userAddress","type":"address","internalType":"address"},{"name":"nickName","type":"string","internalType":"string"},{"name":"fullNameOfUser","type":"string","internalType":"string"},{"name":"bio","type":"string","internalType":"string"},{"name":"profileImageHash","type":"string","internalType":"string"}]}],"stateMutability":"view"},{"type":"function","name":"getUserById","inputs":[{"name":"_userId","type":"uint256","internalType":"uint256"}],"outputs":[{"name":"","type":"tuple","internalType":"struct ChainSphereVars.User","components":[{"name":"id","type":"uint256","internalType":"uint256"},{"name":"userAddress","type":"address","internalType":"address"},{"name":"nickName","type":"string","internalType":"string"},{"name":"fullNameOfUser","type":"string","internalType":"string"},{"name":"bio","type":"string","internalType":"string"},{"name":"profileImageHash","type":"string","internalType":"string"}]}],"stateMutability":"view"},{"type":"function","name":"getUserComments","inputs":[{"name":"_userAddress","type":"address","internalType":"address"}],"outputs":[{"name":"","type":"tuple[]","internalType":"struct ChainSphereVars.Comment[]","components":[{"name":"commentId","type":"uint256","internalType":"uint256"},{"name":"author","type":"address","internalType":"address"},{"name":"postId","type":"uint256","internalType":"uint256"},{"name":"content","type":"string","internalType":"string"},{"name":"timestamp","type":"uint256","internalType":"uint256"},{"name":"likesCount","type":"uint256","internalType":"uint256"}]}],"stateMutability":"view"},{"type":"function","name":"getUserNameFromAddress","inputs":[{"name":"_userAddress","type":"address","internalType":"address"}],"outputs":[{"name":"nickNameOfUser","type":"string","internalType":"string"}],"stateMutability":"view"},{"type":"function","name":"getUserPosts","inputs":[{"name":"_userAddress","type":"address","internalType":"address"}],"outputs":[{"name":"","type":"tuple[]","internalType":"struct ChainSphereVars.Post[]","components":[{"name":"postId","type":"uint256","internalType":"uint256"},{"name":"content","type":"string","internalType":"string"},{"name":"imgHash","type":"string","internalType":"string"},{"name":"timestamp","type":"uint256","internalType":"uint256"},{"name":"upvotes","type":"uint256","internalType":"uint256"},{"name":"downvotes","type":"uint256","internalType":"uint256"},{"name":"author","type":"address","internalType":"address"}]}],"stateMutability":"view"},{"type":"function","name":"getUserVoteStatus","inputs":[{"name":"_postId","type":"uint256","internalType":"uint256"}],"outputs":[{"name":"","type":"bool","internalType":"bool"}],"stateMutability":"view"},{"type":"function","name":"i_callbackGasLimit","inputs":[],"outputs":[{"name":"","type":"uint32","internalType":"uint32"}],"stateMutability":"view"},{"type":"function","name":"i_gasLane","inputs":[],"outputs":[{"name":"","type":"bytes32","internalType":"bytes32"}],"stateMutability":"view"},{"type":"function","name":"i_interval","inputs":[],"outputs":[{"name":"","type":"uint256","internalType":"uint256"}],"stateMutability":"view"},{"type":"function","name":"i_subscriptionId","inputs":[],"outputs":[{"name":"","type":"uint64","internalType":"uint64"}],"stateMutability":"view"},{"type":"function","name":"i_vrfCoordinator","inputs":[],"outputs":[{"name":"","type":"address","internalType":"contract VRFCoordinatorV2Interface"}],"stateMutability":"view"},{"type":"function","name":"likeComment","inputs":[{"name":"_postId","type":"uint256","internalType":"uint256"},{"name":"_commentId","type":"uint256","internalType":"uint256"}],"outputs":[],"stateMutability":"nonpayable"},{"type":"function","name":"performUpkeep","inputs":[{"name":"","type":"bytes","internalType":"bytes"}],"outputs":[],"stateMutability":"nonpayable"},{"type":"function","name":"rawFulfillRandomWords","inputs":[{"name":"requestId","type":"uint256","internalType":"uint256"},{"name":"randomWords","type":"uint256[]","internalType":"uint256[]"}],"outputs":[],"stateMutability":"nonpayable"},{"type":"function","name":"registerUser","inputs":[{"name":"_fullNameOfUser","type":"string","internalType":"string"},{"name":"_username","type":"string","internalType":"string"}],"outputs":[],"stateMutability":"nonpayable"},{"type":"function","name":"s_addressToUserProfile","inputs":[{"name":"","type":"address","internalType":"address"}],"outputs":[{"name":"id","type":"uint256","internalType":"uint256"},{"name":"userAddress","type":"address","internalType":"address"},{"name":"nickName","type":"string","internalType":"string"},{"name":"fullNameOfUser","type":"string","internalType":"string"},{"name":"bio","type":"string","internalType":"string"},{"name":"profileImageHash","type":"string","internalType":"string"}],"stateMutability":"view"},{"type":"function","name":"s_authorToPostId","inputs":[{"name":"","type":"address","internalType":"address"}],"outputs":[{"name":"","type":"uint256","internalType":"uint256"}],"stateMutability":"view"},{"type":"function","name":"s_authorsEligibleForReward","inputs":[{"name":"","type":"uint256","internalType":"uint256"}],"outputs":[{"name":"","type":"address","internalType":"address"}],"stateMutability":"view"},{"type":"function","name":"s_hasVoted","inputs":[{"name":"","type":"address","internalType":"address"},{"name":"","type":"uint256","internalType":"uint256"}],"outputs":[{"name":"","type":"bool","internalType":"bool"}],"stateMutability":"view"},{"type":"function","name":"s_idToPost","inputs":[{"name":"","type":"uint256","internalType":"uint256"}],"outputs":[{"name":"postId","type":"uint256","internalType":"uint256"},{"name":"content","type":"string","internalType":"string"},{"name":"imgHash","type":"string","internalType":"string"},{"name":"timestamp","type":"uint256","internalType":"uint256"},{"name":"upvotes","type":"uint256","internalType":"uint256"},{"name":"downvotes","type":"uint256","internalType":"uint256"},{"name":"author","type":"address","internalType":"address"}],"stateMutability":"view"},{"type":"function","name":"s_idsOfEligiblePosts","inputs":[{"name":"","type":"uint256","internalType":"uint256"}],"outputs":[{"name":"","type":"uint256","internalType":"uint256"}],"stateMutability":"view"},{"type":"function","name":"s_idsOfRecentWinningPosts","inputs":[{"name":"","type":"uint256","internalType":"uint256"}],"outputs":[{"name":"","type":"uint256","internalType":"uint256"}],"stateMutability":"view"},{"type":"function","name":"s_lastTimeStamp","inputs":[],"outputs":[{"name":"","type":"uint256","internalType":"uint256"}],"stateMutability":"view"},{"type":"function","name":"s_likedComment","inputs":[{"name":"","type":"uint256","internalType":"uint256"},{"name":"","type":"uint256","internalType":"uint256"},{"name":"","type":"address","internalType":"address"}],"outputs":[{"name":"","type":"bool","internalType":"bool"}],"stateMutability":"view"},{"type":"function","name":"s_likersOfComment","inputs":[{"name":"","type":"uint256","internalType":"uint256"},{"name":"","type":"uint256","internalType":"uint256"},{"name":"","type":"uint256","internalType":"uint256"}],"outputs":[{"name":"","type":"address","internalType":"address"}],"stateMutability":"view"},{"type":"function","name":"s_numOfWords","inputs":[],"outputs":[{"name":"","type":"uint32","internalType":"uint32"}],"stateMutability":"view"},{"type":"function","name":"s_owner","inputs":[],"outputs":[{"name":"","type":"address","internalType":"address"}],"stateMutability":"view"},{"type":"function","name":"s_postAndCommentIdToAddress","inputs":[{"name":"","type":"uint256","internalType":"uint256"},{"name":"","type":"uint256","internalType":"uint256"}],"outputs":[{"name":"","type":"address","internalType":"address"}],"stateMutability":"view"},{"type":"function","name":"s_postIdToAuthor","inputs":[{"name":"","type":"uint256","internalType":"uint256"}],"outputs":[{"name":"","type":"address","internalType":"address"}],"stateMutability":"view"},{"type":"function","name":"s_postIdToComments","inputs":[{"name":"","type":"uint256","internalType":"uint256"},{"name":"","type":"uint256","internalType":"uint256"}],"outputs":[{"name":"commentId","type":"uint256","internalType":"uint256"},{"name":"author","type":"address","internalType":"address"},{"name":"postId","type":"uint256","internalType":"uint256"},{"name":"content","type":"string","internalType":"string"},{"name":"timestamp","type":"uint256","internalType":"uint256"},{"name":"likesCount","type":"uint256","internalType":"uint256"}],"stateMutability":"view"},{"type":"function","name":"s_priceFeed","inputs":[],"outputs":[{"name":"","type":"address","internalType":"contract AggregatorV3Interface"}],"stateMutability":"view"},{"type":"function","name":"s_userAddressToId","inputs":[{"name":"","type":"address","internalType":"address"}],"outputs":[{"name":"","type":"uint256","internalType":"uint256"}],"stateMutability":"view"},{"type":"function","name":"s_usernameToAddress","inputs":[{"name":"","type":"string","internalType":"string"}],"outputs":[{"name":"","type":"address","internalType":"address"}],"stateMutability":"view"},{"type":"function","name":"transferContractBalance","inputs":[{"name":"_to","type":"address","internalType":"address payable"}],"outputs":[],"stateMutability":"nonpayable"},{"type":"function","name":"upvote","inputs":[{"name":"_postId","type":"uint256","internalType":"uint256"}],"outputs":[],"stateMutability":"nonpayable"},{"type":"function","name":"userComments","inputs":[{"name":"","type":"address","internalType":"address"},{"name":"","type":"uint256","internalType":"uint256"}],"outputs":[{"name":"commentId","type":"uint256","internalType":"uint256"},{"name":"author","type":"address","internalType":"address"},{"name":"postId","type":"uint256","internalType":"uint256"},{"name":"content","type":"string","internalType":"string"},{"name":"timestamp","type":"uint256","internalType":"uint256"},{"name":"likesCount","type":"uint256","internalType":"uint256"}],"stateMutability":"view"},{"type":"function","name":"userPosts","inputs":[{"name":"","type":"address","internalType":"address"},{"name":"","type":"uint256","internalType":"uint256"}],"outputs":[{"name":"postId","type":"uint256","internalType":"uint256"},{"name":"content","type":"string","internalType":"string"},{"name":"imgHash","type":"string","internalType":"string"},{"name":"timestamp","type":"uint256","internalType":"uint256"},{"name":"upvotes","type":"uint256","internalType":"uint256"},{"name":"downvotes","type":"uint256","internalType":"uint256"},{"name":"author","type":"address","internalType":"address"}],"stateMutability":"view"},{"type":"event","name":"CommentCreated","inputs":[{"name":"commentId","type":"uint256","indexed":true,"internalType":"uint256"},{"name":"postAuthor","type":"string","indexed":false,"internalType":"string"},{"name":"commentAuthor","type":"string","indexed":false,"internalType":"string"},{"name":"postId","type":"uint256","indexed":false,"internalType":"uint256"}],"anonymous":false},{"type":"event","name":"Downvoted","inputs":[{"name":"postId","type":"uint256","indexed":false,"internalType":"uint256"},{"name":"posthAuthorName","type":"string","indexed":false,"internalType":"string"},{"name":"downvoterName","type":"string","indexed":false,"internalType":"string"}],"anonymous":false},{"type":"event","name":"PickedWinner","inputs":[{"name":"winner","type":"address","indexed":false,"internalType":"address"}],"anonymous":false},{"type":"event","name":"PostCreated","inputs":[{"name":"postId","type":"uint256","indexed":false,"internalType":"uint256"},{"name":"authorName","type":"string","indexed":false,"internalType":"string"}],"anonymous":false},{"type":"event","name":"PostEdited","inputs":[{"name":"postId","type":"uint256","indexed":false,"internalType":"uint256"},{"name":"authorName","type":"string","indexed":false,"internalType":"string"}],"anonymous":false},{"type":"event","name":"PostLiked","inputs":[{"name":"postId","type":"uint256","indexed":true,"internalType":"uint256"},{"name":"postAuthor","type":"address","indexed":true,"internalType":"address"},{"name":"liker","type":"address","indexed":true,"internalType":"address"}],"anonymous":false},{"type":"event","name":"RequestWinningAuthor","inputs":[{"name":"requestId","type":"uint256","indexed":false,"internalType":"uint256"}],"anonymous":false},{"type":"event","name":"RewardSent","inputs":[{"name":"user","type":"address","indexed":true,"internalType":"address"},{"name":"amount","type":"uint256","indexed":false,"internalType":"uint256"}],"anonymous":false},{"type":"event","name":"Upvoted","inputs":[{"name":"postId","type":"uint256","indexed":false,"internalType":"uint256"},{"name":"posthAuthorName","type":"string","indexed":false,"internalType":"string"},{"name":"upvoterName","type":"string","indexed":false,"internalType":"string"}],"anonymous":false},{"type":"event","name":"UserRegistered","inputs":[{"name":"id","type":"uint256","indexed":true,"internalType":"uint256"},{"name":"userAddress","type":"address","indexed":true,"internalType":"address"},{"name":"username","type":"string","indexed":true,"internalType":"string"}],"anonymous":false},{"type":"error","name":"ChainSphere__AlreadyVoted","inputs":[]},{"type":"error","name":"ChainSphere__BatchTransferFailed","inputs":[{"name":"winner","type":"address","internalType":"address"}]},{"type":"error","name":"ChainSphere__NotCommentOwner","inputs":[]},{"type":"error","name":"ChainSphere__NotOwner","inputs":[]},{"type":"error","name":"ChainSphere__NotPostOwner","inputs":[]},{"type":"error","name":"ChainSphere__NotProfileOwner","inputs":[]},{"type":"error","name":"ChainSphere__OwnerCannotVote","inputs":[]},{"type":"error","name":"ChainSphere__PaymentNotEnough","inputs":[]},{"type":"error","name":"ChainSphere__TransferFailed","inputs":[]},{"type":"error","name":"ChainSphere__UpkeepNotNeeded","inputs":[{"name":"balance","type":"uint256","internalType":"uint256"},{"name":"numOfEligibleAuthors","type":"uint256","internalType":"uint256"}]},{"type":"error","name":"ChainSphere__UserDoesNotExist","inputs":[]},{"type":"error","name":"ChainSphere__UsernameAlreadyTaken","inputs":[]},{"type":"error","name":"OnlyCoordinatorCanFulfill","inputs":[{"name":"have","type":"address","internalType":"address"},{"name":"want","type":"address","internalType":"address"}]}],"bytecode":{"object":"0x6101406040523480156200001257600080fd5b50604051620049da380380620049da8339810160408190526200003591620000bd565b50506001600160a01b039384166080819052601480546001600160a01b03199081163317909155600080549890961697169690961790935560a0939093524260015560c09390935260e0929092526001600160401b03166101005263ffffffff166101205262000163565b80516001600160a01b0381168114620000b857600080fd5b919050565b600080600080600080600080610100898b031215620000db57600080fd5b620000e689620000a0565b975060208901519650620000fd60408a01620000a0565b60608a015160808b015191975095506001600160401b03811681146200012257600080fd5b60a08a015190945063ffffffff811681146200013d57600080fd5b92506200014d60c08a01620000a0565b915060e089015190509295985092959890939650565b60805160a05160c05160e05161010051610120516147fd620001dd60003960008181610cbf0152611e4b0152600081816106c20152611e1d0152600081816109c50152611def015260008181610b2a0152611e7c01526000818161083301526133410152600081816112a701526112e901526147fd6000f3fe6080604052600436106103a25760003560e01c806372d4e382116101e5578063aebc45501161010c578063d0768065116100a5578063e397824011610077578063e397824014610cf6578063e96c520b14610d16578063ee2f3a0514610d36578063f31fdad414610d4b578063fa56115214610d6b57005b8063d076806514610c57578063d088bbcd14610c92578063d757d02714610cad578063dd47f7e214610ce157005b8063c0ae233b116100de578063c0ae233b14610bd4578063c1c86dd314610be9578063c9fbacf314610c09578063ca47fdd214610c3757005b8063aebc455014610b18578063b429354814610b4c578063bc7e8e4c14610b7e578063bf0ac63c14610bb457005b806396f11ac81161017e578063a3260c3511610150578063a3260c3514610a5c578063a4dd41d014610a7c578063a6f9dae114610ab7578063aac0823c14610ad757005b806396f11ac8146109e7578063984d101514610a075780639a2194a914610a1c578063a0e9182114610a3c57005b80638064d149116101b75780638064d1491461093e5780638c262013146109715780638dc4a066146109865780638e879c8a146109b357005b806372d4e382146108be5780637461d858146108de57806379129471146108fe5780637f9fb67e1461091e57005b8063392338f5116102c95780635bcf7fca116102625780636919207d116102345780636919207d146108215780636b69a592146108555780636ed6da9e146108715780636f77926b1461089e57005b80635bcf7fca1461076d5780636372af841461079f57806364e95895146107cc57806367f082b0146107f957005b80634585e33b1161029b5780634585e33b14610690578063470cdf97146106b05780634e82c134146106fc5780635179ce781461071c57005b8063392338f51461060557806340a17985146106255780634296db5b14610645578063442890d51461067257005b80632b3c6e221161033b578063305611001161030d578063305611001461059a57806331a4bcb5146105bc57806334854043146105cf57806335da1e22146105e557005b80632b3c6e22146104f15780632d492c831461051e5780632e10a1d4146105405780632fc51a6e1461056d57005b80630f9aebbd116103745780630f9aebbd1461045c57806312065fe01461048e5780631d2e4afd146104b15780631fe543e3146104d157005b806301ddf070146103ab578063048e9d24146103cb578063094cd5ee146104295780630ec3b0271461043c57005b366103a957005b005b3480156103b757600080fd5b506103a96103c6366004613ae9565b610d8b565b3480156103d757600080fd5b5061040c6103e6366004613b02565b60106020908152600092835260408084209091529082529020546001600160a01b031681565b6040516001600160a01b0390911681526020015b60405180910390f35b6103a9610437366004613ae9565b610ecc565b34801561044857600080fd5b5060005461040c906001600160a01b031681565b34801561046857600080fd5b506018546104799063ffffffff1681565b60405163ffffffff9091168152602001610420565b34801561049a57600080fd5b506104a3610fda565b604051908152602001610420565b3480156104bd57600080fd5b506103a96104cc366004613be1565b611024565b3480156104dd57600080fd5b506103a96104ec366004613c44565b61129c565b3480156104fd57600080fd5b5061051161050c366004613d0d565b611329565b6040516104209190613dd5565b34801561052a57600080fd5b5061053361146f565b6040516104209190613e39565b34801561054c57600080fd5b506104a361055b366004613d0d565b60056020526000908152604090205481565b34801561057957600080fd5b506104a3610588366004613d0d565b600a6020526000908152604090205481565b3480156105a657600080fd5b506105af6114c7565b6040516104209190613ef2565b6103a96105ca366004613b02565b61168b565b3480156105db57600080fd5b506104a360015481565b3480156105f157600080fd5b5061040c610600366004613f49565b6117b3565b34801561061157600080fd5b506103a9610620366004613be1565b6117f8565b34801561063157600080fd5b506103a9610640366004613f75565b611a69565b34801561065157600080fd5b50610665610660366004613b02565b611be6565b6040516104209190613fb1565b34801561067e57600080fd5b506014546001600160a01b031661040c565b34801561069c57600080fd5b506103a96106ab366004613fc4565b611d53565b3480156106bc57600080fd5b506106e47f000000000000000000000000000000000000000000000000000000000000000081565b6040516001600160401b039091168152602001610420565b34801561070857600080fd5b5061040c610717366004614035565b611f32565b34801561072857600080fd5b5061075d610737366004614071565b601260209081526000938452604080852082529284528284209052825290205460ff1681565b6040519015158152602001610420565b34801561077957600080fd5b5061078d610788366004613b02565b611f63565b604051610420969594939291906140aa565b3480156107ab57600080fd5b506107bf6107ba366004613d0d565b61204b565b60405161042091906140ec565b3480156107d857600080fd5b506107ec6107e7366004613ae9565b6120fa565b60405161042091906140ff565b34801561080557600080fd5b5061080e600381565b60405161ffff9091168152602001610420565b34801561082d57600080fd5b506104a37f000000000000000000000000000000000000000000000000000000000000000081565b34801561086157600080fd5b506104a3674563918244f4000081565b34801561087d57600080fd5b5061089161088c366004613ae9565b6122d5565b6040516104209190614112565b3480156108aa57600080fd5b506108916108b9366004613d0d565b612591565b3480156108ca57600080fd5b506103a96108d9366004613f75565b6125e5565b3480156108ea57600080fd5b506103a96108f93660046141a3565b6126c7565b34801561090a57600080fd5b5061078d610919366004614234565b6128f4565b34801561092a57600080fd5b506104a3610939366004613ae9565b612910565b34801561094a57600080fd5b5061095e610959366004614234565b612931565b6040516104209796959493929190614260565b34801561097d57600080fd5b50610533612aaa565b34801561099257600080fd5b506109a66109a1366004613b02565b612b00565b60405161042091906142bb565b3480156109bf57600080fd5b506104a37f000000000000000000000000000000000000000000000000000000000000000081565b3480156109f357600080fd5b506103a9610a02366004613d0d565b612b75565b348015610a1357600080fd5b50610533612bd5565b348015610a2857600080fd5b506105af610a37366004613d0d565b612c2b565b348015610a4857600080fd5b506103a9610a57366004613b02565b612dfa565b348015610a6857600080fd5b5061095e610a77366004613ae9565b612f05565b348015610a8857600080fd5b5061075d610a97366004613ae9565b336000908152600d60209081526040808320938352929052205460ff1690565b348015610ac357600080fd5b506103a9610ad2366004613d0d565b612f27565b348015610ae357600080fd5b5061040c610af2366004614035565b8051602081830181018051600c825292820191909301209152546001600160a01b031681565b348015610b2457600080fd5b5061040c7f000000000000000000000000000000000000000000000000000000000000000081565b348015610b5857600080fd5b50610b6c610b67366004613d0d565b612f74565b604051610420969594939291906142fc565b348015610b8a57600080fd5b5061040c610b99366004613ae9565b600b602052600090815260409020546001600160a01b031681565b348015610bc057600080fd5b506103a9610bcf36600461436d565b6131d3565b348015610be057600080fd5b506104a3600581565b348015610bf557600080fd5b506104a3610c04366004613ae9565b613321565b348015610c1557600080fd5b50610c29610c243660046143d9565b613331565b604051610420929190614421565b348015610c4357600080fd5b5061040c610c52366004613ae9565b6133b7565b348015610c6357600080fd5b5061075d610c72366004614234565b600d60209081526000928352604080842090915290825290205460ff1681565b348015610c9e57600080fd5b506104a3662386f26fc1000081565b348015610cb957600080fd5b506104797f000000000000000000000000000000000000000000000000000000000000000081565b348015610ced57600080fd5b50610479601481565b348015610d0257600080fd5b5060145461040c906001600160a01b031681565b348015610d2257600080fd5b506104a3610d31366004613ae9565b6133e1565b348015610d4257600080fd5b50610479600a81565b348015610d5757600080fd5b506103a9610d66366004613ae9565b613402565b348015610d7757600080fd5b506103a9610d8636600461443c565b613533565b80610d95816120fa565b60c001516001600160a01b03163303610dc15760405163e900992360e01b815260040160405180910390fd5b81610de681336000908152600d60209081526040808320938352929052205460ff1690565b15610e0457604051636d830dbf60e11b815260040160405180910390fd5b60068381548110610e1757610e17614481565b600091825260208220600460079092020101805491610e35836144ad565b9091555050336000908152600d602090815260408083208684528252808320805460ff19166001179055600b9091528120546001600160a01b031690610e7a8261204b565b90506000610e873361204b565b90507fa036d403d7739d8360e6171b2fbf68a0dfef33d6c6f432a236f6c3cdbb3cfee6868383604051610ebc939291906144c6565b60405180910390a1505050505050565b80610ed6816120fa565b60c001516001600160a01b0316336001600160a01b031614610f0b5760405163b5f6908d60e01b815260040160405180910390fd5b600054674563918244f4000090610f2c9034906001600160a01b03166135b4565b1015610f4b576040516340956f2160e01b815260040160405180910390fd5b6040518060200160405280600081525060068381548110610f6e57610f6e614481565b90600052602060002090600702016001019081610f8b919061457d565b50600060068381548110610fa157610fa1614481565b906000526020600020906007020160060160006101000a8154816001600160a01b0302191690836001600160a01b031602179055505050565b6000610fee6014546001600160a01b031690565b6001600160a01b0316336001600160a01b03161461101f57604051633c6a5daf60e21b815260040160405180910390fd5b504790565b80600061103082611f32565b6001600160a01b03161461105757604051630fa2819960e31b815260040160405180910390fd5b6004805460009182611068836144ad565b919050559050611076613a4a565b818152336020808301828152606084018890526040808501888152600094855260039093529092208351815591516001830180546001600160a01b0319166001600160a01b039092169190911790555182919060028201906110d8908261457d565b50606082015160038201906110ed908261457d565b5060808201516004820190611102908261457d565b5060a08201516005820190611117908261457d565b5050336000818152600560205260409081902085905551909150600c9061113f90879061463c565b908152604080516020928190038301902080546001600160a01b03199081166001600160a01b03958616179091556002805460018101825560009190915285517f405787fa12a823e0f2b7631cc41b3ba8828b3321ca811111fa75cd3aa3bb5ace6006909202918201908155938601517f405787fa12a823e0f2b7631cc41b3ba8828b3321ca811111fa75cd3aa3bb5acf82018054909316951694909417905583015183927f405787fa12a823e0f2b7631cc41b3ba8828b3321ca811111fa75cd3aa3bb5ad00190611211908261457d565b5060608201516003820190611226908261457d565b506080820151600482019061123b908261457d565b5060a08201516005820190611250908261457d565b50505083604051611261919061463c565b60405190819003812090339084907f8d76d60617424d83544323e2322cb8d86537451c9b3d991886ce6f4721e3865e90600090a45050505050565b336001600160a01b037f0000000000000000000000000000000000000000000000000000000000000000161461131b5760405163073e64fd60e21b81523360048201526001600160a01b037f00000000000000000000000000000000000000000000000000000000000000001660248201526044015b60405180910390fd5b61132582826135ea565b5050565b6001600160a01b0381166000908152601160209081526040808320805482518185028101850190935280835260609492939192909184015b828210156114645760008481526020908190206040805160c081018252600686029092018054835260018101546001600160a01b0316938301939093526002830154908201526003820180549192916060840191906113bf906144fb565b80601f01602080910402602001604051908101604052809291908181526020018280546113eb906144fb565b80156114385780601f1061140d57610100808354040283529160200191611438565b820191906000526020600020905b81548152906001019060200180831161141b57829003601f168201915b505050505081526020016004820154815260200160058201548152505081526020019060010190611361565b505050509050919050565b606060168054806020026020016040519081016040528092919081815260200182805480156114bd57602002820191906000526020600020905b8154815260200190600101908083116114a9575b5050505050905090565b60606006805480602002602001604051908101604052809291908181526020016000905b8282101561168257838290600052602060002090600702016040518060e001604052908160008201548152602001600182018054611528906144fb565b80601f0160208091040260200160405190810160405280929190818152602001828054611554906144fb565b80156115a15780601f10611576576101008083540402835291602001916115a1565b820191906000526020600020905b81548152906001019060200180831161158457829003601f168201915b505050505081526020016002820180546115ba906144fb565b80601f01602080910402602001604051908101604052809291908181526020018280546115e6906144fb565b80156116335780601f1061160857610100808354040283529160200191611633565b820191906000526020600020905b81548152906001019060200180831161161657829003601f168201915b5050509183525050600382015460208083019190915260048301546040830152600583015460608301526006909201546001600160a01b031660809091015290825260019290920191016114eb565b50505050905090565b81816116978282611be6565b602001516001600160a01b0316336001600160a01b0316146116cc576040516314fd685b60e21b815260040160405180910390fd5b600054674563918244f40000906116ed9034906001600160a01b03166135b4565b101561170c576040516340956f2160e01b815260040160405180910390fd5b60408051602080820183526000808352878152600f9091529190912080548590811061173a5761173a614481565b90600052602060002090600602016003019081611757919061457d565b506000848152600f6020526040812080548590811061177857611778614481565b906000526020600020906006020160010160006101000a8154816001600160a01b0302191690836001600160a01b0316021790555050505050565b601360205282600052604060002060205281600052604060002081815481106117db57600080fd5b6000918252602090912001546001600160a01b0316925083915050565b33600061180482612591565b602001516001600160a01b03160361182f5760405163243ba64d60e21b815260040160405180910390fd5b6006546040805160e0810182528281526020810186905290810184905242606082015260006080820181905260a082018190523360c083018190526118739061204b565b336000908152600e602090815260408220805460018181018355918452928290208651600790940201928355908501519293508492908201906118b6908261457d565b50604082015160028201906118cb908261457d565b50606082015160038201556080820151600482015560a0820151600582015560c090910151600691820180546001600160a01b0319166001600160a01b03909216919091179055805460018101825560009190915282517ff652222313e28459528d920b65115c16c04f3efc82aaedc97be59f3f377c0d3f6007909202918201908155602084015184927ff652222313e28459528d920b65115c16c04f3efc82aaedc97be59f3f377c0d400190611982908261457d565b5060408201516002820190611997908261457d565b50606082015160038201556080820151600482015560a0820151600582015560c090910151600690910180546001600160a01b039092166001600160a01b0319928316179055825160078054600181019091557fa66cc928b5edb82af9bd49922954155ab7b0942694bea4ce44661d9a8736c6880155336000818152600a60209081526040808320889055878352600b909152908190208054909316909117909155517f3d4335cbfac350aa27a3fa09060b4691656ecbe3033f4d953849c2f755f230d190610ebc9085908490614658565b336000611a7582612591565b602001516001600160a01b031603611aa05760405163243ba64d60e21b815260040160405180910390fd5b6000838152600f6020908152604080832054815160c08101835281815233938101939093529082018690526060820185905242608083015260a0820183905291611ae9866122d5565b6040015190506000611afa3361204b565b600088815260106020908152604080832088845282528083208054336001600160a01b0319918216179091558b8452600f83528184208054600181810183559186529484902089516006909602019485559288015192840180549091166001600160a01b03909316929092179091558501516002820155606085015191925084916003820190611b8a908261457d565b506080820151816004015560a082015181600501555050837f915184b2a0bfb3b827755b4e9e718f684996cef7b75bad20f26cd2fd67396c7783838a604051611bd593929190614671565b60405180910390a250505050505050565b611c286040518060c001604052806000815260200160006001600160a01b03168152602001600081526020016060815260200160008152602001600081525090565b6000838152600f60205260409020805483908110611c4857611c48614481565b90600052602060002090600602016040518060c0016040529081600082015481526020016001820160009054906101000a90046001600160a01b03166001600160a01b03166001600160a01b0316815260200160028201548152602001600382018054611cb4906144fb565b80601f0160208091040260200160405190810160405280929190818152602001828054611ce0906144fb565b8015611d2d5780601f10611d0257610100808354040283529160200191611d2d565b820191906000526020600020905b815481529060010190602001808311611d1057829003601f168201915b505050505081526020016004820154815260200160058201548152505090505b92915050565b6000611d77604051806040016040528060018152602001600160fd1b815250613331565b50905080611da55760165460405163ae97b49160e01b81524760048201526024810191909152604401611312565b60165460141015611dc457601654611dbf90600a906146bd565b611dc7565b60015b6018805463ffffffff191663ffffffff9283169081179091556040516305d3b1d360e41b81527f000000000000000000000000000000000000000000000000000000000000000060048201526001600160401b037f0000000000000000000000000000000000000000000000000000000000000000166024820152600360448201527f0000000000000000000000000000000000000000000000000000000000000000909216606483015260848201526000907f00000000000000000000000000000000000000000000000000000000000000006001600160a01b031690635d3b1d309060a4016020604051808303816000875af1158015611ecd573d6000803e3d6000fd5b505050506040513d601f19601f82011682018060405250810190611ef191906146d1565b90507f0aa5a4e8e459a1f6485b98194bbe2e07647a58e7dd6d2a9923441b4d569c307781604051611f2491815260200190565b60405180910390a150505050565b6000600c82604051611f44919061463c565b908152604051908190036020019020546001600160a01b031692915050565b600f6020528160005260406000208181548110611f7f57600080fd5b600091825260209091206006909102018054600182015460028301546003840180549396506001600160a01b0390921694509291611fbc906144fb565b80601f0160208091040260200160405190810160405280929190818152602001828054611fe8906144fb565b80156120355780601f1061200a57610100808354040283529160200191612035565b820191906000526020600020905b81548152906001019060200180831161201857829003601f168201915b5050505050908060040154908060050154905086565b6001600160a01b0381166000908152600360205260409020600201805460609190612075906144fb565b80601f01602080910402602001604051908101604052809291908181526020018280546120a1906144fb565b80156120ee5780601f106120c3576101008083540402835291602001916120ee565b820191906000526020600020905b8154815290600101906020018083116120d157829003601f168201915b50505050509050919050565b6121436040518060e0016040528060008152602001606081526020016060815260200160008152602001600081526020016000815260200160006001600160a01b031681525090565b6006828154811061215657612156614481565b90600052602060002090600702016040518060e001604052908160008201548152602001600182018054612189906144fb565b80601f01602080910402602001604051908101604052809291908181526020018280546121b5906144fb565b80156122025780601f106121d757610100808354040283529160200191612202565b820191906000526020600020905b8154815290600101906020018083116121e557829003601f168201915b5050505050815260200160028201805461221b906144fb565b80601f0160208091040260200160405190810160405280929190818152602001828054612247906144fb565b80156122945780601f1061226957610100808354040283529160200191612294565b820191906000526020600020905b81548152906001019060200180831161227757829003601f168201915b50505091835250506003820154602082015260048201546040820152600582015460608201526006909101546001600160a01b031660809091015292915050565b6122dd613a4a565b600282815481106122f0576122f0614481565b90600052602060002090600602016040518060c0016040529081600082015481526020016001820160009054906101000a90046001600160a01b03166001600160a01b03166001600160a01b03168152602001600282018054612352906144fb565b80601f016020809104026020016040519081016040528092919081815260200182805461237e906144fb565b80156123cb5780601f106123a0576101008083540402835291602001916123cb565b820191906000526020600020905b8154815290600101906020018083116123ae57829003601f168201915b505050505081526020016003820180546123e4906144fb565b80601f0160208091040260200160405190810160405280929190818152602001828054612410906144fb565b801561245d5780601f106124325761010080835404028352916020019161245d565b820191906000526020600020905b81548152906001019060200180831161244057829003601f168201915b50505050508152602001600482018054612476906144fb565b80601f01602080910402602001604051908101604052809291908181526020018280546124a2906144fb565b80156124ef5780601f106124c4576101008083540402835291602001916124ef565b820191906000526020600020905b8154815290600101906020018083116124d257829003601f168201915b50505050508152602001600582018054612508906144fb565b80601f0160208091040260200160405190810160405280929190818152602001828054612534906144fb565b80156125815780601f1061255657610100808354040283529160200191612581565b820191906000526020600020905b81548152906001019060200180831161256457829003601f168201915b5050505050815250509050919050565b612599613a4a565b6001600160a01b03808316600090815260036020908152604091829020825160c081018452815481526001820154909416918401919091526002810180549192840191612352906144fb565b3360006125f182612591565b602001516001600160a01b03160361261c5760405163243ba64d60e21b815260040160405180910390fd5b82612626816122d5565b602001516001600160a01b0316336001600160a01b03161461265b5760405163a736c1d760e01b815260040160405180910390fd5b82600061266782611f32565b6001600160a01b03161461268e57604051630fa2819960e31b815260040160405180910390fd5b83600286815481106126a2576126a2614481565b906000526020600020906006020160020190816126bf919061457d565b505050505050565b3360006126d382612591565b602001516001600160a01b0316036126fe5760405163243ba64d60e21b815260040160405180910390fd5b84612708816122d5565b602001516001600160a01b0316336001600160a01b03161461273d5760405163a736c1d760e01b815260040160405180910390fd5b60405160200161275890602080825260009082015260400190565b604051602081830303815290604052805190602001208560405160200161277f91906140ec565b60405160208183030381529060405280519060200120146127cd5784600287815481106127ae576127ae614481565b906000526020600020906006020160040190816127cb919061457d565b505b6040516020016127e890602080825260009082015260400190565b604051602081830303815290604052805190602001208460405160200161280f91906140ec565b604051602081830303815290604052805190602001201461285d57836002878154811061283e5761283e614481565b9060005260206000209060060201600501908161285b919061457d565b505b60405160200161287890602080825260009082015260400190565b604051602081830303815290604052805190602001208460405160200161289f91906140ec565b60405160208183030381529060405280519060200120146126bf5782600287815481106128ce576128ce614481565b906000526020600020906006020160030190816128eb919061457d565b50505050505050565b60116020528160005260406000208181548110611f7f57600080fd5b6016818154811061292057600080fd5b600091825260209091200154905081565b600e602052816000526040600020818154811061294d57600080fd5b906000526020600020906007020160009150915050806000015490806001018054612977906144fb565b80601f01602080910402602001604051908101604052809291908181526020018280546129a3906144fb565b80156129f05780601f106129c5576101008083540402835291602001916129f0565b820191906000526020600020905b8154815290600101906020018083116129d357829003601f168201915b505050505090806002018054612a05906144fb565b80601f0160208091040260200160405190810160405280929190818152602001828054612a31906144fb565b8015612a7e5780601f10612a5357610100808354040283529160200191612a7e565b820191906000526020600020905b815481529060010190602001808311612a6157829003601f168201915b50505050600383015460048401546005850154600690950154939491939092506001600160a01b031687565b606060178054806020026020016040519081016040528092919081815260200182805480156114bd57602002820191906000526020600020908154815260200190600101908083116114a9575050505050905090565b6000828152601360209081526040808320848452825291829020805483518184028101840190945280845260609392830182828015612b6857602002820191906000526020600020905b81546001600160a01b03168152600190910190602001808311612b4a575b5050505050905092915050565b6014546001600160a01b03163314612ba057604051633c6a5daf60e21b815260040160405180910390fd5b6040516001600160a01b038216904780156108fc02916000818181858888f19350505050158015611325573d6000803e3d6000fd5b606060078054806020026020016040519081016040528092919081815260200182805480156114bd57602002820191906000526020600020908154815260200190600101908083116114a9575050505050905090565b6001600160a01b0381166000908152600e60209081526040808320805482518185028101850190935280835260609492939192909184015b8282101561146457838290600052602060002090600702016040518060e001604052908160008201548152602001600182018054612ca0906144fb565b80601f0160208091040260200160405190810160405280929190818152602001828054612ccc906144fb565b8015612d195780601f10612cee57610100808354040283529160200191612d19565b820191906000526020600020905b815481529060010190602001808311612cfc57829003601f168201915b50505050508152602001600282018054612d32906144fb565b80601f0160208091040260200160405190810160405280929190818152602001828054612d5e906144fb565b8015612dab5780601f10612d8057610100808354040283529160200191612dab565b820191906000526020600020905b815481529060010190602001808311612d8e57829003601f168201915b5050509183525050600382015460208083019190915260048301546040830152600583015460608301526006909201546001600160a01b03166080909101529082526001929092019101612c63565b336000612e0682612591565b602001516001600160a01b031603612e315760405163243ba64d60e21b815260040160405180910390fd5b6000838152601260209081526040808320858452825280832033845290915281205460ff1615159003612f0057600083815260126020908152604080832085845282528083203384528252808320805460ff19166001179055858352600f9091529020805483908110612ea657612ea6614481565b600091825260208220600560069092020101805491612ec4836144ad565b9091555050600083815260136020908152604080832085845282528220805460018101825590835291200180546001600160a01b031916331790555b505050565b60096020526000908152604090208054600182018054919291612977906144fb565b6014546001600160a01b03163314612f5257604051633c6a5daf60e21b815260040160405180910390fd5b601480546001600160a01b0319166001600160a01b0392909216919091179055565b60036020526000908152604090208054600182015460028301805492936001600160a01b0390921692612fa6906144fb565b80601f0160208091040260200160405190810160405280929190818152602001828054612fd2906144fb565b801561301f5780601f10612ff45761010080835404028352916020019161301f565b820191906000526020600020905b81548152906001019060200180831161300257829003601f168201915b505050505090806003018054613034906144fb565b80601f0160208091040260200160405190810160405280929190818152602001828054613060906144fb565b80156130ad5780601f10613082576101008083540402835291602001916130ad565b820191906000526020600020905b81548152906001019060200180831161309057829003601f168201915b5050505050908060040180546130c2906144fb565b80601f01602080910402602001604051908101604052809291908181526020018280546130ee906144fb565b801561313b5780601f106131105761010080835404028352916020019161313b565b820191906000526020600020905b81548152906001019060200180831161311e57829003601f168201915b505050505090806005018054613150906144fb565b80601f016020809104026020016040519081016040528092919081815260200182805461317c906144fb565b80156131c95780601f1061319e576101008083540402835291602001916131c9565b820191906000526020600020905b8154815290600101906020018083116131ac57829003601f168201915b5050505050905086565b826131dd816120fa565b60c001516001600160a01b0316336001600160a01b0316146132125760405163b5f6908d60e01b815260040160405180910390fd5b826006858154811061322657613226614481565b90600052602060002090600702016001019081613243919061457d565b5060405160200161325f90602080825260009082015260400190565b604051602081830303815290604052805190602001208260405160200161328691906140ec565b60405160208183030381529060405280519060200120146132d45781600685815481106132b5576132b5614481565b906000526020600020906007020160020190816132d2919061457d565b505b60006132df3361204b565b90507f7009e6824c3ecb1321da2ebabc18901b48d900a97f978c5a93dd3ba8cfe590358582604051613312929190614658565b60405180910390a15050505050565b6017818154811061292057600080fd5b6000606061333d6138f5565b60007f00000000000000000000000000000000000000000000000000000000000000006001544261336e91906146ea565b6016549111801592504715159115159083906133875750815b80156133905750805b60408051808201909152600381526203078360ec1b60208201529097909650945050505050565b601581815481106133c757600080fd5b6000918252602090912001546001600160a01b0316905081565b6000805481906133fb9084906001600160a01b03166135b4565b9392505050565b8061340c816120fa565b60c001516001600160a01b031633036134385760405163e900992360e01b815260040160405180910390fd5b8161345d81336000908152600d60209081526040808320938352929052205460ff1690565b1561347b57604051636d830dbf60e11b815260040160405180910390fd5b6006838154811061348e5761348e614481565b6000918252602082206005600790920201018054916134ac836144ad565b9091555050336000908152600d602090815260408083208684528252808320805460ff19166001179055600b9091528120546001600160a01b0316906134f18261204b565b905060006134fe3361204b565b90507fd7ad3e52dbe8b445d900fd8aa659c95d5b75bb6733c12e7f22d048963bd39ed5868383604051610ebc939291906144c6565b828261353f8282611be6565b602001516001600160a01b0316336001600160a01b031614613574576040516314fd685b60e21b815260040160405180910390fd5b6000858152600f6020526040902080548491908690811061359757613597614481565b906000526020600020906006020160030190816126bf919061457d565b6000806135c08361396b565b90506000670de0b6b3a76400006135d783876146fd565b6135e19190614714565b95945050505050565b604080516000815260208101918290525161360791601791613a89565b50805160010361377e5760006016805490508260008151811061362c5761362c614481565b602002602001015161363e91906146bd565b905060006016828154811061365557613655614481565b6000918252602082200154601780546001810182559083527fc624b66cc0138b8fabc209247f72d758e1cf3343756d543badbf24212bed8c1501819055915061369d826120fa565b60c0015160408051600081526020810191829052519192506136c29160079190613a89565b50426001556040516001600160a01b03821681527fb112587e57bfa970257f3d54fc52859c6300f6bd7a982462c320fed45c2530ed9060200160405180910390a16000816001600160a01b0316662386f26fc1000060405160006040518083038185875af1925050503d8060008114613757576040519150601f19603f3d011682016040523d82523d6000602084013e61375c565b606091505b50509050806126bf57604051630e352ebb60e41b815260040160405180910390fd5b805160005b818110156138ef5760006016805490508483815181106137a5576137a5614481565b60200260200101516137b791906146bd565b90506000601682815481106137ce576137ce614481565b6000918252602082200154601780546001810182559083527fc624b66cc0138b8fabc209247f72d758e1cf3343756d543badbf24212bed8c15018190559150613816826120fa565b60c001516040516001600160a01b03821681529091507fb112587e57bfa970257f3d54fc52859c6300f6bd7a982462c320fed45c2530ed9060200160405180910390a16000816001600160a01b0316662386f26fc1000060405160006040518083038185875af1925050503d80600081146138ad576040519150601f19603f3d011682016040523d82523d6000602084013e6138b2565b606091505b50509050806138df57604051635e680b6b60e01b81526001600160a01b0383166004820152602401611312565b5050600190920191506137839050565b50505050565b60075460005b81811015611325576139296007828154811061391957613919614481565b90600052602060002001546139e7565b156139635760166007828154811061394357613943614481565b600091825260208083209091015483546001810185559383529120909101555b6001016138fb565b600080826001600160a01b031663feaf968c6040518163ffffffff1660e01b815260040160a060405180830381865afa1580156139ac573d6000803e3d6000fd5b505050506040513d601f19601f820116820180604052508101906139d09190614747565b505050915050806402540be4006133fb9190614797565b6000806139f3836120fa565b6080015190506000613a04846120fa565b60a001519050600080613a1783856146ea565b11613a23576000613a2d565b613a2d82846146ea565b90506005811015613a3f5760006135e1565b600195945050505050565b6040518060c001604052806000815260200160006001600160a01b03168152602001606081526020016060815260200160608152602001606081525090565b828054828255906000526020600020908101928215613ac4579160200282015b82811115613ac4578251825591602001919060010190613aa9565b50613ad0929150613ad4565b5090565b5b80821115613ad05760008155600101613ad5565b600060208284031215613afb57600080fd5b5035919050565b60008060408385031215613b1557600080fd5b50508035926020909101359150565b634e487b7160e01b600052604160045260246000fd5b604051601f8201601f191681016001600160401b0381118282101715613b6257613b62613b24565b604052919050565b60006001600160401b03831115613b8357613b83613b24565b613b96601f8401601f1916602001613b3a565b9050828152838383011115613baa57600080fd5b828260208301376000602084830101529392505050565b600082601f830112613bd257600080fd5b6133fb83833560208501613b6a565b60008060408385031215613bf457600080fd5b82356001600160401b0380821115613c0b57600080fd5b613c1786838701613bc1565b93506020850135915080821115613c2d57600080fd5b50613c3a85828601613bc1565b9150509250929050565b60008060408385031215613c5757600080fd5b823591506020808401356001600160401b0380821115613c7657600080fd5b818601915086601f830112613c8a57600080fd5b813581811115613c9c57613c9c613b24565b8060051b9150613cad848301613b3a565b8181529183018401918481019089841115613cc757600080fd5b938501935b83851015613ce557843582529385019390850190613ccc565b8096505050505050509250929050565b6001600160a01b0381168114613d0a57600080fd5b50565b600060208284031215613d1f57600080fd5b81356133fb81613cf5565b60005b83811015613d45578181015183820152602001613d2d565b50506000910152565b60008151808452613d66816020860160208601613d2a565b601f01601f19169290920160200192915050565b8051825260018060a01b036020820151166020830152604081015160408301526000606082015160c06060850152613db560c0850182613d4e565b90506080830151608085015260a083015160a08501528091505092915050565b600060208083016020845280855180835260408601915060408160051b87010192506020870160005b82811015613e2c57603f19888603018452613e1a858351613d7a565b94509285019290850190600101613dfe565b5092979650505050505050565b6020808252825182820181905260009190848201906040850190845b81811015613e7157835183529284019291840191600101613e55565b50909695505050505050565b805182526000602082015160e06020850152613e9c60e0850182613d4e565b905060408301518482036040860152613eb58282613d4e565b606085810151908701526080808601519087015260a0808601519087015260c0948501516001600160a01b03169490950193909352509192915050565b600060208083016020845280855180835260408601915060408160051b87010192506020870160005b82811015613e2c57603f19888603018452613f37858351613e7d565b94509285019290850190600101613f1b565b600080600060608486031215613f5e57600080fd5b505081359360208301359350604090920135919050565b60008060408385031215613f8857600080fd5b8235915060208301356001600160401b03811115613fa557600080fd5b613c3a85828601613bc1565b6020815260006133fb6020830184613d7a565b60008060208385031215613fd757600080fd5b82356001600160401b0380821115613fee57600080fd5b818501915085601f83011261400257600080fd5b81358181111561401157600080fd5b86602082850101111561402357600080fd5b60209290920196919550909350505050565b60006020828403121561404757600080fd5b81356001600160401b0381111561405d57600080fd5b61406984828501613bc1565b949350505050565b60008060006060848603121561408657600080fd5b8335925060208401359150604084013561409f81613cf5565b809150509250925092565b86815260018060a01b038616602082015284604082015260c0606082015260006140d760c0830186613d4e565b60808301949094525060a00152949350505050565b6020815260006133fb6020830184613d4e565b6020815260006133fb6020830184613e7d565b602081528151602082015260018060a01b0360208301511660408201526000604083015160c0606084015261414a60e0840182613d4e565b90506060840151601f19808584030160808601526141688383613d4e565b925060808601519150808584030160a08601526141858383613d4e565b925060a08601519150808584030160c0860152506135e18282613d4e565b600080600080608085870312156141b957600080fd5b8435935060208501356001600160401b03808211156141d757600080fd5b6141e388838901613bc1565b945060408701359150808211156141f957600080fd5b61420588838901613bc1565b9350606087013591508082111561421b57600080fd5b5061422887828801613bc1565b91505092959194509250565b6000806040838503121561424757600080fd5b823561425281613cf5565b946020939093013593505050565b87815260e06020820152600061427960e0830189613d4e565b828103604084015261428b8189613d4e565b60608401979097525050608081019390935260a08301919091526001600160a01b031660c0909101529392505050565b6020808252825182820181905260009190848201906040850190845b81811015613e715783516001600160a01b0316835292840192918401916001016142d7565b8681526001600160a01b038616602082015260c06040820181905260009061432690830187613d4e565b82810360608401526143388187613d4e565b9050828103608084015261434c8186613d4e565b905082810360a08401526143608185613d4e565b9998505050505050505050565b60008060006060848603121561438257600080fd5b8335925060208401356001600160401b03808211156143a057600080fd5b6143ac87838801613bc1565b935060408601359150808211156143c257600080fd5b506143cf86828701613bc1565b9150509250925092565b6000602082840312156143eb57600080fd5b81356001600160401b0381111561440157600080fd5b8201601f8101841361441257600080fd5b61406984823560208401613b6a565b82151581526040602082015260006140696040830184613d4e565b60008060006060848603121561445157600080fd5b833592506020840135915060408401356001600160401b0381111561447557600080fd5b6143cf86828701613bc1565b634e487b7160e01b600052603260045260246000fd5b634e487b7160e01b600052601160045260246000fd5b6000600182016144bf576144bf614497565b5060010190565b8381526060602082015260006144df6060830185613d4e565b82810360408401526144f18185613d4e565b9695505050505050565b600181811c9082168061450f57607f821691505b60208210810361452f57634e487b7160e01b600052602260045260246000fd5b50919050565b601f821115612f00576000816000526020600020601f850160051c8101602086101561455e5750805b601f850160051c820191505b818110156126bf5782815560010161456a565b81516001600160401b0381111561459657614596613b24565b6145aa816145a484546144fb565b84614535565b602080601f8311600181146145df57600084156145c75750858301515b600019600386901b1c1916600185901b1785556126bf565b600085815260208120601f198616915b8281101561460e578886015182559484019460019091019084016145ef565b508582101561462c5787850151600019600388901b60f8161c191681555b5050505050600190811b01905550565b6000825161464e818460208701613d2a565b9190910192915050565b8281526040602082015260006140696040830184613d4e565b6060815260006146846060830186613d4e565b82810360208401526146968186613d4e565b915050826040830152949350505050565b634e487b7160e01b600052601260045260246000fd5b6000826146cc576146cc6146a7565b500690565b6000602082840312156146e357600080fd5b5051919050565b81810381811115611d4d57611d4d614497565b8082028115828204841417611d4d57611d4d614497565b600082614723576147236146a7565b500490565b805169ffffffffffffffffffff8116811461474257600080fd5b919050565b600080600080600060a0868803121561475f57600080fd5b61476886614728565b945060208601519350604086015192506060860151915061478b60808701614728565b90509295509295909350565b80820260008212600160ff1b841416156147b3576147b3614497565b8181058314821517611d4d57611d4d61449756fea2646970667358221220d2cf0a48f3201842f8a05b94862a217858f24693b27042bd0dde4efc7995af3f64736f6c63430008180033","linkReferences":{}},"methodIdentifiers":{"CheckUpkeep(bytes)":"c9fbacf3","MINIMUM_USD()":"6b69a592","MIN_POST_SCORE()":"c0ae233b","REQUEST_CONFIRMATIONS()":"67f082b0","TEN()":"ee2f3a05","TWENTY()":"dd47f7e2","WINNING_REWARD()":"d088bbcd","changeOwner(address)":"a6f9dae1","changeUsername(uint256,string)":"72d4e382","createComment(uint256,string)":"40a17985","createPost(string,string)":"392338f5","deleteComment(uint256,uint256)":"31a4bcb5","deletePost(uint256)":"094cd5ee","downvote(uint256)":"f31fdad4","editComment(uint256,uint256,string)":"fa561152","editPost(uint256,string,string)":"bf0ac63c","editUserProfile(uint256,string,string,string)":"7461d858","getAddressFromUsername(string)":"4e82c134","getAllPosts()":"30561100","getBalance()":"12065fe0","getCommentByPostIdAndCommentId(uint256,uint256)":"4296db5b","getCommentLikersByPostIdAndCommentId(uint256,uint256)":"8dc4a066","getContractOwner()":"442890d5","getIdsOfEligiblePosts()":"2d492c83","getIdsOfRecentPosts()":"984d1015","getIdsOfRecentWinningPosts()":"8c262013","getPostById(uint256)":"64e95895","getUsdValueOfEthAmount(uint256)":"e96c520b","getUser(address)":"6f77926b","getUserById(uint256)":"6ed6da9e","getUserComments(address)":"2b3c6e22","getUserNameFromAddress(address)":"6372af84","getUserPosts(address)":"9a2194a9","getUserVoteStatus(uint256)":"a4dd41d0","i_callbackGasLimit()":"d757d027","i_gasLane()":"8e879c8a","i_interval()":"6919207d","i_subscriptionId()":"470cdf97","i_vrfCoordinator()":"aebc4550","likeComment(uint256,uint256)":"a0e91821","performUpkeep(bytes)":"4585e33b","rawFulfillRandomWords(uint256,uint256[])":"1fe543e3","registerUser(string,string)":"1d2e4afd","s_addressToUserProfile(address)":"b4293548","s_authorToPostId(address)":"2fc51a6e","s_authorsEligibleForReward(uint256)":"ca47fdd2","s_hasVoted(address,uint256)":"d0768065","s_idToPost(uint256)":"a3260c35","s_idsOfEligiblePosts(uint256)":"7f9fb67e","s_idsOfRecentWinningPosts(uint256)":"c1c86dd3","s_lastTimeStamp()":"34854043","s_likedComment(uint256,uint256,address)":"5179ce78","s_likersOfComment(uint256,uint256,uint256)":"35da1e22","s_numOfWords()":"0f9aebbd","s_owner()":"e3978240","s_postAndCommentIdToAddress(uint256,uint256)":"048e9d24","s_postIdToAuthor(uint256)":"bc7e8e4c","s_postIdToComments(uint256,uint256)":"5bcf7fca","s_priceFeed()":"0ec3b027","s_userAddressToId(address)":"2e10a1d4","s_usernameToAddress(string)":"aac0823c","transferContractBalance(address)":"96f11ac8","upvote(uint256)":"01ddf070","userComments(address,uint256)":"79129471","userPosts(address,uint256)":"8064d149"},"id":35}