{"abi":[{"type":"constructor","inputs":[{"name":"priceFeed","type":"address","internalType":"address"},{"name":"interval","type":"uint256","internalType":"uint256"},{"name":"vrfCoordinator","type":"address","internalType":"address"},{"name":"gasLane","type":"bytes32","internalType":"bytes32"},{"name":"subscriptionId","type":"uint256","internalType":"uint256"},{"name":"callbackGasLimit","type":"uint32","internalType":"uint32"}],"stateMutability":"nonpayable"},{"type":"fallback","stateMutability":"payable"},{"type":"receive","stateMutability":"payable"},{"type":"function","name":"CheckUpkeep","inputs":[{"name":"","type":"bytes","internalType":"bytes"}],"outputs":[{"name":"","type":"bool","internalType":"bool"},{"name":"","type":"bytes","internalType":"bytes"}],"stateMutability":"nonpayable"},{"type":"function","name":"changeUsername","inputs":[{"name":"_userId","type":"uint256","internalType":"uint256"},{"name":"_newNickName","type":"string","internalType":"string"}],"outputs":[],"stateMutability":"nonpayable"},{"type":"function","name":"createComment","inputs":[{"name":"_postId","type":"uint256","internalType":"uint256"},{"name":"_content","type":"string","internalType":"string"}],"outputs":[],"stateMutability":"nonpayable"},{"type":"function","name":"createPost","inputs":[{"name":"_content","type":"string","internalType":"string"},{"name":"_imgHash","type":"string","internalType":"string"}],"outputs":[],"stateMutability":"nonpayable"},{"type":"function","name":"deleteComment","inputs":[{"name":"_commentId","type":"uint256","internalType":"uint256"}],"outputs":[],"stateMutability":"payable"},{"type":"function","name":"deletePost","inputs":[{"name":"_postId","type":"uint256","internalType":"uint256"}],"outputs":[],"stateMutability":"payable"},{"type":"function","name":"downvote","inputs":[{"name":"_postId","type":"uint256","internalType":"uint256"}],"outputs":[],"stateMutability":"nonpayable"},{"type":"function","name":"editComment","inputs":[{"name":"_commentId","type":"uint256","internalType":"uint256"},{"name":"_content","type":"string","internalType":"string"}],"outputs":[],"stateMutability":"nonpayable"},{"type":"function","name":"editPost","inputs":[{"name":"_postId","type":"uint256","internalType":"uint256"},{"name":"_content","type":"string","internalType":"string"},{"name":"_imgHash","type":"string","internalType":"string"}],"outputs":[],"stateMutability":"nonpayable"},{"type":"function","name":"editUserProfile","inputs":[{"name":"_userId","type":"uint256","internalType":"uint256"},{"name":"_bio","type":"string","internalType":"string"},{"name":"_profileImageHash","type":"string","internalType":"string"},{"name":"_newName","type":"string","internalType":"string"}],"outputs":[],"stateMutability":"nonpayable"},{"type":"function","name":"getAddressFromUsername","inputs":[{"name":"_username","type":"string","internalType":"string"}],"outputs":[{"name":"","type":"address","internalType":"address"}],"stateMutability":"view"},{"type":"function","name":"getAllPosts","inputs":[],"outputs":[{"name":"","type":"tuple[]","internalType":"struct ChainSphereUserProfile.Post[]","components":[{"name":"postId","type":"uint256","internalType":"uint256"},{"name":"content","type":"string","internalType":"string"},{"name":"imgHash","type":"string","internalType":"string"},{"name":"timestamp","type":"uint256","internalType":"uint256"},{"name":"upvotes","type":"uint256","internalType":"uint256"},{"name":"downvotes","type":"uint256","internalType":"uint256"},{"name":"author","type":"address","internalType":"address"},{"name":"authorNickName","type":"string","internalType":"string"},{"name":"authorFullName","type":"string","internalType":"string"},{"name":"authorProfileImgHash","type":"string","internalType":"string"}]}],"stateMutability":"view"},{"type":"function","name":"getBalance","inputs":[],"outputs":[{"name":"","type":"uint256","internalType":"uint256"}],"stateMutability":"view"},{"type":"function","name":"getCommentByCommentId","inputs":[{"name":"_commentId","type":"uint256","internalType":"uint256"}],"outputs":[{"name":"","type":"tuple","internalType":"struct ChainSphereComments.Comment","components":[{"name":"commentId","type":"uint256","internalType":"uint256"},{"name":"author","type":"address","internalType":"address"},{"name":"postId","type":"uint256","internalType":"uint256"},{"name":"content","type":"string","internalType":"string"},{"name":"timestamp","type":"uint256","internalType":"uint256"},{"name":"likesCount","type":"uint256","internalType":"uint256"}]}],"stateMutability":"view"},{"type":"function","name":"getCommentLikersByCommentId","inputs":[{"name":"_commentId","type":"uint256","internalType":"uint256"}],"outputs":[{"name":"","type":"address[]","internalType":"address[]"}],"stateMutability":"view"},{"type":"function","name":"getContractOwner","inputs":[],"outputs":[{"name":"","type":"address","internalType":"address"}],"stateMutability":"view"},{"type":"function","name":"getIdsOfEligiblePosts","inputs":[],"outputs":[{"name":"","type":"uint256[]","internalType":"uint256[]"}],"stateMutability":"view"},{"type":"function","name":"getIdsOfRecentPosts","inputs":[],"outputs":[{"name":"","type":"uint256[]","internalType":"uint256[]"}],"stateMutability":"view"},{"type":"function","name":"getIdsOfRecentWinningPosts","inputs":[],"outputs":[{"name":"","type":"uint256[]","internalType":"uint256[]"}],"stateMutability":"view"},{"type":"function","name":"getPostById","inputs":[{"name":"_postId","type":"uint256","internalType":"uint256"}],"outputs":[{"name":"","type":"tuple","internalType":"struct ChainSphereUserProfile.Post","components":[{"name":"postId","type":"uint256","internalType":"uint256"},{"name":"content","type":"string","internalType":"string"},{"name":"imgHash","type":"string","internalType":"string"},{"name":"timestamp","type":"uint256","internalType":"uint256"},{"name":"upvotes","type":"uint256","internalType":"uint256"},{"name":"downvotes","type":"uint256","internalType":"uint256"},{"name":"author","type":"address","internalType":"address"},{"name":"authorNickName","type":"string","internalType":"string"},{"name":"authorFullName","type":"string","internalType":"string"},{"name":"authorProfileImgHash","type":"string","internalType":"string"}]}],"stateMutability":"view"},{"type":"function","name":"getRecentTrendingPosts","inputs":[],"outputs":[{"name":"","type":"tuple[]","internalType":"struct ChainSphereUserProfile.Post[]","components":[{"name":"postId","type":"uint256","internalType":"uint256"},{"name":"content","type":"string","internalType":"string"},{"name":"imgHash","type":"string","internalType":"string"},{"name":"timestamp","type":"uint256","internalType":"uint256"},{"name":"upvotes","type":"uint256","internalType":"uint256"},{"name":"downvotes","type":"uint256","internalType":"uint256"},{"name":"author","type":"address","internalType":"address"},{"name":"authorNickName","type":"string","internalType":"string"},{"name":"authorFullName","type":"string","internalType":"string"},{"name":"authorProfileImgHash","type":"string","internalType":"string"}]}],"stateMutability":"nonpayable"},{"type":"function","name":"getRecentWinningPosts","inputs":[],"outputs":[{"name":"","type":"tuple[]","internalType":"struct ChainSphereUserProfile.Post[]","components":[{"name":"postId","type":"uint256","internalType":"uint256"},{"name":"content","type":"string","internalType":"string"},{"name":"imgHash","type":"string","internalType":"string"},{"name":"timestamp","type":"uint256","internalType":"uint256"},{"name":"upvotes","type":"uint256","internalType":"uint256"},{"name":"downvotes","type":"uint256","internalType":"uint256"},{"name":"author","type":"address","internalType":"address"},{"name":"authorNickName","type":"string","internalType":"string"},{"name":"authorFullName","type":"string","internalType":"string"},{"name":"authorProfileImgHash","type":"string","internalType":"string"}]}],"stateMutability":"nonpayable"},{"type":"function","name":"getUsdValueOfEthAmount","inputs":[{"name":"_ethAmount","type":"uint256","internalType":"uint256"}],"outputs":[{"name":"","type":"uint256","internalType":"uint256"}],"stateMutability":"view"},{"type":"function","name":"getUser","inputs":[{"name":"_userAddress","type":"address","internalType":"address"}],"outputs":[{"name":"","type":"tuple","internalType":"struct ChainSphereUserProfile.User","components":[{"name":"id","type":"uint256","internalType":"uint256"},{"name":"userAddress","type":"address","internalType":"address"},{"name":"nickName","type":"string","internalType":"string"},{"name":"fullNameOfUser","type":"string","internalType":"string"},{"name":"bio","type":"string","internalType":"string"},{"name":"profileImageHash","type":"string","internalType":"string"}]}],"stateMutability":"view"},{"type":"function","name":"getUserById","inputs":[{"name":"_userId","type":"uint256","internalType":"uint256"}],"outputs":[{"name":"","type":"tuple","internalType":"struct ChainSphereUserProfile.User","components":[{"name":"id","type":"uint256","internalType":"uint256"},{"name":"userAddress","type":"address","internalType":"address"},{"name":"nickName","type":"string","internalType":"string"},{"name":"fullNameOfUser","type":"string","internalType":"string"},{"name":"bio","type":"string","internalType":"string"},{"name":"profileImageHash","type":"string","internalType":"string"}]}],"stateMutability":"view"},{"type":"function","name":"getUserComments","inputs":[{"name":"_userAddress","type":"address","internalType":"address"}],"outputs":[{"name":"","type":"tuple[]","internalType":"struct ChainSphereComments.Comment[]","components":[{"name":"commentId","type":"uint256","internalType":"uint256"},{"name":"author","type":"address","internalType":"address"},{"name":"postId","type":"uint256","internalType":"uint256"},{"name":"content","type":"string","internalType":"string"},{"name":"timestamp","type":"uint256","internalType":"uint256"},{"name":"likesCount","type":"uint256","internalType":"uint256"}]}],"stateMutability":"view"},{"type":"function","name":"getUserNameFromAddress","inputs":[{"name":"_userAddress","type":"address","internalType":"address"}],"outputs":[{"name":"","type":"string","internalType":"string"}],"stateMutability":"view"},{"type":"function","name":"getUserPosts","inputs":[{"name":"_userAddress","type":"address","internalType":"address"}],"outputs":[{"name":"","type":"tuple[]","internalType":"struct ChainSphereUserProfile.Post[]","components":[{"name":"postId","type":"uint256","internalType":"uint256"},{"name":"content","type":"string","internalType":"string"},{"name":"imgHash","type":"string","internalType":"string"},{"name":"timestamp","type":"uint256","internalType":"uint256"},{"name":"upvotes","type":"uint256","internalType":"uint256"},{"name":"downvotes","type":"uint256","internalType":"uint256"},{"name":"author","type":"address","internalType":"address"},{"name":"authorNickName","type":"string","internalType":"string"},{"name":"authorFullName","type":"string","internalType":"string"},{"name":"authorProfileImgHash","type":"string","internalType":"string"}]}],"stateMutability":"view"},{"type":"function","name":"getUserVoteStatus","inputs":[{"name":"_postId","type":"uint256","internalType":"uint256"}],"outputs":[{"name":"","type":"bool","internalType":"bool"}],"stateMutability":"view"},{"type":"function","name":"getUsernameOfRecentWinners","inputs":[],"outputs":[{"name":"","type":"string[]","internalType":"string[]"}],"stateMutability":"nonpayable"},{"type":"function","name":"likeComment","inputs":[{"name":"_commentId","type":"uint256","internalType":"uint256"}],"outputs":[],"stateMutability":"nonpayable"},{"type":"function","name":"performUpkeep","inputs":[{"name":"","type":"bytes","internalType":"bytes"}],"outputs":[{"name":"","type":"uint256","internalType":"uint256"}],"stateMutability":"nonpayable"},{"type":"function","name":"rawFulfillRandomWords","inputs":[{"name":"requestId","type":"uint256","internalType":"uint256"},{"name":"randomWords","type":"uint256[]","internalType":"uint256[]"}],"outputs":[],"stateMutability":"nonpayable"},{"type":"function","name":"registerUser","inputs":[{"name":"_fullNameOfUser","type":"string","internalType":"string"},{"name":"_username","type":"string","internalType":"string"}],"outputs":[],"stateMutability":"nonpayable"},{"type":"function","name":"transferContractBalance","inputs":[{"name":"_to","type":"address","internalType":"address payable"}],"outputs":[],"stateMutability":"nonpayable"},{"type":"function","name":"upvote","inputs":[{"name":"_postId","type":"uint256","internalType":"uint256"}],"outputs":[],"stateMutability":"nonpayable"},{"type":"event","name":"CommentCreated","inputs":[{"name":"commentId","type":"uint256","indexed":true,"internalType":"uint256"},{"name":"postAuthor","type":"string","indexed":false,"internalType":"string"},{"name":"commentAuthor","type":"string","indexed":false,"internalType":"string"},{"name":"postId","type":"uint256","indexed":false,"internalType":"uint256"}],"anonymous":false},{"type":"event","name":"Downvoted","inputs":[{"name":"postId","type":"uint256","indexed":false,"internalType":"uint256"},{"name":"posthAuthorName","type":"string","indexed":false,"internalType":"string"},{"name":"downvoterName","type":"string","indexed":false,"internalType":"string"}],"anonymous":false},{"type":"event","name":"PickedWinner","inputs":[{"name":"winner","type":"address","indexed":false,"internalType":"address"}],"anonymous":false},{"type":"event","name":"PostCreated","inputs":[{"name":"postId","type":"uint256","indexed":false,"internalType":"uint256"},{"name":"authorName","type":"string","indexed":false,"internalType":"string"}],"anonymous":false},{"type":"event","name":"PostEdited","inputs":[{"name":"postId","type":"uint256","indexed":false,"internalType":"uint256"},{"name":"authorName","type":"string","indexed":false,"internalType":"string"}],"anonymous":false},{"type":"event","name":"PostLiked","inputs":[{"name":"postId","type":"uint256","indexed":true,"internalType":"uint256"},{"name":"postAuthor","type":"address","indexed":true,"internalType":"address"},{"name":"liker","type":"address","indexed":true,"internalType":"address"}],"anonymous":false},{"type":"event","name":"RequestWinningAuthor","inputs":[{"name":"requestId","type":"uint256","indexed":false,"internalType":"uint256"}],"anonymous":false},{"type":"event","name":"RewardSent","inputs":[{"name":"user","type":"address","indexed":true,"internalType":"address"},{"name":"amount","type":"uint256","indexed":false,"internalType":"uint256"}],"anonymous":false},{"type":"event","name":"Upvoted","inputs":[{"name":"postId","type":"uint256","indexed":false,"internalType":"uint256"},{"name":"posthAuthorName","type":"string","indexed":false,"internalType":"string"},{"name":"upvoterName","type":"string","indexed":false,"internalType":"string"}],"anonymous":false},{"type":"event","name":"UserRegistered","inputs":[{"name":"id","type":"uint256","indexed":true,"internalType":"uint256"},{"name":"userAddress","type":"address","indexed":true,"internalType":"address"},{"name":"username","type":"string","indexed":false,"internalType":"string"}],"anonymous":false},{"type":"error","name":"ChainSphere__AlreadyVoted","inputs":[]},{"type":"error","name":"ChainSphere__BatchTransferFailed","inputs":[{"name":"winner","type":"address","internalType":"address"}]},{"type":"error","name":"ChainSphere__NotCommentOwner","inputs":[]},{"type":"error","name":"ChainSphere__NotOwner","inputs":[]},{"type":"error","name":"ChainSphere__NotPostOwner","inputs":[]},{"type":"error","name":"ChainSphere__NotProfileOwner","inputs":[]},{"type":"error","name":"ChainSphere__OwnerCannotVote","inputs":[]},{"type":"error","name":"ChainSphere__PaymentNotEnough","inputs":[]},{"type":"error","name":"ChainSphere__PostDoesNotExist","inputs":[]},{"type":"error","name":"ChainSphere__TransferFailed","inputs":[]},{"type":"error","name":"ChainSphere__UpkeepNotNeeded","inputs":[{"name":"balance","type":"uint256","internalType":"uint256"},{"name":"numOfEligibleAuthors","type":"uint256","internalType":"uint256"}]},{"type":"error","name":"ChainSphere__UserDoesNotExist","inputs":[]},{"type":"error","name":"ChainSphere__UsernameAlreadyTaken","inputs":[]},{"type":"error","name":"OnlyCoordinatorCanFulfill","inputs":[{"name":"have","type":"address","internalType":"address"},{"name":"want","type":"address","internalType":"address"}]}],"bytecode":{"object":"0x6101406040523480156200001257600080fd5b506040516200504a3803806200504a8339810160408190526200003591620000a9565b6001600160a01b0393841660805260068054949096166001600160a01b03199485161790955560a0939093524260165560e0526101009190915263ffffffff90911661012052601f8054909116331790556200011b565b80516001600160a01b0381168114620000a457600080fd5b919050565b60008060008060008060c08789031215620000c357600080fd5b620000ce876200008c565b955060208701519450620000e5604088016200008c565b9350606087015192506080870151915060a087015163ffffffff811681146200010d57600080fd5b809150509295509295509295565b60805160a05160c05160e0516101005161012051614ed8620001726000396000612711015260006126e4015260006126be0152600061273f01526000613c2d0152600081816107ca015261080c0152614ed86000f3fe6080604052600436106101fb5760003560e01c80636372af841161010c57806396f11ac81161009a578063ad8160291161006c578063ad8160291461061c578063bf0ac63c1461063c578063c9fbacf31461065c578063e96c520b1461068a578063f31fdad4146106aa57005b806396f11ac814610597578063984d1015146105b75780639a2194a9146105cc578063a4dd41d0146105ec57005b806372d4e382116100de57806372d4e3821461050d5780637461d8581461052d5780637a0726bd1461054d5780637d0b10261461056f5780638c2620131461058257005b80636372af841461046657806364e95895146104935780636ed6da9e146104c05780636f77926b146104ed57005b80633056110011610189578063442890d51161015b578063442890d51461039a5780634585e33b146103cc57806349248d38146103ec5780634e82c13414610419578063542e9e1b1461043957005b8063305611001461033057806330ad4ba914610345578063392338f51461035a57806340a179851461037a57005b80631d2e4afd116101cd5780631d2e4afd1461027f5780631fe543e31461029f5780632a04c645146102bf5780632b3c6e22146102e15780632d492c831461030e57005b8063012cc1e21461020457806301ddf07014610224578063094cd5ee1461024457806312065fe01461025757005b3661020257005b005b34801561021057600080fd5b5061020261021f36600461438e565b6106ca565b34801561023057600080fd5b5061020261023f36600461438e565b6106d6565b61020261025236600461438e565b6106df565b34801561026357600080fd5b5061026c61076b565b6040519081526020015b60405180910390f35b34801561028b57600080fd5b5061020261029a366004614466565b6107b5565b3480156102ab57600080fd5b506102026102ba3660046144ca565b6107bf565b3480156102cb57600080fd5b506102d4610848565b604051610276919061469a565b3480156102ed57600080fd5b506103016102fc366004614713565b610857565b604051610276919061478b565b34801561031a57600080fd5b50610323610868565b60405161027691906147e2565b34801561033c57600080fd5b506102d4610872565b34801561035157600080fd5b506102d461087c565b34801561036657600080fd5b50610202610375366004614466565b610886565b34801561038657600080fd5b50610202610395366004614826565b610890565b3480156103a657600080fd5b50601f546001600160a01b03165b6040516001600160a01b039091168152602001610276565b3480156103d857600080fd5b5061026c6103e7366004614863565b61089a565b3480156103f857600080fd5b5061040c61040736600461438e565b6108e0565b60405161027691906148b4565b34801561042557600080fd5b506103b46104343660046148c7565b6108f1565b34801561044557600080fd5b5061045961045436600461438e565b6108fc565b60405161027691906148fc565b34801561047257600080fd5b50610486610481366004614713565b610907565b604051610276919061493d565b34801561049f57600080fd5b506104b36104ae36600461438e565b610912565b6040516102769190614950565b3480156104cc57600080fd5b506104e06104db36600461438e565b610923565b6040516102769190614963565b3480156104f957600080fd5b506104e0610508366004614713565b610934565b34801561051957600080fd5b50610202610528366004614826565b610945565b34801561053957600080fd5b506102026105483660046149f4565b61094f565b34801561055957600080fd5b50610562610961565b6040516102769190614a86565b61020261057d36600461438e565b61096b565b34801561058e57600080fd5b506103236109b4565b3480156105a357600080fd5b506102026105b2366004614713565b6109be565b3480156105c357600080fd5b50610323610a1e565b3480156105d857600080fd5b506102d46105e7366004614713565b610a28565b3480156105f857600080fd5b5061060c61060736600461438e565b610a33565b6040519015158152602001610276565b34801561062857600080fd5b50610202610637366004614826565b610a56565b34801561064857600080fd5b50610202610657366004614add565b610a60565b34801561066857600080fd5b5061067c610677366004614863565b610a70565b604051610276929190614b4a565b34801561069657600080fd5b5061026c6106a536600461438e565b610a95565b3480156106b657600080fd5b506102026106c536600461438e565b610aa0565b6106d381610aa9565b50565b6106d381610b92565b806106e981610912565b60c001516001600160a01b0316336001600160a01b03161461071e5760405163b5f6908d60e01b815260040160405180910390fd5b600654674563918244f400009061073f9034906001600160a01b0316610cdb565b101561075e576040516340956f2160e01b815260040160405180910390fd5b61076782610d11565b5050565b600061077f601f546001600160a01b031690565b6001600160a01b0316336001600160a01b0316146107b057604051633c6a5daf60e21b815260040160405180910390fd5b504790565b6107678282610f8c565b336001600160a01b037f0000000000000000000000000000000000000000000000000000000000000000161461083e5760405163073e64fd60e21b81523360048201526001600160a01b037f00000000000000000000000000000000000000000000000000000000000000001660248201526044015b60405180910390fd5b6107678282611226565b606061085261125a565b905090565b6060610862826116e6565b92915050565b606061085261182c565b6060610852611884565b6060610852611bfd565b610767828261206f565b61076782826123d9565b6000806040516020016108b6906203078360ec1b815260030190565b60408051601f19818403018152602083019091526000825291506108d990612621565b5050919050565b6108e8614254565b610862826127f5565b600061086282612919565b60606108628261294a565b6060610862826129b6565b61091a614293565b61086282612a5b565b61092b6142ef565b61086282612dd8565b61093c6142ef565b6108628261300b565b610767828261305c565b61095b8484848461313e565b50505050565b60606108526133c2565b600654674563918244f400009061098c9034906001600160a01b0316610cdb565b10156109ab576040516340956f2160e01b815260040160405180910390fd5b6106d3816134ef565b60606108526135bd565b601f546001600160a01b031633146109e957604051633c6a5daf60e21b815260040160405180910390fd5b6040516001600160a01b038216904780156108fc02916000818181858888f19350505050158015610767573d6000803e3d6000fd5b6060610852613613565b606061086282613669565b336000908152600d6020908152604080832084845290915281205460ff16610862565b61076782826139ed565b610a6b838383613a5d565b505050565b60006060610a8c60405180602001604052806000815250613bab565b91509150915091565b600061086282613ca4565b6106d381613cc7565b336000610ab58261300b565b602001516001600160a01b031603610ae05760405163243ba64d60e21b815260040160405180910390fd5b6000828152601b6020908152604080832033845290915281205460ff1615159003610767576000828152601b602090815260408083203384529091529020805460ff19166001179055601d805483908110610b3d57610b3d614b65565b600091825260208220600560069092020101805491610b5b83614b91565b90915550506000828152601c602090815260408220805460018101825590835291200180546001600160a01b031916331790555050565b80610b9c81612a5b565b60c001516001600160a01b03163303610bc85760405163e900992360e01b815260040160405180910390fd5b81610bed81336000908152600d60209081526040808320938352929052205460ff1690565b15610c0b57604051636d830dbf60e11b815260040160405180910390fd5b336000908152600d602090815260408083208684529091529020805460ff191660011790556007805484908110610c4457610c44614b65565b6000918252602082206004600a9092020101805491610c6283614b91565b90915550506000838152600b60205260408120546001600160a01b031690610c89826129b6565b90506000610c96336129b6565b90507fa036d403d7739d8360e6171b2fbf68a0dfef33d6c6f432a236f6c3cdbb3cfee6868383604051610ccb93929190614baa565b60405180910390a1505050505050565b600080610ce783613e00565b90506000670de0b6b3a7640000610cfe8387614bd5565b610d089190614c02565b95945050505050565b600060078281548110610d2657610d26614b65565b600091825260208083206006600a909302019190910154604080516101408101825286815281518085018352858152818501528151808501835285815281830152606081018590526080810185905260a0810185905260c081018590528151808501835285815260e0820152815180850183528581526101008201528151938401909152928252610120830191909152600780546001600160a01b0390921693509084908110610dd857610dd8614b65565b90600052602060002090600a0201600082015181600001556020820151816001019081610e059190614c98565b5060408201516002820190610e1a9082614c98565b50606082015160038201556080820151600482015560a0820151600582015560c08201516006820180546001600160a01b0319166001600160a01b0390921691909117905560e08201516007820190610e739082614c98565b506101008201516008820190610e899082614c98565b506101208201516009820190610e9f9082614c98565b5050506000828152600b6020908152604080832080546001600160a01b03191690557f13da86008ba1c6922daee3e07db95305ef49ebced9f5467a0b8613fcc6b343e3859055600f8252808320546001600160a01b0385168452600e9092528220805491929183908110610f1557610f15614b65565b60009182526020808320600a9290920290910160060180546001600160a01b0319166001600160a01b039485161790556040805180830182528381529386168352600e9091529020805483908110610f6f57610f6f614b65565b90600052602060002090600a0201600101908161095b9190614c98565b806000610f9882612919565b6001600160a01b031614610fbf57604051630fa2819960e31b815260040160405180910390fd5b6002805460009182610fd083614b91565b909155506040805160c081018252828152336020808301828152838501898152606085018b905285518084018752600080825260808701919091528651808501885281815260a08701529384526001928390529490922083518155915190820180546001600160a01b0319166001600160a01b0390921691909117905591519293509182919060028201906110659082614c98565b506060820151600382019061107a9082614c98565b506080820151600482019061108f9082614c98565b5060a082015160058201906110a49082614c98565b50503360008181526003602052604090819020859055519091506004906110cc908790614d58565b908152604080516020928190038301902080546001600160a01b03199081166001600160a01b03958616179091556000805460018101825590805285517f290decd9548b62a8d60345a988386fc84ba6bc95484008f6362f93160ef3e5636006909202918201908155938601517f290decd9548b62a8d60345a988386fc84ba6bc95484008f6362f93160ef3e56482018054909316951694909417905583015183927f290decd9548b62a8d60345a988386fc84ba6bc95484008f6362f93160ef3e565019061119b9082614c98565b50606082015160038201906111b09082614c98565b50608082015160048201906111c59082614c98565b5060a082015160058201906111da9082614c98565b505050336001600160a01b0316827f8d76d60617424d83544323e2322cb8d86537451c9b3d991886ce6f4721e3865e86604051611217919061493d565b60405180910390a35050505050565b604080516203078360ec1b6020820152815160038183030181526023909101909152610a6b61125482612621565b83613e7c565b60135460609060005b8181101561136d5760116112936013838154811061128357611283614b65565b9060005260206000200154612a5b565b81546001818101845560009384526020938490208351600a909302019182559282015191929091908201906112c89082614c98565b50604082015160028201906112dd9082614c98565b50606082015160038201556080820151600482015560a0820151600582015560c08201516006820180546001600160a01b0319166001600160a01b0390921691909117905560e082015160078201906113369082614c98565b50610100820151600882019061134c9082614c98565b5061012082015160098201906113629082614c98565b505050600101611263565b506011805480602002602001604051908101604052809291908181526020016000905b828210156116dc57838290600052602060002090600a020160405180610140016040529081600082015481526020016001820180546113ce90614c16565b80601f01602080910402602001604051908101604052809291908181526020018280546113fa90614c16565b80156114475780601f1061141c57610100808354040283529160200191611447565b820191906000526020600020905b81548152906001019060200180831161142a57829003601f168201915b5050505050815260200160028201805461146090614c16565b80601f016020809104026020016040519081016040528092919081815260200182805461148c90614c16565b80156114d95780601f106114ae576101008083540402835291602001916114d9565b820191906000526020600020905b8154815290600101906020018083116114bc57829003601f168201915b505050918352505060038201546020820152600482015460408201526005820154606082015260068201546001600160a01b0316608082015260078201805460a09092019161152790614c16565b80601f016020809104026020016040519081016040528092919081815260200182805461155390614c16565b80156115a05780601f10611575576101008083540402835291602001916115a0565b820191906000526020600020905b81548152906001019060200180831161158357829003601f168201915b505050505081526020016008820180546115b990614c16565b80601f01602080910402602001604051908101604052809291908181526020018280546115e590614c16565b80156116325780601f1061160757610100808354040283529160200191611632565b820191906000526020600020905b81548152906001019060200180831161161557829003601f168201915b5050505050815260200160098201805461164b90614c16565b80601f016020809104026020016040519081016040528092919081815260200182805461167790614c16565b80156116c45780601f10611699576101008083540402835291602001916116c4565b820191906000526020600020905b8154815290600101906020018083116116a757829003601f168201915b50505050508152505081526020019060010190611390565b5050505091505090565b6001600160a01b0381166000908152601a60209081526040808320805482518185028101850190935280835260609492939192909184015b828210156118215760008481526020908190206040805160c081018252600686029092018054835260018101546001600160a01b03169383019390935260028301549082015260038201805491929160608401919061177c90614c16565b80601f01602080910402602001604051908101604052809291908181526020018280546117a890614c16565b80156117f55780601f106117ca576101008083540402835291602001916117f5565b820191906000526020600020905b8154815290600101906020018083116117d857829003601f168201915b50505050508152602001600482015481526020016005820154815250508152602001906001019061171e565b505050509050919050565b6060601380548060200260200160405190810160405280929190818152602001828054801561187a57602002820191906000526020600020905b815481526020019060010190808311611866575b5050505050905090565b60606007805480602002602001604051908101604052809291908181526020016000905b82821015611bf457838290600052602060002090600a020160405180610140016040529081600082015481526020016001820180546118e690614c16565b80601f016020809104026020016040519081016040528092919081815260200182805461191290614c16565b801561195f5780601f106119345761010080835404028352916020019161195f565b820191906000526020600020905b81548152906001019060200180831161194257829003601f168201915b5050505050815260200160028201805461197890614c16565b80601f01602080910402602001604051908101604052809291908181526020018280546119a490614c16565b80156119f15780601f106119c6576101008083540402835291602001916119f1565b820191906000526020600020905b8154815290600101906020018083116119d457829003601f168201915b505050918352505060038201546020820152600482015460408201526005820154606082015260068201546001600160a01b0316608082015260078201805460a090920191611a3f90614c16565b80601f0160208091040260200160405190810160405280929190818152602001828054611a6b90614c16565b8015611ab85780601f10611a8d57610100808354040283529160200191611ab8565b820191906000526020600020905b815481529060010190602001808311611a9b57829003601f168201915b50505050508152602001600882018054611ad190614c16565b80601f0160208091040260200160405190810160405280929190818152602001828054611afd90614c16565b8015611b4a5780601f10611b1f57610100808354040283529160200191611b4a565b820191906000526020600020905b815481529060010190602001808311611b2d57829003601f168201915b50505050508152602001600982018054611b6390614c16565b80601f0160208091040260200160405190810160405280929190818152602001828054611b8f90614c16565b8015611bdc5780601f10611bb157610100808354040283529160200191611bdc565b820191906000526020600020905b815481529060010190602001808311611bbf57829003601f168201915b505050505081525050815260200190600101906118a8565b50505050905090565b60145460609060005b81811015611d00576010611c266014838154811061128357611283614b65565b81546001818101845560009384526020938490208351600a90930201918255928201519192909190820190611c5b9082614c98565b5060408201516002820190611c709082614c98565b50606082015160038201556080820151600482015560a0820151600582015560c08201516006820180546001600160a01b0319166001600160a01b0390921691909117905560e08201516007820190611cc99082614c98565b506101008201516008820190611cdf9082614c98565b506101208201516009820190611cf59082614c98565b505050600101611c06565b506010805480602002602001604051908101604052809291908181526020016000905b828210156116dc57838290600052602060002090600a02016040518061014001604052908160008201548152602001600182018054611d6190614c16565b80601f0160208091040260200160405190810160405280929190818152602001828054611d8d90614c16565b8015611dda5780601f10611daf57610100808354040283529160200191611dda565b820191906000526020600020905b815481529060010190602001808311611dbd57829003601f168201915b50505050508152602001600282018054611df390614c16565b80601f0160208091040260200160405190810160405280929190818152602001828054611e1f90614c16565b8015611e6c5780601f10611e4157610100808354040283529160200191611e6c565b820191906000526020600020905b815481529060010190602001808311611e4f57829003601f168201915b505050918352505060038201546020820152600482015460408201526005820154606082015260068201546001600160a01b0316608082015260078201805460a090920191611eba90614c16565b80601f0160208091040260200160405190810160405280929190818152602001828054611ee690614c16565b8015611f335780601f10611f0857610100808354040283529160200191611f33565b820191906000526020600020905b815481529060010190602001808311611f1657829003601f168201915b50505050508152602001600882018054611f4c90614c16565b80601f0160208091040260200160405190810160405280929190818152602001828054611f7890614c16565b8015611fc55780601f10611f9a57610100808354040283529160200191611fc5565b820191906000526020600020905b815481529060010190602001808311611fa857829003601f168201915b50505050508152602001600982018054611fde90614c16565b80601f016020809104026020016040519081016040528092919081815260200182805461200a90614c16565b80156120575780601f1061202c57610100808354040283529160200191612057565b820191906000526020600020905b81548152906001019060200180831161203a57829003601f168201915b50505050508152505081526020019060010190611d23565b33600061207b8261300b565b602001516001600160a01b0316036120a65760405163243ba64d60e21b815260040160405180910390fd5b6000600780549050905060006040518061014001604052808381526020018681526020018581526020014281526020016000815260200160008152602001336001600160a01b031681526020016120fc3361300b565b60400151815260200161210e3361300b565b6060015181526020016121203361300b565b60a00151905290506000612133336129b6565b336000908152600e602090815260408220805460018082018355918452928290208651600a850290910190815591860151939450919285928201906121789082614c98565b506040820151600282019061218d9082614c98565b50606082015160038201556080820151600482015560a0820151600582015560c08201516006820180546001600160a01b0319166001600160a01b0390921691909117905560e082015160078201906121e69082614c98565b5061010082015160088201906121fc9082614c98565b5061012082015160098201906122129082614c98565b505083516000908152600f6020908152604082208490556007805460018101825592528551600a9092027fa66cc928b5edb82af9bd49922954155ab7b0942694bea4ce44661d9a8736c6888101928355908601518693507fa66cc928b5edb82af9bd49922954155ab7b0942694bea4ce44661d9a8736c689909101906122989082614c98565b50604082015160028201906122ad9082614c98565b50606082015160038201556080820151600482015560a0820151600582015560c08201516006820180546001600160a01b0319166001600160a01b0390921691909117905560e082015160078201906123069082614c98565b50610100820151600882019061231c9082614c98565b5061012082015160098201906123329082614c98565b5050835160088054600181019091557ff3f7a9fe364faab93b216da50a3214154f22a0a2b415b23a84c8169e8b636ee3015550336000818152600a60209081526040808320889055878352600b9091529081902080546001600160a01b031916909217909155517f3d4335cbfac350aa27a3fa09060b4691656ecbe3033f4d953849c2f755f230d1906123c89086908590614d74565b60405180910390a150505050505050565b3360006123e58261300b565b602001516001600160a01b0316036124105760405163243ba64d60e21b815260040160405180910390fd5b82600061241c82612a5b565b60c001516001600160a01b0316148061243d5750612438611884565b518110155b1561245b57604051630fda044d60e11b815260040160405180910390fd5b601d546040805160c08101825282815233602082015290810186905260608101859052426080820152600060a0820181905261249687612dd8565b60400151905060006124a7336129b6565b600089815260196020908152604080832088845282528083208054336001600160a01b0319918216179091558c8452601e8352818420805460018181018355918652848620018a9055601d8054918201815590945287517f6d4407e7be21f808e6509aa9fa9143369579dd7d760fe20a2c09680fc146134f6006909502948501908155928801517f6d4407e7be21f808e6509aa9fa9143369579dd7d760fe20a2c09680fc1461350850180549092166001600160a01b039091161790558601517f6d4407e7be21f808e6509aa9fa9143369579dd7d760fe20a2c09680fc14613518301556060860151929350859290917f6d4407e7be21f808e6509aa9fa9143369579dd7d760fe20a2c09680fc146135201906125c49082614c98565b506080820151816004015560a082015181600501555050837f915184b2a0bfb3b827755b4e9e718f684996cef7b75bad20f26cd2fd67396c7783838b60405161260f93929190614d8d565b60405180910390a25050505050505050565b600080612646604051806040016040528060018152602001600160fd1b815250613bab565b509050806126745760135460405163ae97b49160e01b81524760048201526024810191909152604401610835565b601354601410156126935760135461268e90600a90614dc3565b612696565b60015b6015805463ffffffff191663ffffffff92831690811790915560405163d33d44c160e01b81527f000000000000000000000000000000000000000000000000000000000000000060048201527f00000000000000000000000000000000000000000000000000000000000000006024820152600360448201527f0000000000000000000000000000000000000000000000000000000000000000909216606483015260848201527f00000000000000000000000000000000000000000000000000000000000000006001600160a01b03169063d33d44c19060a4016020604051808303816000875af1158015612790573d6000803e3d6000fd5b505050506040513d601f19601f820116820180604052508101906127b49190614dd7565b91507f0aa5a4e8e459a1f6485b98194bbe2e07647a58e7dd6d2a9923441b4d569c3077826040516127e791815260200190565b60405180910390a150919050565b6127fd614254565b601d828154811061281057612810614b65565b90600052602060002090600602016040518060c0016040529081600082015481526020016001820160009054906101000a90046001600160a01b03166001600160a01b03166001600160a01b031681526020016002820154815260200160038201805461287c90614c16565b80601f01602080910402602001604051908101604052809291908181526020018280546128a890614c16565b80156128f55780601f106128ca576101008083540402835291602001916128f5565b820191906000526020600020905b8154815290600101906020018083116128d857829003601f168201915b50505050508152602001600482015481526020016005820154815250509050919050565b600060048260405161292b9190614d58565b908152604051908190036020019020546001600160a01b031692915050565b6000818152601c60209081526040918290208054835181840281018401909452808452606093928301828280156129aa57602002820191906000526020600020905b81546001600160a01b0316815260019091019060200180831161298c575b50505050509050919050565b6001600160a01b03811660009081526001602052604090206002018054606091906129e090614c16565b80601f0160208091040260200160405190810160405280929190818152602001828054612a0c90614c16565b80156129aa5780601f10612a2e576101008083540402835291602001916129aa565b820191906000526020600020905b815481529060010190602001808311612a3c5750939695505050505050565b612a63614293565b612a6b611884565b518210612a8b57604051630fda044d60e11b815260040160405180910390fd5b60078281548110612a9e57612a9e614b65565b90600052602060002090600a02016040518061014001604052908160008201548152602001600182018054612ad290614c16565b80601f0160208091040260200160405190810160405280929190818152602001828054612afe90614c16565b8015612b4b5780601f10612b2057610100808354040283529160200191612b4b565b820191906000526020600020905b815481529060010190602001808311612b2e57829003601f168201915b50505050508152602001600282018054612b6490614c16565b80601f0160208091040260200160405190810160405280929190818152602001828054612b9090614c16565b8015612bdd5780601f10612bb257610100808354040283529160200191612bdd565b820191906000526020600020905b815481529060010190602001808311612bc057829003601f168201915b505050918352505060038201546020820152600482015460408201526005820154606082015260068201546001600160a01b0316608082015260078201805460a090920191612c2b90614c16565b80601f0160208091040260200160405190810160405280929190818152602001828054612c5790614c16565b8015612ca45780601f10612c7957610100808354040283529160200191612ca4565b820191906000526020600020905b815481529060010190602001808311612c8757829003601f168201915b50505050508152602001600882018054612cbd90614c16565b80601f0160208091040260200160405190810160405280929190818152602001828054612ce990614c16565b8015612d365780601f10612d0b57610100808354040283529160200191612d36565b820191906000526020600020905b815481529060010190602001808311612d1957829003601f168201915b50505050508152602001600982018054612d4f90614c16565b80601f0160208091040260200160405190810160405280929190818152602001828054612d7b90614c16565b8015612dc85780601f10612d9d57610100808354040283529160200191612dc8565b820191906000526020600020905b815481529060010190602001808311612dab57829003601f168201915b5050505050815250509050919050565b612de06142ef565b60008281548110612df357612df3614b65565b90600052602060002090600602016040518060c0016040529081600082015481526020016001820160009054906101000a90046001600160a01b03166001600160a01b03166001600160a01b03168152602001600282018054612e5590614c16565b80601f0160208091040260200160405190810160405280929190818152602001828054612e8190614c16565b8015612ece5780601f10612ea357610100808354040283529160200191612ece565b820191906000526020600020905b815481529060010190602001808311612eb157829003601f168201915b50505050508152602001600382018054612ee790614c16565b80601f0160208091040260200160405190810160405280929190818152602001828054612f1390614c16565b8015612f605780601f10612f3557610100808354040283529160200191612f60565b820191906000526020600020905b815481529060010190602001808311612f4357829003601f168201915b50505050508152602001600482018054612f7990614c16565b80601f0160208091040260200160405190810160405280929190818152602001828054612fa590614c16565b8015612ff25780601f10612fc757610100808354040283529160200191612ff2565b820191906000526020600020905b815481529060010190602001808311612fd557829003601f168201915b50505050508152602001600582018054612d4f90614c16565b6130136142ef565b6001600160a01b03808316600090815260016020818152604092839020835160c081018552815481529281015490941690820152600283018054919392840191612e5590614c16565b3360006130688261300b565b602001516001600160a01b0316036130935760405163243ba64d60e21b815260040160405180910390fd5b8261309d81612dd8565b602001516001600160a01b0316336001600160a01b0316146130d25760405163a736c1d760e01b815260040160405180910390fd5b8260006130de82612919565b6001600160a01b03161461310557604051630fa2819960e31b815260040160405180910390fd5b836000868154811061311957613119614b65565b906000526020600020906006020160020190816131369190614c98565b505050505050565b33600061314a8261300b565b602001516001600160a01b0316036131755760405163243ba64d60e21b815260040160405180910390fd5b8461317f81612dd8565b602001516001600160a01b0316336001600160a01b0316146131b45760405163a736c1d760e01b815260040160405180910390fd5b6040516020016131cf90602080825260009082015260400190565b60405160208183030381529060405280519060200120856040516020016131f6919061493d565b604051602081830303815290604052805190602001201461326157846000878154811061322557613225614b65565b906000526020600020906006020160040190816132429190614c98565b5033600090815260016020526040902060040161325f8682614c98565b505b60405160200161327c90602080825260009082015260400190565b60405160208183030381529060405280519060200120846040516020016132a3919061493d565b604051602081830303815290604052805190602001201461330e5783600087815481106132d2576132d2614b65565b906000526020600020906006020160050190816132ef9190614c98565b5033600090815260016020526040902060050161330c8582614c98565b505b60405160200161332990602080825260009082015260400190565b6040516020818303038152906040528051906020012084604051602001613350919061493d565b604051602081830303815290604052805190602001201461313657826000878154811061337f5761337f614b65565b9060005260206000209060060201600301908161339c9190614c98565b503360009081526001602052604090206003016133b98482614c98565b50505050505050565b60145460609060005b818110156134205760056133f76133ee6014848154811061128357611283614b65565b60c001516129b6565b815460018101835560009283526020909220909101906134179082614c98565b506001016133cb565b506005805480602002602001604051908101604052809291908181526020016000905b828210156116dc57838290600052602060002001805461346290614c16565b80601f016020809104026020016040519081016040528092919081815260200182805461348e90614c16565b80156134db5780601f106134b0576101008083540402835291602001916134db565b820191906000526020600020905b8154815290600101906020018083116134be57829003601f168201915b505050505081526020019060010190613443565b806134f9816127f5565b602001516001600160a01b0316336001600160a01b03161461352e576040516314fd685b60e21b815260040160405180910390fd5b60405180602001604052806000815250601d838154811061355157613551614b65565b9060005260206000209060060201600301908161356e9190614c98565b506000601d838154811061358457613584614b65565b906000526020600020906006020160010160006101000a8154816001600160a01b0302191690836001600160a01b031602179055505050565b6060601480548060200260200160405190810160405280929190818152602001828054801561187a5760200282019190600052602060002090815481526020019060010190808311611866575050505050905090565b6060600880548060200260200160405190810160405280929190818152602001828054801561187a5760200282019190600052602060002090815481526020019060010190808311611866575050505050905090565b6001600160a01b0381166000908152600e60209081526040808320805482518185028101850190935280835260609492939192909184015b8282101561182157838290600052602060002090600a020160405180610140016040529081600082015481526020016001820180546136df90614c16565b80601f016020809104026020016040519081016040528092919081815260200182805461370b90614c16565b80156137585780601f1061372d57610100808354040283529160200191613758565b820191906000526020600020905b81548152906001019060200180831161373b57829003601f168201915b5050505050815260200160028201805461377190614c16565b80601f016020809104026020016040519081016040528092919081815260200182805461379d90614c16565b80156137ea5780601f106137bf576101008083540402835291602001916137ea565b820191906000526020600020905b8154815290600101906020018083116137cd57829003601f168201915b505050918352505060038201546020820152600482015460408201526005820154606082015260068201546001600160a01b0316608082015260078201805460a09092019161383890614c16565b80601f016020809104026020016040519081016040528092919081815260200182805461386490614c16565b80156138b15780601f10613886576101008083540402835291602001916138b1565b820191906000526020600020905b81548152906001019060200180831161389457829003601f168201915b505050505081526020016008820180546138ca90614c16565b80601f01602080910402602001604051908101604052809291908181526020018280546138f690614c16565b80156139435780601f1061391857610100808354040283529160200191613943565b820191906000526020600020905b81548152906001019060200180831161392657829003601f168201915b5050505050815260200160098201805461395c90614c16565b80601f016020809104026020016040519081016040528092919081815260200182805461398890614c16565b80156139d55780601f106139aa576101008083540402835291602001916139d5565b820191906000526020600020905b8154815290600101906020018083116139b857829003601f168201915b505050505081525050815260200190600101906136a1565b816139f7816127f5565b602001516001600160a01b0316336001600160a01b031614613a2c576040516314fd685b60e21b815260040160405180910390fd5b81601d8481548110613a4057613a40614b65565b9060005260206000209060060201600301908161095b9190614c98565b82613a6781612a5b565b60c001516001600160a01b0316336001600160a01b031614613a9c5760405163b5f6908d60e01b815260040160405180910390fd5b8260078581548110613ab057613ab0614b65565b90600052602060002090600a02016001019081613acd9190614c98565b50604051602001613ae990602080825260009082015260400190565b6040516020818303038152906040528051906020012082604051602001613b10919061493d565b6040516020818303038152906040528051906020012014613b5e578160078581548110613b3f57613b3f614b65565b90600052602060002090600a02016002019081613b5c9190614c98565b505b6000613b69336129b6565b90507f7009e6824c3ecb1321da2ebabc18901b48d900a97f978c5a93dd3ba8cfe590358582604051613b9c929190614d74565b60405180910390a15050505050565b604080516000808252602082019283905290519091606091613bcf9160139161432e565b50613c296008805480602002602001604051908101604052809291908181526020018280548015613c1f57602002820191906000526020600020905b815481526020019060010190808311613c0b575b5050505050614181565b60007f000000000000000000000000000000000000000000000000000000000000000060165442613c5a9190614df0565b60135491118015925033311515911515908390613c745750815b8015613c7d5750805b60408051808201909152600381526203078360ec1b60208201529097909650945050505050565b6006546000908190613cc09084906001600160a01b0316610cdb565b9392505050565b80613cd181612a5b565b60c001516001600160a01b03163303613cfd5760405163e900992360e01b815260040160405180910390fd5b81613d2281336000908152600d60209081526040808320938352929052205460ff1690565b15613d4057604051636d830dbf60e11b815260040160405180910390fd5b336000908152600d602090815260408083208684529091529020805460ff191660011790556007805484908110613d7957613d79614b65565b6000918252602082206005600a9092020101805491613d9783614b91565b90915550506000838152600b60205260408120546001600160a01b031690613dbe826129b6565b90506000613dcb336129b6565b90507fd7ad3e52dbe8b445d900fd8aa659c95d5b75bb6733c12e7f22d048963bd39ed5868383604051610ccb93929190614baa565b600080826001600160a01b031663feaf968c6040518163ffffffff1660e01b815260040160a060405180830381865afa158015613e41573d6000803e3d6000fd5b505050506040513d601f19601f82011682018060405250810190613e659190614e22565b505050915050806402540be400613cc09190614e72565b6040805160008152602081019182905251613e999160149161432e565b50805160010361401057600060138054905082600081518110613ebe57613ebe614b65565b6020026020010151613ed09190614dc3565b9050600060138281548110613ee757613ee7614b65565b6000918252602082200154601480546001810182559083527fce6d7b5282bd9a3661ae061feed1dbda4e52ab073b1f9285be6e155d9c38d4ec018190559150613f2f82612a5b565b60c001516040805160008152602081019182905251919250613f54916008919061432e565b50426016556040516001600160a01b03821681527fb112587e57bfa970257f3d54fc52859c6300f6bd7a982462c320fed45c2530ed9060200160405180910390a16000816001600160a01b0316662386f26fc1000060405160006040518083038185875af1925050503d8060008114613fe9576040519150601f19603f3d011682016040523d82523d6000602084013e613fee565b606091505b505090508061313657604051630e352ebb60e41b815260040160405180910390fd5b805160005b8181101561095b57600060138054905084838151811061403757614037614b65565b60200260200101516140499190614dc3565b905060006013828154811061406057614060614b65565b6000918252602082200154601480546001810182559083527fce6d7b5282bd9a3661ae061feed1dbda4e52ab073b1f9285be6e155d9c38d4ec0181905591506140a882612a5b565b60c001516040516001600160a01b03821681529091507fb112587e57bfa970257f3d54fc52859c6300f6bd7a982462c320fed45c2530ed9060200160405180910390a16000816001600160a01b0316662386f26fc1000060405160006040518083038185875af1925050503d806000811461413f576040519150601f19603f3d011682016040523d82523d6000602084013e614144565b606091505b505090508061417157604051635e680b6b60e01b81526001600160a01b0383166004820152602401610835565b5050600190920191506140159050565b805160005b81811015610a6b576141b08382815181106141a3576141a3614b65565b60200260200101516141f1565b156141e95760138382815181106141c9576141c9614b65565b602090810291909101810151825460018101845560009384529190922001555b600101614186565b6000806141fd83612a5b565b608001519050600061420e84612a5b565b60a0015190506000806142218385614df0565b1161422d576000614237565b6142378284614df0565b90506005811015614249576000610d08565b600195945050505050565b6040518060c001604052806000815260200160006001600160a01b03168152602001600081526020016060815260200160008152602001600081525090565b60405180610140016040528060008152602001606081526020016060815260200160008152602001600081526020016000815260200160006001600160a01b031681526020016060815260200160608152602001606081525090565b6040518060c001604052806000815260200160006001600160a01b03168152602001606081526020016060815260200160608152602001606081525090565b828054828255906000526020600020908101928215614369579160200282015b8281111561436957825182559160200191906001019061434e565b50614375929150614379565b5090565b5b80821115614375576000815560010161437a565b6000602082840312156143a057600080fd5b5035919050565b634e487b7160e01b600052604160045260246000fd5b604051601f8201601f1916810167ffffffffffffffff811182821017156143e6576143e66143a7565b604052919050565b600067ffffffffffffffff831115614408576144086143a7565b61441b601f8401601f19166020016143bd565b905082815283838301111561442f57600080fd5b828260208301376000602084830101529392505050565b600082601f83011261445757600080fd5b613cc0838335602085016143ee565b6000806040838503121561447957600080fd5b823567ffffffffffffffff8082111561449157600080fd5b61449d86838701614446565b935060208501359150808211156144b357600080fd5b506144c085828601614446565b9150509250929050565b600080604083850312156144dd57600080fd5b8235915060208084013567ffffffffffffffff808211156144fd57600080fd5b818601915086601f83011261451157600080fd5b813581811115614523576145236143a7565b8060051b91506145348483016143bd565b818152918301840191848101908984111561454e57600080fd5b938501935b8385101561456c57843582529385019390850190614553565b8096505050505050509250929050565b60005b8381101561459757818101518382015260200161457f565b50506000910152565b600081518084526145b881602086016020860161457c565b601f01601f19169290920160200192915050565b60006101408251845260208301518160208601526145ec828601826145a0565b9150506040830151848203604086015261460682826145a0565b915050606083015160608501526080830151608085015260a083015160a085015260c083015161464160c08601826001600160a01b03169052565b5060e083015184820360e086015261465982826145a0565b915050610100808401518583038287015261467483826145a0565b92505050610120808401518583038287015261469083826145a0565b9695505050505050565b600060208083016020845280855180835260408601915060408160051b87010192506020870160005b828110156146f157603f198886030184526146df8583516145cc565b945092850192908501906001016146c3565b5092979650505050505050565b6001600160a01b03811681146106d357600080fd5b60006020828403121561472557600080fd5b8135613cc0816146fe565b8051825260018060a01b036020820151166020830152604081015160408301526000606082015160c0606085015261476b60c08501826145a0565b90506080830151608085015260a083015160a08501528091505092915050565b600060208083016020845280855180835260408601915060408160051b87010192506020870160005b828110156146f157603f198886030184526147d0858351614730565b945092850192908501906001016147b4565b6020808252825182820181905260009190848201906040850190845b8181101561481a578351835292840192918401916001016147fe565b50909695505050505050565b6000806040838503121561483957600080fd5b82359150602083013567ffffffffffffffff81111561485757600080fd5b6144c085828601614446565b60006020828403121561487557600080fd5b813567ffffffffffffffff81111561488c57600080fd5b8201601f8101841361489d57600080fd5b6148ac848235602084016143ee565b949350505050565b602081526000613cc06020830184614730565b6000602082840312156148d957600080fd5b813567ffffffffffffffff8111156148f057600080fd5b6148ac84828501614446565b6020808252825182820181905260009190848201906040850190845b8181101561481a5783516001600160a01b031683529284019291840191600101614918565b602081526000613cc060208301846145a0565b602081526000613cc060208301846145cc565b602081528151602082015260018060a01b0360208301511660408201526000604083015160c0606084015261499b60e08401826145a0565b90506060840151601f19808584030160808601526149b983836145a0565b925060808601519150808584030160a08601526149d683836145a0565b925060a08601519150808584030160c086015250610d0882826145a0565b60008060008060808587031215614a0a57600080fd5b84359350602085013567ffffffffffffffff80821115614a2957600080fd5b614a3588838901614446565b94506040870135915080821115614a4b57600080fd5b614a5788838901614446565b93506060870135915080821115614a6d57600080fd5b50614a7a87828801614446565b91505092959194509250565b600060208083016020845280855180835260408601915060408160051b87010192506020870160005b828110156146f157603f19888603018452614acb8583516145a0565b94509285019290850190600101614aaf565b600080600060608486031215614af257600080fd5b83359250602084013567ffffffffffffffff80821115614b1157600080fd5b614b1d87838801614446565b93506040860135915080821115614b3357600080fd5b50614b4086828701614446565b9150509250925092565b82151581526040602082015260006148ac60408301846145a0565b634e487b7160e01b600052603260045260246000fd5b634e487b7160e01b600052601160045260246000fd5b600060018201614ba357614ba3614b7b565b5060010190565b838152606060208201526000614bc360608301856145a0565b828103604084015261469081856145a0565b808202811582820484141761086257610862614b7b565b634e487b7160e01b600052601260045260246000fd5b600082614c1157614c11614bec565b500490565b600181811c90821680614c2a57607f821691505b602082108103614c4a57634e487b7160e01b600052602260045260246000fd5b50919050565b601f821115610a6b576000816000526020600020601f850160051c81016020861015614c795750805b601f850160051c820191505b8181101561313657828155600101614c85565b815167ffffffffffffffff811115614cb257614cb26143a7565b614cc681614cc08454614c16565b84614c50565b602080601f831160018114614cfb5760008415614ce35750858301515b600019600386901b1c1916600185901b178555613136565b600085815260208120601f198616915b82811015614d2a57888601518255948401946001909101908401614d0b565b5085821015614d485787850151600019600388901b60f8161c191681555b5050505050600190811b01905550565b60008251614d6a81846020870161457c565b9190910192915050565b8281526040602082015260006148ac60408301846145a0565b606081526000614da060608301866145a0565b8281036020840152614db281866145a0565b915050826040830152949350505050565b600082614dd257614dd2614bec565b500690565b600060208284031215614de957600080fd5b5051919050565b8181038181111561086257610862614b7b565b805169ffffffffffffffffffff81168114614e1d57600080fd5b919050565b600080600080600060a08688031215614e3a57600080fd5b614e4386614e03565b9450602086015193506040860151925060608601519150614e6660808701614e03565b90509295509295909350565b80820260008212600160ff1b84141615614e8e57614e8e614b7b565b818105831482151761086257610862614b7b56fea2646970667358221220585a75e96976fa29d7760a73a52bb0c202f3ff95d6ed50abbd1b881b3b30b00764736f6c63430008180033","linkReferences":{}},"methodIdentifiers":{"CheckUpkeep(bytes)":"c9fbacf3","changeUsername(uint256,string)":"72d4e382","createComment(uint256,string)":"40a17985","createPost(string,string)":"392338f5","deleteComment(uint256)":"7d0b1026","deletePost(uint256)":"094cd5ee","downvote(uint256)":"f31fdad4","editComment(uint256,string)":"ad816029","editPost(uint256,string,string)":"bf0ac63c","editUserProfile(uint256,string,string,string)":"7461d858","getAddressFromUsername(string)":"4e82c134","getAllPosts()":"30561100","getBalance()":"12065fe0","getCommentByCommentId(uint256)":"49248d38","getCommentLikersByCommentId(uint256)":"542e9e1b","getContractOwner()":"442890d5","getIdsOfEligiblePosts()":"2d492c83","getIdsOfRecentPosts()":"984d1015","getIdsOfRecentWinningPosts()":"8c262013","getPostById(uint256)":"64e95895","getRecentTrendingPosts()":"2a04c645","getRecentWinningPosts()":"30ad4ba9","getUsdValueOfEthAmount(uint256)":"e96c520b","getUser(address)":"6f77926b","getUserById(uint256)":"6ed6da9e","getUserComments(address)":"2b3c6e22","getUserNameFromAddress(address)":"6372af84","getUserPosts(address)":"9a2194a9","getUserVoteStatus(uint256)":"a4dd41d0","getUsernameOfRecentWinners()":"7a0726bd","likeComment(uint256)":"012cc1e2","performUpkeep(bytes)":"4585e33b","rawFulfillRandomWords(uint256,uint256[])":"1fe543e3","registerUser(string,string)":"1d2e4afd","transferContractBalance(address)":"96f11ac8","upvote(uint256)":"01ddf070"},"id":35}