{"abi":[{"type":"constructor","inputs":[],"stateMutability":"nonpayable"},{"type":"function","name":"changeOwner","inputs":[{"name":"_newOwner","type":"address","internalType":"address"}],"outputs":[],"stateMutability":"nonpayable"},{"type":"function","name":"changeUsername","inputs":[{"name":"_newName","type":"string","internalType":"string"}],"outputs":[],"stateMutability":"nonpayable"},{"type":"function","name":"createComment","inputs":[{"name":"_postAuthor","type":"address","internalType":"address"},{"name":"_postId","type":"uint256","internalType":"uint256"},{"name":"_content","type":"string","internalType":"string"}],"outputs":[],"stateMutability":"nonpayable"},{"type":"function","name":"createPost","inputs":[{"name":"_content","type":"string","internalType":"string"},{"name":"_imgHash","type":"string","internalType":"string"}],"outputs":[],"stateMutability":"nonpayable"},{"type":"function","name":"deleteComment","inputs":[{"name":"_commentId","type":"uint256","internalType":"uint256"}],"outputs":[],"stateMutability":"nonpayable"},{"type":"function","name":"deletePost","inputs":[{"name":"_postId","type":"uint256","internalType":"uint256"}],"outputs":[],"stateMutability":"nonpayable"},{"type":"function","name":"downvote","inputs":[{"name":"_postId","type":"uint256","internalType":"uint256"}],"outputs":[],"stateMutability":"nonpayable"},{"type":"function","name":"editComment","inputs":[{"name":"_commentId","type":"uint256","internalType":"uint256"},{"name":"_content","type":"string","internalType":"string"}],"outputs":[],"stateMutability":"nonpayable"},{"type":"function","name":"editPost","inputs":[{"name":"_postId","type":"uint256","internalType":"uint256"},{"name":"_content","type":"string","internalType":"string"},{"name":"_imgHash","type":"string","internalType":"string"}],"outputs":[],"stateMutability":"nonpayable"},{"type":"function","name":"getBalance","inputs":[],"outputs":[{"name":"","type":"uint256","internalType":"uint256"}],"stateMutability":"view"},{"type":"function","name":"getUser","inputs":[{"name":"_userAddress","type":"address","internalType":"address"}],"outputs":[{"name":"","type":"tuple","internalType":"struct SocialMedia.User","components":[{"name":"id","type":"uint256","internalType":"uint256"},{"name":"userAddress","type":"address","internalType":"address"},{"name":"name","type":"string","internalType":"string"},{"name":"bio","type":"string","internalType":"string"},{"name":"profileImageHash","type":"string","internalType":"string"}]}],"stateMutability":"view"},{"type":"function","name":"getUserComments","inputs":[{"name":"_userAddress","type":"address","internalType":"address"}],"outputs":[{"name":"","type":"tuple[]","internalType":"struct SocialMedia.Comment[]","components":[{"name":"commentId","type":"uint256","internalType":"uint256"},{"name":"author","type":"address","internalType":"address"},{"name":"postId","type":"uint256","internalType":"uint256"},{"name":"content","type":"string","internalType":"string"},{"name":"timestamp","type":"uint256","internalType":"uint256"},{"name":"likesCount","type":"uint256","internalType":"uint256"}]}],"stateMutability":"view"},{"type":"function","name":"getUserNameFromAddress","inputs":[{"name":"_userAddress","type":"address","internalType":"address"}],"outputs":[{"name":"nameOfUser","type":"string","internalType":"string"}],"stateMutability":"view"},{"type":"function","name":"getUserPosts","inputs":[{"name":"_userAddress","type":"address","internalType":"address"}],"outputs":[{"name":"","type":"tuple[]","internalType":"struct SocialMedia.Post[]","components":[{"name":"postId","type":"uint256","internalType":"uint256"},{"name":"content","type":"string","internalType":"string"},{"name":"imgHash","type":"string","internalType":"string"},{"name":"timestamp","type":"uint256","internalType":"uint256"},{"name":"upvotes","type":"uint256","internalType":"uint256"},{"name":"downvotes","type":"uint256","internalType":"uint256"},{"name":"author","type":"address","internalType":"address"}]}],"stateMutability":"view"},{"type":"function","name":"likeComment","inputs":[{"name":"_commentId","type":"uint256","internalType":"uint256"}],"outputs":[],"stateMutability":"nonpayable"},{"type":"function","name":"registerUser","inputs":[{"name":"_name","type":"string","internalType":"string"},{"name":"_bio","type":"string","internalType":"string"},{"name":"_profileImageHash","type":"string","internalType":"string"}],"outputs":[],"stateMutability":"nonpayable"},{"type":"function","name":"startDapp","inputs":[],"outputs":[],"stateMutability":"nonpayable"},{"type":"function","name":"stopDapp","inputs":[],"outputs":[],"stateMutability":"nonpayable"},{"type":"function","name":"transferContractBalance","inputs":[{"name":"_to","type":"address","internalType":"address payable"}],"outputs":[],"stateMutability":"nonpayable"},{"type":"function","name":"upvote","inputs":[{"name":"_postId","type":"uint256","internalType":"uint256"}],"outputs":[],"stateMutability":"nonpayable"},{"type":"event","name":"CommentCreated","inputs":[{"name":"commentId","type":"uint256","indexed":true,"internalType":"uint256"},{"name":"postAuthor","type":"address","indexed":true,"internalType":"address"},{"name":"commentAuthor","type":"address","indexed":true,"internalType":"address"},{"name":"postId","type":"uint256","indexed":false,"internalType":"uint256"}],"anonymous":false},{"type":"event","name":"Downvoted","inputs":[{"name":"postId","type":"uint256","indexed":false,"internalType":"uint256"},{"name":"voter","type":"address","indexed":false,"internalType":"address"}],"anonymous":false},{"type":"event","name":"PostCreated","inputs":[{"name":"postId","type":"uint256","indexed":false,"internalType":"uint256"},{"name":"authorName","type":"string","indexed":false,"internalType":"string"}],"anonymous":false},{"type":"event","name":"PostEdited","inputs":[{"name":"postId","type":"uint256","indexed":false,"internalType":"uint256"},{"name":"author","type":"address","indexed":false,"internalType":"address"}],"anonymous":false},{"type":"event","name":"PostLiked","inputs":[{"name":"postId","type":"uint256","indexed":true,"internalType":"uint256"},{"name":"postAuthor","type":"address","indexed":true,"internalType":"address"},{"name":"liker","type":"address","indexed":true,"internalType":"address"}],"anonymous":false},{"type":"event","name":"Upvoted","inputs":[{"name":"postId","type":"uint256","indexed":false,"internalType":"uint256"},{"name":"voter","type":"address","indexed":false,"internalType":"address"}],"anonymous":false},{"type":"event","name":"UserRegistered","inputs":[{"name":"id","type":"uint256","indexed":true,"internalType":"uint256"},{"name":"userAddress","type":"address","indexed":true,"internalType":"address"},{"name":"name","type":"string","indexed":true,"internalType":"string"}],"anonymous":false},{"type":"error","name":"SocialMedia__AlreadyVoted","inputs":[]},{"type":"error","name":"SocialMedia__NotCommentOwner","inputs":[]},{"type":"error","name":"SocialMedia__NotOwner","inputs":[]},{"type":"error","name":"SocialMedia__NotPostOwner","inputs":[]},{"type":"error","name":"SocialMedia__OwnerCannotVote","inputs":[]},{"type":"error","name":"SocialMedia__UserDoesNotExist","inputs":[]},{"type":"error","name":"SocialMedia__UsernameAlreadyTaken","inputs":[]}],"bytecode":{"object":"0x608060405234801561001057600080fd5b50600380546001600160a01b03191633179055611e1f806100326000396000f3fe608060405234801561001057600080fd5b506004361061012c5760003560e01c806377c846af116100ad578063a6f9dae111610071578063a6f9dae11461026e578063ad81602914610281578063bf0ac63c14610294578063d637dcfa146102a7578063f31fdad4146102ba57600080fd5b806377c846af146102155780637d0b10261461022857806395d2cc92146101ba57806396f11ac81461023b5780639a2194a91461024e57600080fd5b80632b69e24f116100f45780632b69e24f146101a757806333aa01e9146101ba578063392338f5146101c25780636372af84146101d55780636f77926b146101f557600080fd5b8063012cc1e21461013157806301ddf07014610146578063094cd5ee1461015957806312065fe01461016c5780632b3c6e2214610187575b600080fd5b61014461013f3660046116aa565b6102cd565b005b6101446101543660046116aa565b6102f2565b6101446101673660046116aa565b610433565b6101746104c9565b6040519081526020015b60405180910390f35b61019a6101953660046116d8565b6104fc565b60405161017e919061174c565b6101446101b536600461189d565b610642565b61014461074a565b6101446101d03660046118f6565b610777565b6101e86101e33660046116d8565b6108a7565b60405161017e919061195a565b6102086102033660046116d8565b610aa6565b60405161017e919061196d565b6101446102233660046119ea565b610cd8565b6101446102363660046116aa565b610e04565b6101446102493660046116d8565b610e8d565b61026161025c3660046116d8565b610ef1565b60405161017e9190611a27565b61014461027c3660046116d8565b6110c0565b61014461028f366004611add565b61110d565b6101446102a2366004611b1a565b61116c565b6101446102b5366004611b7d565b611215565b6101446102c83660046116aa565b61151c565b60008181526002602052604081206005018054916102ea83611bcc565b919050555050565b60008181526001602052604090206006015481906001600160a01b0316330361032e57604051631902ab3960e01b815260040160405180910390fd5b336000908152600660209081526040808320858452909152902054829060ff161561036c576040516383dcc1c160e01b815260040160405180910390fd5b600083815260016020526040812060040180549161038983611bcc565b90915550503360008181526006602090815260408083208784528252808320805460ff191660019081179091556005805491820181559093527f036b6384b5eca791c62761152d0c79bb0604c104a5fb6f4eb0703f3154bb3db090920180546001600160a01b031916841790558151868152908101929092527f0e092509bde1dd304f477e3ec921b6e4e5092738f70dcd204952ffc1ffdaafdf91015b60405180910390a1505050565b60008181526001602052604090206006015481906001600160a01b0316331461046f57604051639ef3fcef60e01b815260040160405180910390fd5b60008281526001602081905260408220828155919061049090830182611654565b61049e600283016000611654565b5060006003820181905560048201819055600582015560060180546001600160a01b03191690555050565b6003546000906001600160a01b031633146104f75760405163aadd925760e01b815260040160405180910390fd5b504790565b6001600160a01b0381166000908152600960209081526040808320805482518185028101850190935280835260609492939192909184015b828210156106375760008481526020908190206040805160c081018252600686029092018054835260018101546001600160a01b03169383019390935260028301549082015260038201805491929160608401919061059290611bf3565b80601f01602080910402602001604051908101604052809291908181526020018280546105be90611bf3565b801561060b5780601f106105e05761010080835404028352916020019161060b565b820191906000526020600020905b8154815290600101906020018083116105ee57829003601f168201915b505050505081526020016004820154815260200160058201548152505081526020019060010190610534565b505050509050919050565b6040805160c081018252600180825233602080840191825283850187815260608501878152426080870152600060a087018190526001600160a01b038b81168252600885528882208b83528552978120805480880182559082529390208651600690940201928355925182850180546001600160a01b031916919097161790955593516002850155519092829160038201906106de9082611c7e565b506080820151816004015560a082015181600501555050336001600160a01b0316856001600160a01b0316837f3c9238b160bb5c53a432171c8d2eb7ed9ad9fdb80ecb6ebb4fd6b52787077db98760405161073b91815260200190565b60405180910390a45050505050565b6003546001600160a01b031633146107755760405163aadd925760e01b815260040160405180910390fd5b565b33600081815260076020908152604080832054815160e0810183528181529283018790529082018590524260608301526080820183905260a0820183905260c08201849052929091906107c9906108a7565b90507f3d4335cbfac350aa27a3fa09060b4691656ecbe3033f4d953849c2f755f230d183826040516107fc929190611d3e565b60405180910390a13360009081526007602081815260408320805460018181018355918552938290208651949093029092019283558401518492918201906108449082611c7e565b50604082015160028201906108599082611c7e565b50606082015160038201556080820151600482015560a0820151600582015560c090910151600690910180546001600160a01b0319166001600160a01b039092169190911790555050505050565b6001600160a01b03808216600090815260208181526040808320815160a081018352815481526001820154909516928501929092526002820180546060959392840191906108f490611bf3565b80601f016020809104026020016040519081016040528092919081815260200182805461092090611bf3565b801561096d5780601f106109425761010080835404028352916020019161096d565b820191906000526020600020905b81548152906001019060200180831161095057829003601f168201915b5050505050815260200160038201805461098690611bf3565b80601f01602080910402602001604051908101604052809291908181526020018280546109b290611bf3565b80156109ff5780601f106109d4576101008083540402835291602001916109ff565b820191906000526020600020905b8154815290600101906020018083116109e257829003601f168201915b50505050508152602001600482018054610a1890611bf3565b80601f0160208091040260200160405190810160405280929190818152602001828054610a4490611bf3565b8015610a915780601f10610a6657610100808354040283529160200191610a91565b820191906000526020600020905b815481529060010190602001808311610a7457829003601f168201915b50505091909252505050604001519392505050565b610ae16040518060a001604052806000815260200160006001600160a01b031681526020016060815260200160608152602001606081525090565b6001600160a01b0380831660009081526020818152604091829020825160a081018452815481526001820154909416918401919091526002810180549192840191610b2b90611bf3565b80601f0160208091040260200160405190810160405280929190818152602001828054610b5790611bf3565b8015610ba45780601f10610b7957610100808354040283529160200191610ba4565b820191906000526020600020905b815481529060010190602001808311610b8757829003601f168201915b50505050508152602001600382018054610bbd90611bf3565b80601f0160208091040260200160405190810160405280929190818152602001828054610be990611bf3565b8015610c365780601f10610c0b57610100808354040283529160200191610c36565b820191906000526020600020905b815481529060010190602001808311610c1957829003601f168201915b50505050508152602001600482018054610c4f90611bf3565b80601f0160208091040260200160405190810160405280929190818152602001828054610c7b90611bf3565b8015610cc85780601f10610c9d57610100808354040283529160200191610cc8565b820191906000526020600020905b815481529060010190602001808311610cab57829003601f168201915b5050505050815250509050919050565b336000818152602081905260409020600101546001600160a01b0316610d115760405163995cae5960e01b815260040160405180910390fd5b8160006001600160a01b0316600482604051610d2d9190611d57565b908152604051908190036020019020546001600160a01b031614610d645760405163cd9c3c2960e01b815260040160405180910390fd5b33600090815260208190526040908190209051600491610d8991600290910190611d73565b90815260405190819003602001812080546001600160a01b03191690553390600490610db6908690611d57565b908152604080516020928190038301902080546001600160a01b0319166001600160a01b0394909416939093179092553360009081529081905220600201610dfe8482611c7e565b50505050565b60008181526002602052604090206001015481906001600160a01b03163314610e4057604051632585a1bd60e01b815260040160405180910390fd5b600082815260026020819052604082208281556001810180546001600160a01b031916905590810182905590610e796003830182611654565b506000600482018190556005909101555050565b6003546001600160a01b03163314610eb85760405163aadd925760e01b815260040160405180910390fd5b6040516001600160a01b038216904780156108fc02916000818181858888f19350505050158015610eed573d6000803e3d6000fd5b5050565b6001600160a01b0381166000908152600760209081526040808320805482518185028101850190935280835260609492939192909184015b8282101561063757838290600052602060002090600702016040518060e001604052908160008201548152602001600182018054610f6690611bf3565b80601f0160208091040260200160405190810160405280929190818152602001828054610f9290611bf3565b8015610fdf5780601f10610fb457610100808354040283529160200191610fdf565b820191906000526020600020905b815481529060010190602001808311610fc257829003601f168201915b50505050508152602001600282018054610ff890611bf3565b80601f016020809104026020016040519081016040528092919081815260200182805461102490611bf3565b80156110715780601f1061104657610100808354040283529160200191611071565b820191906000526020600020905b81548152906001019060200180831161105457829003601f168201915b5050509183525050600382015460208083019190915260048301546040830152600583015460608301526006909201546001600160a01b03166080909101529082526001929092019101610f29565b6003546001600160a01b031633146110eb5760405163aadd925760e01b815260040160405180910390fd5b600380546001600160a01b0319166001600160a01b0392909216919091179055565b60008281526002602052604090206001015482906001600160a01b0316331461114957604051632585a1bd60e01b815260040160405180910390fd5b6000838152600260205260409020600381016111658482611c7e565b5050505050565b60008381526001602052604090206006015483906001600160a01b031633146111a857604051639ef3fcef60e01b815260040160405180910390fd5b60008481526001602081905260409091209081016111c68582611c7e565b50600281016111d58482611c7e565b50604080518681523360208201527fd5679d37e479e17c0313cd3c71d487b7d68788e2ae2814616410ea1a1334e2b1910160405180910390a15050505050565b8260006001600160a01b03166004826040516112319190611d57565b908152604051908190036020019020546001600160a01b0316146112685760405163cd9c3c2960e01b815260040160405180910390fd5b600a80546000918261127983611bcc565b9091555033600090815260208181526040808320815160a0810183528154815260018201546001600160a01b031693810193909352600281018054959650939492939092918401916112ca90611bf3565b80601f01602080910402602001604051908101604052809291908181526020018280546112f690611bf3565b80156113435780601f1061131857610100808354040283529160200191611343565b820191906000526020600020905b81548152906001019060200180831161132657829003601f168201915b5050505050815260200160038201805461135c90611bf3565b80601f016020809104026020016040519081016040528092919081815260200182805461138890611bf3565b80156113d55780601f106113aa576101008083540402835291602001916113d5565b820191906000526020600020905b8154815290600101906020018083116113b857829003601f168201915b505050505081526020016004820180546113ee90611bf3565b80601f016020809104026020016040519081016040528092919081815260200182805461141a90611bf3565b80156114675780601f1061143c57610100808354040283529160200191611467565b820191906000526020600020905b81548152906001019060200180831161144a57829003601f168201915b5050509190925250505082815233602082018190526040808301899052606083018890526080830187905251919250906004906114a5908990611d57565b90815260405190819003602001812080546001600160a01b03939093166001600160a01b0319909316929092179091556114e0908790611d57565b60405190819003812090339084907f8d76d60617424d83544323e2322cb8d86537451c9b3d991886ce6f4721e3865e90600090a4505050505050565b60008181526001602052604090206006015481906001600160a01b0316330361155857604051631902ab3960e01b815260040160405180910390fd5b336000908152600660209081526040808320858452909152902054829060ff1615611596576040516383dcc1c160e01b815260040160405180910390fd5b60008381526001602052604081206005018054916115b383611bcc565b90915550503360008181526006602090815260408083208784528252808320805460ff191660019081179091556005805491820181559093527f036b6384b5eca791c62761152d0c79bb0604c104a5fb6f4eb0703f3154bb3db090920180546001600160a01b031916841790558151868152908101929092527fd1a80ff7224556d1f75ebb4aabff86e4c1b70cfedfc1c3e67eac663bc85b00279101610426565b50805461166090611bf3565b6000825580601f10611670575050565b601f01602090049060005260206000209081019061168e9190611691565b50565b5b808211156116a65760008155600101611692565b5090565b6000602082840312156116bc57600080fd5b5035919050565b6001600160a01b038116811461168e57600080fd5b6000602082840312156116ea57600080fd5b81356116f5816116c3565b9392505050565b60005b838110156117175781810151838201526020016116ff565b50506000910152565b600081518084526117388160208601602086016116fc565b601f01601f19169290920160200192915050565b600060208083018184528085518083526040925060408601915060408160051b87010184880160005b838110156117ec57888303603f19018552815180518452878101516001600160a01b031688850152868101518785015260608082015160c082870181905291906117c183880182611720565b6080858101519089015260a09485015194909701939093525050509386019390860190600101611775565b509098975050505050505050565b634e487b7160e01b600052604160045260246000fd5b600082601f83011261182157600080fd5b813567ffffffffffffffff8082111561183c5761183c6117fa565b604051601f8301601f19908116603f01168101908282118183101715611864576118646117fa565b8160405283815286602085880101111561187d57600080fd5b836020870160208301376000602085830101528094505050505092915050565b6000806000606084860312156118b257600080fd5b83356118bd816116c3565b925060208401359150604084013567ffffffffffffffff8111156118e057600080fd5b6118ec86828701611810565b9150509250925092565b6000806040838503121561190957600080fd5b823567ffffffffffffffff8082111561192157600080fd5b61192d86838701611810565b9350602085013591508082111561194357600080fd5b5061195085828601611810565b9150509250929050565b6020815260006116f56020830184611720565b602081528151602082015260018060a01b0360208301511660408201526000604083015160a060608401526119a560c0840182611720565b90506060840151601f19808584030160808601526119c38383611720565b925060808601519150808584030160a0860152506119e18282611720565b95945050505050565b6000602082840312156119fc57600080fd5b813567ffffffffffffffff811115611a1357600080fd5b611a1f84828501611810565b949350505050565b600060208083018184528085518083526040925060408601915060408160051b87010184880160005b838110156117ec57603f19898403018552815160e08151855288820151818a870152611a7e82870182611720565b9150508782015185820389870152611a968282611720565b606084810151908801526080808501519088015260a0808501519088015260c0938401516001600160a01b0316939096019290925250509386019390860190600101611a50565b60008060408385031215611af057600080fd5b82359150602083013567ffffffffffffffff811115611b0e57600080fd5b61195085828601611810565b600080600060608486031215611b2f57600080fd5b83359250602084013567ffffffffffffffff80821115611b4e57600080fd5b611b5a87838801611810565b93506040860135915080821115611b7057600080fd5b506118ec86828701611810565b600080600060608486031215611b9257600080fd5b833567ffffffffffffffff80821115611baa57600080fd5b611bb687838801611810565b94506020860135915080821115611b4e57600080fd5b600060018201611bec57634e487b7160e01b600052601160045260246000fd5b5060010190565b600181811c90821680611c0757607f821691505b602082108103611c2757634e487b7160e01b600052602260045260246000fd5b50919050565b601f821115611c79576000816000526020600020601f850160051c81016020861015611c565750805b601f850160051c820191505b81811015611c7557828155600101611c62565b5050505b505050565b815167ffffffffffffffff811115611c9857611c986117fa565b611cac81611ca68454611bf3565b84611c2d565b602080601f831160018114611ce15760008415611cc95750858301515b600019600386901b1c1916600185901b178555611c75565b600085815260208120601f198616915b82811015611d1057888601518255948401946001909101908401611cf1565b5085821015611d2e5787850151600019600388901b60f8161c191681555b5050505050600190811b01905550565b828152604060208201526000611a1f6040830184611720565b60008251611d698184602087016116fc565b9190910192915050565b6000808354611d8181611bf3565b60018281168015611d995760018114611dae57611ddd565b60ff1984168752821515830287019450611ddd565b8760005260208060002060005b85811015611dd45781548a820152908401908201611dbb565b50505082870194505b5092969550505050505056fea26469706673582212201ce85a8f2f50f1537d8aec684aa8733597aefebf8c727c0aa93cda837e0f070b64736f6c63430008180033","linkReferences":{}},"methodIdentifiers":{"changeOwner(address)":"a6f9dae1","changeUsername(string)":"77c846af","createComment(address,uint256,string)":"2b69e24f","createPost(string,string)":"392338f5","deleteComment(uint256)":"7d0b1026","deletePost(uint256)":"094cd5ee","downvote(uint256)":"f31fdad4","editComment(uint256,string)":"ad816029","editPost(uint256,string,string)":"bf0ac63c","getBalance()":"12065fe0","getUser(address)":"6f77926b","getUserComments(address)":"2b3c6e22","getUserNameFromAddress(address)":"6372af84","getUserPosts(address)":"9a2194a9","likeComment(uint256)":"012cc1e2","registerUser(string,string,string)":"d637dcfa","startDapp()":"95d2cc92","stopDapp()":"33aa01e9","transferContractBalance(address)":"96f11ac8","upvote(uint256)":"01ddf070"},"id":0}