{"abi":[{"type":"constructor","inputs":[{"name":"priceFeed","type":"address","internalType":"address"}],"stateMutability":"nonpayable"},{"type":"receive","stateMutability":"payable"},{"type":"function","name":"changeOwner","inputs":[{"name":"_newOwner","type":"address","internalType":"address"}],"outputs":[],"stateMutability":"nonpayable"},{"type":"function","name":"changeUsername","inputs":[{"name":"_newName","type":"string","internalType":"string"}],"outputs":[],"stateMutability":"nonpayable"},{"type":"function","name":"createComment","inputs":[{"name":"_postAuthor","type":"address","internalType":"address"},{"name":"_postId","type":"uint256","internalType":"uint256"},{"name":"_content","type":"string","internalType":"string"}],"outputs":[],"stateMutability":"nonpayable"},{"type":"function","name":"createPost","inputs":[{"name":"_content","type":"string","internalType":"string"},{"name":"_imgHash","type":"string","internalType":"string"}],"outputs":[],"stateMutability":"nonpayable"},{"type":"function","name":"deleteComment","inputs":[{"name":"_commentId","type":"uint256","internalType":"uint256"}],"outputs":[],"stateMutability":"nonpayable"},{"type":"function","name":"deletePost","inputs":[{"name":"_postId","type":"uint256","internalType":"uint256"}],"outputs":[],"stateMutability":"payable"},{"type":"function","name":"downvote","inputs":[{"name":"_postId","type":"uint256","internalType":"uint256"}],"outputs":[],"stateMutability":"nonpayable"},{"type":"function","name":"editComment","inputs":[{"name":"_commentId","type":"uint256","internalType":"uint256"},{"name":"_content","type":"string","internalType":"string"}],"outputs":[],"stateMutability":"nonpayable"},{"type":"function","name":"editPost","inputs":[{"name":"_postId","type":"uint256","internalType":"uint256"},{"name":"_content","type":"string","internalType":"string"},{"name":"_imgHash","type":"string","internalType":"string"}],"outputs":[],"stateMutability":"payable"},{"type":"function","name":"getBalance","inputs":[],"outputs":[{"name":"","type":"uint256","internalType":"uint256"}],"stateMutability":"view"},{"type":"function","name":"getContractOwner","inputs":[],"outputs":[{"name":"","type":"address","internalType":"address"}],"stateMutability":"view"},{"type":"function","name":"getPostById","inputs":[{"name":"_postId","type":"uint256","internalType":"uint256"}],"outputs":[{"name":"","type":"tuple","internalType":"struct SocialMedia.Post","components":[{"name":"postId","type":"uint256","internalType":"uint256"},{"name":"content","type":"string","internalType":"string"},{"name":"imgHash","type":"string","internalType":"string"},{"name":"timestamp","type":"uint256","internalType":"uint256"},{"name":"upvotes","type":"uint256","internalType":"uint256"},{"name":"downvotes","type":"uint256","internalType":"uint256"},{"name":"author","type":"address","internalType":"address"}]}],"stateMutability":"view"},{"type":"function","name":"getUser","inputs":[{"name":"_userAddress","type":"address","internalType":"address"}],"outputs":[{"name":"","type":"tuple","internalType":"struct SocialMedia.User","components":[{"name":"id","type":"uint256","internalType":"uint256"},{"name":"userAddress","type":"address","internalType":"address"},{"name":"name","type":"string","internalType":"string"},{"name":"bio","type":"string","internalType":"string"},{"name":"profileImageHash","type":"string","internalType":"string"}]}],"stateMutability":"view"},{"type":"function","name":"getUserById","inputs":[{"name":"_userId","type":"uint256","internalType":"uint256"}],"outputs":[{"name":"","type":"tuple","internalType":"struct SocialMedia.User","components":[{"name":"id","type":"uint256","internalType":"uint256"},{"name":"userAddress","type":"address","internalType":"address"},{"name":"name","type":"string","internalType":"string"},{"name":"bio","type":"string","internalType":"string"},{"name":"profileImageHash","type":"string","internalType":"string"}]}],"stateMutability":"view"},{"type":"function","name":"getUserComments","inputs":[{"name":"_userAddress","type":"address","internalType":"address"}],"outputs":[{"name":"","type":"tuple[]","internalType":"struct SocialMedia.Comment[]","components":[{"name":"commentId","type":"uint256","internalType":"uint256"},{"name":"author","type":"address","internalType":"address"},{"name":"postId","type":"uint256","internalType":"uint256"},{"name":"content","type":"string","internalType":"string"},{"name":"timestamp","type":"uint256","internalType":"uint256"},{"name":"likesCount","type":"uint256","internalType":"uint256"}]}],"stateMutability":"view"},{"type":"function","name":"getUserNameFromAddress","inputs":[{"name":"_userAddress","type":"address","internalType":"address"}],"outputs":[{"name":"nameOfUser","type":"string","internalType":"string"}],"stateMutability":"view"},{"type":"function","name":"getUserPosts","inputs":[{"name":"_userAddress","type":"address","internalType":"address"}],"outputs":[{"name":"","type":"tuple[]","internalType":"struct SocialMedia.Post[]","components":[{"name":"postId","type":"uint256","internalType":"uint256"},{"name":"content","type":"string","internalType":"string"},{"name":"imgHash","type":"string","internalType":"string"},{"name":"timestamp","type":"uint256","internalType":"uint256"},{"name":"upvotes","type":"uint256","internalType":"uint256"},{"name":"downvotes","type":"uint256","internalType":"uint256"},{"name":"author","type":"address","internalType":"address"}]}],"stateMutability":"view"},{"type":"function","name":"likeComment","inputs":[{"name":"_commentId","type":"uint256","internalType":"uint256"}],"outputs":[],"stateMutability":"nonpayable"},{"type":"function","name":"registerUser","inputs":[{"name":"_name","type":"string","internalType":"string"},{"name":"_bio","type":"string","internalType":"string"},{"name":"_profileImageHash","type":"string","internalType":"string"}],"outputs":[],"stateMutability":"nonpayable"},{"type":"function","name":"startDapp","inputs":[],"outputs":[],"stateMutability":"nonpayable"},{"type":"function","name":"stopDapp","inputs":[],"outputs":[],"stateMutability":"nonpayable"},{"type":"function","name":"transferContractBalance","inputs":[{"name":"_to","type":"address","internalType":"address payable"}],"outputs":[],"stateMutability":"nonpayable"},{"type":"function","name":"upvote","inputs":[{"name":"_postId","type":"uint256","internalType":"uint256"}],"outputs":[],"stateMutability":"nonpayable"},{"type":"event","name":"CommentCreated","inputs":[{"name":"commentId","type":"uint256","indexed":true,"internalType":"uint256"},{"name":"postAuthor","type":"address","indexed":true,"internalType":"address"},{"name":"commentAuthor","type":"address","indexed":true,"internalType":"address"},{"name":"postId","type":"uint256","indexed":false,"internalType":"uint256"}],"anonymous":false},{"type":"event","name":"Downvoted","inputs":[{"name":"postId","type":"uint256","indexed":false,"internalType":"uint256"},{"name":"voter","type":"address","indexed":false,"internalType":"address"}],"anonymous":false},{"type":"event","name":"PostCreated","inputs":[{"name":"postId","type":"uint256","indexed":false,"internalType":"uint256"},{"name":"authorName","type":"string","indexed":false,"internalType":"string"}],"anonymous":false},{"type":"event","name":"PostEdited","inputs":[{"name":"postId","type":"uint256","indexed":false,"internalType":"uint256"},{"name":"authorName","type":"string","indexed":false,"internalType":"string"}],"anonymous":false},{"type":"event","name":"PostLiked","inputs":[{"name":"postId","type":"uint256","indexed":true,"internalType":"uint256"},{"name":"postAuthor","type":"address","indexed":true,"internalType":"address"},{"name":"liker","type":"address","indexed":true,"internalType":"address"}],"anonymous":false},{"type":"event","name":"Upvoted","inputs":[{"name":"postId","type":"uint256","indexed":false,"internalType":"uint256"},{"name":"voter","type":"address","indexed":false,"internalType":"address"}],"anonymous":false},{"type":"event","name":"UserRegistered","inputs":[{"name":"id","type":"uint256","indexed":true,"internalType":"uint256"},{"name":"userAddress","type":"address","indexed":true,"internalType":"address"},{"name":"name","type":"string","indexed":true,"internalType":"string"}],"anonymous":false},{"type":"error","name":"SocialMedia__AlreadyVoted","inputs":[]},{"type":"error","name":"SocialMedia__NotCommentOwner","inputs":[]},{"type":"error","name":"SocialMedia__NotOwner","inputs":[]},{"type":"error","name":"SocialMedia__NotPostOwner","inputs":[]},{"type":"error","name":"SocialMedia__OwnerCannotVote","inputs":[]},{"type":"error","name":"SocialMedia__PaymentNotEnough","inputs":[]},{"type":"error","name":"SocialMedia__UserDoesNotExist","inputs":[]},{"type":"error","name":"SocialMedia__UsernameAlreadyTaken","inputs":[]}],"bytecode":{"object":"0x608060405234801561001057600080fd5b506040516200252b3803806200252b83398101604081905261003191610064565b60068054336001600160a01b031991821617909155600080549091166001600160a01b0392909216919091179055610094565b60006020828403121561007657600080fd5b81516001600160a01b038116811461008d57600080fd5b9392505050565b61248780620000a46000396000f3fe6080604052600436106101445760003560e01c80636ed6da9e116100b65780639a2194a91161006f5780639a2194a91461037e578063a6f9dae1146103ab578063ad816029146103cb578063bf0ac63c146103eb578063d637dcfa146103fe578063f31fdad41461041e57600080fd5b80636ed6da9e146102d15780636f77926b146102fe57806377c846af1461031e5780637d0b10261461033e57806395d2cc921461021a57806396f11ac81461035e57600080fd5b80632b69e24f116101085780632b69e24f146101fa57806333aa01e91461021a578063392338f51461022f578063442890d51461024f5780636372af841461027757806364e95895146102a457600080fd5b8063012cc1e21461015057806301ddf07014610172578063094cd5ee1461019257806312065fe0146101a55780632b3c6e22146101cd57600080fd5b3661014b57005b600080fd5b34801561015c57600080fd5b5061017061016b366004611c63565b61043e565b005b34801561017e57600080fd5b5061017061018d366004611c63565b610463565b6101706101a0366004611c63565b6105a4565b3480156101b157600080fd5b506101ba6106ab565b6040519081526020015b60405180910390f35b3480156101d957600080fd5b506101ed6101e8366004611c91565b6106de565b6040516101c49190611cfe565b34801561020657600080fd5b50610170610215366004611e4f565b610824565b34801561022657600080fd5b5061017061092c565b34801561023b57600080fd5b5061017061024a366004611ea8565b610959565b34801561025b57600080fd5b506006546040516001600160a01b0390911681526020016101c4565b34801561028357600080fd5b50610297610292366004611c91565b610bb1565b6040516101c49190611f0c565b3480156102b057600080fd5b506102c46102bf366004611c63565b610db0565b6040516101c49190611f94565b3480156102dd57600080fd5b506102f16102ec366004611c63565b610f8b565b6040516101c49190611fa7565b34801561030a57600080fd5b506102f1610319366004611c91565b6111b5565b34801561032a57600080fd5b50610170610339366004612024565b611206565b34801561034a57600080fd5b50610170610359366004611c63565b6112de565b34801561036a57600080fd5b50610170610379366004611c91565b611368565b34801561038a57600080fd5b5061039e610399366004611c91565b6113cc565b6040516101c49190612061565b3480156103b757600080fd5b506101706103c6366004611c91565b61159b565b3480156103d757600080fd5b506101706103e63660046120c5565b6115e8565b6101706103f9366004612102565b611642565b34801561040a57600080fd5b50610170610419366004612165565b61176b565b34801561042a57600080fd5b50610170610439366004611c63565b6119e2565b600081815260036020526040812060050180549161045b836121ca565b919050555050565b60008181526002602052604090206006015481906001600160a01b0316330361049f57604051631902ab3960e01b815260040160405180910390fd5b336000908152600960209081526040808320858452909152902054829060ff16156104dd576040516383dcc1c160e01b815260040160405180910390fd5b60008381526002602052604081206004018054916104fa836121ca565b90915550503360008181526009602090815260408083208784528252808320805460ff191660019081179091556008805491820181559093527ff3f7a9fe364faab93b216da50a3214154f22a0a2b415b23a84c8169e8b636ee390920180546001600160a01b031916841790558151868152908101929092527f0e092509bde1dd304f477e3ec921b6e4e5092738f70dcd204952ffc1ffdaafdf91015b60405180910390a1505050565b60008181526005602052604090205481906001600160a01b031633146105dd57604051639ef3fcef60e01b815260040160405180910390fd5b600054674563918244f40000906105fe9034906001600160a01b0316611b1a565b101561061c576040516217124560e91b815260040160405180910390fd5b604051806020016040528060008152506010838154811061063f5761063f6121e3565b9060005260206000209060070201600101908161065c9190612284565b50600060108381548110610672576106726121e3565b906000526020600020906007020160060160006101000a8154816001600160a01b0302191690836001600160a01b031602179055505050565b6006546000906001600160a01b031633146106d95760405163aadd925760e01b815260040160405180910390fd5b504790565b6001600160a01b0381166000908152600c60209081526040808320805482518185028101850190935280835260609492939192909184015b828210156108195760008481526020908190206040805160c081018252600686029092018054835260018101546001600160a01b031693830193909352600283015490820152600382018054919291606084019190610774906121f9565b80601f01602080910402602001604051908101604052809291908181526020018280546107a0906121f9565b80156107ed5780601f106107c2576101008083540402835291602001916107ed565b820191906000526020600020905b8154815290600101906020018083116107d057829003601f168201915b505050505081526020016004820154815260200160058201548152505081526020019060010190610716565b505050509050919050565b6040805160c081018252600180825233602080840191825283850187815260608501878152426080870152600060a087018190526001600160a01b038b81168252600b85528882208b83528552978120805480880182559082529390208651600690940201928355925182850180546001600160a01b031916919097161790955593516002850155519092829160038201906108c09082612284565b506080820151816004015560a082015181600501555050336001600160a01b0316856001600160a01b0316837f3c9238b160bb5c53a432171c8d2eb7ed9ad9fdb80ecb6ebb4fd6b52787077db98760405161091d91815260200190565b60405180910390a45050505050565b6006546001600160a01b031633146109575760405163aadd925760e01b815260040160405180910390fd5b565b33600081815260016020819052604090912001546001600160a01b03166109935760405163995cae5960e01b815260040160405180910390fd5b6010546040805160e0810182528281526020810186905290810184905242606082015260006080820181905260a082018190523360c083018190526109d790610bb1565b336000908152600a60209081526040822080546001818101835591845292829020865160079094020192835590850151929350849290820190610a1a9082612284565b5060408201516002820190610a2f9082612284565b50606082015160038201556080820151600482015560a0820151600582015560c090910151600690910180546001600160a01b0319166001600160a01b039092169190911790556010805460018101825560009190915282517f1b6847dc741a1b0cd08d278845f9d819d87b734759afb55fe2de5cb82a9ae6726007909202918201908155602084015184927f1b6847dc741a1b0cd08d278845f9d819d87b734759afb55fe2de5cb82a9ae6730190610ae89082612284565b5060408201516002820190610afd9082612284565b5060608201516003820155608082015160048083019190915560a083015160058084019190915560c090930151600690920180546001600160a01b039093166001600160a01b03199384161790553360008181526020928352604080822089905588825294909252908390208054909216179055517f3d4335cbfac350aa27a3fa09060b4691656ecbe3033f4d953849c2f755f230d190610ba19085908490612344565b60405180910390a1505050505050565b6001600160a01b038082166000908152600160208181526040808420815160a0810183528154815293810154909516918301919091526002840180546060959284019190610bfe906121f9565b80601f0160208091040260200160405190810160405280929190818152602001828054610c2a906121f9565b8015610c775780601f10610c4c57610100808354040283529160200191610c77565b820191906000526020600020905b815481529060010190602001808311610c5a57829003601f168201915b50505050508152602001600382018054610c90906121f9565b80601f0160208091040260200160405190810160405280929190818152602001828054610cbc906121f9565b8015610d095780601f10610cde57610100808354040283529160200191610d09565b820191906000526020600020905b815481529060010190602001808311610cec57829003601f168201915b50505050508152602001600482018054610d22906121f9565b80601f0160208091040260200160405190810160405280929190818152602001828054610d4e906121f9565b8015610d9b5780601f10610d7057610100808354040283529160200191610d9b565b820191906000526020600020905b815481529060010190602001808311610d7e57829003601f168201915b50505091909252505050604001519392505050565b610df96040518060e0016040528060008152602001606081526020016060815260200160008152602001600081526020016000815260200160006001600160a01b031681525090565b60108281548110610e0c57610e0c6121e3565b90600052602060002090600702016040518060e001604052908160008201548152602001600182018054610e3f906121f9565b80601f0160208091040260200160405190810160405280929190818152602001828054610e6b906121f9565b8015610eb85780601f10610e8d57610100808354040283529160200191610eb8565b820191906000526020600020905b815481529060010190602001808311610e9b57829003601f168201915b50505050508152602001600282018054610ed1906121f9565b80601f0160208091040260200160405190810160405280929190818152602001828054610efd906121f9565b8015610f4a5780601f10610f1f57610100808354040283529160200191610f4a565b820191906000526020600020905b815481529060010190602001808311610f2d57829003601f168201915b50505091835250506003820154602082015260048201546040820152600582015460608201526006909101546001600160a01b031660809091015292915050565b610f93611bd5565b600f8281548110610fa657610fa66121e3565b90600052602060002090600502016040518060a0016040529081600082015481526020016001820160009054906101000a90046001600160a01b03166001600160a01b03166001600160a01b03168152602001600282018054611008906121f9565b80601f0160208091040260200160405190810160405280929190818152602001828054611034906121f9565b80156110815780601f1061105657610100808354040283529160200191611081565b820191906000526020600020905b81548152906001019060200180831161106457829003601f168201915b5050505050815260200160038201805461109a906121f9565b80601f01602080910402602001604051908101604052809291908181526020018280546110c6906121f9565b80156111135780601f106110e857610100808354040283529160200191611113565b820191906000526020600020905b8154815290600101906020018083116110f657829003601f168201915b5050505050815260200160048201805461112c906121f9565b80601f0160208091040260200160405190810160405280929190818152602001828054611158906121f9565b80156111a55780601f1061117a576101008083540402835291602001916111a5565b820191906000526020600020905b81548152906001019060200180831161118857829003601f168201915b5050505050815250509050919050565b6111bd611bd5565b6001600160a01b03808316600090815260016020818152604092839020835160a081018552815481529281015490941690820152600283018054919392840191611008906121f9565b33600081815260016020819052604090912001546001600160a01b03166112405760405163995cae5960e01b815260040160405180910390fd5b8160006001600160a01b031660078260405161125c919061235d565b908152604051908190036020019020546001600160a01b0316146112935760405163cd9c3c2960e01b815260040160405180910390fd5b336000908152600e6020526040902054600f8054859190839081106112ba576112ba6121e3565b906000526020600020906005020160020190816112d79190612284565b5050505050565b60008181526003602052604090206001015481906001600160a01b0316331461131a57604051632585a1bd60e01b815260040160405180910390fd5b600082815260036020819052604082208281556001810180546001600160a01b031916905560028101839055919061135490830182611c0d565b506000600482018190556005909101555050565b6006546001600160a01b031633146113935760405163aadd925760e01b815260040160405180910390fd5b6040516001600160a01b038216904780156108fc02916000818181858888f193505050501580156113c8573d6000803e3d6000fd5b5050565b6001600160a01b0381166000908152600a60209081526040808320805482518185028101850190935280835260609492939192909184015b8282101561081957838290600052602060002090600702016040518060e001604052908160008201548152602001600182018054611441906121f9565b80601f016020809104026020016040519081016040528092919081815260200182805461146d906121f9565b80156114ba5780601f1061148f576101008083540402835291602001916114ba565b820191906000526020600020905b81548152906001019060200180831161149d57829003601f168201915b505050505081526020016002820180546114d3906121f9565b80601f01602080910402602001604051908101604052809291908181526020018280546114ff906121f9565b801561154c5780601f106115215761010080835404028352916020019161154c565b820191906000526020600020905b81548152906001019060200180831161152f57829003601f168201915b5050509183525050600382015460208083019190915260048301546040830152600583015460608301526006909201546001600160a01b03166080909101529082526001929092019101611404565b6006546001600160a01b031633146115c65760405163aadd925760e01b815260040160405180910390fd5b600680546001600160a01b0319166001600160a01b0392909216919091179055565b60008281526003602052604090206001015482906001600160a01b0316331461162457604051632585a1bd60e01b815260040160405180910390fd5b60008381526003602081905260409091209081016112d78482612284565b60008381526005602052604090205483906001600160a01b0316331461167b57604051639ef3fcef60e01b815260040160405180910390fd5b600054674563918244f400009061169c9034906001600160a01b0316611b1a565b10156116ba576040516217124560e91b815260040160405180910390fd5b82601085815481106116ce576116ce6121e3565b906000526020600020906007020160010190816116eb9190612284565b508160108581548110611700576117006121e3565b9060005260206000209060070201600201908161171d9190612284565b50600061172933610bb1565b90507f7009e6824c3ecb1321da2ebabc18901b48d900a97f978c5a93dd3ba8cfe59035858260405161175c929190612344565b60405180910390a15050505050565b8260006001600160a01b0316600782604051611787919061235d565b908152604051908190036020019020546001600160a01b0316146117be5760405163cd9c3c2960e01b815260040160405180910390fd5b600d8054600091826117cf836121ca565b9190505590506117dd611bd5565b81815233602080830182815260408085018a8152606086018a9052608086018990526000948552600193849052932084518155905191810180546001600160a01b0319166001600160a01b0390931692909217909155905182919060028201906118479082612284565b506060820151600382019061185c9082612284565b50608082015160048201906118719082612284565b5050336000818152600e6020526040908190208590555190915060079061189990899061235d565b908152604080516020928190038301902080546001600160a01b03199081166001600160a01b0395861617909155600f805460018101825560009190915285517f8d1108e10bcb7c27dddfc02ed9d693a074039d026cf4ea4240b40f7d581ac8026005909202918201908155938601517f8d1108e10bcb7c27dddfc02ed9d693a074039d026cf4ea4240b40f7d581ac80382018054909316951694909417905583015183927f8d1108e10bcb7c27dddfc02ed9d693a074039d026cf4ea4240b40f7d581ac804019061196b9082612284565b50606082015160038201906119809082612284565b50608082015160048201906119959082612284565b505050856040516119a6919061235d565b60405190819003812090339084907f8d76d60617424d83544323e2322cb8d86537451c9b3d991886ce6f4721e3865e90600090a4505050505050565b60008181526002602052604090206006015481906001600160a01b03163303611a1e57604051631902ab3960e01b815260040160405180910390fd5b336000908152600960209081526040808320858452909152902054829060ff1615611a5c576040516383dcc1c160e01b815260040160405180910390fd5b6000838152600260205260408120600501805491611a79836121ca565b90915550503360008181526009602090815260408083208784528252808320805460ff191660019081179091556008805491820181559093527ff3f7a9fe364faab93b216da50a3214154f22a0a2b415b23a84c8169e8b636ee390920180546001600160a01b031916841790558151868152908101929092527fd1a80ff7224556d1f75ebb4aabff86e4c1b70cfedfc1c3e67eac663bc85b00279101610597565b600080611b2683611b52565b90506000670de0b6b3a7640000611b3d8387612379565b611b479190612390565b925050505b92915050565b600080826001600160a01b031663feaf968c6040518163ffffffff1660e01b815260040160a060405180830381865afa158015611b93573d6000803e3d6000fd5b505050506040513d601f19601f82011682018060405250810190611bb791906123d1565b505050915050806402540be400611bce9190612421565b9392505050565b6040518060a001604052806000815260200160006001600160a01b031681526020016060815260200160608152602001606081525090565b508054611c19906121f9565b6000825580601f10611c29575050565b601f016020900490600052602060002090810190611c479190611c4a565b50565b5b80821115611c5f5760008155600101611c4b565b5090565b600060208284031215611c7557600080fd5b5035919050565b6001600160a01b0381168114611c4757600080fd5b600060208284031215611ca357600080fd5b8135611bce81611c7c565b60005b83811015611cc9578181015183820152602001611cb1565b50506000910152565b60008151808452611cea816020860160208601611cae565b601f01601f19169290920160200192915050565b600060208083018184528085518083526040925060408601915060408160051b87010184880160005b83811015611d9e57888303603f19018552815180518452878101516001600160a01b031688850152868101518785015260608082015160c08287018190529190611d7383880182611cd2565b6080858101519089015260a09485015194909701939093525050509386019390860190600101611d27565b509098975050505050505050565b634e487b7160e01b600052604160045260246000fd5b600082601f830112611dd357600080fd5b813567ffffffffffffffff80821115611dee57611dee611dac565b604051601f8301601f19908116603f01168101908282118183101715611e1657611e16611dac565b81604052838152866020858801011115611e2f57600080fd5b836020870160208301376000602085830101528094505050505092915050565b600080600060608486031215611e6457600080fd5b8335611e6f81611c7c565b925060208401359150604084013567ffffffffffffffff811115611e9257600080fd5b611e9e86828701611dc2565b9150509250925092565b60008060408385031215611ebb57600080fd5b823567ffffffffffffffff80821115611ed357600080fd5b611edf86838701611dc2565b93506020850135915080821115611ef557600080fd5b50611f0285828601611dc2565b9150509250929050565b602081526000611bce6020830184611cd2565b805182526000602082015160e06020850152611f3e60e0850182611cd2565b905060408301518482036040860152611f578282611cd2565b606085810151908701526080808601519087015260a0808601519087015260c0948501516001600160a01b03169490950193909352509192915050565b602081526000611bce6020830184611f1f565b602081528151602082015260018060a01b0360208301511660408201526000604083015160a06060840152611fdf60c0840182611cd2565b90506060840151601f1980858403016080860152611ffd8383611cd2565b925060808601519150808584030160a08601525061201b8282611cd2565b95945050505050565b60006020828403121561203657600080fd5b813567ffffffffffffffff81111561204d57600080fd5b61205984828501611dc2565b949350505050565b600060208083016020845280855180835260408601915060408160051b87010192506020870160005b828110156120b857603f198886030184526120a6858351611f1f565b9450928501929085019060010161208a565b5092979650505050505050565b600080604083850312156120d857600080fd5b82359150602083013567ffffffffffffffff8111156120f657600080fd5b611f0285828601611dc2565b60008060006060848603121561211757600080fd5b83359250602084013567ffffffffffffffff8082111561213657600080fd5b61214287838801611dc2565b9350604086013591508082111561215857600080fd5b50611e9e86828701611dc2565b60008060006060848603121561217a57600080fd5b833567ffffffffffffffff8082111561219257600080fd5b61219e87838801611dc2565b9450602086013591508082111561213657600080fd5b634e487b7160e01b600052601160045260246000fd5b6000600182016121dc576121dc6121b4565b5060010190565b634e487b7160e01b600052603260045260246000fd5b600181811c9082168061220d57607f821691505b60208210810361222d57634e487b7160e01b600052602260045260246000fd5b50919050565b601f82111561227f576000816000526020600020601f850160051c8101602086101561225c5750805b601f850160051c820191505b8181101561227b57828155600101612268565b5050505b505050565b815167ffffffffffffffff81111561229e5761229e611dac565b6122b2816122ac84546121f9565b84612233565b602080601f8311600181146122e757600084156122cf5750858301515b600019600386901b1c1916600185901b17855561227b565b600085815260208120601f198616915b82811015612316578886015182559484019460019091019084016122f7565b50858210156123345787850151600019600388901b60f8161c191681555b5050505050600190811b01905550565b8281526040602082015260006120596040830184611cd2565b6000825161236f818460208701611cae565b9190910192915050565b8082028115828204841417611b4c57611b4c6121b4565b6000826123ad57634e487b7160e01b600052601260045260246000fd5b500490565b805169ffffffffffffffffffff811681146123cc57600080fd5b919050565b600080600080600060a086880312156123e957600080fd5b6123f2866123b2565b9450602086015193506040860151925060608601519150612415608087016123b2565b90509295509295909350565b80820260008212600160ff1b8414161561243d5761243d6121b4565b8181058314821517611b4c57611b4c6121b456fea264697066735822122023b0522a4f833b1489edba95ffd447ba0ff6c303f52da682697304d3d875203764736f6c63430008180033","linkReferences":{}},"methodIdentifiers":{"changeOwner(address)":"a6f9dae1","changeUsername(string)":"77c846af","createComment(address,uint256,string)":"2b69e24f","createPost(string,string)":"392338f5","deleteComment(uint256)":"7d0b1026","deletePost(uint256)":"094cd5ee","downvote(uint256)":"f31fdad4","editComment(uint256,string)":"ad816029","editPost(uint256,string,string)":"bf0ac63c","getBalance()":"12065fe0","getContractOwner()":"442890d5","getPostById(uint256)":"64e95895","getUser(address)":"6f77926b","getUserById(uint256)":"6ed6da9e","getUserComments(address)":"2b3c6e22","getUserNameFromAddress(address)":"6372af84","getUserPosts(address)":"9a2194a9","likeComment(uint256)":"012cc1e2","registerUser(string,string,string)":"d637dcfa","startDapp()":"95d2cc92","stopDapp()":"33aa01e9","transferContractBalance(address)":"96f11ac8","upvote(uint256)":"01ddf070"},"id":28}