{"abi":[{"type":"constructor","inputs":[{"name":"priceFeed","type":"address","internalType":"address"}],"stateMutability":"nonpayable"},{"type":"receive","stateMutability":"payable"},{"type":"function","name":"changeOwner","inputs":[{"name":"_newOwner","type":"address","internalType":"address"}],"outputs":[],"stateMutability":"nonpayable"},{"type":"function","name":"changeUsername","inputs":[{"name":"_newName","type":"string","internalType":"string"}],"outputs":[],"stateMutability":"nonpayable"},{"type":"function","name":"createComment","inputs":[{"name":"_postId","type":"uint256","internalType":"uint256"},{"name":"_content","type":"string","internalType":"string"}],"outputs":[],"stateMutability":"nonpayable"},{"type":"function","name":"createPost","inputs":[{"name":"_content","type":"string","internalType":"string"},{"name":"_imgHash","type":"string","internalType":"string"}],"outputs":[],"stateMutability":"nonpayable"},{"type":"function","name":"deleteComment","inputs":[{"name":"_postId","type":"uint256","internalType":"uint256"},{"name":"_commentId","type":"uint256","internalType":"uint256"}],"outputs":[],"stateMutability":"payable"},{"type":"function","name":"deletePost","inputs":[{"name":"_postId","type":"uint256","internalType":"uint256"}],"outputs":[],"stateMutability":"payable"},{"type":"function","name":"downvote","inputs":[{"name":"_postId","type":"uint256","internalType":"uint256"}],"outputs":[],"stateMutability":"nonpayable"},{"type":"function","name":"editComment","inputs":[{"name":"_postId","type":"uint256","internalType":"uint256"},{"name":"_commentId","type":"uint256","internalType":"uint256"},{"name":"_content","type":"string","internalType":"string"}],"outputs":[],"stateMutability":"payable"},{"type":"function","name":"editPost","inputs":[{"name":"_postId","type":"uint256","internalType":"uint256"},{"name":"_content","type":"string","internalType":"string"},{"name":"_imgHash","type":"string","internalType":"string"}],"outputs":[],"stateMutability":"payable"},{"type":"function","name":"getBalance","inputs":[],"outputs":[{"name":"","type":"uint256","internalType":"uint256"}],"stateMutability":"view"},{"type":"function","name":"getCommentByPostIdAndCommentId","inputs":[{"name":"_postId","type":"uint256","internalType":"uint256"},{"name":"_commentId","type":"uint256","internalType":"uint256"}],"outputs":[{"name":"","type":"tuple","internalType":"struct SocialMedia.Comment","components":[{"name":"commentId","type":"uint256","internalType":"uint256"},{"name":"author","type":"address","internalType":"address"},{"name":"postId","type":"uint256","internalType":"uint256"},{"name":"content","type":"string","internalType":"string"},{"name":"timestamp","type":"uint256","internalType":"uint256"},{"name":"likesCount","type":"uint256","internalType":"uint256"}]}],"stateMutability":"view"},{"type":"function","name":"getCommentLikersByPostIdAndCommentId","inputs":[{"name":"_postId","type":"uint256","internalType":"uint256"},{"name":"_commentId","type":"uint256","internalType":"uint256"}],"outputs":[{"name":"","type":"address[]","internalType":"address[]"}],"stateMutability":"view"},{"type":"function","name":"getContractOwner","inputs":[],"outputs":[{"name":"","type":"address","internalType":"address"}],"stateMutability":"view"},{"type":"function","name":"getPostById","inputs":[{"name":"_postId","type":"uint256","internalType":"uint256"}],"outputs":[{"name":"","type":"tuple","internalType":"struct SocialMedia.Post","components":[{"name":"postId","type":"uint256","internalType":"uint256"},{"name":"content","type":"string","internalType":"string"},{"name":"imgHash","type":"string","internalType":"string"},{"name":"timestamp","type":"uint256","internalType":"uint256"},{"name":"upvotes","type":"uint256","internalType":"uint256"},{"name":"downvotes","type":"uint256","internalType":"uint256"},{"name":"author","type":"address","internalType":"address"}]}],"stateMutability":"view"},{"type":"function","name":"getUser","inputs":[{"name":"_userAddress","type":"address","internalType":"address"}],"outputs":[{"name":"","type":"tuple","internalType":"struct SocialMedia.User","components":[{"name":"id","type":"uint256","internalType":"uint256"},{"name":"userAddress","type":"address","internalType":"address"},{"name":"name","type":"string","internalType":"string"},{"name":"bio","type":"string","internalType":"string"},{"name":"profileImageHash","type":"string","internalType":"string"}]}],"stateMutability":"view"},{"type":"function","name":"getUserById","inputs":[{"name":"_userId","type":"uint256","internalType":"uint256"}],"outputs":[{"name":"","type":"tuple","internalType":"struct SocialMedia.User","components":[{"name":"id","type":"uint256","internalType":"uint256"},{"name":"userAddress","type":"address","internalType":"address"},{"name":"name","type":"string","internalType":"string"},{"name":"bio","type":"string","internalType":"string"},{"name":"profileImageHash","type":"string","internalType":"string"}]}],"stateMutability":"view"},{"type":"function","name":"getUserComments","inputs":[{"name":"_userAddress","type":"address","internalType":"address"}],"outputs":[{"name":"","type":"tuple[]","internalType":"struct SocialMedia.Comment[]","components":[{"name":"commentId","type":"uint256","internalType":"uint256"},{"name":"author","type":"address","internalType":"address"},{"name":"postId","type":"uint256","internalType":"uint256"},{"name":"content","type":"string","internalType":"string"},{"name":"timestamp","type":"uint256","internalType":"uint256"},{"name":"likesCount","type":"uint256","internalType":"uint256"}]}],"stateMutability":"view"},{"type":"function","name":"getUserNameFromAddress","inputs":[{"name":"_userAddress","type":"address","internalType":"address"}],"outputs":[{"name":"nameOfUser","type":"string","internalType":"string"}],"stateMutability":"view"},{"type":"function","name":"getUserPosts","inputs":[{"name":"_userAddress","type":"address","internalType":"address"}],"outputs":[{"name":"","type":"tuple[]","internalType":"struct SocialMedia.Post[]","components":[{"name":"postId","type":"uint256","internalType":"uint256"},{"name":"content","type":"string","internalType":"string"},{"name":"imgHash","type":"string","internalType":"string"},{"name":"timestamp","type":"uint256","internalType":"uint256"},{"name":"upvotes","type":"uint256","internalType":"uint256"},{"name":"downvotes","type":"uint256","internalType":"uint256"},{"name":"author","type":"address","internalType":"address"}]}],"stateMutability":"view"},{"type":"function","name":"likeComment","inputs":[{"name":"_postId","type":"uint256","internalType":"uint256"},{"name":"_commentId","type":"uint256","internalType":"uint256"}],"outputs":[],"stateMutability":"nonpayable"},{"type":"function","name":"registerUser","inputs":[{"name":"_name","type":"string","internalType":"string"},{"name":"_bio","type":"string","internalType":"string"},{"name":"_profileImageHash","type":"string","internalType":"string"}],"outputs":[],"stateMutability":"nonpayable"},{"type":"function","name":"transferContractBalance","inputs":[{"name":"_to","type":"address","internalType":"address payable"}],"outputs":[],"stateMutability":"nonpayable"},{"type":"function","name":"upvote","inputs":[{"name":"_postId","type":"uint256","internalType":"uint256"}],"outputs":[],"stateMutability":"nonpayable"},{"type":"event","name":"CommentCreated","inputs":[{"name":"commentId","type":"uint256","indexed":true,"internalType":"uint256"},{"name":"postAuthor","type":"string","indexed":false,"internalType":"string"},{"name":"commentAuthor","type":"string","indexed":false,"internalType":"string"},{"name":"postId","type":"uint256","indexed":false,"internalType":"uint256"}],"anonymous":false},{"type":"event","name":"Downvoted","inputs":[{"name":"postId","type":"uint256","indexed":false,"internalType":"uint256"},{"name":"posthAuthorName","type":"string","indexed":false,"internalType":"string"},{"name":"downvoterName","type":"string","indexed":false,"internalType":"string"}],"anonymous":false},{"type":"event","name":"PostCreated","inputs":[{"name":"postId","type":"uint256","indexed":false,"internalType":"uint256"},{"name":"authorName","type":"string","indexed":false,"internalType":"string"}],"anonymous":false},{"type":"event","name":"PostEdited","inputs":[{"name":"postId","type":"uint256","indexed":false,"internalType":"uint256"},{"name":"authorName","type":"string","indexed":false,"internalType":"string"}],"anonymous":false},{"type":"event","name":"PostLiked","inputs":[{"name":"postId","type":"uint256","indexed":true,"internalType":"uint256"},{"name":"postAuthor","type":"address","indexed":true,"internalType":"address"},{"name":"liker","type":"address","indexed":true,"internalType":"address"}],"anonymous":false},{"type":"event","name":"Upvoted","inputs":[{"name":"postId","type":"uint256","indexed":false,"internalType":"uint256"},{"name":"posthAuthorName","type":"string","indexed":false,"internalType":"string"},{"name":"upvoterName","type":"string","indexed":false,"internalType":"string"}],"anonymous":false},{"type":"event","name":"UserRegistered","inputs":[{"name":"id","type":"uint256","indexed":true,"internalType":"uint256"},{"name":"userAddress","type":"address","indexed":true,"internalType":"address"},{"name":"name","type":"string","indexed":true,"internalType":"string"}],"anonymous":false},{"type":"error","name":"SocialMedia__AlreadyVoted","inputs":[]},{"type":"error","name":"SocialMedia__NotCommentOwner","inputs":[]},{"type":"error","name":"SocialMedia__NotOwner","inputs":[]},{"type":"error","name":"SocialMedia__NotPostOwner","inputs":[]},{"type":"error","name":"SocialMedia__OwnerCannotVote","inputs":[]},{"type":"error","name":"SocialMedia__PaymentNotEnough","inputs":[]},{"type":"error","name":"SocialMedia__UserDoesNotExist","inputs":[]},{"type":"error","name":"SocialMedia__UsernameAlreadyTaken","inputs":[]}],"bytecode":{"object":"0x60806040523480156200001157600080fd5b5060405162002ba038038062002ba0833981016040819052620000349162000068565b60118054336001600160a01b031991821617909155600080549091166001600160a01b03929092169190911790556200009a565b6000602082840312156200007b57600080fd5b81516001600160a01b03811681146200009357600080fd5b9392505050565b612af680620000aa6000396000f3fe6080604052600436106101445760003560e01c80636ed6da9e116100b6578063a0e918211161006f578063a0e91821146103c3578063a6f9dae1146103e3578063bf0ac63c14610403578063d637dcfa14610416578063f31fdad414610436578063fa5611521461045657600080fd5b80636ed6da9e146102dc5780636f77926b1461030957806377c846af146103295780638dc4a0661461034957806396f11ac8146103765780639a2194a91461039657600080fd5b8063392338f511610108578063392338f5146101ed57806340a179851461020d5780634296db5b1461022d578063442890d51461025a5780636372af841461028257806364e95895146102af57600080fd5b806301ddf07014610150578063094cd5ee1461017257806312065fe0146101855780632b3c6e22146101ad57806331a4bcb5146101da57600080fd5b3661014b57005b600080fd5b34801561015c57600080fd5b5061017061016b3660046121e1565b610469565b005b6101706101803660046121e1565b61064c565b34801561019157600080fd5b5061019a610753565b6040519081526020015b60405180910390f35b3480156101b957600080fd5b506101cd6101c8366004612212565b610786565b6040516101a491906122da565b6101706101e836600461233e565b6108cc565b3480156101f957600080fd5b50610170610208366004612403565b6109f8565b34801561021957600080fd5b50610170610228366004612467565b610c3f565b34801561023957600080fd5b5061024d61024836600461233e565b610dbe565b6040516101a491906124a4565b34801561026657600080fd5b506011546040516001600160a01b0390911681526020016101a4565b34801561028e57600080fd5b506102a261029d366004612212565b610f2b565b6040516101a491906124b7565b3480156102bb57600080fd5b506102cf6102ca3660046121e1565b61112a565b6040516101a4919061253f565b3480156102e857600080fd5b506102fc6102f73660046121e1565b611305565b6040516101a49190612552565b34801561031557600080fd5b506102fc610324366004612212565b61152f565b34801561033557600080fd5b506101706103443660046125c6565b611582565b34801561035557600080fd5b5061036961036436600461233e565b611659565b6040516101a49190612603565b34801561038257600080fd5b50610170610391366004612212565b6116ce565b3480156103a257600080fd5b506103b66103b1366004612212565b611732565b6040516101a49190612650565b3480156103cf57600080fd5b506101706103de36600461233e565b611901565b3480156103ef57600080fd5b506101706103fe366004612212565b6119e2565b6101706104113660046126a7565b611a2f565b34801561042257600080fd5b50610170610431366004612714565b611b58565b34801561044257600080fd5b506101706104513660046121e1565b611dcc565b610170610464366004612763565b611f97565b60008181526008602052604090205481906001600160a01b031633036104a257604051631902ab3960e01b815260040160405180910390fd5b336000908152600a60209081526040808320858452909152902054829060ff16156104e0576040516383dcc1c160e01b815260040160405180910390fd5b600583815481106104f3576104f36127a9565b600091825260208220600460079092020101805491610511836127d5565b9091555050336000908152600a602090815260408083208684528252808320805460ff1916600117905560089091528120546001600160a01b03169061055682610f2b565b9050600061056333610f2b565b60008781526014602052604090205490915060ff166106095761058586612064565b15610609576001600160a01b03831660008181526013602090815260408083208054600160ff1991821681179092558b85526014909352908320805490921681179091556012805491820181559091527fbb8a6a4669ba250d26cd7a459eca9d215f8307e33aebe50379bc5a3617ec34440180546001600160a01b03191690911790555b7fa036d403d7739d8360e6171b2fbf68a0dfef33d6c6f432a236f6c3cdbb3cfee686838360405161063c939291906127ee565b60405180910390a1505050505050565b60008181526008602052604090205481906001600160a01b0316331461068557604051639ef3fcef60e01b815260040160405180910390fd5b600054674563918244f40000906106a69034906001600160a01b03166120f0565b10156106c4576040516217124560e91b815260040160405180910390fd5b60405180602001604052806000815250600583815481106106e7576106e76127a9565b9060005260206000209060070201600101908161070491906128aa565b5060006005838154811061071a5761071a6127a9565b906000526020600020906007020160060160006101000a8154816001600160a01b0302191690836001600160a01b031602179055505050565b6011546000906001600160a01b031633146107815760405163aadd925760e01b815260040160405180910390fd5b504790565b6001600160a01b0381166000908152600e60209081526040808320805482518185028101850190935280835260609492939192909184015b828210156108c15760008481526020908190206040805160c081018252600686029092018054835260018101546001600160a01b03169383019390935260028301549082015260038201805491929160608401919061081c90612823565b80601f016020809104026020016040519081016040528092919081815260200182805461084890612823565b80156108955780601f1061086a57610100808354040283529160200191610895565b820191906000526020600020905b81548152906001019060200180831161087857829003601f168201915b5050505050815260200160048201548152602001600582015481525050815260200190600101906107be565b505050509050919050565b6000828152600d60209081526040808320848452909152902054829082906001600160a01b0316331461091257604051632585a1bd60e01b815260040160405180910390fd5b600054674563918244f40000906109339034906001600160a01b03166120f0565b1015610951576040516217124560e91b815260040160405180910390fd5b60408051602080820183526000808352878152600c9091529190912080548590811061097f5761097f6127a9565b9060005260206000209060060201600301908161099c91906128aa565b506000848152600c602052604081208054859081106109bd576109bd6127a9565b906000526020600020906006020160010160006101000a8154816001600160a01b0302191690836001600160a01b0316021790555050505050565b336000818152600260205260409020600101546001600160a01b0316610a315760405163995cae5960e01b815260040160405180910390fd5b6005546040805160e0810182528281526020810186905290810184905242606082015260006080820181905260a082018190523360c08301819052610a7590610f2b565b336000908152600b60209081526040822080546001818101835591845292829020865160079094020192835590850151929350849290820190610ab890826128aa565b5060408201516002820190610acd90826128aa565b50606082015160038201556080820151600482015560a082015160058083019190915560c090920151600690910180546001600160a01b0319166001600160a01b03909216919091179055805460018101825560009190915282517f036b6384b5eca791c62761152d0c79bb0604c104a5fb6f4eb0703f3154bb3db06007909202918201908155602084015184927f036b6384b5eca791c62761152d0c79bb0604c104a5fb6f4eb0703f3154bb3db10190610b8890826128aa565b5060408201516002820190610b9d90826128aa565b50606082015160038201556080820151600482015560a0820151600582015560c090910151600690910180546001600160a01b039092166001600160a01b03199283161790553360008181526007602090815260408083208890558783526008909152908190208054909316909117909155517f3d4335cbfac350aa27a3fa09060b4691656ecbe3033f4d953849c2f755f230d19061063c908590849061296a565b336000818152600260205260409020600101546001600160a01b0316610c785760405163995cae5960e01b815260040160405180910390fd5b6000838152600c6020908152604080832054815160c08101835281815233938101939093529082018690526060820185905242608083015260a0820183905291610cc186611305565b6040015190506000610cd233610f2b565b6000888152600d6020908152604080832088845282528083208054336001600160a01b0319918216179091558b8452600c83528184208054600181810183559186529484902089516006909602019485559288015192840180549091166001600160a01b03909316929092179091558501516002820155606085015191925084916003820190610d6290826128aa565b506080820151816004015560a082015181600501555050837f915184b2a0bfb3b827755b4e9e718f684996cef7b75bad20f26cd2fd67396c7783838a604051610dad93929190612983565b60405180910390a250505050505050565b610e006040518060c001604052806000815260200160006001600160a01b03168152602001600081526020016060815260200160008152602001600081525090565b6000838152600c60205260409020805483908110610e2057610e206127a9565b90600052602060002090600602016040518060c0016040529081600082015481526020016001820160009054906101000a90046001600160a01b03166001600160a01b03166001600160a01b0316815260200160028201548152602001600382018054610e8c90612823565b80601f0160208091040260200160405190810160405280929190818152602001828054610eb890612823565b8015610f055780601f10610eda57610100808354040283529160200191610f05565b820191906000526020600020905b815481529060010190602001808311610ee857829003601f168201915b505050505081526020016004820154815260200160058201548152505090505b92915050565b6001600160a01b038082166000908152600260208181526040808420815160a0810183528154815260018201549096169286019290925291810180546060959384019190610f7890612823565b80601f0160208091040260200160405190810160405280929190818152602001828054610fa490612823565b8015610ff15780601f10610fc657610100808354040283529160200191610ff1565b820191906000526020600020905b815481529060010190602001808311610fd457829003601f168201915b5050505050815260200160038201805461100a90612823565b80601f016020809104026020016040519081016040528092919081815260200182805461103690612823565b80156110835780601f1061105857610100808354040283529160200191611083565b820191906000526020600020905b81548152906001019060200180831161106657829003601f168201915b5050505050815260200160048201805461109c90612823565b80601f01602080910402602001604051908101604052809291908181526020018280546110c890612823565b80156111155780601f106110ea57610100808354040283529160200191611115565b820191906000526020600020905b8154815290600101906020018083116110f857829003601f168201915b50505091909252505050604001519392505050565b6111736040518060e0016040528060008152602001606081526020016060815260200160008152602001600081526020016000815260200160006001600160a01b031681525090565b60058281548110611186576111866127a9565b90600052602060002090600702016040518060e0016040529081600082015481526020016001820180546111b990612823565b80601f01602080910402602001604051908101604052809291908181526020018280546111e590612823565b80156112325780601f1061120757610100808354040283529160200191611232565b820191906000526020600020905b81548152906001019060200180831161121557829003601f168201915b5050505050815260200160028201805461124b90612823565b80601f016020809104026020016040519081016040528092919081815260200182805461127790612823565b80156112c45780601f10611299576101008083540402835291602001916112c4565b820191906000526020600020905b8154815290600101906020018083116112a757829003601f168201915b50505091835250506003820154602082015260048201546040820152600582015460608201526006909101546001600160a01b031660809091015292915050565b61130d6121a9565b60018281548110611320576113206127a9565b90600052602060002090600502016040518060a0016040529081600082015481526020016001820160009054906101000a90046001600160a01b03166001600160a01b03166001600160a01b0316815260200160028201805461138290612823565b80601f01602080910402602001604051908101604052809291908181526020018280546113ae90612823565b80156113fb5780601f106113d0576101008083540402835291602001916113fb565b820191906000526020600020905b8154815290600101906020018083116113de57829003601f168201915b5050505050815260200160038201805461141490612823565b80601f016020809104026020016040519081016040528092919081815260200182805461144090612823565b801561148d5780601f106114625761010080835404028352916020019161148d565b820191906000526020600020905b81548152906001019060200180831161147057829003601f168201915b505050505081526020016004820180546114a690612823565b80601f01602080910402602001604051908101604052809291908181526020018280546114d290612823565b801561151f5780601f106114f45761010080835404028352916020019161151f565b820191906000526020600020905b81548152906001019060200180831161150257829003601f168201915b5050505050815250509050919050565b6115376121a9565b6001600160a01b03808316600090815260026020818152604092839020835160a081018552815481526001820154909516918501919091529081018054919284019161138290612823565b336000818152600260205260409020600101546001600160a01b03166115bb5760405163995cae5960e01b815260040160405180910390fd5b8160006001600160a01b03166009826040516115d791906129b9565b908152604051908190036020019020546001600160a01b03161461160e5760405163cd9c3c2960e01b815260040160405180910390fd5b336000908152600460205260409020546001805485919083908110611635576116356127a9565b9060005260206000209060050201600201908161165291906128aa565b5050505050565b60008281526010602090815260408083208484528252918290208054835181840281018401909452808452606093928301828280156116c157602002820191906000526020600020905b81546001600160a01b031681526001909101906020018083116116a3575b5050505050905092915050565b6011546001600160a01b031633146116f95760405163aadd925760e01b815260040160405180910390fd5b6040516001600160a01b038216904780156108fc02916000818181858888f1935050505015801561172e573d6000803e3d6000fd5b5050565b6001600160a01b0381166000908152600b60209081526040808320805482518185028101850190935280835260609492939192909184015b828210156108c157838290600052602060002090600702016040518060e0016040529081600082015481526020016001820180546117a790612823565b80601f01602080910402602001604051908101604052809291908181526020018280546117d390612823565b80156118205780601f106117f557610100808354040283529160200191611820565b820191906000526020600020905b81548152906001019060200180831161180357829003601f168201915b5050505050815260200160028201805461183990612823565b80601f016020809104026020016040519081016040528092919081815260200182805461186590612823565b80156118b25780601f10611887576101008083540402835291602001916118b2565b820191906000526020600020905b81548152906001019060200180831161189557829003601f168201915b5050509183525050600382015460208083019190915260048301546040830152600583015460608301526006909201546001600160a01b0316608090910152908252600192909201910161176a565b336000818152600260205260409020600101546001600160a01b031661193a5760405163995cae5960e01b815260040160405180910390fd5b6000838152600c6020526040902080548390811061195a5761195a6127a9565b600091825260208220600560069092020101805491611978836127d5565b9091555050506000828152600f60209081526040808320848452825280832033808552908352818420805460ff19166001908117909155958452601083528184209484529382528220805494850181558252902090910180546001600160a01b0319169091179055565b6011546001600160a01b03163314611a0d5760405163aadd925760e01b815260040160405180910390fd5b601180546001600160a01b0319166001600160a01b0392909216919091179055565b60008381526008602052604090205483906001600160a01b03163314611a6857604051639ef3fcef60e01b815260040160405180910390fd5b600054674563918244f4000090611a899034906001600160a01b03166120f0565b1015611aa7576040516217124560e91b815260040160405180910390fd5b8260058581548110611abb57611abb6127a9565b90600052602060002090600702016001019081611ad891906128aa565b508160058581548110611aed57611aed6127a9565b90600052602060002090600702016002019081611b0a91906128aa565b506000611b1633610f2b565b90507f7009e6824c3ecb1321da2ebabc18901b48d900a97f978c5a93dd3ba8cfe590358582604051611b4992919061296a565b60405180910390a15050505050565b8260006001600160a01b0316600982604051611b7491906129b9565b908152604051908190036020019020546001600160a01b031614611bab5760405163cd9c3c2960e01b815260040160405180910390fd5b6003805460009182611bbc836127d5565b919050559050611bca6121a9565b81815233602080830182815260408085018a8152606086018a905260808601899052600094855260029384905293208451815590516001820180546001600160a01b0319166001600160a01b039092169190911790559151839291820190611c3290826128aa565b5060608201516003820190611c4790826128aa565b5060808201516004820190611c5c90826128aa565b5050336000818152600460205260409081902085905551909150600990611c849089906129b9565b908152604080516020928190038301902080546001600160a01b03199081166001600160a01b039586161790915560018054808201825560009190915285517fb10e2d527612073b26eecdfd717e6a320cf44b4afac2b0732d9fcbe2b7fa0cf66005909202918201908155938601517fb10e2d527612073b26eecdfd717e6a320cf44b4afac2b0732d9fcbe2b7fa0cf782018054909316951694909417905583015183927fb10e2d527612073b26eecdfd717e6a320cf44b4afac2b0732d9fcbe2b7fa0cf80190611d5590826128aa565b5060608201516003820190611d6a90826128aa565b5060808201516004820190611d7f90826128aa565b50505085604051611d9091906129b9565b60405190819003812090339084907f8d76d60617424d83544323e2322cb8d86537451c9b3d991886ce6f4721e3865e90600090a4505050505050565b60008181526008602052604090205481906001600160a01b03163303611e0557604051631902ab3960e01b815260040160405180910390fd5b336000908152600a60209081526040808320858452909152902054829060ff1615611e43576040516383dcc1c160e01b815260040160405180910390fd5b60058381548110611e5657611e566127a9565b600091825260208220600560079092020101805491611e74836127d5565b9091555050336000908152600a602090815260408083208684528252808320805460ff1916600117905560089091528120546001600160a01b031690611eb982610f2b565b90506000611ec633610f2b565b60008781526014602052604090205490915060ff1615611f6457611ee986612064565b611f64576001600160a01b0383166000818152601360209081526040808320805460ff199081169091558a845260149092528220805490911690556012805460018101825591527fbb8a6a4669ba250d26cd7a459eca9d215f8307e33aebe50379bc5a3617ec34440180546001600160a01b03191690911790555b7fd7ad3e52dbe8b445d900fd8aa659c95d5b75bb6733c12e7f22d048963bd39ed586838360405161063c939291906127ee565b6000838152600d60209081526040808320858452909152902054839083906001600160a01b03163314611fdd57604051632585a1bd60e01b815260040160405180910390fd5b600054674563918244f4000090611ffe9034906001600160a01b03166120f0565b101561201c576040516217124560e91b815260040160405180910390fd5b6000858152600c6020526040902080548491908690811061203f5761203f6127a9565b9060005260206000209060060201600301908161205c91906128aa565b505050505050565b60008142826120728361112a565b60600151905062278d0061208682846129d5565b1061209057600080fd5b600061209b8661112a565b60800151905060006120ac8761112a565b60a0015190506000806120bf83856129d5565b116120cb5760006120d5565b6120d582846129d5565b9050600a8111156120e557600196505b505050505050919050565b6000806120fc83612126565b90506000670de0b6b3a764000061211383876129e8565b61211d91906129ff565b95945050505050565b600080826001600160a01b031663feaf968c6040518163ffffffff1660e01b815260040160a060405180830381865afa158015612167573d6000803e3d6000fd5b505050506040513d601f19601f8201168201806040525081019061218b9190612a40565b505050915050806402540be4006121a29190612a90565b9392505050565b6040518060a001604052806000815260200160006001600160a01b031681526020016060815260200160608152602001606081525090565b6000602082840312156121f357600080fd5b5035919050565b6001600160a01b038116811461220f57600080fd5b50565b60006020828403121561222457600080fd5b81356121a2816121fa565b60005b8381101561224a578181015183820152602001612232565b50506000910152565b6000815180845261226b81602086016020860161222f565b601f01601f19169290920160200192915050565b8051825260018060a01b036020820151166020830152604081015160408301526000606082015160c060608501526122ba60c0850182612253565b90506080830151608085015260a083015160a08501528091505092915050565b600060208083016020845280855180835260408601915060408160051b87010192506020870160005b8281101561233157603f1988860301845261231f85835161227f565b94509285019290850190600101612303565b5092979650505050505050565b6000806040838503121561235157600080fd5b50508035926020909101359150565b634e487b7160e01b600052604160045260246000fd5b600082601f83011261238757600080fd5b813567ffffffffffffffff808211156123a2576123a2612360565b604051601f8301601f19908116603f011681019082821181831017156123ca576123ca612360565b816040528381528660208588010111156123e357600080fd5b836020870160208301376000602085830101528094505050505092915050565b6000806040838503121561241657600080fd5b823567ffffffffffffffff8082111561242e57600080fd5b61243a86838701612376565b9350602085013591508082111561245057600080fd5b5061245d85828601612376565b9150509250929050565b6000806040838503121561247a57600080fd5b82359150602083013567ffffffffffffffff81111561249857600080fd5b61245d85828601612376565b6020815260006121a2602083018461227f565b6020815260006121a26020830184612253565b805182526000602082015160e060208501526124e960e0850182612253565b9050604083015184820360408601526125028282612253565b606085810151908701526080808601519087015260a0808601519087015260c0948501516001600160a01b03169490950193909352509192915050565b6020815260006121a260208301846124ca565b602081528151602082015260018060a01b0360208301511660408201526000604083015160a0606084015261258a60c0840182612253565b90506060840151601f19808584030160808601526125a88383612253565b925060808601519150808584030160a08601525061211d8282612253565b6000602082840312156125d857600080fd5b813567ffffffffffffffff8111156125ef57600080fd5b6125fb84828501612376565b949350505050565b6020808252825182820181905260009190848201906040850190845b818110156126445783516001600160a01b03168352928401929184019160010161261f565b50909695505050505050565b600060208083016020845280855180835260408601915060408160051b87010192506020870160005b8281101561233157603f198886030184526126958583516124ca565b94509285019290850190600101612679565b6000806000606084860312156126bc57600080fd5b83359250602084013567ffffffffffffffff808211156126db57600080fd5b6126e787838801612376565b935060408601359150808211156126fd57600080fd5b5061270a86828701612376565b9150509250925092565b60008060006060848603121561272957600080fd5b833567ffffffffffffffff8082111561274157600080fd5b61274d87838801612376565b945060208601359150808211156126db57600080fd5b60008060006060848603121561277857600080fd5b8335925060208401359150604084013567ffffffffffffffff81111561279d57600080fd5b61270a86828701612376565b634e487b7160e01b600052603260045260246000fd5b634e487b7160e01b600052601160045260246000fd5b6000600182016127e7576127e76127bf565b5060010190565b8381526060602082015260006128076060830185612253565b82810360408401526128198185612253565b9695505050505050565b600181811c9082168061283757607f821691505b60208210810361285757634e487b7160e01b600052602260045260246000fd5b50919050565b601f8211156128a5576000816000526020600020601f850160051c810160208610156128865750805b601f850160051c820191505b8181101561205c57828155600101612892565b505050565b815167ffffffffffffffff8111156128c4576128c4612360565b6128d8816128d28454612823565b8461285d565b602080601f83116001811461290d57600084156128f55750858301515b600019600386901b1c1916600185901b17855561205c565b600085815260208120601f198616915b8281101561293c5788860151825594840194600190910190840161291d565b508582101561295a5787850151600019600388901b60f8161c191681555b5050505050600190811b01905550565b8281526040602082015260006125fb6040830184612253565b6060815260006129966060830186612253565b82810360208401526129a88186612253565b915050826040830152949350505050565b600082516129cb81846020870161222f565b9190910192915050565b81810381811115610f2557610f256127bf565b8082028115828204841417610f2557610f256127bf565b600082612a1c57634e487b7160e01b600052601260045260246000fd5b500490565b805169ffffffffffffffffffff81168114612a3b57600080fd5b919050565b600080600080600060a08688031215612a5857600080fd5b612a6186612a21565b9450602086015193506040860151925060608601519150612a8460808701612a21565b90509295509295909350565b80820260008212600160ff1b84141615612aac57612aac6127bf565b8181058314821517610f2557610f256127bf56fea2646970667358221220a8110591a052efd8042a4fde736fef571221ebb9af3de4662aa5f70478fa120264736f6c63430008180033","linkReferences":{}},"methodIdentifiers":{"changeOwner(address)":"a6f9dae1","changeUsername(string)":"77c846af","createComment(uint256,string)":"40a17985","createPost(string,string)":"392338f5","deleteComment(uint256,uint256)":"31a4bcb5","deletePost(uint256)":"094cd5ee","downvote(uint256)":"f31fdad4","editComment(uint256,uint256,string)":"fa561152","editPost(uint256,string,string)":"bf0ac63c","getBalance()":"12065fe0","getCommentByPostIdAndCommentId(uint256,uint256)":"4296db5b","getCommentLikersByPostIdAndCommentId(uint256,uint256)":"8dc4a066","getContractOwner()":"442890d5","getPostById(uint256)":"64e95895","getUser(address)":"6f77926b","getUserById(uint256)":"6ed6da9e","getUserComments(address)":"2b3c6e22","getUserNameFromAddress(address)":"6372af84","getUserPosts(address)":"9a2194a9","likeComment(uint256,uint256)":"a0e91821","registerUser(string,string,string)":"d637dcfa","transferContractBalance(address)":"96f11ac8","upvote(uint256)":"01ddf070"},"id":28}