{"abi":[{"type":"constructor","inputs":[],"stateMutability":"nonpayable"},{"type":"function","name":"changeOwner","inputs":[{"name":"_newOwner","type":"address","internalType":"address"}],"outputs":[],"stateMutability":"nonpayable"},{"type":"function","name":"changeUsername","inputs":[{"name":"_newName","type":"string","internalType":"string"}],"outputs":[],"stateMutability":"nonpayable"},{"type":"function","name":"createComment","inputs":[{"name":"_postAuthor","type":"address","internalType":"address"},{"name":"_postId","type":"uint256","internalType":"uint256"},{"name":"_content","type":"string","internalType":"string"}],"outputs":[],"stateMutability":"nonpayable"},{"type":"function","name":"createPost","inputs":[{"name":"_content","type":"string","internalType":"string"},{"name":"_imgHash","type":"string","internalType":"string"}],"outputs":[],"stateMutability":"nonpayable"},{"type":"function","name":"deleteComment","inputs":[{"name":"_commentId","type":"uint256","internalType":"uint256"}],"outputs":[],"stateMutability":"nonpayable"},{"type":"function","name":"deletePost","inputs":[{"name":"_postId","type":"uint256","internalType":"uint256"}],"outputs":[],"stateMutability":"nonpayable"},{"type":"function","name":"downvote","inputs":[{"name":"_postId","type":"uint256","internalType":"uint256"}],"outputs":[],"stateMutability":"nonpayable"},{"type":"function","name":"editComment","inputs":[{"name":"_commentId","type":"uint256","internalType":"uint256"},{"name":"_content","type":"string","internalType":"string"}],"outputs":[],"stateMutability":"nonpayable"},{"type":"function","name":"editPost","inputs":[{"name":"_postId","type":"uint256","internalType":"uint256"},{"name":"_content","type":"string","internalType":"string"},{"name":"_imgHash","type":"string","internalType":"string"}],"outputs":[],"stateMutability":"nonpayable"},{"type":"function","name":"getBalance","inputs":[],"outputs":[{"name":"","type":"uint256","internalType":"uint256"}],"stateMutability":"view"},{"type":"function","name":"getUser","inputs":[{"name":"_userAddress","type":"address","internalType":"address"}],"outputs":[{"name":"","type":"tuple","internalType":"struct SocialMedia.User","components":[{"name":"id","type":"uint256","internalType":"uint256"},{"name":"userAddress","type":"address","internalType":"address"},{"name":"name","type":"string","internalType":"string"},{"name":"bio","type":"string","internalType":"string"},{"name":"profileImageHash","type":"string","internalType":"string"}]}],"stateMutability":"view"},{"type":"function","name":"getUserById","inputs":[{"name":"_userId","type":"uint256","internalType":"uint256"}],"outputs":[{"name":"","type":"tuple","internalType":"struct SocialMedia.User","components":[{"name":"id","type":"uint256","internalType":"uint256"},{"name":"userAddress","type":"address","internalType":"address"},{"name":"name","type":"string","internalType":"string"},{"name":"bio","type":"string","internalType":"string"},{"name":"profileImageHash","type":"string","internalType":"string"}]}],"stateMutability":"view"},{"type":"function","name":"getUserComments","inputs":[{"name":"_userAddress","type":"address","internalType":"address"}],"outputs":[{"name":"","type":"tuple[]","internalType":"struct SocialMedia.Comment[]","components":[{"name":"commentId","type":"uint256","internalType":"uint256"},{"name":"author","type":"address","internalType":"address"},{"name":"postId","type":"uint256","internalType":"uint256"},{"name":"content","type":"string","internalType":"string"},{"name":"timestamp","type":"uint256","internalType":"uint256"},{"name":"likesCount","type":"uint256","internalType":"uint256"}]}],"stateMutability":"view"},{"type":"function","name":"getUserNameFromAddress","inputs":[{"name":"_userAddress","type":"address","internalType":"address"}],"outputs":[{"name":"nameOfUser","type":"string","internalType":"string"}],"stateMutability":"view"},{"type":"function","name":"getUserPosts","inputs":[{"name":"_userAddress","type":"address","internalType":"address"}],"outputs":[{"name":"","type":"tuple[]","internalType":"struct SocialMedia.Post[]","components":[{"name":"postId","type":"uint256","internalType":"uint256"},{"name":"content","type":"string","internalType":"string"},{"name":"imgHash","type":"string","internalType":"string"},{"name":"timestamp","type":"uint256","internalType":"uint256"},{"name":"upvotes","type":"uint256","internalType":"uint256"},{"name":"downvotes","type":"uint256","internalType":"uint256"},{"name":"author","type":"address","internalType":"address"}]}],"stateMutability":"view"},{"type":"function","name":"likeComment","inputs":[{"name":"_commentId","type":"uint256","internalType":"uint256"}],"outputs":[],"stateMutability":"nonpayable"},{"type":"function","name":"registerUser","inputs":[{"name":"_name","type":"string","internalType":"string"},{"name":"_bio","type":"string","internalType":"string"},{"name":"_profileImageHash","type":"string","internalType":"string"}],"outputs":[],"stateMutability":"nonpayable"},{"type":"function","name":"startDapp","inputs":[],"outputs":[],"stateMutability":"nonpayable"},{"type":"function","name":"stopDapp","inputs":[],"outputs":[],"stateMutability":"nonpayable"},{"type":"function","name":"transferContractBalance","inputs":[{"name":"_to","type":"address","internalType":"address payable"}],"outputs":[],"stateMutability":"nonpayable"},{"type":"function","name":"upvote","inputs":[{"name":"_postId","type":"uint256","internalType":"uint256"}],"outputs":[],"stateMutability":"nonpayable"},{"type":"event","name":"CommentCreated","inputs":[{"name":"commentId","type":"uint256","indexed":true,"internalType":"uint256"},{"name":"postAuthor","type":"address","indexed":true,"internalType":"address"},{"name":"commentAuthor","type":"address","indexed":true,"internalType":"address"},{"name":"postId","type":"uint256","indexed":false,"internalType":"uint256"}],"anonymous":false},{"type":"event","name":"Downvoted","inputs":[{"name":"postId","type":"uint256","indexed":false,"internalType":"uint256"},{"name":"voter","type":"address","indexed":false,"internalType":"address"}],"anonymous":false},{"type":"event","name":"PostCreated","inputs":[{"name":"postId","type":"uint256","indexed":false,"internalType":"uint256"},{"name":"authorName","type":"string","indexed":false,"internalType":"string"}],"anonymous":false},{"type":"event","name":"PostEdited","inputs":[{"name":"postId","type":"uint256","indexed":false,"internalType":"uint256"},{"name":"author","type":"address","indexed":false,"internalType":"address"}],"anonymous":false},{"type":"event","name":"PostLiked","inputs":[{"name":"postId","type":"uint256","indexed":true,"internalType":"uint256"},{"name":"postAuthor","type":"address","indexed":true,"internalType":"address"},{"name":"liker","type":"address","indexed":true,"internalType":"address"}],"anonymous":false},{"type":"event","name":"Upvoted","inputs":[{"name":"postId","type":"uint256","indexed":false,"internalType":"uint256"},{"name":"voter","type":"address","indexed":false,"internalType":"address"}],"anonymous":false},{"type":"event","name":"UserRegistered","inputs":[{"name":"id","type":"uint256","indexed":true,"internalType":"uint256"},{"name":"userAddress","type":"address","indexed":true,"internalType":"address"},{"name":"name","type":"string","indexed":true,"internalType":"string"}],"anonymous":false},{"type":"error","name":"SocialMedia__AlreadyVoted","inputs":[]},{"type":"error","name":"SocialMedia__NotCommentOwner","inputs":[]},{"type":"error","name":"SocialMedia__NotOwner","inputs":[]},{"type":"error","name":"SocialMedia__NotPostOwner","inputs":[]},{"type":"error","name":"SocialMedia__OwnerCannotVote","inputs":[]},{"type":"error","name":"SocialMedia__UserDoesNotExist","inputs":[]},{"type":"error","name":"SocialMedia__UsernameAlreadyTaken","inputs":[]}],"bytecode":{"object":"0x608060405234801561001057600080fd5b50600380546001600160a01b03191633179055611fa7806100326000396000f3fe608060405234801561001057600080fd5b50600436106101375760003560e01c80636f77926b116100b85780639a2194a91161007c5780639a2194a91461026c578063a6f9dae11461028c578063ad8160291461029f578063bf0ac63c146102b2578063d637dcfa146102c5578063f31fdad4146102d857600080fd5b80636f77926b1461022057806377c846af146102335780637d0b10261461024657806395d2cc92146101c557806396f11ac81461025957600080fd5b80632b69e24f116100ff5780632b69e24f146101b257806333aa01e9146101c5578063392338f5146101cd5780636372af84146101e05780636ed6da9e1461020057600080fd5b8063012cc1e21461013c57806301ddf07014610151578063094cd5ee1461016457806312065fe0146101775780632b3c6e2214610192575b600080fd5b61014f61014a36600461181c565b6102eb565b005b61014f61015f36600461181c565b610310565b61014f61017236600461181c565b610451565b61017f6104e7565b6040519081526020015b60405180910390f35b6101a56101a036600461184a565b61051a565b60405161018991906118be565b61014f6101c0366004611a0f565b610660565b61014f610768565b61014f6101db366004611a68565b610795565b6101f36101ee36600461184a565b6108c5565b6040516101899190611acc565b61021361020e36600461181c565b610ac4565b6040516101899190611adf565b61021361022e36600461184a565b610cee565b61014f610241366004611b5c565b610d40565b61014f61025436600461181c565b610e6c565b61014f61026736600461184a565b610ef5565b61027f61027a36600461184a565b610f59565b6040516101899190611b99565b61014f61029a36600461184a565b611128565b61014f6102ad366004611c4f565b611175565b61014f6102c0366004611c8c565b6111d4565b61014f6102d3366004611cef565b61127d565b61014f6102e636600461181c565b611656565b600081815260026020526040812060050180549161030883611d3e565b919050555050565b60008181526001602052604090206006015481906001600160a01b0316330361034c57604051631902ab3960e01b815260040160405180910390fd5b336000908152600660209081526040808320858452909152902054829060ff161561038a576040516383dcc1c160e01b815260040160405180910390fd5b60008381526001602052604081206004018054916103a783611d3e565b90915550503360008181526006602090815260408083208784528252808320805460ff191660019081179091556005805491820181559093527f036b6384b5eca791c62761152d0c79bb0604c104a5fb6f4eb0703f3154bb3db090920180546001600160a01b031916841790558151868152908101929092527f0e092509bde1dd304f477e3ec921b6e4e5092738f70dcd204952ffc1ffdaafdf91015b60405180910390a1505050565b60008181526001602052604090206006015481906001600160a01b0316331461048d57604051639ef3fcef60e01b815260040160405180910390fd5b6000828152600160208190526040822082815591906104ae9083018261178e565b6104bc60028301600061178e565b5060006003820181905560048201819055600582015560060180546001600160a01b03191690555050565b6003546000906001600160a01b031633146105155760405163aadd925760e01b815260040160405180910390fd5b504790565b6001600160a01b0381166000908152600960209081526040808320805482518185028101850190935280835260609492939192909184015b828210156106555760008481526020908190206040805160c081018252600686029092018054835260018101546001600160a01b0316938301939093526002830154908201526003820180549192916060840191906105b090611d65565b80601f01602080910402602001604051908101604052809291908181526020018280546105dc90611d65565b80156106295780601f106105fe57610100808354040283529160200191610629565b820191906000526020600020905b81548152906001019060200180831161060c57829003601f168201915b505050505081526020016004820154815260200160058201548152505081526020019060010190610552565b505050509050919050565b6040805160c081018252600180825233602080840191825283850187815260608501878152426080870152600060a087018190526001600160a01b038b81168252600885528882208b83528552978120805480880182559082529390208651600690940201928355925182850180546001600160a01b031916919097161790955593516002850155519092829160038201906106fc9082611df0565b506080820151816004015560a082015181600501555050336001600160a01b0316856001600160a01b0316837f3c9238b160bb5c53a432171c8d2eb7ed9ad9fdb80ecb6ebb4fd6b52787077db98760405161075991815260200190565b60405180910390a45050505050565b6003546001600160a01b031633146107935760405163aadd925760e01b815260040160405180910390fd5b565b33600081815260076020908152604080832054815160e0810183528181529283018790529082018590524260608301526080820183905260a0820183905260c08201849052929091906107e7906108c5565b90507f3d4335cbfac350aa27a3fa09060b4691656ecbe3033f4d953849c2f755f230d1838260405161081a929190611eb0565b60405180910390a13360009081526007602081815260408320805460018181018355918552938290208651949093029092019283558401518492918201906108629082611df0565b50604082015160028201906108779082611df0565b50606082015160038201556080820151600482015560a0820151600582015560c090910151600690910180546001600160a01b0319166001600160a01b039092169190911790555050505050565b6001600160a01b03808216600090815260208181526040808320815160a0810183528154815260018201549095169285019290925260028201805460609593928401919061091290611d65565b80601f016020809104026020016040519081016040528092919081815260200182805461093e90611d65565b801561098b5780601f106109605761010080835404028352916020019161098b565b820191906000526020600020905b81548152906001019060200180831161096e57829003601f168201915b505050505081526020016003820180546109a490611d65565b80601f01602080910402602001604051908101604052809291908181526020018280546109d090611d65565b8015610a1d5780601f106109f257610100808354040283529160200191610a1d565b820191906000526020600020905b815481529060010190602001808311610a0057829003601f168201915b50505050508152602001600482018054610a3690611d65565b80601f0160208091040260200160405190810160405280929190818152602001828054610a6290611d65565b8015610aaf5780601f10610a8457610100808354040283529160200191610aaf565b820191906000526020600020905b815481529060010190602001808311610a9257829003601f168201915b50505091909252505050604001519392505050565b610acc6117cb565b600b8281548110610adf57610adf611ec9565b90600052602060002090600502016040518060a0016040529081600082015481526020016001820160009054906101000a90046001600160a01b03166001600160a01b03166001600160a01b03168152602001600282018054610b4190611d65565b80601f0160208091040260200160405190810160405280929190818152602001828054610b6d90611d65565b8015610bba5780601f10610b8f57610100808354040283529160200191610bba565b820191906000526020600020905b815481529060010190602001808311610b9d57829003601f168201915b50505050508152602001600382018054610bd390611d65565b80601f0160208091040260200160405190810160405280929190818152602001828054610bff90611d65565b8015610c4c5780601f10610c2157610100808354040283529160200191610c4c565b820191906000526020600020905b815481529060010190602001808311610c2f57829003601f168201915b50505050508152602001600482018054610c6590611d65565b80601f0160208091040260200160405190810160405280929190818152602001828054610c9190611d65565b8015610cde5780601f10610cb357610100808354040283529160200191610cde565b820191906000526020600020905b815481529060010190602001808311610cc157829003601f168201915b5050505050815250509050919050565b610cf66117cb565b6001600160a01b0380831660009081526020818152604091829020825160a081018452815481526001820154909416918401919091526002810180549192840191610b4190611d65565b336000818152602081905260409020600101546001600160a01b0316610d795760405163995cae5960e01b815260040160405180910390fd5b8160006001600160a01b0316600482604051610d959190611edf565b908152604051908190036020019020546001600160a01b031614610dcc5760405163cd9c3c2960e01b815260040160405180910390fd5b33600090815260208190526040908190209051600491610df191600290910190611efb565b90815260405190819003602001812080546001600160a01b03191690553390600490610e1e908690611edf565b908152604080516020928190038301902080546001600160a01b0319166001600160a01b0394909416939093179092553360009081529081905220600201610e668482611df0565b50505050565b60008181526002602052604090206001015481906001600160a01b03163314610ea857604051632585a1bd60e01b815260040160405180910390fd5b600082815260026020819052604082208281556001810180546001600160a01b031916905590810182905590610ee1600383018261178e565b506000600482018190556005909101555050565b6003546001600160a01b03163314610f205760405163aadd925760e01b815260040160405180910390fd5b6040516001600160a01b038216904780156108fc02916000818181858888f19350505050158015610f55573d6000803e3d6000fd5b5050565b6001600160a01b0381166000908152600760209081526040808320805482518185028101850190935280835260609492939192909184015b8282101561065557838290600052602060002090600702016040518060e001604052908160008201548152602001600182018054610fce90611d65565b80601f0160208091040260200160405190810160405280929190818152602001828054610ffa90611d65565b80156110475780601f1061101c57610100808354040283529160200191611047565b820191906000526020600020905b81548152906001019060200180831161102a57829003601f168201915b5050505050815260200160028201805461106090611d65565b80601f016020809104026020016040519081016040528092919081815260200182805461108c90611d65565b80156110d95780601f106110ae576101008083540402835291602001916110d9565b820191906000526020600020905b8154815290600101906020018083116110bc57829003601f168201915b5050509183525050600382015460208083019190915260048301546040830152600583015460608301526006909201546001600160a01b03166080909101529082526001929092019101610f91565b6003546001600160a01b031633146111535760405163aadd925760e01b815260040160405180910390fd5b600380546001600160a01b0319166001600160a01b0392909216919091179055565b60008281526002602052604090206001015482906001600160a01b031633146111b157604051632585a1bd60e01b815260040160405180910390fd5b6000838152600260205260409020600381016111cd8482611df0565b5050505050565b60008381526001602052604090206006015483906001600160a01b0316331461121057604051639ef3fcef60e01b815260040160405180910390fd5b600084815260016020819052604090912090810161122e8582611df0565b506002810161123d8482611df0565b50604080518681523360208201527fd5679d37e479e17c0313cd3c71d487b7d68788e2ae2814616410ea1a1334e2b1910160405180910390a15050505050565b8260006001600160a01b03166004826040516112999190611edf565b908152604051908190036020019020546001600160a01b0316146112d05760405163cd9c3c2960e01b815260040160405180910390fd5b600a8054600091826112e183611d3e565b9091555033600090815260208181526040808320815160a0810183528154815260018201546001600160a01b0316938101939093526002810180549596509394929390929184019161133290611d65565b80601f016020809104026020016040519081016040528092919081815260200182805461135e90611d65565b80156113ab5780601f10611380576101008083540402835291602001916113ab565b820191906000526020600020905b81548152906001019060200180831161138e57829003601f168201915b505050505081526020016003820180546113c490611d65565b80601f01602080910402602001604051908101604052809291908181526020018280546113f090611d65565b801561143d5780601f106114125761010080835404028352916020019161143d565b820191906000526020600020905b81548152906001019060200180831161142057829003601f168201915b5050505050815260200160048201805461145690611d65565b80601f016020809104026020016040519081016040528092919081815260200182805461148290611d65565b80156114cf5780601f106114a4576101008083540402835291602001916114cf565b820191906000526020600020905b8154815290600101906020018083116114b257829003601f168201915b50505091909252505050828152336020820181905260408083018990526060830188905260808301879052519192509060049061150d908990611edf565b908152604080516020928190038301902080546001600160a01b03199081166001600160a01b0395861617909155600b805460018101825560009190915285517f0175b7a638427703f0dbe7bb9bbf987a2551717b34e79f33b5b1008d1fa01db96005909202918201908155938601517f0175b7a638427703f0dbe7bb9bbf987a2551717b34e79f33b5b1008d1fa01dba82018054909316951694909417905583015183927f0175b7a638427703f0dbe7bb9bbf987a2551717b34e79f33b5b1008d1fa01dbb01906115df9082611df0565b50606082015160038201906115f49082611df0565b50608082015160048201906116099082611df0565b5050508560405161161a9190611edf565b60405190819003812090339084907f8d76d60617424d83544323e2322cb8d86537451c9b3d991886ce6f4721e3865e90600090a4505050505050565b60008181526001602052604090206006015481906001600160a01b0316330361169257604051631902ab3960e01b815260040160405180910390fd5b336000908152600660209081526040808320858452909152902054829060ff16156116d0576040516383dcc1c160e01b815260040160405180910390fd5b60008381526001602052604081206005018054916116ed83611d3e565b90915550503360008181526006602090815260408083208784528252808320805460ff191660019081179091556005805491820181559093527f036b6384b5eca791c62761152d0c79bb0604c104a5fb6f4eb0703f3154bb3db090920180546001600160a01b031916841790558151868152908101929092527fd1a80ff7224556d1f75ebb4aabff86e4c1b70cfedfc1c3e67eac663bc85b00279101610444565b50805461179a90611d65565b6000825580601f106117aa575050565b601f0160209004906000526020600020908101906117c89190611803565b50565b6040518060a001604052806000815260200160006001600160a01b031681526020016060815260200160608152602001606081525090565b5b808211156118185760008155600101611804565b5090565b60006020828403121561182e57600080fd5b5035919050565b6001600160a01b03811681146117c857600080fd5b60006020828403121561185c57600080fd5b813561186781611835565b9392505050565b60005b83811015611889578181015183820152602001611871565b50506000910152565b600081518084526118aa81602086016020860161186e565b601f01601f19169290920160200192915050565b600060208083018184528085518083526040925060408601915060408160051b87010184880160005b8381101561195e57888303603f19018552815180518452878101516001600160a01b031688850152868101518785015260608082015160c0828701819052919061193383880182611892565b6080858101519089015260a094850151949097019390935250505093860193908601906001016118e7565b509098975050505050505050565b634e487b7160e01b600052604160045260246000fd5b600082601f83011261199357600080fd5b813567ffffffffffffffff808211156119ae576119ae61196c565b604051601f8301601f19908116603f011681019082821181831017156119d6576119d661196c565b816040528381528660208588010111156119ef57600080fd5b836020870160208301376000602085830101528094505050505092915050565b600080600060608486031215611a2457600080fd5b8335611a2f81611835565b925060208401359150604084013567ffffffffffffffff811115611a5257600080fd5b611a5e86828701611982565b9150509250925092565b60008060408385031215611a7b57600080fd5b823567ffffffffffffffff80821115611a9357600080fd5b611a9f86838701611982565b93506020850135915080821115611ab557600080fd5b50611ac285828601611982565b9150509250929050565b6020815260006118676020830184611892565b602081528151602082015260018060a01b0360208301511660408201526000604083015160a06060840152611b1760c0840182611892565b90506060840151601f1980858403016080860152611b358383611892565b925060808601519150808584030160a086015250611b538282611892565b95945050505050565b600060208284031215611b6e57600080fd5b813567ffffffffffffffff811115611b8557600080fd5b611b9184828501611982565b949350505050565b600060208083018184528085518083526040925060408601915060408160051b87010184880160005b8381101561195e57603f19898403018552815160e08151855288820151818a870152611bf082870182611892565b9150508782015185820389870152611c088282611892565b606084810151908801526080808501519088015260a0808501519088015260c0938401516001600160a01b0316939096019290925250509386019390860190600101611bc2565b60008060408385031215611c6257600080fd5b82359150602083013567ffffffffffffffff811115611c8057600080fd5b611ac285828601611982565b600080600060608486031215611ca157600080fd5b83359250602084013567ffffffffffffffff80821115611cc057600080fd5b611ccc87838801611982565b93506040860135915080821115611ce257600080fd5b50611a5e86828701611982565b600080600060608486031215611d0457600080fd5b833567ffffffffffffffff80821115611d1c57600080fd5b611d2887838801611982565b94506020860135915080821115611cc057600080fd5b600060018201611d5e57634e487b7160e01b600052601160045260246000fd5b5060010190565b600181811c90821680611d7957607f821691505b602082108103611d9957634e487b7160e01b600052602260045260246000fd5b50919050565b601f821115611deb576000816000526020600020601f850160051c81016020861015611dc85750805b601f850160051c820191505b81811015611de757828155600101611dd4565b5050505b505050565b815167ffffffffffffffff811115611e0a57611e0a61196c565b611e1e81611e188454611d65565b84611d9f565b602080601f831160018114611e535760008415611e3b5750858301515b600019600386901b1c1916600185901b178555611de7565b600085815260208120601f198616915b82811015611e8257888601518255948401946001909101908401611e63565b5085821015611ea05787850151600019600388901b60f8161c191681555b5050505050600190811b01905550565b828152604060208201526000611b916040830184611892565b634e487b7160e01b600052603260045260246000fd5b60008251611ef181846020870161186e565b9190910192915050565b6000808354611f0981611d65565b60018281168015611f215760018114611f3657611f65565b60ff1984168752821515830287019450611f65565b8760005260208060002060005b85811015611f5c5781548a820152908401908201611f43565b50505082870194505b5092969550505050505056fea2646970667358221220ee789c4ec7d9b06b4c2fd0a64e84d71578a9881949a25ed915f3209773b1627264736f6c63430008180033","linkReferences":{}},"methodIdentifiers":{"changeOwner(address)":"a6f9dae1","changeUsername(string)":"77c846af","createComment(address,uint256,string)":"2b69e24f","createPost(string,string)":"392338f5","deleteComment(uint256)":"7d0b1026","deletePost(uint256)":"094cd5ee","downvote(uint256)":"f31fdad4","editComment(uint256,string)":"ad816029","editPost(uint256,string,string)":"bf0ac63c","getBalance()":"12065fe0","getUser(address)":"6f77926b","getUserById(uint256)":"6ed6da9e","getUserComments(address)":"2b3c6e22","getUserNameFromAddress(address)":"6372af84","getUserPosts(address)":"9a2194a9","likeComment(uint256)":"012cc1e2","registerUser(string,string,string)":"d637dcfa","startDapp()":"95d2cc92","stopDapp()":"33aa01e9","transferContractBalance(address)":"96f11ac8","upvote(uint256)":"01ddf070"},"id":25}