{"abi":[{"type":"constructor","inputs":[],"stateMutability":"nonpayable"},{"type":"function","name":"changeOwner","inputs":[{"name":"_newOwner","type":"address","internalType":"address"}],"outputs":[],"stateMutability":"nonpayable"},{"type":"function","name":"changeUsername","inputs":[{"name":"_newName","type":"string","internalType":"string"}],"outputs":[],"stateMutability":"nonpayable"},{"type":"function","name":"createComment","inputs":[{"name":"_postId","type":"uint256","internalType":"uint256"},{"name":"_content","type":"string","internalType":"string"}],"outputs":[],"stateMutability":"nonpayable"},{"type":"function","name":"createPost","inputs":[{"name":"_content","type":"string","internalType":"string"},{"name":"_imgHash","type":"string","internalType":"string"}],"outputs":[],"stateMutability":"nonpayable"},{"type":"function","name":"deleteComment","inputs":[{"name":"_commentId","type":"uint256","internalType":"uint256"}],"outputs":[],"stateMutability":"nonpayable"},{"type":"function","name":"deletePost","inputs":[{"name":"_postId","type":"uint256","internalType":"uint256"}],"outputs":[],"stateMutability":"nonpayable"},{"type":"function","name":"downvote","inputs":[{"name":"_postId","type":"uint256","internalType":"uint256"}],"outputs":[],"stateMutability":"nonpayable"},{"type":"function","name":"editComment","inputs":[{"name":"_commentId","type":"uint256","internalType":"uint256"},{"name":"_content","type":"string","internalType":"string"}],"outputs":[],"stateMutability":"nonpayable"},{"type":"function","name":"editPost","inputs":[{"name":"_postId","type":"uint256","internalType":"uint256"},{"name":"_content","type":"string","internalType":"string"},{"name":"_imgHash","type":"string","internalType":"string"}],"outputs":[],"stateMutability":"nonpayable"},{"type":"function","name":"getBalance","inputs":[],"outputs":[{"name":"","type":"uint256","internalType":"uint256"}],"stateMutability":"view"},{"type":"function","name":"getUser","inputs":[{"name":"_userAddress","type":"address","internalType":"address"}],"outputs":[{"name":"","type":"tuple","internalType":"struct SocialMedia.User","components":[{"name":"id","type":"uint256","internalType":"uint256"},{"name":"userAddress","type":"address","internalType":"address"},{"name":"name","type":"string","internalType":"string"},{"name":"bio","type":"string","internalType":"string"},{"name":"profileImageHash","type":"string","internalType":"string"},{"name":"userPosts","type":"tuple[]","internalType":"struct SocialMedia.Post[]","components":[{"name":"postId","type":"uint256","internalType":"uint256"},{"name":"content","type":"string","internalType":"string"},{"name":"imgHash","type":"string","internalType":"string"},{"name":"timestamp","type":"uint256","internalType":"uint256"},{"name":"upvotes","type":"uint256","internalType":"uint256"},{"name":"downvotes","type":"uint256","internalType":"uint256"},{"name":"author","type":"address","internalType":"address"},{"name":"postComments","type":"tuple[]","internalType":"struct SocialMedia.Comment[]","components":[{"name":"commentId","type":"uint256","internalType":"uint256"},{"name":"author","type":"address","internalType":"address"},{"name":"postId","type":"uint256","internalType":"uint256"},{"name":"content","type":"string","internalType":"string"},{"name":"timestamp","type":"uint256","internalType":"uint256"},{"name":"likesCount","type":"uint256","internalType":"uint256"}]}]}]}],"stateMutability":"view"},{"type":"function","name":"getUserPosts","inputs":[{"name":"_userAddress","type":"address","internalType":"address"}],"outputs":[{"name":"","type":"tuple[]","internalType":"struct SocialMedia.Post[]","components":[{"name":"postId","type":"uint256","internalType":"uint256"},{"name":"content","type":"string","internalType":"string"},{"name":"imgHash","type":"string","internalType":"string"},{"name":"timestamp","type":"uint256","internalType":"uint256"},{"name":"upvotes","type":"uint256","internalType":"uint256"},{"name":"downvotes","type":"uint256","internalType":"uint256"},{"name":"author","type":"address","internalType":"address"},{"name":"postComments","type":"tuple[]","internalType":"struct SocialMedia.Comment[]","components":[{"name":"commentId","type":"uint256","internalType":"uint256"},{"name":"author","type":"address","internalType":"address"},{"name":"postId","type":"uint256","internalType":"uint256"},{"name":"content","type":"string","internalType":"string"},{"name":"timestamp","type":"uint256","internalType":"uint256"},{"name":"likesCount","type":"uint256","internalType":"uint256"}]}]}],"stateMutability":"view"},{"type":"function","name":"getUsersComment","inputs":[{"name":"_userAddress","type":"address","internalType":"address"}],"outputs":[{"name":"","type":"tuple[]","internalType":"struct SocialMedia.Comment[]","components":[{"name":"commentId","type":"uint256","internalType":"uint256"},{"name":"author","type":"address","internalType":"address"},{"name":"postId","type":"uint256","internalType":"uint256"},{"name":"content","type":"string","internalType":"string"},{"name":"timestamp","type":"uint256","internalType":"uint256"},{"name":"likesCount","type":"uint256","internalType":"uint256"}]}],"stateMutability":"view"},{"type":"function","name":"likeComment","inputs":[{"name":"_commentId","type":"uint256","internalType":"uint256"}],"outputs":[],"stateMutability":"nonpayable"},{"type":"function","name":"registerUser","inputs":[{"name":"_name","type":"string","internalType":"string"},{"name":"_bio","type":"string","internalType":"string"},{"name":"_profileImageHash","type":"string","internalType":"string"}],"outputs":[],"stateMutability":"nonpayable"},{"type":"function","name":"startDapp","inputs":[],"outputs":[],"stateMutability":"nonpayable"},{"type":"function","name":"stopDapp","inputs":[],"outputs":[],"stateMutability":"nonpayable"},{"type":"function","name":"transferContractBalance","inputs":[{"name":"_to","type":"address","internalType":"address payable"}],"outputs":[],"stateMutability":"nonpayable"},{"type":"function","name":"upvote","inputs":[{"name":"_postId","type":"uint256","internalType":"uint256"}],"outputs":[],"stateMutability":"nonpayable"},{"type":"event","name":"CommentCreated","inputs":[{"name":"commentId","type":"uint256","indexed":false,"internalType":"uint256"},{"name":"author","type":"address","indexed":false,"internalType":"address"},{"name":"postId","type":"uint256","indexed":false,"internalType":"uint256"}],"anonymous":false},{"type":"event","name":"Downvoted","inputs":[{"name":"postId","type":"uint256","indexed":false,"internalType":"uint256"},{"name":"voter","type":"address","indexed":false,"internalType":"address"}],"anonymous":false},{"type":"event","name":"PostCreated","inputs":[{"name":"postId","type":"uint256","indexed":false,"internalType":"uint256"},{"name":"author","type":"address","indexed":false,"internalType":"address"}],"anonymous":false},{"type":"event","name":"RegisterUser","inputs":[{"name":"id","type":"uint256","indexed":false,"internalType":"uint256"},{"name":"userAddress","type":"address","indexed":false,"internalType":"address"},{"name":"name","type":"string","indexed":false,"internalType":"string"}],"anonymous":false},{"type":"event","name":"Upvoted","inputs":[{"name":"postId","type":"uint256","indexed":false,"internalType":"uint256"},{"name":"voter","type":"address","indexed":false,"internalType":"address"}],"anonymous":false},{"type":"error","name":"SocialMedia__AlreadyVoted","inputs":[]},{"type":"error","name":"SocialMedia__NotCommentOwner","inputs":[]},{"type":"error","name":"SocialMedia__NotOwner","inputs":[]},{"type":"error","name":"SocialMedia__NotPostOwner","inputs":[]},{"type":"error","name":"SocialMedia__OwnerCannotVote","inputs":[]},{"type":"error","name":"SocialMedia__UserDoesNotExist","inputs":[]},{"type":"error","name":"SocialMedia__UsernameAlreadyTaken","inputs":[]}],"bytecode":{"object":"0x608060405234801561001057600080fd5b50600380546001600160a01b0319163317905561221a806100326000396000f3fe608060405234801561001057600080fd5b50600436106101215760003560e01c80637d0b1026116100ad578063ad81602911610071578063ad81602914610237578063bf0ac63c1461024a578063c18522231461025d578063d637dcfa14610278578063f31fdad41461028b57600080fd5b80637d0b1026146101dd57806395d2cc921461017c57806396f11ac8146101f05780639a2194a914610203578063a6f9dae11461022457600080fd5b806333aa01e9116100f457806333aa01e91461017c578063392338f51461018457806340a17985146101975780636f77926b146101aa57806377c846af146101ca57600080fd5b8063012cc1e21461012657806301ddf0701461013b578063094cd5ee1461014e57806312065fe014610161575b600080fd5b610139610134366004611a12565b61029e565b005b610139610149366004611a12565b6102c3565b61013961015c366004611a12565b610404565b6101696104ac565b6040519081526020015b60405180910390f35b6101396104df565b610139610192366004611ace565b61050c565b6101396101a5366004611b32565b61086b565b6101bd6101b8366004611b84565b6109b5565b6040516101739190611d66565b6101396101d8366004611e00565b610ef8565b6101396101eb366004611a12565b61101e565b6101396101fe366004611b84565b6110a7565b610217610211366004611b84565b50606090565b6040516101739190611e3d565b610139610232366004611b84565b61110b565b610139610245366004611b32565b611158565b610139610258366004611e50565b6111b7565b61026b610211366004611b84565b6040516101739190611ebd565b610139610286366004611f6b565b611228565b610139610299366004611a12565b611819565b60008181526002602052604081206005018054916102bb83611fba565b919050555050565b60008181526001602052604090206006015481906001600160a01b031633036102ff57604051631902ab3960e01b815260040160405180910390fd5b336000908152600660209081526040808320858452909152902054829060ff161561033d576040516383dcc1c160e01b815260040160405180910390fd5b600083815260016020526040812060040180549161035a83611fba565b90915550503360008181526006602090815260408083208784528252808320805460ff191660019081179091556005805491820181559093527f036b6384b5eca791c62761152d0c79bb0604c104a5fb6f4eb0703f3154bb3db090920180546001600160a01b031916841790558151868152908101929092527f0e092509bde1dd304f477e3ec921b6e4e5092738f70dcd204952ffc1ffdaafdf91015b60405180910390a1505050565b60008181526001602052604090206006015481906001600160a01b0316331461044057604051639ef3fcef60e01b815260040160405180910390fd5b60008281526001602081905260408220828155919061046190830182611951565b61046f600283016000611951565b60006003830181905560048301819055600583018190556006830180546001600160a01b03191690556104a690600784019061198e565b50505050565b6003546000906001600160a01b031633146104da5760405163aadd925760e01b815260040160405180910390fd5b504790565b6003546001600160a01b0316331461050a5760405163aadd925760e01b815260040160405180910390fd5b565b6001600081815260208281526040805161010081019091527fcc69885fda6bcc1a4ace058b4a62bf5e179ea78fd58a1ccd71c22cc9b688792f805482527fcc69885fda6bcc1a4ace058b4a62bf5e179ea78fd58a1ccd71c22cc9b68879308054929391929184019161057d90611fe1565b80601f01602080910402602001604051908101604052809291908181526020018280546105a990611fe1565b80156105f65780601f106105cb576101008083540402835291602001916105f6565b820191906000526020600020905b8154815290600101906020018083116105d957829003601f168201915b5050505050815260200160028201805461060f90611fe1565b80601f016020809104026020016040519081016040528092919081815260200182805461063b90611fe1565b80156106885780601f1061065d57610100808354040283529160200191610688565b820191906000526020600020905b81548152906001019060200180831161066b57829003601f168201915b505050505081526020016003820154815260200160048201548152602001600582015481526020016006820160009054906101000a90046001600160a01b03166001600160a01b03166001600160a01b0316815260200160078201805480602002602001604051908101604052809291908181526020016000905b828210156108065760008481526020908190206040805160c081018252600686029092018054835260018101546001600160a01b03169383019390935260028301549082015260038201805491929160608401919061076190611fe1565b80601f016020809104026020016040519081016040528092919081815260200182805461078d90611fe1565b80156107da5780601f106107af576101008083540402835291602001916107da565b820191906000526020600020905b8154815290600101906020018083116107bd57829003601f168201915b505050505081526020016004820154815260200160058201548152505081526020019060010190610703565b50505091525050828152602080820186905260408083018690524260608401523360c084018190528151868152928301529192507f29c05e49ec69f11bd40335a9cb6a06fad27779987ab7b8d80448d642b1f592d5910160405180910390a150505050565b6040805160c081018252600180825233602080840191825293830186815260608401868152426080860152600060a08601819052849052600290955283517fe90b7bceb6e7df5418fb78d8ee546e97c83a08bbccc01a0644d599ccd2a7c2e090815591517fe90b7bceb6e7df5418fb78d8ee546e97c83a08bbccc01a0644d599ccd2a7c2e180546001600160a01b0319166001600160a01b03909216919091179055517fe90b7bceb6e7df5418fb78d8ee546e97c83a08bbccc01a0644d599ccd2a7c2e25592519092907fe90b7bceb6e7df5418fb78d8ee546e97c83a08bbccc01a0644d599ccd2a7c2e3906109619082612068565b506080820151600482015560a090910151600590910155604080518281523360208201529081018490527f570c388d7e67c5385cdf07a09cec156d8a9c96dc1811ef22258a6cc440cfa639906060016103f7565b6109f76040518060c001604052806000815260200160006001600160a01b03168152602001606081526020016060815260200160608152602001606081525090565b6001600160a01b0380831660009081526020818152604091829020825160c081018452815481526001820154909416918401919091526002810180549192840191610a4190611fe1565b80601f0160208091040260200160405190810160405280929190818152602001828054610a6d90611fe1565b8015610aba5780601f10610a8f57610100808354040283529160200191610aba565b820191906000526020600020905b815481529060010190602001808311610a9d57829003601f168201915b50505050508152602001600382018054610ad390611fe1565b80601f0160208091040260200160405190810160405280929190818152602001828054610aff90611fe1565b8015610b4c5780601f10610b2157610100808354040283529160200191610b4c565b820191906000526020600020905b815481529060010190602001808311610b2f57829003601f168201915b50505050508152602001600482018054610b6590611fe1565b80601f0160208091040260200160405190810160405280929190818152602001828054610b9190611fe1565b8015610bde5780601f10610bb357610100808354040283529160200191610bde565b820191906000526020600020905b815481529060010190602001808311610bc157829003601f168201915b5050505050815260200160058201805480602002602001604051908101604052809291908181526020016000905b82821015610eea57838290600052602060002090600802016040518061010001604052908160008201548152602001600182018054610c4a90611fe1565b80601f0160208091040260200160405190810160405280929190818152602001828054610c7690611fe1565b8015610cc35780601f10610c9857610100808354040283529160200191610cc3565b820191906000526020600020905b815481529060010190602001808311610ca657829003601f168201915b50505050508152602001600282018054610cdc90611fe1565b80601f0160208091040260200160405190810160405280929190818152602001828054610d0890611fe1565b8015610d555780601f10610d2a57610100808354040283529160200191610d55565b820191906000526020600020905b815481529060010190602001808311610d3857829003601f168201915b505050505081526020016003820154815260200160048201548152602001600582015481526020016006820160009054906101000a90046001600160a01b03166001600160a01b03166001600160a01b0316815260200160078201805480602002602001604051908101604052809291908181526020016000905b82821015610ed35760008481526020908190206040805160c081018252600686029092018054835260018101546001600160a01b031693830193909352600283015490820152600382018054919291606084019190610e2e90611fe1565b80601f0160208091040260200160405190810160405280929190818152602001828054610e5a90611fe1565b8015610ea75780601f10610e7c57610100808354040283529160200191610ea7565b820191906000526020600020905b815481529060010190602001808311610e8a57829003601f168201915b505050505081526020016004820154815260200160058201548152505081526020019060010190610dd0565b505050508152505081526020019060010190610c0c565b505050915250909392505050565b336000818152602081905260409020600101546001600160a01b0316610f315760405163995cae5960e01b815260040160405180910390fd5b8160006001600160a01b0316600482604051610f4d9190612128565b908152604051908190036020019020546001600160a01b031614610f845760405163cd9c3c2960e01b815260040160405180910390fd5b33600090815260208190526040908190209051600491610fa991600290910190612144565b90815260405190819003602001812080546001600160a01b03191690553390600490610fd6908690612128565b908152604080516020928190038301902080546001600160a01b0319166001600160a01b03949094169390931790925533600090815290819052206002016104a68482612068565b60008181526002602052604090206001015481906001600160a01b0316331461105a57604051632585a1bd60e01b815260040160405180910390fd5b600082815260026020819052604082208281556001810180546001600160a01b0319169055908101829055906110936003830182611951565b506000600482018190556005909101555050565b6003546001600160a01b031633146110d25760405163aadd925760e01b815260040160405180910390fd5b6040516001600160a01b038216904780156108fc02916000818181858888f19350505050158015611107573d6000803e3d6000fd5b5050565b6003546001600160a01b031633146111365760405163aadd925760e01b815260040160405180910390fd5b600380546001600160a01b0319166001600160a01b0392909216919091179055565b60008281526002602052604090206001015482906001600160a01b0316331461119457604051632585a1bd60e01b815260040160405180910390fd5b6000838152600260205260409020600381016111b08482612068565b5050505050565b60008381526001602052604090206006015483906001600160a01b031633146111f357604051639ef3fcef60e01b815260040160405180910390fd5b60008481526001602081905260409091209081016112118582612068565b50600281016112208482612068565b505050505050565b8260006001600160a01b03166004826040516112449190612128565b908152604051908190036020019020546001600160a01b03161461127b5760405163cd9c3c2960e01b815260040160405180910390fd5b33600090815260208181526040808320815160c081018352815481526001828101546001600160a01b03169482019490945260028201805494959491938401916112c490611fe1565b80601f01602080910402602001604051908101604052809291908181526020018280546112f090611fe1565b801561133d5780601f106113125761010080835404028352916020019161133d565b820191906000526020600020905b81548152906001019060200180831161132057829003601f168201915b5050505050815260200160038201805461135690611fe1565b80601f016020809104026020016040519081016040528092919081815260200182805461138290611fe1565b80156113cf5780601f106113a4576101008083540402835291602001916113cf565b820191906000526020600020905b8154815290600101906020018083116113b257829003601f168201915b505050505081526020016004820180546113e890611fe1565b80601f016020809104026020016040519081016040528092919081815260200182805461141490611fe1565b80156114615780601f1061143657610100808354040283529160200191611461565b820191906000526020600020905b81548152906001019060200180831161144457829003601f168201915b5050505050815260200160058201805480602002602001604051908101604052809291908181526020016000905b8282101561176d578382906000526020600020906008020160405180610100016040529081600082015481526020016001820180546114cd90611fe1565b80601f01602080910402602001604051908101604052809291908181526020018280546114f990611fe1565b80156115465780601f1061151b57610100808354040283529160200191611546565b820191906000526020600020905b81548152906001019060200180831161152957829003601f168201915b5050505050815260200160028201805461155f90611fe1565b80601f016020809104026020016040519081016040528092919081815260200182805461158b90611fe1565b80156115d85780601f106115ad576101008083540402835291602001916115d8565b820191906000526020600020905b8154815290600101906020018083116115bb57829003601f168201915b505050505081526020016003820154815260200160048201548152602001600582015481526020016006820160009054906101000a90046001600160a01b03166001600160a01b03166001600160a01b0316815260200160078201805480602002602001604051908101604052809291908181526020016000905b828210156117565760008481526020908190206040805160c081018252600686029092018054835260018101546001600160a01b0316938301939093526002830154908201526003820180549192916060840191906116b190611fe1565b80601f01602080910402602001604051908101604052809291908181526020018280546116dd90611fe1565b801561172a5780601f106116ff5761010080835404028352916020019161172a565b820191906000526020600020905b81548152906001019060200180831161170d57829003601f168201915b505050505081526020016004820154815260200160058201548152505081526020019060010190611653565b50505050815250508152602001906001019061148f565b5050509152505082815233602082018190526040808301899052606083018890526080830187905251919250906004906117a8908990612128565b90815260405190819003602001812080546001600160a01b03939093166001600160a01b0319909316929092179091557fe929886768f674b51d2ff55807f2b3b291d9a9379119da230bafabd81d39393a9061180990849033908a906121ba565b60405180910390a1505050505050565b60008181526001602052604090206006015481906001600160a01b0316330361185557604051631902ab3960e01b815260040160405180910390fd5b336000908152600660209081526040808320858452909152902054829060ff1615611893576040516383dcc1c160e01b815260040160405180910390fd5b60008381526001602052604081206005018054916118b083611fba565b90915550503360008181526006602090815260408083208784528252808320805460ff191660019081179091556005805491820181559093527f036b6384b5eca791c62761152d0c79bb0604c104a5fb6f4eb0703f3154bb3db090920180546001600160a01b031916841790558151868152908101929092527fd1a80ff7224556d1f75ebb4aabff86e4c1b70cfedfc1c3e67eac663bc85b002791016103f7565b50805461195d90611fe1565b6000825580601f1061196d575050565b601f01602090049060005260206000209081019061198b91906119af565b50565b508054600082556006029060005260206000209081019061198b91906119c8565b5b808211156119c457600081556001016119b0565b5090565b808211156119c45760008082556001820180546001600160a01b0319169055600282018190556119fb6003830182611951565b5060006004820181905560058201556006016119c8565b600060208284031215611a2457600080fd5b5035919050565b634e487b7160e01b600052604160045260246000fd5b600082601f830112611a5257600080fd5b813567ffffffffffffffff80821115611a6d57611a6d611a2b565b604051601f8301601f19908116603f01168101908282118183101715611a9557611a95611a2b565b81604052838152866020858801011115611aae57600080fd5b836020870160208301376000602085830101528094505050505092915050565b60008060408385031215611ae157600080fd5b823567ffffffffffffffff80821115611af957600080fd5b611b0586838701611a41565b93506020850135915080821115611b1b57600080fd5b50611b2885828601611a41565b9150509250929050565b60008060408385031215611b4557600080fd5b82359150602083013567ffffffffffffffff811115611b6357600080fd5b611b2885828601611a41565b6001600160a01b038116811461198b57600080fd5b600060208284031215611b9657600080fd5b8135611ba181611b6f565b9392505050565b60005b83811015611bc3578181015183820152602001611bab565b50506000910152565b60008151808452611be4816020860160208601611ba8565b601f01601f19169290920160200192915050565b600082825180855260208086019550808260051b84010181860160005b84811015611c8e57858303601f19018952815180518452848101516001600160a01b0316858501526040808201519085015260608082015160c08287018190529190611c6383880182611bcc565b6080858101519089015260a09485015194909701939093525050509783019790830190600101611c15565b5090979650505050505050565b600082825180855260208086019550808260051b84010181860160005b84811015611c8e57601f19868403018952815161010081518552858201518187870152611ce782870182611bcc565b91505060408083015186830382880152611d018382611bcc565b606085810151908901526080808601519089015260a0808601519089015260c0808601516001600160a01b03169089015260e094850151888203958901959095529250611d52915082905083611bf8565b9a86019a9450505090830190600101611cb8565b602081528151602082015260018060a01b0360208301511660408201526000604083015160c06060840152611d9e60e0840182611bcc565b90506060840151601f1980858403016080860152611dbc8383611bcc565b925060808601519150808584030160a0860152611dd98383611bcc565b925060a08601519150808584030160c086015250611df78282611c9b565b95945050505050565b600060208284031215611e1257600080fd5b813567ffffffffffffffff811115611e2957600080fd5b611e3584828501611a41565b949350505050565b602081526000611ba16020830184611c9b565b600080600060608486031215611e6557600080fd5b83359250602084013567ffffffffffffffff80821115611e8457600080fd5b611e9087838801611a41565b93506040860135915080821115611ea657600080fd5b50611eb386828701611a41565b9150509250925092565b600060208083018184528085518083526040925060408601915060408160051b87010184880160005b83811015611f5d57888303603f19018552815180518452878101516001600160a01b031688850152868101518785015260608082015160c08287018190529190611f3283880182611bcc565b6080858101519089015260a09485015194909701939093525050509386019390860190600101611ee6565b509098975050505050505050565b600080600060608486031215611f8057600080fd5b833567ffffffffffffffff80821115611f9857600080fd5b611fa487838801611a41565b94506020860135915080821115611e8457600080fd5b600060018201611fda57634e487b7160e01b600052601160045260246000fd5b5060010190565b600181811c90821680611ff557607f821691505b60208210810361201557634e487b7160e01b600052602260045260246000fd5b50919050565b601f821115612063576000816000526020600020601f850160051c810160208610156120445750805b601f850160051c820191505b8181101561122057828155600101612050565b505050565b815167ffffffffffffffff81111561208257612082611a2b565b612096816120908454611fe1565b8461201b565b602080601f8311600181146120cb57600084156120b35750858301515b600019600386901b1c1916600185901b178555611220565b600085815260208120601f198616915b828110156120fa578886015182559484019460019091019084016120db565b50858210156121185787850151600019600388901b60f8161c191681555b5050505050600190811b01905550565b6000825161213a818460208701611ba8565b9190910192915050565b600080835461215281611fe1565b6001828116801561216a576001811461217f576121ae565b60ff19841687528215158302870194506121ae565b8760005260208060002060005b858110156121a55781548a82015290840190820161218c565b50505082870194505b50929695505050505050565b8381526001600160a01b0383166020820152606060408201819052600090611df790830184611bcc56fea26469706673582212205a5c2766118639ca4d0de189e82afe55dfc13a5317fc546dcb815c17d59264b364736f6c63430008180033","linkReferences":{}},"methodIdentifiers":{"changeOwner(address)":"a6f9dae1","changeUsername(string)":"77c846af","createComment(uint256,string)":"40a17985","createPost(string,string)":"392338f5","deleteComment(uint256)":"7d0b1026","deletePost(uint256)":"094cd5ee","downvote(uint256)":"f31fdad4","editComment(uint256,string)":"ad816029","editPost(uint256,string,string)":"bf0ac63c","getBalance()":"12065fe0","getUser(address)":"6f77926b","getUserPosts(address)":"9a2194a9","getUsersComment(address)":"c1852223","likeComment(uint256)":"012cc1e2","registerUser(string,string,string)":"d637dcfa","startDapp()":"95d2cc92","stopDapp()":"33aa01e9","transferContractBalance(address)":"96f11ac8","upvote(uint256)":"01ddf070"},"id":0}