{"abi":[{"type":"constructor","inputs":[{"name":"priceFeed","type":"address","internalType":"address"}],"stateMutability":"nonpayable"},{"type":"receive","stateMutability":"payable"},{"type":"function","name":"changeOwner","inputs":[{"name":"_newOwner","type":"address","internalType":"address"}],"outputs":[],"stateMutability":"nonpayable"},{"type":"function","name":"changeUsername","inputs":[{"name":"_newName","type":"string","internalType":"string"}],"outputs":[],"stateMutability":"nonpayable"},{"type":"function","name":"createComment","inputs":[{"name":"_postId","type":"uint256","internalType":"uint256"},{"name":"_content","type":"string","internalType":"string"}],"outputs":[],"stateMutability":"nonpayable"},{"type":"function","name":"createPost","inputs":[{"name":"_content","type":"string","internalType":"string"},{"name":"_imgHash","type":"string","internalType":"string"}],"outputs":[],"stateMutability":"nonpayable"},{"type":"function","name":"deleteComment","inputs":[{"name":"_postId","type":"uint256","internalType":"uint256"},{"name":"_commentId","type":"uint256","internalType":"uint256"}],"outputs":[],"stateMutability":"payable"},{"type":"function","name":"deletePost","inputs":[{"name":"_postId","type":"uint256","internalType":"uint256"}],"outputs":[],"stateMutability":"payable"},{"type":"function","name":"downvote","inputs":[{"name":"_postId","type":"uint256","internalType":"uint256"}],"outputs":[],"stateMutability":"nonpayable"},{"type":"function","name":"editComment","inputs":[{"name":"_postId","type":"uint256","internalType":"uint256"},{"name":"_commentId","type":"uint256","internalType":"uint256"},{"name":"_content","type":"string","internalType":"string"}],"outputs":[],"stateMutability":"payable"},{"type":"function","name":"editPost","inputs":[{"name":"_postId","type":"uint256","internalType":"uint256"},{"name":"_content","type":"string","internalType":"string"},{"name":"_imgHash","type":"string","internalType":"string"}],"outputs":[],"stateMutability":"payable"},{"type":"function","name":"eligible_users","inputs":[{"name":"","type":"address","internalType":"address"}],"outputs":[{"name":"","type":"bool","internalType":"bool"}],"stateMutability":"view"},{"type":"function","name":"getBalance","inputs":[],"outputs":[{"name":"","type":"uint256","internalType":"uint256"}],"stateMutability":"view"},{"type":"function","name":"getCommentByPostIdAndCommentId","inputs":[{"name":"_postId","type":"uint256","internalType":"uint256"},{"name":"_commentId","type":"uint256","internalType":"uint256"}],"outputs":[{"name":"","type":"tuple","internalType":"struct SocialMedia.Comment","components":[{"name":"commentId","type":"uint256","internalType":"uint256"},{"name":"author","type":"address","internalType":"address"},{"name":"postId","type":"uint256","internalType":"uint256"},{"name":"content","type":"string","internalType":"string"},{"name":"timestamp","type":"uint256","internalType":"uint256"},{"name":"likesCount","type":"uint256","internalType":"uint256"}]}],"stateMutability":"view"},{"type":"function","name":"getContractOwner","inputs":[],"outputs":[{"name":"","type":"address","internalType":"address"}],"stateMutability":"view"},{"type":"function","name":"getPostById","inputs":[{"name":"_postId","type":"uint256","internalType":"uint256"}],"outputs":[{"name":"","type":"tuple","internalType":"struct SocialMedia.Post","components":[{"name":"postId","type":"uint256","internalType":"uint256"},{"name":"content","type":"string","internalType":"string"},{"name":"imgHash","type":"string","internalType":"string"},{"name":"timestamp","type":"uint256","internalType":"uint256"},{"name":"upvotes","type":"uint256","internalType":"uint256"},{"name":"downvotes","type":"uint256","internalType":"uint256"},{"name":"author","type":"address","internalType":"address"}]}],"stateMutability":"view"},{"type":"function","name":"getUser","inputs":[{"name":"_userAddress","type":"address","internalType":"address"}],"outputs":[{"name":"","type":"tuple","internalType":"struct SocialMedia.User","components":[{"name":"id","type":"uint256","internalType":"uint256"},{"name":"userAddress","type":"address","internalType":"address"},{"name":"name","type":"string","internalType":"string"},{"name":"bio","type":"string","internalType":"string"},{"name":"profileImageHash","type":"string","internalType":"string"}]}],"stateMutability":"view"},{"type":"function","name":"getUserById","inputs":[{"name":"_userId","type":"uint256","internalType":"uint256"}],"outputs":[{"name":"","type":"tuple","internalType":"struct SocialMedia.User","components":[{"name":"id","type":"uint256","internalType":"uint256"},{"name":"userAddress","type":"address","internalType":"address"},{"name":"name","type":"string","internalType":"string"},{"name":"bio","type":"string","internalType":"string"},{"name":"profileImageHash","type":"string","internalType":"string"}]}],"stateMutability":"view"},{"type":"function","name":"getUserComments","inputs":[{"name":"_userAddress","type":"address","internalType":"address"}],"outputs":[{"name":"","type":"tuple[]","internalType":"struct SocialMedia.Comment[]","components":[{"name":"commentId","type":"uint256","internalType":"uint256"},{"name":"author","type":"address","internalType":"address"},{"name":"postId","type":"uint256","internalType":"uint256"},{"name":"content","type":"string","internalType":"string"},{"name":"timestamp","type":"uint256","internalType":"uint256"},{"name":"likesCount","type":"uint256","internalType":"uint256"}]}],"stateMutability":"view"},{"type":"function","name":"getUserNameFromAddress","inputs":[{"name":"_userAddress","type":"address","internalType":"address"}],"outputs":[{"name":"nameOfUser","type":"string","internalType":"string"}],"stateMutability":"view"},{"type":"function","name":"getUserPosts","inputs":[{"name":"_userAddress","type":"address","internalType":"address"}],"outputs":[{"name":"","type":"tuple[]","internalType":"struct SocialMedia.Post[]","components":[{"name":"postId","type":"uint256","internalType":"uint256"},{"name":"content","type":"string","internalType":"string"},{"name":"imgHash","type":"string","internalType":"string"},{"name":"timestamp","type":"uint256","internalType":"uint256"},{"name":"upvotes","type":"uint256","internalType":"uint256"},{"name":"downvotes","type":"uint256","internalType":"uint256"},{"name":"author","type":"address","internalType":"address"}]}],"stateMutability":"view"},{"type":"function","name":"identifyEligibleUsers","inputs":[],"outputs":[],"stateMutability":"nonpayable"},{"type":"function","name":"likeComment","inputs":[{"name":"_postId","type":"uint256","internalType":"uint256"},{"name":"_commentId","type":"uint256","internalType":"uint256"}],"outputs":[],"stateMutability":"nonpayable"},{"type":"function","name":"registerUser","inputs":[{"name":"_name","type":"string","internalType":"string"},{"name":"_bio","type":"string","internalType":"string"},{"name":"_profileImageHash","type":"string","internalType":"string"}],"outputs":[],"stateMutability":"nonpayable"},{"type":"function","name":"transferContractBalance","inputs":[{"name":"_to","type":"address","internalType":"address payable"}],"outputs":[],"stateMutability":"nonpayable"},{"type":"function","name":"upvote","inputs":[{"name":"_postId","type":"uint256","internalType":"uint256"}],"outputs":[],"stateMutability":"nonpayable"},{"type":"event","name":"CommentCreated","inputs":[{"name":"commentId","type":"uint256","indexed":true,"internalType":"uint256"},{"name":"postAuthor","type":"string","indexed":false,"internalType":"string"},{"name":"commentAuthor","type":"string","indexed":false,"internalType":"string"},{"name":"postId","type":"uint256","indexed":false,"internalType":"uint256"}],"anonymous":false},{"type":"event","name":"Downvoted","inputs":[{"name":"postId","type":"uint256","indexed":false,"internalType":"uint256"},{"name":"posthAuthorName","type":"string","indexed":false,"internalType":"string"},{"name":"downvoterName","type":"string","indexed":false,"internalType":"string"}],"anonymous":false},{"type":"event","name":"PostCreated","inputs":[{"name":"postId","type":"uint256","indexed":false,"internalType":"uint256"},{"name":"authorName","type":"string","indexed":false,"internalType":"string"}],"anonymous":false},{"type":"event","name":"PostEdited","inputs":[{"name":"postId","type":"uint256","indexed":false,"internalType":"uint256"},{"name":"authorName","type":"string","indexed":false,"internalType":"string"}],"anonymous":false},{"type":"event","name":"PostLiked","inputs":[{"name":"postId","type":"uint256","indexed":true,"internalType":"uint256"},{"name":"postAuthor","type":"address","indexed":true,"internalType":"address"},{"name":"liker","type":"address","indexed":true,"internalType":"address"}],"anonymous":false},{"type":"event","name":"Upvoted","inputs":[{"name":"postId","type":"uint256","indexed":false,"internalType":"uint256"},{"name":"posthAuthorName","type":"string","indexed":false,"internalType":"string"},{"name":"upvoterName","type":"string","indexed":false,"internalType":"string"}],"anonymous":false},{"type":"event","name":"UserRegistered","inputs":[{"name":"id","type":"uint256","indexed":true,"internalType":"uint256"},{"name":"userAddress","type":"address","indexed":true,"internalType":"address"},{"name":"name","type":"string","indexed":true,"internalType":"string"}],"anonymous":false},{"type":"error","name":"SocialMedia__AlreadyVoted","inputs":[]},{"type":"error","name":"SocialMedia__NotCommentOwner","inputs":[]},{"type":"error","name":"SocialMedia__NotOwner","inputs":[]},{"type":"error","name":"SocialMedia__NotPostOwner","inputs":[]},{"type":"error","name":"SocialMedia__OwnerCannotVote","inputs":[]},{"type":"error","name":"SocialMedia__PaymentNotEnough","inputs":[]},{"type":"error","name":"SocialMedia__UserDoesNotExist","inputs":[]},{"type":"error","name":"SocialMedia__UsernameAlreadyTaken","inputs":[]}],"bytecode":{"object":"0x60806040523480156200001157600080fd5b50604051620029af380380620029af833981016040819052620000349162000068565b60138054336001600160a01b031991821617909155600080549091166001600160a01b03929092169190911790556200009a565b6000602082840312156200007b57600080fd5b81516001600160a01b03811681146200009357600080fd5b9392505050565b61290580620000aa6000396000f3fe60806040526004361061014e5760003560e01c806364e95895116100b6578063a0e918211161006f578063a0e91821146103f5578063a6f9dae114610415578063bf0ac63c14610435578063d637dcfa14610448578063f31fdad414610468578063fa5611521461048857600080fd5b806364e958951461030e5780636ed6da9e1461033b5780636f77926b1461036857806377c846af1461038857806396f11ac8146103a85780639a2194a9146103c857600080fd5b806331a4bcb51161010857806331a4bcb514610239578063392338f51461024c57806340a179851461026c5780634296db5b1461028c578063442890d5146102b95780636372af84146102e157600080fd5b806232b2721461015a57806301ddf0701461019f578063094cd5ee146101c157806312065fe0146101d45780631eef3a32146101f75780632b3c6e221461020c57600080fd5b3661015557005b600080fd5b34801561016657600080fd5b5061018a610175366004612068565b60146020526000908152604090205460ff1681565b60405190151581526020015b60405180910390f35b3480156101ab57600080fd5b506101bf6101ba366004612085565b61049b565b005b6101bf6101cf366004612085565b6105da565b3480156101e057600080fd5b506101e96106e1565b604051908152602001610196565b34801561020357600080fd5b506101bf610714565b34801561021857600080fd5b5061022c610227366004612068565b6107cf565b6040516101969190612149565b6101bf6102473660046121ad565b610915565b34801561025857600080fd5b506101bf610267366004612272565b610a41565b34801561027857600080fd5b506101bf6102873660046122d6565b610c88565b34801561029857600080fd5b506102ac6102a73660046121ad565b610e07565b6040516101969190612313565b3480156102c557600080fd5b506013546040516001600160a01b039091168152602001610196565b3480156102ed57600080fd5b506103016102fc366004612068565b610f74565b6040516101969190612326565b34801561031a57600080fd5b5061032e610329366004612085565b611173565b60405161019691906123ae565b34801561034757600080fd5b5061035b610356366004612085565b61134e565b60405161019691906123c1565b34801561037457600080fd5b5061035b610383366004612068565b611578565b34801561039457600080fd5b506101bf6103a3366004612435565b6115cb565b3480156103b457600080fd5b506101bf6103c3366004612068565b6116a2565b3480156103d457600080fd5b506103e86103e3366004612068565b611706565b6040516101969190612472565b34801561040157600080fd5b506101bf6104103660046121ad565b6118d5565b34801561042157600080fd5b506101bf610430366004612068565b61197c565b6101bf6104433660046124c9565b6119c9565b34801561045457600080fd5b506101bf610463366004612536565b611af2565b34801561047457600080fd5b506101bf610483366004612085565b611d66565b6101bf610496366004612585565b611e95565b60008181526008602052604090205481906001600160a01b031633036104d457604051631902ab3960e01b815260040160405180910390fd5b336000908152600a60209081526040808320858452909152902054829060ff1615610512576040516383dcc1c160e01b815260040160405180910390fd5b60058381548110610525576105256125cb565b600091825260208220600460079092020101805491610543836125f7565b9091555050336000908152600a602090815260408083208684528252808320805460ff1916600117905560089091528120546001600160a01b03169061058882610f74565b9050600061059533610f74565b90507fa036d403d7739d8360e6171b2fbf68a0dfef33d6c6f432a236f6c3cdbb3cfee68683836040516105ca93929190612610565b60405180910390a1505050505050565b60008181526008602052604090205481906001600160a01b0316331461061357604051639ef3fcef60e01b815260040160405180910390fd5b600054674563918244f40000906106349034906001600160a01b0316611f62565b1015610652576040516217124560e91b815260040160405180910390fd5b6040518060200160405280600081525060058381548110610675576106756125cb565b9060005260206000209060070201600101908161069291906126cc565b506000600583815481106106a8576106a86125cb565b906000526020600020906007020160060160006101000a8154816001600160a01b0302191690836001600160a01b031602179055505050565b6013546000906001600160a01b0316331461070f5760405163aadd925760e01b815260040160405180910390fd5b504790565b60005b6001548110156107cc57600a600b60006001848154811061073a5761073a6125cb565b60009182526020808320600160059093020191909101546001600160a01b0316835282019290925260400190205411156107c45760016014600060018481548110610787576107876125cb565b60009182526020808320600592909202909101600101546001600160a01b031683528201929092526040019020805460ff19169115159190911790555b600101610717565b50565b6001600160a01b0381166000908152601060209081526040808320805482518185028101850190935280835260609492939192909184015b8282101561090a5760008481526020908190206040805160c081018252600686029092018054835260018101546001600160a01b03169383019390935260028301549082015260038201805491929160608401919061086590612645565b80601f016020809104026020016040519081016040528092919081815260200182805461089190612645565b80156108de5780601f106108b3576101008083540402835291602001916108de565b820191906000526020600020905b8154815290600101906020018083116108c157829003601f168201915b505050505081526020016004820154815260200160058201548152505081526020019060010190610807565b505050509050919050565b6000828152600f60209081526040808320848452909152902054829082906001600160a01b0316331461095b57604051632585a1bd60e01b815260040160405180910390fd5b600054674563918244f400009061097c9034906001600160a01b0316611f62565b101561099a576040516217124560e91b815260040160405180910390fd5b60408051602080820183526000808352878152600e909152919091208054859081106109c8576109c86125cb565b906000526020600020906006020160030190816109e591906126cc565b506000848152600e60205260408120805485908110610a0657610a066125cb565b906000526020600020906006020160010160006101000a8154816001600160a01b0302191690836001600160a01b0316021790555050505050565b336000818152600260205260409020600101546001600160a01b0316610a7a5760405163995cae5960e01b815260040160405180910390fd5b6005546040805160e0810182528281526020810186905290810184905242606082015260006080820181905260a082018190523360c08301819052610abe90610f74565b336000908152600b60209081526040822080546001818101835591845292829020865160079094020192835590850151929350849290820190610b0190826126cc565b5060408201516002820190610b1690826126cc565b50606082015160038201556080820151600482015560a082015160058083019190915560c090920151600690910180546001600160a01b0319166001600160a01b03909216919091179055805460018101825560009190915282517f036b6384b5eca791c62761152d0c79bb0604c104a5fb6f4eb0703f3154bb3db06007909202918201908155602084015184927f036b6384b5eca791c62761152d0c79bb0604c104a5fb6f4eb0703f3154bb3db10190610bd190826126cc565b5060408201516002820190610be690826126cc565b50606082015160038201556080820151600482015560a0820151600582015560c090910151600690910180546001600160a01b039092166001600160a01b03199283161790553360008181526007602090815260408083208890558783526008909152908190208054909316909117909155517f3d4335cbfac350aa27a3fa09060b4691656ecbe3033f4d953849c2f755f230d1906105ca908590849061278c565b336000818152600260205260409020600101546001600160a01b0316610cc15760405163995cae5960e01b815260040160405180910390fd5b6000838152600e6020908152604080832054815160c08101835281815233938101939093529082018690526060820185905242608083015260a0820183905291610d0a8661134e565b6040015190506000610d1b33610f74565b6000888152600f6020908152604080832088845282528083208054336001600160a01b0319918216179091558b8452600e83528184208054600181810183559186529484902089516006909602019485559288015192840180549091166001600160a01b03909316929092179091558501516002820155606085015191925084916003820190610dab90826126cc565b506080820151816004015560a082015181600501555050837f915184b2a0bfb3b827755b4e9e718f684996cef7b75bad20f26cd2fd67396c7783838a604051610df6939291906127a5565b60405180910390a250505050505050565b610e496040518060c001604052806000815260200160006001600160a01b03168152602001600081526020016060815260200160008152602001600081525090565b6000838152600e60205260409020805483908110610e6957610e696125cb565b90600052602060002090600602016040518060c0016040529081600082015481526020016001820160009054906101000a90046001600160a01b03166001600160a01b03166001600160a01b0316815260200160028201548152602001600382018054610ed590612645565b80601f0160208091040260200160405190810160405280929190818152602001828054610f0190612645565b8015610f4e5780601f10610f2357610100808354040283529160200191610f4e565b820191906000526020600020905b815481529060010190602001808311610f3157829003601f168201915b505050505081526020016004820154815260200160058201548152505090505b92915050565b6001600160a01b038082166000908152600260208181526040808420815160a0810183528154815260018201549096169286019290925291810180546060959384019190610fc190612645565b80601f0160208091040260200160405190810160405280929190818152602001828054610fed90612645565b801561103a5780601f1061100f5761010080835404028352916020019161103a565b820191906000526020600020905b81548152906001019060200180831161101d57829003601f168201915b5050505050815260200160038201805461105390612645565b80601f016020809104026020016040519081016040528092919081815260200182805461107f90612645565b80156110cc5780601f106110a1576101008083540402835291602001916110cc565b820191906000526020600020905b8154815290600101906020018083116110af57829003601f168201915b505050505081526020016004820180546110e590612645565b80601f016020809104026020016040519081016040528092919081815260200182805461111190612645565b801561115e5780601f106111335761010080835404028352916020019161115e565b820191906000526020600020905b81548152906001019060200180831161114157829003601f168201915b50505091909252505050604001519392505050565b6111bc6040518060e0016040528060008152602001606081526020016060815260200160008152602001600081526020016000815260200160006001600160a01b031681525090565b600582815481106111cf576111cf6125cb565b90600052602060002090600702016040518060e00160405290816000820154815260200160018201805461120290612645565b80601f016020809104026020016040519081016040528092919081815260200182805461122e90612645565b801561127b5780601f106112505761010080835404028352916020019161127b565b820191906000526020600020905b81548152906001019060200180831161125e57829003601f168201915b5050505050815260200160028201805461129490612645565b80601f01602080910402602001604051908101604052809291908181526020018280546112c090612645565b801561130d5780601f106112e25761010080835404028352916020019161130d565b820191906000526020600020905b8154815290600101906020018083116112f057829003601f168201915b50505091835250506003820154602082015260048201546040820152600582015460608201526006909101546001600160a01b031660809091015292915050565b61135661201b565b60018281548110611369576113696125cb565b90600052602060002090600502016040518060a0016040529081600082015481526020016001820160009054906101000a90046001600160a01b03166001600160a01b03166001600160a01b031681526020016002820180546113cb90612645565b80601f01602080910402602001604051908101604052809291908181526020018280546113f790612645565b80156114445780601f1061141957610100808354040283529160200191611444565b820191906000526020600020905b81548152906001019060200180831161142757829003601f168201915b5050505050815260200160038201805461145d90612645565b80601f016020809104026020016040519081016040528092919081815260200182805461148990612645565b80156114d65780601f106114ab576101008083540402835291602001916114d6565b820191906000526020600020905b8154815290600101906020018083116114b957829003601f168201915b505050505081526020016004820180546114ef90612645565b80601f016020809104026020016040519081016040528092919081815260200182805461151b90612645565b80156115685780601f1061153d57610100808354040283529160200191611568565b820191906000526020600020905b81548152906001019060200180831161154b57829003601f168201915b5050505050815250509050919050565b61158061201b565b6001600160a01b03808316600090815260026020818152604092839020835160a08101855281548152600182015490951691850191909152908101805491928401916113cb90612645565b336000818152600260205260409020600101546001600160a01b03166116045760405163995cae5960e01b815260040160405180910390fd5b8160006001600160a01b031660098260405161162091906127db565b908152604051908190036020019020546001600160a01b0316146116575760405163cd9c3c2960e01b815260040160405180910390fd5b33600090815260046020526040902054600180548591908390811061167e5761167e6125cb565b9060005260206000209060050201600201908161169b91906126cc565b5050505050565b6013546001600160a01b031633146116cd5760405163aadd925760e01b815260040160405180910390fd5b6040516001600160a01b038216904780156108fc02916000818181858888f19350505050158015611702573d6000803e3d6000fd5b5050565b6001600160a01b0381166000908152600b60209081526040808320805482518185028101850190935280835260609492939192909184015b8282101561090a57838290600052602060002090600702016040518060e00160405290816000820154815260200160018201805461177b90612645565b80601f01602080910402602001604051908101604052809291908181526020018280546117a790612645565b80156117f45780601f106117c9576101008083540402835291602001916117f4565b820191906000526020600020905b8154815290600101906020018083116117d757829003601f168201915b5050505050815260200160028201805461180d90612645565b80601f016020809104026020016040519081016040528092919081815260200182805461183990612645565b80156118865780601f1061185b57610100808354040283529160200191611886565b820191906000526020600020905b81548152906001019060200180831161186957829003601f168201915b5050509183525050600382015460208083019190915260048301546040830152600583015460608301526006909201546001600160a01b0316608090910152908252600192909201910161173e565b6000828152600e602052604090208054829081106118f5576118f56125cb565b600091825260208220600560069092020101805491611913836125f7565b90915550506000828152601160209081526040808320848452825280832033808552908352818420805460ff19166001908117909155958452601283528184209484529382528220805494850181558252902090910180546001600160a01b0319169091179055565b6013546001600160a01b031633146119a75760405163aadd925760e01b815260040160405180910390fd5b601380546001600160a01b0319166001600160a01b0392909216919091179055565b60008381526008602052604090205483906001600160a01b03163314611a0257604051639ef3fcef60e01b815260040160405180910390fd5b600054674563918244f4000090611a239034906001600160a01b0316611f62565b1015611a41576040516217124560e91b815260040160405180910390fd5b8260058581548110611a5557611a556125cb565b90600052602060002090600702016001019081611a7291906126cc565b508160058581548110611a8757611a876125cb565b90600052602060002090600702016002019081611aa491906126cc565b506000611ab033610f74565b90507f7009e6824c3ecb1321da2ebabc18901b48d900a97f978c5a93dd3ba8cfe590358582604051611ae392919061278c565b60405180910390a15050505050565b8260006001600160a01b0316600982604051611b0e91906127db565b908152604051908190036020019020546001600160a01b031614611b455760405163cd9c3c2960e01b815260040160405180910390fd5b6003805460009182611b56836125f7565b919050559050611b6461201b565b81815233602080830182815260408085018a8152606086018a905260808601899052600094855260029384905293208451815590516001820180546001600160a01b0319166001600160a01b039092169190911790559151839291820190611bcc90826126cc565b5060608201516003820190611be190826126cc565b5060808201516004820190611bf690826126cc565b5050336000818152600460205260409081902085905551909150600990611c1e9089906127db565b908152604080516020928190038301902080546001600160a01b03199081166001600160a01b039586161790915560018054808201825560009190915285517fb10e2d527612073b26eecdfd717e6a320cf44b4afac2b0732d9fcbe2b7fa0cf66005909202918201908155938601517fb10e2d527612073b26eecdfd717e6a320cf44b4afac2b0732d9fcbe2b7fa0cf782018054909316951694909417905583015183927fb10e2d527612073b26eecdfd717e6a320cf44b4afac2b0732d9fcbe2b7fa0cf80190611cef90826126cc565b5060608201516003820190611d0490826126cc565b5060808201516004820190611d1990826126cc565b50505085604051611d2a91906127db565b60405190819003812090339084907f8d76d60617424d83544323e2322cb8d86537451c9b3d991886ce6f4721e3865e90600090a4505050505050565b60008181526008602052604090205481906001600160a01b03163303611d9f57604051631902ab3960e01b815260040160405180910390fd5b336000908152600a60209081526040808320858452909152902054829060ff1615611ddd576040516383dcc1c160e01b815260040160405180910390fd5b60058381548110611df057611df06125cb565b600091825260208220600560079092020101805491611e0e836125f7565b9091555050336000908152600a602090815260408083208684528252808320805460ff1916600117905560089091528120546001600160a01b031690611e5382610f74565b90506000611e6033610f74565b90507fd7ad3e52dbe8b445d900fd8aa659c95d5b75bb6733c12e7f22d048963bd39ed58683836040516105ca93929190612610565b6000838152600f60209081526040808320858452909152902054839083906001600160a01b03163314611edb57604051632585a1bd60e01b815260040160405180910390fd5b600054674563918244f4000090611efc9034906001600160a01b0316611f62565b1015611f1a576040516217124560e91b815260040160405180910390fd5b6000858152600e60205260409020805484919086908110611f3d57611f3d6125cb565b90600052602060002090600602016003019081611f5a91906126cc565b505050505050565b600080611f6e83611f98565b90506000670de0b6b3a7640000611f8583876127f7565b611f8f919061280e565b95945050505050565b600080826001600160a01b031663feaf968c6040518163ffffffff1660e01b815260040160a060405180830381865afa158015611fd9573d6000803e3d6000fd5b505050506040513d601f19601f82011682018060405250810190611ffd919061284f565b505050915050806402540be400612014919061289f565b9392505050565b6040518060a001604052806000815260200160006001600160a01b031681526020016060815260200160608152602001606081525090565b6001600160a01b03811681146107cc57600080fd5b60006020828403121561207a57600080fd5b813561201481612053565b60006020828403121561209757600080fd5b5035919050565b60005b838110156120b95781810151838201526020016120a1565b50506000910152565b600081518084526120da81602086016020860161209e565b601f01601f19169290920160200192915050565b8051825260018060a01b036020820151166020830152604081015160408301526000606082015160c0606085015261212960c08501826120c2565b90506080830151608085015260a083015160a08501528091505092915050565b600060208083016020845280855180835260408601915060408160051b87010192506020870160005b828110156121a057603f1988860301845261218e8583516120ee565b94509285019290850190600101612172565b5092979650505050505050565b600080604083850312156121c057600080fd5b50508035926020909101359150565b634e487b7160e01b600052604160045260246000fd5b600082601f8301126121f657600080fd5b813567ffffffffffffffff80821115612211576122116121cf565b604051601f8301601f19908116603f01168101908282118183101715612239576122396121cf565b8160405283815286602085880101111561225257600080fd5b836020870160208301376000602085830101528094505050505092915050565b6000806040838503121561228557600080fd5b823567ffffffffffffffff8082111561229d57600080fd5b6122a9868387016121e5565b935060208501359150808211156122bf57600080fd5b506122cc858286016121e5565b9150509250929050565b600080604083850312156122e957600080fd5b82359150602083013567ffffffffffffffff81111561230757600080fd5b6122cc858286016121e5565b60208152600061201460208301846120ee565b60208152600061201460208301846120c2565b805182526000602082015160e0602085015261235860e08501826120c2565b90506040830151848203604086015261237182826120c2565b606085810151908701526080808601519087015260a0808601519087015260c0948501516001600160a01b03169490950193909352509192915050565b6020815260006120146020830184612339565b602081528151602082015260018060a01b0360208301511660408201526000604083015160a060608401526123f960c08401826120c2565b90506060840151601f198085840301608086015261241783836120c2565b925060808601519150808584030160a086015250611f8f82826120c2565b60006020828403121561244757600080fd5b813567ffffffffffffffff81111561245e57600080fd5b61246a848285016121e5565b949350505050565b600060208083016020845280855180835260408601915060408160051b87010192506020870160005b828110156121a057603f198886030184526124b7858351612339565b9450928501929085019060010161249b565b6000806000606084860312156124de57600080fd5b83359250602084013567ffffffffffffffff808211156124fd57600080fd5b612509878388016121e5565b9350604086013591508082111561251f57600080fd5b5061252c868287016121e5565b9150509250925092565b60008060006060848603121561254b57600080fd5b833567ffffffffffffffff8082111561256357600080fd5b61256f878388016121e5565b945060208601359150808211156124fd57600080fd5b60008060006060848603121561259a57600080fd5b8335925060208401359150604084013567ffffffffffffffff8111156125bf57600080fd5b61252c868287016121e5565b634e487b7160e01b600052603260045260246000fd5b634e487b7160e01b600052601160045260246000fd5b600060018201612609576126096125e1565b5060010190565b83815260606020820152600061262960608301856120c2565b828103604084015261263b81856120c2565b9695505050505050565b600181811c9082168061265957607f821691505b60208210810361267957634e487b7160e01b600052602260045260246000fd5b50919050565b601f8211156126c7576000816000526020600020601f850160051c810160208610156126a85750805b601f850160051c820191505b81811015611f5a578281556001016126b4565b505050565b815167ffffffffffffffff8111156126e6576126e66121cf565b6126fa816126f48454612645565b8461267f565b602080601f83116001811461272f57600084156127175750858301515b600019600386901b1c1916600185901b178555611f5a565b600085815260208120601f198616915b8281101561275e5788860151825594840194600190910190840161273f565b508582101561277c5787850151600019600388901b60f8161c191681555b5050505050600190811b01905550565b82815260406020820152600061246a60408301846120c2565b6060815260006127b860608301866120c2565b82810360208401526127ca81866120c2565b915050826040830152949350505050565b600082516127ed81846020870161209e565b9190910192915050565b8082028115828204841417610f6e57610f6e6125e1565b60008261282b57634e487b7160e01b600052601260045260246000fd5b500490565b805169ffffffffffffffffffff8116811461284a57600080fd5b919050565b600080600080600060a0868803121561286757600080fd5b61287086612830565b945060208601519350604086015192506060860151915061289360808701612830565b90509295509295909350565b80820260008212600160ff1b841416156128bb576128bb6125e1565b8181058314821517610f6e57610f6e6125e156fea2646970667358221220cb80afcdde486dd05eac56479c0573011c259c9c02eae22fdb0b083b359243d564736f6c63430008180033","linkReferences":{}},"methodIdentifiers":{"changeOwner(address)":"a6f9dae1","changeUsername(string)":"77c846af","createComment(uint256,string)":"40a17985","createPost(string,string)":"392338f5","deleteComment(uint256,uint256)":"31a4bcb5","deletePost(uint256)":"094cd5ee","downvote(uint256)":"f31fdad4","editComment(uint256,uint256,string)":"fa561152","editPost(uint256,string,string)":"bf0ac63c","eligible_users(address)":"0032b272","getBalance()":"12065fe0","getCommentByPostIdAndCommentId(uint256,uint256)":"4296db5b","getContractOwner()":"442890d5","getPostById(uint256)":"64e95895","getUser(address)":"6f77926b","getUserById(uint256)":"6ed6da9e","getUserComments(address)":"2b3c6e22","getUserNameFromAddress(address)":"6372af84","getUserPosts(address)":"9a2194a9","identifyEligibleUsers()":"1eef3a32","likeComment(uint256,uint256)":"a0e91821","registerUser(string,string,string)":"d637dcfa","transferContractBalance(address)":"96f11ac8","upvote(uint256)":"01ddf070"},"id":28}