{"abi":[{"type":"constructor","inputs":[{"name":"priceFeed","type":"address","internalType":"address"}],"stateMutability":"nonpayable"},{"type":"receive","stateMutability":"payable"},{"type":"function","name":"changeOwner","inputs":[{"name":"_newOwner","type":"address","internalType":"address"}],"outputs":[],"stateMutability":"nonpayable"},{"type":"function","name":"changeUsername","inputs":[{"name":"_newName","type":"string","internalType":"string"}],"outputs":[],"stateMutability":"nonpayable"},{"type":"function","name":"createComment","inputs":[{"name":"_postId","type":"uint256","internalType":"uint256"},{"name":"_content","type":"string","internalType":"string"}],"outputs":[],"stateMutability":"nonpayable"},{"type":"function","name":"createPost","inputs":[{"name":"_content","type":"string","internalType":"string"},{"name":"_imgHash","type":"string","internalType":"string"}],"outputs":[],"stateMutability":"nonpayable"},{"type":"function","name":"deleteComment","inputs":[{"name":"_commentId","type":"uint256","internalType":"uint256"}],"outputs":[],"stateMutability":"nonpayable"},{"type":"function","name":"deletePost","inputs":[{"name":"_postId","type":"uint256","internalType":"uint256"}],"outputs":[],"stateMutability":"payable"},{"type":"function","name":"downvote","inputs":[{"name":"_postId","type":"uint256","internalType":"uint256"}],"outputs":[],"stateMutability":"nonpayable"},{"type":"function","name":"editComment","inputs":[{"name":"_commentId","type":"uint256","internalType":"uint256"},{"name":"_content","type":"string","internalType":"string"}],"outputs":[],"stateMutability":"nonpayable"},{"type":"function","name":"editPost","inputs":[{"name":"_postId","type":"uint256","internalType":"uint256"},{"name":"_content","type":"string","internalType":"string"},{"name":"_imgHash","type":"string","internalType":"string"}],"outputs":[],"stateMutability":"payable"},{"type":"function","name":"getBalance","inputs":[],"outputs":[{"name":"","type":"uint256","internalType":"uint256"}],"stateMutability":"view"},{"type":"function","name":"getCommentByPostIdAndCommentId","inputs":[{"name":"_postId","type":"uint256","internalType":"uint256"},{"name":"_commentId","type":"uint256","internalType":"uint256"}],"outputs":[{"name":"","type":"tuple","internalType":"struct SocialMedia.Comment","components":[{"name":"commentId","type":"uint256","internalType":"uint256"},{"name":"author","type":"address","internalType":"address"},{"name":"postId","type":"uint256","internalType":"uint256"},{"name":"content","type":"string","internalType":"string"},{"name":"timestamp","type":"uint256","internalType":"uint256"},{"name":"likesCount","type":"uint256","internalType":"uint256"}]}],"stateMutability":"view"},{"type":"function","name":"getContractOwner","inputs":[],"outputs":[{"name":"","type":"address","internalType":"address"}],"stateMutability":"view"},{"type":"function","name":"getPostById","inputs":[{"name":"_postId","type":"uint256","internalType":"uint256"}],"outputs":[{"name":"","type":"tuple","internalType":"struct SocialMedia.Post","components":[{"name":"postId","type":"uint256","internalType":"uint256"},{"name":"content","type":"string","internalType":"string"},{"name":"imgHash","type":"string","internalType":"string"},{"name":"timestamp","type":"uint256","internalType":"uint256"},{"name":"upvotes","type":"uint256","internalType":"uint256"},{"name":"downvotes","type":"uint256","internalType":"uint256"},{"name":"author","type":"address","internalType":"address"}]}],"stateMutability":"view"},{"type":"function","name":"getUser","inputs":[{"name":"_userAddress","type":"address","internalType":"address"}],"outputs":[{"name":"","type":"tuple","internalType":"struct SocialMedia.User","components":[{"name":"id","type":"uint256","internalType":"uint256"},{"name":"userAddress","type":"address","internalType":"address"},{"name":"name","type":"string","internalType":"string"},{"name":"bio","type":"string","internalType":"string"},{"name":"profileImageHash","type":"string","internalType":"string"}]}],"stateMutability":"view"},{"type":"function","name":"getUserById","inputs":[{"name":"_userId","type":"uint256","internalType":"uint256"}],"outputs":[{"name":"","type":"tuple","internalType":"struct SocialMedia.User","components":[{"name":"id","type":"uint256","internalType":"uint256"},{"name":"userAddress","type":"address","internalType":"address"},{"name":"name","type":"string","internalType":"string"},{"name":"bio","type":"string","internalType":"string"},{"name":"profileImageHash","type":"string","internalType":"string"}]}],"stateMutability":"view"},{"type":"function","name":"getUserComments","inputs":[{"name":"_userAddress","type":"address","internalType":"address"}],"outputs":[{"name":"","type":"tuple[]","internalType":"struct SocialMedia.Comment[]","components":[{"name":"commentId","type":"uint256","internalType":"uint256"},{"name":"author","type":"address","internalType":"address"},{"name":"postId","type":"uint256","internalType":"uint256"},{"name":"content","type":"string","internalType":"string"},{"name":"timestamp","type":"uint256","internalType":"uint256"},{"name":"likesCount","type":"uint256","internalType":"uint256"}]}],"stateMutability":"view"},{"type":"function","name":"getUserNameFromAddress","inputs":[{"name":"_userAddress","type":"address","internalType":"address"}],"outputs":[{"name":"nameOfUser","type":"string","internalType":"string"}],"stateMutability":"view"},{"type":"function","name":"getUserPosts","inputs":[{"name":"_userAddress","type":"address","internalType":"address"}],"outputs":[{"name":"","type":"tuple[]","internalType":"struct SocialMedia.Post[]","components":[{"name":"postId","type":"uint256","internalType":"uint256"},{"name":"content","type":"string","internalType":"string"},{"name":"imgHash","type":"string","internalType":"string"},{"name":"timestamp","type":"uint256","internalType":"uint256"},{"name":"upvotes","type":"uint256","internalType":"uint256"},{"name":"downvotes","type":"uint256","internalType":"uint256"},{"name":"author","type":"address","internalType":"address"}]}],"stateMutability":"view"},{"type":"function","name":"likeComment","inputs":[{"name":"_commentId","type":"uint256","internalType":"uint256"}],"outputs":[],"stateMutability":"nonpayable"},{"type":"function","name":"registerUser","inputs":[{"name":"_name","type":"string","internalType":"string"},{"name":"_bio","type":"string","internalType":"string"},{"name":"_profileImageHash","type":"string","internalType":"string"}],"outputs":[],"stateMutability":"nonpayable"},{"type":"function","name":"startDapp","inputs":[],"outputs":[],"stateMutability":"nonpayable"},{"type":"function","name":"stopDapp","inputs":[],"outputs":[],"stateMutability":"nonpayable"},{"type":"function","name":"transferContractBalance","inputs":[{"name":"_to","type":"address","internalType":"address payable"}],"outputs":[],"stateMutability":"nonpayable"},{"type":"function","name":"upvote","inputs":[{"name":"_postId","type":"uint256","internalType":"uint256"}],"outputs":[],"stateMutability":"nonpayable"},{"type":"event","name":"CommentCreated","inputs":[{"name":"commentId","type":"uint256","indexed":true,"internalType":"uint256"},{"name":"postAuthor","type":"string","indexed":false,"internalType":"string"},{"name":"commentAuthor","type":"string","indexed":false,"internalType":"string"},{"name":"postId","type":"uint256","indexed":false,"internalType":"uint256"}],"anonymous":false},{"type":"event","name":"Downvoted","inputs":[{"name":"postId","type":"uint256","indexed":false,"internalType":"uint256"},{"name":"posthAuthorName","type":"string","indexed":false,"internalType":"string"},{"name":"downvoterName","type":"string","indexed":false,"internalType":"string"}],"anonymous":false},{"type":"event","name":"PostCreated","inputs":[{"name":"postId","type":"uint256","indexed":false,"internalType":"uint256"},{"name":"authorName","type":"string","indexed":false,"internalType":"string"}],"anonymous":false},{"type":"event","name":"PostEdited","inputs":[{"name":"postId","type":"uint256","indexed":false,"internalType":"uint256"},{"name":"authorName","type":"string","indexed":false,"internalType":"string"}],"anonymous":false},{"type":"event","name":"PostLiked","inputs":[{"name":"postId","type":"uint256","indexed":true,"internalType":"uint256"},{"name":"postAuthor","type":"address","indexed":true,"internalType":"address"},{"name":"liker","type":"address","indexed":true,"internalType":"address"}],"anonymous":false},{"type":"event","name":"Upvoted","inputs":[{"name":"postId","type":"uint256","indexed":false,"internalType":"uint256"},{"name":"posthAuthorName","type":"string","indexed":false,"internalType":"string"},{"name":"upvoterName","type":"string","indexed":false,"internalType":"string"}],"anonymous":false},{"type":"event","name":"UserRegistered","inputs":[{"name":"id","type":"uint256","indexed":true,"internalType":"uint256"},{"name":"userAddress","type":"address","indexed":true,"internalType":"address"},{"name":"name","type":"string","indexed":true,"internalType":"string"}],"anonymous":false},{"type":"error","name":"SocialMedia__AlreadyVoted","inputs":[]},{"type":"error","name":"SocialMedia__NotCommentOwner","inputs":[]},{"type":"error","name":"SocialMedia__NotOwner","inputs":[]},{"type":"error","name":"SocialMedia__NotPostOwner","inputs":[]},{"type":"error","name":"SocialMedia__OwnerCannotVote","inputs":[]},{"type":"error","name":"SocialMedia__PaymentNotEnough","inputs":[]},{"type":"error","name":"SocialMedia__UserDoesNotExist","inputs":[]},{"type":"error","name":"SocialMedia__UsernameAlreadyTaken","inputs":[]}],"bytecode":{"object":"0x60806040523480156200001157600080fd5b506040516200275f3803806200275f833981016040819052620000349162000068565b60068054336001600160a01b031991821617909155600080549091166001600160a01b03929092169190911790556200009a565b6000602082840312156200007b57600080fd5b81516001600160a01b03811681146200009357600080fd5b9392505050565b6126b580620000aa6000396000f3fe60806040526004361061014f5760003560e01c80636ed6da9e116100b65780639a2194a91161006f5780639a2194a9146103b6578063a6f9dae1146103e3578063ad81602914610403578063bf0ac63c14610423578063d637dcfa14610436578063f31fdad41461045657600080fd5b80636ed6da9e146103095780636f77926b1461033657806377c846af146103565780637d0b10261461037657806395d2cc921461020557806396f11ac81461039657600080fd5b8063392338f511610108578063392338f51461021a57806340a179851461023a5780634296db5b1461025a578063442890d5146102875780636372af84146102af57806364e95895146102dc57600080fd5b8063012cc1e21461015b57806301ddf0701461017d578063094cd5ee1461019d57806312065fe0146101b05780632b3c6e22146101d857806333aa01e91461020557600080fd5b3661015657005b600080fd5b34801561016757600080fd5b5061017b610176366004611e45565b610476565b005b34801561018957600080fd5b5061017b610198366004611e45565b61049b565b61017b6101ab366004611e45565b6105da565b3480156101bc57600080fd5b506101c56106e1565b6040519081526020015b60405180910390f35b3480156101e457600080fd5b506101f86101f3366004611e73565b610714565b6040516101cf9190611f3b565b34801561021157600080fd5b5061017b61085a565b34801561022657600080fd5b5061017b610235366004612042565b610887565b34801561024657600080fd5b5061017b6102553660046120a6565b610acf565b34801561026657600080fd5b5061027a6102753660046120e3565b610c31565b6040516101cf9190612105565b34801561029357600080fd5b506006546040516001600160a01b0390911681526020016101cf565b3480156102bb57600080fd5b506102cf6102ca366004611e73565b610d9e565b6040516101cf9190612118565b3480156102e857600080fd5b506102fc6102f7366004611e45565b610f9d565b6040516101cf91906121a0565b34801561031557600080fd5b50610329610324366004611e45565b611178565b6040516101cf91906121b3565b34801561034257600080fd5b50610329610351366004611e73565b6113a2565b34801561036257600080fd5b5061017b610371366004612227565b6113f3565b34801561038257600080fd5b5061017b610391366004611e45565b6114cb565b3480156103a257600080fd5b5061017b6103b1366004611e73565b611555565b3480156103c257600080fd5b506103d66103d1366004611e73565b6115b9565b6040516101cf9190612264565b3480156103ef57600080fd5b5061017b6103fe366004611e73565b611788565b34801561040f57600080fd5b5061017b61041e3660046120a6565b6117d5565b61017b6104313660046122bb565b61182f565b34801561044257600080fd5b5061017b610451366004612328565b611958565b34801561046257600080fd5b5061017b610471366004611e45565b611bcf565b60008181526003602052604081206005018054916104938361238d565b919050555050565b60008181526005602052604090205481906001600160a01b031633036104d457604051631902ab3960e01b815260040160405180910390fd5b336000908152600860209081526040808320858452909152902054829060ff1615610512576040516383dcc1c160e01b815260040160405180910390fd5b60108381548110610525576105256123a6565b6000918252602082206004600790920201018054916105438361238d565b90915550503360009081526008602090815260408083208684528252808320805460ff1916600117905560059091528120546001600160a01b03169061058882610d9e565b9050600061059533610d9e565b90507fa036d403d7739d8360e6171b2fbf68a0dfef33d6c6f432a236f6c3cdbb3cfee68683836040516105ca939291906123bc565b60405180910390a1505050505050565b60008181526005602052604090205481906001600160a01b0316331461061357604051639ef3fcef60e01b815260040160405180910390fd5b600054674563918244f40000906106349034906001600160a01b0316611cfe565b1015610652576040516217124560e91b815260040160405180910390fd5b6040518060200160405280600081525060108381548110610675576106756123a6565b90600052602060002090600702016001019081610692919061247c565b506000601083815481106106a8576106a86123a6565b906000526020600020906007020160060160006101000a8154816001600160a01b0302191690836001600160a01b031602179055505050565b6006546000906001600160a01b0316331461070f5760405163aadd925760e01b815260040160405180910390fd5b504790565b6001600160a01b0381166000908152600c60209081526040808320805482518185028101850190935280835260609492939192909184015b8282101561084f5760008481526020908190206040805160c081018252600686029092018054835260018101546001600160a01b0316938301939093526002830154908201526003820180549192916060840191906107aa906123f1565b80601f01602080910402602001604051908101604052809291908181526020018280546107d6906123f1565b80156108235780601f106107f857610100808354040283529160200191610823565b820191906000526020600020905b81548152906001019060200180831161080657829003601f168201915b50505050508152602001600482015481526020016005820154815250508152602001906001019061074c565b505050509050919050565b6006546001600160a01b031633146108855760405163aadd925760e01b815260040160405180910390fd5b565b33600081815260016020819052604090912001546001600160a01b03166108c15760405163995cae5960e01b815260040160405180910390fd5b6010546040805160e0810182528281526020810186905290810184905242606082015260006080820181905260a082018190523360c0830181905261090590610d9e565b336000908152600960209081526040822080546001818101835591845292829020865160079094020192835590850151929350849290820190610948908261247c565b506040820151600282019061095d908261247c565b50606082015160038201556080820151600482015560a0820151600582015560c090910151600690910180546001600160a01b0319166001600160a01b039092169190911790556010805460018101825560009190915282517f1b6847dc741a1b0cd08d278845f9d819d87b734759afb55fe2de5cb82a9ae6726007909202918201908155602084015184927f1b6847dc741a1b0cd08d278845f9d819d87b734759afb55fe2de5cb82a9ae6730190610a16908261247c565b5060408201516002820190610a2b908261247c565b5060608201516003820155608082015160048083019190915560a083015160058084019190915560c090930151600690920180546001600160a01b039093166001600160a01b03199384161790553360008181526020928352604080822089905588825294909252908390208054909216179055517f3d4335cbfac350aa27a3fa09060b4691656ecbe3033f4d953849c2f755f230d1906105ca908590849061253c565b33600081815260016020819052604090912001546001600160a01b0316610b095760405163995cae5960e01b815260040160405180910390fd5b6000838152600b6020908152604080832054815160c08101835281815233938101939093529082018690526060820185905242608083015260a0820183905291610b5286611178565b6040015190506000610b6333610d9e565b6000888152600b602090815260408083208054600180820183559185529383902088516006909502019384559187015191830180546001600160a01b0319166001600160a01b03909316929092179091558501516002820155606085015191925084916003820190610bd5908261247c565b506080820151816004015560a082015181600501555050837f915184b2a0bfb3b827755b4e9e718f684996cef7b75bad20f26cd2fd67396c7783838a604051610c2093929190612555565b60405180910390a250505050505050565b610c736040518060c001604052806000815260200160006001600160a01b03168152602001600081526020016060815260200160008152602001600081525090565b6000838152600b60205260409020805483908110610c9357610c936123a6565b90600052602060002090600602016040518060c0016040529081600082015481526020016001820160009054906101000a90046001600160a01b03166001600160a01b03166001600160a01b0316815260200160028201548152602001600382018054610cff906123f1565b80601f0160208091040260200160405190810160405280929190818152602001828054610d2b906123f1565b8015610d785780601f10610d4d57610100808354040283529160200191610d78565b820191906000526020600020905b815481529060010190602001808311610d5b57829003601f168201915b505050505081526020016004820154815260200160058201548152505090505b92915050565b6001600160a01b038082166000908152600160208181526040808420815160a0810183528154815293810154909516918301919091526002840180546060959284019190610deb906123f1565b80601f0160208091040260200160405190810160405280929190818152602001828054610e17906123f1565b8015610e645780601f10610e3957610100808354040283529160200191610e64565b820191906000526020600020905b815481529060010190602001808311610e4757829003601f168201915b50505050508152602001600382018054610e7d906123f1565b80601f0160208091040260200160405190810160405280929190818152602001828054610ea9906123f1565b8015610ef65780601f10610ecb57610100808354040283529160200191610ef6565b820191906000526020600020905b815481529060010190602001808311610ed957829003601f168201915b50505050508152602001600482018054610f0f906123f1565b80601f0160208091040260200160405190810160405280929190818152602001828054610f3b906123f1565b8015610f885780601f10610f5d57610100808354040283529160200191610f88565b820191906000526020600020905b815481529060010190602001808311610f6b57829003601f168201915b50505091909252505050604001519392505050565b610fe66040518060e0016040528060008152602001606081526020016060815260200160008152602001600081526020016000815260200160006001600160a01b031681525090565b60108281548110610ff957610ff96123a6565b90600052602060002090600702016040518060e00160405290816000820154815260200160018201805461102c906123f1565b80601f0160208091040260200160405190810160405280929190818152602001828054611058906123f1565b80156110a55780601f1061107a576101008083540402835291602001916110a5565b820191906000526020600020905b81548152906001019060200180831161108857829003601f168201915b505050505081526020016002820180546110be906123f1565b80601f01602080910402602001604051908101604052809291908181526020018280546110ea906123f1565b80156111375780601f1061110c57610100808354040283529160200191611137565b820191906000526020600020905b81548152906001019060200180831161111a57829003601f168201915b50505091835250506003820154602082015260048201546040820152600582015460608201526006909101546001600160a01b031660809091015292915050565b611180611db7565b600f8281548110611193576111936123a6565b90600052602060002090600502016040518060a0016040529081600082015481526020016001820160009054906101000a90046001600160a01b03166001600160a01b03166001600160a01b031681526020016002820180546111f5906123f1565b80601f0160208091040260200160405190810160405280929190818152602001828054611221906123f1565b801561126e5780601f106112435761010080835404028352916020019161126e565b820191906000526020600020905b81548152906001019060200180831161125157829003601f168201915b50505050508152602001600382018054611287906123f1565b80601f01602080910402602001604051908101604052809291908181526020018280546112b3906123f1565b80156113005780601f106112d557610100808354040283529160200191611300565b820191906000526020600020905b8154815290600101906020018083116112e357829003601f168201915b50505050508152602001600482018054611319906123f1565b80601f0160208091040260200160405190810160405280929190818152602001828054611345906123f1565b80156113925780601f1061136757610100808354040283529160200191611392565b820191906000526020600020905b81548152906001019060200180831161137557829003601f168201915b5050505050815250509050919050565b6113aa611db7565b6001600160a01b03808316600090815260016020818152604092839020835160a0810185528154815292810154909416908201526002830180549193928401916111f5906123f1565b33600081815260016020819052604090912001546001600160a01b031661142d5760405163995cae5960e01b815260040160405180910390fd5b8160006001600160a01b0316600782604051611449919061258b565b908152604051908190036020019020546001600160a01b0316146114805760405163cd9c3c2960e01b815260040160405180910390fd5b336000908152600e6020526040902054600f8054859190839081106114a7576114a76123a6565b906000526020600020906005020160020190816114c4919061247c565b5050505050565b60008181526003602052604090206001015481906001600160a01b0316331461150757604051632585a1bd60e01b815260040160405180910390fd5b600082815260036020819052604082208281556001810180546001600160a01b031916905560028101839055919061154190830182611def565b506000600482018190556005909101555050565b6006546001600160a01b031633146115805760405163aadd925760e01b815260040160405180910390fd5b6040516001600160a01b038216904780156108fc02916000818181858888f193505050501580156115b5573d6000803e3d6000fd5b5050565b6001600160a01b0381166000908152600960209081526040808320805482518185028101850190935280835260609492939192909184015b8282101561084f57838290600052602060002090600702016040518060e00160405290816000820154815260200160018201805461162e906123f1565b80601f016020809104026020016040519081016040528092919081815260200182805461165a906123f1565b80156116a75780601f1061167c576101008083540402835291602001916116a7565b820191906000526020600020905b81548152906001019060200180831161168a57829003601f168201915b505050505081526020016002820180546116c0906123f1565b80601f01602080910402602001604051908101604052809291908181526020018280546116ec906123f1565b80156117395780601f1061170e57610100808354040283529160200191611739565b820191906000526020600020905b81548152906001019060200180831161171c57829003601f168201915b5050509183525050600382015460208083019190915260048301546040830152600583015460608301526006909201546001600160a01b031660809091015290825260019290920191016115f1565b6006546001600160a01b031633146117b35760405163aadd925760e01b815260040160405180910390fd5b600680546001600160a01b0319166001600160a01b0392909216919091179055565b60008281526003602052604090206001015482906001600160a01b0316331461181157604051632585a1bd60e01b815260040160405180910390fd5b60008381526003602081905260409091209081016114c4848261247c565b60008381526005602052604090205483906001600160a01b0316331461186857604051639ef3fcef60e01b815260040160405180910390fd5b600054674563918244f40000906118899034906001600160a01b0316611cfe565b10156118a7576040516217124560e91b815260040160405180910390fd5b82601085815481106118bb576118bb6123a6565b906000526020600020906007020160010190816118d8919061247c565b5081601085815481106118ed576118ed6123a6565b9060005260206000209060070201600201908161190a919061247c565b50600061191633610d9e565b90507f7009e6824c3ecb1321da2ebabc18901b48d900a97f978c5a93dd3ba8cfe59035858260405161194992919061253c565b60405180910390a15050505050565b8260006001600160a01b0316600782604051611974919061258b565b908152604051908190036020019020546001600160a01b0316146119ab5760405163cd9c3c2960e01b815260040160405180910390fd5b600d8054600091826119bc8361238d565b9190505590506119ca611db7565b81815233602080830182815260408085018a8152606086018a9052608086018990526000948552600193849052932084518155905191810180546001600160a01b0319166001600160a01b039093169290921790915590518291906002820190611a34908261247c565b5060608201516003820190611a49908261247c565b5060808201516004820190611a5e908261247c565b5050336000818152600e60205260409081902085905551909150600790611a8690899061258b565b908152604080516020928190038301902080546001600160a01b03199081166001600160a01b0395861617909155600f805460018101825560009190915285517f8d1108e10bcb7c27dddfc02ed9d693a074039d026cf4ea4240b40f7d581ac8026005909202918201908155938601517f8d1108e10bcb7c27dddfc02ed9d693a074039d026cf4ea4240b40f7d581ac80382018054909316951694909417905583015183927f8d1108e10bcb7c27dddfc02ed9d693a074039d026cf4ea4240b40f7d581ac8040190611b58908261247c565b5060608201516003820190611b6d908261247c565b5060808201516004820190611b82908261247c565b50505085604051611b93919061258b565b60405190819003812090339084907f8d76d60617424d83544323e2322cb8d86537451c9b3d991886ce6f4721e3865e90600090a4505050505050565b60008181526005602052604090205481906001600160a01b03163303611c0857604051631902ab3960e01b815260040160405180910390fd5b336000908152600860209081526040808320858452909152902054829060ff1615611c46576040516383dcc1c160e01b815260040160405180910390fd5b60108381548110611c5957611c596123a6565b600091825260208220600560079092020101805491611c778361238d565b90915550503360009081526008602090815260408083208684528252808320805460ff1916600117905560059091528120546001600160a01b031690611cbc82610d9e565b90506000611cc933610d9e565b90507fd7ad3e52dbe8b445d900fd8aa659c95d5b75bb6733c12e7f22d048963bd39ed58683836040516105ca939291906123bc565b600080611d0a83611d34565b90506000670de0b6b3a7640000611d2183876125a7565b611d2b91906125be565b95945050505050565b600080826001600160a01b031663feaf968c6040518163ffffffff1660e01b815260040160a060405180830381865afa158015611d75573d6000803e3d6000fd5b505050506040513d601f19601f82011682018060405250810190611d9991906125ff565b505050915050806402540be400611db0919061264f565b9392505050565b6040518060a001604052806000815260200160006001600160a01b031681526020016060815260200160608152602001606081525090565b508054611dfb906123f1565b6000825580601f10611e0b575050565b601f016020900490600052602060002090810190611e299190611e2c565b50565b5b80821115611e415760008155600101611e2d565b5090565b600060208284031215611e5757600080fd5b5035919050565b6001600160a01b0381168114611e2957600080fd5b600060208284031215611e8557600080fd5b8135611db081611e5e565b60005b83811015611eab578181015183820152602001611e93565b50506000910152565b60008151808452611ecc816020860160208601611e90565b601f01601f19169290920160200192915050565b8051825260018060a01b036020820151166020830152604081015160408301526000606082015160c06060850152611f1b60c0850182611eb4565b90506080830151608085015260a083015160a08501528091505092915050565b600060208083016020845280855180835260408601915060408160051b87010192506020870160005b82811015611f9257603f19888603018452611f80858351611ee0565b94509285019290850190600101611f64565b5092979650505050505050565b634e487b7160e01b600052604160045260246000fd5b600082601f830112611fc657600080fd5b813567ffffffffffffffff80821115611fe157611fe1611f9f565b604051601f8301601f19908116603f0116810190828211818310171561200957612009611f9f565b8160405283815286602085880101111561202257600080fd5b836020870160208301376000602085830101528094505050505092915050565b6000806040838503121561205557600080fd5b823567ffffffffffffffff8082111561206d57600080fd5b61207986838701611fb5565b9350602085013591508082111561208f57600080fd5b5061209c85828601611fb5565b9150509250929050565b600080604083850312156120b957600080fd5b82359150602083013567ffffffffffffffff8111156120d757600080fd5b61209c85828601611fb5565b600080604083850312156120f657600080fd5b50508035926020909101359150565b602081526000611db06020830184611ee0565b602081526000611db06020830184611eb4565b805182526000602082015160e0602085015261214a60e0850182611eb4565b9050604083015184820360408601526121638282611eb4565b606085810151908701526080808601519087015260a0808601519087015260c0948501516001600160a01b03169490950193909352509192915050565b602081526000611db0602083018461212b565b602081528151602082015260018060a01b0360208301511660408201526000604083015160a060608401526121eb60c0840182611eb4565b90506060840151601f19808584030160808601526122098383611eb4565b925060808601519150808584030160a086015250611d2b8282611eb4565b60006020828403121561223957600080fd5b813567ffffffffffffffff81111561225057600080fd5b61225c84828501611fb5565b949350505050565b600060208083016020845280855180835260408601915060408160051b87010192506020870160005b82811015611f9257603f198886030184526122a985835161212b565b9450928501929085019060010161228d565b6000806000606084860312156122d057600080fd5b83359250602084013567ffffffffffffffff808211156122ef57600080fd5b6122fb87838801611fb5565b9350604086013591508082111561231157600080fd5b5061231e86828701611fb5565b9150509250925092565b60008060006060848603121561233d57600080fd5b833567ffffffffffffffff8082111561235557600080fd5b61236187838801611fb5565b945060208601359150808211156122ef57600080fd5b634e487b7160e01b600052601160045260246000fd5b60006001820161239f5761239f612377565b5060010190565b634e487b7160e01b600052603260045260246000fd5b8381526060602082015260006123d56060830185611eb4565b82810360408401526123e78185611eb4565b9695505050505050565b600181811c9082168061240557607f821691505b60208210810361242557634e487b7160e01b600052602260045260246000fd5b50919050565b601f821115612477576000816000526020600020601f850160051c810160208610156124545750805b601f850160051c820191505b8181101561247357828155600101612460565b5050505b505050565b815167ffffffffffffffff81111561249657612496611f9f565b6124aa816124a484546123f1565b8461242b565b602080601f8311600181146124df57600084156124c75750858301515b600019600386901b1c1916600185901b178555612473565b600085815260208120601f198616915b8281101561250e578886015182559484019460019091019084016124ef565b508582101561252c5787850151600019600388901b60f8161c191681555b5050505050600190811b01905550565b82815260406020820152600061225c6040830184611eb4565b6060815260006125686060830186611eb4565b828103602084015261257a8186611eb4565b915050826040830152949350505050565b6000825161259d818460208701611e90565b9190910192915050565b8082028115828204841417610d9857610d98612377565b6000826125db57634e487b7160e01b600052601260045260246000fd5b500490565b805169ffffffffffffffffffff811681146125fa57600080fd5b919050565b600080600080600060a0868803121561261757600080fd5b612620866125e0565b9450602086015193506040860151925060608601519150612643608087016125e0565b90509295509295909350565b80820260008212600160ff1b8414161561266b5761266b612377565b8181058314821517610d9857610d9861237756fea2646970667358221220fede1df48f0547c14a40b2ec055061197cc21e999d0253f7214555acc05656a864736f6c63430008180033","linkReferences":{}},"methodIdentifiers":{"changeOwner(address)":"a6f9dae1","changeUsername(string)":"77c846af","createComment(uint256,string)":"40a17985","createPost(string,string)":"392338f5","deleteComment(uint256)":"7d0b1026","deletePost(uint256)":"094cd5ee","downvote(uint256)":"f31fdad4","editComment(uint256,string)":"ad816029","editPost(uint256,string,string)":"bf0ac63c","getBalance()":"12065fe0","getCommentByPostIdAndCommentId(uint256,uint256)":"4296db5b","getContractOwner()":"442890d5","getPostById(uint256)":"64e95895","getUser(address)":"6f77926b","getUserById(uint256)":"6ed6da9e","getUserComments(address)":"2b3c6e22","getUserNameFromAddress(address)":"6372af84","getUserPosts(address)":"9a2194a9","likeComment(uint256)":"012cc1e2","registerUser(string,string,string)":"d637dcfa","startDapp()":"95d2cc92","stopDapp()":"33aa01e9","transferContractBalance(address)":"96f11ac8","upvote(uint256)":"01ddf070"},"id":28}