{"abi":[{"type":"constructor","inputs":[{"name":"priceFeed","type":"address","internalType":"address"}],"stateMutability":"nonpayable"},{"type":"receive","stateMutability":"payable"},{"type":"function","name":"changeOwner","inputs":[{"name":"_newOwner","type":"address","internalType":"address"}],"outputs":[],"stateMutability":"nonpayable"},{"type":"function","name":"changeUsername","inputs":[{"name":"_newName","type":"string","internalType":"string"}],"outputs":[],"stateMutability":"nonpayable"},{"type":"function","name":"createComment","inputs":[{"name":"_postAuthor","type":"address","internalType":"address"},{"name":"_postId","type":"uint256","internalType":"uint256"},{"name":"_content","type":"string","internalType":"string"}],"outputs":[],"stateMutability":"nonpayable"},{"type":"function","name":"createPost","inputs":[{"name":"_content","type":"string","internalType":"string"},{"name":"_imgHash","type":"string","internalType":"string"}],"outputs":[],"stateMutability":"nonpayable"},{"type":"function","name":"deleteComment","inputs":[{"name":"_commentId","type":"uint256","internalType":"uint256"}],"outputs":[],"stateMutability":"nonpayable"},{"type":"function","name":"deletePost","inputs":[{"name":"_postId","type":"uint256","internalType":"uint256"}],"outputs":[],"stateMutability":"payable"},{"type":"function","name":"downvote","inputs":[{"name":"_postId","type":"uint256","internalType":"uint256"}],"outputs":[],"stateMutability":"nonpayable"},{"type":"function","name":"editComment","inputs":[{"name":"_commentId","type":"uint256","internalType":"uint256"},{"name":"_content","type":"string","internalType":"string"}],"outputs":[],"stateMutability":"nonpayable"},{"type":"function","name":"editPost","inputs":[{"name":"_postId","type":"uint256","internalType":"uint256"},{"name":"_content","type":"string","internalType":"string"},{"name":"_imgHash","type":"string","internalType":"string"}],"outputs":[],"stateMutability":"payable"},{"type":"function","name":"getBalance","inputs":[],"outputs":[{"name":"","type":"uint256","internalType":"uint256"}],"stateMutability":"view"},{"type":"function","name":"getContractOwner","inputs":[],"outputs":[{"name":"","type":"address","internalType":"address"}],"stateMutability":"view"},{"type":"function","name":"getPostById","inputs":[{"name":"_postId","type":"uint256","internalType":"uint256"}],"outputs":[{"name":"","type":"tuple","internalType":"struct SocialMedia.Post","components":[{"name":"postId","type":"uint256","internalType":"uint256"},{"name":"content","type":"string","internalType":"string"},{"name":"imgHash","type":"string","internalType":"string"},{"name":"timestamp","type":"uint256","internalType":"uint256"},{"name":"upvotes","type":"uint256","internalType":"uint256"},{"name":"downvotes","type":"uint256","internalType":"uint256"},{"name":"author","type":"address","internalType":"address"}]}],"stateMutability":"view"},{"type":"function","name":"getUser","inputs":[{"name":"_userAddress","type":"address","internalType":"address"}],"outputs":[{"name":"","type":"tuple","internalType":"struct SocialMedia.User","components":[{"name":"id","type":"uint256","internalType":"uint256"},{"name":"userAddress","type":"address","internalType":"address"},{"name":"name","type":"string","internalType":"string"},{"name":"bio","type":"string","internalType":"string"},{"name":"profileImageHash","type":"string","internalType":"string"}]}],"stateMutability":"view"},{"type":"function","name":"getUserById","inputs":[{"name":"_userId","type":"uint256","internalType":"uint256"}],"outputs":[{"name":"","type":"tuple","internalType":"struct SocialMedia.User","components":[{"name":"id","type":"uint256","internalType":"uint256"},{"name":"userAddress","type":"address","internalType":"address"},{"name":"name","type":"string","internalType":"string"},{"name":"bio","type":"string","internalType":"string"},{"name":"profileImageHash","type":"string","internalType":"string"}]}],"stateMutability":"view"},{"type":"function","name":"getUserComments","inputs":[{"name":"_userAddress","type":"address","internalType":"address"}],"outputs":[{"name":"","type":"tuple[]","internalType":"struct SocialMedia.Comment[]","components":[{"name":"commentId","type":"uint256","internalType":"uint256"},{"name":"author","type":"address","internalType":"address"},{"name":"postId","type":"uint256","internalType":"uint256"},{"name":"content","type":"string","internalType":"string"},{"name":"timestamp","type":"uint256","internalType":"uint256"},{"name":"likesCount","type":"uint256","internalType":"uint256"}]}],"stateMutability":"view"},{"type":"function","name":"getUserNameFromAddress","inputs":[{"name":"_userAddress","type":"address","internalType":"address"}],"outputs":[{"name":"nameOfUser","type":"string","internalType":"string"}],"stateMutability":"view"},{"type":"function","name":"getUserPosts","inputs":[{"name":"_userAddress","type":"address","internalType":"address"}],"outputs":[{"name":"","type":"tuple[]","internalType":"struct SocialMedia.Post[]","components":[{"name":"postId","type":"uint256","internalType":"uint256"},{"name":"content","type":"string","internalType":"string"},{"name":"imgHash","type":"string","internalType":"string"},{"name":"timestamp","type":"uint256","internalType":"uint256"},{"name":"upvotes","type":"uint256","internalType":"uint256"},{"name":"downvotes","type":"uint256","internalType":"uint256"},{"name":"author","type":"address","internalType":"address"}]}],"stateMutability":"view"},{"type":"function","name":"likeComment","inputs":[{"name":"_commentId","type":"uint256","internalType":"uint256"}],"outputs":[],"stateMutability":"nonpayable"},{"type":"function","name":"registerUser","inputs":[{"name":"_name","type":"string","internalType":"string"},{"name":"_bio","type":"string","internalType":"string"},{"name":"_profileImageHash","type":"string","internalType":"string"}],"outputs":[],"stateMutability":"nonpayable"},{"type":"function","name":"startDapp","inputs":[],"outputs":[],"stateMutability":"nonpayable"},{"type":"function","name":"stopDapp","inputs":[],"outputs":[],"stateMutability":"nonpayable"},{"type":"function","name":"transferContractBalance","inputs":[{"name":"_to","type":"address","internalType":"address payable"}],"outputs":[],"stateMutability":"nonpayable"},{"type":"function","name":"upvote","inputs":[{"name":"_postId","type":"uint256","internalType":"uint256"}],"outputs":[],"stateMutability":"nonpayable"},{"type":"event","name":"CommentCreated","inputs":[{"name":"commentId","type":"uint256","indexed":true,"internalType":"uint256"},{"name":"postAuthor","type":"address","indexed":true,"internalType":"address"},{"name":"commentAuthor","type":"address","indexed":true,"internalType":"address"},{"name":"postId","type":"uint256","indexed":false,"internalType":"uint256"}],"anonymous":false},{"type":"event","name":"Downvoted","inputs":[{"name":"postId","type":"uint256","indexed":false,"internalType":"uint256"},{"name":"posthAuthorName","type":"string","indexed":false,"internalType":"string"},{"name":"downvoterName","type":"string","indexed":false,"internalType":"string"}],"anonymous":false},{"type":"event","name":"PostCreated","inputs":[{"name":"postId","type":"uint256","indexed":false,"internalType":"uint256"},{"name":"authorName","type":"string","indexed":false,"internalType":"string"}],"anonymous":false},{"type":"event","name":"PostEdited","inputs":[{"name":"postId","type":"uint256","indexed":false,"internalType":"uint256"},{"name":"authorName","type":"string","indexed":false,"internalType":"string"}],"anonymous":false},{"type":"event","name":"PostLiked","inputs":[{"name":"postId","type":"uint256","indexed":true,"internalType":"uint256"},{"name":"postAuthor","type":"address","indexed":true,"internalType":"address"},{"name":"liker","type":"address","indexed":true,"internalType":"address"}],"anonymous":false},{"type":"event","name":"Upvoted","inputs":[{"name":"postId","type":"uint256","indexed":false,"internalType":"uint256"},{"name":"posthAuthorName","type":"string","indexed":false,"internalType":"string"},{"name":"upvoterName","type":"string","indexed":false,"internalType":"string"}],"anonymous":false},{"type":"event","name":"UserRegistered","inputs":[{"name":"id","type":"uint256","indexed":true,"internalType":"uint256"},{"name":"userAddress","type":"address","indexed":true,"internalType":"address"},{"name":"name","type":"string","indexed":true,"internalType":"string"}],"anonymous":false},{"type":"error","name":"SocialMedia__AlreadyVoted","inputs":[]},{"type":"error","name":"SocialMedia__NotCommentOwner","inputs":[]},{"type":"error","name":"SocialMedia__NotOwner","inputs":[]},{"type":"error","name":"SocialMedia__NotPostOwner","inputs":[]},{"type":"error","name":"SocialMedia__OwnerCannotVote","inputs":[]},{"type":"error","name":"SocialMedia__PaymentNotEnough","inputs":[]},{"type":"error","name":"SocialMedia__UserDoesNotExist","inputs":[]},{"type":"error","name":"SocialMedia__UsernameAlreadyTaken","inputs":[]}],"bytecode":{"object":"0x608060405234801561001057600080fd5b50604051620025313803806200253183398101604081905261003191610064565b60068054336001600160a01b031991821617909155600080549091166001600160a01b0392909216919091179055610094565b60006020828403121561007657600080fd5b81516001600160a01b038116811461008d57600080fd5b9392505050565b61248d80620000a46000396000f3fe6080604052600436106101445760003560e01c80636ed6da9e116100b65780639a2194a91161006f5780639a2194a91461037e578063a6f9dae1146103ab578063ad816029146103cb578063bf0ac63c146103eb578063d637dcfa146103fe578063f31fdad41461041e57600080fd5b80636ed6da9e146102d15780636f77926b146102fe57806377c846af1461031e5780637d0b10261461033e57806395d2cc921461021a57806396f11ac81461035e57600080fd5b80632b69e24f116101085780632b69e24f146101fa57806333aa01e91461021a578063392338f51461022f578063442890d51461024f5780636372af841461027757806364e95895146102a457600080fd5b8063012cc1e21461015057806301ddf07014610172578063094cd5ee1461019257806312065fe0146101a55780632b3c6e22146101cd57600080fd5b3661014b57005b600080fd5b34801561015c57600080fd5b5061017061016b366004611c34565b61043e565b005b34801561017e57600080fd5b5061017061018d366004611c34565b610463565b6101706101a0366004611c34565b6105a2565b3480156101b157600080fd5b506101ba6106a9565b6040519081526020015b60405180910390f35b3480156101d957600080fd5b506101ed6101e8366004611c62565b6106dc565b6040516101c49190611ccf565b34801561020657600080fd5b50610170610215366004611e20565b610822565b34801561022657600080fd5b5061017061092a565b34801561023b57600080fd5b5061017061024a366004611e79565b610957565b34801561025b57600080fd5b506006546040516001600160a01b0390911681526020016101c4565b34801561028357600080fd5b50610297610292366004611c62565b610b9f565b6040516101c49190611edd565b3480156102b057600080fd5b506102c46102bf366004611c34565b610d9e565b6040516101c49190611f65565b3480156102dd57600080fd5b506102f16102ec366004611c34565b610f79565b6040516101c49190611f78565b34801561030a57600080fd5b506102f1610319366004611c62565b6111a3565b34801561032a57600080fd5b50610170610339366004611ff5565b6111f4565b34801561034a57600080fd5b50610170610359366004611c34565b6112cc565b34801561036a57600080fd5b50610170610379366004611c62565b611356565b34801561038a57600080fd5b5061039e610399366004611c62565b6113ba565b6040516101c49190612032565b3480156103b757600080fd5b506101706103c6366004611c62565b611589565b3480156103d757600080fd5b506101706103e6366004612096565b6115d6565b6101706103f93660046120d3565b611630565b34801561040a57600080fd5b50610170610419366004612136565b611759565b34801561042a57600080fd5b50610170610439366004611c34565b6119d0565b600081815260036020526040812060050180549161045b8361219b565b919050555050565b60008181526005602052604090205481906001600160a01b0316330361049c57604051631902ab3960e01b815260040160405180910390fd5b336000908152600860209081526040808320858452909152902054829060ff16156104da576040516383dcc1c160e01b815260040160405180910390fd5b600f83815481106104ed576104ed6121b4565b60009182526020822060046007909202010180549161050b8361219b565b90915550503360009081526008602090815260408083208684528252808320805460ff1916600117905560059091528120546001600160a01b03169061055082610b9f565b9050600061055d33610b9f565b90507fa036d403d7739d8360e6171b2fbf68a0dfef33d6c6f432a236f6c3cdbb3cfee6868383604051610592939291906121ca565b60405180910390a1505050505050565b60008181526005602052604090205481906001600160a01b031633146105db57604051639ef3fcef60e01b815260040160405180910390fd5b600054674563918244f40000906105fc9034906001600160a01b0316611aeb565b101561061a576040516217124560e91b815260040160405180910390fd5b60405180602001604052806000815250600f838154811061063d5761063d6121b4565b9060005260206000209060070201600101908161065a919061228a565b506000600f8381548110610670576106706121b4565b906000526020600020906007020160060160006101000a8154816001600160a01b0302191690836001600160a01b031602179055505050565b6006546000906001600160a01b031633146106d75760405163aadd925760e01b815260040160405180910390fd5b504790565b6001600160a01b0381166000908152600b60209081526040808320805482518185028101850190935280835260609492939192909184015b828210156108175760008481526020908190206040805160c081018252600686029092018054835260018101546001600160a01b031693830193909352600283015490820152600382018054919291606084019190610772906121ff565b80601f016020809104026020016040519081016040528092919081815260200182805461079e906121ff565b80156107eb5780601f106107c0576101008083540402835291602001916107eb565b820191906000526020600020905b8154815290600101906020018083116107ce57829003601f168201915b505050505081526020016004820154815260200160058201548152505081526020019060010190610714565b505050509050919050565b6040805160c081018252600180825233602080840191825283850187815260608501878152426080870152600060a087018190526001600160a01b038b81168252600a85528882208b83528552978120805480880182559082529390208651600690940201928355925182850180546001600160a01b031916919097161790955593516002850155519092829160038201906108be908261228a565b506080820151816004015560a082015181600501555050336001600160a01b0316856001600160a01b0316837f3c9238b160bb5c53a432171c8d2eb7ed9ad9fdb80ecb6ebb4fd6b52787077db98760405161091b91815260200190565b60405180910390a45050505050565b6006546001600160a01b031633146109555760405163aadd925760e01b815260040160405180910390fd5b565b33600081815260016020819052604090912001546001600160a01b03166109915760405163995cae5960e01b815260040160405180910390fd5b600f546040805160e0810182528281526020810186905290810184905242606082015260006080820181905260a082018190523360c083018190526109d590610b9f565b336000908152600960209081526040822080546001818101835591845292829020865160079094020192835590850151929350849290820190610a18908261228a565b5060408201516002820190610a2d908261228a565b50606082015160038201556080820151600482015560a0820151600582015560c090910151600690910180546001600160a01b0319166001600160a01b03909216919091179055600f805460018101825560009190915282517f8d1108e10bcb7c27dddfc02ed9d693a074039d026cf4ea4240b40f7d581ac8026007909202918201908155602084015184927f8d1108e10bcb7c27dddfc02ed9d693a074039d026cf4ea4240b40f7d581ac8030190610ae6908261228a565b5060408201516002820190610afb908261228a565b5060608201516003820155608082015160048083019190915560a083015160058084019190915560c090930151600690920180546001600160a01b039093166001600160a01b03199384161790553360008181526020928352604080822089905588825294909252908390208054909216179055517f3d4335cbfac350aa27a3fa09060b4691656ecbe3033f4d953849c2f755f230d190610592908590849061234a565b6001600160a01b038082166000908152600160208181526040808420815160a0810183528154815293810154909516918301919091526002840180546060959284019190610bec906121ff565b80601f0160208091040260200160405190810160405280929190818152602001828054610c18906121ff565b8015610c655780601f10610c3a57610100808354040283529160200191610c65565b820191906000526020600020905b815481529060010190602001808311610c4857829003601f168201915b50505050508152602001600382018054610c7e906121ff565b80601f0160208091040260200160405190810160405280929190818152602001828054610caa906121ff565b8015610cf75780601f10610ccc57610100808354040283529160200191610cf7565b820191906000526020600020905b815481529060010190602001808311610cda57829003601f168201915b50505050508152602001600482018054610d10906121ff565b80601f0160208091040260200160405190810160405280929190818152602001828054610d3c906121ff565b8015610d895780601f10610d5e57610100808354040283529160200191610d89565b820191906000526020600020905b815481529060010190602001808311610d6c57829003601f168201915b50505091909252505050604001519392505050565b610de76040518060e0016040528060008152602001606081526020016060815260200160008152602001600081526020016000815260200160006001600160a01b031681525090565b600f8281548110610dfa57610dfa6121b4565b90600052602060002090600702016040518060e001604052908160008201548152602001600182018054610e2d906121ff565b80601f0160208091040260200160405190810160405280929190818152602001828054610e59906121ff565b8015610ea65780601f10610e7b57610100808354040283529160200191610ea6565b820191906000526020600020905b815481529060010190602001808311610e8957829003601f168201915b50505050508152602001600282018054610ebf906121ff565b80601f0160208091040260200160405190810160405280929190818152602001828054610eeb906121ff565b8015610f385780601f10610f0d57610100808354040283529160200191610f38565b820191906000526020600020905b815481529060010190602001808311610f1b57829003601f168201915b50505091835250506003820154602082015260048201546040820152600582015460608201526006909101546001600160a01b031660809091015292915050565b610f81611ba6565b600e8281548110610f9457610f946121b4565b90600052602060002090600502016040518060a0016040529081600082015481526020016001820160009054906101000a90046001600160a01b03166001600160a01b03166001600160a01b03168152602001600282018054610ff6906121ff565b80601f0160208091040260200160405190810160405280929190818152602001828054611022906121ff565b801561106f5780601f106110445761010080835404028352916020019161106f565b820191906000526020600020905b81548152906001019060200180831161105257829003601f168201915b50505050508152602001600382018054611088906121ff565b80601f01602080910402602001604051908101604052809291908181526020018280546110b4906121ff565b80156111015780601f106110d657610100808354040283529160200191611101565b820191906000526020600020905b8154815290600101906020018083116110e457829003601f168201915b5050505050815260200160048201805461111a906121ff565b80601f0160208091040260200160405190810160405280929190818152602001828054611146906121ff565b80156111935780601f1061116857610100808354040283529160200191611193565b820191906000526020600020905b81548152906001019060200180831161117657829003601f168201915b5050505050815250509050919050565b6111ab611ba6565b6001600160a01b03808316600090815260016020818152604092839020835160a081018552815481529281015490941690820152600283018054919392840191610ff6906121ff565b33600081815260016020819052604090912001546001600160a01b031661122e5760405163995cae5960e01b815260040160405180910390fd5b8160006001600160a01b031660078260405161124a9190612363565b908152604051908190036020019020546001600160a01b0316146112815760405163cd9c3c2960e01b815260040160405180910390fd5b336000908152600d6020526040902054600e8054859190839081106112a8576112a86121b4565b906000526020600020906005020160020190816112c5919061228a565b5050505050565b60008181526003602052604090206001015481906001600160a01b0316331461130857604051632585a1bd60e01b815260040160405180910390fd5b600082815260036020819052604082208281556001810180546001600160a01b031916905560028101839055919061134290830182611bde565b506000600482018190556005909101555050565b6006546001600160a01b031633146113815760405163aadd925760e01b815260040160405180910390fd5b6040516001600160a01b038216904780156108fc02916000818181858888f193505050501580156113b6573d6000803e3d6000fd5b5050565b6001600160a01b0381166000908152600960209081526040808320805482518185028101850190935280835260609492939192909184015b8282101561081757838290600052602060002090600702016040518060e00160405290816000820154815260200160018201805461142f906121ff565b80601f016020809104026020016040519081016040528092919081815260200182805461145b906121ff565b80156114a85780601f1061147d576101008083540402835291602001916114a8565b820191906000526020600020905b81548152906001019060200180831161148b57829003601f168201915b505050505081526020016002820180546114c1906121ff565b80601f01602080910402602001604051908101604052809291908181526020018280546114ed906121ff565b801561153a5780601f1061150f5761010080835404028352916020019161153a565b820191906000526020600020905b81548152906001019060200180831161151d57829003601f168201915b5050509183525050600382015460208083019190915260048301546040830152600583015460608301526006909201546001600160a01b031660809091015290825260019290920191016113f2565b6006546001600160a01b031633146115b45760405163aadd925760e01b815260040160405180910390fd5b600680546001600160a01b0319166001600160a01b0392909216919091179055565b60008281526003602052604090206001015482906001600160a01b0316331461161257604051632585a1bd60e01b815260040160405180910390fd5b60008381526003602081905260409091209081016112c5848261228a565b60008381526005602052604090205483906001600160a01b0316331461166957604051639ef3fcef60e01b815260040160405180910390fd5b600054674563918244f400009061168a9034906001600160a01b0316611aeb565b10156116a8576040516217124560e91b815260040160405180910390fd5b82600f85815481106116bc576116bc6121b4565b906000526020600020906007020160010190816116d9919061228a565b5081600f85815481106116ee576116ee6121b4565b9060005260206000209060070201600201908161170b919061228a565b50600061171733610b9f565b90507f7009e6824c3ecb1321da2ebabc18901b48d900a97f978c5a93dd3ba8cfe59035858260405161174a92919061234a565b60405180910390a15050505050565b8260006001600160a01b03166007826040516117759190612363565b908152604051908190036020019020546001600160a01b0316146117ac5760405163cd9c3c2960e01b815260040160405180910390fd5b600c8054600091826117bd8361219b565b9190505590506117cb611ba6565b81815233602080830182815260408085018a8152606086018a9052608086018990526000948552600193849052932084518155905191810180546001600160a01b0319166001600160a01b039093169290921790915590518291906002820190611835908261228a565b506060820151600382019061184a908261228a565b506080820151600482019061185f908261228a565b5050336000818152600d60205260409081902085905551909150600790611887908990612363565b908152604080516020928190038301902080546001600160a01b03199081166001600160a01b0395861617909155600e805460018101825560009190915285517fbb7b4a454dc3493923482f07822329ed19e8244eff582cc204f8554c3620c3fd6005909202918201908155938601517fbb7b4a454dc3493923482f07822329ed19e8244eff582cc204f8554c3620c3fe82018054909316951694909417905583015183927fbb7b4a454dc3493923482f07822329ed19e8244eff582cc204f8554c3620c3ff0190611959908261228a565b506060820151600382019061196e908261228a565b5060808201516004820190611983908261228a565b505050856040516119949190612363565b60405190819003812090339084907f8d76d60617424d83544323e2322cb8d86537451c9b3d991886ce6f4721e3865e90600090a4505050505050565b60008181526005602052604090205481906001600160a01b03163303611a0957604051631902ab3960e01b815260040160405180910390fd5b336000908152600860209081526040808320858452909152902054829060ff1615611a47576040516383dcc1c160e01b815260040160405180910390fd5b6000838152600260205260408120600501805491611a648361219b565b90915550503360009081526008602090815260408083208684528252808320805460ff1916600117905560059091528120546001600160a01b031690611aa982610b9f565b90506000611ab633610b9f565b90507fd7ad3e52dbe8b445d900fd8aa659c95d5b75bb6733c12e7f22d048963bd39ed5868383604051610592939291906121ca565b600080611af783611b23565b90506000670de0b6b3a7640000611b0e838761237f565b611b189190612396565b925050505b92915050565b600080826001600160a01b031663feaf968c6040518163ffffffff1660e01b815260040160a060405180830381865afa158015611b64573d6000803e3d6000fd5b505050506040513d601f19601f82011682018060405250810190611b8891906123d7565b505050915050806402540be400611b9f9190612427565b9392505050565b6040518060a001604052806000815260200160006001600160a01b031681526020016060815260200160608152602001606081525090565b508054611bea906121ff565b6000825580601f10611bfa575050565b601f016020900490600052602060002090810190611c189190611c1b565b50565b5b80821115611c305760008155600101611c1c565b5090565b600060208284031215611c4657600080fd5b5035919050565b6001600160a01b0381168114611c1857600080fd5b600060208284031215611c7457600080fd5b8135611b9f81611c4d565b60005b83811015611c9a578181015183820152602001611c82565b50506000910152565b60008151808452611cbb816020860160208601611c7f565b601f01601f19169290920160200192915050565b600060208083018184528085518083526040925060408601915060408160051b87010184880160005b83811015611d6f57888303603f19018552815180518452878101516001600160a01b031688850152868101518785015260608082015160c08287018190529190611d4483880182611ca3565b6080858101519089015260a09485015194909701939093525050509386019390860190600101611cf8565b509098975050505050505050565b634e487b7160e01b600052604160045260246000fd5b600082601f830112611da457600080fd5b813567ffffffffffffffff80821115611dbf57611dbf611d7d565b604051601f8301601f19908116603f01168101908282118183101715611de757611de7611d7d565b81604052838152866020858801011115611e0057600080fd5b836020870160208301376000602085830101528094505050505092915050565b600080600060608486031215611e3557600080fd5b8335611e4081611c4d565b925060208401359150604084013567ffffffffffffffff811115611e6357600080fd5b611e6f86828701611d93565b9150509250925092565b60008060408385031215611e8c57600080fd5b823567ffffffffffffffff80821115611ea457600080fd5b611eb086838701611d93565b93506020850135915080821115611ec657600080fd5b50611ed385828601611d93565b9150509250929050565b602081526000611b9f6020830184611ca3565b805182526000602082015160e06020850152611f0f60e0850182611ca3565b905060408301518482036040860152611f288282611ca3565b606085810151908701526080808601519087015260a0808601519087015260c0948501516001600160a01b03169490950193909352509192915050565b602081526000611b9f6020830184611ef0565b602081528151602082015260018060a01b0360208301511660408201526000604083015160a06060840152611fb060c0840182611ca3565b90506060840151601f1980858403016080860152611fce8383611ca3565b925060808601519150808584030160a086015250611fec8282611ca3565b95945050505050565b60006020828403121561200757600080fd5b813567ffffffffffffffff81111561201e57600080fd5b61202a84828501611d93565b949350505050565b600060208083016020845280855180835260408601915060408160051b87010192506020870160005b8281101561208957603f19888603018452612077858351611ef0565b9450928501929085019060010161205b565b5092979650505050505050565b600080604083850312156120a957600080fd5b82359150602083013567ffffffffffffffff8111156120c757600080fd5b611ed385828601611d93565b6000806000606084860312156120e857600080fd5b83359250602084013567ffffffffffffffff8082111561210757600080fd5b61211387838801611d93565b9350604086013591508082111561212957600080fd5b50611e6f86828701611d93565b60008060006060848603121561214b57600080fd5b833567ffffffffffffffff8082111561216357600080fd5b61216f87838801611d93565b9450602086013591508082111561210757600080fd5b634e487b7160e01b600052601160045260246000fd5b6000600182016121ad576121ad612185565b5060010190565b634e487b7160e01b600052603260045260246000fd5b8381526060602082015260006121e36060830185611ca3565b82810360408401526121f58185611ca3565b9695505050505050565b600181811c9082168061221357607f821691505b60208210810361223357634e487b7160e01b600052602260045260246000fd5b50919050565b601f821115612285576000816000526020600020601f850160051c810160208610156122625750805b601f850160051c820191505b818110156122815782815560010161226e565b5050505b505050565b815167ffffffffffffffff8111156122a4576122a4611d7d565b6122b8816122b284546121ff565b84612239565b602080601f8311600181146122ed57600084156122d55750858301515b600019600386901b1c1916600185901b178555612281565b600085815260208120601f198616915b8281101561231c578886015182559484019460019091019084016122fd565b508582101561233a5787850151600019600388901b60f8161c191681555b5050505050600190811b01905550565b82815260406020820152600061202a6040830184611ca3565b60008251612375818460208701611c7f565b9190910192915050565b8082028115828204841417611b1d57611b1d612185565b6000826123b357634e487b7160e01b600052601260045260246000fd5b500490565b805169ffffffffffffffffffff811681146123d257600080fd5b919050565b600080600080600060a086880312156123ef57600080fd5b6123f8866123b8565b945060208601519350604086015192506060860151915061241b608087016123b8565b90509295509295909350565b80820260008212600160ff1b8414161561244357612443612185565b8181058314821517611b1d57611b1d61218556fea26469706673582212202902cdfaaf4f6cfe48cbbe92a592a9ad23a80aab325d158d8179c68939e67d0b64736f6c63430008180033","linkReferences":{}},"methodIdentifiers":{"changeOwner(address)":"a6f9dae1","changeUsername(string)":"77c846af","createComment(address,uint256,string)":"2b69e24f","createPost(string,string)":"392338f5","deleteComment(uint256)":"7d0b1026","deletePost(uint256)":"094cd5ee","downvote(uint256)":"f31fdad4","editComment(uint256,string)":"ad816029","editPost(uint256,string,string)":"bf0ac63c","getBalance()":"12065fe0","getContractOwner()":"442890d5","getPostById(uint256)":"64e95895","getUser(address)":"6f77926b","getUserById(uint256)":"6ed6da9e","getUserComments(address)":"2b3c6e22","getUserNameFromAddress(address)":"6372af84","getUserPosts(address)":"9a2194a9","likeComment(uint256)":"012cc1e2","registerUser(string,string,string)":"d637dcfa","startDapp()":"95d2cc92","stopDapp()":"33aa01e9","transferContractBalance(address)":"96f11ac8","upvote(uint256)":"01ddf070"},"id":28}