{"abi":[{"type":"constructor","inputs":[{"name":"priceFeed","type":"address","internalType":"address"},{"name":"interval","type":"uint256","internalType":"uint256"},{"name":"vrfCoordinator","type":"address","internalType":"address"},{"name":"gasLane","type":"bytes32","internalType":"bytes32"},{"name":"subscriptionId","type":"uint64","internalType":"uint64"},{"name":"callbackGasLimit","type":"uint32","internalType":"uint32"},{"name":"link","type":"address","internalType":"address"},{"name":"deployerKey","type":"uint256","internalType":"uint256"}],"stateMutability":"nonpayable"},{"type":"fallback","stateMutability":"payable"},{"type":"receive","stateMutability":"payable"},{"type":"function","name":"CheckUpkeep","inputs":[{"name":"","type":"bytes","internalType":"bytes"}],"outputs":[{"name":"upkeepNeeded","type":"bool","internalType":"bool"},{"name":"","type":"bytes","internalType":"bytes"}],"stateMutability":"nonpayable"},{"type":"function","name":"changeOwner","inputs":[{"name":"_newOwner","type":"address","internalType":"address"}],"outputs":[],"stateMutability":"nonpayable"},{"type":"function","name":"changeUsername","inputs":[{"name":"_userId","type":"uint256","internalType":"uint256"},{"name":"_newName","type":"string","internalType":"string"}],"outputs":[],"stateMutability":"nonpayable"},{"type":"function","name":"createComment","inputs":[{"name":"_postId","type":"uint256","internalType":"uint256"},{"name":"_content","type":"string","internalType":"string"}],"outputs":[],"stateMutability":"nonpayable"},{"type":"function","name":"createPost","inputs":[{"name":"_content","type":"string","internalType":"string"},{"name":"_imgHash","type":"string","internalType":"string"}],"outputs":[],"stateMutability":"nonpayable"},{"type":"function","name":"deleteComment","inputs":[{"name":"_postId","type":"uint256","internalType":"uint256"},{"name":"_commentId","type":"uint256","internalType":"uint256"}],"outputs":[],"stateMutability":"payable"},{"type":"function","name":"deletePost","inputs":[{"name":"_postId","type":"uint256","internalType":"uint256"}],"outputs":[],"stateMutability":"payable"},{"type":"function","name":"downvote","inputs":[{"name":"_postId","type":"uint256","internalType":"uint256"}],"outputs":[],"stateMutability":"nonpayable"},{"type":"function","name":"editComment","inputs":[{"name":"_postId","type":"uint256","internalType":"uint256"},{"name":"_commentId","type":"uint256","internalType":"uint256"},{"name":"_content","type":"string","internalType":"string"}],"outputs":[],"stateMutability":"payable"},{"type":"function","name":"editPost","inputs":[{"name":"_postId","type":"uint256","internalType":"uint256"},{"name":"_content","type":"string","internalType":"string"},{"name":"_imgHash","type":"string","internalType":"string"}],"outputs":[],"stateMutability":"payable"},{"type":"function","name":"getBalance","inputs":[],"outputs":[{"name":"","type":"uint256","internalType":"uint256"}],"stateMutability":"view"},{"type":"function","name":"getCommentByPostIdAndCommentId","inputs":[{"name":"_postId","type":"uint256","internalType":"uint256"},{"name":"_commentId","type":"uint256","internalType":"uint256"}],"outputs":[{"name":"","type":"tuple","internalType":"struct SocialMedia.Comment","components":[{"name":"commentId","type":"uint256","internalType":"uint256"},{"name":"author","type":"address","internalType":"address"},{"name":"postId","type":"uint256","internalType":"uint256"},{"name":"content","type":"string","internalType":"string"},{"name":"timestamp","type":"uint256","internalType":"uint256"},{"name":"likesCount","type":"uint256","internalType":"uint256"}]}],"stateMutability":"view"},{"type":"function","name":"getCommentLikersByPostIdAndCommentId","inputs":[{"name":"_postId","type":"uint256","internalType":"uint256"},{"name":"_commentId","type":"uint256","internalType":"uint256"}],"outputs":[{"name":"","type":"address[]","internalType":"address[]"}],"stateMutability":"view"},{"type":"function","name":"getContractOwner","inputs":[],"outputs":[{"name":"","type":"address","internalType":"address"}],"stateMutability":"view"},{"type":"function","name":"getIdsOfEligiblePosts","inputs":[],"outputs":[{"name":"","type":"uint256[]","internalType":"uint256[]"}],"stateMutability":"view"},{"type":"function","name":"getIdsOfRecentPosts","inputs":[],"outputs":[{"name":"","type":"uint256[]","internalType":"uint256[]"}],"stateMutability":"view"},{"type":"function","name":"getPostById","inputs":[{"name":"_postId","type":"uint256","internalType":"uint256"}],"outputs":[{"name":"","type":"tuple","internalType":"struct SocialMedia.Post","components":[{"name":"postId","type":"uint256","internalType":"uint256"},{"name":"content","type":"string","internalType":"string"},{"name":"imgHash","type":"string","internalType":"string"},{"name":"timestamp","type":"uint256","internalType":"uint256"},{"name":"upvotes","type":"uint256","internalType":"uint256"},{"name":"downvotes","type":"uint256","internalType":"uint256"},{"name":"author","type":"address","internalType":"address"}]}],"stateMutability":"view"},{"type":"function","name":"getRecentWinners","inputs":[],"outputs":[{"name":"","type":"uint256[]","internalType":"uint256[]"}],"stateMutability":"view"},{"type":"function","name":"getUsdValueOfEthAmount","inputs":[{"name":"_ethAmount","type":"uint256","internalType":"uint256"}],"outputs":[{"name":"","type":"uint256","internalType":"uint256"}],"stateMutability":"view"},{"type":"function","name":"getUser","inputs":[{"name":"_userAddress","type":"address","internalType":"address"}],"outputs":[{"name":"","type":"tuple","internalType":"struct SocialMedia.User","components":[{"name":"id","type":"uint256","internalType":"uint256"},{"name":"userAddress","type":"address","internalType":"address"},{"name":"name","type":"string","internalType":"string"},{"name":"bio","type":"string","internalType":"string"},{"name":"profileImageHash","type":"string","internalType":"string"}]}],"stateMutability":"view"},{"type":"function","name":"getUserById","inputs":[{"name":"_userId","type":"uint256","internalType":"uint256"}],"outputs":[{"name":"","type":"tuple","internalType":"struct SocialMedia.User","components":[{"name":"id","type":"uint256","internalType":"uint256"},{"name":"userAddress","type":"address","internalType":"address"},{"name":"name","type":"string","internalType":"string"},{"name":"bio","type":"string","internalType":"string"},{"name":"profileImageHash","type":"string","internalType":"string"}]}],"stateMutability":"view"},{"type":"function","name":"getUserComments","inputs":[{"name":"_userAddress","type":"address","internalType":"address"}],"outputs":[{"name":"","type":"tuple[]","internalType":"struct SocialMedia.Comment[]","components":[{"name":"commentId","type":"uint256","internalType":"uint256"},{"name":"author","type":"address","internalType":"address"},{"name":"postId","type":"uint256","internalType":"uint256"},{"name":"content","type":"string","internalType":"string"},{"name":"timestamp","type":"uint256","internalType":"uint256"},{"name":"likesCount","type":"uint256","internalType":"uint256"}]}],"stateMutability":"view"},{"type":"function","name":"getUserNameFromAddress","inputs":[{"name":"_userAddress","type":"address","internalType":"address"}],"outputs":[{"name":"nameOfUser","type":"string","internalType":"string"}],"stateMutability":"view"},{"type":"function","name":"getUserPosts","inputs":[{"name":"_userAddress","type":"address","internalType":"address"}],"outputs":[{"name":"","type":"tuple[]","internalType":"struct SocialMedia.Post[]","components":[{"name":"postId","type":"uint256","internalType":"uint256"},{"name":"content","type":"string","internalType":"string"},{"name":"imgHash","type":"string","internalType":"string"},{"name":"timestamp","type":"uint256","internalType":"uint256"},{"name":"upvotes","type":"uint256","internalType":"uint256"},{"name":"downvotes","type":"uint256","internalType":"uint256"},{"name":"author","type":"address","internalType":"address"}]}],"stateMutability":"view"},{"type":"function","name":"likeComment","inputs":[{"name":"_postId","type":"uint256","internalType":"uint256"},{"name":"_commentId","type":"uint256","internalType":"uint256"}],"outputs":[],"stateMutability":"nonpayable"},{"type":"function","name":"performUpkeep","inputs":[{"name":"","type":"bytes","internalType":"bytes"}],"outputs":[],"stateMutability":"nonpayable"},{"type":"function","name":"rawFulfillRandomWords","inputs":[{"name":"requestId","type":"uint256","internalType":"uint256"},{"name":"randomWords","type":"uint256[]","internalType":"uint256[]"}],"outputs":[],"stateMutability":"nonpayable"},{"type":"function","name":"registerUser","inputs":[{"name":"_name","type":"string","internalType":"string"},{"name":"_bio","type":"string","internalType":"string"},{"name":"_profileImageHash","type":"string","internalType":"string"}],"outputs":[],"stateMutability":"nonpayable"},{"type":"function","name":"transferContractBalance","inputs":[{"name":"_to","type":"address","internalType":"address payable"}],"outputs":[],"stateMutability":"nonpayable"},{"type":"function","name":"upvote","inputs":[{"name":"_postId","type":"uint256","internalType":"uint256"}],"outputs":[],"stateMutability":"nonpayable"},{"type":"event","name":"CommentCreated","inputs":[{"name":"commentId","type":"uint256","indexed":true,"internalType":"uint256"},{"name":"postAuthor","type":"string","indexed":false,"internalType":"string"},{"name":"commentAuthor","type":"string","indexed":false,"internalType":"string"},{"name":"postId","type":"uint256","indexed":false,"internalType":"uint256"}],"anonymous":false},{"type":"event","name":"Downvoted","inputs":[{"name":"postId","type":"uint256","indexed":false,"internalType":"uint256"},{"name":"posthAuthorName","type":"string","indexed":false,"internalType":"string"},{"name":"downvoterName","type":"string","indexed":false,"internalType":"string"}],"anonymous":false},{"type":"event","name":"PickedWinner","inputs":[{"name":"winner","type":"address","indexed":false,"internalType":"address"}],"anonymous":false},{"type":"event","name":"PostCreated","inputs":[{"name":"postId","type":"uint256","indexed":false,"internalType":"uint256"},{"name":"authorName","type":"string","indexed":false,"internalType":"string"}],"anonymous":false},{"type":"event","name":"PostEdited","inputs":[{"name":"postId","type":"uint256","indexed":false,"internalType":"uint256"},{"name":"authorName","type":"string","indexed":false,"internalType":"string"}],"anonymous":false},{"type":"event","name":"PostLiked","inputs":[{"name":"postId","type":"uint256","indexed":true,"internalType":"uint256"},{"name":"postAuthor","type":"address","indexed":true,"internalType":"address"},{"name":"liker","type":"address","indexed":true,"internalType":"address"}],"anonymous":false},{"type":"event","name":"RequestWinningAuthor","inputs":[{"name":"requestId","type":"uint256","indexed":false,"internalType":"uint256"}],"anonymous":false},{"type":"event","name":"RewardSent","inputs":[{"name":"user","type":"address","indexed":true,"internalType":"address"},{"name":"amount","type":"uint256","indexed":false,"internalType":"uint256"}],"anonymous":false},{"type":"event","name":"Upvoted","inputs":[{"name":"postId","type":"uint256","indexed":false,"internalType":"uint256"},{"name":"posthAuthorName","type":"string","indexed":false,"internalType":"string"},{"name":"upvoterName","type":"string","indexed":false,"internalType":"string"}],"anonymous":false},{"type":"event","name":"UserRegistered","inputs":[{"name":"id","type":"uint256","indexed":true,"internalType":"uint256"},{"name":"userAddress","type":"address","indexed":true,"internalType":"address"},{"name":"name","type":"string","indexed":true,"internalType":"string"}],"anonymous":false},{"type":"error","name":"OnlyCoordinatorCanFulfill","inputs":[{"name":"have","type":"address","internalType":"address"},{"name":"want","type":"address","internalType":"address"}]},{"type":"error","name":"SocialMedia__AlreadyVoted","inputs":[]},{"type":"error","name":"SocialMedia__BatchTransferFailed","inputs":[{"name":"winner","type":"address","internalType":"address"}]},{"type":"error","name":"SocialMedia__NotCommentOwner","inputs":[]},{"type":"error","name":"SocialMedia__NotOwner","inputs":[]},{"type":"error","name":"SocialMedia__NotPostOwner","inputs":[]},{"type":"error","name":"SocialMedia__NotProfileOwner","inputs":[]},{"type":"error","name":"SocialMedia__OwnerCannotVote","inputs":[]},{"type":"error","name":"SocialMedia__PaymentNotEnough","inputs":[]},{"type":"error","name":"SocialMedia__TransferFailed","inputs":[]},{"type":"error","name":"SocialMedia__UpkeepNotNeeded","inputs":[{"name":"balance","type":"uint256","internalType":"uint256"},{"name":"numOfEligibleAuthors","type":"uint256","internalType":"uint256"}]},{"type":"error","name":"SocialMedia__UserDoesNotExist","inputs":[]},{"type":"error","name":"SocialMedia__UsernameAlreadyTaken","inputs":[]}],"bytecode":{"object":"0x6101406040523480156200001257600080fd5b50604051620036b1380380620036b18339810160408190526200003591620000bd565b50506001600160a01b039384166080819052601480546001600160a01b03199081163317909155600080549890961697169690961790935560a0939093524260015560c09390935260e0929092526001600160401b03166101005263ffffffff166101205262000163565b80516001600160a01b0381168114620000b857600080fd5b919050565b600080600080600080600080610100898b031215620000db57600080fd5b620000e689620000a0565b975060208901519650620000fd60408a01620000a0565b60608a015160808b015191975095506001600160401b03811681146200012257600080fd5b60a08a015190945063ffffffff811681146200013d57600080fd5b92506200014d60c08a01620000a0565b915060e089015190509295985092959890939650565b60805160a05160c05160e05161010051610120516134f7620001ba60003960006111db015260006111ad0152600061117e0152600061120c01526000611f81015260008181610837015261087901526134f76000f3fe6080604052600436106101b95760003560e01c80636f77926b116100eb578063a6f9dae11161008f578063e96c520b11610061578063e96c520b1461054b578063f077b9741461056b578063f31fdad414610580578063fa561152146105a057005b8063a6f9dae1146104ca578063bf0ac63c146104ea578063c9fbacf3146104fd578063d637dcfa1461052b57005b806396f11ac8116100c857806396f11ac814610448578063984d1015146104685780639a2194a91461047d578063a0e91821146104aa57005b80636f77926b146103db57806372d4e382146103fb5780638dc4a0661461041b57005b8063392338f51161015d5780634585e33b1161012f5780634585e33b146103345780636372af841461035457806364e95895146103815780636ed6da9e146103ae57005b8063392338f51461029f57806340a17985146102bf5780634296db5b146102df578063442890d51461030c57005b80631fe543e3116101965780631fe543e31461021d5780632b3c6e221461023d5780632d492c831461026a57806331a4bcb51461028c57005b806301ddf070146101c2578063094cd5ee146101e257806312065fe0146101f557005b366101c057005b005b3480156101ce57600080fd5b506101c06101dd366004612a06565b6105b3565b6101c06101f0366004612a06565b6106f2565b34801561020157600080fd5b5061020a6107f9565b6040519081526020015b60405180910390f35b34801561022957600080fd5b506101c0610238366004612a66565b61082c565b34801561024957600080fd5b5061025d610258366004612b30565b6108b9565b6040516102149190612bf8565b34801561027657600080fd5b5061027f6109ff565b6040516102149190612c5c565b6101c061029a366004612ca0565b610a57565b3480156102ab57600080fd5b506101c06102ba366004612d3a565b610b83565b3480156102cb57600080fd5b506101c06102da366004612d9e565b610df6565b3480156102eb57600080fd5b506102ff6102fa366004612ca0565b610f75565b6040516102149190612ddb565b34801561031857600080fd5b506014546040516001600160a01b039091168152602001610214565b34801561034057600080fd5b506101c061034f366004612dee565b6110e2565b34801561036057600080fd5b5061037461036f366004612b30565b6112c2565b6040516102149190612e60565b34801561038d57600080fd5b506103a161039c366004612a06565b6114c3565b6040516102149190612ee8565b3480156103ba57600080fd5b506103ce6103c9366004612a06565b61169e565b6040516102149190612efb565b3480156103e757600080fd5b506103ce6103f6366004612b30565b6118c8565b34801561040757600080fd5b506101c0610416366004612d9e565b61191c565b34801561042757600080fd5b5061043b610436366004612ca0565b611a20565b6040516102149190612f6f565b34801561045457600080fd5b506101c0610463366004612b30565b611a95565b34801561047457600080fd5b5061027f611af5565b34801561048957600080fd5b5061049d610498366004612b30565b611b4b565b6040516102149190612fb0565b3480156104b657600080fd5b506101c06104c5366004612ca0565b611d1a565b3480156104d657600080fd5b506101c06104e5366004612b30565b611dfb565b6101c06104f8366004613007565b611e48565b34801561050957600080fd5b5061051d610518366004613074565b611f71565b6040516102149291906130c5565b34801561053757600080fd5b506101c06105463660046130e0565b611ff7565b34801561055757600080fd5b5061020a610566366004612a06565b61226d565b34801561057757600080fd5b5061027f61228e565b34801561058c57600080fd5b506101c061059b366004612a06565b6122e4565b6101c06105ae36600461312f565b612413565b6000818152600b602052604090205481906001600160a01b031633036105ec57604051631902ab3960e01b815260040160405180910390fd5b336000908152600d60209081526040808320858452909152902054829060ff161561062a576040516383dcc1c160e01b815260040160405180910390fd5b6006838154811061063d5761063d613175565b60009182526020822060046007909202010180549161065b836131a1565b9091555050336000908152600d602090815260408083208684528252808320805460ff19166001179055600b9091528120546001600160a01b0316906106a0826112c2565b905060006106ad336112c2565b90507fa036d403d7739d8360e6171b2fbf68a0dfef33d6c6f432a236f6c3cdbb3cfee68683836040516106e2939291906131ba565b60405180910390a1505050505050565b6000818152600b602052604090205481906001600160a01b0316331461072b57604051639ef3fcef60e01b815260040160405180910390fd5b600054674563918244f400009061074c9034906001600160a01b03166124d8565b101561076a576040516217124560e91b815260040160405180910390fd5b604051806020016040528060008152506006838154811061078d5761078d613175565b906000526020600020906007020160010190816107aa9190613276565b506000600683815481106107c0576107c0613175565b906000526020600020906007020160060160006101000a8154816001600160a01b0302191690836001600160a01b031602179055505050565b6014546000906001600160a01b031633146108275760405163aadd925760e01b815260040160405180910390fd5b504790565b336001600160a01b037f000000000000000000000000000000000000000000000000000000000000000016146108ab5760405163073e64fd60e21b81523360048201526001600160a01b037f00000000000000000000000000000000000000000000000000000000000000001660248201526044015b60405180910390fd5b6108b5828261250e565b5050565b6001600160a01b0381166000908152601160209081526040808320805482518185028101850190935280835260609492939192909184015b828210156109f45760008481526020908190206040805160c081018252600686029092018054835260018101546001600160a01b03169383019390935260028301549082015260038201805491929160608401919061094f906131ef565b80601f016020809104026020016040519081016040528092919081815260200182805461097b906131ef565b80156109c85780601f1061099d576101008083540402835291602001916109c8565b820191906000526020600020905b8154815290600101906020018083116109ab57829003601f168201915b5050505050815260200160048201548152602001600582015481525050815260200190600101906108f1565b505050509050919050565b60606016805480602002602001604051908101604052809291908181526020018280548015610a4d57602002820191906000526020600020905b815481526020019060010190808311610a39575b5050505050905090565b6000828152601060209081526040808320848452909152902054829082906001600160a01b03163314610a9d57604051632585a1bd60e01b815260040160405180910390fd5b600054674563918244f4000090610abe9034906001600160a01b03166124d8565b1015610adc576040516217124560e91b815260040160405180910390fd5b60408051602080820183526000808352878152600f90915291909120805485908110610b0a57610b0a613175565b90600052602060002090600602016003019081610b279190613276565b506000848152600f60205260408120805485908110610b4857610b48613175565b906000526020600020906006020160010160006101000a8154816001600160a01b0302191690836001600160a01b0316021790555050505050565b336000818152600360205260409020600101546001600160a01b0316610bbc5760405163995cae5960e01b815260040160405180910390fd5b6006546040805160e0810182528281526020810186905290810184905242606082015260006080820181905260a082018190523360c08301819052610c00906112c2565b336000908152600e60209081526040822080546001818101835591845292829020865160079094020192835590850151929350849290820190610c439082613276565b5060408201516002820190610c589082613276565b50606082015160038201556080820151600482015560a0820151600582015560c090910151600691820180546001600160a01b0319166001600160a01b03909216919091179055805460018101825560009190915282517ff652222313e28459528d920b65115c16c04f3efc82aaedc97be59f3f377c0d3f6007909202918201908155602084015184927ff652222313e28459528d920b65115c16c04f3efc82aaedc97be59f3f377c0d400190610d0f9082613276565b5060408201516002820190610d249082613276565b50606082015160038201556080820151600482015560a0820151600582015560c090910151600690910180546001600160a01b039092166001600160a01b0319928316179055825160078054600181019091557fa66cc928b5edb82af9bd49922954155ab7b0942694bea4ce44661d9a8736c6880155336000818152600a60209081526040808320889055878352600b909152908190208054909316909117909155517f3d4335cbfac350aa27a3fa09060b4691656ecbe3033f4d953849c2f755f230d1906106e29085908490613336565b336000818152600360205260409020600101546001600160a01b0316610e2f5760405163995cae5960e01b815260040160405180910390fd5b6000838152600f6020908152604080832054815160c08101835281815233938101939093529082018690526060820185905242608083015260a0820183905291610e788661169e565b6040015190506000610e89336112c2565b600088815260106020908152604080832088845282528083208054336001600160a01b0319918216179091558b8452600f83528184208054600181810183559186529484902089516006909602019485559288015192840180549091166001600160a01b03909316929092179091558501516002820155606085015191925084916003820190610f199082613276565b506080820151816004015560a082015181600501555050837f915184b2a0bfb3b827755b4e9e718f684996cef7b75bad20f26cd2fd67396c7783838a604051610f649392919061334f565b60405180910390a250505050505050565b610fb76040518060c001604052806000815260200160006001600160a01b03168152602001600081526020016060815260200160008152602001600081525090565b6000838152600f60205260409020805483908110610fd757610fd7613175565b90600052602060002090600602016040518060c0016040529081600082015481526020016001820160009054906101000a90046001600160a01b03166001600160a01b03166001600160a01b0316815260200160028201548152602001600382018054611043906131ef565b80601f016020809104026020016040519081016040528092919081815260200182805461106f906131ef565b80156110bc5780601f10611091576101008083540402835291602001916110bc565b820191906000526020600020905b81548152906001019060200180831161109f57829003601f168201915b505050505081526020016004820154815260200160058201548152505090505b92915050565b6000611106604051806040016040528060018152602001600160fd1b815250611f71565b509050806111345760165460405163280d711960e21b815247600482015260248101919091526044016108a2565b601654601410156111535760165461114e90600a9061339b565b611156565b60015b6018805463ffffffff191663ffffffff9283169081179091556040516305d3b1d360e41b81527f0000000000000000000000000000000000000000000000000000000000000000600482015267ffffffffffffffff7f0000000000000000000000000000000000000000000000000000000000000000166024820152600360448201527f0000000000000000000000000000000000000000000000000000000000000000909216606483015260848201526000907f00000000000000000000000000000000000000000000000000000000000000006001600160a01b031690635d3b1d309060a4016020604051808303816000875af115801561125d573d6000803e3d6000fd5b505050506040513d601f19601f8201168201806040525081019061128191906133af565b90507f0aa5a4e8e459a1f6485b98194bbe2e07647a58e7dd6d2a9923441b4d569c3077816040516112b491815260200190565b60405180910390a150505050565b6001600160a01b038082166000908152600360209081526040808320815160a08101835281548152600182015490951692850192909252600282018054606095939284019190611311906131ef565b80601f016020809104026020016040519081016040528092919081815260200182805461133d906131ef565b801561138a5780601f1061135f5761010080835404028352916020019161138a565b820191906000526020600020905b81548152906001019060200180831161136d57829003601f168201915b505050505081526020016003820180546113a3906131ef565b80601f01602080910402602001604051908101604052809291908181526020018280546113cf906131ef565b801561141c5780601f106113f15761010080835404028352916020019161141c565b820191906000526020600020905b8154815290600101906020018083116113ff57829003601f168201915b50505050508152602001600482018054611435906131ef565b80601f0160208091040260200160405190810160405280929190818152602001828054611461906131ef565b80156114ae5780601f10611483576101008083540402835291602001916114ae565b820191906000526020600020905b81548152906001019060200180831161149157829003601f168201915b50505091909252505050604001519392505050565b61150c6040518060e0016040528060008152602001606081526020016060815260200160008152602001600081526020016000815260200160006001600160a01b031681525090565b6006828154811061151f5761151f613175565b90600052602060002090600702016040518060e001604052908160008201548152602001600182018054611552906131ef565b80601f016020809104026020016040519081016040528092919081815260200182805461157e906131ef565b80156115cb5780601f106115a0576101008083540402835291602001916115cb565b820191906000526020600020905b8154815290600101906020018083116115ae57829003601f168201915b505050505081526020016002820180546115e4906131ef565b80601f0160208091040260200160405190810160405280929190818152602001828054611610906131ef565b801561165d5780601f106116325761010080835404028352916020019161165d565b820191906000526020600020905b81548152906001019060200180831161164057829003601f168201915b50505091835250506003820154602082015260048201546040820152600582015460608201526006909101546001600160a01b031660809091015292915050565b6116a661296e565b600282815481106116b9576116b9613175565b90600052602060002090600502016040518060a0016040529081600082015481526020016001820160009054906101000a90046001600160a01b03166001600160a01b03166001600160a01b0316815260200160028201805461171b906131ef565b80601f0160208091040260200160405190810160405280929190818152602001828054611747906131ef565b80156117945780601f1061176957610100808354040283529160200191611794565b820191906000526020600020905b81548152906001019060200180831161177757829003601f168201915b505050505081526020016003820180546117ad906131ef565b80601f01602080910402602001604051908101604052809291908181526020018280546117d9906131ef565b80156118265780601f106117fb57610100808354040283529160200191611826565b820191906000526020600020905b81548152906001019060200180831161180957829003601f168201915b5050505050815260200160048201805461183f906131ef565b80601f016020809104026020016040519081016040528092919081815260200182805461186b906131ef565b80156118b85780601f1061188d576101008083540402835291602001916118b8565b820191906000526020600020905b81548152906001019060200180831161189b57829003601f168201915b5050505050815250509050919050565b6118d061296e565b6001600160a01b03808316600090815260036020908152604091829020825160a08101845281548152600182015490941691840191909152600281018054919284019161171b906131ef565b336000818152600360205260409020600101546001600160a01b03166119555760405163995cae5960e01b815260040160405180910390fd5b8261195f8161169e565b602001516001600160a01b0316336001600160a01b0316146119945760405163255978fd60e21b815260040160405180910390fd5b8260006001600160a01b0316600c826040516119b091906133c8565b908152604051908190036020019020546001600160a01b0316146119e75760405163cd9c3c2960e01b815260040160405180910390fd5b83600286815481106119fb576119fb613175565b90600052602060002090600502016002019081611a189190613276565b505050505050565b6000828152601360209081526040808320848452825291829020805483518184028101840190945280845260609392830182828015611a8857602002820191906000526020600020905b81546001600160a01b03168152600190910190602001808311611a6a575b5050505050905092915050565b6014546001600160a01b03163314611ac05760405163aadd925760e01b815260040160405180910390fd5b6040516001600160a01b038216904780156108fc02916000818181858888f193505050501580156108b5573d6000803e3d6000fd5b60606007805480602002602001604051908101604052809291908181526020018280548015610a4d5760200282019190600052602060002090815481526020019060010190808311610a39575050505050905090565b6001600160a01b0381166000908152600e60209081526040808320805482518185028101850190935280835260609492939192909184015b828210156109f457838290600052602060002090600702016040518060e001604052908160008201548152602001600182018054611bc0906131ef565b80601f0160208091040260200160405190810160405280929190818152602001828054611bec906131ef565b8015611c395780601f10611c0e57610100808354040283529160200191611c39565b820191906000526020600020905b815481529060010190602001808311611c1c57829003601f168201915b50505050508152602001600282018054611c52906131ef565b80601f0160208091040260200160405190810160405280929190818152602001828054611c7e906131ef565b8015611ccb5780601f10611ca057610100808354040283529160200191611ccb565b820191906000526020600020905b815481529060010190602001808311611cae57829003601f168201915b5050509183525050600382015460208083019190915260048301546040830152600583015460608301526006909201546001600160a01b03166080909101529082526001929092019101611b83565b336000818152600360205260409020600101546001600160a01b0316611d535760405163995cae5960e01b815260040160405180910390fd5b6000838152600f60205260409020805483908110611d7357611d73613175565b600091825260208220600560069092020101805491611d91836131a1565b9091555050506000828152601260209081526040808320848452825280832033808552908352818420805460ff19166001908117909155958452601383528184209484529382528220805494850181558252902090910180546001600160a01b0319169091179055565b6014546001600160a01b03163314611e265760405163aadd925760e01b815260040160405180910390fd5b601480546001600160a01b0319166001600160a01b0392909216919091179055565b6000838152600b602052604090205483906001600160a01b03163314611e8157604051639ef3fcef60e01b815260040160405180910390fd5b600054674563918244f4000090611ea29034906001600160a01b03166124d8565b1015611ec0576040516217124560e91b815260040160405180910390fd5b8260068581548110611ed457611ed4613175565b90600052602060002090600702016001019081611ef19190613276565b508160068581548110611f0657611f06613175565b90600052602060002090600702016002019081611f239190613276565b506000611f2f336112c2565b90507f7009e6824c3ecb1321da2ebabc18901b48d900a97f978c5a93dd3ba8cfe590358582604051611f62929190613336565b60405180910390a15050505050565b60006060611f7d612819565b60007f000000000000000000000000000000000000000000000000000000000000000060015442611fae91906133e4565b601654911180159250471515911515908390611fc75750815b8015611fd05750805b60408051808201909152600381526203078360ec1b60208201529097909650945050505050565b8260006001600160a01b0316600c8260405161201391906133c8565b908152604051908190036020019020546001600160a01b03161461204a5760405163cd9c3c2960e01b815260040160405180910390fd5b600480546000918261205b836131a1565b91905055905061206961296e565b81815233602080830182815260408085018a8152606086018a905260808601899052600094855260039093529092208351815591516001830180546001600160a01b0319166001600160a01b039092169190911790555182919060028201906120d29082613276565b50606082015160038201906120e79082613276565b50608082015160048201906120fc9082613276565b5050336000818152600560205260409081902085905551909150600c906121249089906133c8565b908152604080516020928190038301902080546001600160a01b03199081166001600160a01b03958616179091556002805460018101825560009190915285517f405787fa12a823e0f2b7631cc41b3ba8828b3321ca811111fa75cd3aa3bb5ace6005909202918201908155938601517f405787fa12a823e0f2b7631cc41b3ba8828b3321ca811111fa75cd3aa3bb5acf82018054909316951694909417905583015183927f405787fa12a823e0f2b7631cc41b3ba8828b3321ca811111fa75cd3aa3bb5ad001906121f69082613276565b506060820151600382019061220b9082613276565b50608082015160048201906122209082613276565b5050508560405161223191906133c8565b60405190819003812090339084907f8d76d60617424d83544323e2322cb8d86537451c9b3d991886ce6f4721e3865e90600090a4505050505050565b6000805481906122879084906001600160a01b03166124d8565b9392505050565b60606017805480602002602001604051908101604052809291908181526020018280548015610a4d5760200282019190600052602060002090815481526020019060010190808311610a39575050505050905090565b6000818152600b602052604090205481906001600160a01b0316330361231d57604051631902ab3960e01b815260040160405180910390fd5b336000908152600d60209081526040808320858452909152902054829060ff161561235b576040516383dcc1c160e01b815260040160405180910390fd5b6006838154811061236e5761236e613175565b60009182526020822060056007909202010180549161238c836131a1565b9091555050336000908152600d602090815260408083208684528252808320805460ff19166001179055600b9091528120546001600160a01b0316906123d1826112c2565b905060006123de336112c2565b90507fd7ad3e52dbe8b445d900fd8aa659c95d5b75bb6733c12e7f22d048963bd39ed58683836040516106e2939291906131ba565b6000838152601060209081526040808320858452909152902054839083906001600160a01b0316331461245957604051632585a1bd60e01b815260040160405180910390fd5b600054674563918244f400009061247a9034906001600160a01b03166124d8565b1015612498576040516217124560e91b815260040160405180910390fd5b6000858152600f602052604090208054849190869081106124bb576124bb613175565b90600052602060002090600602016003019081611a189190613276565b6000806124e48361288f565b90506000670de0b6b3a76400006124fb83876133f7565b612505919061340e565b95945050505050565b604080516000815260208101918290525161252b916017916129a6565b5080516001036126a25760006016805490508260008151811061255057612550613175565b6020026020010151612562919061339b565b905060006016828154811061257957612579613175565b6000918252602082200154601780546001810182559083527fc624b66cc0138b8fabc209247f72d758e1cf3343756d543badbf24212bed8c150181905591506125c1826114c3565b60c0015160408051600081526020810191829052519192506125e691600791906129a6565b50426001556040516001600160a01b03821681527fb112587e57bfa970257f3d54fc52859c6300f6bd7a982462c320fed45c2530ed9060200160405180910390a16000816001600160a01b0316662386f26fc1000060405160006040518083038185875af1925050503d806000811461267b576040519150601f19603f3d011682016040523d82523d6000602084013e612680565b606091505b5050905080611a185760405163344efcaf60e21b815260040160405180910390fd5b805160005b818110156128135760006016805490508483815181106126c9576126c9613175565b60200260200101516126db919061339b565b90506000601682815481106126f2576126f2613175565b6000918252602082200154601780546001810182559083527fc624b66cc0138b8fabc209247f72d758e1cf3343756d543badbf24212bed8c1501819055915061273a826114c3565b60c001516040516001600160a01b03821681529091507fb112587e57bfa970257f3d54fc52859c6300f6bd7a982462c320fed45c2530ed9060200160405180910390a16000816001600160a01b0316662386f26fc1000060405160006040518083038185875af1925050503d80600081146127d1576040519150601f19603f3d011682016040523d82523d6000602084013e6127d6565b606091505b505090508061280357604051634b58e08160e11b81526001600160a01b03831660048201526024016108a2565b5050600190920191506126a79050565b50505050565b60075460005b818110156108b55761284d6007828154811061283d5761283d613175565b906000526020600020015461290b565b156128875760166007828154811061286757612867613175565b600091825260208083209091015483546001810185559383529120909101555b60010161281f565b600080826001600160a01b031663feaf968c6040518163ffffffff1660e01b815260040160a060405180830381865afa1580156128d0573d6000803e3d6000fd5b505050506040513d601f19601f820116820180604052508101906128f49190613441565b505050915050806402540be4006122879190613491565b600080612917836114c3565b6080015190506000612928846114c3565b60a00151905060008061293b83856133e4565b11612947576000612951565b61295182846133e4565b90506005811015612963576000612505565b600195945050505050565b6040518060a001604052806000815260200160006001600160a01b031681526020016060815260200160608152602001606081525090565b8280548282559060005260206000209081019282156129e1579160200282015b828111156129e15782518255916020019190600101906129c6565b506129ed9291506129f1565b5090565b5b808211156129ed57600081556001016129f2565b600060208284031215612a1857600080fd5b5035919050565b634e487b7160e01b600052604160045260246000fd5b604051601f8201601f1916810167ffffffffffffffff81118282101715612a5e57612a5e612a1f565b604052919050565b60008060408385031215612a7957600080fd5b8235915060208084013567ffffffffffffffff80821115612a9957600080fd5b818601915086601f830112612aad57600080fd5b813581811115612abf57612abf612a1f565b8060051b9150612ad0848301612a35565b8181529183018401918481019089841115612aea57600080fd5b938501935b83851015612b0857843582529385019390850190612aef565b8096505050505050509250929050565b6001600160a01b0381168114612b2d57600080fd5b50565b600060208284031215612b4257600080fd5b813561228781612b18565b60005b83811015612b68578181015183820152602001612b50565b50506000910152565b60008151808452612b89816020860160208601612b4d565b601f01601f19169290920160200192915050565b8051825260018060a01b036020820151166020830152604081015160408301526000606082015160c06060850152612bd860c0850182612b71565b90506080830151608085015260a083015160a08501528091505092915050565b600060208083016020845280855180835260408601915060408160051b87010192506020870160005b82811015612c4f57603f19888603018452612c3d858351612b9d565b94509285019290850190600101612c21565b5092979650505050505050565b6020808252825182820181905260009190848201906040850190845b81811015612c9457835183529284019291840191600101612c78565b50909695505050505050565b60008060408385031215612cb357600080fd5b50508035926020909101359150565b600067ffffffffffffffff831115612cdc57612cdc612a1f565b612cef601f8401601f1916602001612a35565b9050828152838383011115612d0357600080fd5b828260208301376000602084830101529392505050565b600082601f830112612d2b57600080fd5b61228783833560208501612cc2565b60008060408385031215612d4d57600080fd5b823567ffffffffffffffff80821115612d6557600080fd5b612d7186838701612d1a565b93506020850135915080821115612d8757600080fd5b50612d9485828601612d1a565b9150509250929050565b60008060408385031215612db157600080fd5b82359150602083013567ffffffffffffffff811115612dcf57600080fd5b612d9485828601612d1a565b6020815260006122876020830184612b9d565b60008060208385031215612e0157600080fd5b823567ffffffffffffffff80821115612e1957600080fd5b818501915085601f830112612e2d57600080fd5b813581811115612e3c57600080fd5b866020828501011115612e4e57600080fd5b60209290920196919550909350505050565b6020815260006122876020830184612b71565b805182526000602082015160e06020850152612e9260e0850182612b71565b905060408301518482036040860152612eab8282612b71565b606085810151908701526080808601519087015260a0808601519087015260c0948501516001600160a01b03169490950193909352509192915050565b6020815260006122876020830184612e73565b602081528151602082015260018060a01b0360208301511660408201526000604083015160a06060840152612f3360c0840182612b71565b90506060840151601f1980858403016080860152612f518383612b71565b925060808601519150808584030160a0860152506125058282612b71565b6020808252825182820181905260009190848201906040850190845b81811015612c945783516001600160a01b031683529284019291840191600101612f8b565b600060208083016020845280855180835260408601915060408160051b87010192506020870160005b82811015612c4f57603f19888603018452612ff5858351612e73565b94509285019290850190600101612fd9565b60008060006060848603121561301c57600080fd5b83359250602084013567ffffffffffffffff8082111561303b57600080fd5b61304787838801612d1a565b9350604086013591508082111561305d57600080fd5b5061306a86828701612d1a565b9150509250925092565b60006020828403121561308657600080fd5b813567ffffffffffffffff81111561309d57600080fd5b8201601f810184136130ae57600080fd5b6130bd84823560208401612cc2565b949350505050565b82151581526040602082015260006130bd6040830184612b71565b6000806000606084860312156130f557600080fd5b833567ffffffffffffffff8082111561310d57600080fd5b61311987838801612d1a565b9450602086013591508082111561303b57600080fd5b60008060006060848603121561314457600080fd5b8335925060208401359150604084013567ffffffffffffffff81111561316957600080fd5b61306a86828701612d1a565b634e487b7160e01b600052603260045260246000fd5b634e487b7160e01b600052601160045260246000fd5b6000600182016131b3576131b361318b565b5060010190565b8381526060602082015260006131d36060830185612b71565b82810360408401526131e58185612b71565b9695505050505050565b600181811c9082168061320357607f821691505b60208210810361322357634e487b7160e01b600052602260045260246000fd5b50919050565b601f821115613271576000816000526020600020601f850160051c810160208610156132525750805b601f850160051c820191505b81811015611a185782815560010161325e565b505050565b815167ffffffffffffffff81111561329057613290612a1f565b6132a48161329e84546131ef565b84613229565b602080601f8311600181146132d957600084156132c15750858301515b600019600386901b1c1916600185901b178555611a18565b600085815260208120601f198616915b82811015613308578886015182559484019460019091019084016132e9565b50858210156133265787850151600019600388901b60f8161c191681555b5050505050600190811b01905550565b8281526040602082015260006130bd6040830184612b71565b6060815260006133626060830186612b71565b82810360208401526133748186612b71565b915050826040830152949350505050565b634e487b7160e01b600052601260045260246000fd5b6000826133aa576133aa613385565b500690565b6000602082840312156133c157600080fd5b5051919050565b600082516133da818460208701612b4d565b9190910192915050565b818103818111156110dc576110dc61318b565b80820281158282048414176110dc576110dc61318b565b60008261341d5761341d613385565b500490565b805169ffffffffffffffffffff8116811461343c57600080fd5b919050565b600080600080600060a0868803121561345957600080fd5b61346286613422565b945060208601519350604086015192506060860151915061348560808701613422565b90509295509295909350565b80820260008212600160ff1b841416156134ad576134ad61318b565b81810583148215176110dc576110dc61318b56fea26469706673582212206dfd9bdcc72a4ebc451f619a9273852b02004b22f6ee532dccf62d2db657ded064736f6c63430008180033","linkReferences":{}},"methodIdentifiers":{"CheckUpkeep(bytes)":"c9fbacf3","changeOwner(address)":"a6f9dae1","changeUsername(uint256,string)":"72d4e382","createComment(uint256,string)":"40a17985","createPost(string,string)":"392338f5","deleteComment(uint256,uint256)":"31a4bcb5","deletePost(uint256)":"094cd5ee","downvote(uint256)":"f31fdad4","editComment(uint256,uint256,string)":"fa561152","editPost(uint256,string,string)":"bf0ac63c","getBalance()":"12065fe0","getCommentByPostIdAndCommentId(uint256,uint256)":"4296db5b","getCommentLikersByPostIdAndCommentId(uint256,uint256)":"8dc4a066","getContractOwner()":"442890d5","getIdsOfEligiblePosts()":"2d492c83","getIdsOfRecentPosts()":"984d1015","getPostById(uint256)":"64e95895","getRecentWinners()":"f077b974","getUsdValueOfEthAmount(uint256)":"e96c520b","getUser(address)":"6f77926b","getUserById(uint256)":"6ed6da9e","getUserComments(address)":"2b3c6e22","getUserNameFromAddress(address)":"6372af84","getUserPosts(address)":"9a2194a9","likeComment(uint256,uint256)":"a0e91821","performUpkeep(bytes)":"4585e33b","rawFulfillRandomWords(uint256,uint256[])":"1fe543e3","registerUser(string,string,string)":"d637dcfa","transferContractBalance(address)":"96f11ac8","upvote(uint256)":"01ddf070"},"id":36}