{"abi":[{"type":"constructor","inputs":[{"name":"priceFeed","type":"address","internalType":"address"}],"stateMutability":"nonpayable"},{"type":"receive","stateMutability":"payable"},{"type":"function","name":"changeOwner","inputs":[{"name":"_newOwner","type":"address","internalType":"address"}],"outputs":[],"stateMutability":"nonpayable"},{"type":"function","name":"changeUsername","inputs":[{"name":"_newName","type":"string","internalType":"string"}],"outputs":[],"stateMutability":"nonpayable"},{"type":"function","name":"createComment","inputs":[{"name":"_postAuthor","type":"address","internalType":"address"},{"name":"_postId","type":"uint256","internalType":"uint256"},{"name":"_content","type":"string","internalType":"string"}],"outputs":[],"stateMutability":"nonpayable"},{"type":"function","name":"createPost","inputs":[{"name":"_content","type":"string","internalType":"string"},{"name":"_imgHash","type":"string","internalType":"string"}],"outputs":[],"stateMutability":"nonpayable"},{"type":"function","name":"deleteComment","inputs":[{"name":"_commentId","type":"uint256","internalType":"uint256"}],"outputs":[],"stateMutability":"nonpayable"},{"type":"function","name":"deletePost","inputs":[{"name":"_postId","type":"uint256","internalType":"uint256"}],"outputs":[],"stateMutability":"nonpayable"},{"type":"function","name":"downvote","inputs":[{"name":"_postId","type":"uint256","internalType":"uint256"}],"outputs":[],"stateMutability":"nonpayable"},{"type":"function","name":"editComment","inputs":[{"name":"_commentId","type":"uint256","internalType":"uint256"},{"name":"_content","type":"string","internalType":"string"}],"outputs":[],"stateMutability":"nonpayable"},{"type":"function","name":"editPost","inputs":[{"name":"_postId","type":"uint256","internalType":"uint256"},{"name":"_content","type":"string","internalType":"string"},{"name":"_imgHash","type":"string","internalType":"string"}],"outputs":[],"stateMutability":"payable"},{"type":"function","name":"getBalance","inputs":[],"outputs":[{"name":"","type":"uint256","internalType":"uint256"}],"stateMutability":"view"},{"type":"function","name":"getPostById","inputs":[{"name":"_postId","type":"uint256","internalType":"uint256"}],"outputs":[{"name":"","type":"tuple","internalType":"struct SocialMedia.Post","components":[{"name":"postId","type":"uint256","internalType":"uint256"},{"name":"content","type":"string","internalType":"string"},{"name":"imgHash","type":"string","internalType":"string"},{"name":"timestamp","type":"uint256","internalType":"uint256"},{"name":"upvotes","type":"uint256","internalType":"uint256"},{"name":"downvotes","type":"uint256","internalType":"uint256"},{"name":"author","type":"address","internalType":"address"}]}],"stateMutability":"view"},{"type":"function","name":"getUser","inputs":[{"name":"_userAddress","type":"address","internalType":"address"}],"outputs":[{"name":"","type":"tuple","internalType":"struct SocialMedia.User","components":[{"name":"id","type":"uint256","internalType":"uint256"},{"name":"userAddress","type":"address","internalType":"address"},{"name":"name","type":"string","internalType":"string"},{"name":"bio","type":"string","internalType":"string"},{"name":"profileImageHash","type":"string","internalType":"string"}]}],"stateMutability":"view"},{"type":"function","name":"getUserById","inputs":[{"name":"_userId","type":"uint256","internalType":"uint256"}],"outputs":[{"name":"","type":"tuple","internalType":"struct SocialMedia.User","components":[{"name":"id","type":"uint256","internalType":"uint256"},{"name":"userAddress","type":"address","internalType":"address"},{"name":"name","type":"string","internalType":"string"},{"name":"bio","type":"string","internalType":"string"},{"name":"profileImageHash","type":"string","internalType":"string"}]}],"stateMutability":"view"},{"type":"function","name":"getUserComments","inputs":[{"name":"_userAddress","type":"address","internalType":"address"}],"outputs":[{"name":"","type":"tuple[]","internalType":"struct SocialMedia.Comment[]","components":[{"name":"commentId","type":"uint256","internalType":"uint256"},{"name":"author","type":"address","internalType":"address"},{"name":"postId","type":"uint256","internalType":"uint256"},{"name":"content","type":"string","internalType":"string"},{"name":"timestamp","type":"uint256","internalType":"uint256"},{"name":"likesCount","type":"uint256","internalType":"uint256"}]}],"stateMutability":"view"},{"type":"function","name":"getUserNameFromAddress","inputs":[{"name":"_userAddress","type":"address","internalType":"address"}],"outputs":[{"name":"nameOfUser","type":"string","internalType":"string"}],"stateMutability":"view"},{"type":"function","name":"getUserPosts","inputs":[{"name":"_userAddress","type":"address","internalType":"address"}],"outputs":[{"name":"","type":"tuple[]","internalType":"struct SocialMedia.Post[]","components":[{"name":"postId","type":"uint256","internalType":"uint256"},{"name":"content","type":"string","internalType":"string"},{"name":"imgHash","type":"string","internalType":"string"},{"name":"timestamp","type":"uint256","internalType":"uint256"},{"name":"upvotes","type":"uint256","internalType":"uint256"},{"name":"downvotes","type":"uint256","internalType":"uint256"},{"name":"author","type":"address","internalType":"address"}]}],"stateMutability":"view"},{"type":"function","name":"likeComment","inputs":[{"name":"_commentId","type":"uint256","internalType":"uint256"}],"outputs":[],"stateMutability":"nonpayable"},{"type":"function","name":"registerUser","inputs":[{"name":"_name","type":"string","internalType":"string"},{"name":"_bio","type":"string","internalType":"string"},{"name":"_profileImageHash","type":"string","internalType":"string"}],"outputs":[],"stateMutability":"nonpayable"},{"type":"function","name":"startDapp","inputs":[],"outputs":[],"stateMutability":"nonpayable"},{"type":"function","name":"stopDapp","inputs":[],"outputs":[],"stateMutability":"nonpayable"},{"type":"function","name":"transferContractBalance","inputs":[{"name":"_to","type":"address","internalType":"address payable"}],"outputs":[],"stateMutability":"nonpayable"},{"type":"function","name":"upvote","inputs":[{"name":"_postId","type":"uint256","internalType":"uint256"}],"outputs":[],"stateMutability":"nonpayable"},{"type":"event","name":"CommentCreated","inputs":[{"name":"commentId","type":"uint256","indexed":true,"internalType":"uint256"},{"name":"postAuthor","type":"address","indexed":true,"internalType":"address"},{"name":"commentAuthor","type":"address","indexed":true,"internalType":"address"},{"name":"postId","type":"uint256","indexed":false,"internalType":"uint256"}],"anonymous":false},{"type":"event","name":"Downvoted","inputs":[{"name":"postId","type":"uint256","indexed":false,"internalType":"uint256"},{"name":"voter","type":"address","indexed":false,"internalType":"address"}],"anonymous":false},{"type":"event","name":"PostCreated","inputs":[{"name":"postId","type":"uint256","indexed":false,"internalType":"uint256"},{"name":"authorName","type":"string","indexed":false,"internalType":"string"}],"anonymous":false},{"type":"event","name":"PostEdited","inputs":[{"name":"postId","type":"uint256","indexed":false,"internalType":"uint256"},{"name":"authorName","type":"string","indexed":false,"internalType":"string"}],"anonymous":false},{"type":"event","name":"PostLiked","inputs":[{"name":"postId","type":"uint256","indexed":true,"internalType":"uint256"},{"name":"postAuthor","type":"address","indexed":true,"internalType":"address"},{"name":"liker","type":"address","indexed":true,"internalType":"address"}],"anonymous":false},{"type":"event","name":"Upvoted","inputs":[{"name":"postId","type":"uint256","indexed":false,"internalType":"uint256"},{"name":"voter","type":"address","indexed":false,"internalType":"address"}],"anonymous":false},{"type":"event","name":"UserRegistered","inputs":[{"name":"id","type":"uint256","indexed":true,"internalType":"uint256"},{"name":"userAddress","type":"address","indexed":true,"internalType":"address"},{"name":"name","type":"string","indexed":true,"internalType":"string"}],"anonymous":false},{"type":"error","name":"SocialMedia__AlreadyVoted","inputs":[]},{"type":"error","name":"SocialMedia__NotCommentOwner","inputs":[]},{"type":"error","name":"SocialMedia__NotOwner","inputs":[]},{"type":"error","name":"SocialMedia__NotPostOwner","inputs":[]},{"type":"error","name":"SocialMedia__OwnerCannotVote","inputs":[]},{"type":"error","name":"SocialMedia__PaymentNotEnough","inputs":[]},{"type":"error","name":"SocialMedia__UserDoesNotExist","inputs":[]},{"type":"error","name":"SocialMedia__UsernameAlreadyTaken","inputs":[]}],"bytecode":{"object":"0x608060405234801561001057600080fd5b506040516200248f3803806200248f83398101604081905261003191610064565b60068054336001600160a01b031991821617909155600080549091166001600160a01b0392909216919091179055610094565b60006020828403121561007657600080fd5b81516001600160a01b038116811461008d57600080fd5b9392505050565b6123eb80620000a46000396000f3fe6080604052600436106101395760003560e01c80636f77926b116100ab5780639a2194a91161006f5780639a2194a914610358578063a6f9dae114610385578063ad816029146103a5578063bf0ac63c146103c5578063d637dcfa146103d8578063f31fdad4146103f857600080fd5b80636f77926b146102d857806377c846af146102f85780637d0b10261461031857806395d2cc921461021c57806396f11ac81461033857600080fd5b80632b69e24f116100fd5780632b69e24f146101fc57806333aa01e91461021c578063392338f5146102315780636372af841461025157806364e958951461027e5780636ed6da9e146102ab57600080fd5b8063012cc1e21461014557806301ddf07014610167578063094cd5ee1461018757806312065fe0146101a75780632b3c6e22146101cf57600080fd5b3661014057005b600080fd5b34801561015157600080fd5b50610165610160366004611bc7565b610418565b005b34801561017357600080fd5b50610165610182366004611bc7565b61043d565b34801561019357600080fd5b506101656101a2366004611bc7565b61057e565b3480156101b357600080fd5b506101bc61060f565b6040519081526020015b60405180910390f35b3480156101db57600080fd5b506101ef6101ea366004611bf5565b610642565b6040516101c69190611c62565b34801561020857600080fd5b50610165610217366004611db3565b610788565b34801561022857600080fd5b50610165610890565b34801561023d57600080fd5b5061016561024c366004611e0c565b6108bd565b34801561025d57600080fd5b5061027161026c366004611bf5565b610b15565b6040516101c69190611e70565b34801561028a57600080fd5b5061029e610299366004611bc7565b610d14565b6040516101c69190611ef8565b3480156102b757600080fd5b506102cb6102c6366004611bc7565b610eef565b6040516101c69190611f0b565b3480156102e457600080fd5b506102cb6102f3366004611bf5565b611119565b34801561030457600080fd5b50610165610313366004611f88565b61116a565b34801561032457600080fd5b50610165610333366004611bc7565b611242565b34801561034457600080fd5b50610165610353366004611bf5565b6112cc565b34801561036457600080fd5b50610378610373366004611bf5565b611330565b6040516101c69190611fc5565b34801561039157600080fd5b506101656103a0366004611bf5565b6114ff565b3480156103b157600080fd5b506101656103c0366004612029565b61154c565b6101656103d3366004612066565b6115a6565b3480156103e457600080fd5b506101656103f33660046120c9565b6116cf565b34801561040457600080fd5b50610165610413366004611bc7565b611946565b60008181526003602052604081206005018054916104358361212e565b919050555050565b60008181526002602052604090206006015481906001600160a01b0316330361047957604051631902ab3960e01b815260040160405180910390fd5b336000908152600960209081526040808320858452909152902054829060ff16156104b7576040516383dcc1c160e01b815260040160405180910390fd5b60008381526002602052604081206004018054916104d48361212e565b90915550503360008181526009602090815260408083208784528252808320805460ff191660019081179091556008805491820181559093527ff3f7a9fe364faab93b216da50a3214154f22a0a2b415b23a84c8169e8b636ee390920180546001600160a01b031916841790558151868152908101929092527f0e092509bde1dd304f477e3ec921b6e4e5092738f70dcd204952ffc1ffdaafdf91015b60405180910390a1505050565b60008181526005602052604090205481906001600160a01b031633146105b757604051639ef3fcef60e01b815260040160405180910390fd5b6000828152600260205260408120818155906105d66001830182611b39565b6105e4600283016000611b39565b5060006003820181905560048201819055600582015560060180546001600160a01b03191690555050565b6006546000906001600160a01b0316331461063d5760405163aadd925760e01b815260040160405180910390fd5b504790565b6001600160a01b0381166000908152600c60209081526040808320805482518185028101850190935280835260609492939192909184015b8282101561077d5760008481526020908190206040805160c081018252600686029092018054835260018101546001600160a01b0316938301939093526002830154908201526003820180549192916060840191906106d890612147565b80601f016020809104026020016040519081016040528092919081815260200182805461070490612147565b80156107515780601f1061072657610100808354040283529160200191610751565b820191906000526020600020905b81548152906001019060200180831161073457829003601f168201915b50505050508152602001600482015481526020016005820154815250508152602001906001019061067a565b505050509050919050565b6040805160c081018252600180825233602080840191825283850187815260608501878152426080870152600060a087018190526001600160a01b038b81168252600b85528882208b83528552978120805480880182559082529390208651600690940201928355925182850180546001600160a01b0319169190971617909555935160028501555190928291600382019061082490826121d2565b506080820151816004015560a082015181600501555050336001600160a01b0316856001600160a01b0316837f3c9238b160bb5c53a432171c8d2eb7ed9ad9fdb80ecb6ebb4fd6b52787077db98760405161088191815260200190565b60405180910390a45050505050565b6006546001600160a01b031633146108bb5760405163aadd925760e01b815260040160405180910390fd5b565b33600081815260016020819052604090912001546001600160a01b03166108f75760405163995cae5960e01b815260040160405180910390fd5b6010546040805160e0810182528281526020810186905290810184905242606082015260006080820181905260a082018190523360c0830181905261093b90610b15565b336000908152600a6020908152604082208054600181810183559184529282902086516007909402019283559085015192935084929082019061097e90826121d2565b506040820151600282019061099390826121d2565b50606082015160038201556080820151600482015560a0820151600582015560c090910151600690910180546001600160a01b0319166001600160a01b039092169190911790556010805460018101825560009190915282517f1b6847dc741a1b0cd08d278845f9d819d87b734759afb55fe2de5cb82a9ae6726007909202918201908155602084015184927f1b6847dc741a1b0cd08d278845f9d819d87b734759afb55fe2de5cb82a9ae6730190610a4c90826121d2565b5060408201516002820190610a6190826121d2565b5060608201516003820155608082015160048083019190915560a083015160058084019190915560c090930151600690920180546001600160a01b039093166001600160a01b03199384161790553360008181526020928352604080822089905588825294909252908390208054909216179055517f3d4335cbfac350aa27a3fa09060b4691656ecbe3033f4d953849c2f755f230d190610b059085908490612292565b60405180910390a1505050505050565b6001600160a01b038082166000908152600160208181526040808420815160a0810183528154815293810154909516918301919091526002840180546060959284019190610b6290612147565b80601f0160208091040260200160405190810160405280929190818152602001828054610b8e90612147565b8015610bdb5780601f10610bb057610100808354040283529160200191610bdb565b820191906000526020600020905b815481529060010190602001808311610bbe57829003601f168201915b50505050508152602001600382018054610bf490612147565b80601f0160208091040260200160405190810160405280929190818152602001828054610c2090612147565b8015610c6d5780601f10610c4257610100808354040283529160200191610c6d565b820191906000526020600020905b815481529060010190602001808311610c5057829003601f168201915b50505050508152602001600482018054610c8690612147565b80601f0160208091040260200160405190810160405280929190818152602001828054610cb290612147565b8015610cff5780601f10610cd457610100808354040283529160200191610cff565b820191906000526020600020905b815481529060010190602001808311610ce257829003601f168201915b50505091909252505050604001519392505050565b610d5d6040518060e0016040528060008152602001606081526020016060815260200160008152602001600081526020016000815260200160006001600160a01b031681525090565b60108281548110610d7057610d706122ab565b90600052602060002090600702016040518060e001604052908160008201548152602001600182018054610da390612147565b80601f0160208091040260200160405190810160405280929190818152602001828054610dcf90612147565b8015610e1c5780601f10610df157610100808354040283529160200191610e1c565b820191906000526020600020905b815481529060010190602001808311610dff57829003601f168201915b50505050508152602001600282018054610e3590612147565b80601f0160208091040260200160405190810160405280929190818152602001828054610e6190612147565b8015610eae5780601f10610e8357610100808354040283529160200191610eae565b820191906000526020600020905b815481529060010190602001808311610e9157829003601f168201915b50505091835250506003820154602082015260048201546040820152600582015460608201526006909101546001600160a01b031660809091015292915050565b610ef7611b76565b600f8281548110610f0a57610f0a6122ab565b90600052602060002090600502016040518060a0016040529081600082015481526020016001820160009054906101000a90046001600160a01b03166001600160a01b03166001600160a01b03168152602001600282018054610f6c90612147565b80601f0160208091040260200160405190810160405280929190818152602001828054610f9890612147565b8015610fe55780601f10610fba57610100808354040283529160200191610fe5565b820191906000526020600020905b815481529060010190602001808311610fc857829003601f168201915b50505050508152602001600382018054610ffe90612147565b80601f016020809104026020016040519081016040528092919081815260200182805461102a90612147565b80156110775780601f1061104c57610100808354040283529160200191611077565b820191906000526020600020905b81548152906001019060200180831161105a57829003601f168201915b5050505050815260200160048201805461109090612147565b80601f01602080910402602001604051908101604052809291908181526020018280546110bc90612147565b80156111095780601f106110de57610100808354040283529160200191611109565b820191906000526020600020905b8154815290600101906020018083116110ec57829003601f168201915b5050505050815250509050919050565b611121611b76565b6001600160a01b03808316600090815260016020818152604092839020835160a081018552815481529281015490941690820152600283018054919392840191610f6c90612147565b33600081815260016020819052604090912001546001600160a01b03166111a45760405163995cae5960e01b815260040160405180910390fd5b8160006001600160a01b03166007826040516111c091906122c1565b908152604051908190036020019020546001600160a01b0316146111f75760405163cd9c3c2960e01b815260040160405180910390fd5b336000908152600e6020526040902054600f80548591908390811061121e5761121e6122ab565b9060005260206000209060050201600201908161123b91906121d2565b5050505050565b60008181526003602052604090206001015481906001600160a01b0316331461127e57604051632585a1bd60e01b815260040160405180910390fd5b600082815260036020819052604082208281556001810180546001600160a01b03191690556002810183905591906112b890830182611b39565b506000600482018190556005909101555050565b6006546001600160a01b031633146112f75760405163aadd925760e01b815260040160405180910390fd5b6040516001600160a01b038216904780156108fc02916000818181858888f1935050505015801561132c573d6000803e3d6000fd5b5050565b6001600160a01b0381166000908152600a60209081526040808320805482518185028101850190935280835260609492939192909184015b8282101561077d57838290600052602060002090600702016040518060e0016040529081600082015481526020016001820180546113a590612147565b80601f01602080910402602001604051908101604052809291908181526020018280546113d190612147565b801561141e5780601f106113f35761010080835404028352916020019161141e565b820191906000526020600020905b81548152906001019060200180831161140157829003601f168201915b5050505050815260200160028201805461143790612147565b80601f016020809104026020016040519081016040528092919081815260200182805461146390612147565b80156114b05780601f10611485576101008083540402835291602001916114b0565b820191906000526020600020905b81548152906001019060200180831161149357829003601f168201915b5050509183525050600382015460208083019190915260048301546040830152600583015460608301526006909201546001600160a01b03166080909101529082526001929092019101611368565b6006546001600160a01b0316331461152a5760405163aadd925760e01b815260040160405180910390fd5b600680546001600160a01b0319166001600160a01b0392909216919091179055565b60008281526003602052604090206001015482906001600160a01b0316331461158857604051632585a1bd60e01b815260040160405180910390fd5b600083815260036020819052604090912090810161123b84826121d2565b60008381526005602052604090205483906001600160a01b031633146115df57604051639ef3fcef60e01b815260040160405180910390fd5b600054674563918244f40000906116009034906001600160a01b0316611a7e565b101561161e576040516217124560e91b815260040160405180910390fd5b8260108581548110611632576116326122ab565b9060005260206000209060070201600101908161164f91906121d2565b508160108581548110611664576116646122ab565b9060005260206000209060070201600201908161168191906121d2565b50600061168d33610b15565b90507f7009e6824c3ecb1321da2ebabc18901b48d900a97f978c5a93dd3ba8cfe5903585826040516116c0929190612292565b60405180910390a15050505050565b8260006001600160a01b03166007826040516116eb91906122c1565b908152604051908190036020019020546001600160a01b0316146117225760405163cd9c3c2960e01b815260040160405180910390fd5b600d8054600091826117338361212e565b919050559050611741611b76565b81815233602080830182815260408085018a8152606086018a9052608086018990526000948552600193849052932084518155905191810180546001600160a01b0319166001600160a01b0390931692909217909155905182919060028201906117ab90826121d2565b50606082015160038201906117c090826121d2565b50608082015160048201906117d590826121d2565b5050336000818152600e602052604090819020859055519091506007906117fd9089906122c1565b908152604080516020928190038301902080546001600160a01b03199081166001600160a01b0395861617909155600f805460018101825560009190915285517f8d1108e10bcb7c27dddfc02ed9d693a074039d026cf4ea4240b40f7d581ac8026005909202918201908155938601517f8d1108e10bcb7c27dddfc02ed9d693a074039d026cf4ea4240b40f7d581ac80382018054909316951694909417905583015183927f8d1108e10bcb7c27dddfc02ed9d693a074039d026cf4ea4240b40f7d581ac80401906118cf90826121d2565b50606082015160038201906118e490826121d2565b50608082015160048201906118f990826121d2565b5050508560405161190a91906122c1565b60405190819003812090339084907f8d76d60617424d83544323e2322cb8d86537451c9b3d991886ce6f4721e3865e90600090a4505050505050565b60008181526002602052604090206006015481906001600160a01b0316330361198257604051631902ab3960e01b815260040160405180910390fd5b336000908152600960209081526040808320858452909152902054829060ff16156119c0576040516383dcc1c160e01b815260040160405180910390fd5b60008381526002602052604081206005018054916119dd8361212e565b90915550503360008181526009602090815260408083208784528252808320805460ff191660019081179091556008805491820181559093527ff3f7a9fe364faab93b216da50a3214154f22a0a2b415b23a84c8169e8b636ee390920180546001600160a01b031916841790558151868152908101929092527fd1a80ff7224556d1f75ebb4aabff86e4c1b70cfedfc1c3e67eac663bc85b00279101610571565b600080611a8a83611ab6565b90506000670de0b6b3a7640000611aa183876122dd565b611aab91906122f4565b925050505b92915050565b600080826001600160a01b031663feaf968c6040518163ffffffff1660e01b815260040160a060405180830381865afa158015611af7573d6000803e3d6000fd5b505050506040513d601f19601f82011682018060405250810190611b1b9190612335565b505050915050806402540be400611b329190612385565b9392505050565b508054611b4590612147565b6000825580601f10611b55575050565b601f016020900490600052602060002090810190611b739190611bae565b50565b6040518060a001604052806000815260200160006001600160a01b031681526020016060815260200160608152602001606081525090565b5b80821115611bc35760008155600101611baf565b5090565b600060208284031215611bd957600080fd5b5035919050565b6001600160a01b0381168114611b7357600080fd5b600060208284031215611c0757600080fd5b8135611b3281611be0565b60005b83811015611c2d578181015183820152602001611c15565b50506000910152565b60008151808452611c4e816020860160208601611c12565b601f01601f19169290920160200192915050565b600060208083018184528085518083526040925060408601915060408160051b87010184880160005b83811015611d0257888303603f19018552815180518452878101516001600160a01b031688850152868101518785015260608082015160c08287018190529190611cd783880182611c36565b6080858101519089015260a09485015194909701939093525050509386019390860190600101611c8b565b509098975050505050505050565b634e487b7160e01b600052604160045260246000fd5b600082601f830112611d3757600080fd5b813567ffffffffffffffff80821115611d5257611d52611d10565b604051601f8301601f19908116603f01168101908282118183101715611d7a57611d7a611d10565b81604052838152866020858801011115611d9357600080fd5b836020870160208301376000602085830101528094505050505092915050565b600080600060608486031215611dc857600080fd5b8335611dd381611be0565b925060208401359150604084013567ffffffffffffffff811115611df657600080fd5b611e0286828701611d26565b9150509250925092565b60008060408385031215611e1f57600080fd5b823567ffffffffffffffff80821115611e3757600080fd5b611e4386838701611d26565b93506020850135915080821115611e5957600080fd5b50611e6685828601611d26565b9150509250929050565b602081526000611b326020830184611c36565b805182526000602082015160e06020850152611ea260e0850182611c36565b905060408301518482036040860152611ebb8282611c36565b606085810151908701526080808601519087015260a0808601519087015260c0948501516001600160a01b03169490950193909352509192915050565b602081526000611b326020830184611e83565b602081528151602082015260018060a01b0360208301511660408201526000604083015160a06060840152611f4360c0840182611c36565b90506060840151601f1980858403016080860152611f618383611c36565b925060808601519150808584030160a086015250611f7f8282611c36565b95945050505050565b600060208284031215611f9a57600080fd5b813567ffffffffffffffff811115611fb157600080fd5b611fbd84828501611d26565b949350505050565b600060208083016020845280855180835260408601915060408160051b87010192506020870160005b8281101561201c57603f1988860301845261200a858351611e83565b94509285019290850190600101611fee565b5092979650505050505050565b6000806040838503121561203c57600080fd5b82359150602083013567ffffffffffffffff81111561205a57600080fd5b611e6685828601611d26565b60008060006060848603121561207b57600080fd5b83359250602084013567ffffffffffffffff8082111561209a57600080fd5b6120a687838801611d26565b935060408601359150808211156120bc57600080fd5b50611e0286828701611d26565b6000806000606084860312156120de57600080fd5b833567ffffffffffffffff808211156120f657600080fd5b61210287838801611d26565b9450602086013591508082111561209a57600080fd5b634e487b7160e01b600052601160045260246000fd5b60006001820161214057612140612118565b5060010190565b600181811c9082168061215b57607f821691505b60208210810361217b57634e487b7160e01b600052602260045260246000fd5b50919050565b601f8211156121cd576000816000526020600020601f850160051c810160208610156121aa5750805b601f850160051c820191505b818110156121c9578281556001016121b6565b5050505b505050565b815167ffffffffffffffff8111156121ec576121ec611d10565b612200816121fa8454612147565b84612181565b602080601f831160018114612235576000841561221d5750858301515b600019600386901b1c1916600185901b1785556121c9565b600085815260208120601f198616915b8281101561226457888601518255948401946001909101908401612245565b50858210156122825787850151600019600388901b60f8161c191681555b5050505050600190811b01905550565b828152604060208201526000611fbd6040830184611c36565b634e487b7160e01b600052603260045260246000fd5b600082516122d3818460208701611c12565b9190910192915050565b8082028115828204841417611ab057611ab0612118565b60008261231157634e487b7160e01b600052601260045260246000fd5b500490565b805169ffffffffffffffffffff8116811461233057600080fd5b919050565b600080600080600060a0868803121561234d57600080fd5b61235686612316565b945060208601519350604086015192506060860151915061237960808701612316565b90509295509295909350565b80820260008212600160ff1b841416156123a1576123a1612118565b8181058314821517611ab057611ab061211856fea26469706673582212206800557ecf0933ab936032c97edb13b8e81a7a94f5db1d54e779751b78e7d85564736f6c63430008180033","linkReferences":{}},"methodIdentifiers":{"changeOwner(address)":"a6f9dae1","changeUsername(string)":"77c846af","createComment(address,uint256,string)":"2b69e24f","createPost(string,string)":"392338f5","deleteComment(uint256)":"7d0b1026","deletePost(uint256)":"094cd5ee","downvote(uint256)":"f31fdad4","editComment(uint256,string)":"ad816029","editPost(uint256,string,string)":"bf0ac63c","getBalance()":"12065fe0","getPostById(uint256)":"64e95895","getUser(address)":"6f77926b","getUserById(uint256)":"6ed6da9e","getUserComments(address)":"2b3c6e22","getUserNameFromAddress(address)":"6372af84","getUserPosts(address)":"9a2194a9","likeComment(uint256)":"012cc1e2","registerUser(string,string,string)":"d637dcfa","startDapp()":"95d2cc92","stopDapp()":"33aa01e9","transferContractBalance(address)":"96f11ac8","upvote(uint256)":"01ddf070"},"id":28}