{"abi":[{"type":"constructor","inputs":[{"name":"priceFeed","type":"address","internalType":"address"}],"stateMutability":"nonpayable"},{"type":"receive","stateMutability":"payable"},{"type":"function","name":"changeOwner","inputs":[{"name":"_newOwner","type":"address","internalType":"address"}],"outputs":[],"stateMutability":"nonpayable"},{"type":"function","name":"changeUsername","inputs":[{"name":"_newName","type":"string","internalType":"string"}],"outputs":[],"stateMutability":"nonpayable"},{"type":"function","name":"createComment","inputs":[{"name":"_postId","type":"uint256","internalType":"uint256"},{"name":"_content","type":"string","internalType":"string"}],"outputs":[],"stateMutability":"nonpayable"},{"type":"function","name":"createPost","inputs":[{"name":"_content","type":"string","internalType":"string"},{"name":"_imgHash","type":"string","internalType":"string"}],"outputs":[],"stateMutability":"nonpayable"},{"type":"function","name":"deleteComment","inputs":[{"name":"_postId","type":"uint256","internalType":"uint256"},{"name":"_commentId","type":"uint256","internalType":"uint256"}],"outputs":[],"stateMutability":"payable"},{"type":"function","name":"deletePost","inputs":[{"name":"_postId","type":"uint256","internalType":"uint256"}],"outputs":[],"stateMutability":"payable"},{"type":"function","name":"downvote","inputs":[{"name":"_postId","type":"uint256","internalType":"uint256"}],"outputs":[],"stateMutability":"nonpayable"},{"type":"function","name":"editComment","inputs":[{"name":"_postId","type":"uint256","internalType":"uint256"},{"name":"_commentId","type":"uint256","internalType":"uint256"},{"name":"_content","type":"string","internalType":"string"}],"outputs":[],"stateMutability":"payable"},{"type":"function","name":"editPost","inputs":[{"name":"_postId","type":"uint256","internalType":"uint256"},{"name":"_content","type":"string","internalType":"string"},{"name":"_imgHash","type":"string","internalType":"string"}],"outputs":[],"stateMutability":"payable"},{"type":"function","name":"eligible_users","inputs":[{"name":"","type":"address","internalType":"address"}],"outputs":[{"name":"","type":"bool","internalType":"bool"}],"stateMutability":"view"},{"type":"function","name":"getBalance","inputs":[],"outputs":[{"name":"","type":"uint256","internalType":"uint256"}],"stateMutability":"view"},{"type":"function","name":"getCommentByPostIdAndCommentId","inputs":[{"name":"_postId","type":"uint256","internalType":"uint256"},{"name":"_commentId","type":"uint256","internalType":"uint256"}],"outputs":[{"name":"","type":"tuple","internalType":"struct SocialMedia.Comment","components":[{"name":"commentId","type":"uint256","internalType":"uint256"},{"name":"author","type":"address","internalType":"address"},{"name":"postId","type":"uint256","internalType":"uint256"},{"name":"content","type":"string","internalType":"string"},{"name":"timestamp","type":"uint256","internalType":"uint256"},{"name":"likesCount","type":"uint256","internalType":"uint256"}]}],"stateMutability":"view"},{"type":"function","name":"getCommentLikersByPostIdAndCommentId","inputs":[{"name":"_postId","type":"uint256","internalType":"uint256"},{"name":"_commentId","type":"uint256","internalType":"uint256"}],"outputs":[{"name":"","type":"address[]","internalType":"address[]"}],"stateMutability":"view"},{"type":"function","name":"getContractOwner","inputs":[],"outputs":[{"name":"","type":"address","internalType":"address"}],"stateMutability":"view"},{"type":"function","name":"getPostById","inputs":[{"name":"_postId","type":"uint256","internalType":"uint256"}],"outputs":[{"name":"","type":"tuple","internalType":"struct SocialMedia.Post","components":[{"name":"postId","type":"uint256","internalType":"uint256"},{"name":"content","type":"string","internalType":"string"},{"name":"imgHash","type":"string","internalType":"string"},{"name":"timestamp","type":"uint256","internalType":"uint256"},{"name":"upvotes","type":"uint256","internalType":"uint256"},{"name":"downvotes","type":"uint256","internalType":"uint256"},{"name":"author","type":"address","internalType":"address"}]}],"stateMutability":"view"},{"type":"function","name":"getUser","inputs":[{"name":"_userAddress","type":"address","internalType":"address"}],"outputs":[{"name":"","type":"tuple","internalType":"struct SocialMedia.User","components":[{"name":"id","type":"uint256","internalType":"uint256"},{"name":"userAddress","type":"address","internalType":"address"},{"name":"name","type":"string","internalType":"string"},{"name":"bio","type":"string","internalType":"string"},{"name":"profileImageHash","type":"string","internalType":"string"}]}],"stateMutability":"view"},{"type":"function","name":"getUserById","inputs":[{"name":"_userId","type":"uint256","internalType":"uint256"}],"outputs":[{"name":"","type":"tuple","internalType":"struct SocialMedia.User","components":[{"name":"id","type":"uint256","internalType":"uint256"},{"name":"userAddress","type":"address","internalType":"address"},{"name":"name","type":"string","internalType":"string"},{"name":"bio","type":"string","internalType":"string"},{"name":"profileImageHash","type":"string","internalType":"string"}]}],"stateMutability":"view"},{"type":"function","name":"getUserComments","inputs":[{"name":"_userAddress","type":"address","internalType":"address"}],"outputs":[{"name":"","type":"tuple[]","internalType":"struct SocialMedia.Comment[]","components":[{"name":"commentId","type":"uint256","internalType":"uint256"},{"name":"author","type":"address","internalType":"address"},{"name":"postId","type":"uint256","internalType":"uint256"},{"name":"content","type":"string","internalType":"string"},{"name":"timestamp","type":"uint256","internalType":"uint256"},{"name":"likesCount","type":"uint256","internalType":"uint256"}]}],"stateMutability":"view"},{"type":"function","name":"getUserNameFromAddress","inputs":[{"name":"_userAddress","type":"address","internalType":"address"}],"outputs":[{"name":"nameOfUser","type":"string","internalType":"string"}],"stateMutability":"view"},{"type":"function","name":"getUserPosts","inputs":[{"name":"_userAddress","type":"address","internalType":"address"}],"outputs":[{"name":"","type":"tuple[]","internalType":"struct SocialMedia.Post[]","components":[{"name":"postId","type":"uint256","internalType":"uint256"},{"name":"content","type":"string","internalType":"string"},{"name":"imgHash","type":"string","internalType":"string"},{"name":"timestamp","type":"uint256","internalType":"uint256"},{"name":"upvotes","type":"uint256","internalType":"uint256"},{"name":"downvotes","type":"uint256","internalType":"uint256"},{"name":"author","type":"address","internalType":"address"}]}],"stateMutability":"view"},{"type":"function","name":"identifyEligibleUsers","inputs":[],"outputs":[],"stateMutability":"nonpayable"},{"type":"function","name":"likeComment","inputs":[{"name":"_postId","type":"uint256","internalType":"uint256"},{"name":"_commentId","type":"uint256","internalType":"uint256"}],"outputs":[],"stateMutability":"nonpayable"},{"type":"function","name":"registerUser","inputs":[{"name":"_name","type":"string","internalType":"string"},{"name":"_bio","type":"string","internalType":"string"},{"name":"_profileImageHash","type":"string","internalType":"string"}],"outputs":[],"stateMutability":"nonpayable"},{"type":"function","name":"transferContractBalance","inputs":[{"name":"_to","type":"address","internalType":"address payable"}],"outputs":[],"stateMutability":"nonpayable"},{"type":"function","name":"upvote","inputs":[{"name":"_postId","type":"uint256","internalType":"uint256"}],"outputs":[],"stateMutability":"nonpayable"},{"type":"event","name":"CommentCreated","inputs":[{"name":"commentId","type":"uint256","indexed":true,"internalType":"uint256"},{"name":"postAuthor","type":"string","indexed":false,"internalType":"string"},{"name":"commentAuthor","type":"string","indexed":false,"internalType":"string"},{"name":"postId","type":"uint256","indexed":false,"internalType":"uint256"}],"anonymous":false},{"type":"event","name":"Downvoted","inputs":[{"name":"postId","type":"uint256","indexed":false,"internalType":"uint256"},{"name":"posthAuthorName","type":"string","indexed":false,"internalType":"string"},{"name":"downvoterName","type":"string","indexed":false,"internalType":"string"}],"anonymous":false},{"type":"event","name":"PostCreated","inputs":[{"name":"postId","type":"uint256","indexed":false,"internalType":"uint256"},{"name":"authorName","type":"string","indexed":false,"internalType":"string"}],"anonymous":false},{"type":"event","name":"PostEdited","inputs":[{"name":"postId","type":"uint256","indexed":false,"internalType":"uint256"},{"name":"authorName","type":"string","indexed":false,"internalType":"string"}],"anonymous":false},{"type":"event","name":"PostLiked","inputs":[{"name":"postId","type":"uint256","indexed":true,"internalType":"uint256"},{"name":"postAuthor","type":"address","indexed":true,"internalType":"address"},{"name":"liker","type":"address","indexed":true,"internalType":"address"}],"anonymous":false},{"type":"event","name":"Upvoted","inputs":[{"name":"postId","type":"uint256","indexed":false,"internalType":"uint256"},{"name":"posthAuthorName","type":"string","indexed":false,"internalType":"string"},{"name":"upvoterName","type":"string","indexed":false,"internalType":"string"}],"anonymous":false},{"type":"event","name":"UserRegistered","inputs":[{"name":"id","type":"uint256","indexed":true,"internalType":"uint256"},{"name":"userAddress","type":"address","indexed":true,"internalType":"address"},{"name":"name","type":"string","indexed":true,"internalType":"string"}],"anonymous":false},{"type":"error","name":"SocialMedia__AlreadyVoted","inputs":[]},{"type":"error","name":"SocialMedia__NotCommentOwner","inputs":[]},{"type":"error","name":"SocialMedia__NotOwner","inputs":[]},{"type":"error","name":"SocialMedia__NotPostOwner","inputs":[]},{"type":"error","name":"SocialMedia__OwnerCannotVote","inputs":[]},{"type":"error","name":"SocialMedia__PaymentNotEnough","inputs":[]},{"type":"error","name":"SocialMedia__UserDoesNotExist","inputs":[]},{"type":"error","name":"SocialMedia__UsernameAlreadyTaken","inputs":[]}],"bytecode":{"object":"0x60806040523480156200001157600080fd5b5060405162002af338038062002af3833981016040819052620000349162000068565b60138054336001600160a01b031991821617909155600080549091166001600160a01b03929092169190911790556200009a565b6000602082840312156200007b57600080fd5b81516001600160a01b03811681146200009357600080fd5b9392505050565b612a4980620000aa6000396000f3fe6080604052600436106101695760003560e01c806364e95895116100d15780639a2194a91161008a578063bf0ac63c11610064578063bf0ac63c1461047d578063d637dcfa14610490578063f31fdad4146104b0578063fa561152146104d057600080fd5b80639a2194a914610410578063a0e918211461043d578063a6f9dae11461045d57600080fd5b806364e95895146103295780636ed6da9e146103565780636f77926b1461038357806377c846af146103a35780638dc4a066146103c357806396f11ac8146103f057600080fd5b806331a4bcb51161012357806331a4bcb514610254578063392338f51461026757806340a17985146102875780634296db5b146102a7578063442890d5146102d45780636372af84146102fc57600080fd5b806232b2721461017557806301ddf070146101ba578063094cd5ee146101dc57806312065fe0146101ef5780631eef3a32146102125780632b3c6e221461022757600080fd5b3661017057005b600080fd5b34801561018157600080fd5b506101a561019036600461215f565b60146020526000908152604090205460ff1681565b60405190151581526020015b60405180910390f35b3480156101c657600080fd5b506101da6101d536600461217c565b6104e3565b005b6101da6101ea36600461217c565b610622565b3480156101fb57600080fd5b50610204610729565b6040519081526020016101b1565b34801561021e57600080fd5b506101da61075c565b34801561023357600080fd5b5061024761024236600461215f565b610817565b6040516101b19190612240565b6101da6102623660046122a4565b61095d565b34801561027357600080fd5b506101da610282366004612369565b610a89565b34801561029357600080fd5b506101da6102a23660046123cd565b610cd0565b3480156102b357600080fd5b506102c76102c23660046122a4565b610e4f565b6040516101b1919061240a565b3480156102e057600080fd5b506013546040516001600160a01b0390911681526020016101b1565b34801561030857600080fd5b5061031c61031736600461215f565b610fbc565b6040516101b1919061241d565b34801561033557600080fd5b5061034961034436600461217c565b6111bb565b6040516101b191906124a5565b34801561036257600080fd5b5061037661037136600461217c565b611396565b6040516101b191906124b8565b34801561038f57600080fd5b5061037661039e36600461215f565b6115c0565b3480156103af57600080fd5b506101da6103be36600461252c565b611613565b3480156103cf57600080fd5b506103e36103de3660046122a4565b6116ea565b6040516101b19190612569565b3480156103fc57600080fd5b506101da61040b36600461215f565b61175f565b34801561041c57600080fd5b5061043061042b36600461215f565b6117c3565b6040516101b191906125b6565b34801561044957600080fd5b506101da6104583660046122a4565b611992565b34801561046957600080fd5b506101da61047836600461215f565b611a73565b6101da61048b36600461260d565b611ac0565b34801561049c57600080fd5b506101da6104ab36600461267a565b611be9565b3480156104bc57600080fd5b506101da6104cb36600461217c565b611e5d565b6101da6104de3660046126c9565b611f8c565b60008181526008602052604090205481906001600160a01b0316330361051c57604051631902ab3960e01b815260040160405180910390fd5b336000908152600a60209081526040808320858452909152902054829060ff161561055a576040516383dcc1c160e01b815260040160405180910390fd5b6005838154811061056d5761056d61270f565b60009182526020822060046007909202010180549161058b8361273b565b9091555050336000908152600a602090815260408083208684528252808320805460ff1916600117905560089091528120546001600160a01b0316906105d082610fbc565b905060006105dd33610fbc565b90507fa036d403d7739d8360e6171b2fbf68a0dfef33d6c6f432a236f6c3cdbb3cfee686838360405161061293929190612754565b60405180910390a1505050505050565b60008181526008602052604090205481906001600160a01b0316331461065b57604051639ef3fcef60e01b815260040160405180910390fd5b600054674563918244f400009061067c9034906001600160a01b0316612059565b101561069a576040516217124560e91b815260040160405180910390fd5b60405180602001604052806000815250600583815481106106bd576106bd61270f565b906000526020600020906007020160010190816106da9190612810565b506000600583815481106106f0576106f061270f565b906000526020600020906007020160060160006101000a8154816001600160a01b0302191690836001600160a01b031602179055505050565b6013546000906001600160a01b031633146107575760405163aadd925760e01b815260040160405180910390fd5b504790565b60005b60015481101561081457600a600b6000600184815481106107825761078261270f565b60009182526020808320600160059093020191909101546001600160a01b03168352820192909252604001902054111561080c57600160146000600184815481106107cf576107cf61270f565b60009182526020808320600592909202909101600101546001600160a01b031683528201929092526040019020805460ff19169115159190911790555b60010161075f565b50565b6001600160a01b0381166000908152601060209081526040808320805482518185028101850190935280835260609492939192909184015b828210156109525760008481526020908190206040805160c081018252600686029092018054835260018101546001600160a01b0316938301939093526002830154908201526003820180549192916060840191906108ad90612789565b80601f01602080910402602001604051908101604052809291908181526020018280546108d990612789565b80156109265780601f106108fb57610100808354040283529160200191610926565b820191906000526020600020905b81548152906001019060200180831161090957829003601f168201915b50505050508152602001600482015481526020016005820154815250508152602001906001019061084f565b505050509050919050565b6000828152600f60209081526040808320848452909152902054829082906001600160a01b031633146109a357604051632585a1bd60e01b815260040160405180910390fd5b600054674563918244f40000906109c49034906001600160a01b0316612059565b10156109e2576040516217124560e91b815260040160405180910390fd5b60408051602080820183526000808352878152600e90915291909120805485908110610a1057610a1061270f565b90600052602060002090600602016003019081610a2d9190612810565b506000848152600e60205260408120805485908110610a4e57610a4e61270f565b906000526020600020906006020160010160006101000a8154816001600160a01b0302191690836001600160a01b0316021790555050505050565b336000818152600260205260409020600101546001600160a01b0316610ac25760405163995cae5960e01b815260040160405180910390fd5b6005546040805160e0810182528281526020810186905290810184905242606082015260006080820181905260a082018190523360c08301819052610b0690610fbc565b336000908152600b60209081526040822080546001818101835591845292829020865160079094020192835590850151929350849290820190610b499082612810565b5060408201516002820190610b5e9082612810565b50606082015160038201556080820151600482015560a082015160058083019190915560c090920151600690910180546001600160a01b0319166001600160a01b03909216919091179055805460018101825560009190915282517f036b6384b5eca791c62761152d0c79bb0604c104a5fb6f4eb0703f3154bb3db06007909202918201908155602084015184927f036b6384b5eca791c62761152d0c79bb0604c104a5fb6f4eb0703f3154bb3db10190610c199082612810565b5060408201516002820190610c2e9082612810565b50606082015160038201556080820151600482015560a0820151600582015560c090910151600690910180546001600160a01b039092166001600160a01b03199283161790553360008181526007602090815260408083208890558783526008909152908190208054909316909117909155517f3d4335cbfac350aa27a3fa09060b4691656ecbe3033f4d953849c2f755f230d19061061290859084906128d0565b336000818152600260205260409020600101546001600160a01b0316610d095760405163995cae5960e01b815260040160405180910390fd5b6000838152600e6020908152604080832054815160c08101835281815233938101939093529082018690526060820185905242608083015260a0820183905291610d5286611396565b6040015190506000610d6333610fbc565b6000888152600f6020908152604080832088845282528083208054336001600160a01b0319918216179091558b8452600e83528184208054600181810183559186529484902089516006909602019485559288015192840180549091166001600160a01b03909316929092179091558501516002820155606085015191925084916003820190610df39082612810565b506080820151816004015560a082015181600501555050837f915184b2a0bfb3b827755b4e9e718f684996cef7b75bad20f26cd2fd67396c7783838a604051610e3e939291906128e9565b60405180910390a250505050505050565b610e916040518060c001604052806000815260200160006001600160a01b03168152602001600081526020016060815260200160008152602001600081525090565b6000838152600e60205260409020805483908110610eb157610eb161270f565b90600052602060002090600602016040518060c0016040529081600082015481526020016001820160009054906101000a90046001600160a01b03166001600160a01b03166001600160a01b0316815260200160028201548152602001600382018054610f1d90612789565b80601f0160208091040260200160405190810160405280929190818152602001828054610f4990612789565b8015610f965780601f10610f6b57610100808354040283529160200191610f96565b820191906000526020600020905b815481529060010190602001808311610f7957829003601f168201915b505050505081526020016004820154815260200160058201548152505090505b92915050565b6001600160a01b038082166000908152600260208181526040808420815160a081018352815481526001820154909616928601929092529181018054606095938401919061100990612789565b80601f016020809104026020016040519081016040528092919081815260200182805461103590612789565b80156110825780601f1061105757610100808354040283529160200191611082565b820191906000526020600020905b81548152906001019060200180831161106557829003601f168201915b5050505050815260200160038201805461109b90612789565b80601f01602080910402602001604051908101604052809291908181526020018280546110c790612789565b80156111145780601f106110e957610100808354040283529160200191611114565b820191906000526020600020905b8154815290600101906020018083116110f757829003601f168201915b5050505050815260200160048201805461112d90612789565b80601f016020809104026020016040519081016040528092919081815260200182805461115990612789565b80156111a65780601f1061117b576101008083540402835291602001916111a6565b820191906000526020600020905b81548152906001019060200180831161118957829003601f168201915b50505091909252505050604001519392505050565b6112046040518060e0016040528060008152602001606081526020016060815260200160008152602001600081526020016000815260200160006001600160a01b031681525090565b600582815481106112175761121761270f565b90600052602060002090600702016040518060e00160405290816000820154815260200160018201805461124a90612789565b80601f016020809104026020016040519081016040528092919081815260200182805461127690612789565b80156112c35780601f10611298576101008083540402835291602001916112c3565b820191906000526020600020905b8154815290600101906020018083116112a657829003601f168201915b505050505081526020016002820180546112dc90612789565b80601f016020809104026020016040519081016040528092919081815260200182805461130890612789565b80156113555780601f1061132a57610100808354040283529160200191611355565b820191906000526020600020905b81548152906001019060200180831161133857829003601f168201915b50505091835250506003820154602082015260048201546040820152600582015460608201526006909101546001600160a01b031660809091015292915050565b61139e612112565b600182815481106113b1576113b161270f565b90600052602060002090600502016040518060a0016040529081600082015481526020016001820160009054906101000a90046001600160a01b03166001600160a01b03166001600160a01b0316815260200160028201805461141390612789565b80601f016020809104026020016040519081016040528092919081815260200182805461143f90612789565b801561148c5780601f106114615761010080835404028352916020019161148c565b820191906000526020600020905b81548152906001019060200180831161146f57829003601f168201915b505050505081526020016003820180546114a590612789565b80601f01602080910402602001604051908101604052809291908181526020018280546114d190612789565b801561151e5780601f106114f35761010080835404028352916020019161151e565b820191906000526020600020905b81548152906001019060200180831161150157829003601f168201915b5050505050815260200160048201805461153790612789565b80601f016020809104026020016040519081016040528092919081815260200182805461156390612789565b80156115b05780601f10611585576101008083540402835291602001916115b0565b820191906000526020600020905b81548152906001019060200180831161159357829003601f168201915b5050505050815250509050919050565b6115c8612112565b6001600160a01b03808316600090815260026020818152604092839020835160a081018552815481526001820154909516918501919091529081018054919284019161141390612789565b336000818152600260205260409020600101546001600160a01b031661164c5760405163995cae5960e01b815260040160405180910390fd5b8160006001600160a01b0316600982604051611668919061291f565b908152604051908190036020019020546001600160a01b03161461169f5760405163cd9c3c2960e01b815260040160405180910390fd5b3360009081526004602052604090205460018054859190839081106116c6576116c661270f565b906000526020600020906005020160020190816116e39190612810565b5050505050565b600082815260126020908152604080832084845282529182902080548351818402810184019094528084526060939283018282801561175257602002820191906000526020600020905b81546001600160a01b03168152600190910190602001808311611734575b5050505050905092915050565b6013546001600160a01b0316331461178a5760405163aadd925760e01b815260040160405180910390fd5b6040516001600160a01b038216904780156108fc02916000818181858888f193505050501580156117bf573d6000803e3d6000fd5b5050565b6001600160a01b0381166000908152600b60209081526040808320805482518185028101850190935280835260609492939192909184015b8282101561095257838290600052602060002090600702016040518060e00160405290816000820154815260200160018201805461183890612789565b80601f016020809104026020016040519081016040528092919081815260200182805461186490612789565b80156118b15780601f10611886576101008083540402835291602001916118b1565b820191906000526020600020905b81548152906001019060200180831161189457829003601f168201915b505050505081526020016002820180546118ca90612789565b80601f01602080910402602001604051908101604052809291908181526020018280546118f690612789565b80156119435780601f1061191857610100808354040283529160200191611943565b820191906000526020600020905b81548152906001019060200180831161192657829003601f168201915b5050509183525050600382015460208083019190915260048301546040830152600583015460608301526006909201546001600160a01b031660809091015290825260019290920191016117fb565b336000818152600260205260409020600101546001600160a01b03166119cb5760405163995cae5960e01b815260040160405180910390fd5b6000838152600e602052604090208054839081106119eb576119eb61270f565b600091825260208220600560069092020101805491611a098361273b565b9091555050506000828152601160209081526040808320848452825280832033808552908352818420805460ff19166001908117909155958452601283528184209484529382528220805494850181558252902090910180546001600160a01b0319169091179055565b6013546001600160a01b03163314611a9e5760405163aadd925760e01b815260040160405180910390fd5b601380546001600160a01b0319166001600160a01b0392909216919091179055565b60008381526008602052604090205483906001600160a01b03163314611af957604051639ef3fcef60e01b815260040160405180910390fd5b600054674563918244f4000090611b1a9034906001600160a01b0316612059565b1015611b38576040516217124560e91b815260040160405180910390fd5b8260058581548110611b4c57611b4c61270f565b90600052602060002090600702016001019081611b699190612810565b508160058581548110611b7e57611b7e61270f565b90600052602060002090600702016002019081611b9b9190612810565b506000611ba733610fbc565b90507f7009e6824c3ecb1321da2ebabc18901b48d900a97f978c5a93dd3ba8cfe590358582604051611bda9291906128d0565b60405180910390a15050505050565b8260006001600160a01b0316600982604051611c05919061291f565b908152604051908190036020019020546001600160a01b031614611c3c5760405163cd9c3c2960e01b815260040160405180910390fd5b6003805460009182611c4d8361273b565b919050559050611c5b612112565b81815233602080830182815260408085018a8152606086018a905260808601899052600094855260029384905293208451815590516001820180546001600160a01b0319166001600160a01b039092169190911790559151839291820190611cc39082612810565b5060608201516003820190611cd89082612810565b5060808201516004820190611ced9082612810565b5050336000818152600460205260409081902085905551909150600990611d1590899061291f565b908152604080516020928190038301902080546001600160a01b03199081166001600160a01b039586161790915560018054808201825560009190915285517fb10e2d527612073b26eecdfd717e6a320cf44b4afac2b0732d9fcbe2b7fa0cf66005909202918201908155938601517fb10e2d527612073b26eecdfd717e6a320cf44b4afac2b0732d9fcbe2b7fa0cf782018054909316951694909417905583015183927fb10e2d527612073b26eecdfd717e6a320cf44b4afac2b0732d9fcbe2b7fa0cf80190611de69082612810565b5060608201516003820190611dfb9082612810565b5060808201516004820190611e109082612810565b50505085604051611e21919061291f565b60405190819003812090339084907f8d76d60617424d83544323e2322cb8d86537451c9b3d991886ce6f4721e3865e90600090a4505050505050565b60008181526008602052604090205481906001600160a01b03163303611e9657604051631902ab3960e01b815260040160405180910390fd5b336000908152600a60209081526040808320858452909152902054829060ff1615611ed4576040516383dcc1c160e01b815260040160405180910390fd5b60058381548110611ee757611ee761270f565b600091825260208220600560079092020101805491611f058361273b565b9091555050336000908152600a602090815260408083208684528252808320805460ff1916600117905560089091528120546001600160a01b031690611f4a82610fbc565b90506000611f5733610fbc565b90507fd7ad3e52dbe8b445d900fd8aa659c95d5b75bb6733c12e7f22d048963bd39ed586838360405161061293929190612754565b6000838152600f60209081526040808320858452909152902054839083906001600160a01b03163314611fd257604051632585a1bd60e01b815260040160405180910390fd5b600054674563918244f4000090611ff39034906001600160a01b0316612059565b1015612011576040516217124560e91b815260040160405180910390fd5b6000858152600e602052604090208054849190869081106120345761203461270f565b906000526020600020906006020160030190816120519190612810565b505050505050565b6000806120658361208f565b90506000670de0b6b3a764000061207c838761293b565b6120869190612952565b95945050505050565b600080826001600160a01b031663feaf968c6040518163ffffffff1660e01b815260040160a060405180830381865afa1580156120d0573d6000803e3d6000fd5b505050506040513d601f19601f820116820180604052508101906120f49190612993565b505050915050806402540be40061210b91906129e3565b9392505050565b6040518060a001604052806000815260200160006001600160a01b031681526020016060815260200160608152602001606081525090565b6001600160a01b038116811461081457600080fd5b60006020828403121561217157600080fd5b813561210b8161214a565b60006020828403121561218e57600080fd5b5035919050565b60005b838110156121b0578181015183820152602001612198565b50506000910152565b600081518084526121d1816020860160208601612195565b601f01601f19169290920160200192915050565b8051825260018060a01b036020820151166020830152604081015160408301526000606082015160c0606085015261222060c08501826121b9565b90506080830151608085015260a083015160a08501528091505092915050565b600060208083016020845280855180835260408601915060408160051b87010192506020870160005b8281101561229757603f198886030184526122858583516121e5565b94509285019290850190600101612269565b5092979650505050505050565b600080604083850312156122b757600080fd5b50508035926020909101359150565b634e487b7160e01b600052604160045260246000fd5b600082601f8301126122ed57600080fd5b813567ffffffffffffffff80821115612308576123086122c6565b604051601f8301601f19908116603f01168101908282118183101715612330576123306122c6565b8160405283815286602085880101111561234957600080fd5b836020870160208301376000602085830101528094505050505092915050565b6000806040838503121561237c57600080fd5b823567ffffffffffffffff8082111561239457600080fd5b6123a0868387016122dc565b935060208501359150808211156123b657600080fd5b506123c3858286016122dc565b9150509250929050565b600080604083850312156123e057600080fd5b82359150602083013567ffffffffffffffff8111156123fe57600080fd5b6123c3858286016122dc565b60208152600061210b60208301846121e5565b60208152600061210b60208301846121b9565b805182526000602082015160e0602085015261244f60e08501826121b9565b90506040830151848203604086015261246882826121b9565b606085810151908701526080808601519087015260a0808601519087015260c0948501516001600160a01b03169490950193909352509192915050565b60208152600061210b6020830184612430565b602081528151602082015260018060a01b0360208301511660408201526000604083015160a060608401526124f060c08401826121b9565b90506060840151601f198085840301608086015261250e83836121b9565b925060808601519150808584030160a08601525061208682826121b9565b60006020828403121561253e57600080fd5b813567ffffffffffffffff81111561255557600080fd5b612561848285016122dc565b949350505050565b6020808252825182820181905260009190848201906040850190845b818110156125aa5783516001600160a01b031683529284019291840191600101612585565b50909695505050505050565b600060208083016020845280855180835260408601915060408160051b87010192506020870160005b8281101561229757603f198886030184526125fb858351612430565b945092850192908501906001016125df565b60008060006060848603121561262257600080fd5b83359250602084013567ffffffffffffffff8082111561264157600080fd5b61264d878388016122dc565b9350604086013591508082111561266357600080fd5b50612670868287016122dc565b9150509250925092565b60008060006060848603121561268f57600080fd5b833567ffffffffffffffff808211156126a757600080fd5b6126b3878388016122dc565b9450602086013591508082111561264157600080fd5b6000806000606084860312156126de57600080fd5b8335925060208401359150604084013567ffffffffffffffff81111561270357600080fd5b612670868287016122dc565b634e487b7160e01b600052603260045260246000fd5b634e487b7160e01b600052601160045260246000fd5b60006001820161274d5761274d612725565b5060010190565b83815260606020820152600061276d60608301856121b9565b828103604084015261277f81856121b9565b9695505050505050565b600181811c9082168061279d57607f821691505b6020821081036127bd57634e487b7160e01b600052602260045260246000fd5b50919050565b601f82111561280b576000816000526020600020601f850160051c810160208610156127ec5750805b601f850160051c820191505b81811015612051578281556001016127f8565b505050565b815167ffffffffffffffff81111561282a5761282a6122c6565b61283e816128388454612789565b846127c3565b602080601f831160018114612873576000841561285b5750858301515b600019600386901b1c1916600185901b178555612051565b600085815260208120601f198616915b828110156128a257888601518255948401946001909101908401612883565b50858210156128c05787850151600019600388901b60f8161c191681555b5050505050600190811b01905550565b82815260406020820152600061256160408301846121b9565b6060815260006128fc60608301866121b9565b828103602084015261290e81866121b9565b915050826040830152949350505050565b60008251612931818460208701612195565b9190910192915050565b8082028115828204841417610fb657610fb6612725565b60008261296f57634e487b7160e01b600052601260045260246000fd5b500490565b805169ffffffffffffffffffff8116811461298e57600080fd5b919050565b600080600080600060a086880312156129ab57600080fd5b6129b486612974565b94506020860151935060408601519250606086015191506129d760808701612974565b90509295509295909350565b80820260008212600160ff1b841416156129ff576129ff612725565b8181058314821517610fb657610fb661272556fea2646970667358221220ed95359c2d30f6e81e684365e4207e62125dd9792e954dc7d60f8859f0488dcb64736f6c63430008180033","linkReferences":{}},"methodIdentifiers":{"changeOwner(address)":"a6f9dae1","changeUsername(string)":"77c846af","createComment(uint256,string)":"40a17985","createPost(string,string)":"392338f5","deleteComment(uint256,uint256)":"31a4bcb5","deletePost(uint256)":"094cd5ee","downvote(uint256)":"f31fdad4","editComment(uint256,uint256,string)":"fa561152","editPost(uint256,string,string)":"bf0ac63c","eligible_users(address)":"0032b272","getBalance()":"12065fe0","getCommentByPostIdAndCommentId(uint256,uint256)":"4296db5b","getCommentLikersByPostIdAndCommentId(uint256,uint256)":"8dc4a066","getContractOwner()":"442890d5","getPostById(uint256)":"64e95895","getUser(address)":"6f77926b","getUserById(uint256)":"6ed6da9e","getUserComments(address)":"2b3c6e22","getUserNameFromAddress(address)":"6372af84","getUserPosts(address)":"9a2194a9","identifyEligibleUsers()":"1eef3a32","likeComment(uint256,uint256)":"a0e91821","registerUser(string,string,string)":"d637dcfa","transferContractBalance(address)":"96f11ac8","upvote(uint256)":"01ddf070"},"id":28}