{"abi":[{"type":"constructor","inputs":[],"stateMutability":"nonpayable"},{"type":"function","name":"changeOwner","inputs":[{"name":"_newOwner","type":"address","internalType":"address"}],"outputs":[],"stateMutability":"nonpayable"},{"type":"function","name":"changeUsername","inputs":[{"name":"_newName","type":"string","internalType":"string"}],"outputs":[],"stateMutability":"nonpayable"},{"type":"function","name":"createComment","inputs":[{"name":"_postId","type":"uint256","internalType":"uint256"},{"name":"_content","type":"string","internalType":"string"}],"outputs":[],"stateMutability":"nonpayable"},{"type":"function","name":"createPost","inputs":[{"name":"_content","type":"string","internalType":"string"},{"name":"_imgHash","type":"string","internalType":"string"}],"outputs":[],"stateMutability":"nonpayable"},{"type":"function","name":"deleteComment","inputs":[{"name":"_commentId","type":"uint256","internalType":"uint256"}],"outputs":[],"stateMutability":"nonpayable"},{"type":"function","name":"deletePost","inputs":[{"name":"_postId","type":"uint256","internalType":"uint256"}],"outputs":[],"stateMutability":"nonpayable"},{"type":"function","name":"downvote","inputs":[{"name":"_postId","type":"uint256","internalType":"uint256"}],"outputs":[],"stateMutability":"nonpayable"},{"type":"function","name":"editComment","inputs":[{"name":"_commentId","type":"uint256","internalType":"uint256"},{"name":"_content","type":"string","internalType":"string"}],"outputs":[],"stateMutability":"nonpayable"},{"type":"function","name":"editPost","inputs":[{"name":"_postId","type":"uint256","internalType":"uint256"},{"name":"_content","type":"string","internalType":"string"},{"name":"_imgHash","type":"string","internalType":"string"}],"outputs":[],"stateMutability":"nonpayable"},{"type":"function","name":"getBalance","inputs":[],"outputs":[{"name":"","type":"uint256","internalType":"uint256"}],"stateMutability":"view"},{"type":"function","name":"getUser","inputs":[{"name":"_userAddress","type":"address","internalType":"address"}],"outputs":[{"name":"","type":"tuple","internalType":"struct SocialMedia.User","components":[{"name":"id","type":"uint256","internalType":"uint256"},{"name":"userAddress","type":"address","internalType":"address"},{"name":"name","type":"string","internalType":"string"},{"name":"bio","type":"string","internalType":"string"},{"name":"profileImageHash","type":"string","internalType":"string"}]}],"stateMutability":"view"},{"type":"function","name":"getUserPosts","inputs":[{"name":"_userAddress","type":"address","internalType":"address"}],"outputs":[{"name":"","type":"tuple[]","internalType":"struct SocialMedia.Post[]","components":[{"name":"postId","type":"uint256","internalType":"uint256"},{"name":"content","type":"string","internalType":"string"},{"name":"imgHash","type":"string","internalType":"string"},{"name":"timestamp","type":"uint256","internalType":"uint256"},{"name":"upvotes","type":"uint256","internalType":"uint256"},{"name":"downvotes","type":"uint256","internalType":"uint256"},{"name":"author","type":"address","internalType":"address"}]}],"stateMutability":"view"},{"type":"function","name":"getUsersComment","inputs":[{"name":"_userAddress","type":"address","internalType":"address"}],"outputs":[{"name":"","type":"tuple[]","internalType":"struct SocialMedia.Comment[]","components":[{"name":"commentId","type":"uint256","internalType":"uint256"},{"name":"author","type":"address","internalType":"address"},{"name":"postId","type":"uint256","internalType":"uint256"},{"name":"content","type":"string","internalType":"string"},{"name":"timestamp","type":"uint256","internalType":"uint256"},{"name":"likesCount","type":"uint256","internalType":"uint256"}]}],"stateMutability":"view"},{"type":"function","name":"likeComment","inputs":[{"name":"_commentId","type":"uint256","internalType":"uint256"}],"outputs":[],"stateMutability":"nonpayable"},{"type":"function","name":"registerUser","inputs":[{"name":"_name","type":"string","internalType":"string"},{"name":"_bio","type":"string","internalType":"string"},{"name":"_profileImageHash","type":"string","internalType":"string"}],"outputs":[],"stateMutability":"nonpayable"},{"type":"function","name":"startDapp","inputs":[],"outputs":[],"stateMutability":"nonpayable"},{"type":"function","name":"stopDapp","inputs":[],"outputs":[],"stateMutability":"nonpayable"},{"type":"function","name":"transferContractBalance","inputs":[{"name":"_to","type":"address","internalType":"address payable"}],"outputs":[],"stateMutability":"nonpayable"},{"type":"function","name":"upvote","inputs":[{"name":"_postId","type":"uint256","internalType":"uint256"}],"outputs":[],"stateMutability":"nonpayable"},{"type":"event","name":"CommentCreated","inputs":[{"name":"commentId","type":"uint256","indexed":false,"internalType":"uint256"},{"name":"author","type":"address","indexed":false,"internalType":"address"},{"name":"postId","type":"uint256","indexed":false,"internalType":"uint256"}],"anonymous":false},{"type":"event","name":"Downvoted","inputs":[{"name":"postId","type":"uint256","indexed":false,"internalType":"uint256"},{"name":"voter","type":"address","indexed":false,"internalType":"address"}],"anonymous":false},{"type":"event","name":"PostCreated","inputs":[{"name":"postId","type":"uint256","indexed":false,"internalType":"uint256"},{"name":"author","type":"address","indexed":false,"internalType":"address"}],"anonymous":false},{"type":"event","name":"RegisterUser","inputs":[{"name":"id","type":"uint256","indexed":false,"internalType":"uint256"},{"name":"userAddress","type":"address","indexed":false,"internalType":"address"},{"name":"name","type":"string","indexed":false,"internalType":"string"}],"anonymous":false},{"type":"event","name":"Upvoted","inputs":[{"name":"postId","type":"uint256","indexed":false,"internalType":"uint256"},{"name":"voter","type":"address","indexed":false,"internalType":"address"}],"anonymous":false},{"type":"error","name":"SocialMedia__AlreadyVoted","inputs":[]},{"type":"error","name":"SocialMedia__NotCommentOwner","inputs":[]},{"type":"error","name":"SocialMedia__NotOwner","inputs":[]},{"type":"error","name":"SocialMedia__NotPostOwner","inputs":[]},{"type":"error","name":"SocialMedia__OwnerCannotVote","inputs":[]},{"type":"error","name":"SocialMedia__UserDoesNotExist","inputs":[]},{"type":"error","name":"SocialMedia__UsernameAlreadyTaken","inputs":[]}],"bytecode":{"object":"0x608060405234801561001057600080fd5b50600380546001600160a01b031916331790556116f9806100326000396000f3fe608060405234801561001057600080fd5b50600436106101215760003560e01c80637d0b1026116100ad578063ad81602911610071578063ad81602914610237578063bf0ac63c1461024a578063c18522231461025d578063d637dcfa14610278578063f31fdad41461028b57600080fd5b80637d0b1026146101dd57806395d2cc921461017c57806396f11ac8146101f05780639a2194a914610203578063a6f9dae11461022457600080fd5b806333aa01e9116100f457806333aa01e91461017c578063392338f51461018457806340a17985146101975780636f77926b146101aa57806377c846af146101ca57600080fd5b8063012cc1e21461012657806301ddf0701461013b578063094cd5ee1461014e57806312065fe014610161575b600080fd5b610139610134366004610fd9565b61029e565b005b610139610149366004610fd9565b6102c3565b61013961015c366004610fd9565b610404565b61016961049a565b6040519081526020015b60405180910390f35b6101396104cd565b610139610192366004611095565b6104fa565b6101396101a53660046110f9565b610621565b6101bd6101b836600461114b565b61076b565b60405161017391906111bf565b6101396101d836600461123c565b61099d565b6101396101eb366004610fd9565b610ac9565b6101396101fe36600461114b565b610b52565b61021761021136600461114b565b50606090565b6040516101739190611279565b61013961023236600461114b565b610bb6565b6101396102453660046110f9565b610c03565b61013961025836600461133d565b610c62565b61026b61021136600461114b565b60405161017391906113aa565b61013961028636600461144a565b610cd3565b610139610299366004610fd9565b610e4b565b60008181526002602052604081206005018054916102bb83611499565b919050555050565b60008181526001602052604090206006015481906001600160a01b031633036102ff57604051631902ab3960e01b815260040160405180910390fd5b336000908152600660209081526040808320858452909152902054829060ff161561033d576040516383dcc1c160e01b815260040160405180910390fd5b600083815260016020526040812060040180549161035a83611499565b90915550503360008181526006602090815260408083208784528252808320805460ff191660019081179091556005805491820181559093527f036b6384b5eca791c62761152d0c79bb0604c104a5fb6f4eb0703f3154bb3db090920180546001600160a01b031916841790558151868152908101929092527f0e092509bde1dd304f477e3ec921b6e4e5092738f70dcd204952ffc1ffdaafdf91015b60405180910390a1505050565b60008181526001602052604090206006015481906001600160a01b0316331461044057604051639ef3fcef60e01b815260040160405180910390fd5b60008281526001602081905260408220828155919061046190830182610f83565b61046f600283016000610f83565b5060006003820181905560048201819055600582015560060180546001600160a01b03191690555050565b6003546000906001600160a01b031633146104c85760405163aadd925760e01b815260040160405180910390fd5b504790565b6003546001600160a01b031633146104f85760405163aadd925760e01b815260040160405180910390fd5b565b6040805160e0810182526001808252602080830186815293830185905242606084015260006080840181905260a084018190523360c085015282905281905281517fcc69885fda6bcc1a4ace058b4a62bf5e179ea78fd58a1ccd71c22cc9b688792f90815592519092907fcc69885fda6bcc1a4ace058b4a62bf5e179ea78fd58a1ccd71c22cc9b6887930906105909082611547565b50604082015160028201906105a59082611547565b50606082015160038201556080820151600482015560a0820151600582015560c090910151600690910180546001600160a01b0319166001600160a01b03909216919091179055604080518281523360208201527f29c05e49ec69f11bd40335a9cb6a06fad27779987ab7b8d80448d642b1f592d591016103f7565b6040805160c081018252600180825233602080840191825293830186815260608401868152426080860152600060a08601819052849052600290955283517fe90b7bceb6e7df5418fb78d8ee546e97c83a08bbccc01a0644d599ccd2a7c2e090815591517fe90b7bceb6e7df5418fb78d8ee546e97c83a08bbccc01a0644d599ccd2a7c2e180546001600160a01b0319166001600160a01b03909216919091179055517fe90b7bceb6e7df5418fb78d8ee546e97c83a08bbccc01a0644d599ccd2a7c2e25592519092907fe90b7bceb6e7df5418fb78d8ee546e97c83a08bbccc01a0644d599ccd2a7c2e3906107179082611547565b506080820151600482015560a090910151600590910155604080518281523360208201529081018490527f570c388d7e67c5385cdf07a09cec156d8a9c96dc1811ef22258a6cc440cfa639906060016103f7565b6107a66040518060a001604052806000815260200160006001600160a01b031681526020016060815260200160608152602001606081525090565b6001600160a01b0380831660009081526020818152604091829020825160a0810184528154815260018201549094169184019190915260028101805491928401916107f0906114c0565b80601f016020809104026020016040519081016040528092919081815260200182805461081c906114c0565b80156108695780601f1061083e57610100808354040283529160200191610869565b820191906000526020600020905b81548152906001019060200180831161084c57829003601f168201915b50505050508152602001600382018054610882906114c0565b80601f01602080910402602001604051908101604052809291908181526020018280546108ae906114c0565b80156108fb5780601f106108d0576101008083540402835291602001916108fb565b820191906000526020600020905b8154815290600101906020018083116108de57829003601f168201915b50505050508152602001600482018054610914906114c0565b80601f0160208091040260200160405190810160405280929190818152602001828054610940906114c0565b801561098d5780601f106109625761010080835404028352916020019161098d565b820191906000526020600020905b81548152906001019060200180831161097057829003601f168201915b5050505050815250509050919050565b336000818152602081905260409020600101546001600160a01b03166109d65760405163995cae5960e01b815260040160405180910390fd5b8160006001600160a01b03166004826040516109f29190611607565b908152604051908190036020019020546001600160a01b031614610a295760405163cd9c3c2960e01b815260040160405180910390fd5b33600090815260208190526040908190209051600491610a4e91600290910190611623565b90815260405190819003602001812080546001600160a01b03191690553390600490610a7b908690611607565b908152604080516020928190038301902080546001600160a01b0319166001600160a01b0394909416939093179092553360009081529081905220600201610ac38482611547565b50505050565b60008181526002602052604090206001015481906001600160a01b03163314610b0557604051632585a1bd60e01b815260040160405180910390fd5b600082815260026020819052604082208281556001810180546001600160a01b031916905590810182905590610b3e6003830182610f83565b506000600482018190556005909101555050565b6003546001600160a01b03163314610b7d5760405163aadd925760e01b815260040160405180910390fd5b6040516001600160a01b038216904780156108fc02916000818181858888f19350505050158015610bb2573d6000803e3d6000fd5b5050565b6003546001600160a01b03163314610be15760405163aadd925760e01b815260040160405180910390fd5b600380546001600160a01b0319166001600160a01b0392909216919091179055565b60008281526002602052604090206001015482906001600160a01b03163314610c3f57604051632585a1bd60e01b815260040160405180910390fd5b600083815260026020526040902060038101610c5b8482611547565b5050505050565b60008381526001602052604090206006015483906001600160a01b03163314610c9e57604051639ef3fcef60e01b815260040160405180910390fd5b6000848152600160208190526040909120908101610cbc8582611547565b5060028101610ccb8482611547565b505050505050565b8260006001600160a01b0316600482604051610cef9190611607565b908152604051908190036020019020546001600160a01b031614610d265760405163cd9c3c2960e01b815260040160405180910390fd5b600060016040805160a0810182528281523360208083018281528385018b8152606085018b9052608085018a9052600093845291839052939091208251815592516001840180546001600160a01b0319166001600160a01b0390921691909117905551929350916002820190610d9c9082611547565b5060608201516003820190610db19082611547565b5060808201516004820190610dc69082611547565b5090505033600486604051610ddb9190611607565b90815260405190819003602001812080546001600160a01b03939093166001600160a01b0319909316929092179091557fe929886768f674b51d2ff55807f2b3b291d9a9379119da230bafabd81d39393a90610e3c90839033908990611699565b60405180910390a15050505050565b60008181526001602052604090206006015481906001600160a01b03163303610e8757604051631902ab3960e01b815260040160405180910390fd5b336000908152600660209081526040808320858452909152902054829060ff1615610ec5576040516383dcc1c160e01b815260040160405180910390fd5b6000838152600160205260408120600501805491610ee283611499565b90915550503360008181526006602090815260408083208784528252808320805460ff191660019081179091556005805491820181559093527f036b6384b5eca791c62761152d0c79bb0604c104a5fb6f4eb0703f3154bb3db090920180546001600160a01b031916841790558151868152908101929092527fd1a80ff7224556d1f75ebb4aabff86e4c1b70cfedfc1c3e67eac663bc85b002791016103f7565b508054610f8f906114c0565b6000825580601f10610f9f575050565b601f016020900490600052602060002090810190610fbd9190610fc0565b50565b5b80821115610fd55760008155600101610fc1565b5090565b600060208284031215610feb57600080fd5b5035919050565b634e487b7160e01b600052604160045260246000fd5b600082601f83011261101957600080fd5b813567ffffffffffffffff8082111561103457611034610ff2565b604051601f8301601f19908116603f0116810190828211818310171561105c5761105c610ff2565b8160405283815286602085880101111561107557600080fd5b836020870160208301376000602085830101528094505050505092915050565b600080604083850312156110a857600080fd5b823567ffffffffffffffff808211156110c057600080fd5b6110cc86838701611008565b935060208501359150808211156110e257600080fd5b506110ef85828601611008565b9150509250929050565b6000806040838503121561110c57600080fd5b82359150602083013567ffffffffffffffff81111561112a57600080fd5b6110ef85828601611008565b6001600160a01b0381168114610fbd57600080fd5b60006020828403121561115d57600080fd5b813561116881611136565b9392505050565b60005b8381101561118a578181015183820152602001611172565b50506000910152565b600081518084526111ab81602086016020860161116f565b601f01601f19169290920160200192915050565b602081528151602082015260018060a01b0360208301511660408201526000604083015160a060608401526111f760c0840182611193565b90506060840151601f19808584030160808601526112158383611193565b925060808601519150808584030160a0860152506112338282611193565b95945050505050565b60006020828403121561124e57600080fd5b813567ffffffffffffffff81111561126557600080fd5b61127184828501611008565b949350505050565b600060208083018184528085518083526040925060408601915060408160051b87010184880160005b8381101561132f57603f19898403018552815160e08151855288820151818a8701526112d082870182611193565b91505087820151858203898701526112e88282611193565b606084810151908801526080808501519088015260a0808501519088015260c0938401516001600160a01b03169390960192909252505093860193908601906001016112a2565b509098975050505050505050565b60008060006060848603121561135257600080fd5b83359250602084013567ffffffffffffffff8082111561137157600080fd5b61137d87838801611008565b9350604086013591508082111561139357600080fd5b506113a086828701611008565b9150509250925092565b600060208083018184528085518083526040925060408601915060408160051b87010184880160005b8381101561132f57888303603f19018552815180518452878101516001600160a01b031688850152868101518785015260608082015160c0828701819052919061141f83880182611193565b6080858101519089015260a094850151949097019390935250505093860193908601906001016113d3565b60008060006060848603121561145f57600080fd5b833567ffffffffffffffff8082111561147757600080fd5b61148387838801611008565b9450602086013591508082111561137157600080fd5b6000600182016114b957634e487b7160e01b600052601160045260246000fd5b5060010190565b600181811c908216806114d457607f821691505b6020821081036114f457634e487b7160e01b600052602260045260246000fd5b50919050565b601f821115611542576000816000526020600020601f850160051c810160208610156115235750805b601f850160051c820191505b81811015610ccb5782815560010161152f565b505050565b815167ffffffffffffffff81111561156157611561610ff2565b6115758161156f84546114c0565b846114fa565b602080601f8311600181146115aa57600084156115925750858301515b600019600386901b1c1916600185901b178555610ccb565b600085815260208120601f198616915b828110156115d9578886015182559484019460019091019084016115ba565b50858210156115f75787850151600019600388901b60f8161c191681555b5050505050600190811b01905550565b6000825161161981846020870161116f565b9190910192915050565b6000808354611631816114c0565b60018281168015611649576001811461165e5761168d565b60ff198416875282151583028701945061168d565b8760005260208060002060005b858110156116845781548a82015290840190820161166b565b50505082870194505b50929695505050505050565b8381526001600160a01b03831660208201526060604082018190526000906112339083018461119356fea264697066735822122033c7eec52cf837439866339afe7eb5b8b943dfab92aeaea6649b02fcb47f190b64736f6c63430008180033","linkReferences":{}},"methodIdentifiers":{"changeOwner(address)":"a6f9dae1","changeUsername(string)":"77c846af","createComment(uint256,string)":"40a17985","createPost(string,string)":"392338f5","deleteComment(uint256)":"7d0b1026","deletePost(uint256)":"094cd5ee","downvote(uint256)":"f31fdad4","editComment(uint256,string)":"ad816029","editPost(uint256,string,string)":"bf0ac63c","getBalance()":"12065fe0","getUser(address)":"6f77926b","getUserPosts(address)":"9a2194a9","getUsersComment(address)":"c1852223","likeComment(uint256)":"012cc1e2","registerUser(string,string,string)":"d637dcfa","startDapp()":"95d2cc92","stopDapp()":"33aa01e9","transferContractBalance(address)":"96f11ac8","upvote(uint256)":"01ddf070"},"id":0}