{"abi":[{"type":"constructor","inputs":[{"name":"priceFeed","type":"address","internalType":"address"},{"name":"interval","type":"uint256","internalType":"uint256"},{"name":"vrfCoordinator","type":"address","internalType":"address"},{"name":"gasLane","type":"bytes32","internalType":"bytes32"},{"name":"subscriptionId","type":"uint64","internalType":"uint64"},{"name":"callbackGasLimit","type":"uint32","internalType":"uint32"},{"name":"link","type":"address","internalType":"address"},{"name":"deployerKey","type":"uint256","internalType":"uint256"}],"stateMutability":"nonpayable"},{"type":"receive","stateMutability":"payable"},{"type":"function","name":"CheckUpkeep","inputs":[{"name":"","type":"bytes","internalType":"bytes"}],"outputs":[{"name":"upkeepNeeded","type":"bool","internalType":"bool"},{"name":"","type":"bytes","internalType":"bytes"}],"stateMutability":"nonpayable"},{"type":"function","name":"changeOwner","inputs":[{"name":"_newOwner","type":"address","internalType":"address"}],"outputs":[],"stateMutability":"nonpayable"},{"type":"function","name":"changeUsername","inputs":[{"name":"_newName","type":"string","internalType":"string"}],"outputs":[],"stateMutability":"nonpayable"},{"type":"function","name":"createComment","inputs":[{"name":"_postId","type":"uint256","internalType":"uint256"},{"name":"_content","type":"string","internalType":"string"}],"outputs":[],"stateMutability":"nonpayable"},{"type":"function","name":"createPost","inputs":[{"name":"_content","type":"string","internalType":"string"},{"name":"_imgHash","type":"string","internalType":"string"}],"outputs":[],"stateMutability":"nonpayable"},{"type":"function","name":"deleteComment","inputs":[{"name":"_postId","type":"uint256","internalType":"uint256"},{"name":"_commentId","type":"uint256","internalType":"uint256"}],"outputs":[],"stateMutability":"payable"},{"type":"function","name":"deletePost","inputs":[{"name":"_postId","type":"uint256","internalType":"uint256"}],"outputs":[],"stateMutability":"payable"},{"type":"function","name":"downvote","inputs":[{"name":"_postId","type":"uint256","internalType":"uint256"}],"outputs":[],"stateMutability":"nonpayable"},{"type":"function","name":"editComment","inputs":[{"name":"_postId","type":"uint256","internalType":"uint256"},{"name":"_commentId","type":"uint256","internalType":"uint256"},{"name":"_content","type":"string","internalType":"string"}],"outputs":[],"stateMutability":"payable"},{"type":"function","name":"editPost","inputs":[{"name":"_postId","type":"uint256","internalType":"uint256"},{"name":"_content","type":"string","internalType":"string"},{"name":"_imgHash","type":"string","internalType":"string"}],"outputs":[],"stateMutability":"payable"},{"type":"function","name":"getBalance","inputs":[],"outputs":[{"name":"","type":"uint256","internalType":"uint256"}],"stateMutability":"view"},{"type":"function","name":"getCommentByPostIdAndCommentId","inputs":[{"name":"_postId","type":"uint256","internalType":"uint256"},{"name":"_commentId","type":"uint256","internalType":"uint256"}],"outputs":[{"name":"","type":"tuple","internalType":"struct SocialMedia.Comment","components":[{"name":"commentId","type":"uint256","internalType":"uint256"},{"name":"author","type":"address","internalType":"address"},{"name":"postId","type":"uint256","internalType":"uint256"},{"name":"content","type":"string","internalType":"string"},{"name":"timestamp","type":"uint256","internalType":"uint256"},{"name":"likesCount","type":"uint256","internalType":"uint256"}]}],"stateMutability":"view"},{"type":"function","name":"getCommentLikersByPostIdAndCommentId","inputs":[{"name":"_postId","type":"uint256","internalType":"uint256"},{"name":"_commentId","type":"uint256","internalType":"uint256"}],"outputs":[{"name":"","type":"address[]","internalType":"address[]"}],"stateMutability":"view"},{"type":"function","name":"getContractOwner","inputs":[],"outputs":[{"name":"","type":"address","internalType":"address"}],"stateMutability":"view"},{"type":"function","name":"getPostById","inputs":[{"name":"_postId","type":"uint256","internalType":"uint256"}],"outputs":[{"name":"","type":"tuple","internalType":"struct SocialMedia.Post","components":[{"name":"postId","type":"uint256","internalType":"uint256"},{"name":"content","type":"string","internalType":"string"},{"name":"imgHash","type":"string","internalType":"string"},{"name":"timestamp","type":"uint256","internalType":"uint256"},{"name":"upvotes","type":"uint256","internalType":"uint256"},{"name":"downvotes","type":"uint256","internalType":"uint256"},{"name":"author","type":"address","internalType":"address"}]}],"stateMutability":"view"},{"type":"function","name":"getUser","inputs":[{"name":"_userAddress","type":"address","internalType":"address"}],"outputs":[{"name":"","type":"tuple","internalType":"struct SocialMedia.User","components":[{"name":"id","type":"uint256","internalType":"uint256"},{"name":"userAddress","type":"address","internalType":"address"},{"name":"name","type":"string","internalType":"string"},{"name":"bio","type":"string","internalType":"string"},{"name":"profileImageHash","type":"string","internalType":"string"}]}],"stateMutability":"view"},{"type":"function","name":"getUserById","inputs":[{"name":"_userId","type":"uint256","internalType":"uint256"}],"outputs":[{"name":"","type":"tuple","internalType":"struct SocialMedia.User","components":[{"name":"id","type":"uint256","internalType":"uint256"},{"name":"userAddress","type":"address","internalType":"address"},{"name":"name","type":"string","internalType":"string"},{"name":"bio","type":"string","internalType":"string"},{"name":"profileImageHash","type":"string","internalType":"string"}]}],"stateMutability":"view"},{"type":"function","name":"getUserComments","inputs":[{"name":"_userAddress","type":"address","internalType":"address"}],"outputs":[{"name":"","type":"tuple[]","internalType":"struct SocialMedia.Comment[]","components":[{"name":"commentId","type":"uint256","internalType":"uint256"},{"name":"author","type":"address","internalType":"address"},{"name":"postId","type":"uint256","internalType":"uint256"},{"name":"content","type":"string","internalType":"string"},{"name":"timestamp","type":"uint256","internalType":"uint256"},{"name":"likesCount","type":"uint256","internalType":"uint256"}]}],"stateMutability":"view"},{"type":"function","name":"getUserNameFromAddress","inputs":[{"name":"_userAddress","type":"address","internalType":"address"}],"outputs":[{"name":"nameOfUser","type":"string","internalType":"string"}],"stateMutability":"view"},{"type":"function","name":"getUserPosts","inputs":[{"name":"_userAddress","type":"address","internalType":"address"}],"outputs":[{"name":"","type":"tuple[]","internalType":"struct SocialMedia.Post[]","components":[{"name":"postId","type":"uint256","internalType":"uint256"},{"name":"content","type":"string","internalType":"string"},{"name":"imgHash","type":"string","internalType":"string"},{"name":"timestamp","type":"uint256","internalType":"uint256"},{"name":"upvotes","type":"uint256","internalType":"uint256"},{"name":"downvotes","type":"uint256","internalType":"uint256"},{"name":"author","type":"address","internalType":"address"}]}],"stateMutability":"view"},{"type":"function","name":"likeComment","inputs":[{"name":"_postId","type":"uint256","internalType":"uint256"},{"name":"_commentId","type":"uint256","internalType":"uint256"}],"outputs":[],"stateMutability":"nonpayable"},{"type":"function","name":"performUpkeep","inputs":[{"name":"","type":"bytes","internalType":"bytes"}],"outputs":[],"stateMutability":"nonpayable"},{"type":"function","name":"rawFulfillRandomWords","inputs":[{"name":"requestId","type":"uint256","internalType":"uint256"},{"name":"randomWords","type":"uint256[]","internalType":"uint256[]"}],"outputs":[],"stateMutability":"nonpayable"},{"type":"function","name":"registerUser","inputs":[{"name":"_name","type":"string","internalType":"string"},{"name":"_bio","type":"string","internalType":"string"},{"name":"_profileImageHash","type":"string","internalType":"string"}],"outputs":[],"stateMutability":"nonpayable"},{"type":"function","name":"transferContractBalance","inputs":[{"name":"_to","type":"address","internalType":"address payable"}],"outputs":[],"stateMutability":"nonpayable"},{"type":"function","name":"upvote","inputs":[{"name":"_postId","type":"uint256","internalType":"uint256"}],"outputs":[],"stateMutability":"nonpayable"},{"type":"event","name":"CommentCreated","inputs":[{"name":"commentId","type":"uint256","indexed":true,"internalType":"uint256"},{"name":"postAuthor","type":"string","indexed":false,"internalType":"string"},{"name":"commentAuthor","type":"string","indexed":false,"internalType":"string"},{"name":"postId","type":"uint256","indexed":false,"internalType":"uint256"}],"anonymous":false},{"type":"event","name":"Downvoted","inputs":[{"name":"postId","type":"uint256","indexed":false,"internalType":"uint256"},{"name":"posthAuthorName","type":"string","indexed":false,"internalType":"string"},{"name":"downvoterName","type":"string","indexed":false,"internalType":"string"}],"anonymous":false},{"type":"event","name":"PickedWinner","inputs":[{"name":"winner","type":"address","indexed":false,"internalType":"address"}],"anonymous":false},{"type":"event","name":"PostCreated","inputs":[{"name":"postId","type":"uint256","indexed":false,"internalType":"uint256"},{"name":"authorName","type":"string","indexed":false,"internalType":"string"}],"anonymous":false},{"type":"event","name":"PostEdited","inputs":[{"name":"postId","type":"uint256","indexed":false,"internalType":"uint256"},{"name":"authorName","type":"string","indexed":false,"internalType":"string"}],"anonymous":false},{"type":"event","name":"PostLiked","inputs":[{"name":"postId","type":"uint256","indexed":true,"internalType":"uint256"},{"name":"postAuthor","type":"address","indexed":true,"internalType":"address"},{"name":"liker","type":"address","indexed":true,"internalType":"address"}],"anonymous":false},{"type":"event","name":"RequestWinningAuthor","inputs":[{"name":"requestId","type":"uint256","indexed":false,"internalType":"uint256"}],"anonymous":false},{"type":"event","name":"RewardSent","inputs":[{"name":"user","type":"address","indexed":true,"internalType":"address"},{"name":"amount","type":"uint256","indexed":false,"internalType":"uint256"}],"anonymous":false},{"type":"event","name":"Upvoted","inputs":[{"name":"postId","type":"uint256","indexed":false,"internalType":"uint256"},{"name":"posthAuthorName","type":"string","indexed":false,"internalType":"string"},{"name":"upvoterName","type":"string","indexed":false,"internalType":"string"}],"anonymous":false},{"type":"event","name":"UserRegistered","inputs":[{"name":"id","type":"uint256","indexed":true,"internalType":"uint256"},{"name":"userAddress","type":"address","indexed":true,"internalType":"address"},{"name":"name","type":"string","indexed":true,"internalType":"string"}],"anonymous":false},{"type":"error","name":"OnlyCoordinatorCanFulfill","inputs":[{"name":"have","type":"address","internalType":"address"},{"name":"want","type":"address","internalType":"address"}]},{"type":"error","name":"SocialMedia__AlreadyVoted","inputs":[]},{"type":"error","name":"SocialMedia__BatchTransferFailed","inputs":[{"name":"winner","type":"address","internalType":"address"}]},{"type":"error","name":"SocialMedia__NotCommentOwner","inputs":[]},{"type":"error","name":"SocialMedia__NotOwner","inputs":[]},{"type":"error","name":"SocialMedia__NotPostOwner","inputs":[]},{"type":"error","name":"SocialMedia__OwnerCannotVote","inputs":[]},{"type":"error","name":"SocialMedia__PaymentNotEnough","inputs":[]},{"type":"error","name":"SocialMedia__TransferFailed","inputs":[]},{"type":"error","name":"SocialMedia__UpkeepNotNeeded","inputs":[{"name":"balance","type":"uint256","internalType":"uint256"},{"name":"numOfEligibleAuthors","type":"uint256","internalType":"uint256"}]},{"type":"error","name":"SocialMedia__UserDoesNotExist","inputs":[]},{"type":"error","name":"SocialMedia__UsernameAlreadyTaken","inputs":[]}],"bytecode":{"object":"0x6101406040523480156200001257600080fd5b50604051620034bd380380620034bd8339810160408190526200003591620000bd565b50506001600160a01b039384166080819052601480546001600160a01b03199081163317909155600080549890961697169690961790935560a0939093524260015560c09390935260e0929092526001600160401b03166101005263ffffffff166101205262000163565b80516001600160a01b0381168114620000b857600080fd5b919050565b600080600080600080600080610100898b031215620000db57600080fd5b620000e689620000a0565b975060208901519650620000fd60408a01620000a0565b60608a015160808b015191975095506001600160401b03811681146200012257600080fd5b60a08a015190945063ffffffff811681146200013d57600080fd5b92506200014d60c08a01620000a0565b915060e089015190509295985092959890939650565b60805160a05160c05160e0516101005161012051613303620001ba6000396000611109015260006110db015260006110ad0152600061113a01526000611e2c01526000818161079c01526107de01526133036000f3fe6080604052600436106101855760003560e01c80636ed6da9e116100d1578063a0e918211161008a578063c9fbacf311610064578063c9fbacf314610497578063d637dcfa146104c5578063f31fdad4146104e5578063fa5611521461050557600080fd5b8063a0e9182114610444578063a6f9dae114610464578063bf0ac63c1461048457600080fd5b80636ed6da9e1461035d5780636f77926b1461038a57806377c846af146103aa5780638dc4a066146103ca57806396f11ac8146103f75780639a2194a91461041757600080fd5b8063392338f51161013e578063442890d511610118578063442890d5146102bb5780634585e33b146102e35780636372af841461030357806364e958951461033057600080fd5b8063392338f51461024e57806340a179851461026e5780634296db5b1461028e57600080fd5b806301ddf07014610191578063094cd5ee146101b357806312065fe0146101c65780631fe543e3146101ee5780632b3c6e221461020e57806331a4bcb51461023b57600080fd5b3661018c57005b600080fd5b34801561019d57600080fd5b506101b16101ac366004612821565b610518565b005b6101b16101c1366004612821565b610657565b3480156101d257600080fd5b506101db61075e565b6040519081526020015b60405180910390f35b3480156101fa57600080fd5b506101b1610209366004612880565b610791565b34801561021a57600080fd5b5061022e610229366004612949565b61081e565b6040516101e59190612a11565b6101b1610249366004612a75565b610964565b34801561025a57600080fd5b506101b1610269366004612b0e565b610a90565b34801561027a57600080fd5b506101b1610289366004612b71565b610d03565b34801561029a57600080fd5b506102ae6102a9366004612a75565b610e82565b6040516101e59190612bad565b3480156102c757600080fd5b506014546040516001600160a01b0390911681526020016101e5565b3480156102ef57600080fd5b506101b16102fe366004612bc0565b610fef565b34801561030f57600080fd5b5061032361031e366004612949565b6111f0565b6040516101e59190612c31565b34801561033c57600080fd5b5061035061034b366004612821565b6113f1565b6040516101e59190612cb9565b34801561036957600080fd5b5061037d610378366004612821565b6115cc565b6040516101e59190612ccc565b34801561039657600080fd5b5061037d6103a5366004612949565b6117f6565b3480156103b657600080fd5b506101b16103c5366004612d40565b61184a565b3480156103d657600080fd5b506103ea6103e5366004612a75565b611921565b6040516101e59190612d7c565b34801561040357600080fd5b506101b1610412366004612949565b611996565b34801561042357600080fd5b50610437610432366004612949565b6119f6565b6040516101e59190612dc9565b34801561045057600080fd5b506101b161045f366004612a75565b611bc5565b34801561047057600080fd5b506101b161047f366004612949565b611ca6565b6101b1610492366004612e20565b611cf3565b3480156104a357600080fd5b506104b76104b2366004612e8c565b611e1c565b6040516101e5929190612ed4565b3480156104d157600080fd5b506101b16104e0366004612eef565b611ea2565b3480156104f157600080fd5b506101b1610500366004612821565b612118565b6101b1610513366004612f3d565b612247565b6000818152600b602052604090205481906001600160a01b0316330361055157604051631902ab3960e01b815260040160405180910390fd5b336000908152600d60209081526040808320858452909152902054829060ff161561058f576040516383dcc1c160e01b815260040160405180910390fd5b600683815481106105a2576105a2612f82565b6000918252602082206004600790920201018054916105c083612fae565b9091555050336000908152600d602090815260408083208684528252808320805460ff19166001179055600b9091528120546001600160a01b031690610605826111f0565b90506000610612336111f0565b90507fa036d403d7739d8360e6171b2fbf68a0dfef33d6c6f432a236f6c3cdbb3cfee686838360405161064793929190612fc7565b60405180910390a1505050505050565b6000818152600b602052604090205481906001600160a01b0316331461069057604051639ef3fcef60e01b815260040160405180910390fd5b600054674563918244f40000906106b19034906001600160a01b0316612314565b10156106cf576040516217124560e91b815260040160405180910390fd5b60405180602001604052806000815250600683815481106106f2576106f2612f82565b9060005260206000209060070201600101908161070f9190613083565b5060006006838154811061072557610725612f82565b906000526020600020906007020160060160006101000a8154816001600160a01b0302191690836001600160a01b031602179055505050565b6014546000906001600160a01b0316331461078c5760405163aadd925760e01b815260040160405180910390fd5b504790565b336001600160a01b037f000000000000000000000000000000000000000000000000000000000000000016146108105760405163073e64fd60e21b81523360048201526001600160a01b037f00000000000000000000000000000000000000000000000000000000000000001660248201526044015b60405180910390fd5b61081a828261234a565b5050565b6001600160a01b0381166000908152601160209081526040808320805482518185028101850190935280835260609492939192909184015b828210156109595760008481526020908190206040805160c081018252600686029092018054835260018101546001600160a01b0316938301939093526002830154908201526003820180549192916060840191906108b490612ffc565b80601f01602080910402602001604051908101604052809291908181526020018280546108e090612ffc565b801561092d5780601f106109025761010080835404028352916020019161092d565b820191906000526020600020905b81548152906001019060200180831161091057829003601f168201915b505050505081526020016004820154815260200160058201548152505081526020019060010190610856565b505050509050919050565b6000828152601060209081526040808320848452909152902054829082906001600160a01b031633146109aa57604051632585a1bd60e01b815260040160405180910390fd5b600054674563918244f40000906109cb9034906001600160a01b0316612314565b10156109e9576040516217124560e91b815260040160405180910390fd5b60408051602080820183526000808352878152600f90915291909120805485908110610a1757610a17612f82565b90600052602060002090600602016003019081610a349190613083565b506000848152600f60205260408120805485908110610a5557610a55612f82565b906000526020600020906006020160010160006101000a8154816001600160a01b0302191690836001600160a01b0316021790555050505050565b336000818152600360205260409020600101546001600160a01b0316610ac95760405163995cae5960e01b815260040160405180910390fd5b6006546040805160e0810182528281526020810186905290810184905242606082015260006080820181905260a082018190523360c08301819052610b0d906111f0565b336000908152600e60209081526040822080546001818101835591845292829020865160079094020192835590850151929350849290820190610b509082613083565b5060408201516002820190610b659082613083565b50606082015160038201556080820151600482015560a0820151600582015560c090910151600691820180546001600160a01b0319166001600160a01b03909216919091179055805460018101825560009190915282517ff652222313e28459528d920b65115c16c04f3efc82aaedc97be59f3f377c0d3f6007909202918201908155602084015184927ff652222313e28459528d920b65115c16c04f3efc82aaedc97be59f3f377c0d400190610c1c9082613083565b5060408201516002820190610c319082613083565b50606082015160038201556080820151600482015560a0820151600582015560c090910151600690910180546001600160a01b039092166001600160a01b0319928316179055825160078054600181019091557fa66cc928b5edb82af9bd49922954155ab7b0942694bea4ce44661d9a8736c6880155336000818152600a60209081526040808320889055878352600b909152908190208054909316909117909155517f3d4335cbfac350aa27a3fa09060b4691656ecbe3033f4d953849c2f755f230d1906106479085908490613142565b336000818152600360205260409020600101546001600160a01b0316610d3c5760405163995cae5960e01b815260040160405180910390fd5b6000838152600f6020908152604080832054815160c08101835281815233938101939093529082018690526060820185905242608083015260a0820183905291610d85866115cc565b6040015190506000610d96336111f0565b600088815260106020908152604080832088845282528083208054336001600160a01b0319918216179091558b8452600f83528184208054600181810183559186529484902089516006909602019485559288015192840180549091166001600160a01b03909316929092179091558501516002820155606085015191925084916003820190610e269082613083565b506080820151816004015560a082015181600501555050837f915184b2a0bfb3b827755b4e9e718f684996cef7b75bad20f26cd2fd67396c7783838a604051610e719392919061315b565b60405180910390a250505050505050565b610ec46040518060c001604052806000815260200160006001600160a01b03168152602001600081526020016060815260200160008152602001600081525090565b6000838152600f60205260409020805483908110610ee457610ee4612f82565b90600052602060002090600602016040518060c0016040529081600082015481526020016001820160009054906101000a90046001600160a01b03166001600160a01b03166001600160a01b0316815260200160028201548152602001600382018054610f5090612ffc565b80601f0160208091040260200160405190810160405280929190818152602001828054610f7c90612ffc565b8015610fc95780601f10610f9e57610100808354040283529160200191610fc9565b820191906000526020600020905b815481529060010190602001808311610fac57829003601f168201915b505050505081526020016004820154815260200160058201548152505090505b92915050565b6000611013604051806040016040528060018152602001600160fd1b815250611e1c565b509050806110415760155460405163280d711960e21b81524760048201526024810191909152604401610807565b604080516000815260208101918290525161105e91600791612789565b5042600155601654601410156110825760165461107d90600a906131a7565b611085565b60015b6018805463ffffffff191663ffffffff9283169081179091556040516305d3b1d360e41b81527f000000000000000000000000000000000000000000000000000000000000000060048201526001600160401b037f0000000000000000000000000000000000000000000000000000000000000000166024820152600360448201527f0000000000000000000000000000000000000000000000000000000000000000909216606483015260848201526000907f00000000000000000000000000000000000000000000000000000000000000006001600160a01b031690635d3b1d309060a4016020604051808303816000875af115801561118b573d6000803e3d6000fd5b505050506040513d601f19601f820116820180604052508101906111af91906131bb565b90507f0aa5a4e8e459a1f6485b98194bbe2e07647a58e7dd6d2a9923441b4d569c3077816040516111e291815260200190565b60405180910390a150505050565b6001600160a01b038082166000908152600360209081526040808320815160a0810183528154815260018201549095169285019290925260028201805460609593928401919061123f90612ffc565b80601f016020809104026020016040519081016040528092919081815260200182805461126b90612ffc565b80156112b85780601f1061128d576101008083540402835291602001916112b8565b820191906000526020600020905b81548152906001019060200180831161129b57829003601f168201915b505050505081526020016003820180546112d190612ffc565b80601f01602080910402602001604051908101604052809291908181526020018280546112fd90612ffc565b801561134a5780601f1061131f5761010080835404028352916020019161134a565b820191906000526020600020905b81548152906001019060200180831161132d57829003601f168201915b5050505050815260200160048201805461136390612ffc565b80601f016020809104026020016040519081016040528092919081815260200182805461138f90612ffc565b80156113dc5780601f106113b1576101008083540402835291602001916113dc565b820191906000526020600020905b8154815290600101906020018083116113bf57829003601f168201915b50505091909252505050604001519392505050565b61143a6040518060e0016040528060008152602001606081526020016060815260200160008152602001600081526020016000815260200160006001600160a01b031681525090565b6006828154811061144d5761144d612f82565b90600052602060002090600702016040518060e00160405290816000820154815260200160018201805461148090612ffc565b80601f01602080910402602001604051908101604052809291908181526020018280546114ac90612ffc565b80156114f95780601f106114ce576101008083540402835291602001916114f9565b820191906000526020600020905b8154815290600101906020018083116114dc57829003601f168201915b5050505050815260200160028201805461151290612ffc565b80601f016020809104026020016040519081016040528092919081815260200182805461153e90612ffc565b801561158b5780601f106115605761010080835404028352916020019161158b565b820191906000526020600020905b81548152906001019060200180831161156e57829003601f168201915b50505091835250506003820154602082015260048201546040820152600582015460608201526006909101546001600160a01b031660809091015292915050565b6115d46127d4565b600282815481106115e7576115e7612f82565b90600052602060002090600502016040518060a0016040529081600082015481526020016001820160009054906101000a90046001600160a01b03166001600160a01b03166001600160a01b0316815260200160028201805461164990612ffc565b80601f016020809104026020016040519081016040528092919081815260200182805461167590612ffc565b80156116c25780601f10611697576101008083540402835291602001916116c2565b820191906000526020600020905b8154815290600101906020018083116116a557829003601f168201915b505050505081526020016003820180546116db90612ffc565b80601f016020809104026020016040519081016040528092919081815260200182805461170790612ffc565b80156117545780601f1061172957610100808354040283529160200191611754565b820191906000526020600020905b81548152906001019060200180831161173757829003601f168201915b5050505050815260200160048201805461176d90612ffc565b80601f016020809104026020016040519081016040528092919081815260200182805461179990612ffc565b80156117e65780601f106117bb576101008083540402835291602001916117e6565b820191906000526020600020905b8154815290600101906020018083116117c957829003601f168201915b5050505050815250509050919050565b6117fe6127d4565b6001600160a01b03808316600090815260036020908152604091829020825160a08101845281548152600182015490941691840191909152600281018054919284019161164990612ffc565b336000818152600360205260409020600101546001600160a01b03166118835760405163995cae5960e01b815260040160405180910390fd5b8160006001600160a01b0316600c8260405161189f91906131d4565b908152604051908190036020019020546001600160a01b0316146118d65760405163cd9c3c2960e01b815260040160405180910390fd5b3360009081526005602052604090205460028054859190839081106118fd576118fd612f82565b9060005260206000209060050201600201908161191a9190613083565b5050505050565b600082815260136020908152604080832084845282529182902080548351818402810184019094528084526060939283018282801561198957602002820191906000526020600020905b81546001600160a01b0316815260019091019060200180831161196b575b5050505050905092915050565b6014546001600160a01b031633146119c15760405163aadd925760e01b815260040160405180910390fd5b6040516001600160a01b038216904780156108fc02916000818181858888f1935050505015801561081a573d6000803e3d6000fd5b6001600160a01b0381166000908152600e60209081526040808320805482518185028101850190935280835260609492939192909184015b8282101561095957838290600052602060002090600702016040518060e001604052908160008201548152602001600182018054611a6b90612ffc565b80601f0160208091040260200160405190810160405280929190818152602001828054611a9790612ffc565b8015611ae45780601f10611ab957610100808354040283529160200191611ae4565b820191906000526020600020905b815481529060010190602001808311611ac757829003601f168201915b50505050508152602001600282018054611afd90612ffc565b80601f0160208091040260200160405190810160405280929190818152602001828054611b2990612ffc565b8015611b765780601f10611b4b57610100808354040283529160200191611b76565b820191906000526020600020905b815481529060010190602001808311611b5957829003601f168201915b5050509183525050600382015460208083019190915260048301546040830152600583015460608301526006909201546001600160a01b03166080909101529082526001929092019101611a2e565b336000818152600360205260409020600101546001600160a01b0316611bfe5760405163995cae5960e01b815260040160405180910390fd5b6000838152600f60205260409020805483908110611c1e57611c1e612f82565b600091825260208220600560069092020101805491611c3c83612fae565b9091555050506000828152601260209081526040808320848452825280832033808552908352818420805460ff19166001908117909155958452601383528184209484529382528220805494850181558252902090910180546001600160a01b0319169091179055565b6014546001600160a01b03163314611cd15760405163aadd925760e01b815260040160405180910390fd5b601480546001600160a01b0319166001600160a01b0392909216919091179055565b6000838152600b602052604090205483906001600160a01b03163314611d2c57604051639ef3fcef60e01b815260040160405180910390fd5b600054674563918244f4000090611d4d9034906001600160a01b0316612314565b1015611d6b576040516217124560e91b815260040160405180910390fd5b8260068581548110611d7f57611d7f612f82565b90600052602060002090600702016001019081611d9c9190613083565b508160068581548110611db157611db1612f82565b90600052602060002090600702016002019081611dce9190613083565b506000611dda336111f0565b90507f7009e6824c3ecb1321da2ebabc18901b48d900a97f978c5a93dd3ba8cfe590358582604051611e0d929190613142565b60405180910390a15050505050565b60006060611e28612632565b60007f000000000000000000000000000000000000000000000000000000000000000060015442611e5991906131f0565b601654911180159250471515911515908390611e725750815b8015611e7b5750805b60408051808201909152600381526203078360ec1b60208201529097909650945050505050565b8260006001600160a01b0316600c82604051611ebe91906131d4565b908152604051908190036020019020546001600160a01b031614611ef55760405163cd9c3c2960e01b815260040160405180910390fd5b6004805460009182611f0683612fae565b919050559050611f146127d4565b81815233602080830182815260408085018a8152606086018a905260808601899052600094855260039093529092208351815591516001830180546001600160a01b0319166001600160a01b03909216919091179055518291906002820190611f7d9082613083565b5060608201516003820190611f929082613083565b5060808201516004820190611fa79082613083565b5050336000818152600560205260409081902085905551909150600c90611fcf9089906131d4565b908152604080516020928190038301902080546001600160a01b03199081166001600160a01b03958616179091556002805460018101825560009190915285517f405787fa12a823e0f2b7631cc41b3ba8828b3321ca811111fa75cd3aa3bb5ace6005909202918201908155938601517f405787fa12a823e0f2b7631cc41b3ba8828b3321ca811111fa75cd3aa3bb5acf82018054909316951694909417905583015183927f405787fa12a823e0f2b7631cc41b3ba8828b3321ca811111fa75cd3aa3bb5ad001906120a19082613083565b50606082015160038201906120b69082613083565b50608082015160048201906120cb9082613083565b505050856040516120dc91906131d4565b60405190819003812090339084907f8d76d60617424d83544323e2322cb8d86537451c9b3d991886ce6f4721e3865e90600090a4505050505050565b6000818152600b602052604090205481906001600160a01b0316330361215157604051631902ab3960e01b815260040160405180910390fd5b336000908152600d60209081526040808320858452909152902054829060ff161561218f576040516383dcc1c160e01b815260040160405180910390fd5b600683815481106121a2576121a2612f82565b6000918252602082206005600790920201018054916121c083612fae565b9091555050336000908152600d602090815260408083208684528252808320805460ff19166001179055600b9091528120546001600160a01b031690612205826111f0565b90506000612212336111f0565b90507fd7ad3e52dbe8b445d900fd8aa659c95d5b75bb6733c12e7f22d048963bd39ed586838360405161064793929190612fc7565b6000838152601060209081526040808320858452909152902054839083906001600160a01b0316331461228d57604051632585a1bd60e01b815260040160405180910390fd5b600054674563918244f40000906122ae9034906001600160a01b0316612314565b10156122cc576040516217124560e91b815260040160405180910390fd5b6000858152600f602052604090208054849190869081106122ef576122ef612f82565b9060005260206000209060060201600301908161230c9190613083565b505050505050565b600080612320836126a8565b90506000670de0b6b3a76400006123378387613203565b612341919061321a565b95945050505050565b604080516000815260208101918290525161236791601791612789565b5080516001036124bb5760006016805490508260008151811061238c5761238c612f82565b602002602001015161239e91906131a7565b90506000601682815481106123b5576123b5612f82565b6000918252602082200154601780546001810182559083527fc624b66cc0138b8fabc209247f72d758e1cf3343756d543badbf24212bed8c150181905591506123fd826113f1565b60c001516040516001600160a01b03821681529091507fb112587e57bfa970257f3d54fc52859c6300f6bd7a982462c320fed45c2530ed9060200160405180910390a16000816001600160a01b0316662386f26fc1000060405160006040518083038185875af1925050503d8060008114612494576040519150601f19603f3d011682016040523d82523d6000602084013e612499565b606091505b505090508061230c5760405163344efcaf60e21b815260040160405180910390fd5b805160005b8181101561262c5760006016805490508483815181106124e2576124e2612f82565b60200260200101516124f491906131a7565b905060006016828154811061250b5761250b612f82565b6000918252602082200154601780546001810182559083527fc624b66cc0138b8fabc209247f72d758e1cf3343756d543badbf24212bed8c15018190559150612553826113f1565b60c001516040516001600160a01b03821681529091507fb112587e57bfa970257f3d54fc52859c6300f6bd7a982462c320fed45c2530ed9060200160405180910390a16000816001600160a01b0316662386f26fc1000060405160006040518083038185875af1925050503d80600081146125ea576040519150601f19603f3d011682016040523d82523d6000602084013e6125ef565b606091505b505090508061261c57604051634b58e08160e11b81526001600160a01b0383166004820152602401610807565b5050600190920191506124c09050565b50505050565b60075460005b8181101561081a576126666007828154811061265657612656612f82565b906000526020600020015461272b565b156126a05760166007828154811061268057612680612f82565b600091825260208083209091015483546001810185559383529120909101555b600101612638565b600080826001600160a01b031663feaf968c6040518163ffffffff1660e01b815260040160a060405180830381865afa1580156126e9573d6000803e3d6000fd5b505050506040513d601f19601f8201168201806040525081019061270d919061324d565b505050915050806402540be400612724919061329d565b9392505050565b600080612737836113f1565b6080015190506000612748846113f1565b60a00151905060008061275b83856131f0565b11612767576000612771565b61277182846131f0565b9050600a81111561278157600193505b505050919050565b8280548282559060005260206000209081019282156127c4579160200282015b828111156127c45782518255916020019190600101906127a9565b506127d092915061280c565b5090565b6040518060a001604052806000815260200160006001600160a01b031681526020016060815260200160608152602001606081525090565b5b808211156127d0576000815560010161280d565b60006020828403121561283357600080fd5b5035919050565b634e487b7160e01b600052604160045260246000fd5b604051601f8201601f191681016001600160401b03811182821017156128785761287861283a565b604052919050565b6000806040838503121561289357600080fd5b823591506020808401356001600160401b03808211156128b257600080fd5b818601915086601f8301126128c657600080fd5b8135818111156128d8576128d861283a565b8060051b91506128e9848301612850565b818152918301840191848101908984111561290357600080fd5b938501935b8385101561292157843582529385019390850190612908565b8096505050505050509250929050565b6001600160a01b038116811461294657600080fd5b50565b60006020828403121561295b57600080fd5b813561272481612931565b60005b83811015612981578181015183820152602001612969565b50506000910152565b600081518084526129a2816020860160208601612966565b601f01601f19169290920160200192915050565b8051825260018060a01b036020820151166020830152604081015160408301526000606082015160c060608501526129f160c085018261298a565b90506080830151608085015260a083015160a08501528091505092915050565b600060208083016020845280855180835260408601915060408160051b87010192506020870160005b82811015612a6857603f19888603018452612a568583516129b6565b94509285019290850190600101612a3a565b5092979650505050505050565b60008060408385031215612a8857600080fd5b50508035926020909101359150565b60006001600160401b03831115612ab057612ab061283a565b612ac3601f8401601f1916602001612850565b9050828152838383011115612ad757600080fd5b828260208301376000602084830101529392505050565b600082601f830112612aff57600080fd5b61272483833560208501612a97565b60008060408385031215612b2157600080fd5b82356001600160401b0380821115612b3857600080fd5b612b4486838701612aee565b93506020850135915080821115612b5a57600080fd5b50612b6785828601612aee565b9150509250929050565b60008060408385031215612b8457600080fd5b8235915060208301356001600160401b03811115612ba157600080fd5b612b6785828601612aee565b60208152600061272460208301846129b6565b60008060208385031215612bd357600080fd5b82356001600160401b0380821115612bea57600080fd5b818501915085601f830112612bfe57600080fd5b813581811115612c0d57600080fd5b866020828501011115612c1f57600080fd5b60209290920196919550909350505050565b602081526000612724602083018461298a565b805182526000602082015160e06020850152612c6360e085018261298a565b905060408301518482036040860152612c7c828261298a565b606085810151908701526080808601519087015260a0808601519087015260c0948501516001600160a01b03169490950193909352509192915050565b6020815260006127246020830184612c44565b602081528151602082015260018060a01b0360208301511660408201526000604083015160a06060840152612d0460c084018261298a565b90506060840151601f1980858403016080860152612d22838361298a565b925060808601519150808584030160a086015250612341828261298a565b600060208284031215612d5257600080fd5b81356001600160401b03811115612d6857600080fd5b612d7484828501612aee565b949350505050565b6020808252825182820181905260009190848201906040850190845b81811015612dbd5783516001600160a01b031683529284019291840191600101612d98565b50909695505050505050565b600060208083016020845280855180835260408601915060408160051b87010192506020870160005b82811015612a6857603f19888603018452612e0e858351612c44565b94509285019290850190600101612df2565b600080600060608486031215612e3557600080fd5b8335925060208401356001600160401b0380821115612e5357600080fd5b612e5f87838801612aee565b93506040860135915080821115612e7557600080fd5b50612e8286828701612aee565b9150509250925092565b600060208284031215612e9e57600080fd5b81356001600160401b03811115612eb457600080fd5b8201601f81018413612ec557600080fd5b612d7484823560208401612a97565b8215158152604060208201526000612d74604083018461298a565b600080600060608486031215612f0457600080fd5b83356001600160401b0380821115612f1b57600080fd5b612f2787838801612aee565b94506020860135915080821115612e5357600080fd5b600080600060608486031215612f5257600080fd5b833592506020840135915060408401356001600160401b03811115612f7657600080fd5b612e8286828701612aee565b634e487b7160e01b600052603260045260246000fd5b634e487b7160e01b600052601160045260246000fd5b600060018201612fc057612fc0612f98565b5060010190565b838152606060208201526000612fe0606083018561298a565b8281036040840152612ff2818561298a565b9695505050505050565b600181811c9082168061301057607f821691505b60208210810361303057634e487b7160e01b600052602260045260246000fd5b50919050565b601f82111561307e576000816000526020600020601f850160051c8101602086101561305f5750805b601f850160051c820191505b8181101561230c5782815560010161306b565b505050565b81516001600160401b0381111561309c5761309c61283a565b6130b0816130aa8454612ffc565b84613036565b602080601f8311600181146130e557600084156130cd5750858301515b600019600386901b1c1916600185901b17855561230c565b600085815260208120601f198616915b82811015613114578886015182559484019460019091019084016130f5565b50858210156131325787850151600019600388901b60f8161c191681555b5050505050600190811b01905550565b828152604060208201526000612d74604083018461298a565b60608152600061316e606083018661298a565b8281036020840152613180818661298a565b915050826040830152949350505050565b634e487b7160e01b600052601260045260246000fd5b6000826131b6576131b6613191565b500690565b6000602082840312156131cd57600080fd5b5051919050565b600082516131e6818460208701612966565b9190910192915050565b81810381811115610fe957610fe9612f98565b8082028115828204841417610fe957610fe9612f98565b60008261322957613229613191565b500490565b805169ffffffffffffffffffff8116811461324857600080fd5b919050565b600080600080600060a0868803121561326557600080fd5b61326e8661322e565b94506020860151935060408601519250606086015191506132916080870161322e565b90509295509295909350565b80820260008212600160ff1b841416156132b9576132b9612f98565b8181058314821517610fe957610fe9612f9856fea264697066735822122091b846e789870ace17dadc6c3a7dc1b028fb7a963a0e80e95ec85fa82d44fd4264736f6c63430008180033","linkReferences":{}},"methodIdentifiers":{"CheckUpkeep(bytes)":"c9fbacf3","changeOwner(address)":"a6f9dae1","changeUsername(string)":"77c846af","createComment(uint256,string)":"40a17985","createPost(string,string)":"392338f5","deleteComment(uint256,uint256)":"31a4bcb5","deletePost(uint256)":"094cd5ee","downvote(uint256)":"f31fdad4","editComment(uint256,uint256,string)":"fa561152","editPost(uint256,string,string)":"bf0ac63c","getBalance()":"12065fe0","getCommentByPostIdAndCommentId(uint256,uint256)":"4296db5b","getCommentLikersByPostIdAndCommentId(uint256,uint256)":"8dc4a066","getContractOwner()":"442890d5","getPostById(uint256)":"64e95895","getUser(address)":"6f77926b","getUserById(uint256)":"6ed6da9e","getUserComments(address)":"2b3c6e22","getUserNameFromAddress(address)":"6372af84","getUserPosts(address)":"9a2194a9","likeComment(uint256,uint256)":"a0e91821","performUpkeep(bytes)":"4585e33b","rawFulfillRandomWords(uint256,uint256[])":"1fe543e3","registerUser(string,string,string)":"d637dcfa","transferContractBalance(address)":"96f11ac8","upvote(uint256)":"01ddf070"},"id":36}