{"abi":[{"type":"constructor","inputs":[{"name":"priceFeed","type":"address","internalType":"address"}],"stateMutability":"nonpayable"},{"type":"receive","stateMutability":"payable"},{"type":"function","name":"changeOwner","inputs":[{"name":"_newOwner","type":"address","internalType":"address"}],"outputs":[],"stateMutability":"nonpayable"},{"type":"function","name":"changeUsername","inputs":[{"name":"_newName","type":"string","internalType":"string"}],"outputs":[],"stateMutability":"nonpayable"},{"type":"function","name":"createComment","inputs":[{"name":"_postId","type":"uint256","internalType":"uint256"},{"name":"_content","type":"string","internalType":"string"}],"outputs":[],"stateMutability":"nonpayable"},{"type":"function","name":"createPost","inputs":[{"name":"_content","type":"string","internalType":"string"},{"name":"_imgHash","type":"string","internalType":"string"}],"outputs":[],"stateMutability":"nonpayable"},{"type":"function","name":"deleteComment","inputs":[{"name":"_postId","type":"uint256","internalType":"uint256"},{"name":"_commentId","type":"uint256","internalType":"uint256"}],"outputs":[],"stateMutability":"payable"},{"type":"function","name":"deletePost","inputs":[{"name":"_postId","type":"uint256","internalType":"uint256"}],"outputs":[],"stateMutability":"payable"},{"type":"function","name":"downvote","inputs":[{"name":"_postId","type":"uint256","internalType":"uint256"}],"outputs":[],"stateMutability":"nonpayable"},{"type":"function","name":"editComment","inputs":[{"name":"_postId","type":"uint256","internalType":"uint256"},{"name":"_commentId","type":"uint256","internalType":"uint256"},{"name":"_content","type":"string","internalType":"string"}],"outputs":[],"stateMutability":"payable"},{"type":"function","name":"editPost","inputs":[{"name":"_postId","type":"uint256","internalType":"uint256"},{"name":"_content","type":"string","internalType":"string"},{"name":"_imgHash","type":"string","internalType":"string"}],"outputs":[],"stateMutability":"payable"},{"type":"function","name":"getBalance","inputs":[],"outputs":[{"name":"","type":"uint256","internalType":"uint256"}],"stateMutability":"view"},{"type":"function","name":"getCommentByPostIdAndCommentId","inputs":[{"name":"_postId","type":"uint256","internalType":"uint256"},{"name":"_commentId","type":"uint256","internalType":"uint256"}],"outputs":[{"name":"","type":"tuple","internalType":"struct SocialMedia.Comment","components":[{"name":"commentId","type":"uint256","internalType":"uint256"},{"name":"author","type":"address","internalType":"address"},{"name":"postId","type":"uint256","internalType":"uint256"},{"name":"content","type":"string","internalType":"string"},{"name":"timestamp","type":"uint256","internalType":"uint256"},{"name":"likesCount","type":"uint256","internalType":"uint256"}]}],"stateMutability":"view"},{"type":"function","name":"getContractOwner","inputs":[],"outputs":[{"name":"","type":"address","internalType":"address"}],"stateMutability":"view"},{"type":"function","name":"getPostById","inputs":[{"name":"_postId","type":"uint256","internalType":"uint256"}],"outputs":[{"name":"","type":"tuple","internalType":"struct SocialMedia.Post","components":[{"name":"postId","type":"uint256","internalType":"uint256"},{"name":"content","type":"string","internalType":"string"},{"name":"imgHash","type":"string","internalType":"string"},{"name":"timestamp","type":"uint256","internalType":"uint256"},{"name":"upvotes","type":"uint256","internalType":"uint256"},{"name":"downvotes","type":"uint256","internalType":"uint256"},{"name":"author","type":"address","internalType":"address"}]}],"stateMutability":"view"},{"type":"function","name":"getUser","inputs":[{"name":"_userAddress","type":"address","internalType":"address"}],"outputs":[{"name":"","type":"tuple","internalType":"struct SocialMedia.User","components":[{"name":"id","type":"uint256","internalType":"uint256"},{"name":"userAddress","type":"address","internalType":"address"},{"name":"name","type":"string","internalType":"string"},{"name":"bio","type":"string","internalType":"string"},{"name":"profileImageHash","type":"string","internalType":"string"}]}],"stateMutability":"view"},{"type":"function","name":"getUserById","inputs":[{"name":"_userId","type":"uint256","internalType":"uint256"}],"outputs":[{"name":"","type":"tuple","internalType":"struct SocialMedia.User","components":[{"name":"id","type":"uint256","internalType":"uint256"},{"name":"userAddress","type":"address","internalType":"address"},{"name":"name","type":"string","internalType":"string"},{"name":"bio","type":"string","internalType":"string"},{"name":"profileImageHash","type":"string","internalType":"string"}]}],"stateMutability":"view"},{"type":"function","name":"getUserComments","inputs":[{"name":"_userAddress","type":"address","internalType":"address"}],"outputs":[{"name":"","type":"tuple[]","internalType":"struct SocialMedia.Comment[]","components":[{"name":"commentId","type":"uint256","internalType":"uint256"},{"name":"author","type":"address","internalType":"address"},{"name":"postId","type":"uint256","internalType":"uint256"},{"name":"content","type":"string","internalType":"string"},{"name":"timestamp","type":"uint256","internalType":"uint256"},{"name":"likesCount","type":"uint256","internalType":"uint256"}]}],"stateMutability":"view"},{"type":"function","name":"getUserNameFromAddress","inputs":[{"name":"_userAddress","type":"address","internalType":"address"}],"outputs":[{"name":"nameOfUser","type":"string","internalType":"string"}],"stateMutability":"view"},{"type":"function","name":"getUserPosts","inputs":[{"name":"_userAddress","type":"address","internalType":"address"}],"outputs":[{"name":"","type":"tuple[]","internalType":"struct SocialMedia.Post[]","components":[{"name":"postId","type":"uint256","internalType":"uint256"},{"name":"content","type":"string","internalType":"string"},{"name":"imgHash","type":"string","internalType":"string"},{"name":"timestamp","type":"uint256","internalType":"uint256"},{"name":"upvotes","type":"uint256","internalType":"uint256"},{"name":"downvotes","type":"uint256","internalType":"uint256"},{"name":"author","type":"address","internalType":"address"}]}],"stateMutability":"view"},{"type":"function","name":"likeComment","inputs":[{"name":"_commentId","type":"uint256","internalType":"uint256"}],"outputs":[],"stateMutability":"nonpayable"},{"type":"function","name":"registerUser","inputs":[{"name":"_name","type":"string","internalType":"string"},{"name":"_bio","type":"string","internalType":"string"},{"name":"_profileImageHash","type":"string","internalType":"string"}],"outputs":[],"stateMutability":"nonpayable"},{"type":"function","name":"startDapp","inputs":[],"outputs":[],"stateMutability":"nonpayable"},{"type":"function","name":"stopDapp","inputs":[],"outputs":[],"stateMutability":"nonpayable"},{"type":"function","name":"transferContractBalance","inputs":[{"name":"_to","type":"address","internalType":"address payable"}],"outputs":[],"stateMutability":"nonpayable"},{"type":"function","name":"upvote","inputs":[{"name":"_postId","type":"uint256","internalType":"uint256"}],"outputs":[],"stateMutability":"nonpayable"},{"type":"event","name":"CommentCreated","inputs":[{"name":"commentId","type":"uint256","indexed":true,"internalType":"uint256"},{"name":"postAuthor","type":"string","indexed":false,"internalType":"string"},{"name":"commentAuthor","type":"string","indexed":false,"internalType":"string"},{"name":"postId","type":"uint256","indexed":false,"internalType":"uint256"}],"anonymous":false},{"type":"event","name":"Downvoted","inputs":[{"name":"postId","type":"uint256","indexed":false,"internalType":"uint256"},{"name":"posthAuthorName","type":"string","indexed":false,"internalType":"string"},{"name":"downvoterName","type":"string","indexed":false,"internalType":"string"}],"anonymous":false},{"type":"event","name":"PostCreated","inputs":[{"name":"postId","type":"uint256","indexed":false,"internalType":"uint256"},{"name":"authorName","type":"string","indexed":false,"internalType":"string"}],"anonymous":false},{"type":"event","name":"PostEdited","inputs":[{"name":"postId","type":"uint256","indexed":false,"internalType":"uint256"},{"name":"authorName","type":"string","indexed":false,"internalType":"string"}],"anonymous":false},{"type":"event","name":"PostLiked","inputs":[{"name":"postId","type":"uint256","indexed":true,"internalType":"uint256"},{"name":"postAuthor","type":"address","indexed":true,"internalType":"address"},{"name":"liker","type":"address","indexed":true,"internalType":"address"}],"anonymous":false},{"type":"event","name":"Upvoted","inputs":[{"name":"postId","type":"uint256","indexed":false,"internalType":"uint256"},{"name":"posthAuthorName","type":"string","indexed":false,"internalType":"string"},{"name":"upvoterName","type":"string","indexed":false,"internalType":"string"}],"anonymous":false},{"type":"event","name":"UserRegistered","inputs":[{"name":"id","type":"uint256","indexed":true,"internalType":"uint256"},{"name":"userAddress","type":"address","indexed":true,"internalType":"address"},{"name":"name","type":"string","indexed":true,"internalType":"string"}],"anonymous":false},{"type":"error","name":"SocialMedia__AlreadyVoted","inputs":[]},{"type":"error","name":"SocialMedia__NotCommentOwner","inputs":[]},{"type":"error","name":"SocialMedia__NotOwner","inputs":[]},{"type":"error","name":"SocialMedia__NotPostOwner","inputs":[]},{"type":"error","name":"SocialMedia__OwnerCannotVote","inputs":[]},{"type":"error","name":"SocialMedia__PaymentNotEnough","inputs":[]},{"type":"error","name":"SocialMedia__UserDoesNotExist","inputs":[]},{"type":"error","name":"SocialMedia__UsernameAlreadyTaken","inputs":[]}],"bytecode":{"object":"0x60806040523480156200001157600080fd5b506040516200286738038062002867833981016040819052620000349162000068565b60068054336001600160a01b031991821617909155600080549091166001600160a01b03929092169190911790556200009a565b6000602082840312156200007b57600080fd5b81516001600160a01b03811681146200009357600080fd5b9392505050565b6127bd80620000aa6000396000f3fe60806040526004361061014f5760003560e01c806364e95895116100b65780639a2194a91161006f5780639a2194a9146103a9578063a6f9dae1146103d6578063bf0ac63c146103f6578063d637dcfa14610409578063f31fdad414610429578063fa5611521461044957600080fd5b806364e95895146102ef5780636ed6da9e1461031c5780636f77926b1461034957806377c846af1461036957806395d2cc921461021857806396f11ac81461038957600080fd5b806333aa01e91161010857806333aa01e914610218578063392338f51461022d57806340a179851461024d5780634296db5b1461026d578063442890d51461029a5780636372af84146102c257600080fd5b8063012cc1e21461015b57806301ddf0701461017d578063094cd5ee1461019d57806312065fe0146101b05780632b3c6e22146101d857806331a4bcb51461020557600080fd5b3661015657005b600080fd5b34801561016757600080fd5b5061017b610176366004611f08565b61045c565b005b34801561018957600080fd5b5061017b610198366004611f08565b610481565b61017b6101ab366004611f08565b6105c0565b3480156101bc57600080fd5b506101c56106c7565b6040519081526020015b60405180910390f35b3480156101e457600080fd5b506101f86101f3366004611f39565b6106fa565b6040516101cf9190612001565b61017b610213366004612065565b610840565b34801561022457600080fd5b5061017b61096c565b34801561023957600080fd5b5061017b61024836600461212a565b610999565b34801561025957600080fd5b5061017b61026836600461218e565b610be1565b34801561027957600080fd5b5061028d610288366004612065565b610d61565b6040516101cf91906121cb565b3480156102a657600080fd5b506006546040516001600160a01b0390911681526020016101cf565b3480156102ce57600080fd5b506102e26102dd366004611f39565b610ece565b6040516101cf91906121de565b3480156102fb57600080fd5b5061030f61030a366004611f08565b6110cd565b6040516101cf9190612266565b34801561032857600080fd5b5061033c610337366004611f08565b6112a8565b6040516101cf9190612279565b34801561035557600080fd5b5061033c610364366004611f39565b6114d2565b34801561037557600080fd5b5061017b6103843660046122ed565b611523565b34801561039557600080fd5b5061017b6103a4366004611f39565b6115fb565b3480156103b557600080fd5b506103c96103c4366004611f39565b61165f565b6040516101cf919061232a565b3480156103e257600080fd5b5061017b6103f1366004611f39565b61182e565b61017b610404366004612381565b61187b565b34801561041557600080fd5b5061017b6104243660046123ee565b6119a4565b34801561043557600080fd5b5061017b610444366004611f08565b611c1b565b61017b61045736600461243d565b611d4a565b600081815260036020526040812060050180549161047983612499565b919050555050565b60008181526005602052604090205481906001600160a01b031633036104ba57604051631902ab3960e01b815260040160405180910390fd5b336000908152600860209081526040808320858452909152902054829060ff16156104f8576040516383dcc1c160e01b815260040160405180910390fd5b6011838154811061050b5761050b6124b2565b60009182526020822060046007909202010180549161052983612499565b90915550503360009081526008602090815260408083208684528252808320805460ff1916600117905560059091528120546001600160a01b03169061056e82610ece565b9050600061057b33610ece565b90507fa036d403d7739d8360e6171b2fbf68a0dfef33d6c6f432a236f6c3cdbb3cfee68683836040516105b0939291906124c8565b60405180910390a1505050505050565b60008181526005602052604090205481906001600160a01b031633146105f957604051639ef3fcef60e01b815260040160405180910390fd5b600054674563918244f400009061061a9034906001600160a01b0316611e17565b1015610638576040516217124560e91b815260040160405180910390fd5b604051806020016040528060008152506011838154811061065b5761065b6124b2565b906000526020600020906007020160010190816106789190612584565b5060006011838154811061068e5761068e6124b2565b906000526020600020906007020160060160006101000a8154816001600160a01b0302191690836001600160a01b031602179055505050565b6006546000906001600160a01b031633146106f55760405163aadd925760e01b815260040160405180910390fd5b504790565b6001600160a01b0381166000908152600d60209081526040808320805482518185028101850190935280835260609492939192909184015b828210156108355760008481526020908190206040805160c081018252600686029092018054835260018101546001600160a01b031693830193909352600283015490820152600382018054919291606084019190610790906124fd565b80601f01602080910402602001604051908101604052809291908181526020018280546107bc906124fd565b80156108095780601f106107de57610100808354040283529160200191610809565b820191906000526020600020905b8154815290600101906020018083116107ec57829003601f168201915b505050505081526020016004820154815260200160058201548152505081526020019060010190610732565b505050509050919050565b6000828152600c60209081526040808320848452909152902054829082906001600160a01b0316331461088657604051632585a1bd60e01b815260040160405180910390fd5b600054674563918244f40000906108a79034906001600160a01b0316611e17565b10156108c5576040516217124560e91b815260040160405180910390fd5b60408051602080820183526000808352878152600b909152919091208054859081106108f3576108f36124b2565b906000526020600020906006020160030190816109109190612584565b506000848152600b60205260408120805485908110610931576109316124b2565b906000526020600020906006020160010160006101000a8154816001600160a01b0302191690836001600160a01b0316021790555050505050565b6006546001600160a01b031633146109975760405163aadd925760e01b815260040160405180910390fd5b565b33600081815260016020819052604090912001546001600160a01b03166109d35760405163995cae5960e01b815260040160405180910390fd5b6011546040805160e0810182528281526020810186905290810184905242606082015260006080820181905260a082018190523360c08301819052610a1790610ece565b336000908152600960209081526040822080546001818101835591845292829020865160079094020192835590850151929350849290820190610a5a9082612584565b5060408201516002820190610a6f9082612584565b50606082015160038201556080820151600482015560a0820151600582015560c090910151600690910180546001600160a01b0319166001600160a01b039092169190911790556011805460018101825560009190915282517f31ecc21a745e3968a04e9570e4425bc18fa8019c68028196b546d1669c200c686007909202918201908155602084015184927f31ecc21a745e3968a04e9570e4425bc18fa8019c68028196b546d1669c200c690190610b289082612584565b5060408201516002820190610b3d9082612584565b5060608201516003820155608082015160048083019190915560a083015160058084019190915560c090930151600690920180546001600160a01b039093166001600160a01b03199384161790553360008181526020928352604080822089905588825294909252908390208054909216179055517f3d4335cbfac350aa27a3fa09060b4691656ecbe3033f4d953849c2f755f230d1906105b09085908490612644565b33600081815260016020819052604090912001546001600160a01b0316610c1b5760405163995cae5960e01b815260040160405180910390fd5b6000838152600b6020908152604080832054815160c08101835281815233938101939093529082018690526060820185905242608083015260a0820183905291610c64866112a8565b6040015190506000610c7533610ece565b6000888152600c6020908152604080832088845282528083208054336001600160a01b0319918216179091558b8452600b83528184208054600181810183559186529484902089516006909602019485559288015192840180549091166001600160a01b03909316929092179091558501516002820155606085015191925084916003820190610d059082612584565b506080820151816004015560a082015181600501555050837f915184b2a0bfb3b827755b4e9e718f684996cef7b75bad20f26cd2fd67396c7783838a604051610d509392919061265d565b60405180910390a250505050505050565b610da36040518060c001604052806000815260200160006001600160a01b03168152602001600081526020016060815260200160008152602001600081525090565b6000838152600b60205260409020805483908110610dc357610dc36124b2565b90600052602060002090600602016040518060c0016040529081600082015481526020016001820160009054906101000a90046001600160a01b03166001600160a01b03166001600160a01b0316815260200160028201548152602001600382018054610e2f906124fd565b80601f0160208091040260200160405190810160405280929190818152602001828054610e5b906124fd565b8015610ea85780601f10610e7d57610100808354040283529160200191610ea8565b820191906000526020600020905b815481529060010190602001808311610e8b57829003601f168201915b505050505081526020016004820154815260200160058201548152505090505b92915050565b6001600160a01b038082166000908152600160208181526040808420815160a0810183528154815293810154909516918301919091526002840180546060959284019190610f1b906124fd565b80601f0160208091040260200160405190810160405280929190818152602001828054610f47906124fd565b8015610f945780601f10610f6957610100808354040283529160200191610f94565b820191906000526020600020905b815481529060010190602001808311610f7757829003601f168201915b50505050508152602001600382018054610fad906124fd565b80601f0160208091040260200160405190810160405280929190818152602001828054610fd9906124fd565b80156110265780601f10610ffb57610100808354040283529160200191611026565b820191906000526020600020905b81548152906001019060200180831161100957829003601f168201915b5050505050815260200160048201805461103f906124fd565b80601f016020809104026020016040519081016040528092919081815260200182805461106b906124fd565b80156110b85780601f1061108d576101008083540402835291602001916110b8565b820191906000526020600020905b81548152906001019060200180831161109b57829003601f168201915b50505091909252505050604001519392505050565b6111166040518060e0016040528060008152602001606081526020016060815260200160008152602001600081526020016000815260200160006001600160a01b031681525090565b60118281548110611129576111296124b2565b90600052602060002090600702016040518060e00160405290816000820154815260200160018201805461115c906124fd565b80601f0160208091040260200160405190810160405280929190818152602001828054611188906124fd565b80156111d55780601f106111aa576101008083540402835291602001916111d5565b820191906000526020600020905b8154815290600101906020018083116111b857829003601f168201915b505050505081526020016002820180546111ee906124fd565b80601f016020809104026020016040519081016040528092919081815260200182805461121a906124fd565b80156112675780601f1061123c57610100808354040283529160200191611267565b820191906000526020600020905b81548152906001019060200180831161124a57829003601f168201915b50505091835250506003820154602082015260048201546040820152600582015460608201526006909101546001600160a01b031660809091015292915050565b6112b0611ed0565b601082815481106112c3576112c36124b2565b90600052602060002090600502016040518060a0016040529081600082015481526020016001820160009054906101000a90046001600160a01b03166001600160a01b03166001600160a01b03168152602001600282018054611325906124fd565b80601f0160208091040260200160405190810160405280929190818152602001828054611351906124fd565b801561139e5780601f106113735761010080835404028352916020019161139e565b820191906000526020600020905b81548152906001019060200180831161138157829003601f168201915b505050505081526020016003820180546113b7906124fd565b80601f01602080910402602001604051908101604052809291908181526020018280546113e3906124fd565b80156114305780601f1061140557610100808354040283529160200191611430565b820191906000526020600020905b81548152906001019060200180831161141357829003601f168201915b50505050508152602001600482018054611449906124fd565b80601f0160208091040260200160405190810160405280929190818152602001828054611475906124fd565b80156114c25780601f10611497576101008083540402835291602001916114c2565b820191906000526020600020905b8154815290600101906020018083116114a557829003601f168201915b5050505050815250509050919050565b6114da611ed0565b6001600160a01b03808316600090815260016020818152604092839020835160a081018552815481529281015490941690820152600283018054919392840191611325906124fd565b33600081815260016020819052604090912001546001600160a01b031661155d5760405163995cae5960e01b815260040160405180910390fd5b8160006001600160a01b03166007826040516115799190612693565b908152604051908190036020019020546001600160a01b0316146115b05760405163cd9c3c2960e01b815260040160405180910390fd5b336000908152600f602052604090205460108054859190839081106115d7576115d76124b2565b906000526020600020906005020160020190816115f49190612584565b5050505050565b6006546001600160a01b031633146116265760405163aadd925760e01b815260040160405180910390fd5b6040516001600160a01b038216904780156108fc02916000818181858888f1935050505015801561165b573d6000803e3d6000fd5b5050565b6001600160a01b0381166000908152600960209081526040808320805482518185028101850190935280835260609492939192909184015b8282101561083557838290600052602060002090600702016040518060e0016040529081600082015481526020016001820180546116d4906124fd565b80601f0160208091040260200160405190810160405280929190818152602001828054611700906124fd565b801561174d5780601f106117225761010080835404028352916020019161174d565b820191906000526020600020905b81548152906001019060200180831161173057829003601f168201915b50505050508152602001600282018054611766906124fd565b80601f0160208091040260200160405190810160405280929190818152602001828054611792906124fd565b80156117df5780601f106117b4576101008083540402835291602001916117df565b820191906000526020600020905b8154815290600101906020018083116117c257829003601f168201915b5050509183525050600382015460208083019190915260048301546040830152600583015460608301526006909201546001600160a01b03166080909101529082526001929092019101611697565b6006546001600160a01b031633146118595760405163aadd925760e01b815260040160405180910390fd5b600680546001600160a01b0319166001600160a01b0392909216919091179055565b60008381526005602052604090205483906001600160a01b031633146118b457604051639ef3fcef60e01b815260040160405180910390fd5b600054674563918244f40000906118d59034906001600160a01b0316611e17565b10156118f3576040516217124560e91b815260040160405180910390fd5b8260118581548110611907576119076124b2565b906000526020600020906007020160010190816119249190612584565b508160118581548110611939576119396124b2565b906000526020600020906007020160020190816119569190612584565b50600061196233610ece565b90507f7009e6824c3ecb1321da2ebabc18901b48d900a97f978c5a93dd3ba8cfe590358582604051611995929190612644565b60405180910390a15050505050565b8260006001600160a01b03166007826040516119c09190612693565b908152604051908190036020019020546001600160a01b0316146119f75760405163cd9c3c2960e01b815260040160405180910390fd5b600e805460009182611a0883612499565b919050559050611a16611ed0565b81815233602080830182815260408085018a8152606086018a9052608086018990526000948552600193849052932084518155905191810180546001600160a01b0319166001600160a01b039093169290921790915590518291906002820190611a809082612584565b5060608201516003820190611a959082612584565b5060808201516004820190611aaa9082612584565b5050336000818152600f60205260409081902085905551909150600790611ad2908990612693565b908152604080516020928190038301902080546001600160a01b03199081166001600160a01b03958616179091556010805460018101825560009190915285517f1b6847dc741a1b0cd08d278845f9d819d87b734759afb55fe2de5cb82a9ae6726005909202918201908155938601517f1b6847dc741a1b0cd08d278845f9d819d87b734759afb55fe2de5cb82a9ae67382018054909316951694909417905583015183927f1b6847dc741a1b0cd08d278845f9d819d87b734759afb55fe2de5cb82a9ae6740190611ba49082612584565b5060608201516003820190611bb99082612584565b5060808201516004820190611bce9082612584565b50505085604051611bdf9190612693565b60405190819003812090339084907f8d76d60617424d83544323e2322cb8d86537451c9b3d991886ce6f4721e3865e90600090a4505050505050565b60008181526005602052604090205481906001600160a01b03163303611c5457604051631902ab3960e01b815260040160405180910390fd5b336000908152600860209081526040808320858452909152902054829060ff1615611c92576040516383dcc1c160e01b815260040160405180910390fd5b60118381548110611ca557611ca56124b2565b600091825260208220600560079092020101805491611cc383612499565b90915550503360009081526008602090815260408083208684528252808320805460ff1916600117905560059091528120546001600160a01b031690611d0882610ece565b90506000611d1533610ece565b90507fd7ad3e52dbe8b445d900fd8aa659c95d5b75bb6733c12e7f22d048963bd39ed58683836040516105b0939291906124c8565b6000838152600c60209081526040808320858452909152902054839083906001600160a01b03163314611d9057604051632585a1bd60e01b815260040160405180910390fd5b600054674563918244f4000090611db19034906001600160a01b0316611e17565b1015611dcf576040516217124560e91b815260040160405180910390fd5b6000858152600b60205260409020805484919086908110611df257611df26124b2565b90600052602060002090600602016003019081611e0f9190612584565b505050505050565b600080611e2383611e4d565b90506000670de0b6b3a7640000611e3a83876126af565b611e4491906126c6565b95945050505050565b600080826001600160a01b031663feaf968c6040518163ffffffff1660e01b815260040160a060405180830381865afa158015611e8e573d6000803e3d6000fd5b505050506040513d601f19601f82011682018060405250810190611eb29190612707565b505050915050806402540be400611ec99190612757565b9392505050565b6040518060a001604052806000815260200160006001600160a01b031681526020016060815260200160608152602001606081525090565b600060208284031215611f1a57600080fd5b5035919050565b6001600160a01b0381168114611f3657600080fd5b50565b600060208284031215611f4b57600080fd5b8135611ec981611f21565b60005b83811015611f71578181015183820152602001611f59565b50506000910152565b60008151808452611f92816020860160208601611f56565b601f01601f19169290920160200192915050565b8051825260018060a01b036020820151166020830152604081015160408301526000606082015160c06060850152611fe160c0850182611f7a565b90506080830151608085015260a083015160a08501528091505092915050565b600060208083016020845280855180835260408601915060408160051b87010192506020870160005b8281101561205857603f19888603018452612046858351611fa6565b9450928501929085019060010161202a565b5092979650505050505050565b6000806040838503121561207857600080fd5b50508035926020909101359150565b634e487b7160e01b600052604160045260246000fd5b600082601f8301126120ae57600080fd5b813567ffffffffffffffff808211156120c9576120c9612087565b604051601f8301601f19908116603f011681019082821181831017156120f1576120f1612087565b8160405283815286602085880101111561210a57600080fd5b836020870160208301376000602085830101528094505050505092915050565b6000806040838503121561213d57600080fd5b823567ffffffffffffffff8082111561215557600080fd5b6121618683870161209d565b9350602085013591508082111561217757600080fd5b506121848582860161209d565b9150509250929050565b600080604083850312156121a157600080fd5b82359150602083013567ffffffffffffffff8111156121bf57600080fd5b6121848582860161209d565b602081526000611ec96020830184611fa6565b602081526000611ec96020830184611f7a565b805182526000602082015160e0602085015261221060e0850182611f7a565b9050604083015184820360408601526122298282611f7a565b606085810151908701526080808601519087015260a0808601519087015260c0948501516001600160a01b03169490950193909352509192915050565b602081526000611ec960208301846121f1565b602081528151602082015260018060a01b0360208301511660408201526000604083015160a060608401526122b160c0840182611f7a565b90506060840151601f19808584030160808601526122cf8383611f7a565b925060808601519150808584030160a086015250611e448282611f7a565b6000602082840312156122ff57600080fd5b813567ffffffffffffffff81111561231657600080fd5b6123228482850161209d565b949350505050565b600060208083016020845280855180835260408601915060408160051b87010192506020870160005b8281101561205857603f1988860301845261236f8583516121f1565b94509285019290850190600101612353565b60008060006060848603121561239657600080fd5b83359250602084013567ffffffffffffffff808211156123b557600080fd5b6123c18783880161209d565b935060408601359150808211156123d757600080fd5b506123e48682870161209d565b9150509250925092565b60008060006060848603121561240357600080fd5b833567ffffffffffffffff8082111561241b57600080fd5b6124278783880161209d565b945060208601359150808211156123b557600080fd5b60008060006060848603121561245257600080fd5b8335925060208401359150604084013567ffffffffffffffff81111561247757600080fd5b6123e48682870161209d565b634e487b7160e01b600052601160045260246000fd5b6000600182016124ab576124ab612483565b5060010190565b634e487b7160e01b600052603260045260246000fd5b8381526060602082015260006124e16060830185611f7a565b82810360408401526124f38185611f7a565b9695505050505050565b600181811c9082168061251157607f821691505b60208210810361253157634e487b7160e01b600052602260045260246000fd5b50919050565b601f82111561257f576000816000526020600020601f850160051c810160208610156125605750805b601f850160051c820191505b81811015611e0f5782815560010161256c565b505050565b815167ffffffffffffffff81111561259e5761259e612087565b6125b2816125ac84546124fd565b84612537565b602080601f8311600181146125e757600084156125cf5750858301515b600019600386901b1c1916600185901b178555611e0f565b600085815260208120601f198616915b82811015612616578886015182559484019460019091019084016125f7565b50858210156126345787850151600019600388901b60f8161c191681555b5050505050600190811b01905550565b8281526040602082015260006123226040830184611f7a565b6060815260006126706060830186611f7a565b82810360208401526126828186611f7a565b915050826040830152949350505050565b600082516126a5818460208701611f56565b9190910192915050565b8082028115828204841417610ec857610ec8612483565b6000826126e357634e487b7160e01b600052601260045260246000fd5b500490565b805169ffffffffffffffffffff8116811461270257600080fd5b919050565b600080600080600060a0868803121561271f57600080fd5b612728866126e8565b945060208601519350604086015192506060860151915061274b608087016126e8565b90509295509295909350565b80820260008212600160ff1b8414161561277357612773612483565b8181058314821517610ec857610ec861248356fea2646970667358221220f8059a1ca137d607a477ae168ba1aa5f0a474f70c6f2a6cfde939a3504dd0a6764736f6c63430008180033","linkReferences":{}},"methodIdentifiers":{"changeOwner(address)":"a6f9dae1","changeUsername(string)":"77c846af","createComment(uint256,string)":"40a17985","createPost(string,string)":"392338f5","deleteComment(uint256,uint256)":"31a4bcb5","deletePost(uint256)":"094cd5ee","downvote(uint256)":"f31fdad4","editComment(uint256,uint256,string)":"fa561152","editPost(uint256,string,string)":"bf0ac63c","getBalance()":"12065fe0","getCommentByPostIdAndCommentId(uint256,uint256)":"4296db5b","getContractOwner()":"442890d5","getPostById(uint256)":"64e95895","getUser(address)":"6f77926b","getUserById(uint256)":"6ed6da9e","getUserComments(address)":"2b3c6e22","getUserNameFromAddress(address)":"6372af84","getUserPosts(address)":"9a2194a9","likeComment(uint256)":"012cc1e2","registerUser(string,string,string)":"d637dcfa","startDapp()":"95d2cc92","stopDapp()":"33aa01e9","transferContractBalance(address)":"96f11ac8","upvote(uint256)":"01ddf070"},"id":28}