{"abi":[{"type":"constructor","inputs":[],"stateMutability":"nonpayable"},{"type":"receive","stateMutability":"payable"},{"type":"function","name":"changeOwner","inputs":[{"name":"_newOwner","type":"address","internalType":"address"}],"outputs":[],"stateMutability":"nonpayable"},{"type":"function","name":"changeUsername","inputs":[{"name":"_newName","type":"string","internalType":"string"}],"outputs":[],"stateMutability":"nonpayable"},{"type":"function","name":"createComment","inputs":[{"name":"_postAuthor","type":"address","internalType":"address"},{"name":"_postId","type":"uint256","internalType":"uint256"},{"name":"_content","type":"string","internalType":"string"}],"outputs":[],"stateMutability":"nonpayable"},{"type":"function","name":"createPost","inputs":[{"name":"_content","type":"string","internalType":"string"},{"name":"_imgHash","type":"string","internalType":"string"}],"outputs":[],"stateMutability":"nonpayable"},{"type":"function","name":"deleteComment","inputs":[{"name":"_commentId","type":"uint256","internalType":"uint256"}],"outputs":[],"stateMutability":"nonpayable"},{"type":"function","name":"deletePost","inputs":[{"name":"_postId","type":"uint256","internalType":"uint256"}],"outputs":[],"stateMutability":"nonpayable"},{"type":"function","name":"downvote","inputs":[{"name":"_postId","type":"uint256","internalType":"uint256"}],"outputs":[],"stateMutability":"nonpayable"},{"type":"function","name":"editComment","inputs":[{"name":"_commentId","type":"uint256","internalType":"uint256"},{"name":"_content","type":"string","internalType":"string"}],"outputs":[],"stateMutability":"nonpayable"},{"type":"function","name":"editPost","inputs":[{"name":"_postId","type":"uint256","internalType":"uint256"},{"name":"_content","type":"string","internalType":"string"},{"name":"_imgHash","type":"string","internalType":"string"}],"outputs":[],"stateMutability":"nonpayable"},{"type":"function","name":"getBalance","inputs":[],"outputs":[{"name":"","type":"uint256","internalType":"uint256"}],"stateMutability":"view"},{"type":"function","name":"getPostById","inputs":[{"name":"_postId","type":"uint256","internalType":"uint256"}],"outputs":[{"name":"","type":"tuple","internalType":"struct SocialMedia.Post","components":[{"name":"postId","type":"uint256","internalType":"uint256"},{"name":"content","type":"string","internalType":"string"},{"name":"imgHash","type":"string","internalType":"string"},{"name":"timestamp","type":"uint256","internalType":"uint256"},{"name":"upvotes","type":"uint256","internalType":"uint256"},{"name":"downvotes","type":"uint256","internalType":"uint256"},{"name":"author","type":"address","internalType":"address"}]}],"stateMutability":"view"},{"type":"function","name":"getUser","inputs":[{"name":"_userAddress","type":"address","internalType":"address"}],"outputs":[{"name":"","type":"tuple","internalType":"struct SocialMedia.User","components":[{"name":"id","type":"uint256","internalType":"uint256"},{"name":"userAddress","type":"address","internalType":"address"},{"name":"name","type":"string","internalType":"string"},{"name":"bio","type":"string","internalType":"string"},{"name":"profileImageHash","type":"string","internalType":"string"}]}],"stateMutability":"view"},{"type":"function","name":"getUserById","inputs":[{"name":"_userId","type":"uint256","internalType":"uint256"}],"outputs":[{"name":"","type":"tuple","internalType":"struct SocialMedia.User","components":[{"name":"id","type":"uint256","internalType":"uint256"},{"name":"userAddress","type":"address","internalType":"address"},{"name":"name","type":"string","internalType":"string"},{"name":"bio","type":"string","internalType":"string"},{"name":"profileImageHash","type":"string","internalType":"string"}]}],"stateMutability":"view"},{"type":"function","name":"getUserComments","inputs":[{"name":"_userAddress","type":"address","internalType":"address"}],"outputs":[{"name":"","type":"tuple[]","internalType":"struct SocialMedia.Comment[]","components":[{"name":"commentId","type":"uint256","internalType":"uint256"},{"name":"author","type":"address","internalType":"address"},{"name":"postId","type":"uint256","internalType":"uint256"},{"name":"content","type":"string","internalType":"string"},{"name":"timestamp","type":"uint256","internalType":"uint256"},{"name":"likesCount","type":"uint256","internalType":"uint256"}]}],"stateMutability":"view"},{"type":"function","name":"getUserNameFromAddress","inputs":[{"name":"_userAddress","type":"address","internalType":"address"}],"outputs":[{"name":"nameOfUser","type":"string","internalType":"string"}],"stateMutability":"view"},{"type":"function","name":"getUserPosts","inputs":[{"name":"_userAddress","type":"address","internalType":"address"}],"outputs":[{"name":"","type":"tuple[]","internalType":"struct SocialMedia.Post[]","components":[{"name":"postId","type":"uint256","internalType":"uint256"},{"name":"content","type":"string","internalType":"string"},{"name":"imgHash","type":"string","internalType":"string"},{"name":"timestamp","type":"uint256","internalType":"uint256"},{"name":"upvotes","type":"uint256","internalType":"uint256"},{"name":"downvotes","type":"uint256","internalType":"uint256"},{"name":"author","type":"address","internalType":"address"}]}],"stateMutability":"view"},{"type":"function","name":"likeComment","inputs":[{"name":"_commentId","type":"uint256","internalType":"uint256"}],"outputs":[],"stateMutability":"nonpayable"},{"type":"function","name":"registerUser","inputs":[{"name":"_name","type":"string","internalType":"string"},{"name":"_bio","type":"string","internalType":"string"},{"name":"_profileImageHash","type":"string","internalType":"string"}],"outputs":[],"stateMutability":"nonpayable"},{"type":"function","name":"startDapp","inputs":[],"outputs":[],"stateMutability":"nonpayable"},{"type":"function","name":"stopDapp","inputs":[],"outputs":[],"stateMutability":"nonpayable"},{"type":"function","name":"transferContractBalance","inputs":[{"name":"_to","type":"address","internalType":"address payable"}],"outputs":[],"stateMutability":"nonpayable"},{"type":"function","name":"upvote","inputs":[{"name":"_postId","type":"uint256","internalType":"uint256"}],"outputs":[],"stateMutability":"nonpayable"},{"type":"event","name":"CommentCreated","inputs":[{"name":"commentId","type":"uint256","indexed":true,"internalType":"uint256"},{"name":"postAuthor","type":"address","indexed":true,"internalType":"address"},{"name":"commentAuthor","type":"address","indexed":true,"internalType":"address"},{"name":"postId","type":"uint256","indexed":false,"internalType":"uint256"}],"anonymous":false},{"type":"event","name":"Downvoted","inputs":[{"name":"postId","type":"uint256","indexed":false,"internalType":"uint256"},{"name":"voter","type":"address","indexed":false,"internalType":"address"}],"anonymous":false},{"type":"event","name":"PostCreated","inputs":[{"name":"postId","type":"uint256","indexed":false,"internalType":"uint256"},{"name":"authorName","type":"string","indexed":false,"internalType":"string"}],"anonymous":false},{"type":"event","name":"PostEdited","inputs":[{"name":"postId","type":"uint256","indexed":false,"internalType":"uint256"},{"name":"author","type":"address","indexed":false,"internalType":"address"}],"anonymous":false},{"type":"event","name":"PostLiked","inputs":[{"name":"postId","type":"uint256","indexed":true,"internalType":"uint256"},{"name":"postAuthor","type":"address","indexed":true,"internalType":"address"},{"name":"liker","type":"address","indexed":true,"internalType":"address"}],"anonymous":false},{"type":"event","name":"Upvoted","inputs":[{"name":"postId","type":"uint256","indexed":false,"internalType":"uint256"},{"name":"voter","type":"address","indexed":false,"internalType":"address"}],"anonymous":false},{"type":"event","name":"UserRegistered","inputs":[{"name":"id","type":"uint256","indexed":true,"internalType":"uint256"},{"name":"userAddress","type":"address","indexed":true,"internalType":"address"},{"name":"name","type":"string","indexed":true,"internalType":"string"}],"anonymous":false},{"type":"error","name":"SocialMedia__AlreadyVoted","inputs":[]},{"type":"error","name":"SocialMedia__NotCommentOwner","inputs":[]},{"type":"error","name":"SocialMedia__NotOwner","inputs":[]},{"type":"error","name":"SocialMedia__NotPostOwner","inputs":[]},{"type":"error","name":"SocialMedia__OwnerCannotVote","inputs":[]},{"type":"error","name":"SocialMedia__UserDoesNotExist","inputs":[]},{"type":"error","name":"SocialMedia__UsernameAlreadyTaken","inputs":[]}],"bytecode":{"object":"0x608060405234801561001057600080fd5b50600480546001600160a01b031916331790556121cf806100326000396000f3fe6080604052600436106101395760003560e01c80636f77926b116100ab5780639a2194a91161006f5780639a2194a914610358578063a6f9dae114610385578063ad816029146103a5578063bf0ac63c146103c5578063d637dcfa146103e5578063f31fdad41461040557600080fd5b80636f77926b146102d857806377c846af146102f85780637d0b10261461031857806395d2cc921461021c57806396f11ac81461033857600080fd5b80632b69e24f116100fd5780632b69e24f146101fc57806333aa01e91461021c578063392338f5146102315780636372af841461025157806364e958951461027e5780636ed6da9e146102ab57600080fd5b8063012cc1e21461014557806301ddf07014610167578063094cd5ee1461018757806312065fe0146101a75780632b3c6e22146101cf57600080fd5b3661014057005b600080fd5b34801561015157600080fd5b50610165610160366004611a84565b610425565b005b34801561017357600080fd5b50610165610182366004611a84565b61044a565b34801561019357600080fd5b506101656101a2366004611a84565b61058b565b3480156101b357600080fd5b506101bc610621565b6040519081526020015b60405180910390f35b3480156101db57600080fd5b506101ef6101ea366004611ab2565b610654565b6040516101c69190611b26565b34801561020857600080fd5b50610165610217366004611c77565b61079a565b34801561022857600080fd5b506101656108a2565b34801561023d57600080fd5b5061016561024c366004611cd0565b6108cf565b34801561025d57600080fd5b5061027161026c366004611ab2565b610b12565b6040516101c69190611d34565b34801561028a57600080fd5b5061029e610299366004611a84565b610d11565b6040516101c69190611dbc565b3480156102b757600080fd5b506102cb6102c6366004611a84565b610eec565b6040516101c69190611dcf565b3480156102e457600080fd5b506102cb6102f3366004611ab2565b611116565b34801561030457600080fd5b50610165610313366004611e4c565b611168565b34801561032457600080fd5b50610165610333366004611a84565b61123f565b34801561034457600080fd5b50610165610353366004611ab2565b6112c8565b34801561036457600080fd5b50610378610373366004611ab2565b61132c565b6040516101c69190611e89565b34801561039157600080fd5b506101656103a0366004611ab2565b6114fb565b3480156103b157600080fd5b506101656103c0366004611eed565b611548565b3480156103d157600080fd5b506101656103e0366004611f2a565b6115a0565b3480156103f157600080fd5b50610165610400366004611f8d565b611649565b34801561041157600080fd5b50610165610420366004611a84565b6118be565b600081815260026020526040812060050180549161044283611fdc565b919050555050565b60008181526001602052604090206006015481906001600160a01b0316330361048657604051631902ab3960e01b815260040160405180910390fd5b336000908152600760209081526040808320858452909152902054829060ff16156104c4576040516383dcc1c160e01b815260040160405180910390fd5b60008381526001602052604081206004018054916104e183611fdc565b90915550503360008181526007602090815260408083208784528252808320805460ff191660019081179091556006805491820181559093527ff652222313e28459528d920b65115c16c04f3efc82aaedc97be59f3f377c0d3f90920180546001600160a01b031916841790558151868152908101929092527f0e092509bde1dd304f477e3ec921b6e4e5092738f70dcd204952ffc1ffdaafdf91015b60405180910390a1505050565b60008181526001602052604090206006015481906001600160a01b031633146105c757604051639ef3fcef60e01b815260040160405180910390fd5b6000828152600160208190526040822082815591906105e8908301826119f6565b6105f66002830160006119f6565b5060006003820181905560048201819055600582015560060180546001600160a01b03191690555050565b6004546000906001600160a01b0316331461064f5760405163aadd925760e01b815260040160405180910390fd5b504790565b6001600160a01b0381166000908152600a60209081526040808320805482518185028101850190935280835260609492939192909184015b8282101561078f5760008481526020908190206040805160c081018252600686029092018054835260018101546001600160a01b0316938301939093526002830154908201526003820180549192916060840191906106ea90612003565b80601f016020809104026020016040519081016040528092919081815260200182805461071690612003565b80156107635780601f1061073857610100808354040283529160200191610763565b820191906000526020600020905b81548152906001019060200180831161074657829003601f168201915b50505050508152602001600482015481526020016005820154815250508152602001906001019061068c565b505050509050919050565b6040805160c081018252600180825233602080840191825283850187815260608501878152426080870152600060a087018190526001600160a01b038b81168252600985528882208b83528552978120805480880182559082529390208651600690940201928355925182850180546001600160a01b03191691909716179095559351600285015551909282916003820190610836908261208e565b506080820151816004015560a082015181600501555050336001600160a01b0316856001600160a01b0316837f3c9238b160bb5c53a432171c8d2eb7ed9ad9fdb80ecb6ebb4fd6b52787077db98760405161089391815260200190565b60405180910390a45050505050565b6004546001600160a01b031633146108cd5760405163aadd925760e01b815260040160405180910390fd5b565b336000818152602081905260409020600101546001600160a01b03166109085760405163995cae5960e01b815260040160405180910390fd5b600e546040805160e0810182528281526020810186905290810184905242606082015260006080820181905260a082018190523360c0830181905261094c90610b12565b33600090815260086020908152604082208054600181810183559184529282902086516007909402019283559085015192935084929082019061098f908261208e565b50604082015160028201906109a4908261208e565b50606082015160038201556080820151600482015560a0820151600582015560c090910151600690910180546001600160a01b0319166001600160a01b03909216919091179055600e805460018101825560009190915282517fbb7b4a454dc3493923482f07822329ed19e8244eff582cc204f8554c3620c3fd6007909202918201908155602084015184927fbb7b4a454dc3493923482f07822329ed19e8244eff582cc204f8554c3620c3fe0190610a5d908261208e565b5060408201516002820190610a72908261208e565b5060608201516003828101919091556080830151600483015560a0830151600583015560c090920151600690910180546001600160a01b0319166001600160a01b03909216919091179055336000908152602091909152604090819020849055517f3d4335cbfac350aa27a3fa09060b4691656ecbe3033f4d953849c2f755f230d190610b02908590849061214e565b60405180910390a1505050505050565b6001600160a01b03808216600090815260208181526040808320815160a08101835281548152600182015490951692850192909252600282018054606095939284019190610b5f90612003565b80601f0160208091040260200160405190810160405280929190818152602001828054610b8b90612003565b8015610bd85780601f10610bad57610100808354040283529160200191610bd8565b820191906000526020600020905b815481529060010190602001808311610bbb57829003601f168201915b50505050508152602001600382018054610bf190612003565b80601f0160208091040260200160405190810160405280929190818152602001828054610c1d90612003565b8015610c6a5780601f10610c3f57610100808354040283529160200191610c6a565b820191906000526020600020905b815481529060010190602001808311610c4d57829003601f168201915b50505050508152602001600482018054610c8390612003565b80601f0160208091040260200160405190810160405280929190818152602001828054610caf90612003565b8015610cfc5780601f10610cd157610100808354040283529160200191610cfc565b820191906000526020600020905b815481529060010190602001808311610cdf57829003601f168201915b50505091909252505050604001519392505050565b610d5a6040518060e0016040528060008152602001606081526020016060815260200160008152602001600081526020016000815260200160006001600160a01b031681525090565b600e8281548110610d6d57610d6d612167565b90600052602060002090600702016040518060e001604052908160008201548152602001600182018054610da090612003565b80601f0160208091040260200160405190810160405280929190818152602001828054610dcc90612003565b8015610e195780601f10610dee57610100808354040283529160200191610e19565b820191906000526020600020905b815481529060010190602001808311610dfc57829003601f168201915b50505050508152602001600282018054610e3290612003565b80601f0160208091040260200160405190810160405280929190818152602001828054610e5e90612003565b8015610eab5780601f10610e8057610100808354040283529160200191610eab565b820191906000526020600020905b815481529060010190602001808311610e8e57829003601f168201915b50505091835250506003820154602082015260048201546040820152600582015460608201526006909101546001600160a01b031660809091015292915050565b610ef4611a33565b600d8281548110610f0757610f07612167565b90600052602060002090600502016040518060a0016040529081600082015481526020016001820160009054906101000a90046001600160a01b03166001600160a01b03166001600160a01b03168152602001600282018054610f6990612003565b80601f0160208091040260200160405190810160405280929190818152602001828054610f9590612003565b8015610fe25780601f10610fb757610100808354040283529160200191610fe2565b820191906000526020600020905b815481529060010190602001808311610fc557829003601f168201915b50505050508152602001600382018054610ffb90612003565b80601f016020809104026020016040519081016040528092919081815260200182805461102790612003565b80156110745780601f1061104957610100808354040283529160200191611074565b820191906000526020600020905b81548152906001019060200180831161105757829003601f168201915b5050505050815260200160048201805461108d90612003565b80601f01602080910402602001604051908101604052809291908181526020018280546110b990612003565b80156111065780601f106110db57610100808354040283529160200191611106565b820191906000526020600020905b8154815290600101906020018083116110e957829003601f168201915b5050505050815250509050919050565b61111e611a33565b6001600160a01b0380831660009081526020818152604091829020825160a081018452815481526001820154909416918401919091526002810180549192840191610f6990612003565b336000818152602081905260409020600101546001600160a01b03166111a15760405163995cae5960e01b815260040160405180910390fd5b8160006001600160a01b03166005826040516111bd919061217d565b908152604051908190036020019020546001600160a01b0316146111f45760405163cd9c3c2960e01b815260040160405180910390fd5b336000908152600c6020526040902054600d80548591908390811061121b5761121b612167565b90600052602060002090600502016002019081611238919061208e565b5050505050565b60008181526002602052604090206001015481906001600160a01b0316331461127b57604051632585a1bd60e01b815260040160405180910390fd5b600082815260026020819052604082208281556001810180546001600160a01b0319169055908101829055906112b460038301826119f6565b506000600482018190556005909101555050565b6004546001600160a01b031633146112f35760405163aadd925760e01b815260040160405180910390fd5b6040516001600160a01b038216904780156108fc02916000818181858888f19350505050158015611328573d6000803e3d6000fd5b5050565b6001600160a01b0381166000908152600860209081526040808320805482518185028101850190935280835260609492939192909184015b8282101561078f57838290600052602060002090600702016040518060e0016040529081600082015481526020016001820180546113a190612003565b80601f01602080910402602001604051908101604052809291908181526020018280546113cd90612003565b801561141a5780601f106113ef5761010080835404028352916020019161141a565b820191906000526020600020905b8154815290600101906020018083116113fd57829003601f168201915b5050505050815260200160028201805461143390612003565b80601f016020809104026020016040519081016040528092919081815260200182805461145f90612003565b80156114ac5780601f10611481576101008083540402835291602001916114ac565b820191906000526020600020905b81548152906001019060200180831161148f57829003601f168201915b5050509183525050600382015460208083019190915260048301546040830152600583015460608301526006909201546001600160a01b03166080909101529082526001929092019101611364565b6004546001600160a01b031633146115265760405163aadd925760e01b815260040160405180910390fd5b600480546001600160a01b0319166001600160a01b0392909216919091179055565b60008281526002602052604090206001015482906001600160a01b0316331461158457604051632585a1bd60e01b815260040160405180910390fd5b600083815260026020526040902060038101611238848261208e565b60008381526001602052604090206006015483906001600160a01b031633146115dc57604051639ef3fcef60e01b815260040160405180910390fd5b60008481526001602081905260409091209081016115fa858261208e565b5060028101611609848261208e565b50604080518681523360208201527fd5679d37e479e17c0313cd3c71d487b7d68788e2ae2814616410ea1a1334e2b1910160405180910390a15050505050565b8260006001600160a01b0316600582604051611665919061217d565b908152604051908190036020019020546001600160a01b03161461169c5760405163cd9c3c2960e01b815260040160405180910390fd5b600b8054600091826116ad83611fdc565b9190505590506116bb611a33565b81815233602080830182815260408085018a8152606086018a9052608086018990526000948552928490529092208351815591516001830180546001600160a01b0319166001600160a01b03909216919091179055518291906002820190611723908261208e565b5060608201516003820190611738908261208e565b506080820151600482019061174d908261208e565b5050336000818152600c6020526040908190208590555190915060059061177590899061217d565b908152604080516020928190038301902080546001600160a01b03199081166001600160a01b0395861617909155600d805460018101825560009190915285517fd7b6990105719101dabeb77144f2a3385c8033acd3af97e9423a695e81ad1eb56005909202918201908155938601517fd7b6990105719101dabeb77144f2a3385c8033acd3af97e9423a695e81ad1eb682018054909316951694909417905583015183927fd7b6990105719101dabeb77144f2a3385c8033acd3af97e9423a695e81ad1eb70190611847908261208e565b506060820151600382019061185c908261208e565b5060808201516004820190611871908261208e565b50505085604051611882919061217d565b60405190819003812090339084907f8d76d60617424d83544323e2322cb8d86537451c9b3d991886ce6f4721e3865e90600090a4505050505050565b60008181526001602052604090206006015481906001600160a01b031633036118fa57604051631902ab3960e01b815260040160405180910390fd5b336000908152600760209081526040808320858452909152902054829060ff1615611938576040516383dcc1c160e01b815260040160405180910390fd5b600083815260016020526040812060050180549161195583611fdc565b90915550503360008181526007602090815260408083208784528252808320805460ff191660019081179091556006805491820181559093527ff652222313e28459528d920b65115c16c04f3efc82aaedc97be59f3f377c0d3f90920180546001600160a01b031916841790558151868152908101929092527fd1a80ff7224556d1f75ebb4aabff86e4c1b70cfedfc1c3e67eac663bc85b0027910161057e565b508054611a0290612003565b6000825580601f10611a12575050565b601f016020900490600052602060002090810190611a309190611a6b565b50565b6040518060a001604052806000815260200160006001600160a01b031681526020016060815260200160608152602001606081525090565b5b80821115611a805760008155600101611a6c565b5090565b600060208284031215611a9657600080fd5b5035919050565b6001600160a01b0381168114611a3057600080fd5b600060208284031215611ac457600080fd5b8135611acf81611a9d565b9392505050565b60005b83811015611af1578181015183820152602001611ad9565b50506000910152565b60008151808452611b12816020860160208601611ad6565b601f01601f19169290920160200192915050565b600060208083018184528085518083526040925060408601915060408160051b87010184880160005b83811015611bc657888303603f19018552815180518452878101516001600160a01b031688850152868101518785015260608082015160c08287018190529190611b9b83880182611afa565b6080858101519089015260a09485015194909701939093525050509386019390860190600101611b4f565b509098975050505050505050565b634e487b7160e01b600052604160045260246000fd5b600082601f830112611bfb57600080fd5b813567ffffffffffffffff80821115611c1657611c16611bd4565b604051601f8301601f19908116603f01168101908282118183101715611c3e57611c3e611bd4565b81604052838152866020858801011115611c5757600080fd5b836020870160208301376000602085830101528094505050505092915050565b600080600060608486031215611c8c57600080fd5b8335611c9781611a9d565b925060208401359150604084013567ffffffffffffffff811115611cba57600080fd5b611cc686828701611bea565b9150509250925092565b60008060408385031215611ce357600080fd5b823567ffffffffffffffff80821115611cfb57600080fd5b611d0786838701611bea565b93506020850135915080821115611d1d57600080fd5b50611d2a85828601611bea565b9150509250929050565b602081526000611acf6020830184611afa565b805182526000602082015160e06020850152611d6660e0850182611afa565b905060408301518482036040860152611d7f8282611afa565b606085810151908701526080808601519087015260a0808601519087015260c0948501516001600160a01b03169490950193909352509192915050565b602081526000611acf6020830184611d47565b602081528151602082015260018060a01b0360208301511660408201526000604083015160a06060840152611e0760c0840182611afa565b90506060840151601f1980858403016080860152611e258383611afa565b925060808601519150808584030160a086015250611e438282611afa565b95945050505050565b600060208284031215611e5e57600080fd5b813567ffffffffffffffff811115611e7557600080fd5b611e8184828501611bea565b949350505050565b600060208083016020845280855180835260408601915060408160051b87010192506020870160005b82811015611ee057603f19888603018452611ece858351611d47565b94509285019290850190600101611eb2565b5092979650505050505050565b60008060408385031215611f0057600080fd5b82359150602083013567ffffffffffffffff811115611f1e57600080fd5b611d2a85828601611bea565b600080600060608486031215611f3f57600080fd5b83359250602084013567ffffffffffffffff80821115611f5e57600080fd5b611f6a87838801611bea565b93506040860135915080821115611f8057600080fd5b50611cc686828701611bea565b600080600060608486031215611fa257600080fd5b833567ffffffffffffffff80821115611fba57600080fd5b611fc687838801611bea565b94506020860135915080821115611f5e57600080fd5b600060018201611ffc57634e487b7160e01b600052601160045260246000fd5b5060010190565b600181811c9082168061201757607f821691505b60208210810361203757634e487b7160e01b600052602260045260246000fd5b50919050565b601f821115612089576000816000526020600020601f850160051c810160208610156120665750805b601f850160051c820191505b8181101561208557828155600101612072565b5050505b505050565b815167ffffffffffffffff8111156120a8576120a8611bd4565b6120bc816120b68454612003565b8461203d565b602080601f8311600181146120f157600084156120d95750858301515b600019600386901b1c1916600185901b178555612085565b600085815260208120601f198616915b8281101561212057888601518255948401946001909101908401612101565b508582101561213e5787850151600019600388901b60f8161c191681555b5050505050600190811b01905550565b828152604060208201526000611e816040830184611afa565b634e487b7160e01b600052603260045260246000fd5b6000825161218f818460208701611ad6565b919091019291505056fea26469706673582212201c5e63fd025c93c63f3f58bfa784dd7499923a74fefea493e5fd90b28e43a40964736f6c63430008180033","linkReferences":{}},"methodIdentifiers":{"changeOwner(address)":"a6f9dae1","changeUsername(string)":"77c846af","createComment(address,uint256,string)":"2b69e24f","createPost(string,string)":"392338f5","deleteComment(uint256)":"7d0b1026","deletePost(uint256)":"094cd5ee","downvote(uint256)":"f31fdad4","editComment(uint256,string)":"ad816029","editPost(uint256,string,string)":"bf0ac63c","getBalance()":"12065fe0","getPostById(uint256)":"64e95895","getUser(address)":"6f77926b","getUserById(uint256)":"6ed6da9e","getUserComments(address)":"2b3c6e22","getUserNameFromAddress(address)":"6372af84","getUserPosts(address)":"9a2194a9","likeComment(uint256)":"012cc1e2","registerUser(string,string,string)":"d637dcfa","startDapp()":"95d2cc92","stopDapp()":"33aa01e9","transferContractBalance(address)":"96f11ac8","upvote(uint256)":"01ddf070"},"id":27}