{"abi":[{"type":"constructor","inputs":[{"name":"priceFeed","type":"address","internalType":"address"}],"stateMutability":"nonpayable"},{"type":"receive","stateMutability":"payable"},{"type":"function","name":"changeOwner","inputs":[{"name":"_newOwner","type":"address","internalType":"address"}],"outputs":[],"stateMutability":"nonpayable"},{"type":"function","name":"changeUsername","inputs":[{"name":"_newName","type":"string","internalType":"string"}],"outputs":[],"stateMutability":"nonpayable"},{"type":"function","name":"createComment","inputs":[{"name":"_postId","type":"uint256","internalType":"uint256"},{"name":"_content","type":"string","internalType":"string"}],"outputs":[],"stateMutability":"nonpayable"},{"type":"function","name":"createPost","inputs":[{"name":"_content","type":"string","internalType":"string"},{"name":"_imgHash","type":"string","internalType":"string"}],"outputs":[],"stateMutability":"nonpayable"},{"type":"function","name":"deleteComment","inputs":[{"name":"_postId","type":"uint256","internalType":"uint256"},{"name":"_commentId","type":"uint256","internalType":"uint256"}],"outputs":[],"stateMutability":"payable"},{"type":"function","name":"deletePost","inputs":[{"name":"_postId","type":"uint256","internalType":"uint256"}],"outputs":[],"stateMutability":"payable"},{"type":"function","name":"downvote","inputs":[{"name":"_postId","type":"uint256","internalType":"uint256"}],"outputs":[],"stateMutability":"nonpayable"},{"type":"function","name":"editComment","inputs":[{"name":"_postId","type":"uint256","internalType":"uint256"},{"name":"_commentId","type":"uint256","internalType":"uint256"},{"name":"_content","type":"string","internalType":"string"}],"outputs":[],"stateMutability":"payable"},{"type":"function","name":"editPost","inputs":[{"name":"_postId","type":"uint256","internalType":"uint256"},{"name":"_content","type":"string","internalType":"string"},{"name":"_imgHash","type":"string","internalType":"string"}],"outputs":[],"stateMutability":"payable"},{"type":"function","name":"getBalance","inputs":[],"outputs":[{"name":"","type":"uint256","internalType":"uint256"}],"stateMutability":"view"},{"type":"function","name":"getCommentByPostIdAndCommentId","inputs":[{"name":"_postId","type":"uint256","internalType":"uint256"},{"name":"_commentId","type":"uint256","internalType":"uint256"}],"outputs":[{"name":"","type":"tuple","internalType":"struct SocialMedia.Comment","components":[{"name":"commentId","type":"uint256","internalType":"uint256"},{"name":"author","type":"address","internalType":"address"},{"name":"postId","type":"uint256","internalType":"uint256"},{"name":"content","type":"string","internalType":"string"},{"name":"timestamp","type":"uint256","internalType":"uint256"},{"name":"likesCount","type":"uint256","internalType":"uint256"}]}],"stateMutability":"view"},{"type":"function","name":"getCommentLikersByPostIdAndCommentId","inputs":[{"name":"_postId","type":"uint256","internalType":"uint256"},{"name":"_commentId","type":"uint256","internalType":"uint256"}],"outputs":[{"name":"","type":"address[]","internalType":"address[]"}],"stateMutability":"view"},{"type":"function","name":"getContractOwner","inputs":[],"outputs":[{"name":"","type":"address","internalType":"address"}],"stateMutability":"view"},{"type":"function","name":"getPostById","inputs":[{"name":"_postId","type":"uint256","internalType":"uint256"}],"outputs":[{"name":"","type":"tuple","internalType":"struct SocialMedia.Post","components":[{"name":"postId","type":"uint256","internalType":"uint256"},{"name":"content","type":"string","internalType":"string"},{"name":"imgHash","type":"string","internalType":"string"},{"name":"timestamp","type":"uint256","internalType":"uint256"},{"name":"upvotes","type":"uint256","internalType":"uint256"},{"name":"downvotes","type":"uint256","internalType":"uint256"},{"name":"author","type":"address","internalType":"address"}]}],"stateMutability":"view"},{"type":"function","name":"getUser","inputs":[{"name":"_userAddress","type":"address","internalType":"address"}],"outputs":[{"name":"","type":"tuple","internalType":"struct SocialMedia.User","components":[{"name":"id","type":"uint256","internalType":"uint256"},{"name":"userAddress","type":"address","internalType":"address"},{"name":"name","type":"string","internalType":"string"},{"name":"bio","type":"string","internalType":"string"},{"name":"profileImageHash","type":"string","internalType":"string"}]}],"stateMutability":"view"},{"type":"function","name":"getUserById","inputs":[{"name":"_userId","type":"uint256","internalType":"uint256"}],"outputs":[{"name":"","type":"tuple","internalType":"struct SocialMedia.User","components":[{"name":"id","type":"uint256","internalType":"uint256"},{"name":"userAddress","type":"address","internalType":"address"},{"name":"name","type":"string","internalType":"string"},{"name":"bio","type":"string","internalType":"string"},{"name":"profileImageHash","type":"string","internalType":"string"}]}],"stateMutability":"view"},{"type":"function","name":"getUserComments","inputs":[{"name":"_userAddress","type":"address","internalType":"address"}],"outputs":[{"name":"","type":"tuple[]","internalType":"struct SocialMedia.Comment[]","components":[{"name":"commentId","type":"uint256","internalType":"uint256"},{"name":"author","type":"address","internalType":"address"},{"name":"postId","type":"uint256","internalType":"uint256"},{"name":"content","type":"string","internalType":"string"},{"name":"timestamp","type":"uint256","internalType":"uint256"},{"name":"likesCount","type":"uint256","internalType":"uint256"}]}],"stateMutability":"view"},{"type":"function","name":"getUserNameFromAddress","inputs":[{"name":"_userAddress","type":"address","internalType":"address"}],"outputs":[{"name":"nameOfUser","type":"string","internalType":"string"}],"stateMutability":"view"},{"type":"function","name":"getUserPosts","inputs":[{"name":"_userAddress","type":"address","internalType":"address"}],"outputs":[{"name":"","type":"tuple[]","internalType":"struct SocialMedia.Post[]","components":[{"name":"postId","type":"uint256","internalType":"uint256"},{"name":"content","type":"string","internalType":"string"},{"name":"imgHash","type":"string","internalType":"string"},{"name":"timestamp","type":"uint256","internalType":"uint256"},{"name":"upvotes","type":"uint256","internalType":"uint256"},{"name":"downvotes","type":"uint256","internalType":"uint256"},{"name":"author","type":"address","internalType":"address"}]}],"stateMutability":"view"},{"type":"function","name":"likeComment","inputs":[{"name":"_postId","type":"uint256","internalType":"uint256"},{"name":"_commentId","type":"uint256","internalType":"uint256"}],"outputs":[],"stateMutability":"nonpayable"},{"type":"function","name":"registerUser","inputs":[{"name":"_name","type":"string","internalType":"string"},{"name":"_bio","type":"string","internalType":"string"},{"name":"_profileImageHash","type":"string","internalType":"string"}],"outputs":[],"stateMutability":"nonpayable"},{"type":"function","name":"transferContractBalance","inputs":[{"name":"_to","type":"address","internalType":"address payable"}],"outputs":[],"stateMutability":"nonpayable"},{"type":"function","name":"upvote","inputs":[{"name":"_postId","type":"uint256","internalType":"uint256"}],"outputs":[],"stateMutability":"nonpayable"},{"type":"event","name":"CommentCreated","inputs":[{"name":"commentId","type":"uint256","indexed":true,"internalType":"uint256"},{"name":"postAuthor","type":"string","indexed":false,"internalType":"string"},{"name":"commentAuthor","type":"string","indexed":false,"internalType":"string"},{"name":"postId","type":"uint256","indexed":false,"internalType":"uint256"}],"anonymous":false},{"type":"event","name":"Downvoted","inputs":[{"name":"postId","type":"uint256","indexed":false,"internalType":"uint256"},{"name":"posthAuthorName","type":"string","indexed":false,"internalType":"string"},{"name":"downvoterName","type":"string","indexed":false,"internalType":"string"}],"anonymous":false},{"type":"event","name":"PostCreated","inputs":[{"name":"postId","type":"uint256","indexed":false,"internalType":"uint256"},{"name":"authorName","type":"string","indexed":false,"internalType":"string"}],"anonymous":false},{"type":"event","name":"PostEdited","inputs":[{"name":"postId","type":"uint256","indexed":false,"internalType":"uint256"},{"name":"authorName","type":"string","indexed":false,"internalType":"string"}],"anonymous":false},{"type":"event","name":"PostLiked","inputs":[{"name":"postId","type":"uint256","indexed":true,"internalType":"uint256"},{"name":"postAuthor","type":"address","indexed":true,"internalType":"address"},{"name":"liker","type":"address","indexed":true,"internalType":"address"}],"anonymous":false},{"type":"event","name":"RewardSent","inputs":[{"name":"user","type":"address","indexed":true,"internalType":"address"},{"name":"amount","type":"uint256","indexed":false,"internalType":"uint256"}],"anonymous":false},{"type":"event","name":"Upvoted","inputs":[{"name":"postId","type":"uint256","indexed":false,"internalType":"uint256"},{"name":"posthAuthorName","type":"string","indexed":false,"internalType":"string"},{"name":"upvoterName","type":"string","indexed":false,"internalType":"string"}],"anonymous":false},{"type":"event","name":"UserRegistered","inputs":[{"name":"id","type":"uint256","indexed":true,"internalType":"uint256"},{"name":"userAddress","type":"address","indexed":true,"internalType":"address"},{"name":"name","type":"string","indexed":true,"internalType":"string"}],"anonymous":false},{"type":"error","name":"SocialMedia__AlreadyVoted","inputs":[]},{"type":"error","name":"SocialMedia__NotCommentOwner","inputs":[]},{"type":"error","name":"SocialMedia__NotOwner","inputs":[]},{"type":"error","name":"SocialMedia__NotPostOwner","inputs":[]},{"type":"error","name":"SocialMedia__OwnerCannotVote","inputs":[]},{"type":"error","name":"SocialMedia__PaymentNotEnough","inputs":[]},{"type":"error","name":"SocialMedia__UserDoesNotExist","inputs":[]},{"type":"error","name":"SocialMedia__UsernameAlreadyTaken","inputs":[]}],"bytecode":{"object":"0x60806040523480156200001157600080fd5b5060405162002a8d38038062002a8d833981016040819052620000349162000068565b60128054336001600160a01b031991821617909155600080549091166001600160a01b03929092169190911790556200009a565b6000602082840312156200007b57600080fd5b81516001600160a01b03811681146200009357600080fd5b9392505050565b6129e380620000aa6000396000f3fe6080604052600436106101445760003560e01c80636ed6da9e116100b6578063a0e918211161006f578063a0e91821146103c3578063a6f9dae1146103e3578063bf0ac63c14610403578063d637dcfa14610416578063f31fdad414610436578063fa5611521461045657600080fd5b80636ed6da9e146102dc5780636f77926b1461030957806377c846af146103295780638dc4a0661461034957806396f11ac8146103765780639a2194a91461039657600080fd5b8063392338f511610108578063392338f5146101ed57806340a179851461020d5780634296db5b1461022d578063442890d51461025a5780636372af841461028257806364e95895146102af57600080fd5b806301ddf07014610150578063094cd5ee1461017257806312065fe0146101855780632b3c6e22146101ad57806331a4bcb5146101da57600080fd5b3661014b57005b600080fd5b34801561015c57600080fd5b5061017061016b3660046120e1565b610469565b005b6101706101803660046120e1565b6105a8565b34801561019157600080fd5b5061019a6106af565b6040519081526020015b60405180910390f35b3480156101b957600080fd5b506101cd6101c8366004612112565b6106e2565b6040516101a491906121da565b6101706101e836600461223e565b610828565b3480156101f957600080fd5b50610170610208366004612303565b610954565b34801561021957600080fd5b50610170610228366004612367565b610c67565b34801561023957600080fd5b5061024d61024836600461223e565b610de6565b6040516101a491906123a4565b34801561026657600080fd5b506012546040516001600160a01b0390911681526020016101a4565b34801561028e57600080fd5b506102a261029d366004612112565b610f53565b6040516101a491906123b7565b3480156102bb57600080fd5b506102cf6102ca3660046120e1565b611152565b6040516101a4919061243f565b3480156102e857600080fd5b506102fc6102f73660046120e1565b61132d565b6040516101a49190612452565b34801561031557600080fd5b506102fc610324366004612112565b611557565b34801561033557600080fd5b506101706103443660046124c6565b6115aa565b34801561035557600080fd5b5061036961036436600461223e565b611681565b6040516101a49190612503565b34801561038257600080fd5b50610170610391366004612112565b6116f6565b3480156103a257600080fd5b506103b66103b1366004612112565b61175a565b6040516101a49190612550565b3480156103cf57600080fd5b506101706103de36600461223e565b611929565b3480156103ef57600080fd5b506101706103fe366004612112565b611a0a565b6101706104113660046125a7565b611a57565b34801561042257600080fd5b50610170610431366004612614565b611b80565b34801561044257600080fd5b506101706104513660046120e1565b611df4565b610170610464366004612663565b611f23565b60008181526009602052604090205481906001600160a01b031633036104a257604051631902ab3960e01b815260040160405180910390fd5b336000908152600b60209081526040808320858452909152902054829060ff16156104e0576040516383dcc1c160e01b815260040160405180910390fd5b600583815481106104f3576104f36126a9565b600091825260208220600460079092020101805491610511836126d5565b9091555050336000908152600b602090815260408083208684528252808320805460ff1916600117905560099091528120546001600160a01b03169061055682610f53565b9050600061056333610f53565b90507fa036d403d7739d8360e6171b2fbf68a0dfef33d6c6f432a236f6c3cdbb3cfee6868383604051610598939291906126ee565b60405180910390a1505050505050565b60008181526009602052604090205481906001600160a01b031633146105e157604051639ef3fcef60e01b815260040160405180910390fd5b600054674563918244f40000906106029034906001600160a01b0316611ff0565b1015610620576040516217124560e91b815260040160405180910390fd5b6040518060200160405280600081525060058381548110610643576106436126a9565b9060005260206000209060070201600101908161066091906127aa565b50600060058381548110610676576106766126a9565b906000526020600020906007020160060160006101000a8154816001600160a01b0302191690836001600160a01b031602179055505050565b6012546000906001600160a01b031633146106dd5760405163aadd925760e01b815260040160405180910390fd5b504790565b6001600160a01b0381166000908152600f60209081526040808320805482518185028101850190935280835260609492939192909184015b8282101561081d5760008481526020908190206040805160c081018252600686029092018054835260018101546001600160a01b03169383019390935260028301549082015260038201805491929160608401919061077890612723565b80601f01602080910402602001604051908101604052809291908181526020018280546107a490612723565b80156107f15780601f106107c6576101008083540402835291602001916107f1565b820191906000526020600020905b8154815290600101906020018083116107d457829003601f168201915b50505050508152602001600482015481526020016005820154815250508152602001906001019061071a565b505050509050919050565b6000828152600e60209081526040808320848452909152902054829082906001600160a01b0316331461086e57604051632585a1bd60e01b815260040160405180910390fd5b600054674563918244f400009061088f9034906001600160a01b0316611ff0565b10156108ad576040516217124560e91b815260040160405180910390fd5b60408051602080820183526000808352878152600d909152919091208054859081106108db576108db6126a9565b906000526020600020906006020160030190816108f891906127aa565b506000848152600d60205260408120805485908110610919576109196126a9565b906000526020600020906006020160010160006101000a8154816001600160a01b0302191690836001600160a01b0316021790555050505050565b336000818152600260205260409020600101546001600160a01b031661098d5760405163995cae5960e01b815260040160405180910390fd5b6005546040805160e0810182528281526020810186905290810184905242606082015260006080820181905260a082018190523360c083018190526109d190610f53565b336000908152600c60209081526040822080546001818101835591845292829020865160079094020192835590850151929350849290820190610a1490826127aa565b5060408201516002820190610a2990826127aa565b50606082015160038201556080820151600482015560a082015160058083019190915560c090920151600690910180546001600160a01b0319166001600160a01b03909216919091179055805460018101825560009190915282517f036b6384b5eca791c62761152d0c79bb0604c104a5fb6f4eb0703f3154bb3db06007909202918201908155602084015184927f036b6384b5eca791c62761152d0c79bb0604c104a5fb6f4eb0703f3154bb3db10190610ae490826127aa565b5060408201516002820190610af990826127aa565b50606082015160038201556080820151600482015560a0820151600582015560c090910151600691820180546001600160a01b0319166001600160a01b03909216919091179055805460018101825560009190915282517ff652222313e28459528d920b65115c16c04f3efc82aaedc97be59f3f377c0d3f6007909202918201908155602084015184927ff652222313e28459528d920b65115c16c04f3efc82aaedc97be59f3f377c0d400190610bb090826127aa565b5060408201516002820190610bc590826127aa565b50606082015160038201556080820151600482015560a0820151600582015560c090910151600690910180546001600160a01b039092166001600160a01b03199283161790553360008181526008602090815260408083208890558783526009909152908190208054909316909117909155517f3d4335cbfac350aa27a3fa09060b4691656ecbe3033f4d953849c2f755f230d190610598908590849061286a565b336000818152600260205260409020600101546001600160a01b0316610ca05760405163995cae5960e01b815260040160405180910390fd5b6000838152600d6020908152604080832054815160c08101835281815233938101939093529082018690526060820185905242608083015260a0820183905291610ce98661132d565b6040015190506000610cfa33610f53565b6000888152600e6020908152604080832088845282528083208054336001600160a01b0319918216179091558b8452600d83528184208054600181810183559186529484902089516006909602019485559288015192840180549091166001600160a01b03909316929092179091558501516002820155606085015191925084916003820190610d8a90826127aa565b506080820151816004015560a082015181600501555050837f915184b2a0bfb3b827755b4e9e718f684996cef7b75bad20f26cd2fd67396c7783838a604051610dd593929190612883565b60405180910390a250505050505050565b610e286040518060c001604052806000815260200160006001600160a01b03168152602001600081526020016060815260200160008152602001600081525090565b6000838152600d60205260409020805483908110610e4857610e486126a9565b90600052602060002090600602016040518060c0016040529081600082015481526020016001820160009054906101000a90046001600160a01b03166001600160a01b03166001600160a01b0316815260200160028201548152602001600382018054610eb490612723565b80601f0160208091040260200160405190810160405280929190818152602001828054610ee090612723565b8015610f2d5780601f10610f0257610100808354040283529160200191610f2d565b820191906000526020600020905b815481529060010190602001808311610f1057829003601f168201915b505050505081526020016004820154815260200160058201548152505090505b92915050565b6001600160a01b038082166000908152600260208181526040808420815160a0810183528154815260018201549096169286019290925291810180546060959384019190610fa090612723565b80601f0160208091040260200160405190810160405280929190818152602001828054610fcc90612723565b80156110195780601f10610fee57610100808354040283529160200191611019565b820191906000526020600020905b815481529060010190602001808311610ffc57829003601f168201915b5050505050815260200160038201805461103290612723565b80601f016020809104026020016040519081016040528092919081815260200182805461105e90612723565b80156110ab5780601f10611080576101008083540402835291602001916110ab565b820191906000526020600020905b81548152906001019060200180831161108e57829003601f168201915b505050505081526020016004820180546110c490612723565b80601f01602080910402602001604051908101604052809291908181526020018280546110f090612723565b801561113d5780601f106111125761010080835404028352916020019161113d565b820191906000526020600020905b81548152906001019060200180831161112057829003601f168201915b50505091909252505050604001519392505050565b61119b6040518060e0016040528060008152602001606081526020016060815260200160008152602001600081526020016000815260200160006001600160a01b031681525090565b600582815481106111ae576111ae6126a9565b90600052602060002090600702016040518060e0016040529081600082015481526020016001820180546111e190612723565b80601f016020809104026020016040519081016040528092919081815260200182805461120d90612723565b801561125a5780601f1061122f5761010080835404028352916020019161125a565b820191906000526020600020905b81548152906001019060200180831161123d57829003601f168201915b5050505050815260200160028201805461127390612723565b80601f016020809104026020016040519081016040528092919081815260200182805461129f90612723565b80156112ec5780601f106112c1576101008083540402835291602001916112ec565b820191906000526020600020905b8154815290600101906020018083116112cf57829003601f168201915b50505091835250506003820154602082015260048201546040820152600582015460608201526006909101546001600160a01b031660809091015292915050565b6113356120a9565b60018281548110611348576113486126a9565b90600052602060002090600502016040518060a0016040529081600082015481526020016001820160009054906101000a90046001600160a01b03166001600160a01b03166001600160a01b031681526020016002820180546113aa90612723565b80601f01602080910402602001604051908101604052809291908181526020018280546113d690612723565b80156114235780601f106113f857610100808354040283529160200191611423565b820191906000526020600020905b81548152906001019060200180831161140657829003601f168201915b5050505050815260200160038201805461143c90612723565b80601f016020809104026020016040519081016040528092919081815260200182805461146890612723565b80156114b55780601f1061148a576101008083540402835291602001916114b5565b820191906000526020600020905b81548152906001019060200180831161149857829003601f168201915b505050505081526020016004820180546114ce90612723565b80601f01602080910402602001604051908101604052809291908181526020018280546114fa90612723565b80156115475780601f1061151c57610100808354040283529160200191611547565b820191906000526020600020905b81548152906001019060200180831161152a57829003601f168201915b5050505050815250509050919050565b61155f6120a9565b6001600160a01b03808316600090815260026020818152604092839020835160a08101855281548152600182015490951691850191909152908101805491928401916113aa90612723565b336000818152600260205260409020600101546001600160a01b03166115e35760405163995cae5960e01b815260040160405180910390fd5b8160006001600160a01b0316600a826040516115ff91906128b9565b908152604051908190036020019020546001600160a01b0316146116365760405163cd9c3c2960e01b815260040160405180910390fd5b33600090815260046020526040902054600180548591908390811061165d5761165d6126a9565b9060005260206000209060050201600201908161167a91906127aa565b5050505050565b60008281526011602090815260408083208484528252918290208054835181840281018401909452808452606093928301828280156116e957602002820191906000526020600020905b81546001600160a01b031681526001909101906020018083116116cb575b5050505050905092915050565b6012546001600160a01b031633146117215760405163aadd925760e01b815260040160405180910390fd5b6040516001600160a01b038216904780156108fc02916000818181858888f19350505050158015611756573d6000803e3d6000fd5b5050565b6001600160a01b0381166000908152600c60209081526040808320805482518185028101850190935280835260609492939192909184015b8282101561081d57838290600052602060002090600702016040518060e0016040529081600082015481526020016001820180546117cf90612723565b80601f01602080910402602001604051908101604052809291908181526020018280546117fb90612723565b80156118485780601f1061181d57610100808354040283529160200191611848565b820191906000526020600020905b81548152906001019060200180831161182b57829003601f168201915b5050505050815260200160028201805461186190612723565b80601f016020809104026020016040519081016040528092919081815260200182805461188d90612723565b80156118da5780601f106118af576101008083540402835291602001916118da565b820191906000526020600020905b8154815290600101906020018083116118bd57829003601f168201915b5050509183525050600382015460208083019190915260048301546040830152600583015460608301526006909201546001600160a01b03166080909101529082526001929092019101611792565b336000818152600260205260409020600101546001600160a01b03166119625760405163995cae5960e01b815260040160405180910390fd5b6000838152600d60205260409020805483908110611982576119826126a9565b6000918252602082206005600690920201018054916119a0836126d5565b9091555050506000828152601060209081526040808320848452825280832033808552908352818420805460ff19166001908117909155958452601183528184209484529382528220805494850181558252902090910180546001600160a01b0319169091179055565b6012546001600160a01b03163314611a355760405163aadd925760e01b815260040160405180910390fd5b601280546001600160a01b0319166001600160a01b0392909216919091179055565b60008381526009602052604090205483906001600160a01b03163314611a9057604051639ef3fcef60e01b815260040160405180910390fd5b600054674563918244f4000090611ab19034906001600160a01b0316611ff0565b1015611acf576040516217124560e91b815260040160405180910390fd5b8260058581548110611ae357611ae36126a9565b90600052602060002090600702016001019081611b0091906127aa565b508160058581548110611b1557611b156126a9565b90600052602060002090600702016002019081611b3291906127aa565b506000611b3e33610f53565b90507f7009e6824c3ecb1321da2ebabc18901b48d900a97f978c5a93dd3ba8cfe590358582604051611b7192919061286a565b60405180910390a15050505050565b8260006001600160a01b0316600a82604051611b9c91906128b9565b908152604051908190036020019020546001600160a01b031614611bd35760405163cd9c3c2960e01b815260040160405180910390fd5b6003805460009182611be4836126d5565b919050559050611bf26120a9565b81815233602080830182815260408085018a8152606086018a905260808601899052600094855260029384905293208451815590516001820180546001600160a01b0319166001600160a01b039092169190911790559151839291820190611c5a90826127aa565b5060608201516003820190611c6f90826127aa565b5060808201516004820190611c8490826127aa565b5050336000818152600460205260409081902085905551909150600a90611cac9089906128b9565b908152604080516020928190038301902080546001600160a01b03199081166001600160a01b039586161790915560018054808201825560009190915285517fb10e2d527612073b26eecdfd717e6a320cf44b4afac2b0732d9fcbe2b7fa0cf66005909202918201908155938601517fb10e2d527612073b26eecdfd717e6a320cf44b4afac2b0732d9fcbe2b7fa0cf782018054909316951694909417905583015183927fb10e2d527612073b26eecdfd717e6a320cf44b4afac2b0732d9fcbe2b7fa0cf80190611d7d90826127aa565b5060608201516003820190611d9290826127aa565b5060808201516004820190611da790826127aa565b50505085604051611db891906128b9565b60405190819003812090339084907f8d76d60617424d83544323e2322cb8d86537451c9b3d991886ce6f4721e3865e90600090a4505050505050565b60008181526009602052604090205481906001600160a01b03163303611e2d57604051631902ab3960e01b815260040160405180910390fd5b336000908152600b60209081526040808320858452909152902054829060ff1615611e6b576040516383dcc1c160e01b815260040160405180910390fd5b60058381548110611e7e57611e7e6126a9565b600091825260208220600560079092020101805491611e9c836126d5565b9091555050336000908152600b602090815260408083208684528252808320805460ff1916600117905560099091528120546001600160a01b031690611ee182610f53565b90506000611eee33610f53565b90507fd7ad3e52dbe8b445d900fd8aa659c95d5b75bb6733c12e7f22d048963bd39ed5868383604051610598939291906126ee565b6000838152600e60209081526040808320858452909152902054839083906001600160a01b03163314611f6957604051632585a1bd60e01b815260040160405180910390fd5b600054674563918244f4000090611f8a9034906001600160a01b0316611ff0565b1015611fa8576040516217124560e91b815260040160405180910390fd5b6000858152600d60205260409020805484919086908110611fcb57611fcb6126a9565b90600052602060002090600602016003019081611fe891906127aa565b505050505050565b600080611ffc83612026565b90506000670de0b6b3a764000061201383876128d5565b61201d91906128ec565b95945050505050565b600080826001600160a01b031663feaf968c6040518163ffffffff1660e01b815260040160a060405180830381865afa158015612067573d6000803e3d6000fd5b505050506040513d601f19601f8201168201806040525081019061208b919061292d565b505050915050806402540be4006120a2919061297d565b9392505050565b6040518060a001604052806000815260200160006001600160a01b031681526020016060815260200160608152602001606081525090565b6000602082840312156120f357600080fd5b5035919050565b6001600160a01b038116811461210f57600080fd5b50565b60006020828403121561212457600080fd5b81356120a2816120fa565b60005b8381101561214a578181015183820152602001612132565b50506000910152565b6000815180845261216b81602086016020860161212f565b601f01601f19169290920160200192915050565b8051825260018060a01b036020820151166020830152604081015160408301526000606082015160c060608501526121ba60c0850182612153565b90506080830151608085015260a083015160a08501528091505092915050565b600060208083016020845280855180835260408601915060408160051b87010192506020870160005b8281101561223157603f1988860301845261221f85835161217f565b94509285019290850190600101612203565b5092979650505050505050565b6000806040838503121561225157600080fd5b50508035926020909101359150565b634e487b7160e01b600052604160045260246000fd5b600082601f83011261228757600080fd5b813567ffffffffffffffff808211156122a2576122a2612260565b604051601f8301601f19908116603f011681019082821181831017156122ca576122ca612260565b816040528381528660208588010111156122e357600080fd5b836020870160208301376000602085830101528094505050505092915050565b6000806040838503121561231657600080fd5b823567ffffffffffffffff8082111561232e57600080fd5b61233a86838701612276565b9350602085013591508082111561235057600080fd5b5061235d85828601612276565b9150509250929050565b6000806040838503121561237a57600080fd5b82359150602083013567ffffffffffffffff81111561239857600080fd5b61235d85828601612276565b6020815260006120a2602083018461217f565b6020815260006120a26020830184612153565b805182526000602082015160e060208501526123e960e0850182612153565b9050604083015184820360408601526124028282612153565b606085810151908701526080808601519087015260a0808601519087015260c0948501516001600160a01b03169490950193909352509192915050565b6020815260006120a260208301846123ca565b602081528151602082015260018060a01b0360208301511660408201526000604083015160a0606084015261248a60c0840182612153565b90506060840151601f19808584030160808601526124a88383612153565b925060808601519150808584030160a08601525061201d8282612153565b6000602082840312156124d857600080fd5b813567ffffffffffffffff8111156124ef57600080fd5b6124fb84828501612276565b949350505050565b6020808252825182820181905260009190848201906040850190845b818110156125445783516001600160a01b03168352928401929184019160010161251f565b50909695505050505050565b600060208083016020845280855180835260408601915060408160051b87010192506020870160005b8281101561223157603f198886030184526125958583516123ca565b94509285019290850190600101612579565b6000806000606084860312156125bc57600080fd5b83359250602084013567ffffffffffffffff808211156125db57600080fd5b6125e787838801612276565b935060408601359150808211156125fd57600080fd5b5061260a86828701612276565b9150509250925092565b60008060006060848603121561262957600080fd5b833567ffffffffffffffff8082111561264157600080fd5b61264d87838801612276565b945060208601359150808211156125db57600080fd5b60008060006060848603121561267857600080fd5b8335925060208401359150604084013567ffffffffffffffff81111561269d57600080fd5b61260a86828701612276565b634e487b7160e01b600052603260045260246000fd5b634e487b7160e01b600052601160045260246000fd5b6000600182016126e7576126e76126bf565b5060010190565b8381526060602082015260006127076060830185612153565b82810360408401526127198185612153565b9695505050505050565b600181811c9082168061273757607f821691505b60208210810361275757634e487b7160e01b600052602260045260246000fd5b50919050565b601f8211156127a5576000816000526020600020601f850160051c810160208610156127865750805b601f850160051c820191505b81811015611fe857828155600101612792565b505050565b815167ffffffffffffffff8111156127c4576127c4612260565b6127d8816127d28454612723565b8461275d565b602080601f83116001811461280d57600084156127f55750858301515b600019600386901b1c1916600185901b178555611fe8565b600085815260208120601f198616915b8281101561283c5788860151825594840194600190910190840161281d565b508582101561285a5787850151600019600388901b60f8161c191681555b5050505050600190811b01905550565b8281526040602082015260006124fb6040830184612153565b6060815260006128966060830186612153565b82810360208401526128a88186612153565b915050826040830152949350505050565b600082516128cb81846020870161212f565b9190910192915050565b8082028115828204841417610f4d57610f4d6126bf565b60008261290957634e487b7160e01b600052601260045260246000fd5b500490565b805169ffffffffffffffffffff8116811461292857600080fd5b919050565b600080600080600060a0868803121561294557600080fd5b61294e8661290e565b94506020860151935060408601519250606086015191506129716080870161290e565b90509295509295909350565b80820260008212600160ff1b84141615612999576129996126bf565b8181058314821517610f4d57610f4d6126bf56fea264697066735822122084b384e4184a4b7db8f01815d5171da560c4449cf681a93957c129d9da2d6a3864736f6c63430008180033","linkReferences":{}},"methodIdentifiers":{"changeOwner(address)":"a6f9dae1","changeUsername(string)":"77c846af","createComment(uint256,string)":"40a17985","createPost(string,string)":"392338f5","deleteComment(uint256,uint256)":"31a4bcb5","deletePost(uint256)":"094cd5ee","downvote(uint256)":"f31fdad4","editComment(uint256,uint256,string)":"fa561152","editPost(uint256,string,string)":"bf0ac63c","getBalance()":"12065fe0","getCommentByPostIdAndCommentId(uint256,uint256)":"4296db5b","getCommentLikersByPostIdAndCommentId(uint256,uint256)":"8dc4a066","getContractOwner()":"442890d5","getPostById(uint256)":"64e95895","getUser(address)":"6f77926b","getUserById(uint256)":"6ed6da9e","getUserComments(address)":"2b3c6e22","getUserNameFromAddress(address)":"6372af84","getUserPosts(address)":"9a2194a9","likeComment(uint256,uint256)":"a0e91821","registerUser(string,string,string)":"d637dcfa","transferContractBalance(address)":"96f11ac8","upvote(uint256)":"01ddf070"},"id":28}