{"abi":[{"type":"constructor","inputs":[],"stateMutability":"nonpayable"},{"type":"function","name":"changeOwner","inputs":[{"name":"_newOwner","type":"address","internalType":"address"}],"outputs":[],"stateMutability":"nonpayable"},{"type":"function","name":"changeUsername","inputs":[{"name":"_newName","type":"string","internalType":"string"}],"outputs":[],"stateMutability":"nonpayable"},{"type":"function","name":"createComment","inputs":[{"name":"_postAuthor","type":"address","internalType":"address"},{"name":"_postId","type":"uint256","internalType":"uint256"},{"name":"_content","type":"string","internalType":"string"}],"outputs":[],"stateMutability":"nonpayable"},{"type":"function","name":"createPost","inputs":[{"name":"_content","type":"string","internalType":"string"},{"name":"_imgHash","type":"string","internalType":"string"}],"outputs":[],"stateMutability":"nonpayable"},{"type":"function","name":"deleteComment","inputs":[{"name":"_commentId","type":"uint256","internalType":"uint256"}],"outputs":[],"stateMutability":"nonpayable"},{"type":"function","name":"deletePost","inputs":[{"name":"_postId","type":"uint256","internalType":"uint256"}],"outputs":[],"stateMutability":"nonpayable"},{"type":"function","name":"downvote","inputs":[{"name":"_postId","type":"uint256","internalType":"uint256"}],"outputs":[],"stateMutability":"nonpayable"},{"type":"function","name":"editComment","inputs":[{"name":"_commentId","type":"uint256","internalType":"uint256"},{"name":"_content","type":"string","internalType":"string"}],"outputs":[],"stateMutability":"nonpayable"},{"type":"function","name":"editPost","inputs":[{"name":"_postId","type":"uint256","internalType":"uint256"},{"name":"_content","type":"string","internalType":"string"},{"name":"_imgHash","type":"string","internalType":"string"}],"outputs":[],"stateMutability":"nonpayable"},{"type":"function","name":"getBalance","inputs":[],"outputs":[{"name":"","type":"uint256","internalType":"uint256"}],"stateMutability":"view"},{"type":"function","name":"getUser","inputs":[{"name":"_userAddress","type":"address","internalType":"address"}],"outputs":[{"name":"","type":"tuple","internalType":"struct SocialMedia.User","components":[{"name":"id","type":"uint256","internalType":"uint256"},{"name":"userAddress","type":"address","internalType":"address"},{"name":"name","type":"string","internalType":"string"},{"name":"bio","type":"string","internalType":"string"},{"name":"profileImageHash","type":"string","internalType":"string"}]}],"stateMutability":"view"},{"type":"function","name":"getUserComments","inputs":[{"name":"_userAddress","type":"address","internalType":"address"}],"outputs":[{"name":"","type":"tuple[]","internalType":"struct SocialMedia.Comment[]","components":[{"name":"commentId","type":"uint256","internalType":"uint256"},{"name":"author","type":"address","internalType":"address"},{"name":"postId","type":"uint256","internalType":"uint256"},{"name":"content","type":"string","internalType":"string"},{"name":"timestamp","type":"uint256","internalType":"uint256"},{"name":"likesCount","type":"uint256","internalType":"uint256"}]}],"stateMutability":"view"},{"type":"function","name":"getUserPosts","inputs":[{"name":"_userAddress","type":"address","internalType":"address"}],"outputs":[{"name":"","type":"tuple[]","internalType":"struct SocialMedia.Post[]","components":[{"name":"postId","type":"uint256","internalType":"uint256"},{"name":"content","type":"string","internalType":"string"},{"name":"imgHash","type":"string","internalType":"string"},{"name":"timestamp","type":"uint256","internalType":"uint256"},{"name":"upvotes","type":"uint256","internalType":"uint256"},{"name":"downvotes","type":"uint256","internalType":"uint256"},{"name":"author","type":"address","internalType":"address"}]}],"stateMutability":"view"},{"type":"function","name":"likeComment","inputs":[{"name":"_commentId","type":"uint256","internalType":"uint256"}],"outputs":[],"stateMutability":"nonpayable"},{"type":"function","name":"registerUser","inputs":[{"name":"_name","type":"string","internalType":"string"},{"name":"_bio","type":"string","internalType":"string"},{"name":"_profileImageHash","type":"string","internalType":"string"}],"outputs":[],"stateMutability":"nonpayable"},{"type":"function","name":"startDapp","inputs":[],"outputs":[],"stateMutability":"nonpayable"},{"type":"function","name":"stopDapp","inputs":[],"outputs":[],"stateMutability":"nonpayable"},{"type":"function","name":"transferContractBalance","inputs":[{"name":"_to","type":"address","internalType":"address payable"}],"outputs":[],"stateMutability":"nonpayable"},{"type":"function","name":"upvote","inputs":[{"name":"_postId","type":"uint256","internalType":"uint256"}],"outputs":[],"stateMutability":"nonpayable"},{"type":"event","name":"CommentCreated","inputs":[{"name":"commentId","type":"uint256","indexed":false,"internalType":"uint256"},{"name":"author","type":"address","indexed":false,"internalType":"address"},{"name":"postId","type":"uint256","indexed":false,"internalType":"uint256"}],"anonymous":false},{"type":"event","name":"Downvoted","inputs":[{"name":"postId","type":"uint256","indexed":false,"internalType":"uint256"},{"name":"voter","type":"address","indexed":false,"internalType":"address"}],"anonymous":false},{"type":"event","name":"PostCreated","inputs":[{"name":"postId","type":"uint256","indexed":false,"internalType":"uint256"},{"name":"author","type":"address","indexed":false,"internalType":"address"}],"anonymous":false},{"type":"event","name":"RegisterUser","inputs":[{"name":"id","type":"uint256","indexed":false,"internalType":"uint256"},{"name":"userAddress","type":"address","indexed":false,"internalType":"address"},{"name":"name","type":"string","indexed":false,"internalType":"string"}],"anonymous":false},{"type":"event","name":"Upvoted","inputs":[{"name":"postId","type":"uint256","indexed":false,"internalType":"uint256"},{"name":"voter","type":"address","indexed":false,"internalType":"address"}],"anonymous":false},{"type":"error","name":"SocialMedia__AlreadyVoted","inputs":[]},{"type":"error","name":"SocialMedia__NotCommentOwner","inputs":[]},{"type":"error","name":"SocialMedia__NotOwner","inputs":[]},{"type":"error","name":"SocialMedia__NotPostOwner","inputs":[]},{"type":"error","name":"SocialMedia__OwnerCannotVote","inputs":[]},{"type":"error","name":"SocialMedia__UserDoesNotExist","inputs":[]},{"type":"error","name":"SocialMedia__UsernameAlreadyTaken","inputs":[]}],"bytecode":{"object":"0x608060405234801561001057600080fd5b50600380546001600160a01b03191633179055611bdd806100326000396000f3fe608060405234801561001057600080fd5b50600436106101215760003560e01c806377c846af116100ad578063a6f9dae111610071578063a6f9dae114610244578063ad81602914610257578063bf0ac63c1461026a578063d637dcfa1461027d578063f31fdad41461029057600080fd5b806377c846af146101eb5780637d0b1026146101fe57806395d2cc92146101b057806396f11ac8146102115780639a2194a91461022457600080fd5b80632b3c6e22116100f45780632b3c6e221461017c5780632b69e24f1461019d57806333aa01e9146101b0578063392338f5146101b85780636f77926b146101cb57600080fd5b8063012cc1e21461012657806301ddf0701461013b578063094cd5ee1461014e57806312065fe014610161575b600080fd5b61013961013436600461146e565b6102a3565b005b61013961014936600461146e565b6102c8565b61013961015c36600461146e565b610409565b61016961049f565b6040519081526020015b60405180910390f35b61019061018a36600461149c565b50606090565b6040516101739190611510565b6101396101ab366004611661565b6104d2565b6101396105cc565b6101396101c63660046116ba565b6105f9565b6101de6101d936600461149c565b6108b6565b604051610173919061171e565b6101396101f936600461179b565b610ae8565b61013961020c36600461146e565b610c14565b61013961021f36600461149c565b610c9d565b61023761023236600461149c565b610d01565b60405161017391906117d8565b61013961025236600461149c565b610edb565b61013961026536600461188e565b610f28565b6101396102783660046118cb565b610f87565b61013961028b36600461192e565b610ff8565b61013961029e36600461146e565b6112e0565b60008181526002602052604081206005018054916102c08361197d565b919050555050565b60008181526001602052604090206006015481906001600160a01b0316330361030457604051631902ab3960e01b815260040160405180910390fd5b336000908152600660209081526040808320858452909152902054829060ff1615610342576040516383dcc1c160e01b815260040160405180910390fd5b600083815260016020526040812060040180549161035f8361197d565b90915550503360008181526006602090815260408083208784528252808320805460ff191660019081179091556005805491820181559093527f036b6384b5eca791c62761152d0c79bb0604c104a5fb6f4eb0703f3154bb3db090920180546001600160a01b031916841790558151868152908101929092527f0e092509bde1dd304f477e3ec921b6e4e5092738f70dcd204952ffc1ffdaafdf91015b60405180910390a1505050565b60008181526001602052604090206006015481906001600160a01b0316331461044557604051639ef3fcef60e01b815260040160405180910390fd5b60008281526001602081905260408220828155919061046690830182611418565b610474600283016000611418565b5060006003820181905560048201819055600582015560060180546001600160a01b03191690555050565b6003546000906001600160a01b031633146104cd5760405163aadd925760e01b815260040160405180910390fd5b504790565b6040805160c081018252600180825233602080840191825283850187815260608501878152426080870152600060a087018190526001600160a01b038b81168252600885528882208b83528552978120805480880182559082529390208651600690940201928355925182850180546001600160a01b0319169190971617909555935160028501555190928291600382019061056e9082611a2b565b506080820151600482015560a090910151600590910155604080518381523360208201529081018590527f570c388d7e67c5385cdf07a09cec156d8a9c96dc1811ef22258a6cc440cfa6399060600160405180910390a15050505050565b6003546001600160a01b031633146105f75760405163aadd925760e01b815260040160405180910390fd5b565b6001600081815260208281526040805160e081019091527fcc69885fda6bcc1a4ace058b4a62bf5e179ea78fd58a1ccd71c22cc9b688792f805482527fcc69885fda6bcc1a4ace058b4a62bf5e179ea78fd58a1ccd71c22cc9b688793080549293919291840191610669906119a4565b80601f0160208091040260200160405190810160405280929190818152602001828054610695906119a4565b80156106e25780601f106106b7576101008083540402835291602001916106e2565b820191906000526020600020905b8154815290600101906020018083116106c557829003601f168201915b505050505081526020016002820180546106fb906119a4565b80601f0160208091040260200160405190810160405280929190818152602001828054610727906119a4565b80156107745780601f1061074957610100808354040283529160200191610774565b820191906000526020600020905b81548152906001019060200180831161075757829003601f168201915b50505091835250506003820154602080830191909152600483015460408084019190915260058401546060808501919091526006909401546001600160a01b031660809093019290925285845283810188905283820187905242928401929092523360c084018190528151868152928301529192507f29c05e49ec69f11bd40335a9cb6a06fad27779987ab7b8d80448d642b1f592d5910160405180910390a13360009081526007602081815260408320805460018181018355918552938290208551949093029092019283558301518392918201906108549082611a2b565b50604082015160028201906108699082611a2b565b50606082015160038201556080820151600482015560a0820151600582015560c090910151600690910180546001600160a01b0319166001600160a01b0390921691909117905550505050565b6108f16040518060a001604052806000815260200160006001600160a01b031681526020016060815260200160608152602001606081525090565b6001600160a01b0380831660009081526020818152604091829020825160a08101845281548152600182015490941691840191909152600281018054919284019161093b906119a4565b80601f0160208091040260200160405190810160405280929190818152602001828054610967906119a4565b80156109b45780601f10610989576101008083540402835291602001916109b4565b820191906000526020600020905b81548152906001019060200180831161099757829003601f168201915b505050505081526020016003820180546109cd906119a4565b80601f01602080910402602001604051908101604052809291908181526020018280546109f9906119a4565b8015610a465780601f10610a1b57610100808354040283529160200191610a46565b820191906000526020600020905b815481529060010190602001808311610a2957829003601f168201915b50505050508152602001600482018054610a5f906119a4565b80601f0160208091040260200160405190810160405280929190818152602001828054610a8b906119a4565b8015610ad85780601f10610aad57610100808354040283529160200191610ad8565b820191906000526020600020905b815481529060010190602001808311610abb57829003601f168201915b5050505050815250509050919050565b336000818152602081905260409020600101546001600160a01b0316610b215760405163995cae5960e01b815260040160405180910390fd5b8160006001600160a01b0316600482604051610b3d9190611aeb565b908152604051908190036020019020546001600160a01b031614610b745760405163cd9c3c2960e01b815260040160405180910390fd5b33600090815260208190526040908190209051600491610b9991600290910190611b07565b90815260405190819003602001812080546001600160a01b03191690553390600490610bc6908690611aeb565b908152604080516020928190038301902080546001600160a01b0319166001600160a01b0394909416939093179092553360009081529081905220600201610c0e8482611a2b565b50505050565b60008181526002602052604090206001015481906001600160a01b03163314610c5057604051632585a1bd60e01b815260040160405180910390fd5b600082815260026020819052604082208281556001810180546001600160a01b031916905590810182905590610c896003830182611418565b506000600482018190556005909101555050565b6003546001600160a01b03163314610cc85760405163aadd925760e01b815260040160405180910390fd5b6040516001600160a01b038216904780156108fc02916000818181858888f19350505050158015610cfd573d6000803e3d6000fd5b5050565b6001600160a01b0381166000908152600760209081526040808320805482518185028101850190935280835260609492939192909184015b82821015610ed057838290600052602060002090600702016040518060e001604052908160008201548152602001600182018054610d76906119a4565b80601f0160208091040260200160405190810160405280929190818152602001828054610da2906119a4565b8015610def5780601f10610dc457610100808354040283529160200191610def565b820191906000526020600020905b815481529060010190602001808311610dd257829003601f168201915b50505050508152602001600282018054610e08906119a4565b80601f0160208091040260200160405190810160405280929190818152602001828054610e34906119a4565b8015610e815780601f10610e5657610100808354040283529160200191610e81565b820191906000526020600020905b815481529060010190602001808311610e6457829003601f168201915b5050509183525050600382015460208083019190915260048301546040830152600583015460608301526006909201546001600160a01b03166080909101529082526001929092019101610d39565b505050509050919050565b6003546001600160a01b03163314610f065760405163aadd925760e01b815260040160405180910390fd5b600380546001600160a01b0319166001600160a01b0392909216919091179055565b60008281526002602052604090206001015482906001600160a01b03163314610f6457604051632585a1bd60e01b815260040160405180910390fd5b600083815260026020526040902060038101610f808482611a2b565b5050505050565b60008381526001602052604090206006015483906001600160a01b03163314610fc357604051639ef3fcef60e01b815260040160405180910390fd5b6000848152600160208190526040909120908101610fe18582611a2b565b5060028101610ff08482611a2b565b505050505050565b8260006001600160a01b03166004826040516110149190611aeb565b908152604051908190036020019020546001600160a01b03161461104b5760405163cd9c3c2960e01b815260040160405180910390fd5b33600090815260208181526040808320815160a081018352815481526001828101546001600160a01b0316948201949094526002820180549495949193840191611094906119a4565b80601f01602080910402602001604051908101604052809291908181526020018280546110c0906119a4565b801561110d5780601f106110e25761010080835404028352916020019161110d565b820191906000526020600020905b8154815290600101906020018083116110f057829003601f168201915b50505050508152602001600382018054611126906119a4565b80601f0160208091040260200160405190810160405280929190818152602001828054611152906119a4565b801561119f5780601f106111745761010080835404028352916020019161119f565b820191906000526020600020905b81548152906001019060200180831161118257829003601f168201915b505050505081526020016004820180546111b8906119a4565b80601f01602080910402602001604051908101604052809291908181526020018280546111e4906119a4565b80156112315780601f1061120657610100808354040283529160200191611231565b820191906000526020600020905b81548152906001019060200180831161121457829003601f168201915b50505091909252505050828152336020820181905260408083018990526060830188905260808301879052519192509060049061126f908990611aeb565b90815260405190819003602001812080546001600160a01b03939093166001600160a01b0319909316929092179091557fe929886768f674b51d2ff55807f2b3b291d9a9379119da230bafabd81d39393a906112d090849033908a90611b7d565b60405180910390a1505050505050565b60008181526001602052604090206006015481906001600160a01b0316330361131c57604051631902ab3960e01b815260040160405180910390fd5b336000908152600660209081526040808320858452909152902054829060ff161561135a576040516383dcc1c160e01b815260040160405180910390fd5b60008381526001602052604081206005018054916113778361197d565b90915550503360008181526006602090815260408083208784528252808320805460ff191660019081179091556005805491820181559093527f036b6384b5eca791c62761152d0c79bb0604c104a5fb6f4eb0703f3154bb3db090920180546001600160a01b031916841790558151868152908101929092527fd1a80ff7224556d1f75ebb4aabff86e4c1b70cfedfc1c3e67eac663bc85b002791016103fc565b508054611424906119a4565b6000825580601f10611434575050565b601f0160209004906000526020600020908101906114529190611455565b50565b5b8082111561146a5760008155600101611456565b5090565b60006020828403121561148057600080fd5b5035919050565b6001600160a01b038116811461145257600080fd5b6000602082840312156114ae57600080fd5b81356114b981611487565b9392505050565b60005b838110156114db5781810151838201526020016114c3565b50506000910152565b600081518084526114fc8160208601602086016114c0565b601f01601f19169290920160200192915050565b600060208083018184528085518083526040925060408601915060408160051b87010184880160005b838110156115b057888303603f19018552815180518452878101516001600160a01b031688850152868101518785015260608082015160c08287018190529190611585838801826114e4565b6080858101519089015260a09485015194909701939093525050509386019390860190600101611539565b509098975050505050505050565b634e487b7160e01b600052604160045260246000fd5b600082601f8301126115e557600080fd5b813567ffffffffffffffff80821115611600576116006115be565b604051601f8301601f19908116603f01168101908282118183101715611628576116286115be565b8160405283815286602085880101111561164157600080fd5b836020870160208301376000602085830101528094505050505092915050565b60008060006060848603121561167657600080fd5b833561168181611487565b925060208401359150604084013567ffffffffffffffff8111156116a457600080fd5b6116b0868287016115d4565b9150509250925092565b600080604083850312156116cd57600080fd5b823567ffffffffffffffff808211156116e557600080fd5b6116f1868387016115d4565b9350602085013591508082111561170757600080fd5b50611714858286016115d4565b9150509250929050565b602081528151602082015260018060a01b0360208301511660408201526000604083015160a0606084015261175660c08401826114e4565b90506060840151601f198085840301608086015261177483836114e4565b925060808601519150808584030160a08601525061179282826114e4565b95945050505050565b6000602082840312156117ad57600080fd5b813567ffffffffffffffff8111156117c457600080fd5b6117d0848285016115d4565b949350505050565b600060208083018184528085518083526040925060408601915060408160051b87010184880160005b838110156115b057603f19898403018552815160e08151855288820151818a87015261182f828701826114e4565b915050878201518582038987015261184782826114e4565b606084810151908801526080808501519088015260a0808501519088015260c0938401516001600160a01b0316939096019290925250509386019390860190600101611801565b600080604083850312156118a157600080fd5b82359150602083013567ffffffffffffffff8111156118bf57600080fd5b611714858286016115d4565b6000806000606084860312156118e057600080fd5b83359250602084013567ffffffffffffffff808211156118ff57600080fd5b61190b878388016115d4565b9350604086013591508082111561192157600080fd5b506116b0868287016115d4565b60008060006060848603121561194357600080fd5b833567ffffffffffffffff8082111561195b57600080fd5b611967878388016115d4565b945060208601359150808211156118ff57600080fd5b60006001820161199d57634e487b7160e01b600052601160045260246000fd5b5060010190565b600181811c908216806119b857607f821691505b6020821081036119d857634e487b7160e01b600052602260045260246000fd5b50919050565b601f821115611a26576000816000526020600020601f850160051c81016020861015611a075750805b601f850160051c820191505b81811015610ff057828155600101611a13565b505050565b815167ffffffffffffffff811115611a4557611a456115be565b611a5981611a5384546119a4565b846119de565b602080601f831160018114611a8e5760008415611a765750858301515b600019600386901b1c1916600185901b178555610ff0565b600085815260208120601f198616915b82811015611abd57888601518255948401946001909101908401611a9e565b5085821015611adb5787850151600019600388901b60f8161c191681555b5050505050600190811b01905550565b60008251611afd8184602087016114c0565b9190910192915050565b6000808354611b15816119a4565b60018281168015611b2d5760018114611b4257611b71565b60ff1984168752821515830287019450611b71565b8760005260208060002060005b85811015611b685781548a820152908401908201611b4f565b50505082870194505b50929695505050505050565b8381526001600160a01b0383166020820152606060408201819052600090611792908301846114e456fea264697066735822122059270eb511a6a0bcdda0dac51277786176ed56deda2232de08af257555ed059e64736f6c63430008180033","linkReferences":{}},"methodIdentifiers":{"changeOwner(address)":"a6f9dae1","changeUsername(string)":"77c846af","createComment(address,uint256,string)":"2b69e24f","createPost(string,string)":"392338f5","deleteComment(uint256)":"7d0b1026","deletePost(uint256)":"094cd5ee","downvote(uint256)":"f31fdad4","editComment(uint256,string)":"ad816029","editPost(uint256,string,string)":"bf0ac63c","getBalance()":"12065fe0","getUser(address)":"6f77926b","getUserComments(address)":"2b3c6e22","getUserPosts(address)":"9a2194a9","likeComment(uint256)":"012cc1e2","registerUser(string,string,string)":"d637dcfa","startDapp()":"95d2cc92","stopDapp()":"33aa01e9","transferContractBalance(address)":"96f11ac8","upvote(uint256)":"01ddf070"},"id":0}