{"abi":[{"type":"constructor","inputs":[{"name":"priceFeed","type":"address","internalType":"address"},{"name":"interval","type":"uint256","internalType":"uint256"},{"name":"vrfCoordinator","type":"address","internalType":"address"},{"name":"gasLane","type":"bytes32","internalType":"bytes32"},{"name":"subscriptionId","type":"uint64","internalType":"uint64"},{"name":"callbackGasLimit","type":"uint32","internalType":"uint32"},{"name":"link","type":"address","internalType":"address"},{"name":"deployerKey","type":"uint256","internalType":"uint256"}],"stateMutability":"nonpayable"},{"type":"receive","stateMutability":"payable"},{"type":"function","name":"CheckUpkeep","inputs":[{"name":"","type":"bytes","internalType":"bytes"}],"outputs":[{"name":"upkeepNeeded","type":"bool","internalType":"bool"},{"name":"","type":"bytes","internalType":"bytes"}],"stateMutability":"nonpayable"},{"type":"function","name":"changeOwner","inputs":[{"name":"_newOwner","type":"address","internalType":"address"}],"outputs":[],"stateMutability":"nonpayable"},{"type":"function","name":"changeUsername","inputs":[{"name":"_newName","type":"string","internalType":"string"}],"outputs":[],"stateMutability":"nonpayable"},{"type":"function","name":"createComment","inputs":[{"name":"_postId","type":"uint256","internalType":"uint256"},{"name":"_content","type":"string","internalType":"string"}],"outputs":[],"stateMutability":"nonpayable"},{"type":"function","name":"createPost","inputs":[{"name":"_content","type":"string","internalType":"string"},{"name":"_imgHash","type":"string","internalType":"string"}],"outputs":[],"stateMutability":"nonpayable"},{"type":"function","name":"deleteComment","inputs":[{"name":"_postId","type":"uint256","internalType":"uint256"},{"name":"_commentId","type":"uint256","internalType":"uint256"}],"outputs":[],"stateMutability":"payable"},{"type":"function","name":"deletePost","inputs":[{"name":"_postId","type":"uint256","internalType":"uint256"}],"outputs":[],"stateMutability":"payable"},{"type":"function","name":"downvote","inputs":[{"name":"_postId","type":"uint256","internalType":"uint256"}],"outputs":[],"stateMutability":"nonpayable"},{"type":"function","name":"editComment","inputs":[{"name":"_postId","type":"uint256","internalType":"uint256"},{"name":"_commentId","type":"uint256","internalType":"uint256"},{"name":"_content","type":"string","internalType":"string"}],"outputs":[],"stateMutability":"payable"},{"type":"function","name":"editPost","inputs":[{"name":"_postId","type":"uint256","internalType":"uint256"},{"name":"_content","type":"string","internalType":"string"},{"name":"_imgHash","type":"string","internalType":"string"}],"outputs":[],"stateMutability":"payable"},{"type":"function","name":"getBalance","inputs":[],"outputs":[{"name":"","type":"uint256","internalType":"uint256"}],"stateMutability":"view"},{"type":"function","name":"getCommentByPostIdAndCommentId","inputs":[{"name":"_postId","type":"uint256","internalType":"uint256"},{"name":"_commentId","type":"uint256","internalType":"uint256"}],"outputs":[{"name":"","type":"tuple","internalType":"struct SocialMedia.Comment","components":[{"name":"commentId","type":"uint256","internalType":"uint256"},{"name":"author","type":"address","internalType":"address"},{"name":"postId","type":"uint256","internalType":"uint256"},{"name":"content","type":"string","internalType":"string"},{"name":"timestamp","type":"uint256","internalType":"uint256"},{"name":"likesCount","type":"uint256","internalType":"uint256"}]}],"stateMutability":"view"},{"type":"function","name":"getCommentLikersByPostIdAndCommentId","inputs":[{"name":"_postId","type":"uint256","internalType":"uint256"},{"name":"_commentId","type":"uint256","internalType":"uint256"}],"outputs":[{"name":"","type":"address[]","internalType":"address[]"}],"stateMutability":"view"},{"type":"function","name":"getContractOwner","inputs":[],"outputs":[{"name":"","type":"address","internalType":"address"}],"stateMutability":"view"},{"type":"function","name":"getIdsOfEligiblePosts","inputs":[],"outputs":[{"name":"","type":"uint256[]","internalType":"uint256[]"}],"stateMutability":"view"},{"type":"function","name":"getIdsOfRecentPosts","inputs":[],"outputs":[{"name":"","type":"uint256[]","internalType":"uint256[]"}],"stateMutability":"view"},{"type":"function","name":"getPostById","inputs":[{"name":"_postId","type":"uint256","internalType":"uint256"}],"outputs":[{"name":"","type":"tuple","internalType":"struct SocialMedia.Post","components":[{"name":"postId","type":"uint256","internalType":"uint256"},{"name":"content","type":"string","internalType":"string"},{"name":"imgHash","type":"string","internalType":"string"},{"name":"timestamp","type":"uint256","internalType":"uint256"},{"name":"upvotes","type":"uint256","internalType":"uint256"},{"name":"downvotes","type":"uint256","internalType":"uint256"},{"name":"author","type":"address","internalType":"address"}]}],"stateMutability":"view"},{"type":"function","name":"getRecentWinners","inputs":[],"outputs":[{"name":"","type":"uint256[]","internalType":"uint256[]"}],"stateMutability":"view"},{"type":"function","name":"getUsdValueOfEthAmount","inputs":[{"name":"_ethAmount","type":"uint256","internalType":"uint256"}],"outputs":[{"name":"","type":"uint256","internalType":"uint256"}],"stateMutability":"view"},{"type":"function","name":"getUser","inputs":[{"name":"_userAddress","type":"address","internalType":"address"}],"outputs":[{"name":"","type":"tuple","internalType":"struct SocialMedia.User","components":[{"name":"id","type":"uint256","internalType":"uint256"},{"name":"userAddress","type":"address","internalType":"address"},{"name":"name","type":"string","internalType":"string"},{"name":"bio","type":"string","internalType":"string"},{"name":"profileImageHash","type":"string","internalType":"string"}]}],"stateMutability":"view"},{"type":"function","name":"getUserById","inputs":[{"name":"_userId","type":"uint256","internalType":"uint256"}],"outputs":[{"name":"","type":"tuple","internalType":"struct SocialMedia.User","components":[{"name":"id","type":"uint256","internalType":"uint256"},{"name":"userAddress","type":"address","internalType":"address"},{"name":"name","type":"string","internalType":"string"},{"name":"bio","type":"string","internalType":"string"},{"name":"profileImageHash","type":"string","internalType":"string"}]}],"stateMutability":"view"},{"type":"function","name":"getUserComments","inputs":[{"name":"_userAddress","type":"address","internalType":"address"}],"outputs":[{"name":"","type":"tuple[]","internalType":"struct SocialMedia.Comment[]","components":[{"name":"commentId","type":"uint256","internalType":"uint256"},{"name":"author","type":"address","internalType":"address"},{"name":"postId","type":"uint256","internalType":"uint256"},{"name":"content","type":"string","internalType":"string"},{"name":"timestamp","type":"uint256","internalType":"uint256"},{"name":"likesCount","type":"uint256","internalType":"uint256"}]}],"stateMutability":"view"},{"type":"function","name":"getUserNameFromAddress","inputs":[{"name":"_userAddress","type":"address","internalType":"address"}],"outputs":[{"name":"nameOfUser","type":"string","internalType":"string"}],"stateMutability":"view"},{"type":"function","name":"getUserPosts","inputs":[{"name":"_userAddress","type":"address","internalType":"address"}],"outputs":[{"name":"","type":"tuple[]","internalType":"struct SocialMedia.Post[]","components":[{"name":"postId","type":"uint256","internalType":"uint256"},{"name":"content","type":"string","internalType":"string"},{"name":"imgHash","type":"string","internalType":"string"},{"name":"timestamp","type":"uint256","internalType":"uint256"},{"name":"upvotes","type":"uint256","internalType":"uint256"},{"name":"downvotes","type":"uint256","internalType":"uint256"},{"name":"author","type":"address","internalType":"address"}]}],"stateMutability":"view"},{"type":"function","name":"likeComment","inputs":[{"name":"_postId","type":"uint256","internalType":"uint256"},{"name":"_commentId","type":"uint256","internalType":"uint256"}],"outputs":[],"stateMutability":"nonpayable"},{"type":"function","name":"performUpkeep","inputs":[{"name":"","type":"bytes","internalType":"bytes"}],"outputs":[],"stateMutability":"nonpayable"},{"type":"function","name":"rawFulfillRandomWords","inputs":[{"name":"requestId","type":"uint256","internalType":"uint256"},{"name":"randomWords","type":"uint256[]","internalType":"uint256[]"}],"outputs":[],"stateMutability":"nonpayable"},{"type":"function","name":"registerUser","inputs":[{"name":"_name","type":"string","internalType":"string"},{"name":"_bio","type":"string","internalType":"string"},{"name":"_profileImageHash","type":"string","internalType":"string"}],"outputs":[],"stateMutability":"nonpayable"},{"type":"function","name":"transferContractBalance","inputs":[{"name":"_to","type":"address","internalType":"address payable"}],"outputs":[],"stateMutability":"nonpayable"},{"type":"function","name":"upvote","inputs":[{"name":"_postId","type":"uint256","internalType":"uint256"}],"outputs":[],"stateMutability":"nonpayable"},{"type":"event","name":"CommentCreated","inputs":[{"name":"commentId","type":"uint256","indexed":true,"internalType":"uint256"},{"name":"postAuthor","type":"string","indexed":false,"internalType":"string"},{"name":"commentAuthor","type":"string","indexed":false,"internalType":"string"},{"name":"postId","type":"uint256","indexed":false,"internalType":"uint256"}],"anonymous":false},{"type":"event","name":"Downvoted","inputs":[{"name":"postId","type":"uint256","indexed":false,"internalType":"uint256"},{"name":"posthAuthorName","type":"string","indexed":false,"internalType":"string"},{"name":"downvoterName","type":"string","indexed":false,"internalType":"string"}],"anonymous":false},{"type":"event","name":"PickedWinner","inputs":[{"name":"winner","type":"address","indexed":false,"internalType":"address"}],"anonymous":false},{"type":"event","name":"PostCreated","inputs":[{"name":"postId","type":"uint256","indexed":false,"internalType":"uint256"},{"name":"authorName","type":"string","indexed":false,"internalType":"string"}],"anonymous":false},{"type":"event","name":"PostEdited","inputs":[{"name":"postId","type":"uint256","indexed":false,"internalType":"uint256"},{"name":"authorName","type":"string","indexed":false,"internalType":"string"}],"anonymous":false},{"type":"event","name":"PostLiked","inputs":[{"name":"postId","type":"uint256","indexed":true,"internalType":"uint256"},{"name":"postAuthor","type":"address","indexed":true,"internalType":"address"},{"name":"liker","type":"address","indexed":true,"internalType":"address"}],"anonymous":false},{"type":"event","name":"RequestWinningAuthor","inputs":[{"name":"requestId","type":"uint256","indexed":false,"internalType":"uint256"}],"anonymous":false},{"type":"event","name":"RewardSent","inputs":[{"name":"user","type":"address","indexed":true,"internalType":"address"},{"name":"amount","type":"uint256","indexed":false,"internalType":"uint256"}],"anonymous":false},{"type":"event","name":"Upvoted","inputs":[{"name":"postId","type":"uint256","indexed":false,"internalType":"uint256"},{"name":"posthAuthorName","type":"string","indexed":false,"internalType":"string"},{"name":"upvoterName","type":"string","indexed":false,"internalType":"string"}],"anonymous":false},{"type":"event","name":"UserRegistered","inputs":[{"name":"id","type":"uint256","indexed":true,"internalType":"uint256"},{"name":"userAddress","type":"address","indexed":true,"internalType":"address"},{"name":"name","type":"string","indexed":true,"internalType":"string"}],"anonymous":false},{"type":"error","name":"OnlyCoordinatorCanFulfill","inputs":[{"name":"have","type":"address","internalType":"address"},{"name":"want","type":"address","internalType":"address"}]},{"type":"error","name":"SocialMedia__AlreadyVoted","inputs":[]},{"type":"error","name":"SocialMedia__BatchTransferFailed","inputs":[{"name":"winner","type":"address","internalType":"address"}]},{"type":"error","name":"SocialMedia__NotCommentOwner","inputs":[]},{"type":"error","name":"SocialMedia__NotOwner","inputs":[]},{"type":"error","name":"SocialMedia__NotPostOwner","inputs":[]},{"type":"error","name":"SocialMedia__OwnerCannotVote","inputs":[]},{"type":"error","name":"SocialMedia__PaymentNotEnough","inputs":[]},{"type":"error","name":"SocialMedia__TransferFailed","inputs":[]},{"type":"error","name":"SocialMedia__UpkeepNotNeeded","inputs":[{"name":"balance","type":"uint256","internalType":"uint256"},{"name":"numOfEligibleAuthors","type":"uint256","internalType":"uint256"}]},{"type":"error","name":"SocialMedia__UserDoesNotExist","inputs":[]},{"type":"error","name":"SocialMedia__UsernameAlreadyTaken","inputs":[]}],"bytecode":{"object":"0x6101406040523480156200001257600080fd5b50604051620036d1380380620036d18339810160408190526200003591620000bd565b50506001600160a01b039384166080819052601480546001600160a01b03199081163317909155600080549890961697169690961790935560a0939093524260015560c09390935260e0929092526001600160401b03166101005263ffffffff166101205262000163565b80516001600160a01b0381168114620000b857600080fd5b919050565b600080600080600080600080610100898b031215620000db57600080fd5b620000e689620000a0565b975060208901519650620000fd60408a01620000a0565b60608a015160808b015191975095506001600160401b03811681146200012257600080fd5b60a08a015190945063ffffffff811681146200013d57600080fd5b92506200014d60c08a01620000a0565b915060e089015190509295985092959890939650565b60805160a05160c05160e0516101005161012051613517620001ba60003960006111f7015260006111c90152600061119b0152600061122801526000611f70015260008181610854015261089601526135176000f3fe6080604052600436106101d15760003560e01c80636f77926b116100f7578063a6f9dae111610095578063e96c520b11610064578063e96c520b14610568578063f077b97414610588578063f31fdad41461059d578063fa561152146105bd57600080fd5b8063a6f9dae1146104e7578063bf0ac63c14610507578063c9fbacf31461051a578063d637dcfa1461054857600080fd5b806396f11ac8116100d157806396f11ac814610465578063984d1015146104855780639a2194a91461049a578063a0e91821146104c757600080fd5b80636f77926b146103f857806377c846af146104185780638dc4a0661461043857600080fd5b8063392338f51161016f5780634585e33b1161013e5780634585e33b146103515780636372af841461037157806364e958951461039e5780636ed6da9e146103cb57600080fd5b8063392338f5146102bc57806340a17985146102dc5780634296db5b146102fc578063442890d51461032957600080fd5b80631fe543e3116101ab5780631fe543e31461023a5780632b3c6e221461025a5780632d492c831461028757806331a4bcb5146102a957600080fd5b806301ddf070146101dd578063094cd5ee146101ff57806312065fe01461021257600080fd5b366101d857005b600080fd5b3480156101e957600080fd5b506101fd6101f83660046129fd565b6105d0565b005b6101fd61020d3660046129fd565b61070f565b34801561021e57600080fd5b50610227610816565b6040519081526020015b60405180910390f35b34801561024657600080fd5b506101fd610255366004612a5c565b610849565b34801561026657600080fd5b5061027a610275366004612b25565b6108d6565b6040516102319190612bed565b34801561029357600080fd5b5061029c610a1c565b6040516102319190612c51565b6101fd6102b7366004612c95565b610a74565b3480156102c857600080fd5b506101fd6102d7366004612d2e565b610ba0565b3480156102e857600080fd5b506101fd6102f7366004612d91565b610e13565b34801561030857600080fd5b5061031c610317366004612c95565b610f92565b6040516102319190612dcd565b34801561033557600080fd5b506014546040516001600160a01b039091168152602001610231565b34801561035d57600080fd5b506101fd61036c366004612de0565b6110ff565b34801561037d57600080fd5b5061039161038c366004612b25565b6112de565b6040516102319190612e51565b3480156103aa57600080fd5b506103be6103b93660046129fd565b6114df565b6040516102319190612ed9565b3480156103d757600080fd5b506103eb6103e63660046129fd565b6116ba565b6040516102319190612eec565b34801561040457600080fd5b506103eb610413366004612b25565b6118e4565b34801561042457600080fd5b506101fd610433366004612f60565b611938565b34801561044457600080fd5b50610458610453366004612c95565b611a0f565b6040516102319190612f9c565b34801561047157600080fd5b506101fd610480366004612b25565b611a84565b34801561049157600080fd5b5061029c611ae4565b3480156104a657600080fd5b506104ba6104b5366004612b25565b611b3a565b6040516102319190612fdd565b3480156104d357600080fd5b506101fd6104e2366004612c95565b611d09565b3480156104f357600080fd5b506101fd610502366004612b25565b611dea565b6101fd610515366004613034565b611e37565b34801561052657600080fd5b5061053a6105353660046130a0565b611f60565b6040516102319291906130e8565b34801561055457600080fd5b506101fd610563366004613103565b611fe6565b34801561057457600080fd5b506102276105833660046129fd565b61225c565b34801561059457600080fd5b5061029c61227d565b3480156105a957600080fd5b506101fd6105b83660046129fd565b6122d3565b6101fd6105cb366004613151565b612402565b6000818152600b602052604090205481906001600160a01b0316330361060957604051631902ab3960e01b815260040160405180910390fd5b336000908152600d60209081526040808320858452909152902054829060ff1615610647576040516383dcc1c160e01b815260040160405180910390fd5b6006838154811061065a5761065a613196565b600091825260208220600460079092020101805491610678836131c2565b9091555050336000908152600d602090815260408083208684528252808320805460ff19166001179055600b9091528120546001600160a01b0316906106bd826112de565b905060006106ca336112de565b90507fa036d403d7739d8360e6171b2fbf68a0dfef33d6c6f432a236f6c3cdbb3cfee68683836040516106ff939291906131db565b60405180910390a1505050505050565b6000818152600b602052604090205481906001600160a01b0316331461074857604051639ef3fcef60e01b815260040160405180910390fd5b600054674563918244f40000906107699034906001600160a01b03166124cf565b1015610787576040516217124560e91b815260040160405180910390fd5b60405180602001604052806000815250600683815481106107aa576107aa613196565b906000526020600020906007020160010190816107c79190613297565b506000600683815481106107dd576107dd613196565b906000526020600020906007020160060160006101000a8154816001600160a01b0302191690836001600160a01b031602179055505050565b6014546000906001600160a01b031633146108445760405163aadd925760e01b815260040160405180910390fd5b504790565b336001600160a01b037f000000000000000000000000000000000000000000000000000000000000000016146108c85760405163073e64fd60e21b81523360048201526001600160a01b037f00000000000000000000000000000000000000000000000000000000000000001660248201526044015b60405180910390fd5b6108d28282612505565b5050565b6001600160a01b0381166000908152601160209081526040808320805482518185028101850190935280835260609492939192909184015b82821015610a115760008481526020908190206040805160c081018252600686029092018054835260018101546001600160a01b03169383019390935260028301549082015260038201805491929160608401919061096c90613210565b80601f016020809104026020016040519081016040528092919081815260200182805461099890613210565b80156109e55780601f106109ba576101008083540402835291602001916109e5565b820191906000526020600020905b8154815290600101906020018083116109c857829003601f168201915b50505050508152602001600482015481526020016005820154815250508152602001906001019061090e565b505050509050919050565b60606016805480602002602001604051908101604052809291908181526020018280548015610a6a57602002820191906000526020600020905b815481526020019060010190808311610a56575b5050505050905090565b6000828152601060209081526040808320848452909152902054829082906001600160a01b03163314610aba57604051632585a1bd60e01b815260040160405180910390fd5b600054674563918244f4000090610adb9034906001600160a01b03166124cf565b1015610af9576040516217124560e91b815260040160405180910390fd5b60408051602080820183526000808352878152600f90915291909120805485908110610b2757610b27613196565b90600052602060002090600602016003019081610b449190613297565b506000848152600f60205260408120805485908110610b6557610b65613196565b906000526020600020906006020160010160006101000a8154816001600160a01b0302191690836001600160a01b0316021790555050505050565b336000818152600360205260409020600101546001600160a01b0316610bd95760405163995cae5960e01b815260040160405180910390fd5b6006546040805160e0810182528281526020810186905290810184905242606082015260006080820181905260a082018190523360c08301819052610c1d906112de565b336000908152600e60209081526040822080546001818101835591845292829020865160079094020192835590850151929350849290820190610c609082613297565b5060408201516002820190610c759082613297565b50606082015160038201556080820151600482015560a0820151600582015560c090910151600691820180546001600160a01b0319166001600160a01b03909216919091179055805460018101825560009190915282517ff652222313e28459528d920b65115c16c04f3efc82aaedc97be59f3f377c0d3f6007909202918201908155602084015184927ff652222313e28459528d920b65115c16c04f3efc82aaedc97be59f3f377c0d400190610d2c9082613297565b5060408201516002820190610d419082613297565b50606082015160038201556080820151600482015560a0820151600582015560c090910151600690910180546001600160a01b039092166001600160a01b0319928316179055825160078054600181019091557fa66cc928b5edb82af9bd49922954155ab7b0942694bea4ce44661d9a8736c6880155336000818152600a60209081526040808320889055878352600b909152908190208054909316909117909155517f3d4335cbfac350aa27a3fa09060b4691656ecbe3033f4d953849c2f755f230d1906106ff9085908490613356565b336000818152600360205260409020600101546001600160a01b0316610e4c5760405163995cae5960e01b815260040160405180910390fd5b6000838152600f6020908152604080832054815160c08101835281815233938101939093529082018690526060820185905242608083015260a0820183905291610e95866116ba565b6040015190506000610ea6336112de565b600088815260106020908152604080832088845282528083208054336001600160a01b0319918216179091558b8452600f83528184208054600181810183559186529484902089516006909602019485559288015192840180549091166001600160a01b03909316929092179091558501516002820155606085015191925084916003820190610f369082613297565b506080820151816004015560a082015181600501555050837f915184b2a0bfb3b827755b4e9e718f684996cef7b75bad20f26cd2fd67396c7783838a604051610f819392919061336f565b60405180910390a250505050505050565b610fd46040518060c001604052806000815260200160006001600160a01b03168152602001600081526020016060815260200160008152602001600081525090565b6000838152600f60205260409020805483908110610ff457610ff4613196565b90600052602060002090600602016040518060c0016040529081600082015481526020016001820160009054906101000a90046001600160a01b03166001600160a01b03166001600160a01b031681526020016002820154815260200160038201805461106090613210565b80601f016020809104026020016040519081016040528092919081815260200182805461108c90613210565b80156110d95780601f106110ae576101008083540402835291602001916110d9565b820191906000526020600020905b8154815290600101906020018083116110bc57829003601f168201915b505050505081526020016004820154815260200160058201548152505090505b92915050565b6000611123604051806040016040528060018152602001600160fd1b815250611f60565b509050806111515760165460405163280d711960e21b815247600482015260248101919091526044016108bf565b601654601410156111705760165461116b90600a906133bb565b611173565b60015b6018805463ffffffff191663ffffffff9283169081179091556040516305d3b1d360e41b81527f000000000000000000000000000000000000000000000000000000000000000060048201526001600160401b037f0000000000000000000000000000000000000000000000000000000000000000166024820152600360448201527f0000000000000000000000000000000000000000000000000000000000000000909216606483015260848201526000907f00000000000000000000000000000000000000000000000000000000000000006001600160a01b031690635d3b1d309060a4016020604051808303816000875af1158015611279573d6000803e3d6000fd5b505050506040513d601f19601f8201168201806040525081019061129d91906133cf565b90507f0aa5a4e8e459a1f6485b98194bbe2e07647a58e7dd6d2a9923441b4d569c3077816040516112d091815260200190565b60405180910390a150505050565b6001600160a01b038082166000908152600360209081526040808320815160a0810183528154815260018201549095169285019290925260028201805460609593928401919061132d90613210565b80601f016020809104026020016040519081016040528092919081815260200182805461135990613210565b80156113a65780601f1061137b576101008083540402835291602001916113a6565b820191906000526020600020905b81548152906001019060200180831161138957829003601f168201915b505050505081526020016003820180546113bf90613210565b80601f01602080910402602001604051908101604052809291908181526020018280546113eb90613210565b80156114385780601f1061140d57610100808354040283529160200191611438565b820191906000526020600020905b81548152906001019060200180831161141b57829003601f168201915b5050505050815260200160048201805461145190613210565b80601f016020809104026020016040519081016040528092919081815260200182805461147d90613210565b80156114ca5780601f1061149f576101008083540402835291602001916114ca565b820191906000526020600020905b8154815290600101906020018083116114ad57829003601f168201915b50505091909252505050604001519392505050565b6115286040518060e0016040528060008152602001606081526020016060815260200160008152602001600081526020016000815260200160006001600160a01b031681525090565b6006828154811061153b5761153b613196565b90600052602060002090600702016040518060e00160405290816000820154815260200160018201805461156e90613210565b80601f016020809104026020016040519081016040528092919081815260200182805461159a90613210565b80156115e75780601f106115bc576101008083540402835291602001916115e7565b820191906000526020600020905b8154815290600101906020018083116115ca57829003601f168201915b5050505050815260200160028201805461160090613210565b80601f016020809104026020016040519081016040528092919081815260200182805461162c90613210565b80156116795780601f1061164e57610100808354040283529160200191611679565b820191906000526020600020905b81548152906001019060200180831161165c57829003601f168201915b50505091835250506003820154602082015260048201546040820152600582015460608201526006909101546001600160a01b031660809091015292915050565b6116c2612965565b600282815481106116d5576116d5613196565b90600052602060002090600502016040518060a0016040529081600082015481526020016001820160009054906101000a90046001600160a01b03166001600160a01b03166001600160a01b0316815260200160028201805461173790613210565b80601f016020809104026020016040519081016040528092919081815260200182805461176390613210565b80156117b05780601f10611785576101008083540402835291602001916117b0565b820191906000526020600020905b81548152906001019060200180831161179357829003601f168201915b505050505081526020016003820180546117c990613210565b80601f01602080910402602001604051908101604052809291908181526020018280546117f590613210565b80156118425780601f1061181757610100808354040283529160200191611842565b820191906000526020600020905b81548152906001019060200180831161182557829003601f168201915b5050505050815260200160048201805461185b90613210565b80601f016020809104026020016040519081016040528092919081815260200182805461188790613210565b80156118d45780601f106118a9576101008083540402835291602001916118d4565b820191906000526020600020905b8154815290600101906020018083116118b757829003601f168201915b5050505050815250509050919050565b6118ec612965565b6001600160a01b03808316600090815260036020908152604091829020825160a08101845281548152600182015490941691840191909152600281018054919284019161173790613210565b336000818152600360205260409020600101546001600160a01b03166119715760405163995cae5960e01b815260040160405180910390fd5b8160006001600160a01b0316600c8260405161198d91906133e8565b908152604051908190036020019020546001600160a01b0316146119c45760405163cd9c3c2960e01b815260040160405180910390fd5b3360009081526005602052604090205460028054859190839081106119eb576119eb613196565b90600052602060002090600502016002019081611a089190613297565b5050505050565b6000828152601360209081526040808320848452825291829020805483518184028101840190945280845260609392830182828015611a7757602002820191906000526020600020905b81546001600160a01b03168152600190910190602001808311611a59575b5050505050905092915050565b6014546001600160a01b03163314611aaf5760405163aadd925760e01b815260040160405180910390fd5b6040516001600160a01b038216904780156108fc02916000818181858888f193505050501580156108d2573d6000803e3d6000fd5b60606007805480602002602001604051908101604052809291908181526020018280548015610a6a5760200282019190600052602060002090815481526020019060010190808311610a56575050505050905090565b6001600160a01b0381166000908152600e60209081526040808320805482518185028101850190935280835260609492939192909184015b82821015610a1157838290600052602060002090600702016040518060e001604052908160008201548152602001600182018054611baf90613210565b80601f0160208091040260200160405190810160405280929190818152602001828054611bdb90613210565b8015611c285780601f10611bfd57610100808354040283529160200191611c28565b820191906000526020600020905b815481529060010190602001808311611c0b57829003601f168201915b50505050508152602001600282018054611c4190613210565b80601f0160208091040260200160405190810160405280929190818152602001828054611c6d90613210565b8015611cba5780601f10611c8f57610100808354040283529160200191611cba565b820191906000526020600020905b815481529060010190602001808311611c9d57829003601f168201915b5050509183525050600382015460208083019190915260048301546040830152600583015460608301526006909201546001600160a01b03166080909101529082526001929092019101611b72565b336000818152600360205260409020600101546001600160a01b0316611d425760405163995cae5960e01b815260040160405180910390fd5b6000838152600f60205260409020805483908110611d6257611d62613196565b600091825260208220600560069092020101805491611d80836131c2565b9091555050506000828152601260209081526040808320848452825280832033808552908352818420805460ff19166001908117909155958452601383528184209484529382528220805494850181558252902090910180546001600160a01b0319169091179055565b6014546001600160a01b03163314611e155760405163aadd925760e01b815260040160405180910390fd5b601480546001600160a01b0319166001600160a01b0392909216919091179055565b6000838152600b602052604090205483906001600160a01b03163314611e7057604051639ef3fcef60e01b815260040160405180910390fd5b600054674563918244f4000090611e919034906001600160a01b03166124cf565b1015611eaf576040516217124560e91b815260040160405180910390fd5b8260068581548110611ec357611ec3613196565b90600052602060002090600702016001019081611ee09190613297565b508160068581548110611ef557611ef5613196565b90600052602060002090600702016002019081611f129190613297565b506000611f1e336112de565b90507f7009e6824c3ecb1321da2ebabc18901b48d900a97f978c5a93dd3ba8cfe590358582604051611f51929190613356565b60405180910390a15050505050565b60006060611f6c612810565b60007f000000000000000000000000000000000000000000000000000000000000000060015442611f9d9190613404565b601654911180159250471515911515908390611fb65750815b8015611fbf5750805b60408051808201909152600381526203078360ec1b60208201529097909650945050505050565b8260006001600160a01b0316600c8260405161200291906133e8565b908152604051908190036020019020546001600160a01b0316146120395760405163cd9c3c2960e01b815260040160405180910390fd5b600480546000918261204a836131c2565b919050559050612058612965565b81815233602080830182815260408085018a8152606086018a905260808601899052600094855260039093529092208351815591516001830180546001600160a01b0319166001600160a01b039092169190911790555182919060028201906120c19082613297565b50606082015160038201906120d69082613297565b50608082015160048201906120eb9082613297565b5050336000818152600560205260409081902085905551909150600c906121139089906133e8565b908152604080516020928190038301902080546001600160a01b03199081166001600160a01b03958616179091556002805460018101825560009190915285517f405787fa12a823e0f2b7631cc41b3ba8828b3321ca811111fa75cd3aa3bb5ace6005909202918201908155938601517f405787fa12a823e0f2b7631cc41b3ba8828b3321ca811111fa75cd3aa3bb5acf82018054909316951694909417905583015183927f405787fa12a823e0f2b7631cc41b3ba8828b3321ca811111fa75cd3aa3bb5ad001906121e59082613297565b50606082015160038201906121fa9082613297565b506080820151600482019061220f9082613297565b5050508560405161222091906133e8565b60405190819003812090339084907f8d76d60617424d83544323e2322cb8d86537451c9b3d991886ce6f4721e3865e90600090a4505050505050565b6000805481906122769084906001600160a01b03166124cf565b9392505050565b60606017805480602002602001604051908101604052809291908181526020018280548015610a6a5760200282019190600052602060002090815481526020019060010190808311610a56575050505050905090565b6000818152600b602052604090205481906001600160a01b0316330361230c57604051631902ab3960e01b815260040160405180910390fd5b336000908152600d60209081526040808320858452909152902054829060ff161561234a576040516383dcc1c160e01b815260040160405180910390fd5b6006838154811061235d5761235d613196565b60009182526020822060056007909202010180549161237b836131c2565b9091555050336000908152600d602090815260408083208684528252808320805460ff19166001179055600b9091528120546001600160a01b0316906123c0826112de565b905060006123cd336112de565b90507fd7ad3e52dbe8b445d900fd8aa659c95d5b75bb6733c12e7f22d048963bd39ed58683836040516106ff939291906131db565b6000838152601060209081526040808320858452909152902054839083906001600160a01b0316331461244857604051632585a1bd60e01b815260040160405180910390fd5b600054674563918244f40000906124699034906001600160a01b03166124cf565b1015612487576040516217124560e91b815260040160405180910390fd5b6000858152600f602052604090208054849190869081106124aa576124aa613196565b906000526020600020906006020160030190816124c79190613297565b505050505050565b6000806124db83612886565b90506000670de0b6b3a76400006124f28387613417565b6124fc919061342e565b95945050505050565b60408051600081526020810191829052516125229160179161299d565b5080516001036126995760006016805490508260008151811061254757612547613196565b602002602001015161255991906133bb565b905060006016828154811061257057612570613196565b6000918252602082200154601780546001810182559083527fc624b66cc0138b8fabc209247f72d758e1cf3343756d543badbf24212bed8c150181905591506125b8826114df565b60c0015160408051600081526020810191829052519192506125dd916007919061299d565b50426001556040516001600160a01b03821681527fb112587e57bfa970257f3d54fc52859c6300f6bd7a982462c320fed45c2530ed9060200160405180910390a16000816001600160a01b0316662386f26fc1000060405160006040518083038185875af1925050503d8060008114612672576040519150601f19603f3d011682016040523d82523d6000602084013e612677565b606091505b50509050806124c75760405163344efcaf60e21b815260040160405180910390fd5b805160005b8181101561280a5760006016805490508483815181106126c0576126c0613196565b60200260200101516126d291906133bb565b90506000601682815481106126e9576126e9613196565b6000918252602082200154601780546001810182559083527fc624b66cc0138b8fabc209247f72d758e1cf3343756d543badbf24212bed8c15018190559150612731826114df565b60c001516040516001600160a01b03821681529091507fb112587e57bfa970257f3d54fc52859c6300f6bd7a982462c320fed45c2530ed9060200160405180910390a16000816001600160a01b0316662386f26fc1000060405160006040518083038185875af1925050503d80600081146127c8576040519150601f19603f3d011682016040523d82523d6000602084013e6127cd565b606091505b50509050806127fa57604051634b58e08160e11b81526001600160a01b03831660048201526024016108bf565b50506001909201915061269e9050565b50505050565b60075460005b818110156108d2576128446007828154811061283457612834613196565b9060005260206000200154612902565b1561287e5760166007828154811061285e5761285e613196565b600091825260208083209091015483546001810185559383529120909101555b600101612816565b600080826001600160a01b031663feaf968c6040518163ffffffff1660e01b815260040160a060405180830381865afa1580156128c7573d6000803e3d6000fd5b505050506040513d601f19601f820116820180604052508101906128eb9190613461565b505050915050806402540be40061227691906134b1565b60008061290e836114df565b608001519050600061291f846114df565b60a0015190506000806129328385613404565b1161293e576000612948565b6129488284613404565b9050600581101561295a5760006124fc565b600195945050505050565b6040518060a001604052806000815260200160006001600160a01b031681526020016060815260200160608152602001606081525090565b8280548282559060005260206000209081019282156129d8579160200282015b828111156129d85782518255916020019190600101906129bd565b506129e49291506129e8565b5090565b5b808211156129e457600081556001016129e9565b600060208284031215612a0f57600080fd5b5035919050565b634e487b7160e01b600052604160045260246000fd5b604051601f8201601f191681016001600160401b0381118282101715612a5457612a54612a16565b604052919050565b60008060408385031215612a6f57600080fd5b823591506020808401356001600160401b0380821115612a8e57600080fd5b818601915086601f830112612aa257600080fd5b813581811115612ab457612ab4612a16565b8060051b9150612ac5848301612a2c565b8181529183018401918481019089841115612adf57600080fd5b938501935b83851015612afd57843582529385019390850190612ae4565b8096505050505050509250929050565b6001600160a01b0381168114612b2257600080fd5b50565b600060208284031215612b3757600080fd5b813561227681612b0d565b60005b83811015612b5d578181015183820152602001612b45565b50506000910152565b60008151808452612b7e816020860160208601612b42565b601f01601f19169290920160200192915050565b8051825260018060a01b036020820151166020830152604081015160408301526000606082015160c06060850152612bcd60c0850182612b66565b90506080830151608085015260a083015160a08501528091505092915050565b600060208083016020845280855180835260408601915060408160051b87010192506020870160005b82811015612c4457603f19888603018452612c32858351612b92565b94509285019290850190600101612c16565b5092979650505050505050565b6020808252825182820181905260009190848201906040850190845b81811015612c8957835183529284019291840191600101612c6d565b50909695505050505050565b60008060408385031215612ca857600080fd5b50508035926020909101359150565b60006001600160401b03831115612cd057612cd0612a16565b612ce3601f8401601f1916602001612a2c565b9050828152838383011115612cf757600080fd5b828260208301376000602084830101529392505050565b600082601f830112612d1f57600080fd5b61227683833560208501612cb7565b60008060408385031215612d4157600080fd5b82356001600160401b0380821115612d5857600080fd5b612d6486838701612d0e565b93506020850135915080821115612d7a57600080fd5b50612d8785828601612d0e565b9150509250929050565b60008060408385031215612da457600080fd5b8235915060208301356001600160401b03811115612dc157600080fd5b612d8785828601612d0e565b6020815260006122766020830184612b92565b60008060208385031215612df357600080fd5b82356001600160401b0380821115612e0a57600080fd5b818501915085601f830112612e1e57600080fd5b813581811115612e2d57600080fd5b866020828501011115612e3f57600080fd5b60209290920196919550909350505050565b6020815260006122766020830184612b66565b805182526000602082015160e06020850152612e8360e0850182612b66565b905060408301518482036040860152612e9c8282612b66565b606085810151908701526080808601519087015260a0808601519087015260c0948501516001600160a01b03169490950193909352509192915050565b6020815260006122766020830184612e64565b602081528151602082015260018060a01b0360208301511660408201526000604083015160a06060840152612f2460c0840182612b66565b90506060840151601f1980858403016080860152612f428383612b66565b925060808601519150808584030160a0860152506124fc8282612b66565b600060208284031215612f7257600080fd5b81356001600160401b03811115612f8857600080fd5b612f9484828501612d0e565b949350505050565b6020808252825182820181905260009190848201906040850190845b81811015612c895783516001600160a01b031683529284019291840191600101612fb8565b600060208083016020845280855180835260408601915060408160051b87010192506020870160005b82811015612c4457603f19888603018452613022858351612e64565b94509285019290850190600101613006565b60008060006060848603121561304957600080fd5b8335925060208401356001600160401b038082111561306757600080fd5b61307387838801612d0e565b9350604086013591508082111561308957600080fd5b5061309686828701612d0e565b9150509250925092565b6000602082840312156130b257600080fd5b81356001600160401b038111156130c857600080fd5b8201601f810184136130d957600080fd5b612f9484823560208401612cb7565b8215158152604060208201526000612f946040830184612b66565b60008060006060848603121561311857600080fd5b83356001600160401b038082111561312f57600080fd5b61313b87838801612d0e565b9450602086013591508082111561306757600080fd5b60008060006060848603121561316657600080fd5b833592506020840135915060408401356001600160401b0381111561318a57600080fd5b61309686828701612d0e565b634e487b7160e01b600052603260045260246000fd5b634e487b7160e01b600052601160045260246000fd5b6000600182016131d4576131d46131ac565b5060010190565b8381526060602082015260006131f46060830185612b66565b82810360408401526132068185612b66565b9695505050505050565b600181811c9082168061322457607f821691505b60208210810361324457634e487b7160e01b600052602260045260246000fd5b50919050565b601f821115613292576000816000526020600020601f850160051c810160208610156132735750805b601f850160051c820191505b818110156124c75782815560010161327f565b505050565b81516001600160401b038111156132b0576132b0612a16565b6132c4816132be8454613210565b8461324a565b602080601f8311600181146132f957600084156132e15750858301515b600019600386901b1c1916600185901b1785556124c7565b600085815260208120601f198616915b8281101561332857888601518255948401946001909101908401613309565b50858210156133465787850151600019600388901b60f8161c191681555b5050505050600190811b01905550565b828152604060208201526000612f946040830184612b66565b6060815260006133826060830186612b66565b82810360208401526133948186612b66565b915050826040830152949350505050565b634e487b7160e01b600052601260045260246000fd5b6000826133ca576133ca6133a5565b500690565b6000602082840312156133e157600080fd5b5051919050565b600082516133fa818460208701612b42565b9190910192915050565b818103818111156110f9576110f96131ac565b80820281158282048414176110f9576110f96131ac565b60008261343d5761343d6133a5565b500490565b805169ffffffffffffffffffff8116811461345c57600080fd5b919050565b600080600080600060a0868803121561347957600080fd5b61348286613442565b94506020860151935060408601519250606086015191506134a560808701613442565b90509295509295909350565b80820260008212600160ff1b841416156134cd576134cd6131ac565b81810583148215176110f9576110f96131ac56fea26469706673582212200c8a340f262400410af72ad9586f8a78829928096571103346d3708446c8051f64736f6c63430008180033","linkReferences":{}},"methodIdentifiers":{"CheckUpkeep(bytes)":"c9fbacf3","changeOwner(address)":"a6f9dae1","changeUsername(string)":"77c846af","createComment(uint256,string)":"40a17985","createPost(string,string)":"392338f5","deleteComment(uint256,uint256)":"31a4bcb5","deletePost(uint256)":"094cd5ee","downvote(uint256)":"f31fdad4","editComment(uint256,uint256,string)":"fa561152","editPost(uint256,string,string)":"bf0ac63c","getBalance()":"12065fe0","getCommentByPostIdAndCommentId(uint256,uint256)":"4296db5b","getCommentLikersByPostIdAndCommentId(uint256,uint256)":"8dc4a066","getContractOwner()":"442890d5","getIdsOfEligiblePosts()":"2d492c83","getIdsOfRecentPosts()":"984d1015","getPostById(uint256)":"64e95895","getRecentWinners()":"f077b974","getUsdValueOfEthAmount(uint256)":"e96c520b","getUser(address)":"6f77926b","getUserById(uint256)":"6ed6da9e","getUserComments(address)":"2b3c6e22","getUserNameFromAddress(address)":"6372af84","getUserPosts(address)":"9a2194a9","likeComment(uint256,uint256)":"a0e91821","performUpkeep(bytes)":"4585e33b","rawFulfillRandomWords(uint256,uint256[])":"1fe543e3","registerUser(string,string,string)":"d637dcfa","transferContractBalance(address)":"96f11ac8","upvote(uint256)":"01ddf070"},"id":36}